{
	"contracts/pscmbc.sol": {
		"PSCMBC": {
			"abi": [
				{
					"anonymous": false,
					"inputs": [
						{
							"indexed": false,
							"internalType": "address",
							"name": "buyer",
							"type": "address"
						},
						{
							"indexed": false,
							"internalType": "address",
							"name": "seller",
							"type": "address"
						},
						{
							"indexed": false,
							"internalType": "uint256",
							"name": "prodId",
							"type": "uint256"
						},
						{
							"indexed": false,
							"internalType": "uint256",
							"name": "txnAmount",
							"type": "uint256"
						},
						{
							"indexed": false,
							"internalType": "uint256",
							"name": "quantity",
							"type": "uint256"
						},
						{
							"indexed": false,
							"internalType": "uint256",
							"name": "date",
							"type": "uint256"
						}
					],
					"name": "PaymentDone",
					"type": "event"
				},
				{
					"anonymous": false,
					"inputs": [
						{
							"indexed": false,
							"internalType": "uint256",
							"name": "prod_id",
							"type": "uint256"
						},
						{
							"indexed": false,
							"internalType": "address",
							"name": "owner_id",
							"type": "address"
						},
						{
							"indexed": false,
							"internalType": "string",
							"name": "prod_name",
							"type": "string"
						},
						{
							"indexed": false,
							"internalType": "uint256",
							"name": "price",
							"type": "uint256"
						},
						{
							"indexed": false,
							"internalType": "uint256",
							"name": "avaiableUnits",
							"type": "uint256"
						},
						{
							"components": [
								{
									"internalType": "string",
									"name": "drug_name",
									"type": "string"
								},
								{
									"internalType": "string",
									"name": "drug_class",
									"type": "string"
								},
								{
									"internalType": "int256",
									"name": "storage_temp",
									"type": "int256"
								},
								{
									"internalType": "string[]",
									"name": "ingredients",
									"type": "string[]"
								},
								{
									"internalType": "string[]",
									"name": "mfg_date",
									"type": "string[]"
								},
								{
									"internalType": "string[]",
									"name": "exp_date",
									"type": "string[]"
								},
								{
									"internalType": "string",
									"name": "batch_no",
									"type": "string"
								},
								{
									"internalType": "string[]",
									"name": "sideEffects",
									"type": "string[]"
								}
							],
							"indexed": false,
							"internalType": "struct PSCMBC.Description",
							"name": "prod_desc",
							"type": "tuple"
						}
					],
					"name": "ProductCreated",
					"type": "event"
				},
				{
					"anonymous": false,
					"inputs": [
						{
							"indexed": false,
							"internalType": "address",
							"name": "user_id",
							"type": "address"
						},
						{
							"indexed": false,
							"internalType": "string",
							"name": "org_name",
							"type": "string"
						},
						{
							"indexed": false,
							"internalType": "string",
							"name": "user_type",
							"type": "string"
						},
						{
							"indexed": false,
							"internalType": "string",
							"name": "email",
							"type": "string"
						},
						{
							"indexed": false,
							"internalType": "string",
							"name": "password",
							"type": "string"
						},
						{
							"indexed": false,
							"internalType": "uint256",
							"name": "balance",
							"type": "uint256"
						},
						{
							"indexed": false,
							"internalType": "uint256[12]",
							"name": "TIN",
							"type": "uint256[12]"
						},
						{
							"indexed": false,
							"internalType": "string",
							"name": "location",
							"type": "string"
						}
					],
					"name": "UserCreated",
					"type": "event"
				},
				{
					"inputs": [
						{
							"internalType": "address",
							"name": "",
							"type": "address"
						}
					],
					"name": "balances",
					"outputs": [
						{
							"internalType": "uint256",
							"name": "",
							"type": "uint256"
						}
					],
					"stateMutability": "view",
					"type": "function"
				},
				{
					"inputs": [
						{
							"internalType": "uint256",
							"name": "prodId",
							"type": "uint256"
						},
						{
							"internalType": "uint256",
							"name": "amount",
							"type": "uint256"
						}
					],
					"name": "buy_product",
					"outputs": [
						{
							"internalType": "bool",
							"name": "bought",
							"type": "bool"
						}
					],
					"stateMutability": "nonpayable",
					"type": "function"
				},
				{
					"inputs": [
						{
							"internalType": "string",
							"name": "pn",
							"type": "string"
						},
						{
							"internalType": "uint256",
							"name": "pr",
							"type": "uint256"
						},
						{
							"internalType": "uint256",
							"name": "au",
							"type": "uint256"
						},
						{
							"internalType": "string",
							"name": "dn",
							"type": "string"
						},
						{
							"internalType": "string",
							"name": "dc",
							"type": "string"
						},
						{
							"internalType": "int256",
							"name": "st",
							"type": "int256"
						},
						{
							"internalType": "string[]",
							"name": "i",
							"type": "string[]"
						},
						{
							"internalType": "string[]",
							"name": "md",
							"type": "string[]"
						},
						{
							"internalType": "string[]",
							"name": "ed",
							"type": "string[]"
						},
						{
							"internalType": "string",
							"name": "bn",
							"type": "string"
						},
						{
							"internalType": "string[]",
							"name": "se",
							"type": "string[]"
						}
					],
					"name": "create_prod",
					"outputs": [],
					"stateMutability": "nonpayable",
					"type": "function"
				},
				{
					"inputs": [
						{
							"internalType": "string",
							"name": "ut",
							"type": "string"
						},
						{
							"internalType": "string",
							"name": "on",
							"type": "string"
						},
						{
							"internalType": "string",
							"name": "email",
							"type": "string"
						},
						{
							"internalType": "string",
							"name": "pass",
							"type": "string"
						},
						{
							"internalType": "uint256",
							"name": "bal",
							"type": "uint256"
						},
						{
							"internalType": "uint256[12]",
							"name": "TIN",
							"type": "uint256[12]"
						},
						{
							"internalType": "string",
							"name": "loc",
							"type": "string"
						}
					],
					"name": "create_user",
					"outputs": [],
					"stateMutability": "nonpayable",
					"type": "function"
				},
				{
					"inputs": [],
					"name": "getBalance",
					"outputs": [
						{
							"internalType": "uint256",
							"name": "",
							"type": "uint256"
						}
					],
					"stateMutability": "view",
					"type": "function"
				},
				{
					"inputs": [
						{
							"internalType": "address",
							"name": "add",
							"type": "address"
						}
					],
					"name": "getBalance",
					"outputs": [
						{
							"internalType": "uint256",
							"name": "",
							"type": "uint256"
						}
					],
					"stateMutability": "view",
					"type": "function"
				},
				{
					"inputs": [
						{
							"internalType": "address",
							"name": "addr",
							"type": "address"
						}
					],
					"name": "getBalance2",
					"outputs": [
						{
							"internalType": "uint256",
							"name": "",
							"type": "uint256"
						}
					],
					"stateMutability": "view",
					"type": "function"
				},
				{
					"inputs": [
						{
							"internalType": "uint256",
							"name": "x",
							"type": "uint256"
						}
					],
					"name": "getProd",
					"outputs": [
						{
							"components": [
								{
									"internalType": "uint256",
									"name": "prod_id",
									"type": "uint256"
								},
								{
									"internalType": "address",
									"name": "owner_id",
									"type": "address"
								},
								{
									"internalType": "string",
									"name": "prod_name",
									"type": "string"
								},
								{
									"internalType": "uint256",
									"name": "price",
									"type": "uint256"
								},
								{
									"internalType": "uint256",
									"name": "avaiableUnits",
									"type": "uint256"
								},
								{
									"components": [
										{
											"internalType": "string",
											"name": "drug_name",
											"type": "string"
										},
										{
											"internalType": "string",
											"name": "drug_class",
											"type": "string"
										},
										{
											"internalType": "int256",
											"name": "storage_temp",
											"type": "int256"
										},
										{
											"internalType": "string[]",
											"name": "ingredients",
											"type": "string[]"
										},
										{
											"internalType": "string[]",
											"name": "mfg_date",
											"type": "string[]"
										},
										{
											"internalType": "string[]",
											"name": "exp_date",
											"type": "string[]"
										},
										{
											"internalType": "string",
											"name": "batch_no",
											"type": "string"
										},
										{
											"internalType": "string[]",
											"name": "sideEffects",
											"type": "string[]"
										}
									],
									"internalType": "struct PSCMBC.Description",
									"name": "prod_desc",
									"type": "tuple"
								}
							],
							"internalType": "struct PSCMBC.Product",
							"name": "p",
							"type": "tuple"
						}
					],
					"stateMutability": "view",
					"type": "function"
				},
				{
					"inputs": [
						{
							"internalType": "uint256",
							"name": "",
							"type": "uint256"
						}
					],
					"name": "products",
					"outputs": [
						{
							"internalType": "uint256",
							"name": "prod_id",
							"type": "uint256"
						},
						{
							"internalType": "address",
							"name": "owner_id",
							"type": "address"
						},
						{
							"internalType": "string",
							"name": "prod_name",
							"type": "string"
						},
						{
							"internalType": "uint256",
							"name": "price",
							"type": "uint256"
						},
						{
							"internalType": "uint256",
							"name": "avaiableUnits",
							"type": "uint256"
						},
						{
							"components": [
								{
									"internalType": "string",
									"name": "drug_name",
									"type": "string"
								},
								{
									"internalType": "string",
									"name": "drug_class",
									"type": "string"
								},
								{
									"internalType": "int256",
									"name": "storage_temp",
									"type": "int256"
								},
								{
									"internalType": "string[]",
									"name": "ingredients",
									"type": "string[]"
								},
								{
									"internalType": "string[]",
									"name": "mfg_date",
									"type": "string[]"
								},
								{
									"internalType": "string[]",
									"name": "exp_date",
									"type": "string[]"
								},
								{
									"internalType": "string",
									"name": "batch_no",
									"type": "string"
								},
								{
									"internalType": "string[]",
									"name": "sideEffects",
									"type": "string[]"
								}
							],
							"internalType": "struct PSCMBC.Description",
							"name": "prod_desc",
							"type": "tuple"
						}
					],
					"stateMutability": "view",
					"type": "function"
				},
				{
					"inputs": [
						{
							"internalType": "address[]",
							"name": "addr",
							"type": "address[]"
						}
					],
					"name": "setBalance",
					"outputs": [],
					"stateMutability": "payable",
					"type": "function"
				},
				{
					"inputs": [
						{
							"internalType": "address",
							"name": "_to",
							"type": "address"
						},
						{
							"internalType": "uint256",
							"name": "_value",
							"type": "uint256"
						}
					],
					"name": "transferFund",
					"outputs": [
						{
							"internalType": "bool",
							"name": "sufficient",
							"type": "bool"
						}
					],
					"stateMutability": "nonpayable",
					"type": "function"
				},
				{
					"inputs": [
						{
							"internalType": "uint256",
							"name": "",
							"type": "uint256"
						}
					],
					"name": "users",
					"outputs": [
						{
							"internalType": "address",
							"name": "user_id",
							"type": "address"
						},
						{
							"internalType": "string",
							"name": "org_name",
							"type": "string"
						},
						{
							"internalType": "string",
							"name": "user_type",
							"type": "string"
						},
						{
							"internalType": "string",
							"name": "email",
							"type": "string"
						},
						{
							"internalType": "string",
							"name": "password",
							"type": "string"
						},
						{
							"internalType": "uint256",
							"name": "balance",
							"type": "uint256"
						},
						{
							"internalType": "string",
							"name": "location",
							"type": "string"
						}
					],
					"stateMutability": "view",
					"type": "function"
				}
			],
			"devdoc": {
				"kind": "dev",
				"methods": {},
				"version": 1
			},
			"evm": {
				"assembly": "    /* \"contracts/pscmbc.sol\":68:4795  contract PSCMBC{\r... */\n  mstore(0x40, 0x80)\n  callvalue\n  dup1\n  iszero\n  tag_1\n  jumpi\n  0x00\n  dup1\n  revert\ntag_1:\n  pop\n  dataSize(sub_0)\n  dup1\n  dataOffset(sub_0)\n  0x00\n  codecopy\n  0x00\n  return\nstop\n\nsub_0: assembly {\n        /* \"contracts/pscmbc.sol\":68:4795  contract PSCMBC{\r... */\n      mstore(0x40, 0x80)\n      jumpi(tag_1, lt(calldatasize, 0x04))\n      shr(0xe0, calldataload(0x00))\n      dup1\n      0x365b98b2\n      gt\n      tag_14\n      jumpi\n      dup1\n      0x365b98b2\n      eq\n      tag_8\n      jumpi\n      dup1\n      0x7acc0b20\n      eq\n      tag_9\n      jumpi\n      dup1\n      0xa14595ca\n      eq\n      tag_10\n      jumpi\n      dup1\n      0xe2dc35e0\n      eq\n      tag_11\n      jumpi\n      dup1\n      0xf8b2cb4f\n      eq\n      tag_12\n      jumpi\n      dup1\n      0xfc99cc3b\n      eq\n      tag_13\n      jumpi\n      jump(tag_1)\n    tag_14:\n      dup1\n      0x0a46516b\n      eq\n      tag_2\n      jumpi\n      dup1\n      0x12065fe0\n      eq\n      tag_3\n      jumpi\n      dup1\n      0x1d9faa11\n      eq\n      tag_4\n      jumpi\n      dup1\n      0x27e235e3\n      eq\n      tag_5\n      jumpi\n      dup1\n      0x2f4e1704\n      eq\n      tag_6\n      jumpi\n      dup1\n      0x362d07dc\n      eq\n      tag_7\n      jumpi\n    tag_1:\n      0x00\n      dup1\n      revert\n        /* \"contracts/pscmbc.sol\":3838:3938  function getBalance2(address addr) external view returns(uint){\r... */\n    tag_2:\n      callvalue\n      dup1\n      iszero\n      tag_15\n      jumpi\n      0x00\n      dup1\n      revert\n    tag_15:\n      pop\n      tag_16\n      0x04\n      dup1\n      calldatasize\n      sub\n      dup2\n      add\n      swap1\n      tag_17\n      swap2\n      swap1\n      tag_18\n      jump\t// in\n    tag_17:\n      tag_19\n      jump\t// in\n    tag_16:\n      mload(0x40)\n      tag_20\n      swap2\n      swap1\n      tag_21\n      jump\t// in\n    tag_20:\n      mload(0x40)\n      dup1\n      swap2\n      sub\n      swap1\n      return\n        /* \"contracts/pscmbc.sol\":1643:1739  function getBalance()  public view returns (uint){\r... */\n    tag_3:\n      callvalue\n      dup1\n      iszero\n      tag_22\n      jumpi\n      0x00\n      dup1\n      revert\n    tag_22:\n      pop\n      tag_23\n      tag_24\n      jump\t// in\n    tag_23:\n      mload(0x40)\n      tag_25\n      swap2\n      swap1\n      tag_21\n      jump\t// in\n    tag_25:\n      mload(0x40)\n      dup1\n      swap2\n      sub\n      swap1\n      return\n        /* \"contracts/pscmbc.sol\":2355:3330  function buy_product(uint prodId, uint amount) public returns (bool bought){\r... */\n    tag_4:\n      callvalue\n      dup1\n      iszero\n      tag_26\n      jumpi\n      0x00\n      dup1\n      revert\n    tag_26:\n      pop\n      tag_27\n      0x04\n      dup1\n      calldatasize\n      sub\n      dup2\n      add\n      swap1\n      tag_28\n      swap2\n      swap1\n      tag_29\n      jump\t// in\n    tag_28:\n      tag_30\n      jump\t// in\n    tag_27:\n      mload(0x40)\n      tag_31\n      swap2\n      swap1\n      tag_32\n      jump\t// in\n    tag_31:\n      mload(0x40)\n      dup1\n      swap2\n      sub\n      swap1\n      return\n        /* \"contracts/pscmbc.sol\":832:873  mapping (address => uint) public balances */\n    tag_5:\n      callvalue\n      dup1\n      iszero\n      tag_33\n      jumpi\n      0x00\n      dup1\n      revert\n    tag_33:\n      pop\n      tag_34\n      0x04\n      dup1\n      calldatasize\n      sub\n      dup2\n      add\n      swap1\n      tag_35\n      swap2\n      swap1\n      tag_18\n      jump\t// in\n    tag_35:\n      tag_36\n      jump\t// in\n    tag_34:\n      mload(0x40)\n      tag_37\n      swap2\n      swap1\n      tag_21\n      jump\t// in\n    tag_37:\n      mload(0x40)\n      dup1\n      swap2\n      sub\n      swap1\n      return\n        /* \"contracts/pscmbc.sol\":1749:2347  function create_user(string memory ut, string memory on, string memory email, string memory pass, uint bal, uint[12] memory TIN, string memory loc) public {\r... */\n    tag_6:\n      callvalue\n      dup1\n      iszero\n      tag_38\n      jumpi\n      0x00\n      dup1\n      revert\n    tag_38:\n      pop\n      tag_39\n      0x04\n      dup1\n      calldatasize\n      sub\n      dup2\n      add\n      swap1\n      tag_40\n      swap2\n      swap1\n      tag_41\n      jump\t// in\n    tag_40:\n      tag_42\n      jump\t// in\n    tag_39:\n      stop\n        /* \"contracts/pscmbc.sol\":1483:1635  function setBalance(address[] memory addr) public payable{\r... */\n    tag_7:\n      tag_43\n      0x04\n      dup1\n      calldatasize\n      sub\n      dup2\n      add\n      swap1\n      tag_44\n      swap2\n      swap1\n      tag_45\n      jump\t// in\n    tag_44:\n      tag_46\n      jump\t// in\n    tag_43:\n      stop\n        /* \"contracts/pscmbc.sol\":806:825  User[] public users */\n    tag_8:\n      callvalue\n      dup1\n      iszero\n      tag_47\n      jumpi\n      0x00\n      dup1\n      revert\n    tag_47:\n      pop\n      tag_48\n      0x04\n      dup1\n      calldatasize\n      sub\n      dup2\n      add\n      swap1\n      tag_49\n      swap2\n      swap1\n      tag_50\n      jump\t// in\n    tag_49:\n      tag_51\n      jump\t// in\n    tag_48:\n      mload(0x40)\n      tag_52\n      swap8\n      swap7\n      swap6\n      swap5\n      swap4\n      swap3\n      swap2\n      swap1\n      tag_53\n      jump\t// in\n    tag_52:\n      mload(0x40)\n      dup1\n      swap2\n      sub\n      swap1\n      return\n        /* \"contracts/pscmbc.sol\":543:568  Product[] public products */\n    tag_9:\n      callvalue\n      dup1\n      iszero\n      tag_54\n      jumpi\n      0x00\n      dup1\n      revert\n    tag_54:\n      pop\n      tag_55\n      0x04\n      dup1\n      calldatasize\n      sub\n      dup2\n      add\n      swap1\n      tag_56\n      swap2\n      swap1\n      tag_50\n      jump\t// in\n    tag_56:\n      tag_57\n      jump\t// in\n    tag_55:\n      mload(0x40)\n      tag_58\n      swap7\n      swap6\n      swap5\n      swap4\n      swap3\n      swap2\n      swap1\n      tag_59\n      jump\t// in\n    tag_58:\n      mload(0x40)\n      dup1\n      swap2\n      sub\n      swap1\n      return\n        /* \"contracts/pscmbc.sol\":3946:4784  function create_prod (string memory pn, uint pr, uint au, string memory dn, string memory dc, \r... */\n    tag_10:\n      callvalue\n      dup1\n      iszero\n      tag_60\n      jumpi\n      0x00\n      dup1\n      revert\n    tag_60:\n      pop\n      tag_61\n      0x04\n      dup1\n      calldatasize\n      sub\n      dup2\n      add\n      swap1\n      tag_62\n      swap2\n      swap1\n      tag_63\n      jump\t// in\n    tag_62:\n      tag_64\n      jump\t// in\n    tag_61:\n      stop\n        /* \"contracts/pscmbc.sol\":3339:3618  function transferFund(address _to, uint256 _value) public returns (bool sufficient) {\r... */\n    tag_11:\n      callvalue\n      dup1\n      iszero\n      tag_65\n      jumpi\n      0x00\n      dup1\n      revert\n    tag_65:\n      pop\n      tag_66\n      0x04\n      dup1\n      calldatasize\n      sub\n      dup2\n      add\n      swap1\n      tag_67\n      swap2\n      swap1\n      tag_68\n      jump\t// in\n    tag_67:\n      tag_69\n      jump\t// in\n    tag_66:\n      mload(0x40)\n      tag_70\n      swap2\n      swap1\n      tag_32\n      jump\t// in\n    tag_70:\n      mload(0x40)\n      dup1\n      swap2\n      sub\n      swap1\n      return\n        /* \"contracts/pscmbc.sol\":3626:3723  function getBalance(address add) public view returns(uint){\r... */\n    tag_12:\n      callvalue\n      dup1\n      iszero\n      tag_71\n      jumpi\n      0x00\n      dup1\n      revert\n    tag_71:\n      pop\n      tag_72\n      0x04\n      dup1\n      calldatasize\n      sub\n      dup2\n      add\n      swap1\n      tag_73\n      swap2\n      swap1\n      tag_18\n      jump\t// in\n    tag_73:\n      tag_74\n      jump\t// in\n    tag_72:\n      mload(0x40)\n      tag_75\n      swap2\n      swap1\n      tag_21\n      jump\t// in\n    tag_75:\n      mload(0x40)\n      dup1\n      swap2\n      sub\n      swap1\n      return\n        /* \"contracts/pscmbc.sol\":3731:3830  function getProd(uint x) public view returns(Product memory p){\r... */\n    tag_13:\n      callvalue\n      dup1\n      iszero\n      tag_76\n      jumpi\n      0x00\n      dup1\n      revert\n    tag_76:\n      pop\n      tag_77\n      0x04\n      dup1\n      calldatasize\n      sub\n      dup2\n      add\n      swap1\n      tag_78\n      swap2\n      swap1\n      tag_50\n      jump\t// in\n    tag_78:\n      tag_79\n      jump\t// in\n    tag_77:\n      mload(0x40)\n      tag_80\n      swap2\n      swap1\n      tag_81\n      jump\t// in\n    tag_80:\n      mload(0x40)\n      dup1\n      swap2\n      sub\n      swap1\n      return\n        /* \"contracts/pscmbc.sol\":3838:3938  function getBalance2(address addr) external view returns(uint){\r... */\n    tag_19:\n        /* \"contracts/pscmbc.sol\":3895:3899  uint */\n      0x00\n        /* \"contracts/pscmbc.sol\":3918:3922  addr */\n      dup2\n        /* \"contracts/pscmbc.sol\":3918:3930  addr.balance */\n      0xffffffffffffffffffffffffffffffffffffffff\n      and\n      balance\n        /* \"contracts/pscmbc.sol\":3911:3930  return addr.balance */\n      swap1\n      pop\n        /* \"contracts/pscmbc.sol\":3838:3938  function getBalance2(address addr) external view returns(uint){\r... */\n      swap2\n      swap1\n      pop\n      jump\t// out\n        /* \"contracts/pscmbc.sol\":1643:1739  function getBalance()  public view returns (uint){\r... */\n    tag_24:\n        /* \"contracts/pscmbc.sol\":1687:1691  uint */\n      0x00\n        /* \"contracts/pscmbc.sol\":1710:1731  address(this).balance */\n      selfbalance\n        /* \"contracts/pscmbc.sol\":1703:1731  return address(this).balance */\n      swap1\n      pop\n        /* \"contracts/pscmbc.sol\":1643:1739  function getBalance()  public view returns (uint){\r... */\n      swap1\n      jump\t// out\n        /* \"contracts/pscmbc.sol\":2355:3330  function buy_product(uint prodId, uint amount) public returns (bool bought){\r... */\n    tag_30:\n        /* \"contracts/pscmbc.sol\":2418:2429  bool bought */\n      0x00\n        /* \"contracts/pscmbc.sol\":2454:2455  0 */\n      dup1\n        /* \"contracts/pscmbc.sol\":2444:2450  prodId */\n      dup4\n        /* \"contracts/pscmbc.sol\":2444:2455  prodId != 0 */\n      eq\n      iszero\n        /* \"contracts/pscmbc.sol\":2444:2499  prodId != 0 && products[prodId].avaiableUnits >= amount */\n      dup1\n      iszero\n      tag_85\n      jumpi\n      pop\n        /* \"contracts/pscmbc.sol\":2493:2499  amount */\n      dup2\n        /* \"contracts/pscmbc.sol\":2459:2467  products */\n      0x00\n        /* \"contracts/pscmbc.sol\":2468:2474  prodId */\n      dup5\n        /* \"contracts/pscmbc.sol\":2459:2475  products[prodId] */\n      dup2\n      sload\n      dup2\n      lt\n      tag_86\n      jumpi\n      tag_87\n      tag_88\n      jump\t// in\n    tag_87:\n    tag_86:\n      swap1\n      0x00\n      mstore\n      keccak256(0x00, 0x20)\n      swap1\n      0x0d\n      mul\n      add\n        /* \"contracts/pscmbc.sol\":2459:2489  products[prodId].avaiableUnits */\n      0x04\n      add\n      sload\n        /* \"contracts/pscmbc.sol\":2459:2499  products[prodId].avaiableUnits >= amount */\n      lt\n      iszero\n        /* \"contracts/pscmbc.sol\":2444:2499  prodId != 0 && products[prodId].avaiableUnits >= amount */\n    tag_85:\n        /* \"contracts/pscmbc.sol\":2441:3298  if(prodId != 0 && products[prodId].avaiableUnits >= amount){\r... */\n      iszero\n      tag_90\n      jumpi\n        /* \"contracts/pscmbc.sol\":2515:2523  uint val */\n      0x00\n        /* \"contracts/pscmbc.sol\":2551:2557  amount */\n      dup3\n        /* \"contracts/pscmbc.sol\":2526:2534  products */\n      0x00\n        /* \"contracts/pscmbc.sol\":2535:2541  prodId */\n      dup6\n        /* \"contracts/pscmbc.sol\":2526:2542  products[prodId] */\n      dup2\n      sload\n      dup2\n      lt\n      tag_91\n      jumpi\n      tag_92\n      tag_88\n      jump\t// in\n    tag_92:\n    tag_91:\n      swap1\n      0x00\n      mstore\n      keccak256(0x00, 0x20)\n      swap1\n      0x0d\n      mul\n      add\n        /* \"contracts/pscmbc.sol\":2526:2548  products[prodId].price */\n      0x03\n      add\n      sload\n        /* \"contracts/pscmbc.sol\":2526:2557  products[prodId].price * amount */\n      tag_94\n      swap2\n      swap1\n      tag_95\n      jump\t// in\n    tag_94:\n        /* \"contracts/pscmbc.sol\":2515:2557  uint val = products[prodId].price * amount */\n      swap1\n      pop\n        /* \"contracts/pscmbc.sol\":2576:2620  transferFund(products[prodId].owner_id, val) */\n      tag_96\n        /* \"contracts/pscmbc.sol\":2589:2597  products */\n      0x00\n        /* \"contracts/pscmbc.sol\":2598:2604  prodId */\n      dup6\n        /* \"contracts/pscmbc.sol\":2589:2605  products[prodId] */\n      dup2\n      sload\n      dup2\n      lt\n      tag_97\n      jumpi\n      tag_98\n      tag_88\n      jump\t// in\n    tag_98:\n    tag_97:\n      swap1\n      0x00\n      mstore\n      keccak256(0x00, 0x20)\n      swap1\n      0x0d\n      mul\n      add\n        /* \"contracts/pscmbc.sol\":2589:2614  products[prodId].owner_id */\n      0x01\n      add\n      0x00\n      swap1\n      sload\n      swap1\n      0x0100\n      exp\n      swap1\n      div\n      0xffffffffffffffffffffffffffffffffffffffff\n      and\n        /* \"contracts/pscmbc.sol\":2616:2619  val */\n      dup3\n        /* \"contracts/pscmbc.sol\":2576:2588  transferFund */\n      tag_69\n        /* \"contracts/pscmbc.sol\":2576:2620  transferFund(products[prodId].owner_id, val) */\n      jump\t// in\n    tag_96:\n        /* \"contracts/pscmbc.sol\":2572:2651  if(!transferFund(products[prodId].owner_id, val))\r... */\n      tag_100\n      jumpi\n        /* \"contracts/pscmbc.sol\":2646:2651  false */\n      0x00\n        /* \"contracts/pscmbc.sol\":2639:2651  return false */\n      swap2\n      pop\n      pop\n      jump(tag_84)\n        /* \"contracts/pscmbc.sol\":2572:2651  if(!transferFund(products[prodId].owner_id, val))\r... */\n    tag_100:\n        /* \"contracts/pscmbc.sol\":2700:2706  amount */\n      dup3\n        /* \"contracts/pscmbc.sol\":2666:2674  products */\n      0x00\n        /* \"contracts/pscmbc.sol\":2675:2681  prodId */\n      dup6\n        /* \"contracts/pscmbc.sol\":2666:2682  products[prodId] */\n      dup2\n      sload\n      dup2\n      lt\n      tag_101\n      jumpi\n      tag_102\n      tag_88\n      jump\t// in\n    tag_102:\n    tag_101:\n      swap1\n      0x00\n      mstore\n      keccak256(0x00, 0x20)\n      swap1\n      0x0d\n      mul\n      add\n        /* \"contracts/pscmbc.sol\":2666:2696  products[prodId].avaiableUnits */\n      0x04\n      add\n      0x00\n        /* \"contracts/pscmbc.sol\":2666:2706  products[prodId].avaiableUnits -= amount */\n      dup3\n      dup3\n      sload\n      tag_104\n      swap2\n      swap1\n      tag_105\n      jump\t// in\n    tag_104:\n      swap3\n      pop\n      pop\n      dup2\n      swap1\n      sstore\n      pop\n        /* \"contracts/pscmbc.sol\":2721:3140  create_prod(products[prodId].prod_name, products[prodId].price, amount, products[prodId].prod_desc.drug_name,\r... */\n      tag_106\n        /* \"contracts/pscmbc.sol\":2733:2741  products */\n      0x00\n        /* \"contracts/pscmbc.sol\":2742:2748  prodId */\n      dup6\n        /* \"contracts/pscmbc.sol\":2733:2749  products[prodId] */\n      dup2\n      sload\n      dup2\n      lt\n      tag_107\n      jumpi\n      tag_108\n      tag_88\n      jump\t// in\n    tag_108:\n    tag_107:\n      swap1\n      0x00\n      mstore\n      keccak256(0x00, 0x20)\n      swap1\n      0x0d\n      mul\n      add\n        /* \"contracts/pscmbc.sol\":2733:2759  products[prodId].prod_name */\n      0x02\n      add\n        /* \"contracts/pscmbc.sol\":2721:3140  create_prod(products[prodId].prod_name, products[prodId].price, amount, products[prodId].prod_desc.drug_name,\r... */\n      dup1\n      sload\n      tag_110\n      swap1\n      tag_111\n      jump\t// in\n    tag_110:\n      dup1\n      0x1f\n      add\n      0x20\n      dup1\n      swap2\n      div\n      mul\n      0x20\n      add\n      mload(0x40)\n      swap1\n      dup2\n      add\n      0x40\n      mstore\n      dup1\n      swap3\n      swap2\n      swap1\n      dup2\n      dup2\n      mstore\n      0x20\n      add\n      dup3\n      dup1\n      sload\n      tag_112\n      swap1\n      tag_111\n      jump\t// in\n    tag_112:\n      dup1\n      iszero\n      tag_113\n      jumpi\n      dup1\n      0x1f\n      lt\n      tag_114\n      jumpi\n      0x0100\n      dup1\n      dup4\n      sload\n      div\n      mul\n      dup4\n      mstore\n      swap2\n      0x20\n      add\n      swap2\n      jump(tag_113)\n    tag_114:\n      dup3\n      add\n      swap2\n      swap1\n      0x00\n      mstore\n      keccak256(0x00, 0x20)\n      swap1\n    tag_115:\n      dup2\n      sload\n      dup2\n      mstore\n      swap1\n      0x01\n      add\n      swap1\n      0x20\n      add\n      dup1\n      dup4\n      gt\n      tag_115\n      jumpi\n      dup3\n      swap1\n      sub\n      0x1f\n      and\n      dup3\n      add\n      swap2\n    tag_113:\n      pop\n      pop\n      pop\n      pop\n      pop\n        /* \"contracts/pscmbc.sol\":2761:2769  products */\n      0x00\n        /* \"contracts/pscmbc.sol\":2770:2776  prodId */\n      dup7\n        /* \"contracts/pscmbc.sol\":2761:2777  products[prodId] */\n      dup2\n      sload\n      dup2\n      lt\n      tag_116\n      jumpi\n      tag_117\n      tag_88\n      jump\t// in\n    tag_117:\n    tag_116:\n      swap1\n      0x00\n      mstore\n      keccak256(0x00, 0x20)\n      swap1\n      0x0d\n      mul\n      add\n        /* \"contracts/pscmbc.sol\":2761:2783  products[prodId].price */\n      0x03\n      add\n      sload\n        /* \"contracts/pscmbc.sol\":2785:2791  amount */\n      dup6\n        /* \"contracts/pscmbc.sol\":2793:2801  products */\n      0x00\n        /* \"contracts/pscmbc.sol\":2802:2808  prodId */\n      dup9\n        /* \"contracts/pscmbc.sol\":2793:2809  products[prodId] */\n      dup2\n      sload\n      dup2\n      lt\n      tag_119\n      jumpi\n      tag_120\n      tag_88\n      jump\t// in\n    tag_120:\n    tag_119:\n      swap1\n      0x00\n      mstore\n      keccak256(0x00, 0x20)\n      swap1\n      0x0d\n      mul\n      add\n        /* \"contracts/pscmbc.sol\":2793:2819  products[prodId].prod_desc */\n      0x05\n      add\n        /* \"contracts/pscmbc.sol\":2793:2829  products[prodId].prod_desc.drug_name */\n      0x00\n      add\n        /* \"contracts/pscmbc.sol\":2721:3140  create_prod(products[prodId].prod_name, products[prodId].price, amount, products[prodId].prod_desc.drug_name,\r... */\n      dup1\n      sload\n      tag_122\n      swap1\n      tag_111\n      jump\t// in\n    tag_122:\n      dup1\n      0x1f\n      add\n      0x20\n      dup1\n      swap2\n      div\n      mul\n      0x20\n      add\n      mload(0x40)\n      swap1\n      dup2\n      add\n      0x40\n      mstore\n      dup1\n      swap3\n      swap2\n      swap1\n      dup2\n      dup2\n      mstore\n      0x20\n      add\n      dup3\n      dup1\n      sload\n      tag_123\n      swap1\n      tag_111\n      jump\t// in\n    tag_123:\n      dup1\n      iszero\n      tag_124\n      jumpi\n      dup1\n      0x1f\n      lt\n      tag_125\n      jumpi\n      0x0100\n      dup1\n      dup4\n      sload\n      div\n      mul\n      dup4\n      mstore\n      swap2\n      0x20\n      add\n      swap2\n      jump(tag_124)\n    tag_125:\n      dup3\n      add\n      swap2\n      swap1\n      0x00\n      mstore\n      keccak256(0x00, 0x20)\n      swap1\n    tag_126:\n      dup2\n      sload\n      dup2\n      mstore\n      swap1\n      0x01\n      add\n      swap1\n      0x20\n      add\n      dup1\n      dup4\n      gt\n      tag_126\n      jumpi\n      dup3\n      swap1\n      sub\n      0x1f\n      and\n      dup3\n      add\n      swap2\n    tag_124:\n      pop\n      pop\n      pop\n      pop\n      pop\n        /* \"contracts/pscmbc.sol\":2844:2852  products */\n      0x00\n        /* \"contracts/pscmbc.sol\":2853:2859  prodId */\n      dup10\n        /* \"contracts/pscmbc.sol\":2844:2860  products[prodId] */\n      dup2\n      sload\n      dup2\n      lt\n      tag_127\n      jumpi\n      tag_128\n      tag_88\n      jump\t// in\n    tag_128:\n    tag_127:\n      swap1\n      0x00\n      mstore\n      keccak256(0x00, 0x20)\n      swap1\n      0x0d\n      mul\n      add\n        /* \"contracts/pscmbc.sol\":2844:2870  products[prodId].prod_desc */\n      0x05\n      add\n        /* \"contracts/pscmbc.sol\":2844:2881  products[prodId].prod_desc.drug_class */\n      0x01\n      add\n        /* \"contracts/pscmbc.sol\":2721:3140  create_prod(products[prodId].prod_name, products[prodId].price, amount, products[prodId].prod_desc.drug_name,\r... */\n      dup1\n      sload\n      tag_130\n      swap1\n      tag_111\n      jump\t// in\n    tag_130:\n      dup1\n      0x1f\n      add\n      0x20\n      dup1\n      swap2\n      div\n      mul\n      0x20\n      add\n      mload(0x40)\n      swap1\n      dup2\n      add\n      0x40\n      mstore\n      dup1\n      swap3\n      swap2\n      swap1\n      dup2\n      dup2\n      mstore\n      0x20\n      add\n      dup3\n      dup1\n      sload\n      tag_131\n      swap1\n      tag_111\n      jump\t// in\n    tag_131:\n      dup1\n      iszero\n      tag_132\n      jumpi\n      dup1\n      0x1f\n      lt\n      tag_133\n      jumpi\n      0x0100\n      dup1\n      dup4\n      sload\n      div\n      mul\n      dup4\n      mstore\n      swap2\n      0x20\n      add\n      swap2\n      jump(tag_132)\n    tag_133:\n      dup3\n      add\n      swap2\n      swap1\n      0x00\n      mstore\n      keccak256(0x00, 0x20)\n      swap1\n    tag_134:\n      dup2\n      sload\n      dup2\n      mstore\n      swap1\n      0x01\n      add\n      swap1\n      0x20\n      add\n      dup1\n      dup4\n      gt\n      tag_134\n      jumpi\n      dup3\n      swap1\n      sub\n      0x1f\n      and\n      dup3\n      add\n      swap2\n    tag_132:\n      pop\n      pop\n      pop\n      pop\n      pop\n        /* \"contracts/pscmbc.sol\":2883:2891  products */\n      0x00\n        /* \"contracts/pscmbc.sol\":2892:2898  prodId */\n      dup11\n        /* \"contracts/pscmbc.sol\":2883:2899  products[prodId] */\n      dup2\n      sload\n      dup2\n      lt\n      tag_135\n      jumpi\n      tag_136\n      tag_88\n      jump\t// in\n    tag_136:\n    tag_135:\n      swap1\n      0x00\n      mstore\n      keccak256(0x00, 0x20)\n      swap1\n      0x0d\n      mul\n      add\n        /* \"contracts/pscmbc.sol\":2883:2909  products[prodId].prod_desc */\n      0x05\n      add\n        /* \"contracts/pscmbc.sol\":2883:2922  products[prodId].prod_desc.storage_temp */\n      0x02\n      add\n      sload\n        /* \"contracts/pscmbc.sol\":2924:2932  products */\n      0x00\n        /* \"contracts/pscmbc.sol\":2933:2939  prodId */\n      dup12\n        /* \"contracts/pscmbc.sol\":2924:2940  products[prodId] */\n      dup2\n      sload\n      dup2\n      lt\n      tag_138\n      jumpi\n      tag_139\n      tag_88\n      jump\t// in\n    tag_139:\n    tag_138:\n      swap1\n      0x00\n      mstore\n      keccak256(0x00, 0x20)\n      swap1\n      0x0d\n      mul\n      add\n        /* \"contracts/pscmbc.sol\":2924:2950  products[prodId].prod_desc */\n      0x05\n      add\n        /* \"contracts/pscmbc.sol\":2924:2962  products[prodId].prod_desc.ingredients */\n      0x03\n      add\n        /* \"contracts/pscmbc.sol\":2721:3140  create_prod(products[prodId].prod_name, products[prodId].price, amount, products[prodId].prod_desc.drug_name,\r... */\n      dup1\n      sload\n      dup1\n      0x20\n      mul\n      0x20\n      add\n      mload(0x40)\n      swap1\n      dup2\n      add\n      0x40\n      mstore\n      dup1\n      swap3\n      swap2\n      swap1\n      dup2\n      dup2\n      mstore\n      0x20\n      add\n      0x00\n      swap1\n    tag_141:\n      dup3\n      dup3\n      lt\n      iszero\n      tag_142\n      jumpi\n      dup4\n      dup3\n      swap1\n      0x00\n      mstore\n      keccak256(0x00, 0x20)\n      add\n      dup1\n      sload\n      tag_144\n      swap1\n      tag_111\n      jump\t// in\n    tag_144:\n      dup1\n      0x1f\n      add\n      0x20\n      dup1\n      swap2\n      div\n      mul\n      0x20\n      add\n      mload(0x40)\n      swap1\n      dup2\n      add\n      0x40\n      mstore\n      dup1\n      swap3\n      swap2\n      swap1\n      dup2\n      dup2\n      mstore\n      0x20\n      add\n      dup3\n      dup1\n      sload\n      tag_145\n      swap1\n      tag_111\n      jump\t// in\n    tag_145:\n      dup1\n      iszero\n      tag_146\n      jumpi\n      dup1\n      0x1f\n      lt\n      tag_147\n      jumpi\n      0x0100\n      dup1\n      dup4\n      sload\n      div\n      mul\n      dup4\n      mstore\n      swap2\n      0x20\n      add\n      swap2\n      jump(tag_146)\n    tag_147:\n      dup3\n      add\n      swap2\n      swap1\n      0x00\n      mstore\n      keccak256(0x00, 0x20)\n      swap1\n    tag_148:\n      dup2\n      sload\n      dup2\n      mstore\n      swap1\n      0x01\n      add\n      swap1\n      0x20\n      add\n      dup1\n      dup4\n      gt\n      tag_148\n      jumpi\n      dup3\n      swap1\n      sub\n      0x1f\n      and\n      dup3\n      add\n      swap2\n    tag_146:\n      pop\n      pop\n      pop\n      pop\n      pop\n      dup2\n      mstore\n      0x20\n      add\n      swap1\n      0x01\n      add\n      swap1\n      jump(tag_141)\n    tag_142:\n      pop\n      pop\n      pop\n      pop\n        /* \"contracts/pscmbc.sol\":2977:2985  products */\n      0x00\n        /* \"contracts/pscmbc.sol\":2986:2992  prodId */\n      dup13\n        /* \"contracts/pscmbc.sol\":2977:2993  products[prodId] */\n      dup2\n      sload\n      dup2\n      lt\n      tag_149\n      jumpi\n      tag_150\n      tag_88\n      jump\t// in\n    tag_150:\n    tag_149:\n      swap1\n      0x00\n      mstore\n      keccak256(0x00, 0x20)\n      swap1\n      0x0d\n      mul\n      add\n        /* \"contracts/pscmbc.sol\":2977:3003  products[prodId].prod_desc */\n      0x05\n      add\n        /* \"contracts/pscmbc.sol\":2977:3012  products[prodId].prod_desc.mfg_date */\n      0x04\n      add\n        /* \"contracts/pscmbc.sol\":2721:3140  create_prod(products[prodId].prod_name, products[prodId].price, amount, products[prodId].prod_desc.drug_name,\r... */\n      dup1\n      sload\n      dup1\n      0x20\n      mul\n      0x20\n      add\n      mload(0x40)\n      swap1\n      dup2\n      add\n      0x40\n      mstore\n      dup1\n      swap3\n      swap2\n      swap1\n      dup2\n      dup2\n      mstore\n      0x20\n      add\n      0x00\n      swap1\n    tag_152:\n      dup3\n      dup3\n      lt\n      iszero\n      tag_153\n      jumpi\n      dup4\n      dup3\n      swap1\n      0x00\n      mstore\n      keccak256(0x00, 0x20)\n      add\n      dup1\n      sload\n      tag_155\n      swap1\n      tag_111\n      jump\t// in\n    tag_155:\n      dup1\n      0x1f\n      add\n      0x20\n      dup1\n      swap2\n      div\n      mul\n      0x20\n      add\n      mload(0x40)\n      swap1\n      dup2\n      add\n      0x40\n      mstore\n      dup1\n      swap3\n      swap2\n      swap1\n      dup2\n      dup2\n      mstore\n      0x20\n      add\n      dup3\n      dup1\n      sload\n      tag_156\n      swap1\n      tag_111\n      jump\t// in\n    tag_156:\n      dup1\n      iszero\n      tag_157\n      jumpi\n      dup1\n      0x1f\n      lt\n      tag_158\n      jumpi\n      0x0100\n      dup1\n      dup4\n      sload\n      div\n      mul\n      dup4\n      mstore\n      swap2\n      0x20\n      add\n      swap2\n      jump(tag_157)\n    tag_158:\n      dup3\n      add\n      swap2\n      swap1\n      0x00\n      mstore\n      keccak256(0x00, 0x20)\n      swap1\n    tag_159:\n      dup2\n      sload\n      dup2\n      mstore\n      swap1\n      0x01\n      add\n      swap1\n      0x20\n      add\n      dup1\n      dup4\n      gt\n      tag_159\n      jumpi\n      dup3\n      swap1\n      sub\n      0x1f\n      and\n      dup3\n      add\n      swap2\n    tag_157:\n      pop\n      pop\n      pop\n      pop\n      pop\n      dup2\n      mstore\n      0x20\n      add\n      swap1\n      0x01\n      add\n      swap1\n      jump(tag_152)\n    tag_153:\n      pop\n      pop\n      pop\n      pop\n        /* \"contracts/pscmbc.sol\":3014:3022  products */\n      0x00\n        /* \"contracts/pscmbc.sol\":3023:3029  prodId */\n      dup14\n        /* \"contracts/pscmbc.sol\":3014:3030  products[prodId] */\n      dup2\n      sload\n      dup2\n      lt\n      tag_160\n      jumpi\n      tag_161\n      tag_88\n      jump\t// in\n    tag_161:\n    tag_160:\n      swap1\n      0x00\n      mstore\n      keccak256(0x00, 0x20)\n      swap1\n      0x0d\n      mul\n      add\n        /* \"contracts/pscmbc.sol\":3014:3040  products[prodId].prod_desc */\n      0x05\n      add\n        /* \"contracts/pscmbc.sol\":3014:3049  products[prodId].prod_desc.exp_date */\n      0x05\n      add\n        /* \"contracts/pscmbc.sol\":2721:3140  create_prod(products[prodId].prod_name, products[prodId].price, amount, products[prodId].prod_desc.drug_name,\r... */\n      dup1\n      sload\n      dup1\n      0x20\n      mul\n      0x20\n      add\n      mload(0x40)\n      swap1\n      dup2\n      add\n      0x40\n      mstore\n      dup1\n      swap3\n      swap2\n      swap1\n      dup2\n      dup2\n      mstore\n      0x20\n      add\n      0x00\n      swap1\n    tag_163:\n      dup3\n      dup3\n      lt\n      iszero\n      tag_164\n      jumpi\n      dup4\n      dup3\n      swap1\n      0x00\n      mstore\n      keccak256(0x00, 0x20)\n      add\n      dup1\n      sload\n      tag_166\n      swap1\n      tag_111\n      jump\t// in\n    tag_166:\n      dup1\n      0x1f\n      add\n      0x20\n      dup1\n      swap2\n      div\n      mul\n      0x20\n      add\n      mload(0x40)\n      swap1\n      dup2\n      add\n      0x40\n      mstore\n      dup1\n      swap3\n      swap2\n      swap1\n      dup2\n      dup2\n      mstore\n      0x20\n      add\n      dup3\n      dup1\n      sload\n      tag_167\n      swap1\n      tag_111\n      jump\t// in\n    tag_167:\n      dup1\n      iszero\n      tag_168\n      jumpi\n      dup1\n      0x1f\n      lt\n      tag_169\n      jumpi\n      0x0100\n      dup1\n      dup4\n      sload\n      div\n      mul\n      dup4\n      mstore\n      swap2\n      0x20\n      add\n      swap2\n      jump(tag_168)\n    tag_169:\n      dup3\n      add\n      swap2\n      swap1\n      0x00\n      mstore\n      keccak256(0x00, 0x20)\n      swap1\n    tag_170:\n      dup2\n      sload\n      dup2\n      mstore\n      swap1\n      0x01\n      add\n      swap1\n      0x20\n      add\n      dup1\n      dup4\n      gt\n      tag_170\n      jumpi\n      dup3\n      swap1\n      sub\n      0x1f\n      and\n      dup3\n      add\n      swap2\n    tag_168:\n      pop\n      pop\n      pop\n      pop\n      pop\n      dup2\n      mstore\n      0x20\n      add\n      swap1\n      0x01\n      add\n      swap1\n      jump(tag_163)\n    tag_164:\n      pop\n      pop\n      pop\n      pop\n        /* \"contracts/pscmbc.sol\":3051:3059  products */\n      0x00\n        /* \"contracts/pscmbc.sol\":3060:3066  prodId */\n      dup15\n        /* \"contracts/pscmbc.sol\":3051:3067  products[prodId] */\n      dup2\n      sload\n      dup2\n      lt\n      tag_171\n      jumpi\n      tag_172\n      tag_88\n      jump\t// in\n    tag_172:\n    tag_171:\n      swap1\n      0x00\n      mstore\n      keccak256(0x00, 0x20)\n      swap1\n      0x0d\n      mul\n      add\n        /* \"contracts/pscmbc.sol\":3051:3077  products[prodId].prod_desc */\n      0x05\n      add\n        /* \"contracts/pscmbc.sol\":3051:3086  products[prodId].prod_desc.batch_no */\n      0x06\n      add\n        /* \"contracts/pscmbc.sol\":2721:3140  create_prod(products[prodId].prod_name, products[prodId].price, amount, products[prodId].prod_desc.drug_name,\r... */\n      dup1\n      sload\n      tag_174\n      swap1\n      tag_111\n      jump\t// in\n    tag_174:\n      dup1\n      0x1f\n      add\n      0x20\n      dup1\n      swap2\n      div\n      mul\n      0x20\n      add\n      mload(0x40)\n      swap1\n      dup2\n      add\n      0x40\n      mstore\n      dup1\n      swap3\n      swap2\n      swap1\n      dup2\n      dup2\n      mstore\n      0x20\n      add\n      dup3\n      dup1\n      sload\n      tag_175\n      swap1\n      tag_111\n      jump\t// in\n    tag_175:\n      dup1\n      iszero\n      tag_176\n      jumpi\n      dup1\n      0x1f\n      lt\n      tag_177\n      jumpi\n      0x0100\n      dup1\n      dup4\n      sload\n      div\n      mul\n      dup4\n      mstore\n      swap2\n      0x20\n      add\n      swap2\n      jump(tag_176)\n    tag_177:\n      dup3\n      add\n      swap2\n      swap1\n      0x00\n      mstore\n      keccak256(0x00, 0x20)\n      swap1\n    tag_178:\n      dup2\n      sload\n      dup2\n      mstore\n      swap1\n      0x01\n      add\n      swap1\n      0x20\n      add\n      dup1\n      dup4\n      gt\n      tag_178\n      jumpi\n      dup3\n      swap1\n      sub\n      0x1f\n      and\n      dup3\n      add\n      swap2\n    tag_176:\n      pop\n      pop\n      pop\n      pop\n      pop\n        /* \"contracts/pscmbc.sol\":3101:3109  products */\n      0x00\n        /* \"contracts/pscmbc.sol\":3110:3116  prodId */\n      dup16\n        /* \"contracts/pscmbc.sol\":3101:3117  products[prodId] */\n      dup2\n      sload\n      dup2\n      lt\n      tag_179\n      jumpi\n      tag_180\n      tag_88\n      jump\t// in\n    tag_180:\n    tag_179:\n      swap1\n      0x00\n      mstore\n      keccak256(0x00, 0x20)\n      swap1\n      0x0d\n      mul\n      add\n        /* \"contracts/pscmbc.sol\":3101:3127  products[prodId].prod_desc */\n      0x05\n      add\n        /* \"contracts/pscmbc.sol\":3101:3139  products[prodId].prod_desc.sideEffects */\n      0x07\n      add\n        /* \"contracts/pscmbc.sol\":2721:3140  create_prod(products[prodId].prod_name, products[prodId].price, amount, products[prodId].prod_desc.drug_name,\r... */\n      dup1\n      sload\n      dup1\n      0x20\n      mul\n      0x20\n      add\n      mload(0x40)\n      swap1\n      dup2\n      add\n      0x40\n      mstore\n      dup1\n      swap3\n      swap2\n      swap1\n      dup2\n      dup2\n      mstore\n      0x20\n      add\n      0x00\n      swap1\n    tag_182:\n      dup3\n      dup3\n      lt\n      iszero\n      tag_183\n      jumpi\n      dup4\n      dup3\n      swap1\n      0x00\n      mstore\n      keccak256(0x00, 0x20)\n      add\n      dup1\n      sload\n      tag_185\n      swap1\n      tag_111\n      jump\t// in\n    tag_185:\n      dup1\n      0x1f\n      add\n      0x20\n      dup1\n      swap2\n      div\n      mul\n      0x20\n      add\n      mload(0x40)\n      swap1\n      dup2\n      add\n      0x40\n      mstore\n      dup1\n      swap3\n      swap2\n      swap1\n      dup2\n      dup2\n      mstore\n      0x20\n      add\n      dup3\n      dup1\n      sload\n      tag_186\n      swap1\n      tag_111\n      jump\t// in\n    tag_186:\n      dup1\n      iszero\n      tag_187\n      jumpi\n      dup1\n      0x1f\n      lt\n      tag_188\n      jumpi\n      0x0100\n      dup1\n      dup4\n      sload\n      div\n      mul\n      dup4\n      mstore\n      swap2\n      0x20\n      add\n      swap2\n      jump(tag_187)\n    tag_188:\n      dup3\n      add\n      swap2\n      swap1\n      0x00\n      mstore\n      keccak256(0x00, 0x20)\n      swap1\n    tag_189:\n      dup2\n      sload\n      dup2\n      mstore\n      swap1\n      0x01\n      add\n      swap1\n      0x20\n      add\n      dup1\n      dup4\n      gt\n      tag_189\n      jumpi\n      dup3\n      swap1\n      sub\n      0x1f\n      and\n      dup3\n      add\n      swap2\n    tag_187:\n      pop\n      pop\n      pop\n      pop\n      pop\n      dup2\n      mstore\n      0x20\n      add\n      swap1\n      0x01\n      add\n      swap1\n      jump(tag_182)\n    tag_183:\n      pop\n      pop\n      pop\n      pop\n        /* \"contracts/pscmbc.sol\":2721:2732  create_prod */\n      tag_64\n        /* \"contracts/pscmbc.sol\":2721:3140  create_prod(products[prodId].prod_name, products[prodId].price, amount, products[prodId].prod_desc.drug_name,\r... */\n      jump\t// in\n    tag_106:\n        /* \"contracts/pscmbc.sol\":3172:3260  PaymentDone(msg.sender, products[prodId].owner_id, prodId, val, amount, block.timestamp) */\n      0x75f416a1740de68a6376bad70148558f2da14b6cf24e78547c6a73c9d68c0bd7\n        /* \"contracts/pscmbc.sol\":3184:3194  msg.sender */\n      caller\n        /* \"contracts/pscmbc.sol\":3196:3204  products */\n      0x00\n        /* \"contracts/pscmbc.sol\":3205:3211  prodId */\n      dup7\n        /* \"contracts/pscmbc.sol\":3196:3212  products[prodId] */\n      dup2\n      sload\n      dup2\n      lt\n      tag_190\n      jumpi\n      tag_191\n      tag_88\n      jump\t// in\n    tag_191:\n    tag_190:\n      swap1\n      0x00\n      mstore\n      keccak256(0x00, 0x20)\n      swap1\n      0x0d\n      mul\n      add\n        /* \"contracts/pscmbc.sol\":3196:3221  products[prodId].owner_id */\n      0x01\n      add\n      0x00\n      swap1\n      sload\n      swap1\n      0x0100\n      exp\n      swap1\n      div\n      0xffffffffffffffffffffffffffffffffffffffff\n      and\n        /* \"contracts/pscmbc.sol\":3223:3229  prodId */\n      dup7\n        /* \"contracts/pscmbc.sol\":3231:3234  val */\n      dup5\n        /* \"contracts/pscmbc.sol\":3236:3242  amount */\n      dup8\n        /* \"contracts/pscmbc.sol\":3244:3259  block.timestamp */\n      timestamp\n        /* \"contracts/pscmbc.sol\":3172:3260  PaymentDone(msg.sender, products[prodId].owner_id, prodId, val, amount, block.timestamp) */\n      mload(0x40)\n      tag_193\n      swap7\n      swap6\n      swap5\n      swap4\n      swap3\n      swap2\n      swap1\n      tag_194\n      jump\t// in\n    tag_193:\n      mload(0x40)\n      dup1\n      swap2\n      sub\n      swap1\n      log1\n        /* \"contracts/pscmbc.sol\":3282:3286  true */\n      0x01\n        /* \"contracts/pscmbc.sol\":3275:3286  return true */\n      swap2\n      pop\n      pop\n      jump(tag_84)\n        /* \"contracts/pscmbc.sol\":2441:3298  if(prodId != 0 && products[prodId].avaiableUnits >= amount){\r... */\n    tag_90:\n        /* \"contracts/pscmbc.sol\":3317:3322  false */\n      0x00\n        /* \"contracts/pscmbc.sol\":3310:3322  return false */\n      swap1\n      pop\n        /* \"contracts/pscmbc.sol\":2355:3330  function buy_product(uint prodId, uint amount) public returns (bool bought){\r... */\n    tag_84:\n      swap3\n      swap2\n      pop\n      pop\n      jump\t// out\n        /* \"contracts/pscmbc.sol\":832:873  mapping (address => uint) public balances */\n    tag_36:\n      mstore(0x20, 0x02)\n      dup1\n      0x00\n      mstore\n      keccak256(0x00, 0x40)\n      0x00\n      swap2\n      pop\n      swap1\n      pop\n      sload\n      dup2\n      jump\t// out\n        /* \"contracts/pscmbc.sol\":1749:2347  function create_user(string memory ut, string memory on, string memory email, string memory pass, uint bal, uint[12] memory TIN, string memory loc) public {\r... */\n    tag_42:\n        /* \"contracts/pscmbc.sol\":1915:1928  User memory u */\n      tag_196\n      tag_197\n      jump\t// in\n    tag_196:\n        /* \"contracts/pscmbc.sol\":1951:1961  msg.sender */\n      caller\n        /* \"contracts/pscmbc.sol\":1939:1940  u */\n      dup2\n        /* \"contracts/pscmbc.sol\":1939:1948  u.user_id */\n      0x00\n      add\n        /* \"contracts/pscmbc.sol\":1939:1961  u.user_id = msg.sender */\n      swap1\n      0xffffffffffffffffffffffffffffffffffffffff\n      and\n      swap1\n      dup2\n      0xffffffffffffffffffffffffffffffffffffffff\n      and\n      dup2\n      mstore\n      pop\n      pop\n        /* \"contracts/pscmbc.sol\":1985:1987  on */\n      dup7\n        /* \"contracts/pscmbc.sol\":1972:1973  u */\n      dup2\n        /* \"contracts/pscmbc.sol\":1972:1982  u.org_name */\n      0x20\n      add\n        /* \"contracts/pscmbc.sol\":1972:1987  u.org_name = on */\n      dup2\n      swap1\n      mstore\n      pop\n        /* \"contracts/pscmbc.sol\":2008:2013  email */\n      dup6\n        /* \"contracts/pscmbc.sol\":1998:1999  u */\n      dup2\n        /* \"contracts/pscmbc.sol\":1998:2005  u.email */\n      0x60\n      add\n        /* \"contracts/pscmbc.sol\":1998:2013  u.email = email */\n      dup2\n      swap1\n      mstore\n      pop\n        /* \"contracts/pscmbc.sol\":2037:2041  pass */\n      dup5\n        /* \"contracts/pscmbc.sol\":2024:2025  u */\n      dup2\n        /* \"contracts/pscmbc.sol\":2024:2034  u.password */\n      0x80\n      add\n        /* \"contracts/pscmbc.sol\":2024:2041  u.password = pass */\n      dup2\n      swap1\n      mstore\n      pop\n        /* \"contracts/pscmbc.sol\":2064:2067  bal */\n      dup4\n        /* \"contracts/pscmbc.sol\":2052:2053  u */\n      dup2\n        /* \"contracts/pscmbc.sol\":2052:2061  u.balance */\n      0xa0\n      add\n        /* \"contracts/pscmbc.sol\":2052:2067  u.balance = bal */\n      dup2\n      dup2\n      mstore\n      pop\n      pop\n        /* \"contracts/pscmbc.sol\":2082:2088  uint i */\n      0x00\n        /* \"contracts/pscmbc.sol\":2078:2146  for(uint i=0; i<12; i++){\r... */\n    tag_198:\n        /* \"contracts/pscmbc.sol\":2094:2096  12 */\n      0x0c\n        /* \"contracts/pscmbc.sol\":2092:2093  i */\n      dup2\n        /* \"contracts/pscmbc.sol\":2092:2096  i<12 */\n      lt\n        /* \"contracts/pscmbc.sol\":2078:2146  for(uint i=0; i<12; i++){\r... */\n      iszero\n      tag_199\n      jumpi\n        /* \"contracts/pscmbc.sol\":2128:2131  TIN */\n      dup4\n        /* \"contracts/pscmbc.sol\":2132:2133  i */\n      dup2\n        /* \"contracts/pscmbc.sol\":2128:2134  TIN[i] */\n      0x0c\n      dup2\n      lt\n      tag_201\n      jumpi\n      tag_202\n      tag_88\n      jump\t// in\n    tag_202:\n    tag_201:\n      0x20\n      mul\n      add\n      mload\n        /* \"contracts/pscmbc.sol\":2117:2118  u */\n      dup3\n        /* \"contracts/pscmbc.sol\":2117:2122  u.TIN */\n      0xc0\n      add\n      mload\n        /* \"contracts/pscmbc.sol\":2123:2124  i */\n      dup3\n        /* \"contracts/pscmbc.sol\":2117:2125  u.TIN[i] */\n      0x0c\n      dup2\n      lt\n      tag_203\n      jumpi\n      tag_204\n      tag_88\n      jump\t// in\n    tag_204:\n    tag_203:\n      0x20\n      mul\n      add\n        /* \"contracts/pscmbc.sol\":2117:2134  u.TIN[i] = TIN[i] */\n      dup2\n      dup2\n      mstore\n      pop\n      pop\n        /* \"contracts/pscmbc.sol\":2098:2101  i++ */\n      dup1\n      dup1\n      tag_205\n      swap1\n      tag_206\n      jump\t// in\n    tag_205:\n      swap2\n      pop\n      pop\n        /* \"contracts/pscmbc.sol\":2078:2146  for(uint i=0; i<12; i++){\r... */\n      jump(tag_198)\n    tag_199:\n      pop\n        /* \"contracts/pscmbc.sol\":2169:2172  loc */\n      dup2\n        /* \"contracts/pscmbc.sol\":2156:2157  u */\n      dup2\n        /* \"contracts/pscmbc.sol\":2156:2166  u.location */\n      0xe0\n      add\n        /* \"contracts/pscmbc.sol\":2156:2172  u.location = loc */\n      dup2\n      swap1\n      mstore\n      pop\n        /* \"contracts/pscmbc.sol\":2197:2199  ut */\n      dup8\n        /* \"contracts/pscmbc.sol\":2183:2184  u */\n      dup2\n        /* \"contracts/pscmbc.sol\":2183:2194  u.user_type */\n      0x40\n      add\n        /* \"contracts/pscmbc.sol\":2183:2199  u.user_type = ut */\n      dup2\n      swap1\n      mstore\n      pop\n        /* \"contracts/pscmbc.sol\":2212:2217  users */\n      0x01\n        /* \"contracts/pscmbc.sol\":2223:2224  u */\n      dup2\n        /* \"contracts/pscmbc.sol\":2212:2225  users.push(u) */\n      swap1\n      dup1\n      0x01\n      dup2\n      sload\n      add\n      dup1\n      dup3\n      sstore\n      dup1\n      swap2\n      pop\n      pop\n      0x01\n      swap1\n      sub\n      swap1\n      0x00\n      mstore\n      keccak256(0x00, 0x20)\n      swap1\n      0x13\n      mul\n      add\n      0x00\n      swap1\n      swap2\n      swap1\n      swap2\n      swap1\n      swap2\n      pop\n      0x00\n      dup3\n      add\n      mload\n      dup2\n      0x00\n      add\n      exp(0x0100, 0x00)\n      dup2\n      sload\n      dup2\n      0xffffffffffffffffffffffffffffffffffffffff\n      mul\n      not\n      and\n      swap1\n      dup4\n      0xffffffffffffffffffffffffffffffffffffffff\n      and\n      mul\n      or\n      swap1\n      sstore\n      pop\n      0x20\n      dup3\n      add\n      mload\n      dup2\n      0x01\n      add\n      swap1\n      dup1\n      mload\n      swap1\n      0x20\n      add\n      swap1\n      tag_208\n      swap3\n      swap2\n      swap1\n      tag_209\n      jump\t// in\n    tag_208:\n      pop\n      0x40\n      dup3\n      add\n      mload\n      dup2\n      0x02\n      add\n      swap1\n      dup1\n      mload\n      swap1\n      0x20\n      add\n      swap1\n      tag_210\n      swap3\n      swap2\n      swap1\n      tag_209\n      jump\t// in\n    tag_210:\n      pop\n      0x60\n      dup3\n      add\n      mload\n      dup2\n      0x03\n      add\n      swap1\n      dup1\n      mload\n      swap1\n      0x20\n      add\n      swap1\n      tag_211\n      swap3\n      swap2\n      swap1\n      tag_209\n      jump\t// in\n    tag_211:\n      pop\n      0x80\n      dup3\n      add\n      mload\n      dup2\n      0x04\n      add\n      swap1\n      dup1\n      mload\n      swap1\n      0x20\n      add\n      swap1\n      tag_212\n      swap3\n      swap2\n      swap1\n      tag_209\n      jump\t// in\n    tag_212:\n      pop\n      0xa0\n      dup3\n      add\n      mload\n      dup2\n      0x05\n      add\n      sstore\n      0xc0\n      dup3\n      add\n      mload\n      dup2\n      0x06\n      add\n      swap1\n      0x0c\n      tag_213\n      swap3\n      swap2\n      swap1\n      tag_214\n      jump\t// in\n    tag_213:\n      pop\n      0xe0\n      dup3\n      add\n      mload\n      dup2\n      0x12\n      add\n      swap1\n      dup1\n      mload\n      swap1\n      0x20\n      add\n      swap1\n      tag_215\n      swap3\n      swap2\n      swap1\n      tag_209\n      jump\t// in\n    tag_215:\n      pop\n      pop\n      pop\n        /* \"contracts/pscmbc.sol\":2241:2339  UserCreated(u.user_id, u.org_name, u.user_type, u.email, u.password, u.balance, u.TIN, u.location) */\n      0xc4aa35700f4a2a5a56437570881086dfe5553f60cd3c6b59a61c4b9036e34f1b\n        /* \"contracts/pscmbc.sol\":2253:2254  u */\n      dup2\n        /* \"contracts/pscmbc.sol\":2253:2262  u.user_id */\n      0x00\n      add\n      mload\n        /* \"contracts/pscmbc.sol\":2264:2265  u */\n      dup3\n        /* \"contracts/pscmbc.sol\":2264:2274  u.org_name */\n      0x20\n      add\n      mload\n        /* \"contracts/pscmbc.sol\":2276:2277  u */\n      dup4\n        /* \"contracts/pscmbc.sol\":2276:2287  u.user_type */\n      0x40\n      add\n      mload\n        /* \"contracts/pscmbc.sol\":2289:2290  u */\n      dup5\n        /* \"contracts/pscmbc.sol\":2289:2296  u.email */\n      0x60\n      add\n      mload\n        /* \"contracts/pscmbc.sol\":2298:2299  u */\n      dup6\n        /* \"contracts/pscmbc.sol\":2298:2308  u.password */\n      0x80\n      add\n      mload\n        /* \"contracts/pscmbc.sol\":2310:2311  u */\n      dup7\n        /* \"contracts/pscmbc.sol\":2310:2319  u.balance */\n      0xa0\n      add\n      mload\n        /* \"contracts/pscmbc.sol\":2321:2322  u */\n      dup8\n        /* \"contracts/pscmbc.sol\":2321:2326  u.TIN */\n      0xc0\n      add\n      mload\n        /* \"contracts/pscmbc.sol\":2328:2329  u */\n      dup9\n        /* \"contracts/pscmbc.sol\":2328:2338  u.location */\n      0xe0\n      add\n      mload\n        /* \"contracts/pscmbc.sol\":2241:2339  UserCreated(u.user_id, u.org_name, u.user_type, u.email, u.password, u.balance, u.TIN, u.location) */\n      mload(0x40)\n      tag_216\n      swap9\n      swap8\n      swap7\n      swap6\n      swap5\n      swap4\n      swap3\n      swap2\n      swap1\n      tag_217\n      jump\t// in\n    tag_216:\n      mload(0x40)\n      dup1\n      swap2\n      sub\n      swap1\n      log1\n        /* \"contracts/pscmbc.sol\":1904:2347  {\r... */\n      pop\n        /* \"contracts/pscmbc.sol\":1749:2347  function create_user(string memory ut, string memory on, string memory email, string memory pass, uint bal, uint[12] memory TIN, string memory loc) public {\r... */\n      pop\n      pop\n      pop\n      pop\n      pop\n      pop\n      pop\n      jump\t// out\n        /* \"contracts/pscmbc.sol\":1483:1635  function setBalance(address[] memory addr) public payable{\r... */\n    tag_46:\n        /* \"contracts/pscmbc.sol\":1555:1561  uint i */\n      0x00\n        /* \"contracts/pscmbc.sol\":1551:1627  for(uint i = 0; i < addr.length; i++)\r... */\n    tag_219:\n        /* \"contracts/pscmbc.sol\":1571:1575  addr */\n      dup2\n        /* \"contracts/pscmbc.sol\":1571:1582  addr.length */\n      mload\n        /* \"contracts/pscmbc.sol\":1567:1568  i */\n      dup2\n        /* \"contracts/pscmbc.sol\":1567:1582  i < addr.length */\n      lt\n        /* \"contracts/pscmbc.sol\":1551:1627  for(uint i = 0; i < addr.length; i++)\r... */\n      iszero\n      tag_220\n      jumpi\n        /* \"contracts/pscmbc.sol\":1622:1627  10000 */\n      0x2710\n        /* \"contracts/pscmbc.sol\":1602:1610  balances */\n      0x02\n        /* \"contracts/pscmbc.sol\":1602:1619  balances[addr[i]] */\n      0x00\n        /* \"contracts/pscmbc.sol\":1611:1615  addr */\n      dup5\n        /* \"contracts/pscmbc.sol\":1616:1617  i */\n      dup5\n        /* \"contracts/pscmbc.sol\":1611:1618  addr[i] */\n      dup2\n      mload\n      dup2\n      lt\n      tag_222\n      jumpi\n      tag_223\n      tag_88\n      jump\t// in\n    tag_223:\n    tag_222:\n      0x20\n      mul\n      0x20\n      add\n      add\n      mload\n        /* \"contracts/pscmbc.sol\":1602:1619  balances[addr[i]] */\n      0xffffffffffffffffffffffffffffffffffffffff\n      and\n      0xffffffffffffffffffffffffffffffffffffffff\n      and\n      dup2\n      mstore\n      0x20\n      add\n      swap1\n      dup2\n      mstore\n      0x20\n      add\n      0x00\n      keccak256\n        /* \"contracts/pscmbc.sol\":1602:1627  balances[addr[i]] = 10000 */\n      dup2\n      swap1\n      sstore\n      pop\n        /* \"contracts/pscmbc.sol\":1584:1587  i++ */\n      dup1\n      dup1\n      tag_224\n      swap1\n      tag_206\n      jump\t// in\n    tag_224:\n      swap2\n      pop\n      pop\n        /* \"contracts/pscmbc.sol\":1551:1627  for(uint i = 0; i < addr.length; i++)\r... */\n      jump(tag_219)\n    tag_220:\n      pop\n        /* \"contracts/pscmbc.sol\":1483:1635  function setBalance(address[] memory addr) public payable{\r... */\n      pop\n      jump\t// out\n        /* \"contracts/pscmbc.sol\":806:825  User[] public users */\n    tag_51:\n      0x01\n      dup2\n      dup2\n      sload\n      dup2\n      lt\n      tag_225\n      jumpi\n      0x00\n      dup1\n      revert\n    tag_225:\n      swap1\n      0x00\n      mstore\n      keccak256(0x00, 0x20)\n      swap1\n      0x13\n      mul\n      add\n      0x00\n      swap2\n      pop\n      swap1\n      pop\n      dup1\n      0x00\n      add\n      0x00\n      swap1\n      sload\n      swap1\n      0x0100\n      exp\n      swap1\n      div\n      0xffffffffffffffffffffffffffffffffffffffff\n      and\n      swap1\n      dup1\n      0x01\n      add\n      dup1\n      sload\n      tag_227\n      swap1\n      tag_111\n      jump\t// in\n    tag_227:\n      dup1\n      0x1f\n      add\n      0x20\n      dup1\n      swap2\n      div\n      mul\n      0x20\n      add\n      mload(0x40)\n      swap1\n      dup2\n      add\n      0x40\n      mstore\n      dup1\n      swap3\n      swap2\n      swap1\n      dup2\n      dup2\n      mstore\n      0x20\n      add\n      dup3\n      dup1\n      sload\n      tag_228\n      swap1\n      tag_111\n      jump\t// in\n    tag_228:\n      dup1\n      iszero\n      tag_229\n      jumpi\n      dup1\n      0x1f\n      lt\n      tag_230\n      jumpi\n      0x0100\n      dup1\n      dup4\n      sload\n      div\n      mul\n      dup4\n      mstore\n      swap2\n      0x20\n      add\n      swap2\n      jump(tag_229)\n    tag_230:\n      dup3\n      add\n      swap2\n      swap1\n      0x00\n      mstore\n      keccak256(0x00, 0x20)\n      swap1\n    tag_231:\n      dup2\n      sload\n      dup2\n      mstore\n      swap1\n      0x01\n      add\n      swap1\n      0x20\n      add\n      dup1\n      dup4\n      gt\n      tag_231\n      jumpi\n      dup3\n      swap1\n      sub\n      0x1f\n      and\n      dup3\n      add\n      swap2\n    tag_229:\n      pop\n      pop\n      pop\n      pop\n      pop\n      swap1\n      dup1\n      0x02\n      add\n      dup1\n      sload\n      tag_232\n      swap1\n      tag_111\n      jump\t// in\n    tag_232:\n      dup1\n      0x1f\n      add\n      0x20\n      dup1\n      swap2\n      div\n      mul\n      0x20\n      add\n      mload(0x40)\n      swap1\n      dup2\n      add\n      0x40\n      mstore\n      dup1\n      swap3\n      swap2\n      swap1\n      dup2\n      dup2\n      mstore\n      0x20\n      add\n      dup3\n      dup1\n      sload\n      tag_233\n      swap1\n      tag_111\n      jump\t// in\n    tag_233:\n      dup1\n      iszero\n      tag_234\n      jumpi\n      dup1\n      0x1f\n      lt\n      tag_235\n      jumpi\n      0x0100\n      dup1\n      dup4\n      sload\n      div\n      mul\n      dup4\n      mstore\n      swap2\n      0x20\n      add\n      swap2\n      jump(tag_234)\n    tag_235:\n      dup3\n      add\n      swap2\n      swap1\n      0x00\n      mstore\n      keccak256(0x00, 0x20)\n      swap1\n    tag_236:\n      dup2\n      sload\n      dup2\n      mstore\n      swap1\n      0x01\n      add\n      swap1\n      0x20\n      add\n      dup1\n      dup4\n      gt\n      tag_236\n      jumpi\n      dup3\n      swap1\n      sub\n      0x1f\n      and\n      dup3\n      add\n      swap2\n    tag_234:\n      pop\n      pop\n      pop\n      pop\n      pop\n      swap1\n      dup1\n      0x03\n      add\n      dup1\n      sload\n      tag_237\n      swap1\n      tag_111\n      jump\t// in\n    tag_237:\n      dup1\n      0x1f\n      add\n      0x20\n      dup1\n      swap2\n      div\n      mul\n      0x20\n      add\n      mload(0x40)\n      swap1\n      dup2\n      add\n      0x40\n      mstore\n      dup1\n      swap3\n      swap2\n      swap1\n      dup2\n      dup2\n      mstore\n      0x20\n      add\n      dup3\n      dup1\n      sload\n      tag_238\n      swap1\n      tag_111\n      jump\t// in\n    tag_238:\n      dup1\n      iszero\n      tag_239\n      jumpi\n      dup1\n      0x1f\n      lt\n      tag_240\n      jumpi\n      0x0100\n      dup1\n      dup4\n      sload\n      div\n      mul\n      dup4\n      mstore\n      swap2\n      0x20\n      add\n      swap2\n      jump(tag_239)\n    tag_240:\n      dup3\n      add\n      swap2\n      swap1\n      0x00\n      mstore\n      keccak256(0x00, 0x20)\n      swap1\n    tag_241:\n      dup2\n      sload\n      dup2\n      mstore\n      swap1\n      0x01\n      add\n      swap1\n      0x20\n      add\n      dup1\n      dup4\n      gt\n      tag_241\n      jumpi\n      dup3\n      swap1\n      sub\n      0x1f\n      and\n      dup3\n      add\n      swap2\n    tag_239:\n      pop\n      pop\n      pop\n      pop\n      pop\n      swap1\n      dup1\n      0x04\n      add\n      dup1\n      sload\n      tag_242\n      swap1\n      tag_111\n      jump\t// in\n    tag_242:\n      dup1\n      0x1f\n      add\n      0x20\n      dup1\n      swap2\n      div\n      mul\n      0x20\n      add\n      mload(0x40)\n      swap1\n      dup2\n      add\n      0x40\n      mstore\n      dup1\n      swap3\n      swap2\n      swap1\n      dup2\n      dup2\n      mstore\n      0x20\n      add\n      dup3\n      dup1\n      sload\n      tag_243\n      swap1\n      tag_111\n      jump\t// in\n    tag_243:\n      dup1\n      iszero\n      tag_244\n      jumpi\n      dup1\n      0x1f\n      lt\n      tag_245\n      jumpi\n      0x0100\n      dup1\n      dup4\n      sload\n      div\n      mul\n      dup4\n      mstore\n      swap2\n      0x20\n      add\n      swap2\n      jump(tag_244)\n    tag_245:\n      dup3\n      add\n      swap2\n      swap1\n      0x00\n      mstore\n      keccak256(0x00, 0x20)\n      swap1\n    tag_246:\n      dup2\n      sload\n      dup2\n      mstore\n      swap1\n      0x01\n      add\n      swap1\n      0x20\n      add\n      dup1\n      dup4\n      gt\n      tag_246\n      jumpi\n      dup3\n      swap1\n      sub\n      0x1f\n      and\n      dup3\n      add\n      swap2\n    tag_244:\n      pop\n      pop\n      pop\n      pop\n      pop\n      swap1\n      dup1\n      0x05\n      add\n      sload\n      swap1\n      dup1\n      0x12\n      add\n      dup1\n      sload\n      tag_247\n      swap1\n      tag_111\n      jump\t// in\n    tag_247:\n      dup1\n      0x1f\n      add\n      0x20\n      dup1\n      swap2\n      div\n      mul\n      0x20\n      add\n      mload(0x40)\n      swap1\n      dup2\n      add\n      0x40\n      mstore\n      dup1\n      swap3\n      swap2\n      swap1\n      dup2\n      dup2\n      mstore\n      0x20\n      add\n      dup3\n      dup1\n      sload\n      tag_248\n      swap1\n      tag_111\n      jump\t// in\n    tag_248:\n      dup1\n      iszero\n      tag_249\n      jumpi\n      dup1\n      0x1f\n      lt\n      tag_250\n      jumpi\n      0x0100\n      dup1\n      dup4\n      sload\n      div\n      mul\n      dup4\n      mstore\n      swap2\n      0x20\n      add\n      swap2\n      jump(tag_249)\n    tag_250:\n      dup3\n      add\n      swap2\n      swap1\n      0x00\n      mstore\n      keccak256(0x00, 0x20)\n      swap1\n    tag_251:\n      dup2\n      sload\n      dup2\n      mstore\n      swap1\n      0x01\n      add\n      swap1\n      0x20\n      add\n      dup1\n      dup4\n      gt\n      tag_251\n      jumpi\n      dup3\n      swap1\n      sub\n      0x1f\n      and\n      dup3\n      add\n      swap2\n    tag_249:\n      pop\n      pop\n      pop\n      pop\n      pop\n      swap1\n      pop\n      dup8\n      jump\t// out\n        /* \"contracts/pscmbc.sol\":543:568  Product[] public products */\n    tag_57:\n      0x00\n      dup2\n      dup2\n      sload\n      dup2\n      lt\n      tag_252\n      jumpi\n      0x00\n      dup1\n      revert\n    tag_252:\n      swap1\n      0x00\n      mstore\n      keccak256(0x00, 0x20)\n      swap1\n      0x0d\n      mul\n      add\n      0x00\n      swap2\n      pop\n      swap1\n      pop\n      dup1\n      0x00\n      add\n      sload\n      swap1\n      dup1\n      0x01\n      add\n      0x00\n      swap1\n      sload\n      swap1\n      0x0100\n      exp\n      swap1\n      div\n      0xffffffffffffffffffffffffffffffffffffffff\n      and\n      swap1\n      dup1\n      0x02\n      add\n      dup1\n      sload\n      tag_254\n      swap1\n      tag_111\n      jump\t// in\n    tag_254:\n      dup1\n      0x1f\n      add\n      0x20\n      dup1\n      swap2\n      div\n      mul\n      0x20\n      add\n      mload(0x40)\n      swap1\n      dup2\n      add\n      0x40\n      mstore\n      dup1\n      swap3\n      swap2\n      swap1\n      dup2\n      dup2\n      mstore\n      0x20\n      add\n      dup3\n      dup1\n      sload\n      tag_255\n      swap1\n      tag_111\n      jump\t// in\n    tag_255:\n      dup1\n      iszero\n      tag_256\n      jumpi\n      dup1\n      0x1f\n      lt\n      tag_257\n      jumpi\n      0x0100\n      dup1\n      dup4\n      sload\n      div\n      mul\n      dup4\n      mstore\n      swap2\n      0x20\n      add\n      swap2\n      jump(tag_256)\n    tag_257:\n      dup3\n      add\n      swap2\n      swap1\n      0x00\n      mstore\n      keccak256(0x00, 0x20)\n      swap1\n    tag_258:\n      dup2\n      sload\n      dup2\n      mstore\n      swap1\n      0x01\n      add\n      swap1\n      0x20\n      add\n      dup1\n      dup4\n      gt\n      tag_258\n      jumpi\n      dup3\n      swap1\n      sub\n      0x1f\n      and\n      dup3\n      add\n      swap2\n    tag_256:\n      pop\n      pop\n      pop\n      pop\n      pop\n      swap1\n      dup1\n      0x03\n      add\n      sload\n      swap1\n      dup1\n      0x04\n      add\n      sload\n      swap1\n      dup1\n      0x05\n      add\n      mload(0x40)\n      dup1\n      0x0100\n      add\n      0x40\n      mstore\n      swap1\n      dup2\n      0x00\n      dup3\n      add\n      dup1\n      sload\n      tag_259\n      swap1\n      tag_111\n      jump\t// in\n    tag_259:\n      dup1\n      0x1f\n      add\n      0x20\n      dup1\n      swap2\n      div\n      mul\n      0x20\n      add\n      mload(0x40)\n      swap1\n      dup2\n      add\n      0x40\n      mstore\n      dup1\n      swap3\n      swap2\n      swap1\n      dup2\n      dup2\n      mstore\n      0x20\n      add\n      dup3\n      dup1\n      sload\n      tag_260\n      swap1\n      tag_111\n      jump\t// in\n    tag_260:\n      dup1\n      iszero\n      tag_261\n      jumpi\n      dup1\n      0x1f\n      lt\n      tag_262\n      jumpi\n      0x0100\n      dup1\n      dup4\n      sload\n      div\n      mul\n      dup4\n      mstore\n      swap2\n      0x20\n      add\n      swap2\n      jump(tag_261)\n    tag_262:\n      dup3\n      add\n      swap2\n      swap1\n      0x00\n      mstore\n      keccak256(0x00, 0x20)\n      swap1\n    tag_263:\n      dup2\n      sload\n      dup2\n      mstore\n      swap1\n      0x01\n      add\n      swap1\n      0x20\n      add\n      dup1\n      dup4\n      gt\n      tag_263\n      jumpi\n      dup3\n      swap1\n      sub\n      0x1f\n      and\n      dup3\n      add\n      swap2\n    tag_261:\n      pop\n      pop\n      pop\n      pop\n      pop\n      dup2\n      mstore\n      0x20\n      add\n      0x01\n      dup3\n      add\n      dup1\n      sload\n      tag_264\n      swap1\n      tag_111\n      jump\t// in\n    tag_264:\n      dup1\n      0x1f\n      add\n      0x20\n      dup1\n      swap2\n      div\n      mul\n      0x20\n      add\n      mload(0x40)\n      swap1\n      dup2\n      add\n      0x40\n      mstore\n      dup1\n      swap3\n      swap2\n      swap1\n      dup2\n      dup2\n      mstore\n      0x20\n      add\n      dup3\n      dup1\n      sload\n      tag_265\n      swap1\n      tag_111\n      jump\t// in\n    tag_265:\n      dup1\n      iszero\n      tag_266\n      jumpi\n      dup1\n      0x1f\n      lt\n      tag_267\n      jumpi\n      0x0100\n      dup1\n      dup4\n      sload\n      div\n      mul\n      dup4\n      mstore\n      swap2\n      0x20\n      add\n      swap2\n      jump(tag_266)\n    tag_267:\n      dup3\n      add\n      swap2\n      swap1\n      0x00\n      mstore\n      keccak256(0x00, 0x20)\n      swap1\n    tag_268:\n      dup2\n      sload\n      dup2\n      mstore\n      swap1\n      0x01\n      add\n      swap1\n      0x20\n      add\n      dup1\n      dup4\n      gt\n      tag_268\n      jumpi\n      dup3\n      swap1\n      sub\n      0x1f\n      and\n      dup3\n      add\n      swap2\n    tag_266:\n      pop\n      pop\n      pop\n      pop\n      pop\n      dup2\n      mstore\n      0x20\n      add\n      0x02\n      dup3\n      add\n      sload\n      dup2\n      mstore\n      0x20\n      add\n      0x03\n      dup3\n      add\n      dup1\n      sload\n      dup1\n      0x20\n      mul\n      0x20\n      add\n      mload(0x40)\n      swap1\n      dup2\n      add\n      0x40\n      mstore\n      dup1\n      swap3\n      swap2\n      swap1\n      dup2\n      dup2\n      mstore\n      0x20\n      add\n      0x00\n      swap1\n    tag_269:\n      dup3\n      dup3\n      lt\n      iszero\n      tag_270\n      jumpi\n      dup4\n      dup3\n      swap1\n      0x00\n      mstore\n      keccak256(0x00, 0x20)\n      add\n      dup1\n      sload\n      tag_272\n      swap1\n      tag_111\n      jump\t// in\n    tag_272:\n      dup1\n      0x1f\n      add\n      0x20\n      dup1\n      swap2\n      div\n      mul\n      0x20\n      add\n      mload(0x40)\n      swap1\n      dup2\n      add\n      0x40\n      mstore\n      dup1\n      swap3\n      swap2\n      swap1\n      dup2\n      dup2\n      mstore\n      0x20\n      add\n      dup3\n      dup1\n      sload\n      tag_273\n      swap1\n      tag_111\n      jump\t// in\n    tag_273:\n      dup1\n      iszero\n      tag_274\n      jumpi\n      dup1\n      0x1f\n      lt\n      tag_275\n      jumpi\n      0x0100\n      dup1\n      dup4\n      sload\n      div\n      mul\n      dup4\n      mstore\n      swap2\n      0x20\n      add\n      swap2\n      jump(tag_274)\n    tag_275:\n      dup3\n      add\n      swap2\n      swap1\n      0x00\n      mstore\n      keccak256(0x00, 0x20)\n      swap1\n    tag_276:\n      dup2\n      sload\n      dup2\n      mstore\n      swap1\n      0x01\n      add\n      swap1\n      0x20\n      add\n      dup1\n      dup4\n      gt\n      tag_276\n      jumpi\n      dup3\n      swap1\n      sub\n      0x1f\n      and\n      dup3\n      add\n      swap2\n    tag_274:\n      pop\n      pop\n      pop\n      pop\n      pop\n      dup2\n      mstore\n      0x20\n      add\n      swap1\n      0x01\n      add\n      swap1\n      jump(tag_269)\n    tag_270:\n      pop\n      pop\n      pop\n      pop\n      dup2\n      mstore\n      0x20\n      add\n      0x04\n      dup3\n      add\n      dup1\n      sload\n      dup1\n      0x20\n      mul\n      0x20\n      add\n      mload(0x40)\n      swap1\n      dup2\n      add\n      0x40\n      mstore\n      dup1\n      swap3\n      swap2\n      swap1\n      dup2\n      dup2\n      mstore\n      0x20\n      add\n      0x00\n      swap1\n    tag_277:\n      dup3\n      dup3\n      lt\n      iszero\n      tag_278\n      jumpi\n      dup4\n      dup3\n      swap1\n      0x00\n      mstore\n      keccak256(0x00, 0x20)\n      add\n      dup1\n      sload\n      tag_280\n      swap1\n      tag_111\n      jump\t// in\n    tag_280:\n      dup1\n      0x1f\n      add\n      0x20\n      dup1\n      swap2\n      div\n      mul\n      0x20\n      add\n      mload(0x40)\n      swap1\n      dup2\n      add\n      0x40\n      mstore\n      dup1\n      swap3\n      swap2\n      swap1\n      dup2\n      dup2\n      mstore\n      0x20\n      add\n      dup3\n      dup1\n      sload\n      tag_281\n      swap1\n      tag_111\n      jump\t// in\n    tag_281:\n      dup1\n      iszero\n      tag_282\n      jumpi\n      dup1\n      0x1f\n      lt\n      tag_283\n      jumpi\n      0x0100\n      dup1\n      dup4\n      sload\n      div\n      mul\n      dup4\n      mstore\n      swap2\n      0x20\n      add\n      swap2\n      jump(tag_282)\n    tag_283:\n      dup3\n      add\n      swap2\n      swap1\n      0x00\n      mstore\n      keccak256(0x00, 0x20)\n      swap1\n    tag_284:\n      dup2\n      sload\n      dup2\n      mstore\n      swap1\n      0x01\n      add\n      swap1\n      0x20\n      add\n      dup1\n      dup4\n      gt\n      tag_284\n      jumpi\n      dup3\n      swap1\n      sub\n      0x1f\n      and\n      dup3\n      add\n      swap2\n    tag_282:\n      pop\n      pop\n      pop\n      pop\n      pop\n      dup2\n      mstore\n      0x20\n      add\n      swap1\n      0x01\n      add\n      swap1\n      jump(tag_277)\n    tag_278:\n      pop\n      pop\n      pop\n      pop\n      dup2\n      mstore\n      0x20\n      add\n      0x05\n      dup3\n      add\n      dup1\n      sload\n      dup1\n      0x20\n      mul\n      0x20\n      add\n      mload(0x40)\n      swap1\n      dup2\n      add\n      0x40\n      mstore\n      dup1\n      swap3\n      swap2\n      swap1\n      dup2\n      dup2\n      mstore\n      0x20\n      add\n      0x00\n      swap1\n    tag_285:\n      dup3\n      dup3\n      lt\n      iszero\n      tag_286\n      jumpi\n      dup4\n      dup3\n      swap1\n      0x00\n      mstore\n      keccak256(0x00, 0x20)\n      add\n      dup1\n      sload\n      tag_288\n      swap1\n      tag_111\n      jump\t// in\n    tag_288:\n      dup1\n      0x1f\n      add\n      0x20\n      dup1\n      swap2\n      div\n      mul\n      0x20\n      add\n      mload(0x40)\n      swap1\n      dup2\n      add\n      0x40\n      mstore\n      dup1\n      swap3\n      swap2\n      swap1\n      dup2\n      dup2\n      mstore\n      0x20\n      add\n      dup3\n      dup1\n      sload\n      tag_289\n      swap1\n      tag_111\n      jump\t// in\n    tag_289:\n      dup1\n      iszero\n      tag_290\n      jumpi\n      dup1\n      0x1f\n      lt\n      tag_291\n      jumpi\n      0x0100\n      dup1\n      dup4\n      sload\n      div\n      mul\n      dup4\n      mstore\n      swap2\n      0x20\n      add\n      swap2\n      jump(tag_290)\n    tag_291:\n      dup3\n      add\n      swap2\n      swap1\n      0x00\n      mstore\n      keccak256(0x00, 0x20)\n      swap1\n    tag_292:\n      dup2\n      sload\n      dup2\n      mstore\n      swap1\n      0x01\n      add\n      swap1\n      0x20\n      add\n      dup1\n      dup4\n      gt\n      tag_292\n      jumpi\n      dup3\n      swap1\n      sub\n      0x1f\n      and\n      dup3\n      add\n      swap2\n    tag_290:\n      pop\n      pop\n      pop\n      pop\n      pop\n      dup2\n      mstore\n      0x20\n      add\n      swap1\n      0x01\n      add\n      swap1\n      jump(tag_285)\n    tag_286:\n      pop\n      pop\n      pop\n      pop\n      dup2\n      mstore\n      0x20\n      add\n      0x06\n      dup3\n      add\n      dup1\n      sload\n      tag_293\n      swap1\n      tag_111\n      jump\t// in\n    tag_293:\n      dup1\n      0x1f\n      add\n      0x20\n      dup1\n      swap2\n      div\n      mul\n      0x20\n      add\n      mload(0x40)\n      swap1\n      dup2\n      add\n      0x40\n      mstore\n      dup1\n      swap3\n      swap2\n      swap1\n      dup2\n      dup2\n      mstore\n      0x20\n      add\n      dup3\n      dup1\n      sload\n      tag_294\n      swap1\n      tag_111\n      jump\t// in\n    tag_294:\n      dup1\n      iszero\n      tag_295\n      jumpi\n      dup1\n      0x1f\n      lt\n      tag_296\n      jumpi\n      0x0100\n      dup1\n      dup4\n      sload\n      div\n      mul\n      dup4\n      mstore\n      swap2\n      0x20\n      add\n      swap2\n      jump(tag_295)\n    tag_296:\n      dup3\n      add\n      swap2\n      swap1\n      0x00\n      mstore\n      keccak256(0x00, 0x20)\n      swap1\n    tag_297:\n      dup2\n      sload\n      dup2\n      mstore\n      swap1\n      0x01\n      add\n      swap1\n      0x20\n      add\n      dup1\n      dup4\n      gt\n      tag_297\n      jumpi\n      dup3\n      swap1\n      sub\n      0x1f\n      and\n      dup3\n      add\n      swap2\n    tag_295:\n      pop\n      pop\n      pop\n      pop\n      pop\n      dup2\n      mstore\n      0x20\n      add\n      0x07\n      dup3\n      add\n      dup1\n      sload\n      dup1\n      0x20\n      mul\n      0x20\n      add\n      mload(0x40)\n      swap1\n      dup2\n      add\n      0x40\n      mstore\n      dup1\n      swap3\n      swap2\n      swap1\n      dup2\n      dup2\n      mstore\n      0x20\n      add\n      0x00\n      swap1\n    tag_298:\n      dup3\n      dup3\n      lt\n      iszero\n      tag_299\n      jumpi\n      dup4\n      dup3\n      swap1\n      0x00\n      mstore\n      keccak256(0x00, 0x20)\n      add\n      dup1\n      sload\n      tag_301\n      swap1\n      tag_111\n      jump\t// in\n    tag_301:\n      dup1\n      0x1f\n      add\n      0x20\n      dup1\n      swap2\n      div\n      mul\n      0x20\n      add\n      mload(0x40)\n      swap1\n      dup2\n      add\n      0x40\n      mstore\n      dup1\n      swap3\n      swap2\n      swap1\n      dup2\n      dup2\n      mstore\n      0x20\n      add\n      dup3\n      dup1\n      sload\n      tag_302\n      swap1\n      tag_111\n      jump\t// in\n    tag_302:\n      dup1\n      iszero\n      tag_303\n      jumpi\n      dup1\n      0x1f\n      lt\n      tag_304\n      jumpi\n      0x0100\n      dup1\n      dup4\n      sload\n      div\n      mul\n      dup4\n      mstore\n      swap2\n      0x20\n      add\n      swap2\n      jump(tag_303)\n    tag_304:\n      dup3\n      add\n      swap2\n      swap1\n      0x00\n      mstore\n      keccak256(0x00, 0x20)\n      swap1\n    tag_305:\n      dup2\n      sload\n      dup2\n      mstore\n      swap1\n      0x01\n      add\n      swap1\n      0x20\n      add\n      dup1\n      dup4\n      gt\n      tag_305\n      jumpi\n      dup3\n      swap1\n      sub\n      0x1f\n      and\n      dup3\n      add\n      swap2\n    tag_303:\n      pop\n      pop\n      pop\n      pop\n      pop\n      dup2\n      mstore\n      0x20\n      add\n      swap1\n      0x01\n      add\n      swap1\n      jump(tag_298)\n    tag_299:\n      pop\n      pop\n      pop\n      pop\n      dup2\n      mstore\n      pop\n      pop\n      swap1\n      pop\n      dup7\n      jump\t// out\n        /* \"contracts/pscmbc.sol\":3946:4784  function create_prod (string memory pn, uint pr, uint au, string memory dn, string memory dc, \r... */\n    tag_64:\n        /* \"contracts/pscmbc.sol\":4169:4185  Product memory p */\n      tag_307\n      tag_308\n      jump\t// in\n    tag_307:\n        /* \"contracts/pscmbc.sol\":4226:4227  1 */\n      0x01\n        /* \"contracts/pscmbc.sol\":4208:4216  products */\n      0x00\n        /* \"contracts/pscmbc.sol\":4208:4223  products.length */\n      dup1\n      sload\n      swap1\n      pop\n        /* \"contracts/pscmbc.sol\":4208:4227  products.length + 1 */\n      tag_309\n      swap2\n      swap1\n      tag_310\n      jump\t// in\n    tag_309:\n        /* \"contracts/pscmbc.sol\":4196:4197  p */\n      dup2\n        /* \"contracts/pscmbc.sol\":4196:4205  p.prod_id */\n      0x00\n      add\n        /* \"contracts/pscmbc.sol\":4196:4227  p.prod_id = products.length + 1 */\n      dup2\n      dup2\n      mstore\n      pop\n      pop\n        /* \"contracts/pscmbc.sol\":4251:4261  msg.sender */\n      caller\n        /* \"contracts/pscmbc.sol\":4238:4239  p */\n      dup2\n        /* \"contracts/pscmbc.sol\":4238:4248  p.owner_id */\n      0x20\n      add\n        /* \"contracts/pscmbc.sol\":4238:4261  p.owner_id = msg.sender */\n      swap1\n      0xffffffffffffffffffffffffffffffffffffffff\n      and\n      swap1\n      dup2\n      0xffffffffffffffffffffffffffffffffffffffff\n      and\n      dup2\n      mstore\n      pop\n      pop\n        /* \"contracts/pscmbc.sol\":4286:4288  pn */\n      dup12\n        /* \"contracts/pscmbc.sol\":4272:4273  p */\n      dup2\n        /* \"contracts/pscmbc.sol\":4272:4283  p.prod_name */\n      0x40\n      add\n        /* \"contracts/pscmbc.sol\":4272:4288  p.prod_name = pn */\n      dup2\n      swap1\n      mstore\n      pop\n        /* \"contracts/pscmbc.sol\":4309:4311  pr */\n      dup11\n        /* \"contracts/pscmbc.sol\":4299:4300  p */\n      dup2\n        /* \"contracts/pscmbc.sol\":4299:4306  p.price */\n      0x60\n      add\n        /* \"contracts/pscmbc.sol\":4299:4311  p.price = pr */\n      dup2\n      dup2\n      mstore\n      pop\n      pop\n        /* \"contracts/pscmbc.sol\":4340:4342  au */\n      dup10\n        /* \"contracts/pscmbc.sol\":4322:4323  p */\n      dup2\n        /* \"contracts/pscmbc.sol\":4322:4337  p.avaiableUnits */\n      0x80\n      add\n        /* \"contracts/pscmbc.sol\":4322:4342  p.avaiableUnits = au */\n      dup2\n      dup2\n      mstore\n      pop\n      pop\n        /* \"contracts/pscmbc.sol\":4377:4379  dn */\n      dup9\n        /* \"contracts/pscmbc.sol\":4353:4354  p */\n      dup2\n        /* \"contracts/pscmbc.sol\":4353:4364  p.prod_desc */\n      0xa0\n      add\n      mload\n        /* \"contracts/pscmbc.sol\":4353:4374  p.prod_desc.drug_name */\n      0x00\n      add\n        /* \"contracts/pscmbc.sol\":4353:4379  p.prod_desc.drug_name = dn */\n      dup2\n      swap1\n      mstore\n      pop\n        /* \"contracts/pscmbc.sol\":4415:4417  dc */\n      dup8\n        /* \"contracts/pscmbc.sol\":4390:4391  p */\n      dup2\n        /* \"contracts/pscmbc.sol\":4390:4401  p.prod_desc */\n      0xa0\n      add\n      mload\n        /* \"contracts/pscmbc.sol\":4390:4412  p.prod_desc.drug_class */\n      0x20\n      add\n        /* \"contracts/pscmbc.sol\":4390:4417  p.prod_desc.drug_class = dc */\n      dup2\n      swap1\n      mstore\n      pop\n        /* \"contracts/pscmbc.sol\":4455:4457  st */\n      dup7\n        /* \"contracts/pscmbc.sol\":4428:4429  p */\n      dup2\n        /* \"contracts/pscmbc.sol\":4428:4439  p.prod_desc */\n      0xa0\n      add\n      mload\n        /* \"contracts/pscmbc.sol\":4428:4452  p.prod_desc.storage_temp */\n      0x40\n      add\n        /* \"contracts/pscmbc.sol\":4428:4457  p.prod_desc.storage_temp = st */\n      dup2\n      dup2\n      mstore\n      pop\n      pop\n        /* \"contracts/pscmbc.sol\":4494:4495  i */\n      dup6\n        /* \"contracts/pscmbc.sol\":4468:4469  p */\n      dup2\n        /* \"contracts/pscmbc.sol\":4468:4479  p.prod_desc */\n      0xa0\n      add\n      mload\n        /* \"contracts/pscmbc.sol\":4468:4491  p.prod_desc.ingredients */\n      0x60\n      add\n        /* \"contracts/pscmbc.sol\":4468:4495  p.prod_desc.ingredients = i */\n      dup2\n      swap1\n      mstore\n      pop\n        /* \"contracts/pscmbc.sol\":4529:4531  md */\n      dup5\n        /* \"contracts/pscmbc.sol\":4506:4507  p */\n      dup2\n        /* \"contracts/pscmbc.sol\":4506:4517  p.prod_desc */\n      0xa0\n      add\n      mload\n        /* \"contracts/pscmbc.sol\":4506:4526  p.prod_desc.mfg_date */\n      0x80\n      add\n        /* \"contracts/pscmbc.sol\":4506:4531  p.prod_desc.mfg_date = md */\n      dup2\n      swap1\n      mstore\n      pop\n        /* \"contracts/pscmbc.sol\":4565:4567  ed */\n      dup4\n        /* \"contracts/pscmbc.sol\":4542:4543  p */\n      dup2\n        /* \"contracts/pscmbc.sol\":4542:4553  p.prod_desc */\n      0xa0\n      add\n      mload\n        /* \"contracts/pscmbc.sol\":4542:4562  p.prod_desc.exp_date */\n      0xa0\n      add\n        /* \"contracts/pscmbc.sol\":4542:4567  p.prod_desc.exp_date = ed */\n      dup2\n      swap1\n      mstore\n      pop\n        /* \"contracts/pscmbc.sol\":4601:4603  bn */\n      dup3\n        /* \"contracts/pscmbc.sol\":4578:4579  p */\n      dup2\n        /* \"contracts/pscmbc.sol\":4578:4589  p.prod_desc */\n      0xa0\n      add\n      mload\n        /* \"contracts/pscmbc.sol\":4578:4598  p.prod_desc.batch_no */\n      0xc0\n      add\n        /* \"contracts/pscmbc.sol\":4578:4603  p.prod_desc.batch_no = bn */\n      dup2\n      swap1\n      mstore\n      pop\n        /* \"contracts/pscmbc.sol\":4640:4642  se */\n      dup2\n        /* \"contracts/pscmbc.sol\":4614:4615  p */\n      dup2\n        /* \"contracts/pscmbc.sol\":4614:4625  p.prod_desc */\n      0xa0\n      add\n      mload\n        /* \"contracts/pscmbc.sol\":4614:4637  p.prod_desc.sideEffects */\n      0xe0\n      add\n        /* \"contracts/pscmbc.sol\":4614:4642  p.prod_desc.sideEffects = se */\n      dup2\n      swap1\n      mstore\n      pop\n        /* \"contracts/pscmbc.sol\":4655:4663  products */\n      0x00\n        /* \"contracts/pscmbc.sol\":4669:4670  p */\n      dup2\n        /* \"contracts/pscmbc.sol\":4655:4671  products.push(p) */\n      swap1\n      dup1\n      0x01\n      dup2\n      sload\n      add\n      dup1\n      dup3\n      sstore\n      dup1\n      swap2\n      pop\n      pop\n      0x01\n      swap1\n      sub\n      swap1\n      0x00\n      mstore\n      keccak256(0x00, 0x20)\n      swap1\n      0x0d\n      mul\n      add\n      0x00\n      swap1\n      swap2\n      swap1\n      swap2\n      swap1\n      swap2\n      pop\n      0x00\n      dup3\n      add\n      mload\n      dup2\n      0x00\n      add\n      sstore\n      0x20\n      dup3\n      add\n      mload\n      dup2\n      0x01\n      add\n      exp(0x0100, 0x00)\n      dup2\n      sload\n      dup2\n      0xffffffffffffffffffffffffffffffffffffffff\n      mul\n      not\n      and\n      swap1\n      dup4\n      0xffffffffffffffffffffffffffffffffffffffff\n      and\n      mul\n      or\n      swap1\n      sstore\n      pop\n      0x40\n      dup3\n      add\n      mload\n      dup2\n      0x02\n      add\n      swap1\n      dup1\n      mload\n      swap1\n      0x20\n      add\n      swap1\n      tag_312\n      swap3\n      swap2\n      swap1\n      tag_209\n      jump\t// in\n    tag_312:\n      pop\n      0x60\n      dup3\n      add\n      mload\n      dup2\n      0x03\n      add\n      sstore\n      0x80\n      dup3\n      add\n      mload\n      dup2\n      0x04\n      add\n      sstore\n      0xa0\n      dup3\n      add\n      mload\n      dup2\n      0x05\n      add\n      0x00\n      dup3\n      add\n      mload\n      dup2\n      0x00\n      add\n      swap1\n      dup1\n      mload\n      swap1\n      0x20\n      add\n      swap1\n      tag_313\n      swap3\n      swap2\n      swap1\n      tag_209\n      jump\t// in\n    tag_313:\n      pop\n      0x20\n      dup3\n      add\n      mload\n      dup2\n      0x01\n      add\n      swap1\n      dup1\n      mload\n      swap1\n      0x20\n      add\n      swap1\n      tag_314\n      swap3\n      swap2\n      swap1\n      tag_209\n      jump\t// in\n    tag_314:\n      pop\n      0x40\n      dup3\n      add\n      mload\n      dup2\n      0x02\n      add\n      sstore\n      0x60\n      dup3\n      add\n      mload\n      dup2\n      0x03\n      add\n      swap1\n      dup1\n      mload\n      swap1\n      0x20\n      add\n      swap1\n      tag_315\n      swap3\n      swap2\n      swap1\n      tag_316\n      jump\t// in\n    tag_315:\n      pop\n      0x80\n      dup3\n      add\n      mload\n      dup2\n      0x04\n      add\n      swap1\n      dup1\n      mload\n      swap1\n      0x20\n      add\n      swap1\n      tag_317\n      swap3\n      swap2\n      swap1\n      tag_316\n      jump\t// in\n    tag_317:\n      pop\n      0xa0\n      dup3\n      add\n      mload\n      dup2\n      0x05\n      add\n      swap1\n      dup1\n      mload\n      swap1\n      0x20\n      add\n      swap1\n      tag_318\n      swap3\n      swap2\n      swap1\n      tag_316\n      jump\t// in\n    tag_318:\n      pop\n      0xc0\n      dup3\n      add\n      mload\n      dup2\n      0x06\n      add\n      swap1\n      dup1\n      mload\n      swap1\n      0x20\n      add\n      swap1\n      tag_319\n      swap3\n      swap2\n      swap1\n      tag_209\n      jump\t// in\n    tag_319:\n      pop\n      0xe0\n      dup3\n      add\n      mload\n      dup2\n      0x07\n      add\n      swap1\n      dup1\n      mload\n      swap1\n      0x20\n      add\n      swap1\n      tag_320\n      swap3\n      swap2\n      swap1\n      tag_316\n      jump\t// in\n    tag_320:\n      pop\n      pop\n      pop\n      pop\n      pop\n        /* \"contracts/pscmbc.sol\":4687:4776  ProductCreated(p.prod_id, p.owner_id, p.prod_name, p.price, p.avaiableUnits, p.prod_desc) */\n      0xb7638ec6afb0cbba7f8b3557736034abdc74dad72cab8df4feb527ef815c4b1b\n        /* \"contracts/pscmbc.sol\":4702:4703  p */\n      dup2\n        /* \"contracts/pscmbc.sol\":4702:4711  p.prod_id */\n      0x00\n      add\n      mload\n        /* \"contracts/pscmbc.sol\":4713:4714  p */\n      dup3\n        /* \"contracts/pscmbc.sol\":4713:4723  p.owner_id */\n      0x20\n      add\n      mload\n        /* \"contracts/pscmbc.sol\":4725:4726  p */\n      dup4\n        /* \"contracts/pscmbc.sol\":4725:4736  p.prod_name */\n      0x40\n      add\n      mload\n        /* \"contracts/pscmbc.sol\":4738:4739  p */\n      dup5\n        /* \"contracts/pscmbc.sol\":4738:4745  p.price */\n      0x60\n      add\n      mload\n        /* \"contracts/pscmbc.sol\":4747:4748  p */\n      dup6\n        /* \"contracts/pscmbc.sol\":4747:4762  p.avaiableUnits */\n      0x80\n      add\n      mload\n        /* \"contracts/pscmbc.sol\":4764:4765  p */\n      dup7\n        /* \"contracts/pscmbc.sol\":4764:4775  p.prod_desc */\n      0xa0\n      add\n      mload\n        /* \"contracts/pscmbc.sol\":4687:4776  ProductCreated(p.prod_id, p.owner_id, p.prod_name, p.price, p.avaiableUnits, p.prod_desc) */\n      mload(0x40)\n      tag_321\n      swap7\n      swap6\n      swap5\n      swap4\n      swap3\n      swap2\n      swap1\n      tag_59\n      jump\t// in\n    tag_321:\n      mload(0x40)\n      dup1\n      swap2\n      sub\n      swap1\n      log1\n        /* \"contracts/pscmbc.sol\":4158:4784  {\r... */\n      pop\n        /* \"contracts/pscmbc.sol\":3946:4784  function create_prod (string memory pn, uint pr, uint au, string memory dn, string memory dc, \r... */\n      pop\n      pop\n      pop\n      pop\n      pop\n      pop\n      pop\n      pop\n      pop\n      pop\n      pop\n      jump\t// out\n        /* \"contracts/pscmbc.sol\":3339:3618  function transferFund(address _to, uint256 _value) public returns (bool sufficient) {\r... */\n    tag_69:\n        /* \"contracts/pscmbc.sol\":3406:3421  bool sufficient */\n      0x00\n        /* \"contracts/pscmbc.sol\":3463:3469  _value */\n      dup2\n        /* \"contracts/pscmbc.sol\":3437:3459  getBalance(msg.sender) */\n      tag_323\n        /* \"contracts/pscmbc.sol\":3448:3458  msg.sender */\n      caller\n        /* \"contracts/pscmbc.sol\":3437:3447  getBalance */\n      tag_74\n        /* \"contracts/pscmbc.sol\":3437:3459  getBalance(msg.sender) */\n      jump\t// in\n    tag_323:\n        /* \"contracts/pscmbc.sol\":3437:3469  getBalance(msg.sender) >= _value */\n      lt\n        /* \"contracts/pscmbc.sol\":3434:3588  if(getBalance(msg.sender) >= _value){\r... */\n      tag_324\n      jumpi\n        /* \"contracts/pscmbc.sol\":3508:3514  _value */\n      dup2\n        /* \"contracts/pscmbc.sol\":3485:3493  balances */\n      0x02\n        /* \"contracts/pscmbc.sol\":3485:3505  balances[msg.sender] */\n      0x00\n        /* \"contracts/pscmbc.sol\":3494:3504  msg.sender */\n      caller\n        /* \"contracts/pscmbc.sol\":3485:3505  balances[msg.sender] */\n      0xffffffffffffffffffffffffffffffffffffffff\n      and\n      0xffffffffffffffffffffffffffffffffffffffff\n      and\n      dup2\n      mstore\n      0x20\n      add\n      swap1\n      dup2\n      mstore\n      0x20\n      add\n      0x00\n      keccak256\n      0x00\n        /* \"contracts/pscmbc.sol\":3485:3514  balances[msg.sender]-= _value */\n      dup3\n      dup3\n      sload\n      tag_325\n      swap2\n      swap1\n      tag_105\n      jump\t// in\n    tag_325:\n      swap3\n      pop\n      pop\n      dup2\n      swap1\n      sstore\n      pop\n        /* \"contracts/pscmbc.sol\":3544:3550  _value */\n      dup2\n        /* \"contracts/pscmbc.sol\":3529:3537  balances */\n      0x02\n        /* \"contracts/pscmbc.sol\":3529:3542  balances[_to] */\n      0x00\n        /* \"contracts/pscmbc.sol\":3538:3541  _to */\n      dup6\n        /* \"contracts/pscmbc.sol\":3529:3542  balances[_to] */\n      0xffffffffffffffffffffffffffffffffffffffff\n      and\n      0xffffffffffffffffffffffffffffffffffffffff\n      and\n      dup2\n      mstore\n      0x20\n      add\n      swap1\n      dup2\n      mstore\n      0x20\n      add\n      0x00\n      keccak256\n      0x00\n        /* \"contracts/pscmbc.sol\":3529:3550  balances[_to]+=_value */\n      dup3\n      dup3\n      sload\n      tag_326\n      swap2\n      swap1\n      tag_310\n      jump\t// in\n    tag_326:\n      swap3\n      pop\n      pop\n      dup2\n      swap1\n      sstore\n      pop\n        /* \"contracts/pscmbc.sol\":3572:3576  true */\n      0x01\n        /* \"contracts/pscmbc.sol\":3565:3576  return true */\n      swap1\n      pop\n      jump(tag_322)\n        /* \"contracts/pscmbc.sol\":3434:3588  if(getBalance(msg.sender) >= _value){\r... */\n    tag_324:\n        /* \"contracts/pscmbc.sol\":3605:3610  false */\n      0x00\n        /* \"contracts/pscmbc.sol\":3598:3610  return false */\n      swap1\n      pop\n        /* \"contracts/pscmbc.sol\":3339:3618  function transferFund(address _to, uint256 _value) public returns (bool sufficient) {\r... */\n    tag_322:\n      swap3\n      swap2\n      pop\n      pop\n      jump\t// out\n        /* \"contracts/pscmbc.sol\":3626:3723  function getBalance(address add) public view returns(uint){\r... */\n    tag_74:\n        /* \"contracts/pscmbc.sol\":3679:3683  uint */\n      0x00\n        /* \"contracts/pscmbc.sol\":3702:3710  balances */\n      0x02\n        /* \"contracts/pscmbc.sol\":3702:3715  balances[add] */\n      0x00\n        /* \"contracts/pscmbc.sol\":3711:3714  add */\n      dup4\n        /* \"contracts/pscmbc.sol\":3702:3715  balances[add] */\n      0xffffffffffffffffffffffffffffffffffffffff\n      and\n      0xffffffffffffffffffffffffffffffffffffffff\n      and\n      dup2\n      mstore\n      0x20\n      add\n      swap1\n      dup2\n      mstore\n      0x20\n      add\n      0x00\n      keccak256\n      sload\n        /* \"contracts/pscmbc.sol\":3695:3715  return balances[add] */\n      swap1\n      pop\n        /* \"contracts/pscmbc.sol\":3626:3723  function getBalance(address add) public view returns(uint){\r... */\n      swap2\n      swap1\n      pop\n      jump\t// out\n        /* \"contracts/pscmbc.sol\":3731:3830  function getProd(uint x) public view returns(Product memory p){\r... */\n    tag_79:\n        /* \"contracts/pscmbc.sol\":3776:3792  Product memory p */\n      tag_328\n      tag_308\n      jump\t// in\n    tag_328:\n        /* \"contracts/pscmbc.sol\":3811:3819  products */\n      0x00\n        /* \"contracts/pscmbc.sol\":3820:3821  x */\n      dup3\n        /* \"contracts/pscmbc.sol\":3811:3822  products[x] */\n      dup2\n      sload\n      dup2\n      lt\n      tag_330\n      jumpi\n      tag_331\n      tag_88\n      jump\t// in\n    tag_331:\n    tag_330:\n      swap1\n      0x00\n      mstore\n      keccak256(0x00, 0x20)\n      swap1\n      0x0d\n      mul\n      add\n        /* \"contracts/pscmbc.sol\":3804:3822  return products[x] */\n      mload(0x40)\n      dup1\n      0xc0\n      add\n      0x40\n      mstore\n      swap1\n      dup2\n      0x00\n      dup3\n      add\n      sload\n      dup2\n      mstore\n      0x20\n      add\n      0x01\n      dup3\n      add\n      0x00\n      swap1\n      sload\n      swap1\n      0x0100\n      exp\n      swap1\n      div\n      0xffffffffffffffffffffffffffffffffffffffff\n      and\n      0xffffffffffffffffffffffffffffffffffffffff\n      and\n      0xffffffffffffffffffffffffffffffffffffffff\n      and\n      dup2\n      mstore\n      0x20\n      add\n      0x02\n      dup3\n      add\n      dup1\n      sload\n      tag_333\n      swap1\n      tag_111\n      jump\t// in\n    tag_333:\n      dup1\n      0x1f\n      add\n      0x20\n      dup1\n      swap2\n      div\n      mul\n      0x20\n      add\n      mload(0x40)\n      swap1\n      dup2\n      add\n      0x40\n      mstore\n      dup1\n      swap3\n      swap2\n      swap1\n      dup2\n      dup2\n      mstore\n      0x20\n      add\n      dup3\n      dup1\n      sload\n      tag_334\n      swap1\n      tag_111\n      jump\t// in\n    tag_334:\n      dup1\n      iszero\n      tag_335\n      jumpi\n      dup1\n      0x1f\n      lt\n      tag_336\n      jumpi\n      0x0100\n      dup1\n      dup4\n      sload\n      div\n      mul\n      dup4\n      mstore\n      swap2\n      0x20\n      add\n      swap2\n      jump(tag_335)\n    tag_336:\n      dup3\n      add\n      swap2\n      swap1\n      0x00\n      mstore\n      keccak256(0x00, 0x20)\n      swap1\n    tag_337:\n      dup2\n      sload\n      dup2\n      mstore\n      swap1\n      0x01\n      add\n      swap1\n      0x20\n      add\n      dup1\n      dup4\n      gt\n      tag_337\n      jumpi\n      dup3\n      swap1\n      sub\n      0x1f\n      and\n      dup3\n      add\n      swap2\n    tag_335:\n      pop\n      pop\n      pop\n      pop\n      pop\n      dup2\n      mstore\n      0x20\n      add\n      0x03\n      dup3\n      add\n      sload\n      dup2\n      mstore\n      0x20\n      add\n      0x04\n      dup3\n      add\n      sload\n      dup2\n      mstore\n      0x20\n      add\n      0x05\n      dup3\n      add\n      mload(0x40)\n      dup1\n      0x0100\n      add\n      0x40\n      mstore\n      swap1\n      dup2\n      0x00\n      dup3\n      add\n      dup1\n      sload\n      tag_338\n      swap1\n      tag_111\n      jump\t// in\n    tag_338:\n      dup1\n      0x1f\n      add\n      0x20\n      dup1\n      swap2\n      div\n      mul\n      0x20\n      add\n      mload(0x40)\n      swap1\n      dup2\n      add\n      0x40\n      mstore\n      dup1\n      swap3\n      swap2\n      swap1\n      dup2\n      dup2\n      mstore\n      0x20\n      add\n      dup3\n      dup1\n      sload\n      tag_339\n      swap1\n      tag_111\n      jump\t// in\n    tag_339:\n      dup1\n      iszero\n      tag_340\n      jumpi\n      dup1\n      0x1f\n      lt\n      tag_341\n      jumpi\n      0x0100\n      dup1\n      dup4\n      sload\n      div\n      mul\n      dup4\n      mstore\n      swap2\n      0x20\n      add\n      swap2\n      jump(tag_340)\n    tag_341:\n      dup3\n      add\n      swap2\n      swap1\n      0x00\n      mstore\n      keccak256(0x00, 0x20)\n      swap1\n    tag_342:\n      dup2\n      sload\n      dup2\n      mstore\n      swap1\n      0x01\n      add\n      swap1\n      0x20\n      add\n      dup1\n      dup4\n      gt\n      tag_342\n      jumpi\n      dup3\n      swap1\n      sub\n      0x1f\n      and\n      dup3\n      add\n      swap2\n    tag_340:\n      pop\n      pop\n      pop\n      pop\n      pop\n      dup2\n      mstore\n      0x20\n      add\n      0x01\n      dup3\n      add\n      dup1\n      sload\n      tag_343\n      swap1\n      tag_111\n      jump\t// in\n    tag_343:\n      dup1\n      0x1f\n      add\n      0x20\n      dup1\n      swap2\n      div\n      mul\n      0x20\n      add\n      mload(0x40)\n      swap1\n      dup2\n      add\n      0x40\n      mstore\n      dup1\n      swap3\n      swap2\n      swap1\n      dup2\n      dup2\n      mstore\n      0x20\n      add\n      dup3\n      dup1\n      sload\n      tag_344\n      swap1\n      tag_111\n      jump\t// in\n    tag_344:\n      dup1\n      iszero\n      tag_345\n      jumpi\n      dup1\n      0x1f\n      lt\n      tag_346\n      jumpi\n      0x0100\n      dup1\n      dup4\n      sload\n      div\n      mul\n      dup4\n      mstore\n      swap2\n      0x20\n      add\n      swap2\n      jump(tag_345)\n    tag_346:\n      dup3\n      add\n      swap2\n      swap1\n      0x00\n      mstore\n      keccak256(0x00, 0x20)\n      swap1\n    tag_347:\n      dup2\n      sload\n      dup2\n      mstore\n      swap1\n      0x01\n      add\n      swap1\n      0x20\n      add\n      dup1\n      dup4\n      gt\n      tag_347\n      jumpi\n      dup3\n      swap1\n      sub\n      0x1f\n      and\n      dup3\n      add\n      swap2\n    tag_345:\n      pop\n      pop\n      pop\n      pop\n      pop\n      dup2\n      mstore\n      0x20\n      add\n      0x02\n      dup3\n      add\n      sload\n      dup2\n      mstore\n      0x20\n      add\n      0x03\n      dup3\n      add\n      dup1\n      sload\n      dup1\n      0x20\n      mul\n      0x20\n      add\n      mload(0x40)\n      swap1\n      dup2\n      add\n      0x40\n      mstore\n      dup1\n      swap3\n      swap2\n      swap1\n      dup2\n      dup2\n      mstore\n      0x20\n      add\n      0x00\n      swap1\n    tag_348:\n      dup3\n      dup3\n      lt\n      iszero\n      tag_349\n      jumpi\n      dup4\n      dup3\n      swap1\n      0x00\n      mstore\n      keccak256(0x00, 0x20)\n      add\n      dup1\n      sload\n      tag_351\n      swap1\n      tag_111\n      jump\t// in\n    tag_351:\n      dup1\n      0x1f\n      add\n      0x20\n      dup1\n      swap2\n      div\n      mul\n      0x20\n      add\n      mload(0x40)\n      swap1\n      dup2\n      add\n      0x40\n      mstore\n      dup1\n      swap3\n      swap2\n      swap1\n      dup2\n      dup2\n      mstore\n      0x20\n      add\n      dup3\n      dup1\n      sload\n      tag_352\n      swap1\n      tag_111\n      jump\t// in\n    tag_352:\n      dup1\n      iszero\n      tag_353\n      jumpi\n      dup1\n      0x1f\n      lt\n      tag_354\n      jumpi\n      0x0100\n      dup1\n      dup4\n      sload\n      div\n      mul\n      dup4\n      mstore\n      swap2\n      0x20\n      add\n      swap2\n      jump(tag_353)\n    tag_354:\n      dup3\n      add\n      swap2\n      swap1\n      0x00\n      mstore\n      keccak256(0x00, 0x20)\n      swap1\n    tag_355:\n      dup2\n      sload\n      dup2\n      mstore\n      swap1\n      0x01\n      add\n      swap1\n      0x20\n      add\n      dup1\n      dup4\n      gt\n      tag_355\n      jumpi\n      dup3\n      swap1\n      sub\n      0x1f\n      and\n      dup3\n      add\n      swap2\n    tag_353:\n      pop\n      pop\n      pop\n      pop\n      pop\n      dup2\n      mstore\n      0x20\n      add\n      swap1\n      0x01\n      add\n      swap1\n      jump(tag_348)\n    tag_349:\n      pop\n      pop\n      pop\n      pop\n      dup2\n      mstore\n      0x20\n      add\n      0x04\n      dup3\n      add\n      dup1\n      sload\n      dup1\n      0x20\n      mul\n      0x20\n      add\n      mload(0x40)\n      swap1\n      dup2\n      add\n      0x40\n      mstore\n      dup1\n      swap3\n      swap2\n      swap1\n      dup2\n      dup2\n      mstore\n      0x20\n      add\n      0x00\n      swap1\n    tag_356:\n      dup3\n      dup3\n      lt\n      iszero\n      tag_357\n      jumpi\n      dup4\n      dup3\n      swap1\n      0x00\n      mstore\n      keccak256(0x00, 0x20)\n      add\n      dup1\n      sload\n      tag_359\n      swap1\n      tag_111\n      jump\t// in\n    tag_359:\n      dup1\n      0x1f\n      add\n      0x20\n      dup1\n      swap2\n      div\n      mul\n      0x20\n      add\n      mload(0x40)\n      swap1\n      dup2\n      add\n      0x40\n      mstore\n      dup1\n      swap3\n      swap2\n      swap1\n      dup2\n      dup2\n      mstore\n      0x20\n      add\n      dup3\n      dup1\n      sload\n      tag_360\n      swap1\n      tag_111\n      jump\t// in\n    tag_360:\n      dup1\n      iszero\n      tag_361\n      jumpi\n      dup1\n      0x1f\n      lt\n      tag_362\n      jumpi\n      0x0100\n      dup1\n      dup4\n      sload\n      div\n      mul\n      dup4\n      mstore\n      swap2\n      0x20\n      add\n      swap2\n      jump(tag_361)\n    tag_362:\n      dup3\n      add\n      swap2\n      swap1\n      0x00\n      mstore\n      keccak256(0x00, 0x20)\n      swap1\n    tag_363:\n      dup2\n      sload\n      dup2\n      mstore\n      swap1\n      0x01\n      add\n      swap1\n      0x20\n      add\n      dup1\n      dup4\n      gt\n      tag_363\n      jumpi\n      dup3\n      swap1\n      sub\n      0x1f\n      and\n      dup3\n      add\n      swap2\n    tag_361:\n      pop\n      pop\n      pop\n      pop\n      pop\n      dup2\n      mstore\n      0x20\n      add\n      swap1\n      0x01\n      add\n      swap1\n      jump(tag_356)\n    tag_357:\n      pop\n      pop\n      pop\n      pop\n      dup2\n      mstore\n      0x20\n      add\n      0x05\n      dup3\n      add\n      dup1\n      sload\n      dup1\n      0x20\n      mul\n      0x20\n      add\n      mload(0x40)\n      swap1\n      dup2\n      add\n      0x40\n      mstore\n      dup1\n      swap3\n      swap2\n      swap1\n      dup2\n      dup2\n      mstore\n      0x20\n      add\n      0x00\n      swap1\n    tag_364:\n      dup3\n      dup3\n      lt\n      iszero\n      tag_365\n      jumpi\n      dup4\n      dup3\n      swap1\n      0x00\n      mstore\n      keccak256(0x00, 0x20)\n      add\n      dup1\n      sload\n      tag_367\n      swap1\n      tag_111\n      jump\t// in\n    tag_367:\n      dup1\n      0x1f\n      add\n      0x20\n      dup1\n      swap2\n      div\n      mul\n      0x20\n      add\n      mload(0x40)\n      swap1\n      dup2\n      add\n      0x40\n      mstore\n      dup1\n      swap3\n      swap2\n      swap1\n      dup2\n      dup2\n      mstore\n      0x20\n      add\n      dup3\n      dup1\n      sload\n      tag_368\n      swap1\n      tag_111\n      jump\t// in\n    tag_368:\n      dup1\n      iszero\n      tag_369\n      jumpi\n      dup1\n      0x1f\n      lt\n      tag_370\n      jumpi\n      0x0100\n      dup1\n      dup4\n      sload\n      div\n      mul\n      dup4\n      mstore\n      swap2\n      0x20\n      add\n      swap2\n      jump(tag_369)\n    tag_370:\n      dup3\n      add\n      swap2\n      swap1\n      0x00\n      mstore\n      keccak256(0x00, 0x20)\n      swap1\n    tag_371:\n      dup2\n      sload\n      dup2\n      mstore\n      swap1\n      0x01\n      add\n      swap1\n      0x20\n      add\n      dup1\n      dup4\n      gt\n      tag_371\n      jumpi\n      dup3\n      swap1\n      sub\n      0x1f\n      and\n      dup3\n      add\n      swap2\n    tag_369:\n      pop\n      pop\n      pop\n      pop\n      pop\n      dup2\n      mstore\n      0x20\n      add\n      swap1\n      0x01\n      add\n      swap1\n      jump(tag_364)\n    tag_365:\n      pop\n      pop\n      pop\n      pop\n      dup2\n      mstore\n      0x20\n      add\n      0x06\n      dup3\n      add\n      dup1\n      sload\n      tag_372\n      swap1\n      tag_111\n      jump\t// in\n    tag_372:\n      dup1\n      0x1f\n      add\n      0x20\n      dup1\n      swap2\n      div\n      mul\n      0x20\n      add\n      mload(0x40)\n      swap1\n      dup2\n      add\n      0x40\n      mstore\n      dup1\n      swap3\n      swap2\n      swap1\n      dup2\n      dup2\n      mstore\n      0x20\n      add\n      dup3\n      dup1\n      sload\n      tag_373\n      swap1\n      tag_111\n      jump\t// in\n    tag_373:\n      dup1\n      iszero\n      tag_374\n      jumpi\n      dup1\n      0x1f\n      lt\n      tag_375\n      jumpi\n      0x0100\n      dup1\n      dup4\n      sload\n      div\n      mul\n      dup4\n      mstore\n      swap2\n      0x20\n      add\n      swap2\n      jump(tag_374)\n    tag_375:\n      dup3\n      add\n      swap2\n      swap1\n      0x00\n      mstore\n      keccak256(0x00, 0x20)\n      swap1\n    tag_376:\n      dup2\n      sload\n      dup2\n      mstore\n      swap1\n      0x01\n      add\n      swap1\n      0x20\n      add\n      dup1\n      dup4\n      gt\n      tag_376\n      jumpi\n      dup3\n      swap1\n      sub\n      0x1f\n      and\n      dup3\n      add\n      swap2\n    tag_374:\n      pop\n      pop\n      pop\n      pop\n      pop\n      dup2\n      mstore\n      0x20\n      add\n      0x07\n      dup3\n      add\n      dup1\n      sload\n      dup1\n      0x20\n      mul\n      0x20\n      add\n      mload(0x40)\n      swap1\n      dup2\n      add\n      0x40\n      mstore\n      dup1\n      swap3\n      swap2\n      swap1\n      dup2\n      dup2\n      mstore\n      0x20\n      add\n      0x00\n      swap1\n    tag_377:\n      dup3\n      dup3\n      lt\n      iszero\n      tag_378\n      jumpi\n      dup4\n      dup3\n      swap1\n      0x00\n      mstore\n      keccak256(0x00, 0x20)\n      add\n      dup1\n      sload\n      tag_380\n      swap1\n      tag_111\n      jump\t// in\n    tag_380:\n      dup1\n      0x1f\n      add\n      0x20\n      dup1\n      swap2\n      div\n      mul\n      0x20\n      add\n      mload(0x40)\n      swap1\n      dup2\n      add\n      0x40\n      mstore\n      dup1\n      swap3\n      swap2\n      swap1\n      dup2\n      dup2\n      mstore\n      0x20\n      add\n      dup3\n      dup1\n      sload\n      tag_381\n      swap1\n      tag_111\n      jump\t// in\n    tag_381:\n      dup1\n      iszero\n      tag_382\n      jumpi\n      dup1\n      0x1f\n      lt\n      tag_383\n      jumpi\n      0x0100\n      dup1\n      dup4\n      sload\n      div\n      mul\n      dup4\n      mstore\n      swap2\n      0x20\n      add\n      swap2\n      jump(tag_382)\n    tag_383:\n      dup3\n      add\n      swap2\n      swap1\n      0x00\n      mstore\n      keccak256(0x00, 0x20)\n      swap1\n    tag_384:\n      dup2\n      sload\n      dup2\n      mstore\n      swap1\n      0x01\n      add\n      swap1\n      0x20\n      add\n      dup1\n      dup4\n      gt\n      tag_384\n      jumpi\n      dup3\n      swap1\n      sub\n      0x1f\n      and\n      dup3\n      add\n      swap2\n    tag_382:\n      pop\n      pop\n      pop\n      pop\n      pop\n      dup2\n      mstore\n      0x20\n      add\n      swap1\n      0x01\n      add\n      swap1\n      jump(tag_377)\n    tag_378:\n      pop\n      pop\n      pop\n      pop\n      dup2\n      mstore\n      pop\n      pop\n      dup2\n      mstore\n      pop\n      pop\n      swap1\n      pop\n        /* \"contracts/pscmbc.sol\":3731:3830  function getProd(uint x) public view returns(Product memory p){\r... */\n      swap2\n      swap1\n      pop\n      jump\t// out\n    tag_197:\n      mload(0x40)\n      dup1\n      0x0100\n      add\n      0x40\n      mstore\n      dup1\n      and(0xffffffffffffffffffffffffffffffffffffffff, 0x00)\n      dup2\n      mstore\n      0x20\n      add\n      0x60\n      dup2\n      mstore\n      0x20\n      add\n      0x60\n      dup2\n      mstore\n      0x20\n      add\n      0x60\n      dup2\n      mstore\n      0x20\n      add\n      0x60\n      dup2\n      mstore\n      0x20\n      add\n      0x00\n      dup2\n      mstore\n      0x20\n      add\n      tag_385\n      tag_386\n      jump\t// in\n    tag_385:\n      dup2\n      mstore\n      0x20\n      add\n      0x60\n      dup2\n      mstore\n      pop\n      swap1\n      jump\t// out\n    tag_209:\n      dup3\n      dup1\n      sload\n      tag_387\n      swap1\n      tag_111\n      jump\t// in\n    tag_387:\n      swap1\n      0x00\n      mstore\n      keccak256(0x00, 0x20)\n      swap1\n      0x1f\n      add\n      0x20\n      swap1\n      div\n      dup2\n      add\n      swap3\n      dup3\n      tag_389\n      jumpi\n      0x00\n      dup6\n      sstore\n      jump(tag_388)\n    tag_389:\n      dup3\n      0x1f\n      lt\n      tag_390\n      jumpi\n      dup1\n      mload\n      not(0xff)\n      and\n      dup4\n      dup1\n      add\n      or\n      dup6\n      sstore\n      jump(tag_388)\n    tag_390:\n      dup3\n      dup1\n      add\n      0x01\n      add\n      dup6\n      sstore\n      dup3\n      iszero\n      tag_388\n      jumpi\n      swap2\n      dup3\n      add\n    tag_391:\n      dup3\n      dup2\n      gt\n      iszero\n      tag_392\n      jumpi\n      dup3\n      mload\n      dup3\n      sstore\n      swap2\n      0x20\n      add\n      swap2\n      swap1\n      0x01\n      add\n      swap1\n      jump(tag_391)\n    tag_392:\n    tag_388:\n      pop\n      swap1\n      pop\n      tag_393\n      swap2\n      swap1\n      tag_394\n      jump\t// in\n    tag_393:\n      pop\n      swap1\n      jump\t// out\n    tag_214:\n      dup3\n      0x0c\n      dup2\n      add\n      swap3\n      dup3\n      iszero\n      tag_395\n      jumpi\n      swap2\n      0x20\n      mul\n      dup3\n      add\n    tag_396:\n      dup3\n      dup2\n      gt\n      iszero\n      tag_397\n      jumpi\n      dup3\n      mload\n      dup3\n      sstore\n      swap2\n      0x20\n      add\n      swap2\n      swap1\n      0x01\n      add\n      swap1\n      jump(tag_396)\n    tag_397:\n    tag_395:\n      pop\n      swap1\n      pop\n      tag_398\n      swap2\n      swap1\n      tag_394\n      jump\t// in\n    tag_398:\n      pop\n      swap1\n      jump\t// out\n    tag_308:\n      mload(0x40)\n      dup1\n      0xc0\n      add\n      0x40\n      mstore\n      dup1\n      0x00\n      dup2\n      mstore\n      0x20\n      add\n      and(0xffffffffffffffffffffffffffffffffffffffff, 0x00)\n      dup2\n      mstore\n      0x20\n      add\n      0x60\n      dup2\n      mstore\n      0x20\n      add\n      0x00\n      dup2\n      mstore\n      0x20\n      add\n      0x00\n      dup2\n      mstore\n      0x20\n      add\n      tag_399\n      tag_400\n      jump\t// in\n    tag_399:\n      dup2\n      mstore\n      pop\n      swap1\n      jump\t// out\n    tag_316:\n      dup3\n      dup1\n      sload\n      dup3\n      dup3\n      sstore\n      swap1\n      0x00\n      mstore\n      keccak256(0x00, 0x20)\n      swap1\n      dup2\n      add\n      swap3\n      dup3\n      iszero\n      tag_401\n      jumpi\n      swap2\n      0x20\n      mul\n      dup3\n      add\n    tag_402:\n      dup3\n      dup2\n      gt\n      iszero\n      tag_403\n      jumpi\n      dup3\n      mload\n      dup3\n      swap1\n      dup1\n      mload\n      swap1\n      0x20\n      add\n      swap1\n      tag_404\n      swap3\n      swap2\n      swap1\n      tag_209\n      jump\t// in\n    tag_404:\n      pop\n      swap2\n      0x20\n      add\n      swap2\n      swap1\n      0x01\n      add\n      swap1\n      jump(tag_402)\n    tag_403:\n    tag_401:\n      pop\n      swap1\n      pop\n      tag_405\n      swap2\n      swap1\n      tag_406\n      jump\t// in\n    tag_405:\n      pop\n      swap1\n      jump\t// out\n    tag_386:\n      mload(0x40)\n      dup1\n      0x0180\n      add\n      0x40\n      mstore\n      dup1\n      0x0c\n      swap1\n      0x20\n      dup3\n      mul\n      dup1\n      calldatasize\n      dup4\n      calldatacopy\n      dup1\n      dup3\n      add\n      swap2\n      pop\n      pop\n      swap1\n      pop\n      pop\n      swap1\n      jump\t// out\n    tag_394:\n    tag_407:\n      dup1\n      dup3\n      gt\n      iszero\n      tag_408\n      jumpi\n      0x00\n      dup2\n      0x00\n      swap1\n      sstore\n      pop\n      0x01\n      add\n      jump(tag_407)\n    tag_408:\n      pop\n      swap1\n      jump\t// out\n    tag_400:\n      mload(0x40)\n      dup1\n      0x0100\n      add\n      0x40\n      mstore\n      dup1\n      0x60\n      dup2\n      mstore\n      0x20\n      add\n      0x60\n      dup2\n      mstore\n      0x20\n      add\n      0x00\n      dup2\n      mstore\n      0x20\n      add\n      0x60\n      dup2\n      mstore\n      0x20\n      add\n      0x60\n      dup2\n      mstore\n      0x20\n      add\n      0x60\n      dup2\n      mstore\n      0x20\n      add\n      0x60\n      dup2\n      mstore\n      0x20\n      add\n      0x60\n      dup2\n      mstore\n      pop\n      swap1\n      jump\t// out\n    tag_406:\n    tag_409:\n      dup1\n      dup3\n      gt\n      iszero\n      tag_410\n      jumpi\n      0x00\n      dup2\n      dup2\n      tag_411\n      swap2\n      swap1\n      tag_412\n      jump\t// in\n    tag_411:\n      pop\n      0x01\n      add\n      jump(tag_409)\n    tag_410:\n      pop\n      swap1\n      jump\t// out\n    tag_412:\n      pop\n      dup1\n      sload\n      tag_413\n      swap1\n      tag_111\n      jump\t// in\n    tag_413:\n      0x00\n      dup3\n      sstore\n      dup1\n      0x1f\n      lt\n      tag_415\n      jumpi\n      pop\n      jump(tag_414)\n    tag_415:\n      0x1f\n      add\n      0x20\n      swap1\n      div\n      swap1\n      0x00\n      mstore\n      keccak256(0x00, 0x20)\n      swap1\n      dup2\n      add\n      swap1\n      tag_416\n      swap2\n      swap1\n      tag_394\n      jump\t// in\n    tag_416:\n    tag_414:\n      pop\n      jump\t// out\n        /* \"#utility.yul\":24:746   */\n    tag_418:\n        /* \"#utility.yul\":120:125   */\n      0x00\n        /* \"#utility.yul\":145:226   */\n      tag_420\n        /* \"#utility.yul\":161:225   */\n      tag_421\n        /* \"#utility.yul\":218:224   */\n      dup5\n        /* \"#utility.yul\":161:225   */\n      tag_422\n      jump\t// in\n    tag_421:\n        /* \"#utility.yul\":145:226   */\n      tag_423\n      jump\t// in\n    tag_420:\n        /* \"#utility.yul\":136:226   */\n      swap1\n      pop\n        /* \"#utility.yul\":246:251   */\n      dup1\n        /* \"#utility.yul\":275:281   */\n      dup4\n        /* \"#utility.yul\":268:273   */\n      dup3\n        /* \"#utility.yul\":261:282   */\n      mstore\n        /* \"#utility.yul\":309:313   */\n      0x20\n        /* \"#utility.yul\":302:307   */\n      dup3\n        /* \"#utility.yul\":298:314   */\n      add\n        /* \"#utility.yul\":291:314   */\n      swap1\n      pop\n        /* \"#utility.yul\":335:341   */\n      dup3\n        /* \"#utility.yul\":385:388   */\n      dup6\n        /* \"#utility.yul\":377:381   */\n      0x20\n        /* \"#utility.yul\":369:375   */\n      dup7\n        /* \"#utility.yul\":365:382   */\n      mul\n        /* \"#utility.yul\":360:363   */\n      dup3\n        /* \"#utility.yul\":356:383   */\n      add\n        /* \"#utility.yul\":353:389   */\n      gt\n        /* \"#utility.yul\":350:493   */\n      iszero\n      tag_424\n      jumpi\n        /* \"#utility.yul\":404:483   */\n      tag_425\n      tag_426\n      jump\t// in\n    tag_425:\n        /* \"#utility.yul\":350:493   */\n    tag_424:\n        /* \"#utility.yul\":517:518   */\n      0x00\n        /* \"#utility.yul\":502:740   */\n    tag_427:\n        /* \"#utility.yul\":527:533   */\n      dup6\n        /* \"#utility.yul\":524:525   */\n      dup2\n        /* \"#utility.yul\":521:534   */\n      lt\n        /* \"#utility.yul\":502:740   */\n      iszero\n      tag_429\n      jumpi\n        /* \"#utility.yul\":595:598   */\n      dup2\n        /* \"#utility.yul\":624:661   */\n      tag_430\n        /* \"#utility.yul\":657:660   */\n      dup9\n        /* \"#utility.yul\":645:655   */\n      dup3\n        /* \"#utility.yul\":624:661   */\n      tag_431\n      jump\t// in\n    tag_430:\n        /* \"#utility.yul\":619:622   */\n      dup5\n        /* \"#utility.yul\":612:662   */\n      mstore\n        /* \"#utility.yul\":691:695   */\n      0x20\n        /* \"#utility.yul\":686:689   */\n      dup5\n        /* \"#utility.yul\":682:696   */\n      add\n        /* \"#utility.yul\":675:696   */\n      swap4\n      pop\n        /* \"#utility.yul\":725:729   */\n      0x20\n        /* \"#utility.yul\":720:723   */\n      dup4\n        /* \"#utility.yul\":716:730   */\n      add\n        /* \"#utility.yul\":709:730   */\n      swap3\n      pop\n        /* \"#utility.yul\":562:740   */\n      pop\n        /* \"#utility.yul\":549:550   */\n      0x01\n        /* \"#utility.yul\":546:547   */\n      dup2\n        /* \"#utility.yul\":542:551   */\n      add\n        /* \"#utility.yul\":537:551   */\n      swap1\n      pop\n        /* \"#utility.yul\":502:740   */\n      jump(tag_427)\n    tag_429:\n        /* \"#utility.yul\":506:520   */\n      pop\n        /* \"#utility.yul\":126:746   */\n      pop\n      pop\n        /* \"#utility.yul\":24:746   */\n      swap4\n      swap3\n      pop\n      pop\n      pop\n      jump\t// out\n        /* \"#utility.yul\":768:1725   */\n    tag_432:\n        /* \"#utility.yul\":874:879   */\n      0x00\n        /* \"#utility.yul\":899:990   */\n      tag_434\n        /* \"#utility.yul\":915:989   */\n      tag_435\n        /* \"#utility.yul\":982:988   */\n      dup5\n        /* \"#utility.yul\":915:989   */\n      tag_436\n      jump\t// in\n    tag_435:\n        /* \"#utility.yul\":899:990   */\n      tag_423\n      jump\t// in\n    tag_434:\n        /* \"#utility.yul\":890:990   */\n      swap1\n      pop\n        /* \"#utility.yul\":1010:1015   */\n      dup1\n        /* \"#utility.yul\":1039:1045   */\n      dup4\n        /* \"#utility.yul\":1032:1037   */\n      dup3\n        /* \"#utility.yul\":1025:1046   */\n      mstore\n        /* \"#utility.yul\":1073:1077   */\n      0x20\n        /* \"#utility.yul\":1066:1071   */\n      dup3\n        /* \"#utility.yul\":1062:1078   */\n      add\n        /* \"#utility.yul\":1055:1078   */\n      swap1\n      pop\n        /* \"#utility.yul\":1099:1105   */\n      dup3\n        /* \"#utility.yul\":1149:1152   */\n      dup6\n        /* \"#utility.yul\":1141:1145   */\n      0x20\n        /* \"#utility.yul\":1133:1139   */\n      dup7\n        /* \"#utility.yul\":1129:1146   */\n      mul\n        /* \"#utility.yul\":1124:1127   */\n      dup3\n        /* \"#utility.yul\":1120:1147   */\n      add\n        /* \"#utility.yul\":1117:1153   */\n      gt\n        /* \"#utility.yul\":1114:1257   */\n      iszero\n      tag_437\n      jumpi\n        /* \"#utility.yul\":1168:1247   */\n      tag_438\n      tag_426\n      jump\t// in\n    tag_438:\n        /* \"#utility.yul\":1114:1257   */\n    tag_437:\n        /* \"#utility.yul\":1281:1282   */\n      0x00\n        /* \"#utility.yul\":1266:1719   */\n    tag_439:\n        /* \"#utility.yul\":1291:1297   */\n      dup6\n        /* \"#utility.yul\":1288:1289   */\n      dup2\n        /* \"#utility.yul\":1285:1298   */\n      lt\n        /* \"#utility.yul\":1266:1719   */\n      iszero\n      tag_441\n      jumpi\n        /* \"#utility.yul\":1373:1376   */\n      dup2\n        /* \"#utility.yul\":1360:1377   */\n      calldataload\n        /* \"#utility.yul\":1409:1427   */\n      0xffffffffffffffff\n        /* \"#utility.yul\":1396:1407   */\n      dup2\n        /* \"#utility.yul\":1393:1428   */\n      gt\n        /* \"#utility.yul\":1390:1512   */\n      iszero\n      tag_442\n      jumpi\n        /* \"#utility.yul\":1431:1510   */\n      tag_443\n      tag_444\n      jump\t// in\n    tag_443:\n        /* \"#utility.yul\":1390:1512   */\n    tag_442:\n        /* \"#utility.yul\":1555:1566   */\n      dup1\n        /* \"#utility.yul\":1547:1553   */\n      dup7\n        /* \"#utility.yul\":1543:1567   */\n      add\n        /* \"#utility.yul\":1593:1640   */\n      tag_445\n        /* \"#utility.yul\":1636:1639   */\n      dup10\n        /* \"#utility.yul\":1624:1634   */\n      dup3\n        /* \"#utility.yul\":1593:1640   */\n      tag_446\n      jump\t// in\n    tag_445:\n        /* \"#utility.yul\":1588:1591   */\n      dup6\n        /* \"#utility.yul\":1581:1641   */\n      mstore\n        /* \"#utility.yul\":1670:1674   */\n      0x20\n        /* \"#utility.yul\":1665:1668   */\n      dup6\n        /* \"#utility.yul\":1661:1675   */\n      add\n        /* \"#utility.yul\":1654:1675   */\n      swap5\n      pop\n        /* \"#utility.yul\":1704:1708   */\n      0x20\n        /* \"#utility.yul\":1699:1702   */\n      dup5\n        /* \"#utility.yul\":1695:1709   */\n      add\n        /* \"#utility.yul\":1688:1709   */\n      swap4\n      pop\n        /* \"#utility.yul\":1326:1719   */\n      pop\n      pop\n        /* \"#utility.yul\":1313:1314   */\n      0x01\n        /* \"#utility.yul\":1310:1311   */\n      dup2\n        /* \"#utility.yul\":1306:1315   */\n      add\n        /* \"#utility.yul\":1301:1315   */\n      swap1\n      pop\n        /* \"#utility.yul\":1266:1719   */\n      jump(tag_439)\n    tag_441:\n        /* \"#utility.yul\":1270:1284   */\n      pop\n        /* \"#utility.yul\":880:1725   */\n      pop\n      pop\n        /* \"#utility.yul\":768:1725   */\n      swap4\n      swap3\n      pop\n      pop\n      pop\n      jump\t// out\n        /* \"#utility.yul\":1750:2407   */\n    tag_447:\n        /* \"#utility.yul\":1845:1850   */\n      0x00\n        /* \"#utility.yul\":1870:1950   */\n      tag_449\n        /* \"#utility.yul\":1886:1949   */\n      tag_450\n        /* \"#utility.yul\":1942:1948   */\n      dup5\n        /* \"#utility.yul\":1886:1949   */\n      tag_451\n      jump\t// in\n    tag_450:\n        /* \"#utility.yul\":1870:1950   */\n      tag_423\n      jump\t// in\n    tag_449:\n        /* \"#utility.yul\":1861:1950   */\n      swap1\n      pop\n        /* \"#utility.yul\":1970:1975   */\n      dup1\n        /* \"#utility.yul\":1996:2002   */\n      dup3\n        /* \"#utility.yul\":2046:2049   */\n      dup6\n        /* \"#utility.yul\":2038:2042   */\n      0x20\n        /* \"#utility.yul\":2030:2036   */\n      dup7\n        /* \"#utility.yul\":2026:2043   */\n      mul\n        /* \"#utility.yul\":2021:2024   */\n      dup3\n        /* \"#utility.yul\":2017:2044   */\n      add\n        /* \"#utility.yul\":2014:2050   */\n      gt\n        /* \"#utility.yul\":2011:2154   */\n      iszero\n      tag_452\n      jumpi\n        /* \"#utility.yul\":2065:2144   */\n      tag_453\n      tag_426\n      jump\t// in\n    tag_453:\n        /* \"#utility.yul\":2011:2154   */\n    tag_452:\n        /* \"#utility.yul\":2178:2179   */\n      0x00\n        /* \"#utility.yul\":2163:2401   */\n    tag_454:\n        /* \"#utility.yul\":2188:2194   */\n      dup6\n        /* \"#utility.yul\":2185:2186   */\n      dup2\n        /* \"#utility.yul\":2182:2195   */\n      lt\n        /* \"#utility.yul\":2163:2401   */\n      iszero\n      tag_456\n      jumpi\n        /* \"#utility.yul\":2256:2259   */\n      dup2\n        /* \"#utility.yul\":2285:2322   */\n      tag_457\n        /* \"#utility.yul\":2318:2321   */\n      dup9\n        /* \"#utility.yul\":2306:2316   */\n      dup3\n        /* \"#utility.yul\":2285:2322   */\n      tag_458\n      jump\t// in\n    tag_457:\n        /* \"#utility.yul\":2280:2283   */\n      dup5\n        /* \"#utility.yul\":2273:2323   */\n      mstore\n        /* \"#utility.yul\":2352:2356   */\n      0x20\n        /* \"#utility.yul\":2347:2350   */\n      dup5\n        /* \"#utility.yul\":2343:2357   */\n      add\n        /* \"#utility.yul\":2336:2357   */\n      swap4\n      pop\n        /* \"#utility.yul\":2386:2390   */\n      0x20\n        /* \"#utility.yul\":2381:2384   */\n      dup4\n        /* \"#utility.yul\":2377:2391   */\n      add\n        /* \"#utility.yul\":2370:2391   */\n      swap3\n      pop\n        /* \"#utility.yul\":2223:2401   */\n      pop\n        /* \"#utility.yul\":2210:2211   */\n      0x01\n        /* \"#utility.yul\":2207:2208   */\n      dup2\n        /* \"#utility.yul\":2203:2212   */\n      add\n        /* \"#utility.yul\":2198:2212   */\n      swap1\n      pop\n        /* \"#utility.yul\":2163:2401   */\n      jump(tag_454)\n    tag_456:\n        /* \"#utility.yul\":2167:2181   */\n      pop\n        /* \"#utility.yul\":1851:2407   */\n      pop\n      pop\n        /* \"#utility.yul\":1750:2407   */\n      swap4\n      swap3\n      pop\n      pop\n      pop\n      jump\t// out\n        /* \"#utility.yul\":2413:2825   */\n    tag_459:\n        /* \"#utility.yul\":2491:2496   */\n      0x00\n        /* \"#utility.yul\":2516:2582   */\n      tag_461\n        /* \"#utility.yul\":2532:2581   */\n      tag_462\n        /* \"#utility.yul\":2574:2580   */\n      dup5\n        /* \"#utility.yul\":2532:2581   */\n      tag_463\n      jump\t// in\n    tag_462:\n        /* \"#utility.yul\":2516:2582   */\n      tag_423\n      jump\t// in\n    tag_461:\n        /* \"#utility.yul\":2507:2582   */\n      swap1\n      pop\n        /* \"#utility.yul\":2605:2611   */\n      dup3\n        /* \"#utility.yul\":2598:2603   */\n      dup2\n        /* \"#utility.yul\":2591:2612   */\n      mstore\n        /* \"#utility.yul\":2643:2647   */\n      0x20\n        /* \"#utility.yul\":2636:2641   */\n      dup2\n        /* \"#utility.yul\":2632:2648   */\n      add\n        /* \"#utility.yul\":2681:2684   */\n      dup5\n        /* \"#utility.yul\":2672:2678   */\n      dup5\n        /* \"#utility.yul\":2667:2670   */\n      dup5\n        /* \"#utility.yul\":2663:2679   */\n      add\n        /* \"#utility.yul\":2660:2685   */\n      gt\n        /* \"#utility.yul\":2657:2769   */\n      iszero\n      tag_464\n      jumpi\n        /* \"#utility.yul\":2688:2767   */\n      tag_465\n      tag_466\n      jump\t// in\n    tag_465:\n        /* \"#utility.yul\":2657:2769   */\n    tag_464:\n        /* \"#utility.yul\":2778:2819   */\n      tag_467\n        /* \"#utility.yul\":2812:2818   */\n      dup5\n        /* \"#utility.yul\":2807:2810   */\n      dup3\n        /* \"#utility.yul\":2802:2805   */\n      dup6\n        /* \"#utility.yul\":2778:2819   */\n      tag_468\n      jump\t// in\n    tag_467:\n        /* \"#utility.yul\":2497:2825   */\n      pop\n        /* \"#utility.yul\":2413:2825   */\n      swap4\n      swap3\n      pop\n      pop\n      pop\n      jump\t// out\n        /* \"#utility.yul\":2831:2970   */\n    tag_431:\n        /* \"#utility.yul\":2877:2882   */\n      0x00\n        /* \"#utility.yul\":2915:2921   */\n      dup2\n        /* \"#utility.yul\":2902:2922   */\n      calldataload\n        /* \"#utility.yul\":2893:2922   */\n      swap1\n      pop\n        /* \"#utility.yul\":2931:2964   */\n      tag_470\n        /* \"#utility.yul\":2958:2963   */\n      dup2\n        /* \"#utility.yul\":2931:2964   */\n      tag_471\n      jump\t// in\n    tag_470:\n        /* \"#utility.yul\":2831:2970   */\n      swap3\n      swap2\n      pop\n      pop\n      jump\t// out\n        /* \"#utility.yul\":2993:3363   */\n    tag_472:\n        /* \"#utility.yul\":3064:3069   */\n      0x00\n        /* \"#utility.yul\":3113:3116   */\n      dup3\n        /* \"#utility.yul\":3106:3110   */\n      0x1f\n        /* \"#utility.yul\":3098:3104   */\n      dup4\n        /* \"#utility.yul\":3094:3111   */\n      add\n        /* \"#utility.yul\":3090:3117   */\n      slt\n        /* \"#utility.yul\":3080:3202   */\n      tag_474\n      jumpi\n        /* \"#utility.yul\":3121:3200   */\n      tag_475\n      tag_444\n      jump\t// in\n    tag_475:\n        /* \"#utility.yul\":3080:3202   */\n    tag_474:\n        /* \"#utility.yul\":3238:3244   */\n      dup2\n        /* \"#utility.yul\":3225:3245   */\n      calldataload\n        /* \"#utility.yul\":3263:3357   */\n      tag_476\n        /* \"#utility.yul\":3353:3356   */\n      dup5\n        /* \"#utility.yul\":3345:3351   */\n      dup3\n        /* \"#utility.yul\":3338:3342   */\n      0x20\n        /* \"#utility.yul\":3330:3336   */\n      dup7\n        /* \"#utility.yul\":3326:3343   */\n      add\n        /* \"#utility.yul\":3263:3357   */\n      tag_418\n      jump\t// in\n    tag_476:\n        /* \"#utility.yul\":3254:3357   */\n      swap2\n      pop\n        /* \"#utility.yul\":3070:3363   */\n      pop\n        /* \"#utility.yul\":2993:3363   */\n      swap3\n      swap2\n      pop\n      pop\n      jump\t// out\n        /* \"#utility.yul\":3385:3775   */\n    tag_477:\n        /* \"#utility.yul\":3466:3471   */\n      0x00\n        /* \"#utility.yul\":3515:3518   */\n      dup3\n        /* \"#utility.yul\":3508:3512   */\n      0x1f\n        /* \"#utility.yul\":3500:3506   */\n      dup4\n        /* \"#utility.yul\":3496:3513   */\n      add\n        /* \"#utility.yul\":3492:3519   */\n      slt\n        /* \"#utility.yul\":3482:3604   */\n      tag_479\n      jumpi\n        /* \"#utility.yul\":3523:3602   */\n      tag_480\n      tag_444\n      jump\t// in\n    tag_480:\n        /* \"#utility.yul\":3482:3604   */\n    tag_479:\n        /* \"#utility.yul\":3640:3646   */\n      dup2\n        /* \"#utility.yul\":3627:3647   */\n      calldataload\n        /* \"#utility.yul\":3665:3769   */\n      tag_481\n        /* \"#utility.yul\":3765:3768   */\n      dup5\n        /* \"#utility.yul\":3757:3763   */\n      dup3\n        /* \"#utility.yul\":3750:3754   */\n      0x20\n        /* \"#utility.yul\":3742:3748   */\n      dup7\n        /* \"#utility.yul\":3738:3755   */\n      add\n        /* \"#utility.yul\":3665:3769   */\n      tag_432\n      jump\t// in\n    tag_481:\n        /* \"#utility.yul\":3656:3769   */\n      swap2\n      pop\n        /* \"#utility.yul\":3472:3775   */\n      pop\n        /* \"#utility.yul\":3385:3775   */\n      swap3\n      swap2\n      pop\n      pop\n      jump\t// out\n        /* \"#utility.yul\":3800:4141   */\n    tag_482:\n        /* \"#utility.yul\":3870:3875   */\n      0x00\n        /* \"#utility.yul\":3919:3922   */\n      dup3\n        /* \"#utility.yul\":3912:3916   */\n      0x1f\n        /* \"#utility.yul\":3904:3910   */\n      dup4\n        /* \"#utility.yul\":3900:3917   */\n      add\n        /* \"#utility.yul\":3896:3923   */\n      slt\n        /* \"#utility.yul\":3886:4008   */\n      tag_484\n      jumpi\n        /* \"#utility.yul\":3927:4006   */\n      tag_485\n      tag_444\n      jump\t// in\n    tag_485:\n        /* \"#utility.yul\":3886:4008   */\n    tag_484:\n        /* \"#utility.yul\":4031:4035   */\n      0x0c\n        /* \"#utility.yul\":4053:4135   */\n      tag_486\n        /* \"#utility.yul\":4131:4134   */\n      dup5\n        /* \"#utility.yul\":4123:4129   */\n      dup3\n        /* \"#utility.yul\":4115:4121   */\n      dup6\n        /* \"#utility.yul\":4053:4135   */\n      tag_447\n      jump\t// in\n    tag_486:\n        /* \"#utility.yul\":4044:4135   */\n      swap2\n      pop\n        /* \"#utility.yul\":3876:4141   */\n      pop\n        /* \"#utility.yul\":3800:4141   */\n      swap3\n      swap2\n      pop\n      pop\n      jump\t// out\n        /* \"#utility.yul\":4147:4284   */\n    tag_487:\n        /* \"#utility.yul\":4192:4197   */\n      0x00\n        /* \"#utility.yul\":4230:4236   */\n      dup2\n        /* \"#utility.yul\":4217:4237   */\n      calldataload\n        /* \"#utility.yul\":4208:4237   */\n      swap1\n      pop\n        /* \"#utility.yul\":4246:4278   */\n      tag_489\n        /* \"#utility.yul\":4272:4277   */\n      dup2\n        /* \"#utility.yul\":4246:4278   */\n      tag_490\n      jump\t// in\n    tag_489:\n        /* \"#utility.yul\":4147:4284   */\n      swap3\n      swap2\n      pop\n      pop\n      jump\t// out\n        /* \"#utility.yul\":4304:4644   */\n    tag_446:\n        /* \"#utility.yul\":4360:4365   */\n      0x00\n        /* \"#utility.yul\":4409:4412   */\n      dup3\n        /* \"#utility.yul\":4402:4406   */\n      0x1f\n        /* \"#utility.yul\":4394:4400   */\n      dup4\n        /* \"#utility.yul\":4390:4407   */\n      add\n        /* \"#utility.yul\":4386:4413   */\n      slt\n        /* \"#utility.yul\":4376:4498   */\n      tag_492\n      jumpi\n        /* \"#utility.yul\":4417:4496   */\n      tag_493\n      tag_444\n      jump\t// in\n    tag_493:\n        /* \"#utility.yul\":4376:4498   */\n    tag_492:\n        /* \"#utility.yul\":4534:4540   */\n      dup2\n        /* \"#utility.yul\":4521:4541   */\n      calldataload\n        /* \"#utility.yul\":4559:4638   */\n      tag_494\n        /* \"#utility.yul\":4634:4637   */\n      dup5\n        /* \"#utility.yul\":4626:4632   */\n      dup3\n        /* \"#utility.yul\":4619:4623   */\n      0x20\n        /* \"#utility.yul\":4611:4617   */\n      dup7\n        /* \"#utility.yul\":4607:4624   */\n      add\n        /* \"#utility.yul\":4559:4638   */\n      tag_459\n      jump\t// in\n    tag_494:\n        /* \"#utility.yul\":4550:4638   */\n      swap2\n      pop\n        /* \"#utility.yul\":4366:4644   */\n      pop\n        /* \"#utility.yul\":4304:4644   */\n      swap3\n      swap2\n      pop\n      pop\n      jump\t// out\n        /* \"#utility.yul\":4650:4789   */\n    tag_458:\n        /* \"#utility.yul\":4696:4701   */\n      0x00\n        /* \"#utility.yul\":4734:4740   */\n      dup2\n        /* \"#utility.yul\":4721:4741   */\n      calldataload\n        /* \"#utility.yul\":4712:4741   */\n      swap1\n      pop\n        /* \"#utility.yul\":4750:4783   */\n      tag_496\n        /* \"#utility.yul\":4777:4782   */\n      dup2\n        /* \"#utility.yul\":4750:4783   */\n      tag_497\n      jump\t// in\n    tag_496:\n        /* \"#utility.yul\":4650:4789   */\n      swap3\n      swap2\n      pop\n      pop\n      jump\t// out\n        /* \"#utility.yul\":4795:5124   */\n    tag_18:\n        /* \"#utility.yul\":4854:4860   */\n      0x00\n        /* \"#utility.yul\":4903:4905   */\n      0x20\n        /* \"#utility.yul\":4891:4900   */\n      dup3\n        /* \"#utility.yul\":4882:4889   */\n      dup5\n        /* \"#utility.yul\":4878:4901   */\n      sub\n        /* \"#utility.yul\":4874:4906   */\n      slt\n        /* \"#utility.yul\":4871:4990   */\n      iszero\n      tag_499\n      jumpi\n        /* \"#utility.yul\":4909:4988   */\n      tag_500\n      tag_501\n      jump\t// in\n    tag_500:\n        /* \"#utility.yul\":4871:4990   */\n    tag_499:\n        /* \"#utility.yul\":5029:5030   */\n      0x00\n        /* \"#utility.yul\":5054:5107   */\n      tag_502\n        /* \"#utility.yul\":5099:5106   */\n      dup5\n        /* \"#utility.yul\":5090:5096   */\n      dup3\n        /* \"#utility.yul\":5079:5088   */\n      dup6\n        /* \"#utility.yul\":5075:5097   */\n      add\n        /* \"#utility.yul\":5054:5107   */\n      tag_431\n      jump\t// in\n    tag_502:\n        /* \"#utility.yul\":5044:5107   */\n      swap2\n      pop\n        /* \"#utility.yul\":5000:5117   */\n      pop\n        /* \"#utility.yul\":4795:5124   */\n      swap3\n      swap2\n      pop\n      pop\n      jump\t// out\n        /* \"#utility.yul\":5130:5604   */\n    tag_68:\n        /* \"#utility.yul\":5198:5204   */\n      0x00\n        /* \"#utility.yul\":5206:5212   */\n      dup1\n        /* \"#utility.yul\":5255:5257   */\n      0x40\n        /* \"#utility.yul\":5243:5252   */\n      dup4\n        /* \"#utility.yul\":5234:5241   */\n      dup6\n        /* \"#utility.yul\":5230:5253   */\n      sub\n        /* \"#utility.yul\":5226:5258   */\n      slt\n        /* \"#utility.yul\":5223:5342   */\n      iszero\n      tag_504\n      jumpi\n        /* \"#utility.yul\":5261:5340   */\n      tag_505\n      tag_501\n      jump\t// in\n    tag_505:\n        /* \"#utility.yul\":5223:5342   */\n    tag_504:\n        /* \"#utility.yul\":5381:5382   */\n      0x00\n        /* \"#utility.yul\":5406:5459   */\n      tag_506\n        /* \"#utility.yul\":5451:5458   */\n      dup6\n        /* \"#utility.yul\":5442:5448   */\n      dup3\n        /* \"#utility.yul\":5431:5440   */\n      dup7\n        /* \"#utility.yul\":5427:5449   */\n      add\n        /* \"#utility.yul\":5406:5459   */\n      tag_431\n      jump\t// in\n    tag_506:\n        /* \"#utility.yul\":5396:5459   */\n      swap3\n      pop\n        /* \"#utility.yul\":5352:5469   */\n      pop\n        /* \"#utility.yul\":5508:5510   */\n      0x20\n        /* \"#utility.yul\":5534:5587   */\n      tag_507\n        /* \"#utility.yul\":5579:5586   */\n      dup6\n        /* \"#utility.yul\":5570:5576   */\n      dup3\n        /* \"#utility.yul\":5559:5568   */\n      dup7\n        /* \"#utility.yul\":5555:5577   */\n      add\n        /* \"#utility.yul\":5534:5587   */\n      tag_458\n      jump\t// in\n    tag_507:\n        /* \"#utility.yul\":5524:5587   */\n      swap2\n      pop\n        /* \"#utility.yul\":5479:5597   */\n      pop\n        /* \"#utility.yul\":5130:5604   */\n      swap3\n      pop\n      swap3\n      swap1\n      pop\n      jump\t// out\n        /* \"#utility.yul\":5610:6149   */\n    tag_45:\n        /* \"#utility.yul\":5694:5700   */\n      0x00\n        /* \"#utility.yul\":5743:5745   */\n      0x20\n        /* \"#utility.yul\":5731:5740   */\n      dup3\n        /* \"#utility.yul\":5722:5729   */\n      dup5\n        /* \"#utility.yul\":5718:5741   */\n      sub\n        /* \"#utility.yul\":5714:5746   */\n      slt\n        /* \"#utility.yul\":5711:5830   */\n      iszero\n      tag_509\n      jumpi\n        /* \"#utility.yul\":5749:5828   */\n      tag_510\n      tag_501\n      jump\t// in\n    tag_510:\n        /* \"#utility.yul\":5711:5830   */\n    tag_509:\n        /* \"#utility.yul\":5897:5898   */\n      0x00\n        /* \"#utility.yul\":5886:5895   */\n      dup3\n        /* \"#utility.yul\":5882:5899   */\n      add\n        /* \"#utility.yul\":5869:5900   */\n      calldataload\n        /* \"#utility.yul\":5927:5945   */\n      0xffffffffffffffff\n        /* \"#utility.yul\":5919:5925   */\n      dup2\n        /* \"#utility.yul\":5916:5946   */\n      gt\n        /* \"#utility.yul\":5913:6030   */\n      iszero\n      tag_511\n      jumpi\n        /* \"#utility.yul\":5949:6028   */\n      tag_512\n      tag_513\n      jump\t// in\n    tag_512:\n        /* \"#utility.yul\":5913:6030   */\n    tag_511:\n        /* \"#utility.yul\":6054:6132   */\n      tag_514\n        /* \"#utility.yul\":6124:6131   */\n      dup5\n        /* \"#utility.yul\":6115:6121   */\n      dup3\n        /* \"#utility.yul\":6104:6113   */\n      dup6\n        /* \"#utility.yul\":6100:6122   */\n      add\n        /* \"#utility.yul\":6054:6132   */\n      tag_472\n      jump\t// in\n    tag_514:\n        /* \"#utility.yul\":6044:6132   */\n      swap2\n      pop\n        /* \"#utility.yul\":5840:6142   */\n      pop\n        /* \"#utility.yul\":5610:6149   */\n      swap3\n      swap2\n      pop\n      pop\n      jump\t// out\n        /* \"#utility.yul\":6155:8306   */\n    tag_41:\n        /* \"#utility.yul\":6342:6348   */\n      0x00\n        /* \"#utility.yul\":6350:6356   */\n      dup1\n        /* \"#utility.yul\":6358:6364   */\n      0x00\n        /* \"#utility.yul\":6366:6372   */\n      dup1\n        /* \"#utility.yul\":6374:6380   */\n      0x00\n        /* \"#utility.yul\":6382:6388   */\n      dup1\n        /* \"#utility.yul\":6390:6396   */\n      0x00\n        /* \"#utility.yul\":6439:6442   */\n      0x0240\n        /* \"#utility.yul\":6427:6436   */\n      dup9\n        /* \"#utility.yul\":6418:6425   */\n      dup11\n        /* \"#utility.yul\":6414:6437   */\n      sub\n        /* \"#utility.yul\":6410:6443   */\n      slt\n        /* \"#utility.yul\":6407:6527   */\n      iszero\n      tag_516\n      jumpi\n        /* \"#utility.yul\":6446:6525   */\n      tag_517\n      tag_501\n      jump\t// in\n    tag_517:\n        /* \"#utility.yul\":6407:6527   */\n    tag_516:\n        /* \"#utility.yul\":6594:6595   */\n      0x00\n        /* \"#utility.yul\":6583:6592   */\n      dup9\n        /* \"#utility.yul\":6579:6596   */\n      add\n        /* \"#utility.yul\":6566:6597   */\n      calldataload\n        /* \"#utility.yul\":6624:6642   */\n      0xffffffffffffffff\n        /* \"#utility.yul\":6616:6622   */\n      dup2\n        /* \"#utility.yul\":6613:6643   */\n      gt\n        /* \"#utility.yul\":6610:6727   */\n      iszero\n      tag_518\n      jumpi\n        /* \"#utility.yul\":6646:6725   */\n      tag_519\n      tag_513\n      jump\t// in\n    tag_519:\n        /* \"#utility.yul\":6610:6727   */\n    tag_518:\n        /* \"#utility.yul\":6751:6814   */\n      tag_520\n        /* \"#utility.yul\":6806:6813   */\n      dup11\n        /* \"#utility.yul\":6797:6803   */\n      dup3\n        /* \"#utility.yul\":6786:6795   */\n      dup12\n        /* \"#utility.yul\":6782:6804   */\n      add\n        /* \"#utility.yul\":6751:6814   */\n      tag_446\n      jump\t// in\n    tag_520:\n        /* \"#utility.yul\":6741:6814   */\n      swap8\n      pop\n        /* \"#utility.yul\":6537:6824   */\n      pop\n        /* \"#utility.yul\":6891:6893   */\n      0x20\n        /* \"#utility.yul\":6880:6889   */\n      dup9\n        /* \"#utility.yul\":6876:6894   */\n      add\n        /* \"#utility.yul\":6863:6895   */\n      calldataload\n        /* \"#utility.yul\":6922:6940   */\n      0xffffffffffffffff\n        /* \"#utility.yul\":6914:6920   */\n      dup2\n        /* \"#utility.yul\":6911:6941   */\n      gt\n        /* \"#utility.yul\":6908:7025   */\n      iszero\n      tag_521\n      jumpi\n        /* \"#utility.yul\":6944:7023   */\n      tag_522\n      tag_513\n      jump\t// in\n    tag_522:\n        /* \"#utility.yul\":6908:7025   */\n    tag_521:\n        /* \"#utility.yul\":7049:7112   */\n      tag_523\n        /* \"#utility.yul\":7104:7111   */\n      dup11\n        /* \"#utility.yul\":7095:7101   */\n      dup3\n        /* \"#utility.yul\":7084:7093   */\n      dup12\n        /* \"#utility.yul\":7080:7102   */\n      add\n        /* \"#utility.yul\":7049:7112   */\n      tag_446\n      jump\t// in\n    tag_523:\n        /* \"#utility.yul\":7039:7112   */\n      swap7\n      pop\n        /* \"#utility.yul\":6834:7122   */\n      pop\n        /* \"#utility.yul\":7189:7191   */\n      0x40\n        /* \"#utility.yul\":7178:7187   */\n      dup9\n        /* \"#utility.yul\":7174:7192   */\n      add\n        /* \"#utility.yul\":7161:7193   */\n      calldataload\n        /* \"#utility.yul\":7220:7238   */\n      0xffffffffffffffff\n        /* \"#utility.yul\":7212:7218   */\n      dup2\n        /* \"#utility.yul\":7209:7239   */\n      gt\n        /* \"#utility.yul\":7206:7323   */\n      iszero\n      tag_524\n      jumpi\n        /* \"#utility.yul\":7242:7321   */\n      tag_525\n      tag_513\n      jump\t// in\n    tag_525:\n        /* \"#utility.yul\":7206:7323   */\n    tag_524:\n        /* \"#utility.yul\":7347:7410   */\n      tag_526\n        /* \"#utility.yul\":7402:7409   */\n      dup11\n        /* \"#utility.yul\":7393:7399   */\n      dup3\n        /* \"#utility.yul\":7382:7391   */\n      dup12\n        /* \"#utility.yul\":7378:7400   */\n      add\n        /* \"#utility.yul\":7347:7410   */\n      tag_446\n      jump\t// in\n    tag_526:\n        /* \"#utility.yul\":7337:7410   */\n      swap6\n      pop\n        /* \"#utility.yul\":7132:7420   */\n      pop\n        /* \"#utility.yul\":7487:7489   */\n      0x60\n        /* \"#utility.yul\":7476:7485   */\n      dup9\n        /* \"#utility.yul\":7472:7490   */\n      add\n        /* \"#utility.yul\":7459:7491   */\n      calldataload\n        /* \"#utility.yul\":7518:7536   */\n      0xffffffffffffffff\n        /* \"#utility.yul\":7510:7516   */\n      dup2\n        /* \"#utility.yul\":7507:7537   */\n      gt\n        /* \"#utility.yul\":7504:7621   */\n      iszero\n      tag_527\n      jumpi\n        /* \"#utility.yul\":7540:7619   */\n      tag_528\n      tag_513\n      jump\t// in\n    tag_528:\n        /* \"#utility.yul\":7504:7621   */\n    tag_527:\n        /* \"#utility.yul\":7645:7708   */\n      tag_529\n        /* \"#utility.yul\":7700:7707   */\n      dup11\n        /* \"#utility.yul\":7691:7697   */\n      dup3\n        /* \"#utility.yul\":7680:7689   */\n      dup12\n        /* \"#utility.yul\":7676:7698   */\n      add\n        /* \"#utility.yul\":7645:7708   */\n      tag_446\n      jump\t// in\n    tag_529:\n        /* \"#utility.yul\":7635:7708   */\n      swap5\n      pop\n        /* \"#utility.yul\":7430:7718   */\n      pop\n        /* \"#utility.yul\":7757:7760   */\n      0x80\n        /* \"#utility.yul\":7784:7837   */\n      tag_530\n        /* \"#utility.yul\":7829:7836   */\n      dup11\n        /* \"#utility.yul\":7820:7826   */\n      dup3\n        /* \"#utility.yul\":7809:7818   */\n      dup12\n        /* \"#utility.yul\":7805:7827   */\n      add\n        /* \"#utility.yul\":7784:7837   */\n      tag_458\n      jump\t// in\n    tag_530:\n        /* \"#utility.yul\":7774:7837   */\n      swap4\n      pop\n        /* \"#utility.yul\":7728:7847   */\n      pop\n        /* \"#utility.yul\":7886:7889   */\n      0xa0\n        /* \"#utility.yul\":7913:7990   */\n      tag_531\n        /* \"#utility.yul\":7982:7989   */\n      dup11\n        /* \"#utility.yul\":7973:7979   */\n      dup3\n        /* \"#utility.yul\":7962:7971   */\n      dup12\n        /* \"#utility.yul\":7958:7980   */\n      add\n        /* \"#utility.yul\":7913:7990   */\n      tag_482\n      jump\t// in\n    tag_531:\n        /* \"#utility.yul\":7903:7990   */\n      swap3\n      pop\n        /* \"#utility.yul\":7857:8000   */\n      pop\n        /* \"#utility.yul\":8067:8070   */\n      0x0220\n        /* \"#utility.yul\":8056:8065   */\n      dup9\n        /* \"#utility.yul\":8052:8071   */\n      add\n        /* \"#utility.yul\":8039:8072   */\n      calldataload\n        /* \"#utility.yul\":8099:8117   */\n      0xffffffffffffffff\n        /* \"#utility.yul\":8091:8097   */\n      dup2\n        /* \"#utility.yul\":8088:8118   */\n      gt\n        /* \"#utility.yul\":8085:8202   */\n      iszero\n      tag_532\n      jumpi\n        /* \"#utility.yul\":8121:8200   */\n      tag_533\n      tag_513\n      jump\t// in\n    tag_533:\n        /* \"#utility.yul\":8085:8202   */\n    tag_532:\n        /* \"#utility.yul\":8226:8289   */\n      tag_534\n        /* \"#utility.yul\":8281:8288   */\n      dup11\n        /* \"#utility.yul\":8272:8278   */\n      dup3\n        /* \"#utility.yul\":8261:8270   */\n      dup12\n        /* \"#utility.yul\":8257:8279   */\n      add\n        /* \"#utility.yul\":8226:8289   */\n      tag_446\n      jump\t// in\n    tag_534:\n        /* \"#utility.yul\":8216:8289   */\n      swap2\n      pop\n        /* \"#utility.yul\":8010:8299   */\n      pop\n        /* \"#utility.yul\":6155:8306   */\n      swap3\n      swap6\n      swap9\n      swap2\n      swap5\n      swap8\n      pop\n      swap3\n      swap6\n      pop\n      jump\t// out\n        /* \"#utility.yul\":8312:11739   */\n    tag_63:\n        /* \"#utility.yul\":8640:8646   */\n      0x00\n        /* \"#utility.yul\":8648:8654   */\n      dup1\n        /* \"#utility.yul\":8656:8662   */\n      0x00\n        /* \"#utility.yul\":8664:8670   */\n      dup1\n        /* \"#utility.yul\":8672:8678   */\n      0x00\n        /* \"#utility.yul\":8680:8686   */\n      dup1\n        /* \"#utility.yul\":8688:8694   */\n      0x00\n        /* \"#utility.yul\":8696:8702   */\n      dup1\n        /* \"#utility.yul\":8704:8710   */\n      0x00\n        /* \"#utility.yul\":8712:8718   */\n      dup1\n        /* \"#utility.yul\":8720:8727   */\n      0x00\n        /* \"#utility.yul\":8770:8773   */\n      0x0160\n        /* \"#utility.yul\":8758:8767   */\n      dup13\n        /* \"#utility.yul\":8749:8756   */\n      dup15\n        /* \"#utility.yul\":8745:8768   */\n      sub\n        /* \"#utility.yul\":8741:8774   */\n      slt\n        /* \"#utility.yul\":8738:8858   */\n      iszero\n      tag_536\n      jumpi\n        /* \"#utility.yul\":8777:8856   */\n      tag_537\n      tag_501\n      jump\t// in\n    tag_537:\n        /* \"#utility.yul\":8738:8858   */\n    tag_536:\n        /* \"#utility.yul\":8925:8926   */\n      0x00\n        /* \"#utility.yul\":8914:8923   */\n      dup13\n        /* \"#utility.yul\":8910:8927   */\n      add\n        /* \"#utility.yul\":8897:8928   */\n      calldataload\n        /* \"#utility.yul\":8955:8973   */\n      0xffffffffffffffff\n        /* \"#utility.yul\":8947:8953   */\n      dup2\n        /* \"#utility.yul\":8944:8974   */\n      gt\n        /* \"#utility.yul\":8941:9058   */\n      iszero\n      tag_538\n      jumpi\n        /* \"#utility.yul\":8977:9056   */\n      tag_539\n      tag_513\n      jump\t// in\n    tag_539:\n        /* \"#utility.yul\":8941:9058   */\n    tag_538:\n        /* \"#utility.yul\":9082:9145   */\n      tag_540\n        /* \"#utility.yul\":9137:9144   */\n      dup15\n        /* \"#utility.yul\":9128:9134   */\n      dup3\n        /* \"#utility.yul\":9117:9126   */\n      dup16\n        /* \"#utility.yul\":9113:9135   */\n      add\n        /* \"#utility.yul\":9082:9145   */\n      tag_446\n      jump\t// in\n    tag_540:\n        /* \"#utility.yul\":9072:9145   */\n      swap12\n      pop\n        /* \"#utility.yul\":8868:9155   */\n      pop\n        /* \"#utility.yul\":9194:9196   */\n      0x20\n        /* \"#utility.yul\":9220:9273   */\n      tag_541\n        /* \"#utility.yul\":9265:9272   */\n      dup15\n        /* \"#utility.yul\":9256:9262   */\n      dup3\n        /* \"#utility.yul\":9245:9254   */\n      dup16\n        /* \"#utility.yul\":9241:9263   */\n      add\n        /* \"#utility.yul\":9220:9273   */\n      tag_458\n      jump\t// in\n    tag_541:\n        /* \"#utility.yul\":9210:9273   */\n      swap11\n      pop\n        /* \"#utility.yul\":9165:9283   */\n      pop\n        /* \"#utility.yul\":9322:9324   */\n      0x40\n        /* \"#utility.yul\":9348:9401   */\n      tag_542\n        /* \"#utility.yul\":9393:9400   */\n      dup15\n        /* \"#utility.yul\":9384:9390   */\n      dup3\n        /* \"#utility.yul\":9373:9382   */\n      dup16\n        /* \"#utility.yul\":9369:9391   */\n      add\n        /* \"#utility.yul\":9348:9401   */\n      tag_458\n      jump\t// in\n    tag_542:\n        /* \"#utility.yul\":9338:9401   */\n      swap10\n      pop\n        /* \"#utility.yul\":9293:9411   */\n      pop\n        /* \"#utility.yul\":9478:9480   */\n      0x60\n        /* \"#utility.yul\":9467:9476   */\n      dup13\n        /* \"#utility.yul\":9463:9481   */\n      add\n        /* \"#utility.yul\":9450:9482   */\n      calldataload\n        /* \"#utility.yul\":9509:9527   */\n      0xffffffffffffffff\n        /* \"#utility.yul\":9501:9507   */\n      dup2\n        /* \"#utility.yul\":9498:9528   */\n      gt\n        /* \"#utility.yul\":9495:9612   */\n      iszero\n      tag_543\n      jumpi\n        /* \"#utility.yul\":9531:9610   */\n      tag_544\n      tag_513\n      jump\t// in\n    tag_544:\n        /* \"#utility.yul\":9495:9612   */\n    tag_543:\n        /* \"#utility.yul\":9636:9699   */\n      tag_545\n        /* \"#utility.yul\":9691:9698   */\n      dup15\n        /* \"#utility.yul\":9682:9688   */\n      dup3\n        /* \"#utility.yul\":9671:9680   */\n      dup16\n        /* \"#utility.yul\":9667:9689   */\n      add\n        /* \"#utility.yul\":9636:9699   */\n      tag_446\n      jump\t// in\n    tag_545:\n        /* \"#utility.yul\":9626:9699   */\n      swap9\n      pop\n        /* \"#utility.yul\":9421:9709   */\n      pop\n        /* \"#utility.yul\":9776:9779   */\n      0x80\n        /* \"#utility.yul\":9765:9774   */\n      dup13\n        /* \"#utility.yul\":9761:9780   */\n      add\n        /* \"#utility.yul\":9748:9781   */\n      calldataload\n        /* \"#utility.yul\":9808:9826   */\n      0xffffffffffffffff\n        /* \"#utility.yul\":9800:9806   */\n      dup2\n        /* \"#utility.yul\":9797:9827   */\n      gt\n        /* \"#utility.yul\":9794:9911   */\n      iszero\n      tag_546\n      jumpi\n        /* \"#utility.yul\":9830:9909   */\n      tag_547\n      tag_513\n      jump\t// in\n    tag_547:\n        /* \"#utility.yul\":9794:9911   */\n    tag_546:\n        /* \"#utility.yul\":9935:9998   */\n      tag_548\n        /* \"#utility.yul\":9990:9997   */\n      dup15\n        /* \"#utility.yul\":9981:9987   */\n      dup3\n        /* \"#utility.yul\":9970:9979   */\n      dup16\n        /* \"#utility.yul\":9966:9988   */\n      add\n        /* \"#utility.yul\":9935:9998   */\n      tag_446\n      jump\t// in\n    tag_548:\n        /* \"#utility.yul\":9925:9998   */\n      swap8\n      pop\n        /* \"#utility.yul\":9719:10008   */\n      pop\n        /* \"#utility.yul\":10047:10050   */\n      0xa0\n        /* \"#utility.yul\":10074:10126   */\n      tag_549\n        /* \"#utility.yul\":10118:10125   */\n      dup15\n        /* \"#utility.yul\":10109:10115   */\n      dup3\n        /* \"#utility.yul\":10098:10107   */\n      dup16\n        /* \"#utility.yul\":10094:10116   */\n      add\n        /* \"#utility.yul\":10074:10126   */\n      tag_487\n      jump\t// in\n    tag_549:\n        /* \"#utility.yul\":10064:10126   */\n      swap7\n      pop\n        /* \"#utility.yul\":10018:10136   */\n      pop\n        /* \"#utility.yul\":10203:10206   */\n      0xc0\n        /* \"#utility.yul\":10192:10201   */\n      dup13\n        /* \"#utility.yul\":10188:10207   */\n      add\n        /* \"#utility.yul\":10175:10208   */\n      calldataload\n        /* \"#utility.yul\":10235:10253   */\n      0xffffffffffffffff\n        /* \"#utility.yul\":10227:10233   */\n      dup2\n        /* \"#utility.yul\":10224:10254   */\n      gt\n        /* \"#utility.yul\":10221:10338   */\n      iszero\n      tag_550\n      jumpi\n        /* \"#utility.yul\":10257:10336   */\n      tag_551\n      tag_513\n      jump\t// in\n    tag_551:\n        /* \"#utility.yul\":10221:10338   */\n    tag_550:\n        /* \"#utility.yul\":10362:10450   */\n      tag_552\n        /* \"#utility.yul\":10442:10449   */\n      dup15\n        /* \"#utility.yul\":10433:10439   */\n      dup3\n        /* \"#utility.yul\":10422:10431   */\n      dup16\n        /* \"#utility.yul\":10418:10440   */\n      add\n        /* \"#utility.yul\":10362:10450   */\n      tag_477\n      jump\t// in\n    tag_552:\n        /* \"#utility.yul\":10352:10450   */\n      swap6\n      pop\n        /* \"#utility.yul\":10146:10460   */\n      pop\n        /* \"#utility.yul\":10527:10530   */\n      0xe0\n        /* \"#utility.yul\":10516:10525   */\n      dup13\n        /* \"#utility.yul\":10512:10531   */\n      add\n        /* \"#utility.yul\":10499:10532   */\n      calldataload\n        /* \"#utility.yul\":10559:10577   */\n      0xffffffffffffffff\n        /* \"#utility.yul\":10551:10557   */\n      dup2\n        /* \"#utility.yul\":10548:10578   */\n      gt\n        /* \"#utility.yul\":10545:10662   */\n      iszero\n      tag_553\n      jumpi\n        /* \"#utility.yul\":10581:10660   */\n      tag_554\n      tag_513\n      jump\t// in\n    tag_554:\n        /* \"#utility.yul\":10545:10662   */\n    tag_553:\n        /* \"#utility.yul\":10686:10774   */\n      tag_555\n        /* \"#utility.yul\":10766:10773   */\n      dup15\n        /* \"#utility.yul\":10757:10763   */\n      dup3\n        /* \"#utility.yul\":10746:10755   */\n      dup16\n        /* \"#utility.yul\":10742:10764   */\n      add\n        /* \"#utility.yul\":10686:10774   */\n      tag_477\n      jump\t// in\n    tag_555:\n        /* \"#utility.yul\":10676:10774   */\n      swap5\n      pop\n        /* \"#utility.yul\":10470:10784   */\n      pop\n        /* \"#utility.yul\":10851:10854   */\n      0x0100\n        /* \"#utility.yul\":10840:10849   */\n      dup13\n        /* \"#utility.yul\":10836:10855   */\n      add\n        /* \"#utility.yul\":10823:10856   */\n      calldataload\n        /* \"#utility.yul\":10883:10901   */\n      0xffffffffffffffff\n        /* \"#utility.yul\":10875:10881   */\n      dup2\n        /* \"#utility.yul\":10872:10902   */\n      gt\n        /* \"#utility.yul\":10869:10986   */\n      iszero\n      tag_556\n      jumpi\n        /* \"#utility.yul\":10905:10984   */\n      tag_557\n      tag_513\n      jump\t// in\n    tag_557:\n        /* \"#utility.yul\":10869:10986   */\n    tag_556:\n        /* \"#utility.yul\":11010:11098   */\n      tag_558\n        /* \"#utility.yul\":11090:11097   */\n      dup15\n        /* \"#utility.yul\":11081:11087   */\n      dup3\n        /* \"#utility.yul\":11070:11079   */\n      dup16\n        /* \"#utility.yul\":11066:11088   */\n      add\n        /* \"#utility.yul\":11010:11098   */\n      tag_477\n      jump\t// in\n    tag_558:\n        /* \"#utility.yul\":11000:11098   */\n      swap4\n      pop\n        /* \"#utility.yul\":10794:11108   */\n      pop\n        /* \"#utility.yul\":11175:11178   */\n      0x0120\n        /* \"#utility.yul\":11164:11173   */\n      dup13\n        /* \"#utility.yul\":11160:11179   */\n      add\n        /* \"#utility.yul\":11147:11180   */\n      calldataload\n        /* \"#utility.yul\":11207:11225   */\n      0xffffffffffffffff\n        /* \"#utility.yul\":11199:11205   */\n      dup2\n        /* \"#utility.yul\":11196:11226   */\n      gt\n        /* \"#utility.yul\":11193:11310   */\n      iszero\n      tag_559\n      jumpi\n        /* \"#utility.yul\":11229:11308   */\n      tag_560\n      tag_513\n      jump\t// in\n    tag_560:\n        /* \"#utility.yul\":11193:11310   */\n    tag_559:\n        /* \"#utility.yul\":11334:11397   */\n      tag_561\n        /* \"#utility.yul\":11389:11396   */\n      dup15\n        /* \"#utility.yul\":11380:11386   */\n      dup3\n        /* \"#utility.yul\":11369:11378   */\n      dup16\n        /* \"#utility.yul\":11365:11387   */\n      add\n        /* \"#utility.yul\":11334:11397   */\n      tag_446\n      jump\t// in\n    tag_561:\n        /* \"#utility.yul\":11324:11397   */\n      swap3\n      pop\n        /* \"#utility.yul\":11118:11407   */\n      pop\n        /* \"#utility.yul\":11474:11477   */\n      0x0140\n        /* \"#utility.yul\":11463:11472   */\n      dup13\n        /* \"#utility.yul\":11459:11478   */\n      add\n        /* \"#utility.yul\":11446:11479   */\n      calldataload\n        /* \"#utility.yul\":11506:11524   */\n      0xffffffffffffffff\n        /* \"#utility.yul\":11498:11504   */\n      dup2\n        /* \"#utility.yul\":11495:11525   */\n      gt\n        /* \"#utility.yul\":11492:11609   */\n      iszero\n      tag_562\n      jumpi\n        /* \"#utility.yul\":11528:11607   */\n      tag_563\n      tag_513\n      jump\t// in\n    tag_563:\n        /* \"#utility.yul\":11492:11609   */\n    tag_562:\n        /* \"#utility.yul\":11634:11722   */\n      tag_564\n        /* \"#utility.yul\":11714:11721   */\n      dup15\n        /* \"#utility.yul\":11705:11711   */\n      dup3\n        /* \"#utility.yul\":11694:11703   */\n      dup16\n        /* \"#utility.yul\":11690:11712   */\n      add\n        /* \"#utility.yul\":11634:11722   */\n      tag_477\n      jump\t// in\n    tag_564:\n        /* \"#utility.yul\":11623:11722   */\n      swap2\n      pop\n        /* \"#utility.yul\":11417:11732   */\n      pop\n        /* \"#utility.yul\":8312:11739   */\n      swap3\n      swap6\n      swap9\n      swap12\n      pop\n      swap3\n      swap6\n      swap9\n      swap12\n      swap1\n      swap4\n      swap7\n      swap10\n      pop\n      jump\t// out\n        /* \"#utility.yul\":11745:12074   */\n    tag_50:\n        /* \"#utility.yul\":11804:11810   */\n      0x00\n        /* \"#utility.yul\":11853:11855   */\n      0x20\n        /* \"#utility.yul\":11841:11850   */\n      dup3\n        /* \"#utility.yul\":11832:11839   */\n      dup5\n        /* \"#utility.yul\":11828:11851   */\n      sub\n        /* \"#utility.yul\":11824:11856   */\n      slt\n        /* \"#utility.yul\":11821:11940   */\n      iszero\n      tag_566\n      jumpi\n        /* \"#utility.yul\":11859:11938   */\n      tag_567\n      tag_501\n      jump\t// in\n    tag_567:\n        /* \"#utility.yul\":11821:11940   */\n    tag_566:\n        /* \"#utility.yul\":11979:11980   */\n      0x00\n        /* \"#utility.yul\":12004:12057   */\n      tag_568\n        /* \"#utility.yul\":12049:12056   */\n      dup5\n        /* \"#utility.yul\":12040:12046   */\n      dup3\n        /* \"#utility.yul\":12029:12038   */\n      dup6\n        /* \"#utility.yul\":12025:12047   */\n      add\n        /* \"#utility.yul\":12004:12057   */\n      tag_458\n      jump\t// in\n    tag_568:\n        /* \"#utility.yul\":11994:12057   */\n      swap2\n      pop\n        /* \"#utility.yul\":11950:12067   */\n      pop\n        /* \"#utility.yul\":11745:12074   */\n      swap3\n      swap2\n      pop\n      pop\n      jump\t// out\n        /* \"#utility.yul\":12080:12554   */\n    tag_29:\n        /* \"#utility.yul\":12148:12154   */\n      0x00\n        /* \"#utility.yul\":12156:12162   */\n      dup1\n        /* \"#utility.yul\":12205:12207   */\n      0x40\n        /* \"#utility.yul\":12193:12202   */\n      dup4\n        /* \"#utility.yul\":12184:12191   */\n      dup6\n        /* \"#utility.yul\":12180:12203   */\n      sub\n        /* \"#utility.yul\":12176:12208   */\n      slt\n        /* \"#utility.yul\":12173:12292   */\n      iszero\n      tag_570\n      jumpi\n        /* \"#utility.yul\":12211:12290   */\n      tag_571\n      tag_501\n      jump\t// in\n    tag_571:\n        /* \"#utility.yul\":12173:12292   */\n    tag_570:\n        /* \"#utility.yul\":12331:12332   */\n      0x00\n        /* \"#utility.yul\":12356:12409   */\n      tag_572\n        /* \"#utility.yul\":12401:12408   */\n      dup6\n        /* \"#utility.yul\":12392:12398   */\n      dup3\n        /* \"#utility.yul\":12381:12390   */\n      dup7\n        /* \"#utility.yul\":12377:12399   */\n      add\n        /* \"#utility.yul\":12356:12409   */\n      tag_458\n      jump\t// in\n    tag_572:\n        /* \"#utility.yul\":12346:12409   */\n      swap3\n      pop\n        /* \"#utility.yul\":12302:12419   */\n      pop\n        /* \"#utility.yul\":12458:12460   */\n      0x20\n        /* \"#utility.yul\":12484:12537   */\n      tag_573\n        /* \"#utility.yul\":12529:12536   */\n      dup6\n        /* \"#utility.yul\":12520:12526   */\n      dup3\n        /* \"#utility.yul\":12509:12518   */\n      dup7\n        /* \"#utility.yul\":12505:12527   */\n      add\n        /* \"#utility.yul\":12484:12537   */\n      tag_458\n      jump\t// in\n    tag_573:\n        /* \"#utility.yul\":12474:12537   */\n      swap2\n      pop\n        /* \"#utility.yul\":12429:12547   */\n      pop\n        /* \"#utility.yul\":12080:12554   */\n      swap3\n      pop\n      swap3\n      swap1\n      pop\n      jump\t// out\n        /* \"#utility.yul\":12560:12756   */\n    tag_574:\n        /* \"#utility.yul\":12649:12659   */\n      0x00\n        /* \"#utility.yul\":12684:12750   */\n      tag_576\n        /* \"#utility.yul\":12746:12749   */\n      dup4\n        /* \"#utility.yul\":12738:12744   */\n      dup4\n        /* \"#utility.yul\":12684:12750   */\n      tag_577\n      jump\t// in\n    tag_576:\n        /* \"#utility.yul\":12670:12750   */\n      swap1\n      pop\n        /* \"#utility.yul\":12560:12756   */\n      swap3\n      swap2\n      pop\n      pop\n      jump\t// out\n        /* \"#utility.yul\":12762:12941   */\n    tag_578:\n        /* \"#utility.yul\":12831:12841   */\n      0x00\n        /* \"#utility.yul\":12852:12898   */\n      tag_580\n        /* \"#utility.yul\":12894:12897   */\n      dup4\n        /* \"#utility.yul\":12886:12892   */\n      dup4\n        /* \"#utility.yul\":12852:12898   */\n      tag_581\n      jump\t// in\n    tag_580:\n        /* \"#utility.yul\":12930:12934   */\n      0x20\n        /* \"#utility.yul\":12925:12928   */\n      dup4\n        /* \"#utility.yul\":12921:12935   */\n      add\n        /* \"#utility.yul\":12907:12935   */\n      swap1\n      pop\n        /* \"#utility.yul\":12762:12941   */\n      swap3\n      swap2\n      pop\n      pop\n      jump\t// out\n        /* \"#utility.yul\":12947:13055   */\n    tag_582:\n        /* \"#utility.yul\":13024:13048   */\n      tag_584\n        /* \"#utility.yul\":13042:13047   */\n      dup2\n        /* \"#utility.yul\":13024:13048   */\n      tag_585\n      jump\t// in\n    tag_584:\n        /* \"#utility.yul\":13019:13022   */\n      dup3\n        /* \"#utility.yul\":13012:13049   */\n      mstore\n        /* \"#utility.yul\":12947:13055   */\n      pop\n      pop\n      jump\t// out\n        /* \"#utility.yul\":13061:13179   */\n    tag_586:\n        /* \"#utility.yul\":13148:13172   */\n      tag_588\n        /* \"#utility.yul\":13166:13171   */\n      dup2\n        /* \"#utility.yul\":13148:13172   */\n      tag_585\n      jump\t// in\n    tag_588:\n        /* \"#utility.yul\":13143:13146   */\n      dup3\n        /* \"#utility.yul\":13136:13173   */\n      mstore\n        /* \"#utility.yul\":13061:13179   */\n      pop\n      pop\n      jump\t// out\n        /* \"#utility.yul\":13213:14184   */\n    tag_589:\n        /* \"#utility.yul\":13342:13345   */\n      0x00\n        /* \"#utility.yul\":13371:13435   */\n      tag_591\n        /* \"#utility.yul\":13429:13434   */\n      dup3\n        /* \"#utility.yul\":13371:13435   */\n      tag_592\n      jump\t// in\n    tag_591:\n        /* \"#utility.yul\":13451:13537   */\n      tag_593\n        /* \"#utility.yul\":13530:13536   */\n      dup2\n        /* \"#utility.yul\":13525:13528   */\n      dup6\n        /* \"#utility.yul\":13451:13537   */\n      tag_594\n      jump\t// in\n    tag_593:\n        /* \"#utility.yul\":13444:13537   */\n      swap4\n      pop\n        /* \"#utility.yul\":13563:13566   */\n      dup4\n        /* \"#utility.yul\":13608:13612   */\n      0x20\n        /* \"#utility.yul\":13600:13606   */\n      dup3\n        /* \"#utility.yul\":13596:13613   */\n      mul\n        /* \"#utility.yul\":13591:13594   */\n      dup6\n        /* \"#utility.yul\":13587:13614   */\n      add\n        /* \"#utility.yul\":13638:13704   */\n      tag_595\n        /* \"#utility.yul\":13698:13703   */\n      dup6\n        /* \"#utility.yul\":13638:13704   */\n      tag_596\n      jump\t// in\n    tag_595:\n        /* \"#utility.yul\":13727:13734   */\n      dup1\n        /* \"#utility.yul\":13758:13759   */\n      0x00\n        /* \"#utility.yul\":13743:14139   */\n    tag_597:\n        /* \"#utility.yul\":13768:13774   */\n      dup6\n        /* \"#utility.yul\":13765:13766   */\n      dup2\n        /* \"#utility.yul\":13762:13775   */\n      lt\n        /* \"#utility.yul\":13743:14139   */\n      iszero\n      tag_599\n      jumpi\n        /* \"#utility.yul\":13839:13848   */\n      dup5\n        /* \"#utility.yul\":13833:13837   */\n      dup5\n        /* \"#utility.yul\":13829:13849   */\n      sub\n        /* \"#utility.yul\":13824:13827   */\n      dup10\n        /* \"#utility.yul\":13817:13850   */\n      mstore\n        /* \"#utility.yul\":13890:13896   */\n      dup2\n        /* \"#utility.yul\":13884:13897   */\n      mload\n        /* \"#utility.yul\":13918:14002   */\n      tag_600\n        /* \"#utility.yul\":13997:14001   */\n      dup6\n        /* \"#utility.yul\":13982:13995   */\n      dup3\n        /* \"#utility.yul\":13918:14002   */\n      tag_574\n      jump\t// in\n    tag_600:\n        /* \"#utility.yul\":13910:14002   */\n      swap5\n      pop\n        /* \"#utility.yul\":14025:14095   */\n      tag_601\n        /* \"#utility.yul\":14088:14094   */\n      dup4\n        /* \"#utility.yul\":14025:14095   */\n      tag_602\n      jump\t// in\n    tag_601:\n        /* \"#utility.yul\":14015:14095   */\n      swap3\n      pop\n        /* \"#utility.yul\":14124:14128   */\n      0x20\n        /* \"#utility.yul\":14119:14122   */\n      dup11\n        /* \"#utility.yul\":14115:14129   */\n      add\n        /* \"#utility.yul\":14108:14129   */\n      swap10\n      pop\n        /* \"#utility.yul\":13803:14139   */\n      pop\n        /* \"#utility.yul\":13790:13791   */\n      0x01\n        /* \"#utility.yul\":13787:13788   */\n      dup2\n        /* \"#utility.yul\":13783:13792   */\n      add\n        /* \"#utility.yul\":13778:13792   */\n      swap1\n      pop\n        /* \"#utility.yul\":13743:14139   */\n      jump(tag_597)\n    tag_599:\n        /* \"#utility.yul\":13747:13761   */\n      pop\n        /* \"#utility.yul\":14155:14159   */\n      dup3\n        /* \"#utility.yul\":14148:14159   */\n      swap8\n      pop\n        /* \"#utility.yul\":14175:14178   */\n      dup8\n        /* \"#utility.yul\":14168:14178   */\n      swap6\n      pop\n        /* \"#utility.yul\":13347:14184   */\n      pop\n      pop\n      pop\n      pop\n      pop\n        /* \"#utility.yul\":13213:14184   */\n      swap3\n      swap2\n      pop\n      pop\n      jump\t// out\n        /* \"#utility.yul\":14224:14924   */\n    tag_603:\n        /* \"#utility.yul\":14362:14415   */\n      tag_605\n        /* \"#utility.yul\":14409:14414   */\n      dup2\n        /* \"#utility.yul\":14362:14415   */\n      tag_606\n      jump\t// in\n    tag_605:\n        /* \"#utility.yul\":14431:14516   */\n      tag_607\n        /* \"#utility.yul\":14509:14515   */\n      dup2\n        /* \"#utility.yul\":14504:14507   */\n      dup5\n        /* \"#utility.yul\":14431:14516   */\n      tag_608\n      jump\t// in\n    tag_607:\n        /* \"#utility.yul\":14424:14516   */\n      swap3\n      pop\n        /* \"#utility.yul\":14540:14595   */\n      tag_609\n        /* \"#utility.yul\":14589:14594   */\n      dup3\n        /* \"#utility.yul\":14540:14595   */\n      tag_610\n      jump\t// in\n    tag_609:\n        /* \"#utility.yul\":14618:14625   */\n      dup1\n        /* \"#utility.yul\":14649:14650   */\n      0x00\n        /* \"#utility.yul\":14634:14917   */\n    tag_611:\n        /* \"#utility.yul\":14659:14665   */\n      dup4\n        /* \"#utility.yul\":14656:14657   */\n      dup2\n        /* \"#utility.yul\":14653:14666   */\n      lt\n        /* \"#utility.yul\":14634:14917   */\n      iszero\n      tag_613\n      jumpi\n        /* \"#utility.yul\":14735:14741   */\n      dup2\n        /* \"#utility.yul\":14729:14742   */\n      mload\n        /* \"#utility.yul\":14762:14825   */\n      tag_614\n        /* \"#utility.yul\":14821:14824   */\n      dup8\n        /* \"#utility.yul\":14806:14819   */\n      dup3\n        /* \"#utility.yul\":14762:14825   */\n      tag_578\n      jump\t// in\n    tag_614:\n        /* \"#utility.yul\":14755:14825   */\n      swap7\n      pop\n        /* \"#utility.yul\":14848:14907   */\n      tag_615\n        /* \"#utility.yul\":14900:14906   */\n      dup4\n        /* \"#utility.yul\":14848:14907   */\n      tag_616\n      jump\t// in\n    tag_615:\n        /* \"#utility.yul\":14838:14907   */\n      swap3\n      pop\n        /* \"#utility.yul\":14694:14917   */\n      pop\n        /* \"#utility.yul\":14681:14682   */\n      0x01\n        /* \"#utility.yul\":14678:14679   */\n      dup2\n        /* \"#utility.yul\":14674:14683   */\n      add\n        /* \"#utility.yul\":14669:14683   */\n      swap1\n      pop\n        /* \"#utility.yul\":14634:14917   */\n      jump(tag_611)\n    tag_613:\n        /* \"#utility.yul\":14638:14652   */\n      pop\n        /* \"#utility.yul\":14338:14924   */\n      pop\n      pop\n      pop\n        /* \"#utility.yul\":14224:14924   */\n      pop\n      pop\n      jump\t// out\n        /* \"#utility.yul\":14930:15039   */\n    tag_617:\n        /* \"#utility.yul\":15011:15032   */\n      tag_619\n        /* \"#utility.yul\":15026:15031   */\n      dup2\n        /* \"#utility.yul\":15011:15032   */\n      tag_620\n      jump\t// in\n    tag_619:\n        /* \"#utility.yul\":15006:15009   */\n      dup3\n        /* \"#utility.yul\":14999:15033   */\n      mstore\n        /* \"#utility.yul\":14930:15039   */\n      pop\n      pop\n      jump\t// out\n        /* \"#utility.yul\":15045:15150   */\n    tag_621:\n        /* \"#utility.yul\":15120:15143   */\n      tag_623\n        /* \"#utility.yul\":15137:15142   */\n      dup2\n        /* \"#utility.yul\":15120:15143   */\n      tag_624\n      jump\t// in\n    tag_623:\n        /* \"#utility.yul\":15115:15118   */\n      dup3\n        /* \"#utility.yul\":15108:15144   */\n      mstore\n        /* \"#utility.yul\":15045:15150   */\n      pop\n      pop\n      jump\t// out\n        /* \"#utility.yul\":15156:15500   */\n    tag_577:\n        /* \"#utility.yul\":15234:15237   */\n      0x00\n        /* \"#utility.yul\":15262:15301   */\n      tag_626\n        /* \"#utility.yul\":15295:15300   */\n      dup3\n        /* \"#utility.yul\":15262:15301   */\n      tag_627\n      jump\t// in\n    tag_626:\n        /* \"#utility.yul\":15317:15378   */\n      tag_628\n        /* \"#utility.yul\":15371:15377   */\n      dup2\n        /* \"#utility.yul\":15366:15369   */\n      dup6\n        /* \"#utility.yul\":15317:15378   */\n      tag_629\n      jump\t// in\n    tag_628:\n        /* \"#utility.yul\":15310:15378   */\n      swap4\n      pop\n        /* \"#utility.yul\":15387:15439   */\n      tag_630\n        /* \"#utility.yul\":15432:15438   */\n      dup2\n        /* \"#utility.yul\":15427:15430   */\n      dup6\n        /* \"#utility.yul\":15420:15424   */\n      0x20\n        /* \"#utility.yul\":15413:15418   */\n      dup7\n        /* \"#utility.yul\":15409:15425   */\n      add\n        /* \"#utility.yul\":15387:15439   */\n      tag_631\n      jump\t// in\n    tag_630:\n        /* \"#utility.yul\":15464:15493   */\n      tag_632\n        /* \"#utility.yul\":15486:15492   */\n      dup2\n        /* \"#utility.yul\":15464:15493   */\n      tag_633\n      jump\t// in\n    tag_632:\n        /* \"#utility.yul\":15459:15462   */\n      dup5\n        /* \"#utility.yul\":15455:15494   */\n      add\n        /* \"#utility.yul\":15448:15494   */\n      swap2\n      pop\n        /* \"#utility.yul\":15238:15500   */\n      pop\n        /* \"#utility.yul\":15156:15500   */\n      swap3\n      swap2\n      pop\n      pop\n      jump\t// out\n        /* \"#utility.yul\":15506:15870   */\n    tag_634:\n        /* \"#utility.yul\":15594:15597   */\n      0x00\n        /* \"#utility.yul\":15622:15661   */\n      tag_636\n        /* \"#utility.yul\":15655:15660   */\n      dup3\n        /* \"#utility.yul\":15622:15661   */\n      tag_627\n      jump\t// in\n    tag_636:\n        /* \"#utility.yul\":15677:15748   */\n      tag_637\n        /* \"#utility.yul\":15741:15747   */\n      dup2\n        /* \"#utility.yul\":15736:15739   */\n      dup6\n        /* \"#utility.yul\":15677:15748   */\n      tag_638\n      jump\t// in\n    tag_637:\n        /* \"#utility.yul\":15670:15748   */\n      swap4\n      pop\n        /* \"#utility.yul\":15757:15809   */\n      tag_639\n        /* \"#utility.yul\":15802:15808   */\n      dup2\n        /* \"#utility.yul\":15797:15800   */\n      dup6\n        /* \"#utility.yul\":15790:15794   */\n      0x20\n        /* \"#utility.yul\":15783:15788   */\n      dup7\n        /* \"#utility.yul\":15779:15795   */\n      add\n        /* \"#utility.yul\":15757:15809   */\n      tag_631\n      jump\t// in\n    tag_639:\n        /* \"#utility.yul\":15834:15863   */\n      tag_640\n        /* \"#utility.yul\":15856:15862   */\n      dup2\n        /* \"#utility.yul\":15834:15863   */\n      tag_633\n      jump\t// in\n    tag_640:\n        /* \"#utility.yul\":15829:15832   */\n      dup5\n        /* \"#utility.yul\":15825:15864   */\n      add\n        /* \"#utility.yul\":15818:15864   */\n      swap2\n      pop\n        /* \"#utility.yul\":15598:15870   */\n      pop\n        /* \"#utility.yul\":15506:15870   */\n      swap3\n      swap2\n      pop\n      pop\n      jump\t// out\n        /* \"#utility.yul\":15938:18253   */\n    tag_641:\n        /* \"#utility.yul\":16051:16054   */\n      0x00\n        /* \"#utility.yul\":16087:16093   */\n      0x0100\n        /* \"#utility.yul\":16082:16085   */\n      dup4\n        /* \"#utility.yul\":16078:16094   */\n      add\n        /* \"#utility.yul\":16181:16185   */\n      0x00\n        /* \"#utility.yul\":16174:16179   */\n      dup4\n        /* \"#utility.yul\":16170:16186   */\n      add\n        /* \"#utility.yul\":16164:16187   */\n      mload\n        /* \"#utility.yul\":16234:16237   */\n      dup5\n        /* \"#utility.yul\":16228:16232   */\n      dup3\n        /* \"#utility.yul\":16224:16238   */\n      sub\n        /* \"#utility.yul\":16217:16221   */\n      0x00\n        /* \"#utility.yul\":16212:16215   */\n      dup7\n        /* \"#utility.yul\":16208:16222   */\n      add\n        /* \"#utility.yul\":16201:16239   */\n      mstore\n        /* \"#utility.yul\":16260:16333   */\n      tag_643\n        /* \"#utility.yul\":16328:16332   */\n      dup3\n        /* \"#utility.yul\":16314:16326   */\n      dup3\n        /* \"#utility.yul\":16260:16333   */\n      tag_577\n      jump\t// in\n    tag_643:\n        /* \"#utility.yul\":16252:16333   */\n      swap2\n      pop\n        /* \"#utility.yul\":16104:16344   */\n      pop\n        /* \"#utility.yul\":16432:16436   */\n      0x20\n        /* \"#utility.yul\":16425:16430   */\n      dup4\n        /* \"#utility.yul\":16421:16437   */\n      add\n        /* \"#utility.yul\":16415:16438   */\n      mload\n        /* \"#utility.yul\":16485:16488   */\n      dup5\n        /* \"#utility.yul\":16479:16483   */\n      dup3\n        /* \"#utility.yul\":16475:16489   */\n      sub\n        /* \"#utility.yul\":16468:16472   */\n      0x20\n        /* \"#utility.yul\":16463:16466   */\n      dup7\n        /* \"#utility.yul\":16459:16473   */\n      add\n        /* \"#utility.yul\":16452:16490   */\n      mstore\n        /* \"#utility.yul\":16511:16584   */\n      tag_644\n        /* \"#utility.yul\":16579:16583   */\n      dup3\n        /* \"#utility.yul\":16565:16577   */\n      dup3\n        /* \"#utility.yul\":16511:16584   */\n      tag_577\n      jump\t// in\n    tag_644:\n        /* \"#utility.yul\":16503:16584   */\n      swap2\n      pop\n        /* \"#utility.yul\":16354:16595   */\n      pop\n        /* \"#utility.yul\":16685:16689   */\n      0x40\n        /* \"#utility.yul\":16678:16683   */\n      dup4\n        /* \"#utility.yul\":16674:16690   */\n      add\n        /* \"#utility.yul\":16668:16691   */\n      mload\n        /* \"#utility.yul\":16704:16765   */\n      tag_645\n        /* \"#utility.yul\":16759:16763   */\n      0x40\n        /* \"#utility.yul\":16754:16757   */\n      dup7\n        /* \"#utility.yul\":16750:16764   */\n      add\n        /* \"#utility.yul\":16736:16748   */\n      dup3\n        /* \"#utility.yul\":16704:16765   */\n      tag_621\n      jump\t// in\n    tag_645:\n        /* \"#utility.yul\":16605:16775   */\n      pop\n        /* \"#utility.yul\":16864:16868   */\n      0x60\n        /* \"#utility.yul\":16857:16862   */\n      dup4\n        /* \"#utility.yul\":16853:16869   */\n      add\n        /* \"#utility.yul\":16847:16870   */\n      mload\n        /* \"#utility.yul\":16917:16920   */\n      dup5\n        /* \"#utility.yul\":16911:16915   */\n      dup3\n        /* \"#utility.yul\":16907:16921   */\n      sub\n        /* \"#utility.yul\":16900:16904   */\n      0x60\n        /* \"#utility.yul\":16895:16898   */\n      dup7\n        /* \"#utility.yul\":16891:16905   */\n      add\n        /* \"#utility.yul\":16884:16922   */\n      mstore\n        /* \"#utility.yul\":16943:17066   */\n      tag_646\n        /* \"#utility.yul\":17061:17065   */\n      dup3\n        /* \"#utility.yul\":17047:17059   */\n      dup3\n        /* \"#utility.yul\":16943:17066   */\n      tag_589\n      jump\t// in\n    tag_646:\n        /* \"#utility.yul\":16935:17066   */\n      swap2\n      pop\n        /* \"#utility.yul\":16785:17077   */\n      pop\n        /* \"#utility.yul\":17163:17167   */\n      0x80\n        /* \"#utility.yul\":17156:17161   */\n      dup4\n        /* \"#utility.yul\":17152:17168   */\n      add\n        /* \"#utility.yul\":17146:17169   */\n      mload\n        /* \"#utility.yul\":17216:17219   */\n      dup5\n        /* \"#utility.yul\":17210:17214   */\n      dup3\n        /* \"#utility.yul\":17206:17220   */\n      sub\n        /* \"#utility.yul\":17199:17203   */\n      0x80\n        /* \"#utility.yul\":17194:17197   */\n      dup7\n        /* \"#utility.yul\":17190:17204   */\n      add\n        /* \"#utility.yul\":17183:17221   */\n      mstore\n        /* \"#utility.yul\":17242:17365   */\n      tag_647\n        /* \"#utility.yul\":17360:17364   */\n      dup3\n        /* \"#utility.yul\":17346:17358   */\n      dup3\n        /* \"#utility.yul\":17242:17365   */\n      tag_589\n      jump\t// in\n    tag_647:\n        /* \"#utility.yul\":17234:17365   */\n      swap2\n      pop\n        /* \"#utility.yul\":17087:17376   */\n      pop\n        /* \"#utility.yul\":17462:17466   */\n      0xa0\n        /* \"#utility.yul\":17455:17460   */\n      dup4\n        /* \"#utility.yul\":17451:17467   */\n      add\n        /* \"#utility.yul\":17445:17468   */\n      mload\n        /* \"#utility.yul\":17515:17518   */\n      dup5\n        /* \"#utility.yul\":17509:17513   */\n      dup3\n        /* \"#utility.yul\":17505:17519   */\n      sub\n        /* \"#utility.yul\":17498:17502   */\n      0xa0\n        /* \"#utility.yul\":17493:17496   */\n      dup7\n        /* \"#utility.yul\":17489:17503   */\n      add\n        /* \"#utility.yul\":17482:17520   */\n      mstore\n        /* \"#utility.yul\":17541:17664   */\n      tag_648\n        /* \"#utility.yul\":17659:17663   */\n      dup3\n        /* \"#utility.yul\":17645:17657   */\n      dup3\n        /* \"#utility.yul\":17541:17664   */\n      tag_589\n      jump\t// in\n    tag_648:\n        /* \"#utility.yul\":17533:17664   */\n      swap2\n      pop\n        /* \"#utility.yul\":17386:17675   */\n      pop\n        /* \"#utility.yul\":17761:17765   */\n      0xc0\n        /* \"#utility.yul\":17754:17759   */\n      dup4\n        /* \"#utility.yul\":17750:17766   */\n      add\n        /* \"#utility.yul\":17744:17767   */\n      mload\n        /* \"#utility.yul\":17814:17817   */\n      dup5\n        /* \"#utility.yul\":17808:17812   */\n      dup3\n        /* \"#utility.yul\":17804:17818   */\n      sub\n        /* \"#utility.yul\":17797:17801   */\n      0xc0\n        /* \"#utility.yul\":17792:17795   */\n      dup7\n        /* \"#utility.yul\":17788:17802   */\n      add\n        /* \"#utility.yul\":17781:17819   */\n      mstore\n        /* \"#utility.yul\":17840:17913   */\n      tag_649\n        /* \"#utility.yul\":17908:17912   */\n      dup3\n        /* \"#utility.yul\":17894:17906   */\n      dup3\n        /* \"#utility.yul\":17840:17913   */\n      tag_577\n      jump\t// in\n    tag_649:\n        /* \"#utility.yul\":17832:17913   */\n      swap2\n      pop\n        /* \"#utility.yul\":17685:17924   */\n      pop\n        /* \"#utility.yul\":18013:18017   */\n      0xe0\n        /* \"#utility.yul\":18006:18011   */\n      dup4\n        /* \"#utility.yul\":18002:18018   */\n      add\n        /* \"#utility.yul\":17996:18019   */\n      mload\n        /* \"#utility.yul\":18066:18069   */\n      dup5\n        /* \"#utility.yul\":18060:18064   */\n      dup3\n        /* \"#utility.yul\":18056:18070   */\n      sub\n        /* \"#utility.yul\":18049:18053   */\n      0xe0\n        /* \"#utility.yul\":18044:18047   */\n      dup7\n        /* \"#utility.yul\":18040:18054   */\n      add\n        /* \"#utility.yul\":18033:18071   */\n      mstore\n        /* \"#utility.yul\":18092:18215   */\n      tag_650\n        /* \"#utility.yul\":18210:18214   */\n      dup3\n        /* \"#utility.yul\":18196:18208   */\n      dup3\n        /* \"#utility.yul\":18092:18215   */\n      tag_589\n      jump\t// in\n    tag_650:\n        /* \"#utility.yul\":18084:18215   */\n      swap2\n      pop\n        /* \"#utility.yul\":17934:18226   */\n      pop\n        /* \"#utility.yul\":18243:18247   */\n      dup1\n        /* \"#utility.yul\":18236:18247   */\n      swap2\n      pop\n        /* \"#utility.yul\":16056:18253   */\n      pop\n        /* \"#utility.yul\":15938:18253   */\n      swap3\n      swap2\n      pop\n      pop\n      jump\t// out\n        /* \"#utility.yul\":18321:20646   */\n    tag_651:\n        /* \"#utility.yul\":18444:18447   */\n      0x00\n        /* \"#utility.yul\":18480:18486   */\n      0x0100\n        /* \"#utility.yul\":18475:18478   */\n      dup4\n        /* \"#utility.yul\":18471:18487   */\n      add\n        /* \"#utility.yul\":18574:18578   */\n      0x00\n        /* \"#utility.yul\":18567:18572   */\n      dup4\n        /* \"#utility.yul\":18563:18579   */\n      add\n        /* \"#utility.yul\":18557:18580   */\n      mload\n        /* \"#utility.yul\":18627:18630   */\n      dup5\n        /* \"#utility.yul\":18621:18625   */\n      dup3\n        /* \"#utility.yul\":18617:18631   */\n      sub\n        /* \"#utility.yul\":18610:18614   */\n      0x00\n        /* \"#utility.yul\":18605:18608   */\n      dup7\n        /* \"#utility.yul\":18601:18615   */\n      add\n        /* \"#utility.yul\":18594:18632   */\n      mstore\n        /* \"#utility.yul\":18653:18726   */\n      tag_653\n        /* \"#utility.yul\":18721:18725   */\n      dup3\n        /* \"#utility.yul\":18707:18719   */\n      dup3\n        /* \"#utility.yul\":18653:18726   */\n      tag_577\n      jump\t// in\n    tag_653:\n        /* \"#utility.yul\":18645:18726   */\n      swap2\n      pop\n        /* \"#utility.yul\":18497:18737   */\n      pop\n        /* \"#utility.yul\":18825:18829   */\n      0x20\n        /* \"#utility.yul\":18818:18823   */\n      dup4\n        /* \"#utility.yul\":18814:18830   */\n      add\n        /* \"#utility.yul\":18808:18831   */\n      mload\n        /* \"#utility.yul\":18878:18881   */\n      dup5\n        /* \"#utility.yul\":18872:18876   */\n      dup3\n        /* \"#utility.yul\":18868:18882   */\n      sub\n        /* \"#utility.yul\":18861:18865   */\n      0x20\n        /* \"#utility.yul\":18856:18859   */\n      dup7\n        /* \"#utility.yul\":18852:18866   */\n      add\n        /* \"#utility.yul\":18845:18883   */\n      mstore\n        /* \"#utility.yul\":18904:18977   */\n      tag_654\n        /* \"#utility.yul\":18972:18976   */\n      dup3\n        /* \"#utility.yul\":18958:18970   */\n      dup3\n        /* \"#utility.yul\":18904:18977   */\n      tag_577\n      jump\t// in\n    tag_654:\n        /* \"#utility.yul\":18896:18977   */\n      swap2\n      pop\n        /* \"#utility.yul\":18747:18988   */\n      pop\n        /* \"#utility.yul\":19078:19082   */\n      0x40\n        /* \"#utility.yul\":19071:19076   */\n      dup4\n        /* \"#utility.yul\":19067:19083   */\n      add\n        /* \"#utility.yul\":19061:19084   */\n      mload\n        /* \"#utility.yul\":19097:19158   */\n      tag_655\n        /* \"#utility.yul\":19152:19156   */\n      0x40\n        /* \"#utility.yul\":19147:19150   */\n      dup7\n        /* \"#utility.yul\":19143:19157   */\n      add\n        /* \"#utility.yul\":19129:19141   */\n      dup3\n        /* \"#utility.yul\":19097:19158   */\n      tag_621\n      jump\t// in\n    tag_655:\n        /* \"#utility.yul\":18998:19168   */\n      pop\n        /* \"#utility.yul\":19257:19261   */\n      0x60\n        /* \"#utility.yul\":19250:19255   */\n      dup4\n        /* \"#utility.yul\":19246:19262   */\n      add\n        /* \"#utility.yul\":19240:19263   */\n      mload\n        /* \"#utility.yul\":19310:19313   */\n      dup5\n        /* \"#utility.yul\":19304:19308   */\n      dup3\n        /* \"#utility.yul\":19300:19314   */\n      sub\n        /* \"#utility.yul\":19293:19297   */\n      0x60\n        /* \"#utility.yul\":19288:19291   */\n      dup7\n        /* \"#utility.yul\":19284:19298   */\n      add\n        /* \"#utility.yul\":19277:19315   */\n      mstore\n        /* \"#utility.yul\":19336:19459   */\n      tag_656\n        /* \"#utility.yul\":19454:19458   */\n      dup3\n        /* \"#utility.yul\":19440:19452   */\n      dup3\n        /* \"#utility.yul\":19336:19459   */\n      tag_589\n      jump\t// in\n    tag_656:\n        /* \"#utility.yul\":19328:19459   */\n      swap2\n      pop\n        /* \"#utility.yul\":19178:19470   */\n      pop\n        /* \"#utility.yul\":19556:19560   */\n      0x80\n        /* \"#utility.yul\":19549:19554   */\n      dup4\n        /* \"#utility.yul\":19545:19561   */\n      add\n        /* \"#utility.yul\":19539:19562   */\n      mload\n        /* \"#utility.yul\":19609:19612   */\n      dup5\n        /* \"#utility.yul\":19603:19607   */\n      dup3\n        /* \"#utility.yul\":19599:19613   */\n      sub\n        /* \"#utility.yul\":19592:19596   */\n      0x80\n        /* \"#utility.yul\":19587:19590   */\n      dup7\n        /* \"#utility.yul\":19583:19597   */\n      add\n        /* \"#utility.yul\":19576:19614   */\n      mstore\n        /* \"#utility.yul\":19635:19758   */\n      tag_657\n        /* \"#utility.yul\":19753:19757   */\n      dup3\n        /* \"#utility.yul\":19739:19751   */\n      dup3\n        /* \"#utility.yul\":19635:19758   */\n      tag_589\n      jump\t// in\n    tag_657:\n        /* \"#utility.yul\":19627:19758   */\n      swap2\n      pop\n        /* \"#utility.yul\":19480:19769   */\n      pop\n        /* \"#utility.yul\":19855:19859   */\n      0xa0\n        /* \"#utility.yul\":19848:19853   */\n      dup4\n        /* \"#utility.yul\":19844:19860   */\n      add\n        /* \"#utility.yul\":19838:19861   */\n      mload\n        /* \"#utility.yul\":19908:19911   */\n      dup5\n        /* \"#utility.yul\":19902:19906   */\n      dup3\n        /* \"#utility.yul\":19898:19912   */\n      sub\n        /* \"#utility.yul\":19891:19895   */\n      0xa0\n        /* \"#utility.yul\":19886:19889   */\n      dup7\n        /* \"#utility.yul\":19882:19896   */\n      add\n        /* \"#utility.yul\":19875:19913   */\n      mstore\n        /* \"#utility.yul\":19934:20057   */\n      tag_658\n        /* \"#utility.yul\":20052:20056   */\n      dup3\n        /* \"#utility.yul\":20038:20050   */\n      dup3\n        /* \"#utility.yul\":19934:20057   */\n      tag_589\n      jump\t// in\n    tag_658:\n        /* \"#utility.yul\":19926:20057   */\n      swap2\n      pop\n        /* \"#utility.yul\":19779:20068   */\n      pop\n        /* \"#utility.yul\":20154:20158   */\n      0xc0\n        /* \"#utility.yul\":20147:20152   */\n      dup4\n        /* \"#utility.yul\":20143:20159   */\n      add\n        /* \"#utility.yul\":20137:20160   */\n      mload\n        /* \"#utility.yul\":20207:20210   */\n      dup5\n        /* \"#utility.yul\":20201:20205   */\n      dup3\n        /* \"#utility.yul\":20197:20211   */\n      sub\n        /* \"#utility.yul\":20190:20194   */\n      0xc0\n        /* \"#utility.yul\":20185:20188   */\n      dup7\n        /* \"#utility.yul\":20181:20195   */\n      add\n        /* \"#utility.yul\":20174:20212   */\n      mstore\n        /* \"#utility.yul\":20233:20306   */\n      tag_659\n        /* \"#utility.yul\":20301:20305   */\n      dup3\n        /* \"#utility.yul\":20287:20299   */\n      dup3\n        /* \"#utility.yul\":20233:20306   */\n      tag_577\n      jump\t// in\n    tag_659:\n        /* \"#utility.yul\":20225:20306   */\n      swap2\n      pop\n        /* \"#utility.yul\":20078:20317   */\n      pop\n        /* \"#utility.yul\":20406:20410   */\n      0xe0\n        /* \"#utility.yul\":20399:20404   */\n      dup4\n        /* \"#utility.yul\":20395:20411   */\n      add\n        /* \"#utility.yul\":20389:20412   */\n      mload\n        /* \"#utility.yul\":20459:20462   */\n      dup5\n        /* \"#utility.yul\":20453:20457   */\n      dup3\n        /* \"#utility.yul\":20449:20463   */\n      sub\n        /* \"#utility.yul\":20442:20446   */\n      0xe0\n        /* \"#utility.yul\":20437:20440   */\n      dup7\n        /* \"#utility.yul\":20433:20447   */\n      add\n        /* \"#utility.yul\":20426:20464   */\n      mstore\n        /* \"#utility.yul\":20485:20608   */\n      tag_660\n        /* \"#utility.yul\":20603:20607   */\n      dup3\n        /* \"#utility.yul\":20589:20601   */\n      dup3\n        /* \"#utility.yul\":20485:20608   */\n      tag_589\n      jump\t// in\n    tag_660:\n        /* \"#utility.yul\":20477:20608   */\n      swap2\n      pop\n        /* \"#utility.yul\":20327:20619   */\n      pop\n        /* \"#utility.yul\":20636:20640   */\n      dup1\n        /* \"#utility.yul\":20629:20640   */\n      swap2\n      pop\n        /* \"#utility.yul\":18449:20646   */\n      pop\n        /* \"#utility.yul\":18321:20646   */\n      swap3\n      swap2\n      pop\n      pop\n      jump\t// out\n        /* \"#utility.yul\":20706:22136   */\n    tag_661:\n        /* \"#utility.yul\":20821:20824   */\n      0x00\n        /* \"#utility.yul\":20857:20861   */\n      0xc0\n        /* \"#utility.yul\":20852:20855   */\n      dup4\n        /* \"#utility.yul\":20848:20862   */\n      add\n        /* \"#utility.yul\":20947:20951   */\n      0x00\n        /* \"#utility.yul\":20940:20945   */\n      dup4\n        /* \"#utility.yul\":20936:20952   */\n      add\n        /* \"#utility.yul\":20930:20953   */\n      mload\n        /* \"#utility.yul\":20966:21029   */\n      tag_663\n        /* \"#utility.yul\":21023:21027   */\n      0x00\n        /* \"#utility.yul\":21018:21021   */\n      dup7\n        /* \"#utility.yul\":21014:21028   */\n      add\n        /* \"#utility.yul\":21000:21012   */\n      dup3\n        /* \"#utility.yul\":20966:21029   */\n      tag_581\n      jump\t// in\n    tag_663:\n        /* \"#utility.yul\":20872:21039   */\n      pop\n        /* \"#utility.yul\":21125:21129   */\n      0x20\n        /* \"#utility.yul\":21118:21123   */\n      dup4\n        /* \"#utility.yul\":21114:21130   */\n      add\n        /* \"#utility.yul\":21108:21131   */\n      mload\n        /* \"#utility.yul\":21144:21207   */\n      tag_664\n        /* \"#utility.yul\":21201:21205   */\n      0x20\n        /* \"#utility.yul\":21196:21199   */\n      dup7\n        /* \"#utility.yul\":21192:21206   */\n      add\n        /* \"#utility.yul\":21178:21190   */\n      dup3\n        /* \"#utility.yul\":21144:21207   */\n      tag_582\n      jump\t// in\n    tag_664:\n        /* \"#utility.yul\":21049:21217   */\n      pop\n        /* \"#utility.yul\":21304:21308   */\n      0x40\n        /* \"#utility.yul\":21297:21302   */\n      dup4\n        /* \"#utility.yul\":21293:21309   */\n      add\n        /* \"#utility.yul\":21287:21310   */\n      mload\n        /* \"#utility.yul\":21357:21360   */\n      dup5\n        /* \"#utility.yul\":21351:21355   */\n      dup3\n        /* \"#utility.yul\":21347:21361   */\n      sub\n        /* \"#utility.yul\":21340:21344   */\n      0x40\n        /* \"#utility.yul\":21335:21338   */\n      dup7\n        /* \"#utility.yul\":21331:21345   */\n      add\n        /* \"#utility.yul\":21324:21362   */\n      mstore\n        /* \"#utility.yul\":21383:21456   */\n      tag_665\n        /* \"#utility.yul\":21451:21455   */\n      dup3\n        /* \"#utility.yul\":21437:21449   */\n      dup3\n        /* \"#utility.yul\":21383:21456   */\n      tag_577\n      jump\t// in\n    tag_665:\n        /* \"#utility.yul\":21375:21456   */\n      swap2\n      pop\n        /* \"#utility.yul\":21227:21467   */\n      pop\n        /* \"#utility.yul\":21550:21554   */\n      0x60\n        /* \"#utility.yul\":21543:21548   */\n      dup4\n        /* \"#utility.yul\":21539:21555   */\n      add\n        /* \"#utility.yul\":21533:21556   */\n      mload\n        /* \"#utility.yul\":21569:21632   */\n      tag_666\n        /* \"#utility.yul\":21626:21630   */\n      0x60\n        /* \"#utility.yul\":21621:21624   */\n      dup7\n        /* \"#utility.yul\":21617:21631   */\n      add\n        /* \"#utility.yul\":21603:21615   */\n      dup3\n        /* \"#utility.yul\":21569:21632   */\n      tag_581\n      jump\t// in\n    tag_666:\n        /* \"#utility.yul\":21477:21642   */\n      pop\n        /* \"#utility.yul\":21733:21737   */\n      0x80\n        /* \"#utility.yul\":21726:21731   */\n      dup4\n        /* \"#utility.yul\":21722:21738   */\n      add\n        /* \"#utility.yul\":21716:21739   */\n      mload\n        /* \"#utility.yul\":21752:21815   */\n      tag_667\n        /* \"#utility.yul\":21809:21813   */\n      0x80\n        /* \"#utility.yul\":21804:21807   */\n      dup7\n        /* \"#utility.yul\":21800:21814   */\n      add\n        /* \"#utility.yul\":21786:21798   */\n      dup3\n        /* \"#utility.yul\":21752:21815   */\n      tag_581\n      jump\t// in\n    tag_667:\n        /* \"#utility.yul\":21652:21825   */\n      pop\n        /* \"#utility.yul\":21912:21916   */\n      0xa0\n        /* \"#utility.yul\":21905:21910   */\n      dup4\n        /* \"#utility.yul\":21901:21917   */\n      add\n        /* \"#utility.yul\":21895:21918   */\n      mload\n        /* \"#utility.yul\":21965:21968   */\n      dup5\n        /* \"#utility.yul\":21959:21963   */\n      dup3\n        /* \"#utility.yul\":21955:21969   */\n      sub\n        /* \"#utility.yul\":21948:21952   */\n      0xa0\n        /* \"#utility.yul\":21943:21946   */\n      dup7\n        /* \"#utility.yul\":21939:21953   */\n      add\n        /* \"#utility.yul\":21932:21970   */\n      mstore\n        /* \"#utility.yul\":21991:22098   */\n      tag_668\n        /* \"#utility.yul\":22093:22097   */\n      dup3\n        /* \"#utility.yul\":22079:22091   */\n      dup3\n        /* \"#utility.yul\":21991:22098   */\n      tag_641\n      jump\t// in\n    tag_668:\n        /* \"#utility.yul\":21983:22098   */\n      swap2\n      pop\n        /* \"#utility.yul\":21835:22109   */\n      pop\n        /* \"#utility.yul\":22126:22130   */\n      dup1\n        /* \"#utility.yul\":22119:22130   */\n      swap2\n      pop\n        /* \"#utility.yul\":20826:22136   */\n      pop\n        /* \"#utility.yul\":20706:22136   */\n      swap3\n      swap2\n      pop\n      pop\n      jump\t// out\n        /* \"#utility.yul\":22142:22250   */\n    tag_581:\n        /* \"#utility.yul\":22219:22243   */\n      tag_670\n        /* \"#utility.yul\":22237:22242   */\n      dup2\n        /* \"#utility.yul\":22219:22243   */\n      tag_671\n      jump\t// in\n    tag_670:\n        /* \"#utility.yul\":22214:22217   */\n      dup3\n        /* \"#utility.yul\":22207:22244   */\n      mstore\n        /* \"#utility.yul\":22142:22250   */\n      pop\n      pop\n      jump\t// out\n        /* \"#utility.yul\":22256:22374   */\n    tag_672:\n        /* \"#utility.yul\":22343:22367   */\n      tag_674\n        /* \"#utility.yul\":22361:22366   */\n      dup2\n        /* \"#utility.yul\":22343:22367   */\n      tag_671\n      jump\t// in\n    tag_674:\n        /* \"#utility.yul\":22338:22341   */\n      dup3\n        /* \"#utility.yul\":22331:22368   */\n      mstore\n        /* \"#utility.yul\":22256:22374   */\n      pop\n      pop\n      jump\t// out\n        /* \"#utility.yul\":22380:23155   */\n    tag_194:\n        /* \"#utility.yul\":22613:22617   */\n      0x00\n        /* \"#utility.yul\":22651:22654   */\n      0xc0\n        /* \"#utility.yul\":22640:22649   */\n      dup3\n        /* \"#utility.yul\":22636:22655   */\n      add\n        /* \"#utility.yul\":22628:22655   */\n      swap1\n      pop\n        /* \"#utility.yul\":22665:22736   */\n      tag_676\n        /* \"#utility.yul\":22733:22734   */\n      0x00\n        /* \"#utility.yul\":22722:22731   */\n      dup4\n        /* \"#utility.yul\":22718:22735   */\n      add\n        /* \"#utility.yul\":22709:22715   */\n      dup10\n        /* \"#utility.yul\":22665:22736   */\n      tag_586\n      jump\t// in\n    tag_676:\n        /* \"#utility.yul\":22746:22818   */\n      tag_677\n        /* \"#utility.yul\":22814:22816   */\n      0x20\n        /* \"#utility.yul\":22803:22812   */\n      dup4\n        /* \"#utility.yul\":22799:22817   */\n      add\n        /* \"#utility.yul\":22790:22796   */\n      dup9\n        /* \"#utility.yul\":22746:22818   */\n      tag_586\n      jump\t// in\n    tag_677:\n        /* \"#utility.yul\":22828:22900   */\n      tag_678\n        /* \"#utility.yul\":22896:22898   */\n      0x40\n        /* \"#utility.yul\":22885:22894   */\n      dup4\n        /* \"#utility.yul\":22881:22899   */\n      add\n        /* \"#utility.yul\":22872:22878   */\n      dup8\n        /* \"#utility.yul\":22828:22900   */\n      tag_672\n      jump\t// in\n    tag_678:\n        /* \"#utility.yul\":22910:22982   */\n      tag_679\n        /* \"#utility.yul\":22978:22980   */\n      0x60\n        /* \"#utility.yul\":22967:22976   */\n      dup4\n        /* \"#utility.yul\":22963:22981   */\n      add\n        /* \"#utility.yul\":22954:22960   */\n      dup7\n        /* \"#utility.yul\":22910:22982   */\n      tag_672\n      jump\t// in\n    tag_679:\n        /* \"#utility.yul\":22992:23065   */\n      tag_680\n        /* \"#utility.yul\":23060:23063   */\n      0x80\n        /* \"#utility.yul\":23049:23058   */\n      dup4\n        /* \"#utility.yul\":23045:23064   */\n      add\n        /* \"#utility.yul\":23036:23042   */\n      dup6\n        /* \"#utility.yul\":22992:23065   */\n      tag_672\n      jump\t// in\n    tag_680:\n        /* \"#utility.yul\":23075:23148   */\n      tag_681\n        /* \"#utility.yul\":23143:23146   */\n      0xa0\n        /* \"#utility.yul\":23132:23141   */\n      dup4\n        /* \"#utility.yul\":23128:23147   */\n      add\n        /* \"#utility.yul\":23119:23125   */\n      dup5\n        /* \"#utility.yul\":23075:23148   */\n      tag_672\n      jump\t// in\n    tag_681:\n        /* \"#utility.yul\":22380:23155   */\n      swap8\n      swap7\n      pop\n      pop\n      pop\n      pop\n      pop\n      pop\n      pop\n      jump\t// out\n        /* \"#utility.yul\":23161:24709   */\n    tag_217:\n        /* \"#utility.yul\":23598:23602   */\n      0x00\n        /* \"#utility.yul\":23636:23639   */\n      0x0260\n        /* \"#utility.yul\":23625:23634   */\n      dup3\n        /* \"#utility.yul\":23621:23640   */\n      add\n        /* \"#utility.yul\":23613:23640   */\n      swap1\n      pop\n        /* \"#utility.yul\":23650:23721   */\n      tag_683\n        /* \"#utility.yul\":23718:23719   */\n      0x00\n        /* \"#utility.yul\":23707:23716   */\n      dup4\n        /* \"#utility.yul\":23703:23720   */\n      add\n        /* \"#utility.yul\":23694:23700   */\n      dup12\n        /* \"#utility.yul\":23650:23721   */\n      tag_586\n      jump\t// in\n    tag_683:\n        /* \"#utility.yul\":23768:23777   */\n      dup2\n        /* \"#utility.yul\":23762:23766   */\n      dup2\n        /* \"#utility.yul\":23758:23778   */\n      sub\n        /* \"#utility.yul\":23753:23755   */\n      0x20\n        /* \"#utility.yul\":23742:23751   */\n      dup4\n        /* \"#utility.yul\":23738:23756   */\n      add\n        /* \"#utility.yul\":23731:23779   */\n      mstore\n        /* \"#utility.yul\":23796:23874   */\n      tag_684\n        /* \"#utility.yul\":23869:23873   */\n      dup2\n        /* \"#utility.yul\":23860:23866   */\n      dup11\n        /* \"#utility.yul\":23796:23874   */\n      tag_634\n      jump\t// in\n    tag_684:\n        /* \"#utility.yul\":23788:23874   */\n      swap1\n      pop\n        /* \"#utility.yul\":23921:23930   */\n      dup2\n        /* \"#utility.yul\":23915:23919   */\n      dup2\n        /* \"#utility.yul\":23911:23931   */\n      sub\n        /* \"#utility.yul\":23906:23908   */\n      0x40\n        /* \"#utility.yul\":23895:23904   */\n      dup4\n        /* \"#utility.yul\":23891:23909   */\n      add\n        /* \"#utility.yul\":23884:23932   */\n      mstore\n        /* \"#utility.yul\":23949:24027   */\n      tag_685\n        /* \"#utility.yul\":24022:24026   */\n      dup2\n        /* \"#utility.yul\":24013:24019   */\n      dup10\n        /* \"#utility.yul\":23949:24027   */\n      tag_634\n      jump\t// in\n    tag_685:\n        /* \"#utility.yul\":23941:24027   */\n      swap1\n      pop\n        /* \"#utility.yul\":24074:24083   */\n      dup2\n        /* \"#utility.yul\":24068:24072   */\n      dup2\n        /* \"#utility.yul\":24064:24084   */\n      sub\n        /* \"#utility.yul\":24059:24061   */\n      0x60\n        /* \"#utility.yul\":24048:24057   */\n      dup4\n        /* \"#utility.yul\":24044:24062   */\n      add\n        /* \"#utility.yul\":24037:24085   */\n      mstore\n        /* \"#utility.yul\":24102:24180   */\n      tag_686\n        /* \"#utility.yul\":24175:24179   */\n      dup2\n        /* \"#utility.yul\":24166:24172   */\n      dup9\n        /* \"#utility.yul\":24102:24180   */\n      tag_634\n      jump\t// in\n    tag_686:\n        /* \"#utility.yul\":24094:24180   */\n      swap1\n      pop\n        /* \"#utility.yul\":24228:24237   */\n      dup2\n        /* \"#utility.yul\":24222:24226   */\n      dup2\n        /* \"#utility.yul\":24218:24238   */\n      sub\n        /* \"#utility.yul\":24212:24215   */\n      0x80\n        /* \"#utility.yul\":24201:24210   */\n      dup4\n        /* \"#utility.yul\":24197:24216   */\n      add\n        /* \"#utility.yul\":24190:24239   */\n      mstore\n        /* \"#utility.yul\":24256:24334   */\n      tag_687\n        /* \"#utility.yul\":24329:24333   */\n      dup2\n        /* \"#utility.yul\":24320:24326   */\n      dup8\n        /* \"#utility.yul\":24256:24334   */\n      tag_634\n      jump\t// in\n    tag_687:\n        /* \"#utility.yul\":24248:24334   */\n      swap1\n      pop\n        /* \"#utility.yul\":24344:24417   */\n      tag_688\n        /* \"#utility.yul\":24412:24415   */\n      0xa0\n        /* \"#utility.yul\":24401:24410   */\n      dup4\n        /* \"#utility.yul\":24397:24416   */\n      add\n        /* \"#utility.yul\":24388:24394   */\n      dup7\n        /* \"#utility.yul\":24344:24417   */\n      tag_672\n      jump\t// in\n    tag_688:\n        /* \"#utility.yul\":24427:24548   */\n      tag_689\n        /* \"#utility.yul\":24543:24546   */\n      0xc0\n        /* \"#utility.yul\":24532:24541   */\n      dup4\n        /* \"#utility.yul\":24528:24547   */\n      add\n        /* \"#utility.yul\":24519:24525   */\n      dup6\n        /* \"#utility.yul\":24427:24548   */\n      tag_603\n      jump\t// in\n    tag_689:\n        /* \"#utility.yul\":24596:24605   */\n      dup2\n        /* \"#utility.yul\":24590:24594   */\n      dup2\n        /* \"#utility.yul\":24586:24606   */\n      sub\n        /* \"#utility.yul\":24580:24583   */\n      0x0240\n        /* \"#utility.yul\":24569:24578   */\n      dup4\n        /* \"#utility.yul\":24565:24584   */\n      add\n        /* \"#utility.yul\":24558:24607   */\n      mstore\n        /* \"#utility.yul\":24624:24702   */\n      tag_690\n        /* \"#utility.yul\":24697:24701   */\n      dup2\n        /* \"#utility.yul\":24688:24694   */\n      dup5\n        /* \"#utility.yul\":24624:24702   */\n      tag_634\n      jump\t// in\n    tag_690:\n        /* \"#utility.yul\":24616:24702   */\n      swap1\n      pop\n        /* \"#utility.yul\":23161:24709   */\n      swap10\n      swap9\n      pop\n      pop\n      pop\n      pop\n      pop\n      pop\n      pop\n      pop\n      pop\n      jump\t// out\n        /* \"#utility.yul\":24715:26056   */\n    tag_53:\n        /* \"#utility.yul\":25076:25080   */\n      0x00\n        /* \"#utility.yul\":25114:25117   */\n      0xe0\n        /* \"#utility.yul\":25103:25112   */\n      dup3\n        /* \"#utility.yul\":25099:25118   */\n      add\n        /* \"#utility.yul\":25091:25118   */\n      swap1\n      pop\n        /* \"#utility.yul\":25128:25199   */\n      tag_692\n        /* \"#utility.yul\":25196:25197   */\n      0x00\n        /* \"#utility.yul\":25185:25194   */\n      dup4\n        /* \"#utility.yul\":25181:25198   */\n      add\n        /* \"#utility.yul\":25172:25178   */\n      dup11\n        /* \"#utility.yul\":25128:25199   */\n      tag_586\n      jump\t// in\n    tag_692:\n        /* \"#utility.yul\":25246:25255   */\n      dup2\n        /* \"#utility.yul\":25240:25244   */\n      dup2\n        /* \"#utility.yul\":25236:25256   */\n      sub\n        /* \"#utility.yul\":25231:25233   */\n      0x20\n        /* \"#utility.yul\":25220:25229   */\n      dup4\n        /* \"#utility.yul\":25216:25234   */\n      add\n        /* \"#utility.yul\":25209:25257   */\n      mstore\n        /* \"#utility.yul\":25274:25352   */\n      tag_693\n        /* \"#utility.yul\":25347:25351   */\n      dup2\n        /* \"#utility.yul\":25338:25344   */\n      dup10\n        /* \"#utility.yul\":25274:25352   */\n      tag_634\n      jump\t// in\n    tag_693:\n        /* \"#utility.yul\":25266:25352   */\n      swap1\n      pop\n        /* \"#utility.yul\":25399:25408   */\n      dup2\n        /* \"#utility.yul\":25393:25397   */\n      dup2\n        /* \"#utility.yul\":25389:25409   */\n      sub\n        /* \"#utility.yul\":25384:25386   */\n      0x40\n        /* \"#utility.yul\":25373:25382   */\n      dup4\n        /* \"#utility.yul\":25369:25387   */\n      add\n        /* \"#utility.yul\":25362:25410   */\n      mstore\n        /* \"#utility.yul\":25427:25505   */\n      tag_694\n        /* \"#utility.yul\":25500:25504   */\n      dup2\n        /* \"#utility.yul\":25491:25497   */\n      dup9\n        /* \"#utility.yul\":25427:25505   */\n      tag_634\n      jump\t// in\n    tag_694:\n        /* \"#utility.yul\":25419:25505   */\n      swap1\n      pop\n        /* \"#utility.yul\":25552:25561   */\n      dup2\n        /* \"#utility.yul\":25546:25550   */\n      dup2\n        /* \"#utility.yul\":25542:25562   */\n      sub\n        /* \"#utility.yul\":25537:25539   */\n      0x60\n        /* \"#utility.yul\":25526:25535   */\n      dup4\n        /* \"#utility.yul\":25522:25540   */\n      add\n        /* \"#utility.yul\":25515:25563   */\n      mstore\n        /* \"#utility.yul\":25580:25658   */\n      tag_695\n        /* \"#utility.yul\":25653:25657   */\n      dup2\n        /* \"#utility.yul\":25644:25650   */\n      dup8\n        /* \"#utility.yul\":25580:25658   */\n      tag_634\n      jump\t// in\n    tag_695:\n        /* \"#utility.yul\":25572:25658   */\n      swap1\n      pop\n        /* \"#utility.yul\":25706:25715   */\n      dup2\n        /* \"#utility.yul\":25700:25704   */\n      dup2\n        /* \"#utility.yul\":25696:25716   */\n      sub\n        /* \"#utility.yul\":25690:25693   */\n      0x80\n        /* \"#utility.yul\":25679:25688   */\n      dup4\n        /* \"#utility.yul\":25675:25694   */\n      add\n        /* \"#utility.yul\":25668:25717   */\n      mstore\n        /* \"#utility.yul\":25734:25812   */\n      tag_696\n        /* \"#utility.yul\":25807:25811   */\n      dup2\n        /* \"#utility.yul\":25798:25804   */\n      dup7\n        /* \"#utility.yul\":25734:25812   */\n      tag_634\n      jump\t// in\n    tag_696:\n        /* \"#utility.yul\":25726:25812   */\n      swap1\n      pop\n        /* \"#utility.yul\":25822:25895   */\n      tag_697\n        /* \"#utility.yul\":25890:25893   */\n      0xa0\n        /* \"#utility.yul\":25879:25888   */\n      dup4\n        /* \"#utility.yul\":25875:25894   */\n      add\n        /* \"#utility.yul\":25866:25872   */\n      dup6\n        /* \"#utility.yul\":25822:25895   */\n      tag_672\n      jump\t// in\n    tag_697:\n        /* \"#utility.yul\":25943:25952   */\n      dup2\n        /* \"#utility.yul\":25937:25941   */\n      dup2\n        /* \"#utility.yul\":25933:25953   */\n      sub\n        /* \"#utility.yul\":25927:25930   */\n      0xc0\n        /* \"#utility.yul\":25916:25925   */\n      dup4\n        /* \"#utility.yul\":25912:25931   */\n      add\n        /* \"#utility.yul\":25905:25954   */\n      mstore\n        /* \"#utility.yul\":25971:26049   */\n      tag_698\n        /* \"#utility.yul\":26044:26048   */\n      dup2\n        /* \"#utility.yul\":26035:26041   */\n      dup5\n        /* \"#utility.yul\":25971:26049   */\n      tag_634\n      jump\t// in\n    tag_698:\n        /* \"#utility.yul\":25963:26049   */\n      swap1\n      pop\n        /* \"#utility.yul\":24715:26056   */\n      swap9\n      swap8\n      pop\n      pop\n      pop\n      pop\n      pop\n      pop\n      pop\n      pop\n      jump\t// out\n        /* \"#utility.yul\":26062:26272   */\n    tag_32:\n        /* \"#utility.yul\":26149:26153   */\n      0x00\n        /* \"#utility.yul\":26187:26189   */\n      0x20\n        /* \"#utility.yul\":26176:26185   */\n      dup3\n        /* \"#utility.yul\":26172:26190   */\n      add\n        /* \"#utility.yul\":26164:26190   */\n      swap1\n      pop\n        /* \"#utility.yul\":26200:26265   */\n      tag_700\n        /* \"#utility.yul\":26262:26263   */\n      0x00\n        /* \"#utility.yul\":26251:26260   */\n      dup4\n        /* \"#utility.yul\":26247:26264   */\n      add\n        /* \"#utility.yul\":26238:26244   */\n      dup5\n        /* \"#utility.yul\":26200:26265   */\n      tag_617\n      jump\t// in\n    tag_700:\n        /* \"#utility.yul\":26062:26272   */\n      swap3\n      swap2\n      pop\n      pop\n      jump\t// out\n        /* \"#utility.yul\":26278:26643   */\n    tag_81:\n        /* \"#utility.yul\":26417:26421   */\n      0x00\n        /* \"#utility.yul\":26455:26457   */\n      0x20\n        /* \"#utility.yul\":26444:26453   */\n      dup3\n        /* \"#utility.yul\":26440:26458   */\n      add\n        /* \"#utility.yul\":26432:26458   */\n      swap1\n      pop\n        /* \"#utility.yul\":26504:26513   */\n      dup2\n        /* \"#utility.yul\":26498:26502   */\n      dup2\n        /* \"#utility.yul\":26494:26514   */\n      sub\n        /* \"#utility.yul\":26490:26491   */\n      0x00\n        /* \"#utility.yul\":26479:26488   */\n      dup4\n        /* \"#utility.yul\":26475:26492   */\n      add\n        /* \"#utility.yul\":26468:26515   */\n      mstore\n        /* \"#utility.yul\":26532:26636   */\n      tag_702\n        /* \"#utility.yul\":26631:26635   */\n      dup2\n        /* \"#utility.yul\":26622:26628   */\n      dup5\n        /* \"#utility.yul\":26532:26636   */\n      tag_661\n      jump\t// in\n    tag_702:\n        /* \"#utility.yul\":26524:26636   */\n      swap1\n      pop\n        /* \"#utility.yul\":26278:26643   */\n      swap3\n      swap2\n      pop\n      pop\n      jump\t// out\n        /* \"#utility.yul\":26649:26871   */\n    tag_21:\n        /* \"#utility.yul\":26742:26746   */\n      0x00\n        /* \"#utility.yul\":26780:26782   */\n      0x20\n        /* \"#utility.yul\":26769:26778   */\n      dup3\n        /* \"#utility.yul\":26765:26783   */\n      add\n        /* \"#utility.yul\":26757:26783   */\n      swap1\n      pop\n        /* \"#utility.yul\":26793:26864   */\n      tag_704\n        /* \"#utility.yul\":26861:26862   */\n      0x00\n        /* \"#utility.yul\":26850:26859   */\n      dup4\n        /* \"#utility.yul\":26846:26863   */\n      add\n        /* \"#utility.yul\":26837:26843   */\n      dup5\n        /* \"#utility.yul\":26793:26864   */\n      tag_672\n      jump\t// in\n    tag_704:\n        /* \"#utility.yul\":26649:26871   */\n      swap3\n      swap2\n      pop\n      pop\n      jump\t// out\n        /* \"#utility.yul\":26877:27902   */\n    tag_59:\n        /* \"#utility.yul\":27184:27188   */\n      0x00\n        /* \"#utility.yul\":27222:27225   */\n      0xc0\n        /* \"#utility.yul\":27211:27220   */\n      dup3\n        /* \"#utility.yul\":27207:27226   */\n      add\n        /* \"#utility.yul\":27199:27226   */\n      swap1\n      pop\n        /* \"#utility.yul\":27236:27307   */\n      tag_706\n        /* \"#utility.yul\":27304:27305   */\n      0x00\n        /* \"#utility.yul\":27293:27302   */\n      dup4\n        /* \"#utility.yul\":27289:27306   */\n      add\n        /* \"#utility.yul\":27280:27286   */\n      dup10\n        /* \"#utility.yul\":27236:27307   */\n      tag_672\n      jump\t// in\n    tag_706:\n        /* \"#utility.yul\":27317:27389   */\n      tag_707\n        /* \"#utility.yul\":27385:27387   */\n      0x20\n        /* \"#utility.yul\":27374:27383   */\n      dup4\n        /* \"#utility.yul\":27370:27388   */\n      add\n        /* \"#utility.yul\":27361:27367   */\n      dup9\n        /* \"#utility.yul\":27317:27389   */\n      tag_586\n      jump\t// in\n    tag_707:\n        /* \"#utility.yul\":27436:27445   */\n      dup2\n        /* \"#utility.yul\":27430:27434   */\n      dup2\n        /* \"#utility.yul\":27426:27446   */\n      sub\n        /* \"#utility.yul\":27421:27423   */\n      0x40\n        /* \"#utility.yul\":27410:27419   */\n      dup4\n        /* \"#utility.yul\":27406:27424   */\n      add\n        /* \"#utility.yul\":27399:27447   */\n      mstore\n        /* \"#utility.yul\":27464:27542   */\n      tag_708\n        /* \"#utility.yul\":27537:27541   */\n      dup2\n        /* \"#utility.yul\":27528:27534   */\n      dup8\n        /* \"#utility.yul\":27464:27542   */\n      tag_634\n      jump\t// in\n    tag_708:\n        /* \"#utility.yul\":27456:27542   */\n      swap1\n      pop\n        /* \"#utility.yul\":27552:27624   */\n      tag_709\n        /* \"#utility.yul\":27620:27622   */\n      0x60\n        /* \"#utility.yul\":27609:27618   */\n      dup4\n        /* \"#utility.yul\":27605:27623   */\n      add\n        /* \"#utility.yul\":27596:27602   */\n      dup7\n        /* \"#utility.yul\":27552:27624   */\n      tag_672\n      jump\t// in\n    tag_709:\n        /* \"#utility.yul\":27634:27707   */\n      tag_710\n        /* \"#utility.yul\":27702:27705   */\n      0x80\n        /* \"#utility.yul\":27691:27700   */\n      dup4\n        /* \"#utility.yul\":27687:27706   */\n      add\n        /* \"#utility.yul\":27678:27684   */\n      dup6\n        /* \"#utility.yul\":27634:27707   */\n      tag_672\n      jump\t// in\n    tag_710:\n        /* \"#utility.yul\":27755:27764   */\n      dup2\n        /* \"#utility.yul\":27749:27753   */\n      dup2\n        /* \"#utility.yul\":27745:27765   */\n      sub\n        /* \"#utility.yul\":27739:27742   */\n      0xa0\n        /* \"#utility.yul\":27728:27737   */\n      dup4\n        /* \"#utility.yul\":27724:27743   */\n      add\n        /* \"#utility.yul\":27717:27766   */\n      mstore\n        /* \"#utility.yul\":27783:27895   */\n      tag_711\n        /* \"#utility.yul\":27890:27894   */\n      dup2\n        /* \"#utility.yul\":27881:27887   */\n      dup5\n        /* \"#utility.yul\":27783:27895   */\n      tag_651\n      jump\t// in\n    tag_711:\n        /* \"#utility.yul\":27775:27895   */\n      swap1\n      pop\n        /* \"#utility.yul\":26877:27902   */\n      swap8\n      swap7\n      pop\n      pop\n      pop\n      pop\n      pop\n      pop\n      pop\n      jump\t// out\n        /* \"#utility.yul\":27908:28037   */\n    tag_423:\n        /* \"#utility.yul\":27942:27948   */\n      0x00\n        /* \"#utility.yul\":27969:27989   */\n      tag_713\n      tag_714\n      jump\t// in\n    tag_713:\n        /* \"#utility.yul\":27959:27989   */\n      swap1\n      pop\n        /* \"#utility.yul\":27998:28031   */\n      tag_715\n        /* \"#utility.yul\":28026:28030   */\n      dup3\n        /* \"#utility.yul\":28018:28024   */\n      dup3\n        /* \"#utility.yul\":27998:28031   */\n      tag_716\n      jump\t// in\n    tag_715:\n        /* \"#utility.yul\":27908:28037   */\n      swap2\n      swap1\n      pop\n      jump\t// out\n        /* \"#utility.yul\":28043:28118   */\n    tag_714:\n        /* \"#utility.yul\":28076:28082   */\n      0x00\n        /* \"#utility.yul\":28109:28111   */\n      0x40\n        /* \"#utility.yul\":28103:28112   */\n      mload\n        /* \"#utility.yul\":28093:28112   */\n      swap1\n      pop\n        /* \"#utility.yul\":28043:28118   */\n      swap1\n      jump\t// out\n        /* \"#utility.yul\":28124:28435   */\n    tag_422:\n        /* \"#utility.yul\":28201:28205   */\n      0x00\n        /* \"#utility.yul\":28291:28309   */\n      0xffffffffffffffff\n        /* \"#utility.yul\":28283:28289   */\n      dup3\n        /* \"#utility.yul\":28280:28310   */\n      gt\n        /* \"#utility.yul\":28277:28333   */\n      iszero\n      tag_719\n      jumpi\n        /* \"#utility.yul\":28313:28331   */\n      tag_720\n      tag_721\n      jump\t// in\n    tag_720:\n        /* \"#utility.yul\":28277:28333   */\n    tag_719:\n        /* \"#utility.yul\":28363:28367   */\n      0x20\n        /* \"#utility.yul\":28355:28361   */\n      dup3\n        /* \"#utility.yul\":28351:28368   */\n      mul\n        /* \"#utility.yul\":28343:28368   */\n      swap1\n      pop\n        /* \"#utility.yul\":28423:28427   */\n      0x20\n        /* \"#utility.yul\":28417:28421   */\n      dup2\n        /* \"#utility.yul\":28413:28428   */\n      add\n        /* \"#utility.yul\":28405:28428   */\n      swap1\n      pop\n        /* \"#utility.yul\":28124:28435   */\n      swap2\n      swap1\n      pop\n      jump\t// out\n        /* \"#utility.yul\":28441:28762   */\n    tag_436:\n        /* \"#utility.yul\":28528:28532   */\n      0x00\n        /* \"#utility.yul\":28618:28636   */\n      0xffffffffffffffff\n        /* \"#utility.yul\":28610:28616   */\n      dup3\n        /* \"#utility.yul\":28607:28637   */\n      gt\n        /* \"#utility.yul\":28604:28660   */\n      iszero\n      tag_723\n      jumpi\n        /* \"#utility.yul\":28640:28658   */\n      tag_724\n      tag_721\n      jump\t// in\n    tag_724:\n        /* \"#utility.yul\":28604:28660   */\n    tag_723:\n        /* \"#utility.yul\":28690:28694   */\n      0x20\n        /* \"#utility.yul\":28682:28688   */\n      dup3\n        /* \"#utility.yul\":28678:28695   */\n      mul\n        /* \"#utility.yul\":28670:28695   */\n      swap1\n      pop\n        /* \"#utility.yul\":28750:28754   */\n      0x20\n        /* \"#utility.yul\":28744:28748   */\n      dup2\n        /* \"#utility.yul\":28740:28755   */\n      add\n        /* \"#utility.yul\":28732:28755   */\n      swap1\n      pop\n        /* \"#utility.yul\":28441:28762   */\n      swap2\n      swap1\n      pop\n      jump\t// out\n        /* \"#utility.yul\":28768:29018   */\n    tag_451:\n        /* \"#utility.yul\":28844:28848   */\n      0x00\n        /* \"#utility.yul\":28934:28952   */\n      0xffffffffffffffff\n        /* \"#utility.yul\":28926:28932   */\n      dup3\n        /* \"#utility.yul\":28923:28953   */\n      gt\n        /* \"#utility.yul\":28920:28976   */\n      iszero\n      tag_726\n      jumpi\n        /* \"#utility.yul\":28956:28974   */\n      tag_727\n      tag_721\n      jump\t// in\n    tag_727:\n        /* \"#utility.yul\":28920:28976   */\n    tag_726:\n        /* \"#utility.yul\":29006:29010   */\n      0x20\n        /* \"#utility.yul\":28998:29004   */\n      dup3\n        /* \"#utility.yul\":28994:29011   */\n      mul\n        /* \"#utility.yul\":28986:29011   */\n      swap1\n      pop\n        /* \"#utility.yul\":28768:29018   */\n      swap2\n      swap1\n      pop\n      jump\t// out\n        /* \"#utility.yul\":29024:29332   */\n    tag_463:\n        /* \"#utility.yul\":29086:29090   */\n      0x00\n        /* \"#utility.yul\":29176:29194   */\n      0xffffffffffffffff\n        /* \"#utility.yul\":29168:29174   */\n      dup3\n        /* \"#utility.yul\":29165:29195   */\n      gt\n        /* \"#utility.yul\":29162:29218   */\n      iszero\n      tag_729\n      jumpi\n        /* \"#utility.yul\":29198:29216   */\n      tag_730\n      tag_721\n      jump\t// in\n    tag_730:\n        /* \"#utility.yul\":29162:29218   */\n    tag_729:\n        /* \"#utility.yul\":29236:29265   */\n      tag_731\n        /* \"#utility.yul\":29258:29264   */\n      dup3\n        /* \"#utility.yul\":29236:29265   */\n      tag_633\n      jump\t// in\n    tag_731:\n        /* \"#utility.yul\":29228:29265   */\n      swap1\n      pop\n        /* \"#utility.yul\":29320:29324   */\n      0x20\n        /* \"#utility.yul\":29314:29318   */\n      dup2\n        /* \"#utility.yul\":29310:29325   */\n      add\n        /* \"#utility.yul\":29302:29325   */\n      swap1\n      pop\n        /* \"#utility.yul\":29024:29332   */\n      swap2\n      swap1\n      pop\n      jump\t// out\n        /* \"#utility.yul\":29338:29480   */\n    tag_596:\n        /* \"#utility.yul\":29415:29419   */\n      0x00\n        /* \"#utility.yul\":29438:29441   */\n      dup2\n        /* \"#utility.yul\":29430:29441   */\n      swap1\n      pop\n        /* \"#utility.yul\":29468:29472   */\n      0x20\n        /* \"#utility.yul\":29463:29466   */\n      dup3\n        /* \"#utility.yul\":29459:29473   */\n      add\n        /* \"#utility.yul\":29451:29473   */\n      swap1\n      pop\n        /* \"#utility.yul\":29338:29480   */\n      swap2\n      swap1\n      pop\n      jump\t// out\n        /* \"#utility.yul\":29486:29585   */\n    tag_610:\n        /* \"#utility.yul\":29552:29556   */\n      0x00\n        /* \"#utility.yul\":29575:29578   */\n      dup2\n        /* \"#utility.yul\":29567:29578   */\n      swap1\n      pop\n        /* \"#utility.yul\":29486:29585   */\n      swap2\n      swap1\n      pop\n      jump\t// out\n        /* \"#utility.yul\":29591:29715   */\n    tag_592:\n        /* \"#utility.yul\":29668:29674   */\n      0x00\n        /* \"#utility.yul\":29702:29707   */\n      dup2\n        /* \"#utility.yul\":29696:29708   */\n      mload\n        /* \"#utility.yul\":29686:29708   */\n      swap1\n      pop\n        /* \"#utility.yul\":29591:29715   */\n      swap2\n      swap1\n      pop\n      jump\t// out\n        /* \"#utility.yul\":29721:29826   */\n    tag_606:\n        /* \"#utility.yul\":29787:29793   */\n      0x00\n        /* \"#utility.yul\":29815:29819   */\n      0x0c\n        /* \"#utility.yul\":29805:29819   */\n      swap1\n      pop\n        /* \"#utility.yul\":29721:29826   */\n      swap2\n      swap1\n      pop\n      jump\t// out\n        /* \"#utility.yul\":29832:29931   */\n    tag_627:\n        /* \"#utility.yul\":29884:29890   */\n      0x00\n        /* \"#utility.yul\":29918:29923   */\n      dup2\n        /* \"#utility.yul\":29912:29924   */\n      mload\n        /* \"#utility.yul\":29902:29924   */\n      swap1\n      pop\n        /* \"#utility.yul\":29832:29931   */\n      swap2\n      swap1\n      pop\n      jump\t// out\n        /* \"#utility.yul\":29937:30060   */\n    tag_602:\n        /* \"#utility.yul\":30017:30021   */\n      0x00\n        /* \"#utility.yul\":30049:30053   */\n      0x20\n        /* \"#utility.yul\":30044:30047   */\n      dup3\n        /* \"#utility.yul\":30040:30054   */\n      add\n        /* \"#utility.yul\":30032:30054   */\n      swap1\n      pop\n        /* \"#utility.yul\":29937:30060   */\n      swap2\n      swap1\n      pop\n      jump\t// out\n        /* \"#utility.yul\":30066:30178   */\n    tag_616:\n        /* \"#utility.yul\":30135:30139   */\n      0x00\n        /* \"#utility.yul\":30167:30171   */\n      0x20\n        /* \"#utility.yul\":30162:30165   */\n      dup3\n        /* \"#utility.yul\":30158:30172   */\n      add\n        /* \"#utility.yul\":30150:30172   */\n      swap1\n      pop\n        /* \"#utility.yul\":30066:30178   */\n      swap2\n      swap1\n      pop\n      jump\t// out\n        /* \"#utility.yul\":30184:30368   */\n    tag_594:\n        /* \"#utility.yul\":30283:30294   */\n      0x00\n        /* \"#utility.yul\":30317:30323   */\n      dup3\n        /* \"#utility.yul\":30312:30315   */\n      dup3\n        /* \"#utility.yul\":30305:30324   */\n      mstore\n        /* \"#utility.yul\":30357:30361   */\n      0x20\n        /* \"#utility.yul\":30352:30355   */\n      dup3\n        /* \"#utility.yul\":30348:30362   */\n      add\n        /* \"#utility.yul\":30333:30362   */\n      swap1\n      pop\n        /* \"#utility.yul\":30184:30368   */\n      swap3\n      swap2\n      pop\n      pop\n      jump\t// out\n        /* \"#utility.yul\":30374:30518   */\n    tag_608:\n        /* \"#utility.yul\":30472:30483   */\n      0x00\n        /* \"#utility.yul\":30509:30512   */\n      dup2\n        /* \"#utility.yul\":30494:30512   */\n      swap1\n      pop\n        /* \"#utility.yul\":30374:30518   */\n      swap3\n      swap2\n      pop\n      pop\n      jump\t// out\n        /* \"#utility.yul\":30524:30683   */\n    tag_629:\n        /* \"#utility.yul\":30598:30609   */\n      0x00\n        /* \"#utility.yul\":30632:30638   */\n      dup3\n        /* \"#utility.yul\":30627:30630   */\n      dup3\n        /* \"#utility.yul\":30620:30639   */\n      mstore\n        /* \"#utility.yul\":30672:30676   */\n      0x20\n        /* \"#utility.yul\":30667:30670   */\n      dup3\n        /* \"#utility.yul\":30663:30677   */\n      add\n        /* \"#utility.yul\":30648:30677   */\n      swap1\n      pop\n        /* \"#utility.yul\":30524:30683   */\n      swap3\n      swap2\n      pop\n      pop\n      jump\t// out\n        /* \"#utility.yul\":30689:30858   */\n    tag_638:\n        /* \"#utility.yul\":30773:30784   */\n      0x00\n        /* \"#utility.yul\":30807:30813   */\n      dup3\n        /* \"#utility.yul\":30802:30805   */\n      dup3\n        /* \"#utility.yul\":30795:30814   */\n      mstore\n        /* \"#utility.yul\":30847:30851   */\n      0x20\n        /* \"#utility.yul\":30842:30845   */\n      dup3\n        /* \"#utility.yul\":30838:30852   */\n      add\n        /* \"#utility.yul\":30823:30852   */\n      swap1\n      pop\n        /* \"#utility.yul\":30689:30858   */\n      swap3\n      swap2\n      pop\n      pop\n      jump\t// out\n        /* \"#utility.yul\":30864:31169   */\n    tag_310:\n        /* \"#utility.yul\":30904:30907   */\n      0x00\n        /* \"#utility.yul\":30923:30943   */\n      tag_744\n        /* \"#utility.yul\":30941:30942   */\n      dup3\n        /* \"#utility.yul\":30923:30943   */\n      tag_671\n      jump\t// in\n    tag_744:\n        /* \"#utility.yul\":30918:30943   */\n      swap2\n      pop\n        /* \"#utility.yul\":30957:30977   */\n      tag_745\n        /* \"#utility.yul\":30975:30976   */\n      dup4\n        /* \"#utility.yul\":30957:30977   */\n      tag_671\n      jump\t// in\n    tag_745:\n        /* \"#utility.yul\":30952:30977   */\n      swap3\n      pop\n        /* \"#utility.yul\":31111:31112   */\n      dup3\n        /* \"#utility.yul\":31043:31109   */\n      0xffffffffffffffffffffffffffffffffffffffffffffffffffffffffffffffff\n        /* \"#utility.yul\":31039:31113   */\n      sub\n        /* \"#utility.yul\":31036:31037   */\n      dup3\n        /* \"#utility.yul\":31033:31114   */\n      gt\n        /* \"#utility.yul\":31030:31137   */\n      iszero\n      tag_746\n      jumpi\n        /* \"#utility.yul\":31117:31135   */\n      tag_747\n      tag_748\n      jump\t// in\n    tag_747:\n        /* \"#utility.yul\":31030:31137   */\n    tag_746:\n        /* \"#utility.yul\":31161:31162   */\n      dup3\n        /* \"#utility.yul\":31158:31159   */\n      dup3\n        /* \"#utility.yul\":31154:31163   */\n      add\n        /* \"#utility.yul\":31147:31163   */\n      swap1\n      pop\n        /* \"#utility.yul\":30864:31169   */\n      swap3\n      swap2\n      pop\n      pop\n      jump\t// out\n        /* \"#utility.yul\":31175:31523   */\n    tag_95:\n        /* \"#utility.yul\":31215:31222   */\n      0x00\n        /* \"#utility.yul\":31238:31258   */\n      tag_750\n        /* \"#utility.yul\":31256:31257   */\n      dup3\n        /* \"#utility.yul\":31238:31258   */\n      tag_671\n      jump\t// in\n    tag_750:\n        /* \"#utility.yul\":31233:31258   */\n      swap2\n      pop\n        /* \"#utility.yul\":31272:31292   */\n      tag_751\n        /* \"#utility.yul\":31290:31291   */\n      dup4\n        /* \"#utility.yul\":31272:31292   */\n      tag_671\n      jump\t// in\n    tag_751:\n        /* \"#utility.yul\":31267:31292   */\n      swap3\n      pop\n        /* \"#utility.yul\":31460:31461   */\n      dup2\n        /* \"#utility.yul\":31392:31458   */\n      0xffffffffffffffffffffffffffffffffffffffffffffffffffffffffffffffff\n        /* \"#utility.yul\":31388:31462   */\n      div\n        /* \"#utility.yul\":31385:31386   */\n      dup4\n        /* \"#utility.yul\":31382:31463   */\n      gt\n        /* \"#utility.yul\":31377:31378   */\n      dup3\n        /* \"#utility.yul\":31370:31379   */\n      iszero\n        /* \"#utility.yul\":31363:31380   */\n      iszero\n        /* \"#utility.yul\":31359:31464   */\n      and\n        /* \"#utility.yul\":31356:31487   */\n      iszero\n      tag_752\n      jumpi\n        /* \"#utility.yul\":31467:31485   */\n      tag_753\n      tag_748\n      jump\t// in\n    tag_753:\n        /* \"#utility.yul\":31356:31487   */\n    tag_752:\n        /* \"#utility.yul\":31515:31516   */\n      dup3\n        /* \"#utility.yul\":31512:31513   */\n      dup3\n        /* \"#utility.yul\":31508:31517   */\n      mul\n        /* \"#utility.yul\":31497:31517   */\n      swap1\n      pop\n        /* \"#utility.yul\":31175:31523   */\n      swap3\n      swap2\n      pop\n      pop\n      jump\t// out\n        /* \"#utility.yul\":31529:31720   */\n    tag_105:\n        /* \"#utility.yul\":31569:31573   */\n      0x00\n        /* \"#utility.yul\":31589:31609   */\n      tag_755\n        /* \"#utility.yul\":31607:31608   */\n      dup3\n        /* \"#utility.yul\":31589:31609   */\n      tag_671\n      jump\t// in\n    tag_755:\n        /* \"#utility.yul\":31584:31609   */\n      swap2\n      pop\n        /* \"#utility.yul\":31623:31643   */\n      tag_756\n        /* \"#utility.yul\":31641:31642   */\n      dup4\n        /* \"#utility.yul\":31623:31643   */\n      tag_671\n      jump\t// in\n    tag_756:\n        /* \"#utility.yul\":31618:31643   */\n      swap3\n      pop\n        /* \"#utility.yul\":31662:31663   */\n      dup3\n        /* \"#utility.yul\":31659:31660   */\n      dup3\n        /* \"#utility.yul\":31656:31664   */\n      lt\n        /* \"#utility.yul\":31653:31687   */\n      iszero\n      tag_757\n      jumpi\n        /* \"#utility.yul\":31667:31685   */\n      tag_758\n      tag_748\n      jump\t// in\n    tag_758:\n        /* \"#utility.yul\":31653:31687   */\n    tag_757:\n        /* \"#utility.yul\":31712:31713   */\n      dup3\n        /* \"#utility.yul\":31709:31710   */\n      dup3\n        /* \"#utility.yul\":31705:31714   */\n      sub\n        /* \"#utility.yul\":31697:31714   */\n      swap1\n      pop\n        /* \"#utility.yul\":31529:31720   */\n      swap3\n      swap2\n      pop\n      pop\n      jump\t// out\n        /* \"#utility.yul\":31726:31822   */\n    tag_585:\n        /* \"#utility.yul\":31763:31770   */\n      0x00\n        /* \"#utility.yul\":31792:31816   */\n      tag_760\n        /* \"#utility.yul\":31810:31815   */\n      dup3\n        /* \"#utility.yul\":31792:31816   */\n      tag_761\n      jump\t// in\n    tag_760:\n        /* \"#utility.yul\":31781:31816   */\n      swap1\n      pop\n        /* \"#utility.yul\":31726:31822   */\n      swap2\n      swap1\n      pop\n      jump\t// out\n        /* \"#utility.yul\":31828:31918   */\n    tag_620:\n        /* \"#utility.yul\":31862:31869   */\n      0x00\n        /* \"#utility.yul\":31905:31910   */\n      dup2\n        /* \"#utility.yul\":31898:31911   */\n      iszero\n        /* \"#utility.yul\":31891:31912   */\n      iszero\n        /* \"#utility.yul\":31880:31912   */\n      swap1\n      pop\n        /* \"#utility.yul\":31828:31918   */\n      swap2\n      swap1\n      pop\n      jump\t// out\n        /* \"#utility.yul\":31924:32000   */\n    tag_624:\n        /* \"#utility.yul\":31960:31967   */\n      0x00\n        /* \"#utility.yul\":31989:31994   */\n      dup2\n        /* \"#utility.yul\":31978:31994   */\n      swap1\n      pop\n        /* \"#utility.yul\":31924:32000   */\n      swap2\n      swap1\n      pop\n      jump\t// out\n        /* \"#utility.yul\":32006:32132   */\n    tag_761:\n        /* \"#utility.yul\":32043:32050   */\n      0x00\n        /* \"#utility.yul\":32083:32125   */\n      0xffffffffffffffffffffffffffffffffffffffff\n        /* \"#utility.yul\":32076:32081   */\n      dup3\n        /* \"#utility.yul\":32072:32126   */\n      and\n        /* \"#utility.yul\":32061:32126   */\n      swap1\n      pop\n        /* \"#utility.yul\":32006:32132   */\n      swap2\n      swap1\n      pop\n      jump\t// out\n        /* \"#utility.yul\":32138:32215   */\n    tag_671:\n        /* \"#utility.yul\":32175:32182   */\n      0x00\n        /* \"#utility.yul\":32204:32209   */\n      dup2\n        /* \"#utility.yul\":32193:32209   */\n      swap1\n      pop\n        /* \"#utility.yul\":32138:32215   */\n      swap2\n      swap1\n      pop\n      jump\t// out\n        /* \"#utility.yul\":32221:32375   */\n    tag_468:\n        /* \"#utility.yul\":32305:32311   */\n      dup3\n        /* \"#utility.yul\":32300:32303   */\n      dup2\n        /* \"#utility.yul\":32295:32298   */\n      dup4\n        /* \"#utility.yul\":32282:32312   */\n      calldatacopy\n        /* \"#utility.yul\":32367:32368   */\n      0x00\n        /* \"#utility.yul\":32358:32364   */\n      dup4\n        /* \"#utility.yul\":32353:32356   */\n      dup4\n        /* \"#utility.yul\":32349:32365   */\n      add\n        /* \"#utility.yul\":32342:32369   */\n      mstore\n        /* \"#utility.yul\":32221:32375   */\n      pop\n      pop\n      pop\n      jump\t// out\n        /* \"#utility.yul\":32381:32688   */\n    tag_631:\n        /* \"#utility.yul\":32449:32450   */\n      0x00\n        /* \"#utility.yul\":32459:32572   */\n    tag_768:\n        /* \"#utility.yul\":32473:32479   */\n      dup4\n        /* \"#utility.yul\":32470:32471   */\n      dup2\n        /* \"#utility.yul\":32467:32480   */\n      lt\n        /* \"#utility.yul\":32459:32572   */\n      iszero\n      tag_770\n      jumpi\n        /* \"#utility.yul\":32558:32559   */\n      dup1\n        /* \"#utility.yul\":32553:32556   */\n      dup3\n        /* \"#utility.yul\":32549:32560   */\n      add\n        /* \"#utility.yul\":32543:32561   */\n      mload\n        /* \"#utility.yul\":32539:32540   */\n      dup2\n        /* \"#utility.yul\":32534:32537   */\n      dup5\n        /* \"#utility.yul\":32530:32541   */\n      add\n        /* \"#utility.yul\":32523:32562   */\n      mstore\n        /* \"#utility.yul\":32495:32497   */\n      0x20\n        /* \"#utility.yul\":32492:32493   */\n      dup2\n        /* \"#utility.yul\":32488:32498   */\n      add\n        /* \"#utility.yul\":32483:32498   */\n      swap1\n      pop\n        /* \"#utility.yul\":32459:32572   */\n      jump(tag_768)\n    tag_770:\n        /* \"#utility.yul\":32590:32596   */\n      dup4\n        /* \"#utility.yul\":32587:32588   */\n      dup2\n        /* \"#utility.yul\":32584:32597   */\n      gt\n        /* \"#utility.yul\":32581:32682   */\n      iszero\n      tag_771\n      jumpi\n        /* \"#utility.yul\":32670:32671   */\n      0x00\n        /* \"#utility.yul\":32661:32667   */\n      dup5\n        /* \"#utility.yul\":32656:32659   */\n      dup5\n        /* \"#utility.yul\":32652:32668   */\n      add\n        /* \"#utility.yul\":32645:32672   */\n      mstore\n        /* \"#utility.yul\":32581:32682   */\n    tag_771:\n        /* \"#utility.yul\":32430:32688   */\n      pop\n        /* \"#utility.yul\":32381:32688   */\n      pop\n      pop\n      pop\n      jump\t// out\n        /* \"#utility.yul\":32694:33014   */\n    tag_111:\n        /* \"#utility.yul\":32738:32744   */\n      0x00\n        /* \"#utility.yul\":32775:32776   */\n      0x02\n        /* \"#utility.yul\":32769:32773   */\n      dup3\n        /* \"#utility.yul\":32765:32777   */\n      div\n        /* \"#utility.yul\":32755:32777   */\n      swap1\n      pop\n        /* \"#utility.yul\":32822:32823   */\n      0x01\n        /* \"#utility.yul\":32816:32820   */\n      dup3\n        /* \"#utility.yul\":32812:32824   */\n      and\n        /* \"#utility.yul\":32843:32861   */\n      dup1\n        /* \"#utility.yul\":32833:32914   */\n      tag_773\n      jumpi\n        /* \"#utility.yul\":32899:32903   */\n      0x7f\n        /* \"#utility.yul\":32891:32897   */\n      dup3\n        /* \"#utility.yul\":32887:32904   */\n      and\n        /* \"#utility.yul\":32877:32904   */\n      swap2\n      pop\n        /* \"#utility.yul\":32833:32914   */\n    tag_773:\n        /* \"#utility.yul\":32961:32963   */\n      0x20\n        /* \"#utility.yul\":32953:32959   */\n      dup3\n        /* \"#utility.yul\":32950:32964   */\n      lt\n        /* \"#utility.yul\":32930:32948   */\n      dup2\n        /* \"#utility.yul\":32927:32965   */\n      eq\n        /* \"#utility.yul\":32924:33008   */\n      iszero\n      tag_774\n      jumpi\n        /* \"#utility.yul\":32980:32998   */\n      tag_775\n      tag_776\n      jump\t// in\n    tag_775:\n        /* \"#utility.yul\":32924:33008   */\n    tag_774:\n        /* \"#utility.yul\":32745:33014   */\n      pop\n        /* \"#utility.yul\":32694:33014   */\n      swap2\n      swap1\n      pop\n      jump\t// out\n        /* \"#utility.yul\":33020:33301   */\n    tag_716:\n        /* \"#utility.yul\":33103:33130   */\n      tag_778\n        /* \"#utility.yul\":33125:33129   */\n      dup3\n        /* \"#utility.yul\":33103:33130   */\n      tag_633\n      jump\t// in\n    tag_778:\n        /* \"#utility.yul\":33095:33101   */\n      dup2\n        /* \"#utility.yul\":33091:33131   */\n      add\n        /* \"#utility.yul\":33233:33239   */\n      dup2\n        /* \"#utility.yul\":33221:33231   */\n      dup2\n        /* \"#utility.yul\":33218:33240   */\n      lt\n        /* \"#utility.yul\":33197:33215   */\n      0xffffffffffffffff\n        /* \"#utility.yul\":33185:33195   */\n      dup3\n        /* \"#utility.yul\":33182:33216   */\n      gt\n        /* \"#utility.yul\":33179:33241   */\n      or\n        /* \"#utility.yul\":33176:33264   */\n      iszero\n      tag_779\n      jumpi\n        /* \"#utility.yul\":33244:33262   */\n      tag_780\n      tag_721\n      jump\t// in\n    tag_780:\n        /* \"#utility.yul\":33176:33264   */\n    tag_779:\n        /* \"#utility.yul\":33284:33294   */\n      dup1\n        /* \"#utility.yul\":33280:33282   */\n      0x40\n        /* \"#utility.yul\":33273:33295   */\n      mstore\n        /* \"#utility.yul\":33063:33301   */\n      pop\n        /* \"#utility.yul\":33020:33301   */\n      pop\n      pop\n      jump\t// out\n        /* \"#utility.yul\":33307:33540   */\n    tag_206:\n        /* \"#utility.yul\":33346:33349   */\n      0x00\n        /* \"#utility.yul\":33369:33393   */\n      tag_782\n        /* \"#utility.yul\":33387:33392   */\n      dup3\n        /* \"#utility.yul\":33369:33393   */\n      tag_671\n      jump\t// in\n    tag_782:\n        /* \"#utility.yul\":33360:33393   */\n      swap2\n      pop\n        /* \"#utility.yul\":33415:33481   */\n      0xffffffffffffffffffffffffffffffffffffffffffffffffffffffffffffffff\n        /* \"#utility.yul\":33408:33413   */\n      dup3\n        /* \"#utility.yul\":33405:33482   */\n      eq\n        /* \"#utility.yul\":33402:33505   */\n      iszero\n      tag_783\n      jumpi\n        /* \"#utility.yul\":33485:33503   */\n      tag_784\n      tag_748\n      jump\t// in\n    tag_784:\n        /* \"#utility.yul\":33402:33505   */\n    tag_783:\n        /* \"#utility.yul\":33532:33533   */\n      0x01\n        /* \"#utility.yul\":33525:33530   */\n      dup3\n        /* \"#utility.yul\":33521:33534   */\n      add\n        /* \"#utility.yul\":33514:33534   */\n      swap1\n      pop\n        /* \"#utility.yul\":33307:33540   */\n      swap2\n      swap1\n      pop\n      jump\t// out\n        /* \"#utility.yul\":33546:33726   */\n    tag_748:\n        /* \"#utility.yul\":33594:33671   */\n      0x4e487b7100000000000000000000000000000000000000000000000000000000\n        /* \"#utility.yul\":33591:33592   */\n      0x00\n        /* \"#utility.yul\":33584:33672   */\n      mstore\n        /* \"#utility.yul\":33691:33695   */\n      0x11\n        /* \"#utility.yul\":33688:33689   */\n      0x04\n        /* \"#utility.yul\":33681:33696   */\n      mstore\n        /* \"#utility.yul\":33715:33719   */\n      0x24\n        /* \"#utility.yul\":33712:33713   */\n      0x00\n        /* \"#utility.yul\":33705:33720   */\n      revert\n        /* \"#utility.yul\":33732:33912   */\n    tag_776:\n        /* \"#utility.yul\":33780:33857   */\n      0x4e487b7100000000000000000000000000000000000000000000000000000000\n        /* \"#utility.yul\":33777:33778   */\n      0x00\n        /* \"#utility.yul\":33770:33858   */\n      mstore\n        /* \"#utility.yul\":33877:33881   */\n      0x22\n        /* \"#utility.yul\":33874:33875   */\n      0x04\n        /* \"#utility.yul\":33867:33882   */\n      mstore\n        /* \"#utility.yul\":33901:33905   */\n      0x24\n        /* \"#utility.yul\":33898:33899   */\n      0x00\n        /* \"#utility.yul\":33891:33906   */\n      revert\n        /* \"#utility.yul\":33918:34098   */\n    tag_88:\n        /* \"#utility.yul\":33966:34043   */\n      0x4e487b7100000000000000000000000000000000000000000000000000000000\n        /* \"#utility.yul\":33963:33964   */\n      0x00\n        /* \"#utility.yul\":33956:34044   */\n      mstore\n        /* \"#utility.yul\":34063:34067   */\n      0x32\n        /* \"#utility.yul\":34060:34061   */\n      0x04\n        /* \"#utility.yul\":34053:34068   */\n      mstore\n        /* \"#utility.yul\":34087:34091   */\n      0x24\n        /* \"#utility.yul\":34084:34085   */\n      0x00\n        /* \"#utility.yul\":34077:34092   */\n      revert\n        /* \"#utility.yul\":34104:34284   */\n    tag_721:\n        /* \"#utility.yul\":34152:34229   */\n      0x4e487b7100000000000000000000000000000000000000000000000000000000\n        /* \"#utility.yul\":34149:34150   */\n      0x00\n        /* \"#utility.yul\":34142:34230   */\n      mstore\n        /* \"#utility.yul\":34249:34253   */\n      0x41\n        /* \"#utility.yul\":34246:34247   */\n      0x04\n        /* \"#utility.yul\":34239:34254   */\n      mstore\n        /* \"#utility.yul\":34273:34277   */\n      0x24\n        /* \"#utility.yul\":34270:34271   */\n      0x00\n        /* \"#utility.yul\":34263:34278   */\n      revert\n        /* \"#utility.yul\":34290:34407   */\n    tag_444:\n        /* \"#utility.yul\":34399:34400   */\n      0x00\n        /* \"#utility.yul\":34396:34397   */\n      dup1\n        /* \"#utility.yul\":34389:34401   */\n      revert\n        /* \"#utility.yul\":34413:34530   */\n    tag_426:\n        /* \"#utility.yul\":34522:34523   */\n      0x00\n        /* \"#utility.yul\":34519:34520   */\n      dup1\n        /* \"#utility.yul\":34512:34524   */\n      revert\n        /* \"#utility.yul\":34536:34653   */\n    tag_466:\n        /* \"#utility.yul\":34645:34646   */\n      0x00\n        /* \"#utility.yul\":34642:34643   */\n      dup1\n        /* \"#utility.yul\":34635:34647   */\n      revert\n        /* \"#utility.yul\":34659:34776   */\n    tag_513:\n        /* \"#utility.yul\":34768:34769   */\n      0x00\n        /* \"#utility.yul\":34765:34766   */\n      dup1\n        /* \"#utility.yul\":34758:34770   */\n      revert\n        /* \"#utility.yul\":34782:34899   */\n    tag_501:\n        /* \"#utility.yul\":34891:34892   */\n      0x00\n        /* \"#utility.yul\":34888:34889   */\n      dup1\n        /* \"#utility.yul\":34881:34893   */\n      revert\n        /* \"#utility.yul\":34905:35007   */\n    tag_633:\n        /* \"#utility.yul\":34946:34952   */\n      0x00\n        /* \"#utility.yul\":34997:34999   */\n      0x1f\n        /* \"#utility.yul\":34993:35000   */\n      not\n        /* \"#utility.yul\":34988:34990   */\n      0x1f\n        /* \"#utility.yul\":34981:34986   */\n      dup4\n        /* \"#utility.yul\":34977:34991   */\n      add\n        /* \"#utility.yul\":34973:35001   */\n      and\n        /* \"#utility.yul\":34963:35001   */\n      swap1\n      pop\n        /* \"#utility.yul\":34905:35007   */\n      swap2\n      swap1\n      pop\n      jump\t// out\n        /* \"#utility.yul\":35013:35135   */\n    tag_471:\n        /* \"#utility.yul\":35086:35110   */\n      tag_796\n        /* \"#utility.yul\":35104:35109   */\n      dup2\n        /* \"#utility.yul\":35086:35110   */\n      tag_585\n      jump\t// in\n    tag_796:\n        /* \"#utility.yul\":35079:35084   */\n      dup2\n        /* \"#utility.yul\":35076:35111   */\n      eq\n        /* \"#utility.yul\":35066:35129   */\n      tag_797\n      jumpi\n        /* \"#utility.yul\":35125:35126   */\n      0x00\n        /* \"#utility.yul\":35122:35123   */\n      dup1\n        /* \"#utility.yul\":35115:35127   */\n      revert\n        /* \"#utility.yul\":35066:35129   */\n    tag_797:\n        /* \"#utility.yul\":35013:35135   */\n      pop\n      jump\t// out\n        /* \"#utility.yul\":35141:35261   */\n    tag_490:\n        /* \"#utility.yul\":35213:35236   */\n      tag_799\n        /* \"#utility.yul\":35230:35235   */\n      dup2\n        /* \"#utility.yul\":35213:35236   */\n      tag_624\n      jump\t// in\n    tag_799:\n        /* \"#utility.yul\":35206:35211   */\n      dup2\n        /* \"#utility.yul\":35203:35237   */\n      eq\n        /* \"#utility.yul\":35193:35255   */\n      tag_800\n      jumpi\n        /* \"#utility.yul\":35251:35252   */\n      0x00\n        /* \"#utility.yul\":35248:35249   */\n      dup1\n        /* \"#utility.yul\":35241:35253   */\n      revert\n        /* \"#utility.yul\":35193:35255   */\n    tag_800:\n        /* \"#utility.yul\":35141:35261   */\n      pop\n      jump\t// out\n        /* \"#utility.yul\":35267:35389   */\n    tag_497:\n        /* \"#utility.yul\":35340:35364   */\n      tag_802\n        /* \"#utility.yul\":35358:35363   */\n      dup2\n        /* \"#utility.yul\":35340:35364   */\n      tag_671\n      jump\t// in\n    tag_802:\n        /* \"#utility.yul\":35333:35338   */\n      dup2\n        /* \"#utility.yul\":35330:35365   */\n      eq\n        /* \"#utility.yul\":35320:35383   */\n      tag_803\n      jumpi\n        /* \"#utility.yul\":35379:35380   */\n      0x00\n        /* \"#utility.yul\":35376:35377   */\n      dup1\n        /* \"#utility.yul\":35369:35381   */\n      revert\n        /* \"#utility.yul\":35320:35383   */\n    tag_803:\n        /* \"#utility.yul\":35267:35389   */\n      pop\n      jump\t// out\n\n    auxdata: 0xa2646970667358221220e83e27167cf21b9de5db2998ed913dc679cb1d348909dae0d89d358e9262989764736f6c63430008070033\n}\n",
				"bytecode": {
					"linkReferences": {},
					"object": "608060405234801561001057600080fd5b5061377e806100206000396000f3fe6080604052600436106100a75760003560e01c8063365b98b211610064578063365b98b2146101d35780637acc0b2014610216578063a14595ca14610258578063e2dc35e014610281578063f8b2cb4f146102be578063fc99cc3b146102fb576100a7565b80630a46516b146100ac57806312065fe0146100e95780631d9faa111461011457806327e235e3146101515780632f4e17041461018e578063362d07dc146101b7575b600080fd5b3480156100b857600080fd5b506100d360048036038101906100ce9190612807565b610338565b6040516100e09190613208565b60405180910390f35b3480156100f557600080fd5b506100fe610359565b60405161010b9190613208565b60405180910390f35b34801561012057600080fd5b5061013b60048036038101906101369190612bee565b610361565b60405161014891906131cb565b60405180910390f35b34801561015d57600080fd5b5061017860048036038101906101739190612807565b610bff565b6040516101859190613208565b60405180910390f35b34801561019a57600080fd5b506101b560048036038101906101b091906128bd565b610c17565b005b6101d160048036038101906101cc9190612874565b610e7d565b005b3480156101df57600080fd5b506101fa60048036038101906101f59190612bc1565b610f00565b60405161020d9796959493929190613139565b60405180910390f35b34801561022257600080fd5b5061023d60048036038101906102389190612bc1565b61121a565b60405161024f96959493929190613223565b60405180910390f35b34801561026457600080fd5b5061027f600480360381019061027a91906129ed565b61183d565b005b34801561028d57600080fd5b506102a860048036038101906102a39190612834565b611b15565b6040516102b591906131cb565b60405180910390f35b3480156102ca57600080fd5b506102e560048036038101906102e09190612807565b611be6565b6040516102f29190613208565b60405180910390f35b34801561030757600080fd5b50610322600480360381019061031d9190612bc1565b611c2f565b60405161032f91906131e6565b60405180910390f35b60008173ffffffffffffffffffffffffffffffffffffffff16319050919050565b600047905090565b6000808314158015610398575081600084815481106103835761038261367b565b5b90600052602060002090600d02016004015410155b15610bf457600082600085815481106103b4576103b361367b565b5b90600052602060002090600d0201600301546103d0919061344f565b9050610421600085815481106103e9576103e861367b565b5b90600052602060002090600d020160010160009054906101000a900473ffffffffffffffffffffffffffffffffffffffff1682611b15565b61042f576000915050610bf9565b82600085815481106104445761044361367b565b5b90600052602060002090600d0201600401600082825461046491906134a9565b92505081905550610b64600085815481106104825761048161367b565b5b90600052602060002090600d0201600201805461049e90613571565b80601f01602080910402602001604051908101604052809291908181526020018280546104ca90613571565b80156105175780601f106104ec57610100808354040283529160200191610517565b820191906000526020600020905b8154815290600101906020018083116104fa57829003601f168201915b5050505050600086815481106105305761052f61367b565b5b90600052602060002090600d02016003015485600088815481106105575761055661367b565b5b90600052602060002090600d0201600501600001805461057690613571565b80601f01602080910402602001604051908101604052809291908181526020018280546105a290613571565b80156105ef5780601f106105c4576101008083540402835291602001916105ef565b820191906000526020600020905b8154815290600101906020018083116105d257829003601f168201915b5050505050600089815481106106085761060761367b565b5b90600052602060002090600d0201600501600101805461062790613571565b80601f016020809104026020016040519081016040528092919081815260200182805461065390613571565b80156106a05780601f10610675576101008083540402835291602001916106a0565b820191906000526020600020905b81548152906001019060200180831161068357829003601f168201915b505050505060008a815481106106b9576106b861367b565b5b90600052602060002090600d02016005016002015460008b815481106106e2576106e161367b565b5b90600052602060002090600d0201600501600301805480602002602001604051908101604052809291908181526020016000905b828210156107c257838290600052602060002001805461073590613571565b80601f016020809104026020016040519081016040528092919081815260200182805461076190613571565b80156107ae5780601f10610783576101008083540402835291602001916107ae565b820191906000526020600020905b81548152906001019060200180831161079157829003601f168201915b505050505081526020019060010190610716565b5050505060008c815481106107da576107d961367b565b5b90600052602060002090600d0201600501600401805480602002602001604051908101604052809291908181526020016000905b828210156108ba57838290600052602060002001805461082d90613571565b80601f016020809104026020016040519081016040528092919081815260200182805461085990613571565b80156108a65780601f1061087b576101008083540402835291602001916108a6565b820191906000526020600020905b81548152906001019060200180831161088957829003601f168201915b50505050508152602001906001019061080e565b5050505060008d815481106108d2576108d161367b565b5b90600052602060002090600d0201600501600501805480602002602001604051908101604052809291908181526020016000905b828210156109b257838290600052602060002001805461092590613571565b80601f016020809104026020016040519081016040528092919081815260200182805461095190613571565b801561099e5780601f106109735761010080835404028352916020019161099e565b820191906000526020600020905b81548152906001019060200180831161098157829003601f168201915b505050505081526020019060010190610906565b5050505060008e815481106109ca576109c961367b565b5b90600052602060002090600d020160050160060180546109e990613571565b80601f0160208091040260200160405190810160405280929190818152602001828054610a1590613571565b8015610a625780601f10610a3757610100808354040283529160200191610a62565b820191906000526020600020905b815481529060010190602001808311610a4557829003601f168201915b505050505060008f81548110610a7b57610a7a61367b565b5b90600052602060002090600d0201600501600701805480602002602001604051908101604052809291908181526020016000905b82821015610b5b578382906000526020600020018054610ace90613571565b80601f0160208091040260200160405190810160405280929190818152602001828054610afa90613571565b8015610b475780601f10610b1c57610100808354040283529160200191610b47565b820191906000526020600020905b815481529060010190602001808311610b2a57829003601f168201915b505050505081526020019060010190610aaf565b5050505061183d565b7f75f416a1740de68a6376bad70148558f2da14b6cf24e78547c6a73c9d68c0bd73360008681548110610b9a57610b9961367b565b5b90600052602060002090600d020160010160009054906101000a900473ffffffffffffffffffffffffffffffffffffffff1686848742604051610be296959493929190613036565b60405180910390a16001915050610bf9565b600090505b92915050565b60026020528060005260406000206000915090505481565b610c1f6122aa565b33816000019073ffffffffffffffffffffffffffffffffffffffff16908173ffffffffffffffffffffffffffffffffffffffff1681525050868160200181905250858160600181905250848160800181905250838160a001818152505060005b600c811015610cd3578381600c8110610c9b57610c9a61367b565b5b60200201518260c0015182600c8110610cb757610cb661367b565b5b6020020181815250508080610ccb906135d4565b915050610c7f565b50818160e00181905250878160400181905250600181908060018154018082558091505060019003906000526020600020906013020160009091909190915060008201518160000160006101000a81548173ffffffffffffffffffffffffffffffffffffffff021916908373ffffffffffffffffffffffffffffffffffffffff1602179055506020820151816001019080519060200190610d7592919061230b565b506040820151816002019080519060200190610d9292919061230b565b506060820151816003019080519060200190610daf92919061230b565b506080820151816004019080519060200190610dcc92919061230b565b5060a0820151816005015560c08201518160060190600c610dee929190612391565b5060e0820151816012019080519060200190610e0b92919061230b565b5050507fc4aa35700f4a2a5a56437570881086dfe5553f60cd3c6b59a61c4b9036e34f1b816000015182602001518360400151846060015185608001518660a001518760c001518860e00151604051610e6b989796959493929190613097565b60405180910390a15050505050505050565b60005b8151811015610efc5761271060026000848481518110610ea357610ea261367b565b5b602002602001015173ffffffffffffffffffffffffffffffffffffffff1673ffffffffffffffffffffffffffffffffffffffff168152602001908152602001600020819055508080610ef4906135d4565b915050610e80565b5050565b60018181548110610f1057600080fd5b90600052602060002090601302016000915090508060000160009054906101000a900473ffffffffffffffffffffffffffffffffffffffff1690806001018054610f5990613571565b80601f0160208091040260200160405190810160405280929190818152602001828054610f8590613571565b8015610fd25780601f10610fa757610100808354040283529160200191610fd2565b820191906000526020600020905b815481529060010190602001808311610fb557829003601f168201915b505050505090806002018054610fe790613571565b80601f016020809104026020016040519081016040528092919081815260200182805461101390613571565b80156110605780601f1061103557610100808354040283529160200191611060565b820191906000526020600020905b81548152906001019060200180831161104357829003601f168201915b50505050509080600301805461107590613571565b80601f01602080910402602001604051908101604052809291908181526020018280546110a190613571565b80156110ee5780601f106110c3576101008083540402835291602001916110ee565b820191906000526020600020905b8154815290600101906020018083116110d157829003601f168201915b50505050509080600401805461110390613571565b80601f016020809104026020016040519081016040528092919081815260200182805461112f90613571565b801561117c5780601f106111515761010080835404028352916020019161117c565b820191906000526020600020905b81548152906001019060200180831161115f57829003601f168201915b50505050509080600501549080601201805461119790613571565b80601f01602080910402602001604051908101604052809291908181526020018280546111c390613571565b80156112105780601f106111e557610100808354040283529160200191611210565b820191906000526020600020905b8154815290600101906020018083116111f357829003601f168201915b5050505050905087565b6000818154811061122a57600080fd5b90600052602060002090600d02016000915090508060000154908060010160009054906101000a900473ffffffffffffffffffffffffffffffffffffffff169080600201805461127990613571565b80601f01602080910402602001604051908101604052809291908181526020018280546112a590613571565b80156112f25780601f106112c7576101008083540402835291602001916112f2565b820191906000526020600020905b8154815290600101906020018083116112d557829003601f168201915b505050505090806003015490806004015490806005016040518061010001604052908160008201805461132490613571565b80601f016020809104026020016040519081016040528092919081815260200182805461135090613571565b801561139d5780601f106113725761010080835404028352916020019161139d565b820191906000526020600020905b81548152906001019060200180831161138057829003601f168201915b505050505081526020016001820180546113b690613571565b80601f01602080910402602001604051908101604052809291908181526020018280546113e290613571565b801561142f5780601f106114045761010080835404028352916020019161142f565b820191906000526020600020905b81548152906001019060200180831161141257829003601f168201915b505050505081526020016002820154815260200160038201805480602002602001604051908101604052809291908181526020016000905b8282101561151357838290600052602060002001805461148690613571565b80601f01602080910402602001604051908101604052809291908181526020018280546114b290613571565b80156114ff5780601f106114d4576101008083540402835291602001916114ff565b820191906000526020600020905b8154815290600101906020018083116114e257829003601f168201915b505050505081526020019060010190611467565b50505050815260200160048201805480602002602001604051908101604052809291908181526020016000905b828210156115ec57838290600052602060002001805461155f90613571565b80601f016020809104026020016040519081016040528092919081815260200182805461158b90613571565b80156115d85780601f106115ad576101008083540402835291602001916115d8565b820191906000526020600020905b8154815290600101906020018083116115bb57829003601f168201915b505050505081526020019060010190611540565b50505050815260200160058201805480602002602001604051908101604052809291908181526020016000905b828210156116c557838290600052602060002001805461163890613571565b80601f016020809104026020016040519081016040528092919081815260200182805461166490613571565b80156116b15780601f10611686576101008083540402835291602001916116b1565b820191906000526020600020905b81548152906001019060200180831161169457829003601f168201915b505050505081526020019060010190611619565b5050505081526020016006820180546116dd90613571565b80601f016020809104026020016040519081016040528092919081815260200182805461170990613571565b80156117565780601f1061172b57610100808354040283529160200191611756565b820191906000526020600020905b81548152906001019060200180831161173957829003601f168201915b5050505050815260200160078201805480602002602001604051908101604052809291908181526020016000905b828210156118305783829060005260206000200180546117a390613571565b80601f01602080910402602001604051908101604052809291908181526020018280546117cf90613571565b801561181c5780601f106117f15761010080835404028352916020019161181c565b820191906000526020600020905b8154815290600101906020018083116117ff57829003601f168201915b505050505081526020019060010190611784565b5050505081525050905086565b6118456123d1565b600160008054905061185791906133f9565b81600001818152505033816020019073ffffffffffffffffffffffffffffffffffffffff16908173ffffffffffffffffffffffffffffffffffffffff16815250508b81604001819052508a81606001818152505089816080018181525050888160a0015160000181905250878160a0015160200181905250868160a001516040018181525050858160a0015160600181905250848160a0015160800181905250838160a0015160a00181905250828160a0015160c00181905250818160a0015160e0018190525060008190806001815401808255809150506001900390600052602060002090600d02016000909190919091506000820151816000015560208201518160010160006101000a81548173ffffffffffffffffffffffffffffffffffffffff021916908373ffffffffffffffffffffffffffffffffffffffff16021790555060408201518160020190805190602001906119b792919061230b565b50606082015181600301556080820151816004015560a08201518160050160008201518160000190805190602001906119f192919061230b565b506020820151816001019080519060200190611a0e92919061230b565b50604082015181600201556060820151816003019080519060200190611a35929190612423565b506080820151816004019080519060200190611a52929190612423565b5060a0820151816005019080519060200190611a6f929190612423565b5060c0820151816006019080519060200190611a8c92919061230b565b5060e0820151816007019080519060200190611aa9929190612423565b50505050507fb7638ec6afb0cbba7f8b3557736034abdc74dad72cab8df4feb527ef815c4b1b816000015182602001518360400151846060015185608001518660a00151604051611aff96959493929190613223565b60405180910390a1505050505050505050505050565b600081611b2133611be6565b10611bdb5781600260003373ffffffffffffffffffffffffffffffffffffffff1673ffffffffffffffffffffffffffffffffffffffff1681526020019081526020016000206000828254611b7591906134a9565b9250508190555081600260008573ffffffffffffffffffffffffffffffffffffffff1673ffffffffffffffffffffffffffffffffffffffff1681526020019081526020016000206000828254611bcb91906133f9565b9250508190555060019050611be0565b600090505b92915050565b6000600260008373ffffffffffffffffffffffffffffffffffffffff1673ffffffffffffffffffffffffffffffffffffffff168152602001908152602001600020549050919050565b611c376123d1565b60008281548110611c4b57611c4a61367b565b5b90600052602060002090600d02016040518060c0016040529081600082015481526020016001820160009054906101000a900473ffffffffffffffffffffffffffffffffffffffff1673ffffffffffffffffffffffffffffffffffffffff1673ffffffffffffffffffffffffffffffffffffffff168152602001600282018054611cd490613571565b80601f0160208091040260200160405190810160405280929190818152602001828054611d0090613571565b8015611d4d5780601f10611d2257610100808354040283529160200191611d4d565b820191906000526020600020905b815481529060010190602001808311611d3057829003601f168201915b5050505050815260200160038201548152602001600482015481526020016005820160405180610100016040529081600082018054611d8b90613571565b80601f0160208091040260200160405190810160405280929190818152602001828054611db790613571565b8015611e045780601f10611dd957610100808354040283529160200191611e04565b820191906000526020600020905b815481529060010190602001808311611de757829003601f168201915b50505050508152602001600182018054611e1d90613571565b80601f0160208091040260200160405190810160405280929190818152602001828054611e4990613571565b8015611e965780601f10611e6b57610100808354040283529160200191611e96565b820191906000526020600020905b815481529060010190602001808311611e7957829003601f168201915b505050505081526020016002820154815260200160038201805480602002602001604051908101604052809291908181526020016000905b82821015611f7a578382906000526020600020018054611eed90613571565b80601f0160208091040260200160405190810160405280929190818152602001828054611f1990613571565b8015611f665780601f10611f3b57610100808354040283529160200191611f66565b820191906000526020600020905b815481529060010190602001808311611f4957829003601f168201915b505050505081526020019060010190611ece565b50505050815260200160048201805480602002602001604051908101604052809291908181526020016000905b82821015612053578382906000526020600020018054611fc690613571565b80601f0160208091040260200160405190810160405280929190818152602001828054611ff290613571565b801561203f5780601f106120145761010080835404028352916020019161203f565b820191906000526020600020905b81548152906001019060200180831161202257829003601f168201915b505050505081526020019060010190611fa7565b50505050815260200160058201805480602002602001604051908101604052809291908181526020016000905b8282101561212c57838290600052602060002001805461209f90613571565b80601f01602080910402602001604051908101604052809291908181526020018280546120cb90613571565b80156121185780601f106120ed57610100808354040283529160200191612118565b820191906000526020600020905b8154815290600101906020018083116120fb57829003601f168201915b505050505081526020019060010190612080565b50505050815260200160068201805461214490613571565b80601f016020809104026020016040519081016040528092919081815260200182805461217090613571565b80156121bd5780601f10612192576101008083540402835291602001916121bd565b820191906000526020600020905b8154815290600101906020018083116121a057829003601f168201915b5050505050815260200160078201805480602002602001604051908101604052809291908181526020016000905b8282101561229757838290600052602060002001805461220a90613571565b80601f016020809104026020016040519081016040528092919081815260200182805461223690613571565b80156122835780601f1061225857610100808354040283529160200191612283565b820191906000526020600020905b81548152906001019060200180831161226657829003601f168201915b5050505050815260200190600101906121eb565b5050505081525050815250509050919050565b604051806101000160405280600073ffffffffffffffffffffffffffffffffffffffff16815260200160608152602001606081526020016060815260200160608152602001600081526020016122fe612483565b8152602001606081525090565b82805461231790613571565b90600052602060002090601f0160209004810192826123395760008555612380565b82601f1061235257805160ff1916838001178555612380565b82800160010185558215612380579182015b8281111561237f578251825591602001919060010190612364565b5b50905061238d91906124a6565b5090565b82600c81019282156123c0579160200282015b828111156123bf5782518255916020019190600101906123a4565b5b5090506123cd91906124a6565b5090565b6040518060c0016040528060008152602001600073ffffffffffffffffffffffffffffffffffffffff16815260200160608152602001600081526020016000815260200161241d6124c3565b81525090565b828054828255906000526020600020908101928215612472579160200282015b8281111561247157825182908051906020019061246192919061230b565b5091602001919060010190612443565b5b50905061247f9190612508565b5090565b604051806101800160405280600c90602082028036833780820191505090505090565b5b808211156124bf5760008160009055506001016124a7565b5090565b60405180610100016040528060608152602001606081526020016000815260200160608152602001606081526020016060815260200160608152602001606081525090565b5b80821115612528576000818161251f919061252c565b50600101612509565b5090565b50805461253890613571565b6000825580601f1061254a5750612569565b601f01602090049060005260206000209081019061256891906124a6565b5b50565b600061257f61257a846132b7565b613292565b905080838252602082019050828560208602820111156125a2576125a16136de565b5b60005b858110156125d257816125b88882612713565b8452602084019350602083019250506001810190506125a5565b5050509392505050565b60006125ef6125ea846132e3565b613292565b90508083825260208201905082856020860282011115612612576126116136de565b5b60005b8581101561266057813567ffffffffffffffff811115612638576126376136d9565b5b80860161264589826127c4565b85526020850194506020840193505050600181019050612615565b5050509392505050565b600061267d6126788461330f565b613292565b90508082856020860282011115612697576126966136de565b5b60005b858110156126c757816126ad88826127f2565b84526020840193506020830192505060018101905061269a565b5050509392505050565b60006126e46126df84613335565b613292565b905082815260208101848484011115612700576126ff6136e3565b5b61270b84828561352f565b509392505050565b60008135905061272281613703565b92915050565b600082601f83011261273d5761273c6136d9565b5b813561274d84826020860161256c565b91505092915050565b600082601f83011261276b5761276a6136d9565b5b813561277b8482602086016125dc565b91505092915050565b600082601f830112612799576127986136d9565b5b600c6127a684828561266a565b91505092915050565b6000813590506127be8161371a565b92915050565b600082601f8301126127d9576127d86136d9565b5b81356127e98482602086016126d1565b91505092915050565b60008135905061280181613731565b92915050565b60006020828403121561281d5761281c6136ed565b5b600061282b84828501612713565b91505092915050565b6000806040838503121561284b5761284a6136ed565b5b600061285985828601612713565b925050602061286a858286016127f2565b9150509250929050565b60006020828403121561288a576128896136ed565b5b600082013567ffffffffffffffff8111156128a8576128a76136e8565b5b6128b484828501612728565b91505092915050565b6000806000806000806000610240888a0312156128dd576128dc6136ed565b5b600088013567ffffffffffffffff8111156128fb576128fa6136e8565b5b6129078a828b016127c4565b975050602088013567ffffffffffffffff811115612928576129276136e8565b5b6129348a828b016127c4565b965050604088013567ffffffffffffffff811115612955576129546136e8565b5b6129618a828b016127c4565b955050606088013567ffffffffffffffff811115612982576129816136e8565b5b61298e8a828b016127c4565b945050608061299f8a828b016127f2565b93505060a06129b08a828b01612784565b92505061022088013567ffffffffffffffff8111156129d2576129d16136e8565b5b6129de8a828b016127c4565b91505092959891949750929550565b60008060008060008060008060008060006101608c8e031215612a1357612a126136ed565b5b60008c013567ffffffffffffffff811115612a3157612a306136e8565b5b612a3d8e828f016127c4565b9b50506020612a4e8e828f016127f2565b9a50506040612a5f8e828f016127f2565b99505060608c013567ffffffffffffffff811115612a8057612a7f6136e8565b5b612a8c8e828f016127c4565b98505060808c013567ffffffffffffffff811115612aad57612aac6136e8565b5b612ab98e828f016127c4565b97505060a0612aca8e828f016127af565b96505060c08c013567ffffffffffffffff811115612aeb57612aea6136e8565b5b612af78e828f01612756565b95505060e08c013567ffffffffffffffff811115612b1857612b176136e8565b5b612b248e828f01612756565b9450506101008c013567ffffffffffffffff811115612b4657612b456136e8565b5b612b528e828f01612756565b9350506101208c013567ffffffffffffffff811115612b7457612b736136e8565b5b612b808e828f016127c4565b9250506101408c013567ffffffffffffffff811115612ba257612ba16136e8565b5b612bae8e828f01612756565b9150509295989b509295989b9093969950565b600060208284031215612bd757612bd66136ed565b5b6000612be5848285016127f2565b91505092915050565b60008060408385031215612c0557612c046136ed565b5b6000612c13858286016127f2565b9250506020612c24858286016127f2565b9150509250929050565b6000612c3a8383612d62565b905092915050565b6000612c4e8383613018565b60208301905092915050565b612c63816134dd565b82525050565b612c72816134dd565b82525050565b6000612c8382613380565b612c8d81856133bb565b935083602082028501612c9f85613366565b8060005b85811015612cdb5784840389528151612cbc8582612c2e565b9450612cc7836133a1565b925060208a01995050600181019050612ca3565b50829750879550505050505092915050565b612cf68161338b565b612d0081846133cc565b9250612d0b82613376565b8060005b83811015612d3c578151612d238782612c42565b9650612d2e836133ae565b925050600181019050612d0f565b505050505050565b612d4d816134ef565b82525050565b612d5c816134fb565b82525050565b6000612d6d82613396565b612d7781856133d7565b9350612d8781856020860161353e565b612d90816136f2565b840191505092915050565b6000612da682613396565b612db081856133e8565b9350612dc081856020860161353e565b612dc9816136f2565b840191505092915050565b6000610100830160008301518482036000860152612df28282612d62565b91505060208301518482036020860152612e0c8282612d62565b9150506040830151612e216040860182612d53565b5060608301518482036060860152612e398282612c78565b91505060808301518482036080860152612e538282612c78565b91505060a083015184820360a0860152612e6d8282612c78565b91505060c083015184820360c0860152612e878282612d62565b91505060e083015184820360e0860152612ea18282612c78565b9150508091505092915050565b6000610100830160008301518482036000860152612ecc8282612d62565b91505060208301518482036020860152612ee68282612d62565b9150506040830151612efb6040860182612d53565b5060608301518482036060860152612f138282612c78565b91505060808301518482036080860152612f2d8282612c78565b91505060a083015184820360a0860152612f478282612c78565b91505060c083015184820360c0860152612f618282612d62565b91505060e083015184820360e0860152612f7b8282612c78565b9150508091505092915050565b600060c083016000830151612fa06000860182613018565b506020830151612fb36020860182612c5a565b5060408301518482036040860152612fcb8282612d62565b9150506060830151612fe06060860182613018565b506080830151612ff36080860182613018565b5060a083015184820360a086015261300b8282612dd4565b9150508091505092915050565b61302181613525565b82525050565b61303081613525565b82525050565b600060c08201905061304b6000830189612c69565b6130586020830188612c69565b6130656040830187613027565b6130726060830186613027565b61307f6080830185613027565b61308c60a0830184613027565b979650505050505050565b6000610260820190506130ad600083018b612c69565b81810360208301526130bf818a612d9b565b905081810360408301526130d38189612d9b565b905081810360608301526130e78188612d9b565b905081810360808301526130fb8187612d9b565b905061310a60a0830186613027565b61311760c0830185612ced565b81810361024083015261312a8184612d9b565b90509998505050505050505050565b600060e08201905061314e600083018a612c69565b81810360208301526131608189612d9b565b905081810360408301526131748188612d9b565b905081810360608301526131888187612d9b565b9050818103608083015261319c8186612d9b565b90506131ab60a0830185613027565b81810360c08301526131bd8184612d9b565b905098975050505050505050565b60006020820190506131e06000830184612d44565b92915050565b600060208201905081810360008301526132008184612f88565b905092915050565b600060208201905061321d6000830184613027565b92915050565b600060c0820190506132386000830189613027565b6132456020830188612c69565b81810360408301526132578187612d9b565b90506132666060830186613027565b6132736080830185613027565b81810360a08301526132858184612eae565b9050979650505050505050565b600061329c6132ad565b90506132a882826135a3565b919050565b6000604051905090565b600067ffffffffffffffff8211156132d2576132d16136aa565b5b602082029050602081019050919050565b600067ffffffffffffffff8211156132fe576132fd6136aa565b5b602082029050602081019050919050565b600067ffffffffffffffff82111561332a576133296136aa565b5b602082029050919050565b600067ffffffffffffffff8211156133505761334f6136aa565b5b613359826136f2565b9050602081019050919050565b6000819050602082019050919050565b6000819050919050565b600081519050919050565b6000600c9050919050565b600081519050919050565b6000602082019050919050565b6000602082019050919050565b600082825260208201905092915050565b600081905092915050565b600082825260208201905092915050565b600082825260208201905092915050565b600061340482613525565b915061340f83613525565b9250827fffffffffffffffffffffffffffffffffffffffffffffffffffffffffffffffff038211156134445761344361361d565b5b828201905092915050565b600061345a82613525565b915061346583613525565b9250817fffffffffffffffffffffffffffffffffffffffffffffffffffffffffffffffff048311821515161561349e5761349d61361d565b5b828202905092915050565b60006134b482613525565b91506134bf83613525565b9250828210156134d2576134d161361d565b5b828203905092915050565b60006134e882613505565b9050919050565b60008115159050919050565b6000819050919050565b600073ffffffffffffffffffffffffffffffffffffffff82169050919050565b6000819050919050565b82818337600083830152505050565b60005b8381101561355c578082015181840152602081019050613541565b8381111561356b576000848401525b50505050565b6000600282049050600182168061358957607f821691505b6020821081141561359d5761359c61364c565b5b50919050565b6135ac826136f2565b810181811067ffffffffffffffff821117156135cb576135ca6136aa565b5b80604052505050565b60006135df82613525565b91507fffffffffffffffffffffffffffffffffffffffffffffffffffffffffffffffff8214156136125761361161361d565b5b600182019050919050565b7f4e487b7100000000000000000000000000000000000000000000000000000000600052601160045260246000fd5b7f4e487b7100000000000000000000000000000000000000000000000000000000600052602260045260246000fd5b7f4e487b7100000000000000000000000000000000000000000000000000000000600052603260045260246000fd5b7f4e487b7100000000000000000000000000000000000000000000000000000000600052604160045260246000fd5b600080fd5b600080fd5b600080fd5b600080fd5b600080fd5b6000601f19601f8301169050919050565b61370c816134dd565b811461371757600080fd5b50565b613723816134fb565b811461372e57600080fd5b50565b61373a81613525565b811461374557600080fd5b5056fea2646970667358221220e83e27167cf21b9de5db2998ed913dc679cb1d348909dae0d89d358e9262989764736f6c63430008070033",
					"opcodes": "PUSH1 0x80 PUSH1 0x40 MSTORE CALLVALUE DUP1 ISZERO PUSH2 0x10 JUMPI PUSH1 0x0 DUP1 REVERT JUMPDEST POP PUSH2 0x377E DUP1 PUSH2 0x20 PUSH1 0x0 CODECOPY PUSH1 0x0 RETURN INVALID PUSH1 0x80 PUSH1 0x40 MSTORE PUSH1 0x4 CALLDATASIZE LT PUSH2 0xA7 JUMPI PUSH1 0x0 CALLDATALOAD PUSH1 0xE0 SHR DUP1 PUSH4 0x365B98B2 GT PUSH2 0x64 JUMPI DUP1 PUSH4 0x365B98B2 EQ PUSH2 0x1D3 JUMPI DUP1 PUSH4 0x7ACC0B20 EQ PUSH2 0x216 JUMPI DUP1 PUSH4 0xA14595CA EQ PUSH2 0x258 JUMPI DUP1 PUSH4 0xE2DC35E0 EQ PUSH2 0x281 JUMPI DUP1 PUSH4 0xF8B2CB4F EQ PUSH2 0x2BE JUMPI DUP1 PUSH4 0xFC99CC3B EQ PUSH2 0x2FB JUMPI PUSH2 0xA7 JUMP JUMPDEST DUP1 PUSH4 0xA46516B EQ PUSH2 0xAC JUMPI DUP1 PUSH4 0x12065FE0 EQ PUSH2 0xE9 JUMPI DUP1 PUSH4 0x1D9FAA11 EQ PUSH2 0x114 JUMPI DUP1 PUSH4 0x27E235E3 EQ PUSH2 0x151 JUMPI DUP1 PUSH4 0x2F4E1704 EQ PUSH2 0x18E JUMPI DUP1 PUSH4 0x362D07DC EQ PUSH2 0x1B7 JUMPI JUMPDEST PUSH1 0x0 DUP1 REVERT JUMPDEST CALLVALUE DUP1 ISZERO PUSH2 0xB8 JUMPI PUSH1 0x0 DUP1 REVERT JUMPDEST POP PUSH2 0xD3 PUSH1 0x4 DUP1 CALLDATASIZE SUB DUP2 ADD SWAP1 PUSH2 0xCE SWAP2 SWAP1 PUSH2 0x2807 JUMP JUMPDEST PUSH2 0x338 JUMP JUMPDEST PUSH1 0x40 MLOAD PUSH2 0xE0 SWAP2 SWAP1 PUSH2 0x3208 JUMP JUMPDEST PUSH1 0x40 MLOAD DUP1 SWAP2 SUB SWAP1 RETURN JUMPDEST CALLVALUE DUP1 ISZERO PUSH2 0xF5 JUMPI PUSH1 0x0 DUP1 REVERT JUMPDEST POP PUSH2 0xFE PUSH2 0x359 JUMP JUMPDEST PUSH1 0x40 MLOAD PUSH2 0x10B SWAP2 SWAP1 PUSH2 0x3208 JUMP JUMPDEST PUSH1 0x40 MLOAD DUP1 SWAP2 SUB SWAP1 RETURN JUMPDEST CALLVALUE DUP1 ISZERO PUSH2 0x120 JUMPI PUSH1 0x0 DUP1 REVERT JUMPDEST POP PUSH2 0x13B PUSH1 0x4 DUP1 CALLDATASIZE SUB DUP2 ADD SWAP1 PUSH2 0x136 SWAP2 SWAP1 PUSH2 0x2BEE JUMP JUMPDEST PUSH2 0x361 JUMP JUMPDEST PUSH1 0x40 MLOAD PUSH2 0x148 SWAP2 SWAP1 PUSH2 0x31CB JUMP JUMPDEST PUSH1 0x40 MLOAD DUP1 SWAP2 SUB SWAP1 RETURN JUMPDEST CALLVALUE DUP1 ISZERO PUSH2 0x15D JUMPI PUSH1 0x0 DUP1 REVERT JUMPDEST POP PUSH2 0x178 PUSH1 0x4 DUP1 CALLDATASIZE SUB DUP2 ADD SWAP1 PUSH2 0x173 SWAP2 SWAP1 PUSH2 0x2807 JUMP JUMPDEST PUSH2 0xBFF JUMP JUMPDEST PUSH1 0x40 MLOAD PUSH2 0x185 SWAP2 SWAP1 PUSH2 0x3208 JUMP JUMPDEST PUSH1 0x40 MLOAD DUP1 SWAP2 SUB SWAP1 RETURN JUMPDEST CALLVALUE DUP1 ISZERO PUSH2 0x19A JUMPI PUSH1 0x0 DUP1 REVERT JUMPDEST POP PUSH2 0x1B5 PUSH1 0x4 DUP1 CALLDATASIZE SUB DUP2 ADD SWAP1 PUSH2 0x1B0 SWAP2 SWAP1 PUSH2 0x28BD JUMP JUMPDEST PUSH2 0xC17 JUMP JUMPDEST STOP JUMPDEST PUSH2 0x1D1 PUSH1 0x4 DUP1 CALLDATASIZE SUB DUP2 ADD SWAP1 PUSH2 0x1CC SWAP2 SWAP1 PUSH2 0x2874 JUMP JUMPDEST PUSH2 0xE7D JUMP JUMPDEST STOP JUMPDEST CALLVALUE DUP1 ISZERO PUSH2 0x1DF JUMPI PUSH1 0x0 DUP1 REVERT JUMPDEST POP PUSH2 0x1FA PUSH1 0x4 DUP1 CALLDATASIZE SUB DUP2 ADD SWAP1 PUSH2 0x1F5 SWAP2 SWAP1 PUSH2 0x2BC1 JUMP JUMPDEST PUSH2 0xF00 JUMP JUMPDEST PUSH1 0x40 MLOAD PUSH2 0x20D SWAP8 SWAP7 SWAP6 SWAP5 SWAP4 SWAP3 SWAP2 SWAP1 PUSH2 0x3139 JUMP JUMPDEST PUSH1 0x40 MLOAD DUP1 SWAP2 SUB SWAP1 RETURN JUMPDEST CALLVALUE DUP1 ISZERO PUSH2 0x222 JUMPI PUSH1 0x0 DUP1 REVERT JUMPDEST POP PUSH2 0x23D PUSH1 0x4 DUP1 CALLDATASIZE SUB DUP2 ADD SWAP1 PUSH2 0x238 SWAP2 SWAP1 PUSH2 0x2BC1 JUMP JUMPDEST PUSH2 0x121A JUMP JUMPDEST PUSH1 0x40 MLOAD PUSH2 0x24F SWAP7 SWAP6 SWAP5 SWAP4 SWAP3 SWAP2 SWAP1 PUSH2 0x3223 JUMP JUMPDEST PUSH1 0x40 MLOAD DUP1 SWAP2 SUB SWAP1 RETURN JUMPDEST CALLVALUE DUP1 ISZERO PUSH2 0x264 JUMPI PUSH1 0x0 DUP1 REVERT JUMPDEST POP PUSH2 0x27F PUSH1 0x4 DUP1 CALLDATASIZE SUB DUP2 ADD SWAP1 PUSH2 0x27A SWAP2 SWAP1 PUSH2 0x29ED JUMP JUMPDEST PUSH2 0x183D JUMP JUMPDEST STOP JUMPDEST CALLVALUE DUP1 ISZERO PUSH2 0x28D JUMPI PUSH1 0x0 DUP1 REVERT JUMPDEST POP PUSH2 0x2A8 PUSH1 0x4 DUP1 CALLDATASIZE SUB DUP2 ADD SWAP1 PUSH2 0x2A3 SWAP2 SWAP1 PUSH2 0x2834 JUMP JUMPDEST PUSH2 0x1B15 JUMP JUMPDEST PUSH1 0x40 MLOAD PUSH2 0x2B5 SWAP2 SWAP1 PUSH2 0x31CB JUMP JUMPDEST PUSH1 0x40 MLOAD DUP1 SWAP2 SUB SWAP1 RETURN JUMPDEST CALLVALUE DUP1 ISZERO PUSH2 0x2CA JUMPI PUSH1 0x0 DUP1 REVERT JUMPDEST POP PUSH2 0x2E5 PUSH1 0x4 DUP1 CALLDATASIZE SUB DUP2 ADD SWAP1 PUSH2 0x2E0 SWAP2 SWAP1 PUSH2 0x2807 JUMP JUMPDEST PUSH2 0x1BE6 JUMP JUMPDEST PUSH1 0x40 MLOAD PUSH2 0x2F2 SWAP2 SWAP1 PUSH2 0x3208 JUMP JUMPDEST PUSH1 0x40 MLOAD DUP1 SWAP2 SUB SWAP1 RETURN JUMPDEST CALLVALUE DUP1 ISZERO PUSH2 0x307 JUMPI PUSH1 0x0 DUP1 REVERT JUMPDEST POP PUSH2 0x322 PUSH1 0x4 DUP1 CALLDATASIZE SUB DUP2 ADD SWAP1 PUSH2 0x31D SWAP2 SWAP1 PUSH2 0x2BC1 JUMP JUMPDEST PUSH2 0x1C2F JUMP JUMPDEST PUSH1 0x40 MLOAD PUSH2 0x32F SWAP2 SWAP1 PUSH2 0x31E6 JUMP JUMPDEST PUSH1 0x40 MLOAD DUP1 SWAP2 SUB SWAP1 RETURN JUMPDEST PUSH1 0x0 DUP2 PUSH20 0xFFFFFFFFFFFFFFFFFFFFFFFFFFFFFFFFFFFFFFFF AND BALANCE SWAP1 POP SWAP2 SWAP1 POP JUMP JUMPDEST PUSH1 0x0 SELFBALANCE SWAP1 POP SWAP1 JUMP JUMPDEST PUSH1 0x0 DUP1 DUP4 EQ ISZERO DUP1 ISZERO PUSH2 0x398 JUMPI POP DUP2 PUSH1 0x0 DUP5 DUP2 SLOAD DUP2 LT PUSH2 0x383 JUMPI PUSH2 0x382 PUSH2 0x367B JUMP JUMPDEST JUMPDEST SWAP1 PUSH1 0x0 MSTORE PUSH1 0x20 PUSH1 0x0 KECCAK256 SWAP1 PUSH1 0xD MUL ADD PUSH1 0x4 ADD SLOAD LT ISZERO JUMPDEST ISZERO PUSH2 0xBF4 JUMPI PUSH1 0x0 DUP3 PUSH1 0x0 DUP6 DUP2 SLOAD DUP2 LT PUSH2 0x3B4 JUMPI PUSH2 0x3B3 PUSH2 0x367B JUMP JUMPDEST JUMPDEST SWAP1 PUSH1 0x0 MSTORE PUSH1 0x20 PUSH1 0x0 KECCAK256 SWAP1 PUSH1 0xD MUL ADD PUSH1 0x3 ADD SLOAD PUSH2 0x3D0 SWAP2 SWAP1 PUSH2 0x344F JUMP JUMPDEST SWAP1 POP PUSH2 0x421 PUSH1 0x0 DUP6 DUP2 SLOAD DUP2 LT PUSH2 0x3E9 JUMPI PUSH2 0x3E8 PUSH2 0x367B JUMP JUMPDEST JUMPDEST SWAP1 PUSH1 0x0 MSTORE PUSH1 0x20 PUSH1 0x0 KECCAK256 SWAP1 PUSH1 0xD MUL ADD PUSH1 0x1 ADD PUSH1 0x0 SWAP1 SLOAD SWAP1 PUSH2 0x100 EXP SWAP1 DIV PUSH20 0xFFFFFFFFFFFFFFFFFFFFFFFFFFFFFFFFFFFFFFFF AND DUP3 PUSH2 0x1B15 JUMP JUMPDEST PUSH2 0x42F JUMPI PUSH1 0x0 SWAP2 POP POP PUSH2 0xBF9 JUMP JUMPDEST DUP3 PUSH1 0x0 DUP6 DUP2 SLOAD DUP2 LT PUSH2 0x444 JUMPI PUSH2 0x443 PUSH2 0x367B JUMP JUMPDEST JUMPDEST SWAP1 PUSH1 0x0 MSTORE PUSH1 0x20 PUSH1 0x0 KECCAK256 SWAP1 PUSH1 0xD MUL ADD PUSH1 0x4 ADD PUSH1 0x0 DUP3 DUP3 SLOAD PUSH2 0x464 SWAP2 SWAP1 PUSH2 0x34A9 JUMP JUMPDEST SWAP3 POP POP DUP2 SWAP1 SSTORE POP PUSH2 0xB64 PUSH1 0x0 DUP6 DUP2 SLOAD DUP2 LT PUSH2 0x482 JUMPI PUSH2 0x481 PUSH2 0x367B JUMP JUMPDEST JUMPDEST SWAP1 PUSH1 0x0 MSTORE PUSH1 0x20 PUSH1 0x0 KECCAK256 SWAP1 PUSH1 0xD MUL ADD PUSH1 0x2 ADD DUP1 SLOAD PUSH2 0x49E SWAP1 PUSH2 0x3571 JUMP JUMPDEST DUP1 PUSH1 0x1F ADD PUSH1 0x20 DUP1 SWAP2 DIV MUL PUSH1 0x20 ADD PUSH1 0x40 MLOAD SWAP1 DUP2 ADD PUSH1 0x40 MSTORE DUP1 SWAP3 SWAP2 SWAP1 DUP2 DUP2 MSTORE PUSH1 0x20 ADD DUP3 DUP1 SLOAD PUSH2 0x4CA SWAP1 PUSH2 0x3571 JUMP JUMPDEST DUP1 ISZERO PUSH2 0x517 JUMPI DUP1 PUSH1 0x1F LT PUSH2 0x4EC JUMPI PUSH2 0x100 DUP1 DUP4 SLOAD DIV MUL DUP4 MSTORE SWAP2 PUSH1 0x20 ADD SWAP2 PUSH2 0x517 JUMP JUMPDEST DUP3 ADD SWAP2 SWAP1 PUSH1 0x0 MSTORE PUSH1 0x20 PUSH1 0x0 KECCAK256 SWAP1 JUMPDEST DUP2 SLOAD DUP2 MSTORE SWAP1 PUSH1 0x1 ADD SWAP1 PUSH1 0x20 ADD DUP1 DUP4 GT PUSH2 0x4FA JUMPI DUP3 SWAP1 SUB PUSH1 0x1F AND DUP3 ADD SWAP2 JUMPDEST POP POP POP POP POP PUSH1 0x0 DUP7 DUP2 SLOAD DUP2 LT PUSH2 0x530 JUMPI PUSH2 0x52F PUSH2 0x367B JUMP JUMPDEST JUMPDEST SWAP1 PUSH1 0x0 MSTORE PUSH1 0x20 PUSH1 0x0 KECCAK256 SWAP1 PUSH1 0xD MUL ADD PUSH1 0x3 ADD SLOAD DUP6 PUSH1 0x0 DUP9 DUP2 SLOAD DUP2 LT PUSH2 0x557 JUMPI PUSH2 0x556 PUSH2 0x367B JUMP JUMPDEST JUMPDEST SWAP1 PUSH1 0x0 MSTORE PUSH1 0x20 PUSH1 0x0 KECCAK256 SWAP1 PUSH1 0xD MUL ADD PUSH1 0x5 ADD PUSH1 0x0 ADD DUP1 SLOAD PUSH2 0x576 SWAP1 PUSH2 0x3571 JUMP JUMPDEST DUP1 PUSH1 0x1F ADD PUSH1 0x20 DUP1 SWAP2 DIV MUL PUSH1 0x20 ADD PUSH1 0x40 MLOAD SWAP1 DUP2 ADD PUSH1 0x40 MSTORE DUP1 SWAP3 SWAP2 SWAP1 DUP2 DUP2 MSTORE PUSH1 0x20 ADD DUP3 DUP1 SLOAD PUSH2 0x5A2 SWAP1 PUSH2 0x3571 JUMP JUMPDEST DUP1 ISZERO PUSH2 0x5EF JUMPI DUP1 PUSH1 0x1F LT PUSH2 0x5C4 JUMPI PUSH2 0x100 DUP1 DUP4 SLOAD DIV MUL DUP4 MSTORE SWAP2 PUSH1 0x20 ADD SWAP2 PUSH2 0x5EF JUMP JUMPDEST DUP3 ADD SWAP2 SWAP1 PUSH1 0x0 MSTORE PUSH1 0x20 PUSH1 0x0 KECCAK256 SWAP1 JUMPDEST DUP2 SLOAD DUP2 MSTORE SWAP1 PUSH1 0x1 ADD SWAP1 PUSH1 0x20 ADD DUP1 DUP4 GT PUSH2 0x5D2 JUMPI DUP3 SWAP1 SUB PUSH1 0x1F AND DUP3 ADD SWAP2 JUMPDEST POP POP POP POP POP PUSH1 0x0 DUP10 DUP2 SLOAD DUP2 LT PUSH2 0x608 JUMPI PUSH2 0x607 PUSH2 0x367B JUMP JUMPDEST JUMPDEST SWAP1 PUSH1 0x0 MSTORE PUSH1 0x20 PUSH1 0x0 KECCAK256 SWAP1 PUSH1 0xD MUL ADD PUSH1 0x5 ADD PUSH1 0x1 ADD DUP1 SLOAD PUSH2 0x627 SWAP1 PUSH2 0x3571 JUMP JUMPDEST DUP1 PUSH1 0x1F ADD PUSH1 0x20 DUP1 SWAP2 DIV MUL PUSH1 0x20 ADD PUSH1 0x40 MLOAD SWAP1 DUP2 ADD PUSH1 0x40 MSTORE DUP1 SWAP3 SWAP2 SWAP1 DUP2 DUP2 MSTORE PUSH1 0x20 ADD DUP3 DUP1 SLOAD PUSH2 0x653 SWAP1 PUSH2 0x3571 JUMP JUMPDEST DUP1 ISZERO PUSH2 0x6A0 JUMPI DUP1 PUSH1 0x1F LT PUSH2 0x675 JUMPI PUSH2 0x100 DUP1 DUP4 SLOAD DIV MUL DUP4 MSTORE SWAP2 PUSH1 0x20 ADD SWAP2 PUSH2 0x6A0 JUMP JUMPDEST DUP3 ADD SWAP2 SWAP1 PUSH1 0x0 MSTORE PUSH1 0x20 PUSH1 0x0 KECCAK256 SWAP1 JUMPDEST DUP2 SLOAD DUP2 MSTORE SWAP1 PUSH1 0x1 ADD SWAP1 PUSH1 0x20 ADD DUP1 DUP4 GT PUSH2 0x683 JUMPI DUP3 SWAP1 SUB PUSH1 0x1F AND DUP3 ADD SWAP2 JUMPDEST POP POP POP POP POP PUSH1 0x0 DUP11 DUP2 SLOAD DUP2 LT PUSH2 0x6B9 JUMPI PUSH2 0x6B8 PUSH2 0x367B JUMP JUMPDEST JUMPDEST SWAP1 PUSH1 0x0 MSTORE PUSH1 0x20 PUSH1 0x0 KECCAK256 SWAP1 PUSH1 0xD MUL ADD PUSH1 0x5 ADD PUSH1 0x2 ADD SLOAD PUSH1 0x0 DUP12 DUP2 SLOAD DUP2 LT PUSH2 0x6E2 JUMPI PUSH2 0x6E1 PUSH2 0x367B JUMP JUMPDEST JUMPDEST SWAP1 PUSH1 0x0 MSTORE PUSH1 0x20 PUSH1 0x0 KECCAK256 SWAP1 PUSH1 0xD MUL ADD PUSH1 0x5 ADD PUSH1 0x3 ADD DUP1 SLOAD DUP1 PUSH1 0x20 MUL PUSH1 0x20 ADD PUSH1 0x40 MLOAD SWAP1 DUP2 ADD PUSH1 0x40 MSTORE DUP1 SWAP3 SWAP2 SWAP1 DUP2 DUP2 MSTORE PUSH1 0x20 ADD PUSH1 0x0 SWAP1 JUMPDEST DUP3 DUP3 LT ISZERO PUSH2 0x7C2 JUMPI DUP4 DUP3 SWAP1 PUSH1 0x0 MSTORE PUSH1 0x20 PUSH1 0x0 KECCAK256 ADD DUP1 SLOAD PUSH2 0x735 SWAP1 PUSH2 0x3571 JUMP JUMPDEST DUP1 PUSH1 0x1F ADD PUSH1 0x20 DUP1 SWAP2 DIV MUL PUSH1 0x20 ADD PUSH1 0x40 MLOAD SWAP1 DUP2 ADD PUSH1 0x40 MSTORE DUP1 SWAP3 SWAP2 SWAP1 DUP2 DUP2 MSTORE PUSH1 0x20 ADD DUP3 DUP1 SLOAD PUSH2 0x761 SWAP1 PUSH2 0x3571 JUMP JUMPDEST DUP1 ISZERO PUSH2 0x7AE JUMPI DUP1 PUSH1 0x1F LT PUSH2 0x783 JUMPI PUSH2 0x100 DUP1 DUP4 SLOAD DIV MUL DUP4 MSTORE SWAP2 PUSH1 0x20 ADD SWAP2 PUSH2 0x7AE JUMP JUMPDEST DUP3 ADD SWAP2 SWAP1 PUSH1 0x0 MSTORE PUSH1 0x20 PUSH1 0x0 KECCAK256 SWAP1 JUMPDEST DUP2 SLOAD DUP2 MSTORE SWAP1 PUSH1 0x1 ADD SWAP1 PUSH1 0x20 ADD DUP1 DUP4 GT PUSH2 0x791 JUMPI DUP3 SWAP1 SUB PUSH1 0x1F AND DUP3 ADD SWAP2 JUMPDEST POP POP POP POP POP DUP2 MSTORE PUSH1 0x20 ADD SWAP1 PUSH1 0x1 ADD SWAP1 PUSH2 0x716 JUMP JUMPDEST POP POP POP POP PUSH1 0x0 DUP13 DUP2 SLOAD DUP2 LT PUSH2 0x7DA JUMPI PUSH2 0x7D9 PUSH2 0x367B JUMP JUMPDEST JUMPDEST SWAP1 PUSH1 0x0 MSTORE PUSH1 0x20 PUSH1 0x0 KECCAK256 SWAP1 PUSH1 0xD MUL ADD PUSH1 0x5 ADD PUSH1 0x4 ADD DUP1 SLOAD DUP1 PUSH1 0x20 MUL PUSH1 0x20 ADD PUSH1 0x40 MLOAD SWAP1 DUP2 ADD PUSH1 0x40 MSTORE DUP1 SWAP3 SWAP2 SWAP1 DUP2 DUP2 MSTORE PUSH1 0x20 ADD PUSH1 0x0 SWAP1 JUMPDEST DUP3 DUP3 LT ISZERO PUSH2 0x8BA JUMPI DUP4 DUP3 SWAP1 PUSH1 0x0 MSTORE PUSH1 0x20 PUSH1 0x0 KECCAK256 ADD DUP1 SLOAD PUSH2 0x82D SWAP1 PUSH2 0x3571 JUMP JUMPDEST DUP1 PUSH1 0x1F ADD PUSH1 0x20 DUP1 SWAP2 DIV MUL PUSH1 0x20 ADD PUSH1 0x40 MLOAD SWAP1 DUP2 ADD PUSH1 0x40 MSTORE DUP1 SWAP3 SWAP2 SWAP1 DUP2 DUP2 MSTORE PUSH1 0x20 ADD DUP3 DUP1 SLOAD PUSH2 0x859 SWAP1 PUSH2 0x3571 JUMP JUMPDEST DUP1 ISZERO PUSH2 0x8A6 JUMPI DUP1 PUSH1 0x1F LT PUSH2 0x87B JUMPI PUSH2 0x100 DUP1 DUP4 SLOAD DIV MUL DUP4 MSTORE SWAP2 PUSH1 0x20 ADD SWAP2 PUSH2 0x8A6 JUMP JUMPDEST DUP3 ADD SWAP2 SWAP1 PUSH1 0x0 MSTORE PUSH1 0x20 PUSH1 0x0 KECCAK256 SWAP1 JUMPDEST DUP2 SLOAD DUP2 MSTORE SWAP1 PUSH1 0x1 ADD SWAP1 PUSH1 0x20 ADD DUP1 DUP4 GT PUSH2 0x889 JUMPI DUP3 SWAP1 SUB PUSH1 0x1F AND DUP3 ADD SWAP2 JUMPDEST POP POP POP POP POP DUP2 MSTORE PUSH1 0x20 ADD SWAP1 PUSH1 0x1 ADD SWAP1 PUSH2 0x80E JUMP JUMPDEST POP POP POP POP PUSH1 0x0 DUP14 DUP2 SLOAD DUP2 LT PUSH2 0x8D2 JUMPI PUSH2 0x8D1 PUSH2 0x367B JUMP JUMPDEST JUMPDEST SWAP1 PUSH1 0x0 MSTORE PUSH1 0x20 PUSH1 0x0 KECCAK256 SWAP1 PUSH1 0xD MUL ADD PUSH1 0x5 ADD PUSH1 0x5 ADD DUP1 SLOAD DUP1 PUSH1 0x20 MUL PUSH1 0x20 ADD PUSH1 0x40 MLOAD SWAP1 DUP2 ADD PUSH1 0x40 MSTORE DUP1 SWAP3 SWAP2 SWAP1 DUP2 DUP2 MSTORE PUSH1 0x20 ADD PUSH1 0x0 SWAP1 JUMPDEST DUP3 DUP3 LT ISZERO PUSH2 0x9B2 JUMPI DUP4 DUP3 SWAP1 PUSH1 0x0 MSTORE PUSH1 0x20 PUSH1 0x0 KECCAK256 ADD DUP1 SLOAD PUSH2 0x925 SWAP1 PUSH2 0x3571 JUMP JUMPDEST DUP1 PUSH1 0x1F ADD PUSH1 0x20 DUP1 SWAP2 DIV MUL PUSH1 0x20 ADD PUSH1 0x40 MLOAD SWAP1 DUP2 ADD PUSH1 0x40 MSTORE DUP1 SWAP3 SWAP2 SWAP1 DUP2 DUP2 MSTORE PUSH1 0x20 ADD DUP3 DUP1 SLOAD PUSH2 0x951 SWAP1 PUSH2 0x3571 JUMP JUMPDEST DUP1 ISZERO PUSH2 0x99E JUMPI DUP1 PUSH1 0x1F LT PUSH2 0x973 JUMPI PUSH2 0x100 DUP1 DUP4 SLOAD DIV MUL DUP4 MSTORE SWAP2 PUSH1 0x20 ADD SWAP2 PUSH2 0x99E JUMP JUMPDEST DUP3 ADD SWAP2 SWAP1 PUSH1 0x0 MSTORE PUSH1 0x20 PUSH1 0x0 KECCAK256 SWAP1 JUMPDEST DUP2 SLOAD DUP2 MSTORE SWAP1 PUSH1 0x1 ADD SWAP1 PUSH1 0x20 ADD DUP1 DUP4 GT PUSH2 0x981 JUMPI DUP3 SWAP1 SUB PUSH1 0x1F AND DUP3 ADD SWAP2 JUMPDEST POP POP POP POP POP DUP2 MSTORE PUSH1 0x20 ADD SWAP1 PUSH1 0x1 ADD SWAP1 PUSH2 0x906 JUMP JUMPDEST POP POP POP POP PUSH1 0x0 DUP15 DUP2 SLOAD DUP2 LT PUSH2 0x9CA JUMPI PUSH2 0x9C9 PUSH2 0x367B JUMP JUMPDEST JUMPDEST SWAP1 PUSH1 0x0 MSTORE PUSH1 0x20 PUSH1 0x0 KECCAK256 SWAP1 PUSH1 0xD MUL ADD PUSH1 0x5 ADD PUSH1 0x6 ADD DUP1 SLOAD PUSH2 0x9E9 SWAP1 PUSH2 0x3571 JUMP JUMPDEST DUP1 PUSH1 0x1F ADD PUSH1 0x20 DUP1 SWAP2 DIV MUL PUSH1 0x20 ADD PUSH1 0x40 MLOAD SWAP1 DUP2 ADD PUSH1 0x40 MSTORE DUP1 SWAP3 SWAP2 SWAP1 DUP2 DUP2 MSTORE PUSH1 0x20 ADD DUP3 DUP1 SLOAD PUSH2 0xA15 SWAP1 PUSH2 0x3571 JUMP JUMPDEST DUP1 ISZERO PUSH2 0xA62 JUMPI DUP1 PUSH1 0x1F LT PUSH2 0xA37 JUMPI PUSH2 0x100 DUP1 DUP4 SLOAD DIV MUL DUP4 MSTORE SWAP2 PUSH1 0x20 ADD SWAP2 PUSH2 0xA62 JUMP JUMPDEST DUP3 ADD SWAP2 SWAP1 PUSH1 0x0 MSTORE PUSH1 0x20 PUSH1 0x0 KECCAK256 SWAP1 JUMPDEST DUP2 SLOAD DUP2 MSTORE SWAP1 PUSH1 0x1 ADD SWAP1 PUSH1 0x20 ADD DUP1 DUP4 GT PUSH2 0xA45 JUMPI DUP3 SWAP1 SUB PUSH1 0x1F AND DUP3 ADD SWAP2 JUMPDEST POP POP POP POP POP PUSH1 0x0 DUP16 DUP2 SLOAD DUP2 LT PUSH2 0xA7B JUMPI PUSH2 0xA7A PUSH2 0x367B JUMP JUMPDEST JUMPDEST SWAP1 PUSH1 0x0 MSTORE PUSH1 0x20 PUSH1 0x0 KECCAK256 SWAP1 PUSH1 0xD MUL ADD PUSH1 0x5 ADD PUSH1 0x7 ADD DUP1 SLOAD DUP1 PUSH1 0x20 MUL PUSH1 0x20 ADD PUSH1 0x40 MLOAD SWAP1 DUP2 ADD PUSH1 0x40 MSTORE DUP1 SWAP3 SWAP2 SWAP1 DUP2 DUP2 MSTORE PUSH1 0x20 ADD PUSH1 0x0 SWAP1 JUMPDEST DUP3 DUP3 LT ISZERO PUSH2 0xB5B JUMPI DUP4 DUP3 SWAP1 PUSH1 0x0 MSTORE PUSH1 0x20 PUSH1 0x0 KECCAK256 ADD DUP1 SLOAD PUSH2 0xACE SWAP1 PUSH2 0x3571 JUMP JUMPDEST DUP1 PUSH1 0x1F ADD PUSH1 0x20 DUP1 SWAP2 DIV MUL PUSH1 0x20 ADD PUSH1 0x40 MLOAD SWAP1 DUP2 ADD PUSH1 0x40 MSTORE DUP1 SWAP3 SWAP2 SWAP1 DUP2 DUP2 MSTORE PUSH1 0x20 ADD DUP3 DUP1 SLOAD PUSH2 0xAFA SWAP1 PUSH2 0x3571 JUMP JUMPDEST DUP1 ISZERO PUSH2 0xB47 JUMPI DUP1 PUSH1 0x1F LT PUSH2 0xB1C JUMPI PUSH2 0x100 DUP1 DUP4 SLOAD DIV MUL DUP4 MSTORE SWAP2 PUSH1 0x20 ADD SWAP2 PUSH2 0xB47 JUMP JUMPDEST DUP3 ADD SWAP2 SWAP1 PUSH1 0x0 MSTORE PUSH1 0x20 PUSH1 0x0 KECCAK256 SWAP1 JUMPDEST DUP2 SLOAD DUP2 MSTORE SWAP1 PUSH1 0x1 ADD SWAP1 PUSH1 0x20 ADD DUP1 DUP4 GT PUSH2 0xB2A JUMPI DUP3 SWAP1 SUB PUSH1 0x1F AND DUP3 ADD SWAP2 JUMPDEST POP POP POP POP POP DUP2 MSTORE PUSH1 0x20 ADD SWAP1 PUSH1 0x1 ADD SWAP1 PUSH2 0xAAF JUMP JUMPDEST POP POP POP POP PUSH2 0x183D JUMP JUMPDEST PUSH32 0x75F416A1740DE68A6376BAD70148558F2DA14B6CF24E78547C6A73C9D68C0BD7 CALLER PUSH1 0x0 DUP7 DUP2 SLOAD DUP2 LT PUSH2 0xB9A JUMPI PUSH2 0xB99 PUSH2 0x367B JUMP JUMPDEST JUMPDEST SWAP1 PUSH1 0x0 MSTORE PUSH1 0x20 PUSH1 0x0 KECCAK256 SWAP1 PUSH1 0xD MUL ADD PUSH1 0x1 ADD PUSH1 0x0 SWAP1 SLOAD SWAP1 PUSH2 0x100 EXP SWAP1 DIV PUSH20 0xFFFFFFFFFFFFFFFFFFFFFFFFFFFFFFFFFFFFFFFF AND DUP7 DUP5 DUP8 TIMESTAMP PUSH1 0x40 MLOAD PUSH2 0xBE2 SWAP7 SWAP6 SWAP5 SWAP4 SWAP3 SWAP2 SWAP1 PUSH2 0x3036 JUMP JUMPDEST PUSH1 0x40 MLOAD DUP1 SWAP2 SUB SWAP1 LOG1 PUSH1 0x1 SWAP2 POP POP PUSH2 0xBF9 JUMP JUMPDEST PUSH1 0x0 SWAP1 POP JUMPDEST SWAP3 SWAP2 POP POP JUMP JUMPDEST PUSH1 0x2 PUSH1 0x20 MSTORE DUP1 PUSH1 0x0 MSTORE PUSH1 0x40 PUSH1 0x0 KECCAK256 PUSH1 0x0 SWAP2 POP SWAP1 POP SLOAD DUP2 JUMP JUMPDEST PUSH2 0xC1F PUSH2 0x22AA JUMP JUMPDEST CALLER DUP2 PUSH1 0x0 ADD SWAP1 PUSH20 0xFFFFFFFFFFFFFFFFFFFFFFFFFFFFFFFFFFFFFFFF AND SWAP1 DUP2 PUSH20 0xFFFFFFFFFFFFFFFFFFFFFFFFFFFFFFFFFFFFFFFF AND DUP2 MSTORE POP POP DUP7 DUP2 PUSH1 0x20 ADD DUP2 SWAP1 MSTORE POP DUP6 DUP2 PUSH1 0x60 ADD DUP2 SWAP1 MSTORE POP DUP5 DUP2 PUSH1 0x80 ADD DUP2 SWAP1 MSTORE POP DUP4 DUP2 PUSH1 0xA0 ADD DUP2 DUP2 MSTORE POP POP PUSH1 0x0 JUMPDEST PUSH1 0xC DUP2 LT ISZERO PUSH2 0xCD3 JUMPI DUP4 DUP2 PUSH1 0xC DUP2 LT PUSH2 0xC9B JUMPI PUSH2 0xC9A PUSH2 0x367B JUMP JUMPDEST JUMPDEST PUSH1 0x20 MUL ADD MLOAD DUP3 PUSH1 0xC0 ADD MLOAD DUP3 PUSH1 0xC DUP2 LT PUSH2 0xCB7 JUMPI PUSH2 0xCB6 PUSH2 0x367B JUMP JUMPDEST JUMPDEST PUSH1 0x20 MUL ADD DUP2 DUP2 MSTORE POP POP DUP1 DUP1 PUSH2 0xCCB SWAP1 PUSH2 0x35D4 JUMP JUMPDEST SWAP2 POP POP PUSH2 0xC7F JUMP JUMPDEST POP DUP2 DUP2 PUSH1 0xE0 ADD DUP2 SWAP1 MSTORE POP DUP8 DUP2 PUSH1 0x40 ADD DUP2 SWAP1 MSTORE POP PUSH1 0x1 DUP2 SWAP1 DUP1 PUSH1 0x1 DUP2 SLOAD ADD DUP1 DUP3 SSTORE DUP1 SWAP2 POP POP PUSH1 0x1 SWAP1 SUB SWAP1 PUSH1 0x0 MSTORE PUSH1 0x20 PUSH1 0x0 KECCAK256 SWAP1 PUSH1 0x13 MUL ADD PUSH1 0x0 SWAP1 SWAP2 SWAP1 SWAP2 SWAP1 SWAP2 POP PUSH1 0x0 DUP3 ADD MLOAD DUP2 PUSH1 0x0 ADD PUSH1 0x0 PUSH2 0x100 EXP DUP2 SLOAD DUP2 PUSH20 0xFFFFFFFFFFFFFFFFFFFFFFFFFFFFFFFFFFFFFFFF MUL NOT AND SWAP1 DUP4 PUSH20 0xFFFFFFFFFFFFFFFFFFFFFFFFFFFFFFFFFFFFFFFF AND MUL OR SWAP1 SSTORE POP PUSH1 0x20 DUP3 ADD MLOAD DUP2 PUSH1 0x1 ADD SWAP1 DUP1 MLOAD SWAP1 PUSH1 0x20 ADD SWAP1 PUSH2 0xD75 SWAP3 SWAP2 SWAP1 PUSH2 0x230B JUMP JUMPDEST POP PUSH1 0x40 DUP3 ADD MLOAD DUP2 PUSH1 0x2 ADD SWAP1 DUP1 MLOAD SWAP1 PUSH1 0x20 ADD SWAP1 PUSH2 0xD92 SWAP3 SWAP2 SWAP1 PUSH2 0x230B JUMP JUMPDEST POP PUSH1 0x60 DUP3 ADD MLOAD DUP2 PUSH1 0x3 ADD SWAP1 DUP1 MLOAD SWAP1 PUSH1 0x20 ADD SWAP1 PUSH2 0xDAF SWAP3 SWAP2 SWAP1 PUSH2 0x230B JUMP JUMPDEST POP PUSH1 0x80 DUP3 ADD MLOAD DUP2 PUSH1 0x4 ADD SWAP1 DUP1 MLOAD SWAP1 PUSH1 0x20 ADD SWAP1 PUSH2 0xDCC SWAP3 SWAP2 SWAP1 PUSH2 0x230B JUMP JUMPDEST POP PUSH1 0xA0 DUP3 ADD MLOAD DUP2 PUSH1 0x5 ADD SSTORE PUSH1 0xC0 DUP3 ADD MLOAD DUP2 PUSH1 0x6 ADD SWAP1 PUSH1 0xC PUSH2 0xDEE SWAP3 SWAP2 SWAP1 PUSH2 0x2391 JUMP JUMPDEST POP PUSH1 0xE0 DUP3 ADD MLOAD DUP2 PUSH1 0x12 ADD SWAP1 DUP1 MLOAD SWAP1 PUSH1 0x20 ADD SWAP1 PUSH2 0xE0B SWAP3 SWAP2 SWAP1 PUSH2 0x230B JUMP JUMPDEST POP POP POP PUSH32 0xC4AA35700F4A2A5A56437570881086DFE5553F60CD3C6B59A61C4B9036E34F1B DUP2 PUSH1 0x0 ADD MLOAD DUP3 PUSH1 0x20 ADD MLOAD DUP4 PUSH1 0x40 ADD MLOAD DUP5 PUSH1 0x60 ADD MLOAD DUP6 PUSH1 0x80 ADD MLOAD DUP7 PUSH1 0xA0 ADD MLOAD DUP8 PUSH1 0xC0 ADD MLOAD DUP9 PUSH1 0xE0 ADD MLOAD PUSH1 0x40 MLOAD PUSH2 0xE6B SWAP9 SWAP8 SWAP7 SWAP6 SWAP5 SWAP4 SWAP3 SWAP2 SWAP1 PUSH2 0x3097 JUMP JUMPDEST PUSH1 0x40 MLOAD DUP1 SWAP2 SUB SWAP1 LOG1 POP POP POP POP POP POP POP POP JUMP JUMPDEST PUSH1 0x0 JUMPDEST DUP2 MLOAD DUP2 LT ISZERO PUSH2 0xEFC JUMPI PUSH2 0x2710 PUSH1 0x2 PUSH1 0x0 DUP5 DUP5 DUP2 MLOAD DUP2 LT PUSH2 0xEA3 JUMPI PUSH2 0xEA2 PUSH2 0x367B JUMP JUMPDEST JUMPDEST PUSH1 0x20 MUL PUSH1 0x20 ADD ADD MLOAD PUSH20 0xFFFFFFFFFFFFFFFFFFFFFFFFFFFFFFFFFFFFFFFF AND PUSH20 0xFFFFFFFFFFFFFFFFFFFFFFFFFFFFFFFFFFFFFFFF AND DUP2 MSTORE PUSH1 0x20 ADD SWAP1 DUP2 MSTORE PUSH1 0x20 ADD PUSH1 0x0 KECCAK256 DUP2 SWAP1 SSTORE POP DUP1 DUP1 PUSH2 0xEF4 SWAP1 PUSH2 0x35D4 JUMP JUMPDEST SWAP2 POP POP PUSH2 0xE80 JUMP JUMPDEST POP POP JUMP JUMPDEST PUSH1 0x1 DUP2 DUP2 SLOAD DUP2 LT PUSH2 0xF10 JUMPI PUSH1 0x0 DUP1 REVERT JUMPDEST SWAP1 PUSH1 0x0 MSTORE PUSH1 0x20 PUSH1 0x0 KECCAK256 SWAP1 PUSH1 0x13 MUL ADD PUSH1 0x0 SWAP2 POP SWAP1 POP DUP1 PUSH1 0x0 ADD PUSH1 0x0 SWAP1 SLOAD SWAP1 PUSH2 0x100 EXP SWAP1 DIV PUSH20 0xFFFFFFFFFFFFFFFFFFFFFFFFFFFFFFFFFFFFFFFF AND SWAP1 DUP1 PUSH1 0x1 ADD DUP1 SLOAD PUSH2 0xF59 SWAP1 PUSH2 0x3571 JUMP JUMPDEST DUP1 PUSH1 0x1F ADD PUSH1 0x20 DUP1 SWAP2 DIV MUL PUSH1 0x20 ADD PUSH1 0x40 MLOAD SWAP1 DUP2 ADD PUSH1 0x40 MSTORE DUP1 SWAP3 SWAP2 SWAP1 DUP2 DUP2 MSTORE PUSH1 0x20 ADD DUP3 DUP1 SLOAD PUSH2 0xF85 SWAP1 PUSH2 0x3571 JUMP JUMPDEST DUP1 ISZERO PUSH2 0xFD2 JUMPI DUP1 PUSH1 0x1F LT PUSH2 0xFA7 JUMPI PUSH2 0x100 DUP1 DUP4 SLOAD DIV MUL DUP4 MSTORE SWAP2 PUSH1 0x20 ADD SWAP2 PUSH2 0xFD2 JUMP JUMPDEST DUP3 ADD SWAP2 SWAP1 PUSH1 0x0 MSTORE PUSH1 0x20 PUSH1 0x0 KECCAK256 SWAP1 JUMPDEST DUP2 SLOAD DUP2 MSTORE SWAP1 PUSH1 0x1 ADD SWAP1 PUSH1 0x20 ADD DUP1 DUP4 GT PUSH2 0xFB5 JUMPI DUP3 SWAP1 SUB PUSH1 0x1F AND DUP3 ADD SWAP2 JUMPDEST POP POP POP POP POP SWAP1 DUP1 PUSH1 0x2 ADD DUP1 SLOAD PUSH2 0xFE7 SWAP1 PUSH2 0x3571 JUMP JUMPDEST DUP1 PUSH1 0x1F ADD PUSH1 0x20 DUP1 SWAP2 DIV MUL PUSH1 0x20 ADD PUSH1 0x40 MLOAD SWAP1 DUP2 ADD PUSH1 0x40 MSTORE DUP1 SWAP3 SWAP2 SWAP1 DUP2 DUP2 MSTORE PUSH1 0x20 ADD DUP3 DUP1 SLOAD PUSH2 0x1013 SWAP1 PUSH2 0x3571 JUMP JUMPDEST DUP1 ISZERO PUSH2 0x1060 JUMPI DUP1 PUSH1 0x1F LT PUSH2 0x1035 JUMPI PUSH2 0x100 DUP1 DUP4 SLOAD DIV MUL DUP4 MSTORE SWAP2 PUSH1 0x20 ADD SWAP2 PUSH2 0x1060 JUMP JUMPDEST DUP3 ADD SWAP2 SWAP1 PUSH1 0x0 MSTORE PUSH1 0x20 PUSH1 0x0 KECCAK256 SWAP1 JUMPDEST DUP2 SLOAD DUP2 MSTORE SWAP1 PUSH1 0x1 ADD SWAP1 PUSH1 0x20 ADD DUP1 DUP4 GT PUSH2 0x1043 JUMPI DUP3 SWAP1 SUB PUSH1 0x1F AND DUP3 ADD SWAP2 JUMPDEST POP POP POP POP POP SWAP1 DUP1 PUSH1 0x3 ADD DUP1 SLOAD PUSH2 0x1075 SWAP1 PUSH2 0x3571 JUMP JUMPDEST DUP1 PUSH1 0x1F ADD PUSH1 0x20 DUP1 SWAP2 DIV MUL PUSH1 0x20 ADD PUSH1 0x40 MLOAD SWAP1 DUP2 ADD PUSH1 0x40 MSTORE DUP1 SWAP3 SWAP2 SWAP1 DUP2 DUP2 MSTORE PUSH1 0x20 ADD DUP3 DUP1 SLOAD PUSH2 0x10A1 SWAP1 PUSH2 0x3571 JUMP JUMPDEST DUP1 ISZERO PUSH2 0x10EE JUMPI DUP1 PUSH1 0x1F LT PUSH2 0x10C3 JUMPI PUSH2 0x100 DUP1 DUP4 SLOAD DIV MUL DUP4 MSTORE SWAP2 PUSH1 0x20 ADD SWAP2 PUSH2 0x10EE JUMP JUMPDEST DUP3 ADD SWAP2 SWAP1 PUSH1 0x0 MSTORE PUSH1 0x20 PUSH1 0x0 KECCAK256 SWAP1 JUMPDEST DUP2 SLOAD DUP2 MSTORE SWAP1 PUSH1 0x1 ADD SWAP1 PUSH1 0x20 ADD DUP1 DUP4 GT PUSH2 0x10D1 JUMPI DUP3 SWAP1 SUB PUSH1 0x1F AND DUP3 ADD SWAP2 JUMPDEST POP POP POP POP POP SWAP1 DUP1 PUSH1 0x4 ADD DUP1 SLOAD PUSH2 0x1103 SWAP1 PUSH2 0x3571 JUMP JUMPDEST DUP1 PUSH1 0x1F ADD PUSH1 0x20 DUP1 SWAP2 DIV MUL PUSH1 0x20 ADD PUSH1 0x40 MLOAD SWAP1 DUP2 ADD PUSH1 0x40 MSTORE DUP1 SWAP3 SWAP2 SWAP1 DUP2 DUP2 MSTORE PUSH1 0x20 ADD DUP3 DUP1 SLOAD PUSH2 0x112F SWAP1 PUSH2 0x3571 JUMP JUMPDEST DUP1 ISZERO PUSH2 0x117C JUMPI DUP1 PUSH1 0x1F LT PUSH2 0x1151 JUMPI PUSH2 0x100 DUP1 DUP4 SLOAD DIV MUL DUP4 MSTORE SWAP2 PUSH1 0x20 ADD SWAP2 PUSH2 0x117C JUMP JUMPDEST DUP3 ADD SWAP2 SWAP1 PUSH1 0x0 MSTORE PUSH1 0x20 PUSH1 0x0 KECCAK256 SWAP1 JUMPDEST DUP2 SLOAD DUP2 MSTORE SWAP1 PUSH1 0x1 ADD SWAP1 PUSH1 0x20 ADD DUP1 DUP4 GT PUSH2 0x115F JUMPI DUP3 SWAP1 SUB PUSH1 0x1F AND DUP3 ADD SWAP2 JUMPDEST POP POP POP POP POP SWAP1 DUP1 PUSH1 0x5 ADD SLOAD SWAP1 DUP1 PUSH1 0x12 ADD DUP1 SLOAD PUSH2 0x1197 SWAP1 PUSH2 0x3571 JUMP JUMPDEST DUP1 PUSH1 0x1F ADD PUSH1 0x20 DUP1 SWAP2 DIV MUL PUSH1 0x20 ADD PUSH1 0x40 MLOAD SWAP1 DUP2 ADD PUSH1 0x40 MSTORE DUP1 SWAP3 SWAP2 SWAP1 DUP2 DUP2 MSTORE PUSH1 0x20 ADD DUP3 DUP1 SLOAD PUSH2 0x11C3 SWAP1 PUSH2 0x3571 JUMP JUMPDEST DUP1 ISZERO PUSH2 0x1210 JUMPI DUP1 PUSH1 0x1F LT PUSH2 0x11E5 JUMPI PUSH2 0x100 DUP1 DUP4 SLOAD DIV MUL DUP4 MSTORE SWAP2 PUSH1 0x20 ADD SWAP2 PUSH2 0x1210 JUMP JUMPDEST DUP3 ADD SWAP2 SWAP1 PUSH1 0x0 MSTORE PUSH1 0x20 PUSH1 0x0 KECCAK256 SWAP1 JUMPDEST DUP2 SLOAD DUP2 MSTORE SWAP1 PUSH1 0x1 ADD SWAP1 PUSH1 0x20 ADD DUP1 DUP4 GT PUSH2 0x11F3 JUMPI DUP3 SWAP1 SUB PUSH1 0x1F AND DUP3 ADD SWAP2 JUMPDEST POP POP POP POP POP SWAP1 POP DUP8 JUMP JUMPDEST PUSH1 0x0 DUP2 DUP2 SLOAD DUP2 LT PUSH2 0x122A JUMPI PUSH1 0x0 DUP1 REVERT JUMPDEST SWAP1 PUSH1 0x0 MSTORE PUSH1 0x20 PUSH1 0x0 KECCAK256 SWAP1 PUSH1 0xD MUL ADD PUSH1 0x0 SWAP2 POP SWAP1 POP DUP1 PUSH1 0x0 ADD SLOAD SWAP1 DUP1 PUSH1 0x1 ADD PUSH1 0x0 SWAP1 SLOAD SWAP1 PUSH2 0x100 EXP SWAP1 DIV PUSH20 0xFFFFFFFFFFFFFFFFFFFFFFFFFFFFFFFFFFFFFFFF AND SWAP1 DUP1 PUSH1 0x2 ADD DUP1 SLOAD PUSH2 0x1279 SWAP1 PUSH2 0x3571 JUMP JUMPDEST DUP1 PUSH1 0x1F ADD PUSH1 0x20 DUP1 SWAP2 DIV MUL PUSH1 0x20 ADD PUSH1 0x40 MLOAD SWAP1 DUP2 ADD PUSH1 0x40 MSTORE DUP1 SWAP3 SWAP2 SWAP1 DUP2 DUP2 MSTORE PUSH1 0x20 ADD DUP3 DUP1 SLOAD PUSH2 0x12A5 SWAP1 PUSH2 0x3571 JUMP JUMPDEST DUP1 ISZERO PUSH2 0x12F2 JUMPI DUP1 PUSH1 0x1F LT PUSH2 0x12C7 JUMPI PUSH2 0x100 DUP1 DUP4 SLOAD DIV MUL DUP4 MSTORE SWAP2 PUSH1 0x20 ADD SWAP2 PUSH2 0x12F2 JUMP JUMPDEST DUP3 ADD SWAP2 SWAP1 PUSH1 0x0 MSTORE PUSH1 0x20 PUSH1 0x0 KECCAK256 SWAP1 JUMPDEST DUP2 SLOAD DUP2 MSTORE SWAP1 PUSH1 0x1 ADD SWAP1 PUSH1 0x20 ADD DUP1 DUP4 GT PUSH2 0x12D5 JUMPI DUP3 SWAP1 SUB PUSH1 0x1F AND DUP3 ADD SWAP2 JUMPDEST POP POP POP POP POP SWAP1 DUP1 PUSH1 0x3 ADD SLOAD SWAP1 DUP1 PUSH1 0x4 ADD SLOAD SWAP1 DUP1 PUSH1 0x5 ADD PUSH1 0x40 MLOAD DUP1 PUSH2 0x100 ADD PUSH1 0x40 MSTORE SWAP1 DUP2 PUSH1 0x0 DUP3 ADD DUP1 SLOAD PUSH2 0x1324 SWAP1 PUSH2 0x3571 JUMP JUMPDEST DUP1 PUSH1 0x1F ADD PUSH1 0x20 DUP1 SWAP2 DIV MUL PUSH1 0x20 ADD PUSH1 0x40 MLOAD SWAP1 DUP2 ADD PUSH1 0x40 MSTORE DUP1 SWAP3 SWAP2 SWAP1 DUP2 DUP2 MSTORE PUSH1 0x20 ADD DUP3 DUP1 SLOAD PUSH2 0x1350 SWAP1 PUSH2 0x3571 JUMP JUMPDEST DUP1 ISZERO PUSH2 0x139D JUMPI DUP1 PUSH1 0x1F LT PUSH2 0x1372 JUMPI PUSH2 0x100 DUP1 DUP4 SLOAD DIV MUL DUP4 MSTORE SWAP2 PUSH1 0x20 ADD SWAP2 PUSH2 0x139D JUMP JUMPDEST DUP3 ADD SWAP2 SWAP1 PUSH1 0x0 MSTORE PUSH1 0x20 PUSH1 0x0 KECCAK256 SWAP1 JUMPDEST DUP2 SLOAD DUP2 MSTORE SWAP1 PUSH1 0x1 ADD SWAP1 PUSH1 0x20 ADD DUP1 DUP4 GT PUSH2 0x1380 JUMPI DUP3 SWAP1 SUB PUSH1 0x1F AND DUP3 ADD SWAP2 JUMPDEST POP POP POP POP POP DUP2 MSTORE PUSH1 0x20 ADD PUSH1 0x1 DUP3 ADD DUP1 SLOAD PUSH2 0x13B6 SWAP1 PUSH2 0x3571 JUMP JUMPDEST DUP1 PUSH1 0x1F ADD PUSH1 0x20 DUP1 SWAP2 DIV MUL PUSH1 0x20 ADD PUSH1 0x40 MLOAD SWAP1 DUP2 ADD PUSH1 0x40 MSTORE DUP1 SWAP3 SWAP2 SWAP1 DUP2 DUP2 MSTORE PUSH1 0x20 ADD DUP3 DUP1 SLOAD PUSH2 0x13E2 SWAP1 PUSH2 0x3571 JUMP JUMPDEST DUP1 ISZERO PUSH2 0x142F JUMPI DUP1 PUSH1 0x1F LT PUSH2 0x1404 JUMPI PUSH2 0x100 DUP1 DUP4 SLOAD DIV MUL DUP4 MSTORE SWAP2 PUSH1 0x20 ADD SWAP2 PUSH2 0x142F JUMP JUMPDEST DUP3 ADD SWAP2 SWAP1 PUSH1 0x0 MSTORE PUSH1 0x20 PUSH1 0x0 KECCAK256 SWAP1 JUMPDEST DUP2 SLOAD DUP2 MSTORE SWAP1 PUSH1 0x1 ADD SWAP1 PUSH1 0x20 ADD DUP1 DUP4 GT PUSH2 0x1412 JUMPI DUP3 SWAP1 SUB PUSH1 0x1F AND DUP3 ADD SWAP2 JUMPDEST POP POP POP POP POP DUP2 MSTORE PUSH1 0x20 ADD PUSH1 0x2 DUP3 ADD SLOAD DUP2 MSTORE PUSH1 0x20 ADD PUSH1 0x3 DUP3 ADD DUP1 SLOAD DUP1 PUSH1 0x20 MUL PUSH1 0x20 ADD PUSH1 0x40 MLOAD SWAP1 DUP2 ADD PUSH1 0x40 MSTORE DUP1 SWAP3 SWAP2 SWAP1 DUP2 DUP2 MSTORE PUSH1 0x20 ADD PUSH1 0x0 SWAP1 JUMPDEST DUP3 DUP3 LT ISZERO PUSH2 0x1513 JUMPI DUP4 DUP3 SWAP1 PUSH1 0x0 MSTORE PUSH1 0x20 PUSH1 0x0 KECCAK256 ADD DUP1 SLOAD PUSH2 0x1486 SWAP1 PUSH2 0x3571 JUMP JUMPDEST DUP1 PUSH1 0x1F ADD PUSH1 0x20 DUP1 SWAP2 DIV MUL PUSH1 0x20 ADD PUSH1 0x40 MLOAD SWAP1 DUP2 ADD PUSH1 0x40 MSTORE DUP1 SWAP3 SWAP2 SWAP1 DUP2 DUP2 MSTORE PUSH1 0x20 ADD DUP3 DUP1 SLOAD PUSH2 0x14B2 SWAP1 PUSH2 0x3571 JUMP JUMPDEST DUP1 ISZERO PUSH2 0x14FF JUMPI DUP1 PUSH1 0x1F LT PUSH2 0x14D4 JUMPI PUSH2 0x100 DUP1 DUP4 SLOAD DIV MUL DUP4 MSTORE SWAP2 PUSH1 0x20 ADD SWAP2 PUSH2 0x14FF JUMP JUMPDEST DUP3 ADD SWAP2 SWAP1 PUSH1 0x0 MSTORE PUSH1 0x20 PUSH1 0x0 KECCAK256 SWAP1 JUMPDEST DUP2 SLOAD DUP2 MSTORE SWAP1 PUSH1 0x1 ADD SWAP1 PUSH1 0x20 ADD DUP1 DUP4 GT PUSH2 0x14E2 JUMPI DUP3 SWAP1 SUB PUSH1 0x1F AND DUP3 ADD SWAP2 JUMPDEST POP POP POP POP POP DUP2 MSTORE PUSH1 0x20 ADD SWAP1 PUSH1 0x1 ADD SWAP1 PUSH2 0x1467 JUMP JUMPDEST POP POP POP POP DUP2 MSTORE PUSH1 0x20 ADD PUSH1 0x4 DUP3 ADD DUP1 SLOAD DUP1 PUSH1 0x20 MUL PUSH1 0x20 ADD PUSH1 0x40 MLOAD SWAP1 DUP2 ADD PUSH1 0x40 MSTORE DUP1 SWAP3 SWAP2 SWAP1 DUP2 DUP2 MSTORE PUSH1 0x20 ADD PUSH1 0x0 SWAP1 JUMPDEST DUP3 DUP3 LT ISZERO PUSH2 0x15EC JUMPI DUP4 DUP3 SWAP1 PUSH1 0x0 MSTORE PUSH1 0x20 PUSH1 0x0 KECCAK256 ADD DUP1 SLOAD PUSH2 0x155F SWAP1 PUSH2 0x3571 JUMP JUMPDEST DUP1 PUSH1 0x1F ADD PUSH1 0x20 DUP1 SWAP2 DIV MUL PUSH1 0x20 ADD PUSH1 0x40 MLOAD SWAP1 DUP2 ADD PUSH1 0x40 MSTORE DUP1 SWAP3 SWAP2 SWAP1 DUP2 DUP2 MSTORE PUSH1 0x20 ADD DUP3 DUP1 SLOAD PUSH2 0x158B SWAP1 PUSH2 0x3571 JUMP JUMPDEST DUP1 ISZERO PUSH2 0x15D8 JUMPI DUP1 PUSH1 0x1F LT PUSH2 0x15AD JUMPI PUSH2 0x100 DUP1 DUP4 SLOAD DIV MUL DUP4 MSTORE SWAP2 PUSH1 0x20 ADD SWAP2 PUSH2 0x15D8 JUMP JUMPDEST DUP3 ADD SWAP2 SWAP1 PUSH1 0x0 MSTORE PUSH1 0x20 PUSH1 0x0 KECCAK256 SWAP1 JUMPDEST DUP2 SLOAD DUP2 MSTORE SWAP1 PUSH1 0x1 ADD SWAP1 PUSH1 0x20 ADD DUP1 DUP4 GT PUSH2 0x15BB JUMPI DUP3 SWAP1 SUB PUSH1 0x1F AND DUP3 ADD SWAP2 JUMPDEST POP POP POP POP POP DUP2 MSTORE PUSH1 0x20 ADD SWAP1 PUSH1 0x1 ADD SWAP1 PUSH2 0x1540 JUMP JUMPDEST POP POP POP POP DUP2 MSTORE PUSH1 0x20 ADD PUSH1 0x5 DUP3 ADD DUP1 SLOAD DUP1 PUSH1 0x20 MUL PUSH1 0x20 ADD PUSH1 0x40 MLOAD SWAP1 DUP2 ADD PUSH1 0x40 MSTORE DUP1 SWAP3 SWAP2 SWAP1 DUP2 DUP2 MSTORE PUSH1 0x20 ADD PUSH1 0x0 SWAP1 JUMPDEST DUP3 DUP3 LT ISZERO PUSH2 0x16C5 JUMPI DUP4 DUP3 SWAP1 PUSH1 0x0 MSTORE PUSH1 0x20 PUSH1 0x0 KECCAK256 ADD DUP1 SLOAD PUSH2 0x1638 SWAP1 PUSH2 0x3571 JUMP JUMPDEST DUP1 PUSH1 0x1F ADD PUSH1 0x20 DUP1 SWAP2 DIV MUL PUSH1 0x20 ADD PUSH1 0x40 MLOAD SWAP1 DUP2 ADD PUSH1 0x40 MSTORE DUP1 SWAP3 SWAP2 SWAP1 DUP2 DUP2 MSTORE PUSH1 0x20 ADD DUP3 DUP1 SLOAD PUSH2 0x1664 SWAP1 PUSH2 0x3571 JUMP JUMPDEST DUP1 ISZERO PUSH2 0x16B1 JUMPI DUP1 PUSH1 0x1F LT PUSH2 0x1686 JUMPI PUSH2 0x100 DUP1 DUP4 SLOAD DIV MUL DUP4 MSTORE SWAP2 PUSH1 0x20 ADD SWAP2 PUSH2 0x16B1 JUMP JUMPDEST DUP3 ADD SWAP2 SWAP1 PUSH1 0x0 MSTORE PUSH1 0x20 PUSH1 0x0 KECCAK256 SWAP1 JUMPDEST DUP2 SLOAD DUP2 MSTORE SWAP1 PUSH1 0x1 ADD SWAP1 PUSH1 0x20 ADD DUP1 DUP4 GT PUSH2 0x1694 JUMPI DUP3 SWAP1 SUB PUSH1 0x1F AND DUP3 ADD SWAP2 JUMPDEST POP POP POP POP POP DUP2 MSTORE PUSH1 0x20 ADD SWAP1 PUSH1 0x1 ADD SWAP1 PUSH2 0x1619 JUMP JUMPDEST POP POP POP POP DUP2 MSTORE PUSH1 0x20 ADD PUSH1 0x6 DUP3 ADD DUP1 SLOAD PUSH2 0x16DD SWAP1 PUSH2 0x3571 JUMP JUMPDEST DUP1 PUSH1 0x1F ADD PUSH1 0x20 DUP1 SWAP2 DIV MUL PUSH1 0x20 ADD PUSH1 0x40 MLOAD SWAP1 DUP2 ADD PUSH1 0x40 MSTORE DUP1 SWAP3 SWAP2 SWAP1 DUP2 DUP2 MSTORE PUSH1 0x20 ADD DUP3 DUP1 SLOAD PUSH2 0x1709 SWAP1 PUSH2 0x3571 JUMP JUMPDEST DUP1 ISZERO PUSH2 0x1756 JUMPI DUP1 PUSH1 0x1F LT PUSH2 0x172B JUMPI PUSH2 0x100 DUP1 DUP4 SLOAD DIV MUL DUP4 MSTORE SWAP2 PUSH1 0x20 ADD SWAP2 PUSH2 0x1756 JUMP JUMPDEST DUP3 ADD SWAP2 SWAP1 PUSH1 0x0 MSTORE PUSH1 0x20 PUSH1 0x0 KECCAK256 SWAP1 JUMPDEST DUP2 SLOAD DUP2 MSTORE SWAP1 PUSH1 0x1 ADD SWAP1 PUSH1 0x20 ADD DUP1 DUP4 GT PUSH2 0x1739 JUMPI DUP3 SWAP1 SUB PUSH1 0x1F AND DUP3 ADD SWAP2 JUMPDEST POP POP POP POP POP DUP2 MSTORE PUSH1 0x20 ADD PUSH1 0x7 DUP3 ADD DUP1 SLOAD DUP1 PUSH1 0x20 MUL PUSH1 0x20 ADD PUSH1 0x40 MLOAD SWAP1 DUP2 ADD PUSH1 0x40 MSTORE DUP1 SWAP3 SWAP2 SWAP1 DUP2 DUP2 MSTORE PUSH1 0x20 ADD PUSH1 0x0 SWAP1 JUMPDEST DUP3 DUP3 LT ISZERO PUSH2 0x1830 JUMPI DUP4 DUP3 SWAP1 PUSH1 0x0 MSTORE PUSH1 0x20 PUSH1 0x0 KECCAK256 ADD DUP1 SLOAD PUSH2 0x17A3 SWAP1 PUSH2 0x3571 JUMP JUMPDEST DUP1 PUSH1 0x1F ADD PUSH1 0x20 DUP1 SWAP2 DIV MUL PUSH1 0x20 ADD PUSH1 0x40 MLOAD SWAP1 DUP2 ADD PUSH1 0x40 MSTORE DUP1 SWAP3 SWAP2 SWAP1 DUP2 DUP2 MSTORE PUSH1 0x20 ADD DUP3 DUP1 SLOAD PUSH2 0x17CF SWAP1 PUSH2 0x3571 JUMP JUMPDEST DUP1 ISZERO PUSH2 0x181C JUMPI DUP1 PUSH1 0x1F LT PUSH2 0x17F1 JUMPI PUSH2 0x100 DUP1 DUP4 SLOAD DIV MUL DUP4 MSTORE SWAP2 PUSH1 0x20 ADD SWAP2 PUSH2 0x181C JUMP JUMPDEST DUP3 ADD SWAP2 SWAP1 PUSH1 0x0 MSTORE PUSH1 0x20 PUSH1 0x0 KECCAK256 SWAP1 JUMPDEST DUP2 SLOAD DUP2 MSTORE SWAP1 PUSH1 0x1 ADD SWAP1 PUSH1 0x20 ADD DUP1 DUP4 GT PUSH2 0x17FF JUMPI DUP3 SWAP1 SUB PUSH1 0x1F AND DUP3 ADD SWAP2 JUMPDEST POP POP POP POP POP DUP2 MSTORE PUSH1 0x20 ADD SWAP1 PUSH1 0x1 ADD SWAP1 PUSH2 0x1784 JUMP JUMPDEST POP POP POP POP DUP2 MSTORE POP POP SWAP1 POP DUP7 JUMP JUMPDEST PUSH2 0x1845 PUSH2 0x23D1 JUMP JUMPDEST PUSH1 0x1 PUSH1 0x0 DUP1 SLOAD SWAP1 POP PUSH2 0x1857 SWAP2 SWAP1 PUSH2 0x33F9 JUMP JUMPDEST DUP2 PUSH1 0x0 ADD DUP2 DUP2 MSTORE POP POP CALLER DUP2 PUSH1 0x20 ADD SWAP1 PUSH20 0xFFFFFFFFFFFFFFFFFFFFFFFFFFFFFFFFFFFFFFFF AND SWAP1 DUP2 PUSH20 0xFFFFFFFFFFFFFFFFFFFFFFFFFFFFFFFFFFFFFFFF AND DUP2 MSTORE POP POP DUP12 DUP2 PUSH1 0x40 ADD DUP2 SWAP1 MSTORE POP DUP11 DUP2 PUSH1 0x60 ADD DUP2 DUP2 MSTORE POP POP DUP10 DUP2 PUSH1 0x80 ADD DUP2 DUP2 MSTORE POP POP DUP9 DUP2 PUSH1 0xA0 ADD MLOAD PUSH1 0x0 ADD DUP2 SWAP1 MSTORE POP DUP8 DUP2 PUSH1 0xA0 ADD MLOAD PUSH1 0x20 ADD DUP2 SWAP1 MSTORE POP DUP7 DUP2 PUSH1 0xA0 ADD MLOAD PUSH1 0x40 ADD DUP2 DUP2 MSTORE POP POP DUP6 DUP2 PUSH1 0xA0 ADD MLOAD PUSH1 0x60 ADD DUP2 SWAP1 MSTORE POP DUP5 DUP2 PUSH1 0xA0 ADD MLOAD PUSH1 0x80 ADD DUP2 SWAP1 MSTORE POP DUP4 DUP2 PUSH1 0xA0 ADD MLOAD PUSH1 0xA0 ADD DUP2 SWAP1 MSTORE POP DUP3 DUP2 PUSH1 0xA0 ADD MLOAD PUSH1 0xC0 ADD DUP2 SWAP1 MSTORE POP DUP2 DUP2 PUSH1 0xA0 ADD MLOAD PUSH1 0xE0 ADD DUP2 SWAP1 MSTORE POP PUSH1 0x0 DUP2 SWAP1 DUP1 PUSH1 0x1 DUP2 SLOAD ADD DUP1 DUP3 SSTORE DUP1 SWAP2 POP POP PUSH1 0x1 SWAP1 SUB SWAP1 PUSH1 0x0 MSTORE PUSH1 0x20 PUSH1 0x0 KECCAK256 SWAP1 PUSH1 0xD MUL ADD PUSH1 0x0 SWAP1 SWAP2 SWAP1 SWAP2 SWAP1 SWAP2 POP PUSH1 0x0 DUP3 ADD MLOAD DUP2 PUSH1 0x0 ADD SSTORE PUSH1 0x20 DUP3 ADD MLOAD DUP2 PUSH1 0x1 ADD PUSH1 0x0 PUSH2 0x100 EXP DUP2 SLOAD DUP2 PUSH20 0xFFFFFFFFFFFFFFFFFFFFFFFFFFFFFFFFFFFFFFFF MUL NOT AND SWAP1 DUP4 PUSH20 0xFFFFFFFFFFFFFFFFFFFFFFFFFFFFFFFFFFFFFFFF AND MUL OR SWAP1 SSTORE POP PUSH1 0x40 DUP3 ADD MLOAD DUP2 PUSH1 0x2 ADD SWAP1 DUP1 MLOAD SWAP1 PUSH1 0x20 ADD SWAP1 PUSH2 0x19B7 SWAP3 SWAP2 SWAP1 PUSH2 0x230B JUMP JUMPDEST POP PUSH1 0x60 DUP3 ADD MLOAD DUP2 PUSH1 0x3 ADD SSTORE PUSH1 0x80 DUP3 ADD MLOAD DUP2 PUSH1 0x4 ADD SSTORE PUSH1 0xA0 DUP3 ADD MLOAD DUP2 PUSH1 0x5 ADD PUSH1 0x0 DUP3 ADD MLOAD DUP2 PUSH1 0x0 ADD SWAP1 DUP1 MLOAD SWAP1 PUSH1 0x20 ADD SWAP1 PUSH2 0x19F1 SWAP3 SWAP2 SWAP1 PUSH2 0x230B JUMP JUMPDEST POP PUSH1 0x20 DUP3 ADD MLOAD DUP2 PUSH1 0x1 ADD SWAP1 DUP1 MLOAD SWAP1 PUSH1 0x20 ADD SWAP1 PUSH2 0x1A0E SWAP3 SWAP2 SWAP1 PUSH2 0x230B JUMP JUMPDEST POP PUSH1 0x40 DUP3 ADD MLOAD DUP2 PUSH1 0x2 ADD SSTORE PUSH1 0x60 DUP3 ADD MLOAD DUP2 PUSH1 0x3 ADD SWAP1 DUP1 MLOAD SWAP1 PUSH1 0x20 ADD SWAP1 PUSH2 0x1A35 SWAP3 SWAP2 SWAP1 PUSH2 0x2423 JUMP JUMPDEST POP PUSH1 0x80 DUP3 ADD MLOAD DUP2 PUSH1 0x4 ADD SWAP1 DUP1 MLOAD SWAP1 PUSH1 0x20 ADD SWAP1 PUSH2 0x1A52 SWAP3 SWAP2 SWAP1 PUSH2 0x2423 JUMP JUMPDEST POP PUSH1 0xA0 DUP3 ADD MLOAD DUP2 PUSH1 0x5 ADD SWAP1 DUP1 MLOAD SWAP1 PUSH1 0x20 ADD SWAP1 PUSH2 0x1A6F SWAP3 SWAP2 SWAP1 PUSH2 0x2423 JUMP JUMPDEST POP PUSH1 0xC0 DUP3 ADD MLOAD DUP2 PUSH1 0x6 ADD SWAP1 DUP1 MLOAD SWAP1 PUSH1 0x20 ADD SWAP1 PUSH2 0x1A8C SWAP3 SWAP2 SWAP1 PUSH2 0x230B JUMP JUMPDEST POP PUSH1 0xE0 DUP3 ADD MLOAD DUP2 PUSH1 0x7 ADD SWAP1 DUP1 MLOAD SWAP1 PUSH1 0x20 ADD SWAP1 PUSH2 0x1AA9 SWAP3 SWAP2 SWAP1 PUSH2 0x2423 JUMP JUMPDEST POP POP POP POP POP PUSH32 0xB7638EC6AFB0CBBA7F8B3557736034ABDC74DAD72CAB8DF4FEB527EF815C4B1B DUP2 PUSH1 0x0 ADD MLOAD DUP3 PUSH1 0x20 ADD MLOAD DUP4 PUSH1 0x40 ADD MLOAD DUP5 PUSH1 0x60 ADD MLOAD DUP6 PUSH1 0x80 ADD MLOAD DUP7 PUSH1 0xA0 ADD MLOAD PUSH1 0x40 MLOAD PUSH2 0x1AFF SWAP7 SWAP6 SWAP5 SWAP4 SWAP3 SWAP2 SWAP1 PUSH2 0x3223 JUMP JUMPDEST PUSH1 0x40 MLOAD DUP1 SWAP2 SUB SWAP1 LOG1 POP POP POP POP POP POP POP POP POP POP POP POP JUMP JUMPDEST PUSH1 0x0 DUP2 PUSH2 0x1B21 CALLER PUSH2 0x1BE6 JUMP JUMPDEST LT PUSH2 0x1BDB JUMPI DUP2 PUSH1 0x2 PUSH1 0x0 CALLER PUSH20 0xFFFFFFFFFFFFFFFFFFFFFFFFFFFFFFFFFFFFFFFF AND PUSH20 0xFFFFFFFFFFFFFFFFFFFFFFFFFFFFFFFFFFFFFFFF AND DUP2 MSTORE PUSH1 0x20 ADD SWAP1 DUP2 MSTORE PUSH1 0x20 ADD PUSH1 0x0 KECCAK256 PUSH1 0x0 DUP3 DUP3 SLOAD PUSH2 0x1B75 SWAP2 SWAP1 PUSH2 0x34A9 JUMP JUMPDEST SWAP3 POP POP DUP2 SWAP1 SSTORE POP DUP2 PUSH1 0x2 PUSH1 0x0 DUP6 PUSH20 0xFFFFFFFFFFFFFFFFFFFFFFFFFFFFFFFFFFFFFFFF AND PUSH20 0xFFFFFFFFFFFFFFFFFFFFFFFFFFFFFFFFFFFFFFFF AND DUP2 MSTORE PUSH1 0x20 ADD SWAP1 DUP2 MSTORE PUSH1 0x20 ADD PUSH1 0x0 KECCAK256 PUSH1 0x0 DUP3 DUP3 SLOAD PUSH2 0x1BCB SWAP2 SWAP1 PUSH2 0x33F9 JUMP JUMPDEST SWAP3 POP POP DUP2 SWAP1 SSTORE POP PUSH1 0x1 SWAP1 POP PUSH2 0x1BE0 JUMP JUMPDEST PUSH1 0x0 SWAP1 POP JUMPDEST SWAP3 SWAP2 POP POP JUMP JUMPDEST PUSH1 0x0 PUSH1 0x2 PUSH1 0x0 DUP4 PUSH20 0xFFFFFFFFFFFFFFFFFFFFFFFFFFFFFFFFFFFFFFFF AND PUSH20 0xFFFFFFFFFFFFFFFFFFFFFFFFFFFFFFFFFFFFFFFF AND DUP2 MSTORE PUSH1 0x20 ADD SWAP1 DUP2 MSTORE PUSH1 0x20 ADD PUSH1 0x0 KECCAK256 SLOAD SWAP1 POP SWAP2 SWAP1 POP JUMP JUMPDEST PUSH2 0x1C37 PUSH2 0x23D1 JUMP JUMPDEST PUSH1 0x0 DUP3 DUP2 SLOAD DUP2 LT PUSH2 0x1C4B JUMPI PUSH2 0x1C4A PUSH2 0x367B JUMP JUMPDEST JUMPDEST SWAP1 PUSH1 0x0 MSTORE PUSH1 0x20 PUSH1 0x0 KECCAK256 SWAP1 PUSH1 0xD MUL ADD PUSH1 0x40 MLOAD DUP1 PUSH1 0xC0 ADD PUSH1 0x40 MSTORE SWAP1 DUP2 PUSH1 0x0 DUP3 ADD SLOAD DUP2 MSTORE PUSH1 0x20 ADD PUSH1 0x1 DUP3 ADD PUSH1 0x0 SWAP1 SLOAD SWAP1 PUSH2 0x100 EXP SWAP1 DIV PUSH20 0xFFFFFFFFFFFFFFFFFFFFFFFFFFFFFFFFFFFFFFFF AND PUSH20 0xFFFFFFFFFFFFFFFFFFFFFFFFFFFFFFFFFFFFFFFF AND PUSH20 0xFFFFFFFFFFFFFFFFFFFFFFFFFFFFFFFFFFFFFFFF AND DUP2 MSTORE PUSH1 0x20 ADD PUSH1 0x2 DUP3 ADD DUP1 SLOAD PUSH2 0x1CD4 SWAP1 PUSH2 0x3571 JUMP JUMPDEST DUP1 PUSH1 0x1F ADD PUSH1 0x20 DUP1 SWAP2 DIV MUL PUSH1 0x20 ADD PUSH1 0x40 MLOAD SWAP1 DUP2 ADD PUSH1 0x40 MSTORE DUP1 SWAP3 SWAP2 SWAP1 DUP2 DUP2 MSTORE PUSH1 0x20 ADD DUP3 DUP1 SLOAD PUSH2 0x1D00 SWAP1 PUSH2 0x3571 JUMP JUMPDEST DUP1 ISZERO PUSH2 0x1D4D JUMPI DUP1 PUSH1 0x1F LT PUSH2 0x1D22 JUMPI PUSH2 0x100 DUP1 DUP4 SLOAD DIV MUL DUP4 MSTORE SWAP2 PUSH1 0x20 ADD SWAP2 PUSH2 0x1D4D JUMP JUMPDEST DUP3 ADD SWAP2 SWAP1 PUSH1 0x0 MSTORE PUSH1 0x20 PUSH1 0x0 KECCAK256 SWAP1 JUMPDEST DUP2 SLOAD DUP2 MSTORE SWAP1 PUSH1 0x1 ADD SWAP1 PUSH1 0x20 ADD DUP1 DUP4 GT PUSH2 0x1D30 JUMPI DUP3 SWAP1 SUB PUSH1 0x1F AND DUP3 ADD SWAP2 JUMPDEST POP POP POP POP POP DUP2 MSTORE PUSH1 0x20 ADD PUSH1 0x3 DUP3 ADD SLOAD DUP2 MSTORE PUSH1 0x20 ADD PUSH1 0x4 DUP3 ADD SLOAD DUP2 MSTORE PUSH1 0x20 ADD PUSH1 0x5 DUP3 ADD PUSH1 0x40 MLOAD DUP1 PUSH2 0x100 ADD PUSH1 0x40 MSTORE SWAP1 DUP2 PUSH1 0x0 DUP3 ADD DUP1 SLOAD PUSH2 0x1D8B SWAP1 PUSH2 0x3571 JUMP JUMPDEST DUP1 PUSH1 0x1F ADD PUSH1 0x20 DUP1 SWAP2 DIV MUL PUSH1 0x20 ADD PUSH1 0x40 MLOAD SWAP1 DUP2 ADD PUSH1 0x40 MSTORE DUP1 SWAP3 SWAP2 SWAP1 DUP2 DUP2 MSTORE PUSH1 0x20 ADD DUP3 DUP1 SLOAD PUSH2 0x1DB7 SWAP1 PUSH2 0x3571 JUMP JUMPDEST DUP1 ISZERO PUSH2 0x1E04 JUMPI DUP1 PUSH1 0x1F LT PUSH2 0x1DD9 JUMPI PUSH2 0x100 DUP1 DUP4 SLOAD DIV MUL DUP4 MSTORE SWAP2 PUSH1 0x20 ADD SWAP2 PUSH2 0x1E04 JUMP JUMPDEST DUP3 ADD SWAP2 SWAP1 PUSH1 0x0 MSTORE PUSH1 0x20 PUSH1 0x0 KECCAK256 SWAP1 JUMPDEST DUP2 SLOAD DUP2 MSTORE SWAP1 PUSH1 0x1 ADD SWAP1 PUSH1 0x20 ADD DUP1 DUP4 GT PUSH2 0x1DE7 JUMPI DUP3 SWAP1 SUB PUSH1 0x1F AND DUP3 ADD SWAP2 JUMPDEST POP POP POP POP POP DUP2 MSTORE PUSH1 0x20 ADD PUSH1 0x1 DUP3 ADD DUP1 SLOAD PUSH2 0x1E1D SWAP1 PUSH2 0x3571 JUMP JUMPDEST DUP1 PUSH1 0x1F ADD PUSH1 0x20 DUP1 SWAP2 DIV MUL PUSH1 0x20 ADD PUSH1 0x40 MLOAD SWAP1 DUP2 ADD PUSH1 0x40 MSTORE DUP1 SWAP3 SWAP2 SWAP1 DUP2 DUP2 MSTORE PUSH1 0x20 ADD DUP3 DUP1 SLOAD PUSH2 0x1E49 SWAP1 PUSH2 0x3571 JUMP JUMPDEST DUP1 ISZERO PUSH2 0x1E96 JUMPI DUP1 PUSH1 0x1F LT PUSH2 0x1E6B JUMPI PUSH2 0x100 DUP1 DUP4 SLOAD DIV MUL DUP4 MSTORE SWAP2 PUSH1 0x20 ADD SWAP2 PUSH2 0x1E96 JUMP JUMPDEST DUP3 ADD SWAP2 SWAP1 PUSH1 0x0 MSTORE PUSH1 0x20 PUSH1 0x0 KECCAK256 SWAP1 JUMPDEST DUP2 SLOAD DUP2 MSTORE SWAP1 PUSH1 0x1 ADD SWAP1 PUSH1 0x20 ADD DUP1 DUP4 GT PUSH2 0x1E79 JUMPI DUP3 SWAP1 SUB PUSH1 0x1F AND DUP3 ADD SWAP2 JUMPDEST POP POP POP POP POP DUP2 MSTORE PUSH1 0x20 ADD PUSH1 0x2 DUP3 ADD SLOAD DUP2 MSTORE PUSH1 0x20 ADD PUSH1 0x3 DUP3 ADD DUP1 SLOAD DUP1 PUSH1 0x20 MUL PUSH1 0x20 ADD PUSH1 0x40 MLOAD SWAP1 DUP2 ADD PUSH1 0x40 MSTORE DUP1 SWAP3 SWAP2 SWAP1 DUP2 DUP2 MSTORE PUSH1 0x20 ADD PUSH1 0x0 SWAP1 JUMPDEST DUP3 DUP3 LT ISZERO PUSH2 0x1F7A JUMPI DUP4 DUP3 SWAP1 PUSH1 0x0 MSTORE PUSH1 0x20 PUSH1 0x0 KECCAK256 ADD DUP1 SLOAD PUSH2 0x1EED SWAP1 PUSH2 0x3571 JUMP JUMPDEST DUP1 PUSH1 0x1F ADD PUSH1 0x20 DUP1 SWAP2 DIV MUL PUSH1 0x20 ADD PUSH1 0x40 MLOAD SWAP1 DUP2 ADD PUSH1 0x40 MSTORE DUP1 SWAP3 SWAP2 SWAP1 DUP2 DUP2 MSTORE PUSH1 0x20 ADD DUP3 DUP1 SLOAD PUSH2 0x1F19 SWAP1 PUSH2 0x3571 JUMP JUMPDEST DUP1 ISZERO PUSH2 0x1F66 JUMPI DUP1 PUSH1 0x1F LT PUSH2 0x1F3B JUMPI PUSH2 0x100 DUP1 DUP4 SLOAD DIV MUL DUP4 MSTORE SWAP2 PUSH1 0x20 ADD SWAP2 PUSH2 0x1F66 JUMP JUMPDEST DUP3 ADD SWAP2 SWAP1 PUSH1 0x0 MSTORE PUSH1 0x20 PUSH1 0x0 KECCAK256 SWAP1 JUMPDEST DUP2 SLOAD DUP2 MSTORE SWAP1 PUSH1 0x1 ADD SWAP1 PUSH1 0x20 ADD DUP1 DUP4 GT PUSH2 0x1F49 JUMPI DUP3 SWAP1 SUB PUSH1 0x1F AND DUP3 ADD SWAP2 JUMPDEST POP POP POP POP POP DUP2 MSTORE PUSH1 0x20 ADD SWAP1 PUSH1 0x1 ADD SWAP1 PUSH2 0x1ECE JUMP JUMPDEST POP POP POP POP DUP2 MSTORE PUSH1 0x20 ADD PUSH1 0x4 DUP3 ADD DUP1 SLOAD DUP1 PUSH1 0x20 MUL PUSH1 0x20 ADD PUSH1 0x40 MLOAD SWAP1 DUP2 ADD PUSH1 0x40 MSTORE DUP1 SWAP3 SWAP2 SWAP1 DUP2 DUP2 MSTORE PUSH1 0x20 ADD PUSH1 0x0 SWAP1 JUMPDEST DUP3 DUP3 LT ISZERO PUSH2 0x2053 JUMPI DUP4 DUP3 SWAP1 PUSH1 0x0 MSTORE PUSH1 0x20 PUSH1 0x0 KECCAK256 ADD DUP1 SLOAD PUSH2 0x1FC6 SWAP1 PUSH2 0x3571 JUMP JUMPDEST DUP1 PUSH1 0x1F ADD PUSH1 0x20 DUP1 SWAP2 DIV MUL PUSH1 0x20 ADD PUSH1 0x40 MLOAD SWAP1 DUP2 ADD PUSH1 0x40 MSTORE DUP1 SWAP3 SWAP2 SWAP1 DUP2 DUP2 MSTORE PUSH1 0x20 ADD DUP3 DUP1 SLOAD PUSH2 0x1FF2 SWAP1 PUSH2 0x3571 JUMP JUMPDEST DUP1 ISZERO PUSH2 0x203F JUMPI DUP1 PUSH1 0x1F LT PUSH2 0x2014 JUMPI PUSH2 0x100 DUP1 DUP4 SLOAD DIV MUL DUP4 MSTORE SWAP2 PUSH1 0x20 ADD SWAP2 PUSH2 0x203F JUMP JUMPDEST DUP3 ADD SWAP2 SWAP1 PUSH1 0x0 MSTORE PUSH1 0x20 PUSH1 0x0 KECCAK256 SWAP1 JUMPDEST DUP2 SLOAD DUP2 MSTORE SWAP1 PUSH1 0x1 ADD SWAP1 PUSH1 0x20 ADD DUP1 DUP4 GT PUSH2 0x2022 JUMPI DUP3 SWAP1 SUB PUSH1 0x1F AND DUP3 ADD SWAP2 JUMPDEST POP POP POP POP POP DUP2 MSTORE PUSH1 0x20 ADD SWAP1 PUSH1 0x1 ADD SWAP1 PUSH2 0x1FA7 JUMP JUMPDEST POP POP POP POP DUP2 MSTORE PUSH1 0x20 ADD PUSH1 0x5 DUP3 ADD DUP1 SLOAD DUP1 PUSH1 0x20 MUL PUSH1 0x20 ADD PUSH1 0x40 MLOAD SWAP1 DUP2 ADD PUSH1 0x40 MSTORE DUP1 SWAP3 SWAP2 SWAP1 DUP2 DUP2 MSTORE PUSH1 0x20 ADD PUSH1 0x0 SWAP1 JUMPDEST DUP3 DUP3 LT ISZERO PUSH2 0x212C JUMPI DUP4 DUP3 SWAP1 PUSH1 0x0 MSTORE PUSH1 0x20 PUSH1 0x0 KECCAK256 ADD DUP1 SLOAD PUSH2 0x209F SWAP1 PUSH2 0x3571 JUMP JUMPDEST DUP1 PUSH1 0x1F ADD PUSH1 0x20 DUP1 SWAP2 DIV MUL PUSH1 0x20 ADD PUSH1 0x40 MLOAD SWAP1 DUP2 ADD PUSH1 0x40 MSTORE DUP1 SWAP3 SWAP2 SWAP1 DUP2 DUP2 MSTORE PUSH1 0x20 ADD DUP3 DUP1 SLOAD PUSH2 0x20CB SWAP1 PUSH2 0x3571 JUMP JUMPDEST DUP1 ISZERO PUSH2 0x2118 JUMPI DUP1 PUSH1 0x1F LT PUSH2 0x20ED JUMPI PUSH2 0x100 DUP1 DUP4 SLOAD DIV MUL DUP4 MSTORE SWAP2 PUSH1 0x20 ADD SWAP2 PUSH2 0x2118 JUMP JUMPDEST DUP3 ADD SWAP2 SWAP1 PUSH1 0x0 MSTORE PUSH1 0x20 PUSH1 0x0 KECCAK256 SWAP1 JUMPDEST DUP2 SLOAD DUP2 MSTORE SWAP1 PUSH1 0x1 ADD SWAP1 PUSH1 0x20 ADD DUP1 DUP4 GT PUSH2 0x20FB JUMPI DUP3 SWAP1 SUB PUSH1 0x1F AND DUP3 ADD SWAP2 JUMPDEST POP POP POP POP POP DUP2 MSTORE PUSH1 0x20 ADD SWAP1 PUSH1 0x1 ADD SWAP1 PUSH2 0x2080 JUMP JUMPDEST POP POP POP POP DUP2 MSTORE PUSH1 0x20 ADD PUSH1 0x6 DUP3 ADD DUP1 SLOAD PUSH2 0x2144 SWAP1 PUSH2 0x3571 JUMP JUMPDEST DUP1 PUSH1 0x1F ADD PUSH1 0x20 DUP1 SWAP2 DIV MUL PUSH1 0x20 ADD PUSH1 0x40 MLOAD SWAP1 DUP2 ADD PUSH1 0x40 MSTORE DUP1 SWAP3 SWAP2 SWAP1 DUP2 DUP2 MSTORE PUSH1 0x20 ADD DUP3 DUP1 SLOAD PUSH2 0x2170 SWAP1 PUSH2 0x3571 JUMP JUMPDEST DUP1 ISZERO PUSH2 0x21BD JUMPI DUP1 PUSH1 0x1F LT PUSH2 0x2192 JUMPI PUSH2 0x100 DUP1 DUP4 SLOAD DIV MUL DUP4 MSTORE SWAP2 PUSH1 0x20 ADD SWAP2 PUSH2 0x21BD JUMP JUMPDEST DUP3 ADD SWAP2 SWAP1 PUSH1 0x0 MSTORE PUSH1 0x20 PUSH1 0x0 KECCAK256 SWAP1 JUMPDEST DUP2 SLOAD DUP2 MSTORE SWAP1 PUSH1 0x1 ADD SWAP1 PUSH1 0x20 ADD DUP1 DUP4 GT PUSH2 0x21A0 JUMPI DUP3 SWAP1 SUB PUSH1 0x1F AND DUP3 ADD SWAP2 JUMPDEST POP POP POP POP POP DUP2 MSTORE PUSH1 0x20 ADD PUSH1 0x7 DUP3 ADD DUP1 SLOAD DUP1 PUSH1 0x20 MUL PUSH1 0x20 ADD PUSH1 0x40 MLOAD SWAP1 DUP2 ADD PUSH1 0x40 MSTORE DUP1 SWAP3 SWAP2 SWAP1 DUP2 DUP2 MSTORE PUSH1 0x20 ADD PUSH1 0x0 SWAP1 JUMPDEST DUP3 DUP3 LT ISZERO PUSH2 0x2297 JUMPI DUP4 DUP3 SWAP1 PUSH1 0x0 MSTORE PUSH1 0x20 PUSH1 0x0 KECCAK256 ADD DUP1 SLOAD PUSH2 0x220A SWAP1 PUSH2 0x3571 JUMP JUMPDEST DUP1 PUSH1 0x1F ADD PUSH1 0x20 DUP1 SWAP2 DIV MUL PUSH1 0x20 ADD PUSH1 0x40 MLOAD SWAP1 DUP2 ADD PUSH1 0x40 MSTORE DUP1 SWAP3 SWAP2 SWAP1 DUP2 DUP2 MSTORE PUSH1 0x20 ADD DUP3 DUP1 SLOAD PUSH2 0x2236 SWAP1 PUSH2 0x3571 JUMP JUMPDEST DUP1 ISZERO PUSH2 0x2283 JUMPI DUP1 PUSH1 0x1F LT PUSH2 0x2258 JUMPI PUSH2 0x100 DUP1 DUP4 SLOAD DIV MUL DUP4 MSTORE SWAP2 PUSH1 0x20 ADD SWAP2 PUSH2 0x2283 JUMP JUMPDEST DUP3 ADD SWAP2 SWAP1 PUSH1 0x0 MSTORE PUSH1 0x20 PUSH1 0x0 KECCAK256 SWAP1 JUMPDEST DUP2 SLOAD DUP2 MSTORE SWAP1 PUSH1 0x1 ADD SWAP1 PUSH1 0x20 ADD DUP1 DUP4 GT PUSH2 0x2266 JUMPI DUP3 SWAP1 SUB PUSH1 0x1F AND DUP3 ADD SWAP2 JUMPDEST POP POP POP POP POP DUP2 MSTORE PUSH1 0x20 ADD SWAP1 PUSH1 0x1 ADD SWAP1 PUSH2 0x21EB JUMP JUMPDEST POP POP POP POP DUP2 MSTORE POP POP DUP2 MSTORE POP POP SWAP1 POP SWAP2 SWAP1 POP JUMP JUMPDEST PUSH1 0x40 MLOAD DUP1 PUSH2 0x100 ADD PUSH1 0x40 MSTORE DUP1 PUSH1 0x0 PUSH20 0xFFFFFFFFFFFFFFFFFFFFFFFFFFFFFFFFFFFFFFFF AND DUP2 MSTORE PUSH1 0x20 ADD PUSH1 0x60 DUP2 MSTORE PUSH1 0x20 ADD PUSH1 0x60 DUP2 MSTORE PUSH1 0x20 ADD PUSH1 0x60 DUP2 MSTORE PUSH1 0x20 ADD PUSH1 0x60 DUP2 MSTORE PUSH1 0x20 ADD PUSH1 0x0 DUP2 MSTORE PUSH1 0x20 ADD PUSH2 0x22FE PUSH2 0x2483 JUMP JUMPDEST DUP2 MSTORE PUSH1 0x20 ADD PUSH1 0x60 DUP2 MSTORE POP SWAP1 JUMP JUMPDEST DUP3 DUP1 SLOAD PUSH2 0x2317 SWAP1 PUSH2 0x3571 JUMP JUMPDEST SWAP1 PUSH1 0x0 MSTORE PUSH1 0x20 PUSH1 0x0 KECCAK256 SWAP1 PUSH1 0x1F ADD PUSH1 0x20 SWAP1 DIV DUP2 ADD SWAP3 DUP3 PUSH2 0x2339 JUMPI PUSH1 0x0 DUP6 SSTORE PUSH2 0x2380 JUMP JUMPDEST DUP3 PUSH1 0x1F LT PUSH2 0x2352 JUMPI DUP1 MLOAD PUSH1 0xFF NOT AND DUP4 DUP1 ADD OR DUP6 SSTORE PUSH2 0x2380 JUMP JUMPDEST DUP3 DUP1 ADD PUSH1 0x1 ADD DUP6 SSTORE DUP3 ISZERO PUSH2 0x2380 JUMPI SWAP2 DUP3 ADD JUMPDEST DUP3 DUP2 GT ISZERO PUSH2 0x237F JUMPI DUP3 MLOAD DUP3 SSTORE SWAP2 PUSH1 0x20 ADD SWAP2 SWAP1 PUSH1 0x1 ADD SWAP1 PUSH2 0x2364 JUMP JUMPDEST JUMPDEST POP SWAP1 POP PUSH2 0x238D SWAP2 SWAP1 PUSH2 0x24A6 JUMP JUMPDEST POP SWAP1 JUMP JUMPDEST DUP3 PUSH1 0xC DUP2 ADD SWAP3 DUP3 ISZERO PUSH2 0x23C0 JUMPI SWAP2 PUSH1 0x20 MUL DUP3 ADD JUMPDEST DUP3 DUP2 GT ISZERO PUSH2 0x23BF JUMPI DUP3 MLOAD DUP3 SSTORE SWAP2 PUSH1 0x20 ADD SWAP2 SWAP1 PUSH1 0x1 ADD SWAP1 PUSH2 0x23A4 JUMP JUMPDEST JUMPDEST POP SWAP1 POP PUSH2 0x23CD SWAP2 SWAP1 PUSH2 0x24A6 JUMP JUMPDEST POP SWAP1 JUMP JUMPDEST PUSH1 0x40 MLOAD DUP1 PUSH1 0xC0 ADD PUSH1 0x40 MSTORE DUP1 PUSH1 0x0 DUP2 MSTORE PUSH1 0x20 ADD PUSH1 0x0 PUSH20 0xFFFFFFFFFFFFFFFFFFFFFFFFFFFFFFFFFFFFFFFF AND DUP2 MSTORE PUSH1 0x20 ADD PUSH1 0x60 DUP2 MSTORE PUSH1 0x20 ADD PUSH1 0x0 DUP2 MSTORE PUSH1 0x20 ADD PUSH1 0x0 DUP2 MSTORE PUSH1 0x20 ADD PUSH2 0x241D PUSH2 0x24C3 JUMP JUMPDEST DUP2 MSTORE POP SWAP1 JUMP JUMPDEST DUP3 DUP1 SLOAD DUP3 DUP3 SSTORE SWAP1 PUSH1 0x0 MSTORE PUSH1 0x20 PUSH1 0x0 KECCAK256 SWAP1 DUP2 ADD SWAP3 DUP3 ISZERO PUSH2 0x2472 JUMPI SWAP2 PUSH1 0x20 MUL DUP3 ADD JUMPDEST DUP3 DUP2 GT ISZERO PUSH2 0x2471 JUMPI DUP3 MLOAD DUP3 SWAP1 DUP1 MLOAD SWAP1 PUSH1 0x20 ADD SWAP1 PUSH2 0x2461 SWAP3 SWAP2 SWAP1 PUSH2 0x230B JUMP JUMPDEST POP SWAP2 PUSH1 0x20 ADD SWAP2 SWAP1 PUSH1 0x1 ADD SWAP1 PUSH2 0x2443 JUMP JUMPDEST JUMPDEST POP SWAP1 POP PUSH2 0x247F SWAP2 SWAP1 PUSH2 0x2508 JUMP JUMPDEST POP SWAP1 JUMP JUMPDEST PUSH1 0x40 MLOAD DUP1 PUSH2 0x180 ADD PUSH1 0x40 MSTORE DUP1 PUSH1 0xC SWAP1 PUSH1 0x20 DUP3 MUL DUP1 CALLDATASIZE DUP4 CALLDATACOPY DUP1 DUP3 ADD SWAP2 POP POP SWAP1 POP POP SWAP1 JUMP JUMPDEST JUMPDEST DUP1 DUP3 GT ISZERO PUSH2 0x24BF JUMPI PUSH1 0x0 DUP2 PUSH1 0x0 SWAP1 SSTORE POP PUSH1 0x1 ADD PUSH2 0x24A7 JUMP JUMPDEST POP SWAP1 JUMP JUMPDEST PUSH1 0x40 MLOAD DUP1 PUSH2 0x100 ADD PUSH1 0x40 MSTORE DUP1 PUSH1 0x60 DUP2 MSTORE PUSH1 0x20 ADD PUSH1 0x60 DUP2 MSTORE PUSH1 0x20 ADD PUSH1 0x0 DUP2 MSTORE PUSH1 0x20 ADD PUSH1 0x60 DUP2 MSTORE PUSH1 0x20 ADD PUSH1 0x60 DUP2 MSTORE PUSH1 0x20 ADD PUSH1 0x60 DUP2 MSTORE PUSH1 0x20 ADD PUSH1 0x60 DUP2 MSTORE PUSH1 0x20 ADD PUSH1 0x60 DUP2 MSTORE POP SWAP1 JUMP JUMPDEST JUMPDEST DUP1 DUP3 GT ISZERO PUSH2 0x2528 JUMPI PUSH1 0x0 DUP2 DUP2 PUSH2 0x251F SWAP2 SWAP1 PUSH2 0x252C JUMP JUMPDEST POP PUSH1 0x1 ADD PUSH2 0x2509 JUMP JUMPDEST POP SWAP1 JUMP JUMPDEST POP DUP1 SLOAD PUSH2 0x2538 SWAP1 PUSH2 0x3571 JUMP JUMPDEST PUSH1 0x0 DUP3 SSTORE DUP1 PUSH1 0x1F LT PUSH2 0x254A JUMPI POP PUSH2 0x2569 JUMP JUMPDEST PUSH1 0x1F ADD PUSH1 0x20 SWAP1 DIV SWAP1 PUSH1 0x0 MSTORE PUSH1 0x20 PUSH1 0x0 KECCAK256 SWAP1 DUP2 ADD SWAP1 PUSH2 0x2568 SWAP2 SWAP1 PUSH2 0x24A6 JUMP JUMPDEST JUMPDEST POP JUMP JUMPDEST PUSH1 0x0 PUSH2 0x257F PUSH2 0x257A DUP5 PUSH2 0x32B7 JUMP JUMPDEST PUSH2 0x3292 JUMP JUMPDEST SWAP1 POP DUP1 DUP4 DUP3 MSTORE PUSH1 0x20 DUP3 ADD SWAP1 POP DUP3 DUP6 PUSH1 0x20 DUP7 MUL DUP3 ADD GT ISZERO PUSH2 0x25A2 JUMPI PUSH2 0x25A1 PUSH2 0x36DE JUMP JUMPDEST JUMPDEST PUSH1 0x0 JUMPDEST DUP6 DUP2 LT ISZERO PUSH2 0x25D2 JUMPI DUP2 PUSH2 0x25B8 DUP9 DUP3 PUSH2 0x2713 JUMP JUMPDEST DUP5 MSTORE PUSH1 0x20 DUP5 ADD SWAP4 POP PUSH1 0x20 DUP4 ADD SWAP3 POP POP PUSH1 0x1 DUP2 ADD SWAP1 POP PUSH2 0x25A5 JUMP JUMPDEST POP POP POP SWAP4 SWAP3 POP POP POP JUMP JUMPDEST PUSH1 0x0 PUSH2 0x25EF PUSH2 0x25EA DUP5 PUSH2 0x32E3 JUMP JUMPDEST PUSH2 0x3292 JUMP JUMPDEST SWAP1 POP DUP1 DUP4 DUP3 MSTORE PUSH1 0x20 DUP3 ADD SWAP1 POP DUP3 DUP6 PUSH1 0x20 DUP7 MUL DUP3 ADD GT ISZERO PUSH2 0x2612 JUMPI PUSH2 0x2611 PUSH2 0x36DE JUMP JUMPDEST JUMPDEST PUSH1 0x0 JUMPDEST DUP6 DUP2 LT ISZERO PUSH2 0x2660 JUMPI DUP2 CALLDATALOAD PUSH8 0xFFFFFFFFFFFFFFFF DUP2 GT ISZERO PUSH2 0x2638 JUMPI PUSH2 0x2637 PUSH2 0x36D9 JUMP JUMPDEST JUMPDEST DUP1 DUP7 ADD PUSH2 0x2645 DUP10 DUP3 PUSH2 0x27C4 JUMP JUMPDEST DUP6 MSTORE PUSH1 0x20 DUP6 ADD SWAP5 POP PUSH1 0x20 DUP5 ADD SWAP4 POP POP POP PUSH1 0x1 DUP2 ADD SWAP1 POP PUSH2 0x2615 JUMP JUMPDEST POP POP POP SWAP4 SWAP3 POP POP POP JUMP JUMPDEST PUSH1 0x0 PUSH2 0x267D PUSH2 0x2678 DUP5 PUSH2 0x330F JUMP JUMPDEST PUSH2 0x3292 JUMP JUMPDEST SWAP1 POP DUP1 DUP3 DUP6 PUSH1 0x20 DUP7 MUL DUP3 ADD GT ISZERO PUSH2 0x2697 JUMPI PUSH2 0x2696 PUSH2 0x36DE JUMP JUMPDEST JUMPDEST PUSH1 0x0 JUMPDEST DUP6 DUP2 LT ISZERO PUSH2 0x26C7 JUMPI DUP2 PUSH2 0x26AD DUP9 DUP3 PUSH2 0x27F2 JUMP JUMPDEST DUP5 MSTORE PUSH1 0x20 DUP5 ADD SWAP4 POP PUSH1 0x20 DUP4 ADD SWAP3 POP POP PUSH1 0x1 DUP2 ADD SWAP1 POP PUSH2 0x269A JUMP JUMPDEST POP POP POP SWAP4 SWAP3 POP POP POP JUMP JUMPDEST PUSH1 0x0 PUSH2 0x26E4 PUSH2 0x26DF DUP5 PUSH2 0x3335 JUMP JUMPDEST PUSH2 0x3292 JUMP JUMPDEST SWAP1 POP DUP3 DUP2 MSTORE PUSH1 0x20 DUP2 ADD DUP5 DUP5 DUP5 ADD GT ISZERO PUSH2 0x2700 JUMPI PUSH2 0x26FF PUSH2 0x36E3 JUMP JUMPDEST JUMPDEST PUSH2 0x270B DUP5 DUP3 DUP6 PUSH2 0x352F JUMP JUMPDEST POP SWAP4 SWAP3 POP POP POP JUMP JUMPDEST PUSH1 0x0 DUP2 CALLDATALOAD SWAP1 POP PUSH2 0x2722 DUP2 PUSH2 0x3703 JUMP JUMPDEST SWAP3 SWAP2 POP POP JUMP JUMPDEST PUSH1 0x0 DUP3 PUSH1 0x1F DUP4 ADD SLT PUSH2 0x273D JUMPI PUSH2 0x273C PUSH2 0x36D9 JUMP JUMPDEST JUMPDEST DUP2 CALLDATALOAD PUSH2 0x274D DUP5 DUP3 PUSH1 0x20 DUP7 ADD PUSH2 0x256C JUMP JUMPDEST SWAP2 POP POP SWAP3 SWAP2 POP POP JUMP JUMPDEST PUSH1 0x0 DUP3 PUSH1 0x1F DUP4 ADD SLT PUSH2 0x276B JUMPI PUSH2 0x276A PUSH2 0x36D9 JUMP JUMPDEST JUMPDEST DUP2 CALLDATALOAD PUSH2 0x277B DUP5 DUP3 PUSH1 0x20 DUP7 ADD PUSH2 0x25DC JUMP JUMPDEST SWAP2 POP POP SWAP3 SWAP2 POP POP JUMP JUMPDEST PUSH1 0x0 DUP3 PUSH1 0x1F DUP4 ADD SLT PUSH2 0x2799 JUMPI PUSH2 0x2798 PUSH2 0x36D9 JUMP JUMPDEST JUMPDEST PUSH1 0xC PUSH2 0x27A6 DUP5 DUP3 DUP6 PUSH2 0x266A JUMP JUMPDEST SWAP2 POP POP SWAP3 SWAP2 POP POP JUMP JUMPDEST PUSH1 0x0 DUP2 CALLDATALOAD SWAP1 POP PUSH2 0x27BE DUP2 PUSH2 0x371A JUMP JUMPDEST SWAP3 SWAP2 POP POP JUMP JUMPDEST PUSH1 0x0 DUP3 PUSH1 0x1F DUP4 ADD SLT PUSH2 0x27D9 JUMPI PUSH2 0x27D8 PUSH2 0x36D9 JUMP JUMPDEST JUMPDEST DUP2 CALLDATALOAD PUSH2 0x27E9 DUP5 DUP3 PUSH1 0x20 DUP7 ADD PUSH2 0x26D1 JUMP JUMPDEST SWAP2 POP POP SWAP3 SWAP2 POP POP JUMP JUMPDEST PUSH1 0x0 DUP2 CALLDATALOAD SWAP1 POP PUSH2 0x2801 DUP2 PUSH2 0x3731 JUMP JUMPDEST SWAP3 SWAP2 POP POP JUMP JUMPDEST PUSH1 0x0 PUSH1 0x20 DUP3 DUP5 SUB SLT ISZERO PUSH2 0x281D JUMPI PUSH2 0x281C PUSH2 0x36ED JUMP JUMPDEST JUMPDEST PUSH1 0x0 PUSH2 0x282B DUP5 DUP3 DUP6 ADD PUSH2 0x2713 JUMP JUMPDEST SWAP2 POP POP SWAP3 SWAP2 POP POP JUMP JUMPDEST PUSH1 0x0 DUP1 PUSH1 0x40 DUP4 DUP6 SUB SLT ISZERO PUSH2 0x284B JUMPI PUSH2 0x284A PUSH2 0x36ED JUMP JUMPDEST JUMPDEST PUSH1 0x0 PUSH2 0x2859 DUP6 DUP3 DUP7 ADD PUSH2 0x2713 JUMP JUMPDEST SWAP3 POP POP PUSH1 0x20 PUSH2 0x286A DUP6 DUP3 DUP7 ADD PUSH2 0x27F2 JUMP JUMPDEST SWAP2 POP POP SWAP3 POP SWAP3 SWAP1 POP JUMP JUMPDEST PUSH1 0x0 PUSH1 0x20 DUP3 DUP5 SUB SLT ISZERO PUSH2 0x288A JUMPI PUSH2 0x2889 PUSH2 0x36ED JUMP JUMPDEST JUMPDEST PUSH1 0x0 DUP3 ADD CALLDATALOAD PUSH8 0xFFFFFFFFFFFFFFFF DUP2 GT ISZERO PUSH2 0x28A8 JUMPI PUSH2 0x28A7 PUSH2 0x36E8 JUMP JUMPDEST JUMPDEST PUSH2 0x28B4 DUP5 DUP3 DUP6 ADD PUSH2 0x2728 JUMP JUMPDEST SWAP2 POP POP SWAP3 SWAP2 POP POP JUMP JUMPDEST PUSH1 0x0 DUP1 PUSH1 0x0 DUP1 PUSH1 0x0 DUP1 PUSH1 0x0 PUSH2 0x240 DUP9 DUP11 SUB SLT ISZERO PUSH2 0x28DD JUMPI PUSH2 0x28DC PUSH2 0x36ED JUMP JUMPDEST JUMPDEST PUSH1 0x0 DUP9 ADD CALLDATALOAD PUSH8 0xFFFFFFFFFFFFFFFF DUP2 GT ISZERO PUSH2 0x28FB JUMPI PUSH2 0x28FA PUSH2 0x36E8 JUMP JUMPDEST JUMPDEST PUSH2 0x2907 DUP11 DUP3 DUP12 ADD PUSH2 0x27C4 JUMP JUMPDEST SWAP8 POP POP PUSH1 0x20 DUP9 ADD CALLDATALOAD PUSH8 0xFFFFFFFFFFFFFFFF DUP2 GT ISZERO PUSH2 0x2928 JUMPI PUSH2 0x2927 PUSH2 0x36E8 JUMP JUMPDEST JUMPDEST PUSH2 0x2934 DUP11 DUP3 DUP12 ADD PUSH2 0x27C4 JUMP JUMPDEST SWAP7 POP POP PUSH1 0x40 DUP9 ADD CALLDATALOAD PUSH8 0xFFFFFFFFFFFFFFFF DUP2 GT ISZERO PUSH2 0x2955 JUMPI PUSH2 0x2954 PUSH2 0x36E8 JUMP JUMPDEST JUMPDEST PUSH2 0x2961 DUP11 DUP3 DUP12 ADD PUSH2 0x27C4 JUMP JUMPDEST SWAP6 POP POP PUSH1 0x60 DUP9 ADD CALLDATALOAD PUSH8 0xFFFFFFFFFFFFFFFF DUP2 GT ISZERO PUSH2 0x2982 JUMPI PUSH2 0x2981 PUSH2 0x36E8 JUMP JUMPDEST JUMPDEST PUSH2 0x298E DUP11 DUP3 DUP12 ADD PUSH2 0x27C4 JUMP JUMPDEST SWAP5 POP POP PUSH1 0x80 PUSH2 0x299F DUP11 DUP3 DUP12 ADD PUSH2 0x27F2 JUMP JUMPDEST SWAP4 POP POP PUSH1 0xA0 PUSH2 0x29B0 DUP11 DUP3 DUP12 ADD PUSH2 0x2784 JUMP JUMPDEST SWAP3 POP POP PUSH2 0x220 DUP9 ADD CALLDATALOAD PUSH8 0xFFFFFFFFFFFFFFFF DUP2 GT ISZERO PUSH2 0x29D2 JUMPI PUSH2 0x29D1 PUSH2 0x36E8 JUMP JUMPDEST JUMPDEST PUSH2 0x29DE DUP11 DUP3 DUP12 ADD PUSH2 0x27C4 JUMP JUMPDEST SWAP2 POP POP SWAP3 SWAP6 SWAP9 SWAP2 SWAP5 SWAP8 POP SWAP3 SWAP6 POP JUMP JUMPDEST PUSH1 0x0 DUP1 PUSH1 0x0 DUP1 PUSH1 0x0 DUP1 PUSH1 0x0 DUP1 PUSH1 0x0 DUP1 PUSH1 0x0 PUSH2 0x160 DUP13 DUP15 SUB SLT ISZERO PUSH2 0x2A13 JUMPI PUSH2 0x2A12 PUSH2 0x36ED JUMP JUMPDEST JUMPDEST PUSH1 0x0 DUP13 ADD CALLDATALOAD PUSH8 0xFFFFFFFFFFFFFFFF DUP2 GT ISZERO PUSH2 0x2A31 JUMPI PUSH2 0x2A30 PUSH2 0x36E8 JUMP JUMPDEST JUMPDEST PUSH2 0x2A3D DUP15 DUP3 DUP16 ADD PUSH2 0x27C4 JUMP JUMPDEST SWAP12 POP POP PUSH1 0x20 PUSH2 0x2A4E DUP15 DUP3 DUP16 ADD PUSH2 0x27F2 JUMP JUMPDEST SWAP11 POP POP PUSH1 0x40 PUSH2 0x2A5F DUP15 DUP3 DUP16 ADD PUSH2 0x27F2 JUMP JUMPDEST SWAP10 POP POP PUSH1 0x60 DUP13 ADD CALLDATALOAD PUSH8 0xFFFFFFFFFFFFFFFF DUP2 GT ISZERO PUSH2 0x2A80 JUMPI PUSH2 0x2A7F PUSH2 0x36E8 JUMP JUMPDEST JUMPDEST PUSH2 0x2A8C DUP15 DUP3 DUP16 ADD PUSH2 0x27C4 JUMP JUMPDEST SWAP9 POP POP PUSH1 0x80 DUP13 ADD CALLDATALOAD PUSH8 0xFFFFFFFFFFFFFFFF DUP2 GT ISZERO PUSH2 0x2AAD JUMPI PUSH2 0x2AAC PUSH2 0x36E8 JUMP JUMPDEST JUMPDEST PUSH2 0x2AB9 DUP15 DUP3 DUP16 ADD PUSH2 0x27C4 JUMP JUMPDEST SWAP8 POP POP PUSH1 0xA0 PUSH2 0x2ACA DUP15 DUP3 DUP16 ADD PUSH2 0x27AF JUMP JUMPDEST SWAP7 POP POP PUSH1 0xC0 DUP13 ADD CALLDATALOAD PUSH8 0xFFFFFFFFFFFFFFFF DUP2 GT ISZERO PUSH2 0x2AEB JUMPI PUSH2 0x2AEA PUSH2 0x36E8 JUMP JUMPDEST JUMPDEST PUSH2 0x2AF7 DUP15 DUP3 DUP16 ADD PUSH2 0x2756 JUMP JUMPDEST SWAP6 POP POP PUSH1 0xE0 DUP13 ADD CALLDATALOAD PUSH8 0xFFFFFFFFFFFFFFFF DUP2 GT ISZERO PUSH2 0x2B18 JUMPI PUSH2 0x2B17 PUSH2 0x36E8 JUMP JUMPDEST JUMPDEST PUSH2 0x2B24 DUP15 DUP3 DUP16 ADD PUSH2 0x2756 JUMP JUMPDEST SWAP5 POP POP PUSH2 0x100 DUP13 ADD CALLDATALOAD PUSH8 0xFFFFFFFFFFFFFFFF DUP2 GT ISZERO PUSH2 0x2B46 JUMPI PUSH2 0x2B45 PUSH2 0x36E8 JUMP JUMPDEST JUMPDEST PUSH2 0x2B52 DUP15 DUP3 DUP16 ADD PUSH2 0x2756 JUMP JUMPDEST SWAP4 POP POP PUSH2 0x120 DUP13 ADD CALLDATALOAD PUSH8 0xFFFFFFFFFFFFFFFF DUP2 GT ISZERO PUSH2 0x2B74 JUMPI PUSH2 0x2B73 PUSH2 0x36E8 JUMP JUMPDEST JUMPDEST PUSH2 0x2B80 DUP15 DUP3 DUP16 ADD PUSH2 0x27C4 JUMP JUMPDEST SWAP3 POP POP PUSH2 0x140 DUP13 ADD CALLDATALOAD PUSH8 0xFFFFFFFFFFFFFFFF DUP2 GT ISZERO PUSH2 0x2BA2 JUMPI PUSH2 0x2BA1 PUSH2 0x36E8 JUMP JUMPDEST JUMPDEST PUSH2 0x2BAE DUP15 DUP3 DUP16 ADD PUSH2 0x2756 JUMP JUMPDEST SWAP2 POP POP SWAP3 SWAP6 SWAP9 SWAP12 POP SWAP3 SWAP6 SWAP9 SWAP12 SWAP1 SWAP4 SWAP7 SWAP10 POP JUMP JUMPDEST PUSH1 0x0 PUSH1 0x20 DUP3 DUP5 SUB SLT ISZERO PUSH2 0x2BD7 JUMPI PUSH2 0x2BD6 PUSH2 0x36ED JUMP JUMPDEST JUMPDEST PUSH1 0x0 PUSH2 0x2BE5 DUP5 DUP3 DUP6 ADD PUSH2 0x27F2 JUMP JUMPDEST SWAP2 POP POP SWAP3 SWAP2 POP POP JUMP JUMPDEST PUSH1 0x0 DUP1 PUSH1 0x40 DUP4 DUP6 SUB SLT ISZERO PUSH2 0x2C05 JUMPI PUSH2 0x2C04 PUSH2 0x36ED JUMP JUMPDEST JUMPDEST PUSH1 0x0 PUSH2 0x2C13 DUP6 DUP3 DUP7 ADD PUSH2 0x27F2 JUMP JUMPDEST SWAP3 POP POP PUSH1 0x20 PUSH2 0x2C24 DUP6 DUP3 DUP7 ADD PUSH2 0x27F2 JUMP JUMPDEST SWAP2 POP POP SWAP3 POP SWAP3 SWAP1 POP JUMP JUMPDEST PUSH1 0x0 PUSH2 0x2C3A DUP4 DUP4 PUSH2 0x2D62 JUMP JUMPDEST SWAP1 POP SWAP3 SWAP2 POP POP JUMP JUMPDEST PUSH1 0x0 PUSH2 0x2C4E DUP4 DUP4 PUSH2 0x3018 JUMP JUMPDEST PUSH1 0x20 DUP4 ADD SWAP1 POP SWAP3 SWAP2 POP POP JUMP JUMPDEST PUSH2 0x2C63 DUP2 PUSH2 0x34DD JUMP JUMPDEST DUP3 MSTORE POP POP JUMP JUMPDEST PUSH2 0x2C72 DUP2 PUSH2 0x34DD JUMP JUMPDEST DUP3 MSTORE POP POP JUMP JUMPDEST PUSH1 0x0 PUSH2 0x2C83 DUP3 PUSH2 0x3380 JUMP JUMPDEST PUSH2 0x2C8D DUP2 DUP6 PUSH2 0x33BB JUMP JUMPDEST SWAP4 POP DUP4 PUSH1 0x20 DUP3 MUL DUP6 ADD PUSH2 0x2C9F DUP6 PUSH2 0x3366 JUMP JUMPDEST DUP1 PUSH1 0x0 JUMPDEST DUP6 DUP2 LT ISZERO PUSH2 0x2CDB JUMPI DUP5 DUP5 SUB DUP10 MSTORE DUP2 MLOAD PUSH2 0x2CBC DUP6 DUP3 PUSH2 0x2C2E JUMP JUMPDEST SWAP5 POP PUSH2 0x2CC7 DUP4 PUSH2 0x33A1 JUMP JUMPDEST SWAP3 POP PUSH1 0x20 DUP11 ADD SWAP10 POP POP PUSH1 0x1 DUP2 ADD SWAP1 POP PUSH2 0x2CA3 JUMP JUMPDEST POP DUP3 SWAP8 POP DUP8 SWAP6 POP POP POP POP POP POP SWAP3 SWAP2 POP POP JUMP JUMPDEST PUSH2 0x2CF6 DUP2 PUSH2 0x338B JUMP JUMPDEST PUSH2 0x2D00 DUP2 DUP5 PUSH2 0x33CC JUMP JUMPDEST SWAP3 POP PUSH2 0x2D0B DUP3 PUSH2 0x3376 JUMP JUMPDEST DUP1 PUSH1 0x0 JUMPDEST DUP4 DUP2 LT ISZERO PUSH2 0x2D3C JUMPI DUP2 MLOAD PUSH2 0x2D23 DUP8 DUP3 PUSH2 0x2C42 JUMP JUMPDEST SWAP7 POP PUSH2 0x2D2E DUP4 PUSH2 0x33AE JUMP JUMPDEST SWAP3 POP POP PUSH1 0x1 DUP2 ADD SWAP1 POP PUSH2 0x2D0F JUMP JUMPDEST POP POP POP POP POP POP JUMP JUMPDEST PUSH2 0x2D4D DUP2 PUSH2 0x34EF JUMP JUMPDEST DUP3 MSTORE POP POP JUMP JUMPDEST PUSH2 0x2D5C DUP2 PUSH2 0x34FB JUMP JUMPDEST DUP3 MSTORE POP POP JUMP JUMPDEST PUSH1 0x0 PUSH2 0x2D6D DUP3 PUSH2 0x3396 JUMP JUMPDEST PUSH2 0x2D77 DUP2 DUP6 PUSH2 0x33D7 JUMP JUMPDEST SWAP4 POP PUSH2 0x2D87 DUP2 DUP6 PUSH1 0x20 DUP7 ADD PUSH2 0x353E JUMP JUMPDEST PUSH2 0x2D90 DUP2 PUSH2 0x36F2 JUMP JUMPDEST DUP5 ADD SWAP2 POP POP SWAP3 SWAP2 POP POP JUMP JUMPDEST PUSH1 0x0 PUSH2 0x2DA6 DUP3 PUSH2 0x3396 JUMP JUMPDEST PUSH2 0x2DB0 DUP2 DUP6 PUSH2 0x33E8 JUMP JUMPDEST SWAP4 POP PUSH2 0x2DC0 DUP2 DUP6 PUSH1 0x20 DUP7 ADD PUSH2 0x353E JUMP JUMPDEST PUSH2 0x2DC9 DUP2 PUSH2 0x36F2 JUMP JUMPDEST DUP5 ADD SWAP2 POP POP SWAP3 SWAP2 POP POP JUMP JUMPDEST PUSH1 0x0 PUSH2 0x100 DUP4 ADD PUSH1 0x0 DUP4 ADD MLOAD DUP5 DUP3 SUB PUSH1 0x0 DUP7 ADD MSTORE PUSH2 0x2DF2 DUP3 DUP3 PUSH2 0x2D62 JUMP JUMPDEST SWAP2 POP POP PUSH1 0x20 DUP4 ADD MLOAD DUP5 DUP3 SUB PUSH1 0x20 DUP7 ADD MSTORE PUSH2 0x2E0C DUP3 DUP3 PUSH2 0x2D62 JUMP JUMPDEST SWAP2 POP POP PUSH1 0x40 DUP4 ADD MLOAD PUSH2 0x2E21 PUSH1 0x40 DUP7 ADD DUP3 PUSH2 0x2D53 JUMP JUMPDEST POP PUSH1 0x60 DUP4 ADD MLOAD DUP5 DUP3 SUB PUSH1 0x60 DUP7 ADD MSTORE PUSH2 0x2E39 DUP3 DUP3 PUSH2 0x2C78 JUMP JUMPDEST SWAP2 POP POP PUSH1 0x80 DUP4 ADD MLOAD DUP5 DUP3 SUB PUSH1 0x80 DUP7 ADD MSTORE PUSH2 0x2E53 DUP3 DUP3 PUSH2 0x2C78 JUMP JUMPDEST SWAP2 POP POP PUSH1 0xA0 DUP4 ADD MLOAD DUP5 DUP3 SUB PUSH1 0xA0 DUP7 ADD MSTORE PUSH2 0x2E6D DUP3 DUP3 PUSH2 0x2C78 JUMP JUMPDEST SWAP2 POP POP PUSH1 0xC0 DUP4 ADD MLOAD DUP5 DUP3 SUB PUSH1 0xC0 DUP7 ADD MSTORE PUSH2 0x2E87 DUP3 DUP3 PUSH2 0x2D62 JUMP JUMPDEST SWAP2 POP POP PUSH1 0xE0 DUP4 ADD MLOAD DUP5 DUP3 SUB PUSH1 0xE0 DUP7 ADD MSTORE PUSH2 0x2EA1 DUP3 DUP3 PUSH2 0x2C78 JUMP JUMPDEST SWAP2 POP POP DUP1 SWAP2 POP POP SWAP3 SWAP2 POP POP JUMP JUMPDEST PUSH1 0x0 PUSH2 0x100 DUP4 ADD PUSH1 0x0 DUP4 ADD MLOAD DUP5 DUP3 SUB PUSH1 0x0 DUP7 ADD MSTORE PUSH2 0x2ECC DUP3 DUP3 PUSH2 0x2D62 JUMP JUMPDEST SWAP2 POP POP PUSH1 0x20 DUP4 ADD MLOAD DUP5 DUP3 SUB PUSH1 0x20 DUP7 ADD MSTORE PUSH2 0x2EE6 DUP3 DUP3 PUSH2 0x2D62 JUMP JUMPDEST SWAP2 POP POP PUSH1 0x40 DUP4 ADD MLOAD PUSH2 0x2EFB PUSH1 0x40 DUP7 ADD DUP3 PUSH2 0x2D53 JUMP JUMPDEST POP PUSH1 0x60 DUP4 ADD MLOAD DUP5 DUP3 SUB PUSH1 0x60 DUP7 ADD MSTORE PUSH2 0x2F13 DUP3 DUP3 PUSH2 0x2C78 JUMP JUMPDEST SWAP2 POP POP PUSH1 0x80 DUP4 ADD MLOAD DUP5 DUP3 SUB PUSH1 0x80 DUP7 ADD MSTORE PUSH2 0x2F2D DUP3 DUP3 PUSH2 0x2C78 JUMP JUMPDEST SWAP2 POP POP PUSH1 0xA0 DUP4 ADD MLOAD DUP5 DUP3 SUB PUSH1 0xA0 DUP7 ADD MSTORE PUSH2 0x2F47 DUP3 DUP3 PUSH2 0x2C78 JUMP JUMPDEST SWAP2 POP POP PUSH1 0xC0 DUP4 ADD MLOAD DUP5 DUP3 SUB PUSH1 0xC0 DUP7 ADD MSTORE PUSH2 0x2F61 DUP3 DUP3 PUSH2 0x2D62 JUMP JUMPDEST SWAP2 POP POP PUSH1 0xE0 DUP4 ADD MLOAD DUP5 DUP3 SUB PUSH1 0xE0 DUP7 ADD MSTORE PUSH2 0x2F7B DUP3 DUP3 PUSH2 0x2C78 JUMP JUMPDEST SWAP2 POP POP DUP1 SWAP2 POP POP SWAP3 SWAP2 POP POP JUMP JUMPDEST PUSH1 0x0 PUSH1 0xC0 DUP4 ADD PUSH1 0x0 DUP4 ADD MLOAD PUSH2 0x2FA0 PUSH1 0x0 DUP7 ADD DUP3 PUSH2 0x3018 JUMP JUMPDEST POP PUSH1 0x20 DUP4 ADD MLOAD PUSH2 0x2FB3 PUSH1 0x20 DUP7 ADD DUP3 PUSH2 0x2C5A JUMP JUMPDEST POP PUSH1 0x40 DUP4 ADD MLOAD DUP5 DUP3 SUB PUSH1 0x40 DUP7 ADD MSTORE PUSH2 0x2FCB DUP3 DUP3 PUSH2 0x2D62 JUMP JUMPDEST SWAP2 POP POP PUSH1 0x60 DUP4 ADD MLOAD PUSH2 0x2FE0 PUSH1 0x60 DUP7 ADD DUP3 PUSH2 0x3018 JUMP JUMPDEST POP PUSH1 0x80 DUP4 ADD MLOAD PUSH2 0x2FF3 PUSH1 0x80 DUP7 ADD DUP3 PUSH2 0x3018 JUMP JUMPDEST POP PUSH1 0xA0 DUP4 ADD MLOAD DUP5 DUP3 SUB PUSH1 0xA0 DUP7 ADD MSTORE PUSH2 0x300B DUP3 DUP3 PUSH2 0x2DD4 JUMP JUMPDEST SWAP2 POP POP DUP1 SWAP2 POP POP SWAP3 SWAP2 POP POP JUMP JUMPDEST PUSH2 0x3021 DUP2 PUSH2 0x3525 JUMP JUMPDEST DUP3 MSTORE POP POP JUMP JUMPDEST PUSH2 0x3030 DUP2 PUSH2 0x3525 JUMP JUMPDEST DUP3 MSTORE POP POP JUMP JUMPDEST PUSH1 0x0 PUSH1 0xC0 DUP3 ADD SWAP1 POP PUSH2 0x304B PUSH1 0x0 DUP4 ADD DUP10 PUSH2 0x2C69 JUMP JUMPDEST PUSH2 0x3058 PUSH1 0x20 DUP4 ADD DUP9 PUSH2 0x2C69 JUMP JUMPDEST PUSH2 0x3065 PUSH1 0x40 DUP4 ADD DUP8 PUSH2 0x3027 JUMP JUMPDEST PUSH2 0x3072 PUSH1 0x60 DUP4 ADD DUP7 PUSH2 0x3027 JUMP JUMPDEST PUSH2 0x307F PUSH1 0x80 DUP4 ADD DUP6 PUSH2 0x3027 JUMP JUMPDEST PUSH2 0x308C PUSH1 0xA0 DUP4 ADD DUP5 PUSH2 0x3027 JUMP JUMPDEST SWAP8 SWAP7 POP POP POP POP POP POP POP JUMP JUMPDEST PUSH1 0x0 PUSH2 0x260 DUP3 ADD SWAP1 POP PUSH2 0x30AD PUSH1 0x0 DUP4 ADD DUP12 PUSH2 0x2C69 JUMP JUMPDEST DUP2 DUP2 SUB PUSH1 0x20 DUP4 ADD MSTORE PUSH2 0x30BF DUP2 DUP11 PUSH2 0x2D9B JUMP JUMPDEST SWAP1 POP DUP2 DUP2 SUB PUSH1 0x40 DUP4 ADD MSTORE PUSH2 0x30D3 DUP2 DUP10 PUSH2 0x2D9B JUMP JUMPDEST SWAP1 POP DUP2 DUP2 SUB PUSH1 0x60 DUP4 ADD MSTORE PUSH2 0x30E7 DUP2 DUP9 PUSH2 0x2D9B JUMP JUMPDEST SWAP1 POP DUP2 DUP2 SUB PUSH1 0x80 DUP4 ADD MSTORE PUSH2 0x30FB DUP2 DUP8 PUSH2 0x2D9B JUMP JUMPDEST SWAP1 POP PUSH2 0x310A PUSH1 0xA0 DUP4 ADD DUP7 PUSH2 0x3027 JUMP JUMPDEST PUSH2 0x3117 PUSH1 0xC0 DUP4 ADD DUP6 PUSH2 0x2CED JUMP JUMPDEST DUP2 DUP2 SUB PUSH2 0x240 DUP4 ADD MSTORE PUSH2 0x312A DUP2 DUP5 PUSH2 0x2D9B JUMP JUMPDEST SWAP1 POP SWAP10 SWAP9 POP POP POP POP POP POP POP POP POP JUMP JUMPDEST PUSH1 0x0 PUSH1 0xE0 DUP3 ADD SWAP1 POP PUSH2 0x314E PUSH1 0x0 DUP4 ADD DUP11 PUSH2 0x2C69 JUMP JUMPDEST DUP2 DUP2 SUB PUSH1 0x20 DUP4 ADD MSTORE PUSH2 0x3160 DUP2 DUP10 PUSH2 0x2D9B JUMP JUMPDEST SWAP1 POP DUP2 DUP2 SUB PUSH1 0x40 DUP4 ADD MSTORE PUSH2 0x3174 DUP2 DUP9 PUSH2 0x2D9B JUMP JUMPDEST SWAP1 POP DUP2 DUP2 SUB PUSH1 0x60 DUP4 ADD MSTORE PUSH2 0x3188 DUP2 DUP8 PUSH2 0x2D9B JUMP JUMPDEST SWAP1 POP DUP2 DUP2 SUB PUSH1 0x80 DUP4 ADD MSTORE PUSH2 0x319C DUP2 DUP7 PUSH2 0x2D9B JUMP JUMPDEST SWAP1 POP PUSH2 0x31AB PUSH1 0xA0 DUP4 ADD DUP6 PUSH2 0x3027 JUMP JUMPDEST DUP2 DUP2 SUB PUSH1 0xC0 DUP4 ADD MSTORE PUSH2 0x31BD DUP2 DUP5 PUSH2 0x2D9B JUMP JUMPDEST SWAP1 POP SWAP9 SWAP8 POP POP POP POP POP POP POP POP JUMP JUMPDEST PUSH1 0x0 PUSH1 0x20 DUP3 ADD SWAP1 POP PUSH2 0x31E0 PUSH1 0x0 DUP4 ADD DUP5 PUSH2 0x2D44 JUMP JUMPDEST SWAP3 SWAP2 POP POP JUMP JUMPDEST PUSH1 0x0 PUSH1 0x20 DUP3 ADD SWAP1 POP DUP2 DUP2 SUB PUSH1 0x0 DUP4 ADD MSTORE PUSH2 0x3200 DUP2 DUP5 PUSH2 0x2F88 JUMP JUMPDEST SWAP1 POP SWAP3 SWAP2 POP POP JUMP JUMPDEST PUSH1 0x0 PUSH1 0x20 DUP3 ADD SWAP1 POP PUSH2 0x321D PUSH1 0x0 DUP4 ADD DUP5 PUSH2 0x3027 JUMP JUMPDEST SWAP3 SWAP2 POP POP JUMP JUMPDEST PUSH1 0x0 PUSH1 0xC0 DUP3 ADD SWAP1 POP PUSH2 0x3238 PUSH1 0x0 DUP4 ADD DUP10 PUSH2 0x3027 JUMP JUMPDEST PUSH2 0x3245 PUSH1 0x20 DUP4 ADD DUP9 PUSH2 0x2C69 JUMP JUMPDEST DUP2 DUP2 SUB PUSH1 0x40 DUP4 ADD MSTORE PUSH2 0x3257 DUP2 DUP8 PUSH2 0x2D9B JUMP JUMPDEST SWAP1 POP PUSH2 0x3266 PUSH1 0x60 DUP4 ADD DUP7 PUSH2 0x3027 JUMP JUMPDEST PUSH2 0x3273 PUSH1 0x80 DUP4 ADD DUP6 PUSH2 0x3027 JUMP JUMPDEST DUP2 DUP2 SUB PUSH1 0xA0 DUP4 ADD MSTORE PUSH2 0x3285 DUP2 DUP5 PUSH2 0x2EAE JUMP JUMPDEST SWAP1 POP SWAP8 SWAP7 POP POP POP POP POP POP POP JUMP JUMPDEST PUSH1 0x0 PUSH2 0x329C PUSH2 0x32AD JUMP JUMPDEST SWAP1 POP PUSH2 0x32A8 DUP3 DUP3 PUSH2 0x35A3 JUMP JUMPDEST SWAP2 SWAP1 POP JUMP JUMPDEST PUSH1 0x0 PUSH1 0x40 MLOAD SWAP1 POP SWAP1 JUMP JUMPDEST PUSH1 0x0 PUSH8 0xFFFFFFFFFFFFFFFF DUP3 GT ISZERO PUSH2 0x32D2 JUMPI PUSH2 0x32D1 PUSH2 0x36AA JUMP JUMPDEST JUMPDEST PUSH1 0x20 DUP3 MUL SWAP1 POP PUSH1 0x20 DUP2 ADD SWAP1 POP SWAP2 SWAP1 POP JUMP JUMPDEST PUSH1 0x0 PUSH8 0xFFFFFFFFFFFFFFFF DUP3 GT ISZERO PUSH2 0x32FE JUMPI PUSH2 0x32FD PUSH2 0x36AA JUMP JUMPDEST JUMPDEST PUSH1 0x20 DUP3 MUL SWAP1 POP PUSH1 0x20 DUP2 ADD SWAP1 POP SWAP2 SWAP1 POP JUMP JUMPDEST PUSH1 0x0 PUSH8 0xFFFFFFFFFFFFFFFF DUP3 GT ISZERO PUSH2 0x332A JUMPI PUSH2 0x3329 PUSH2 0x36AA JUMP JUMPDEST JUMPDEST PUSH1 0x20 DUP3 MUL SWAP1 POP SWAP2 SWAP1 POP JUMP JUMPDEST PUSH1 0x0 PUSH8 0xFFFFFFFFFFFFFFFF DUP3 GT ISZERO PUSH2 0x3350 JUMPI PUSH2 0x334F PUSH2 0x36AA JUMP JUMPDEST JUMPDEST PUSH2 0x3359 DUP3 PUSH2 0x36F2 JUMP JUMPDEST SWAP1 POP PUSH1 0x20 DUP2 ADD SWAP1 POP SWAP2 SWAP1 POP JUMP JUMPDEST PUSH1 0x0 DUP2 SWAP1 POP PUSH1 0x20 DUP3 ADD SWAP1 POP SWAP2 SWAP1 POP JUMP JUMPDEST PUSH1 0x0 DUP2 SWAP1 POP SWAP2 SWAP1 POP JUMP JUMPDEST PUSH1 0x0 DUP2 MLOAD SWAP1 POP SWAP2 SWAP1 POP JUMP JUMPDEST PUSH1 0x0 PUSH1 0xC SWAP1 POP SWAP2 SWAP1 POP JUMP JUMPDEST PUSH1 0x0 DUP2 MLOAD SWAP1 POP SWAP2 SWAP1 POP JUMP JUMPDEST PUSH1 0x0 PUSH1 0x20 DUP3 ADD SWAP1 POP SWAP2 SWAP1 POP JUMP JUMPDEST PUSH1 0x0 PUSH1 0x20 DUP3 ADD SWAP1 POP SWAP2 SWAP1 POP JUMP JUMPDEST PUSH1 0x0 DUP3 DUP3 MSTORE PUSH1 0x20 DUP3 ADD SWAP1 POP SWAP3 SWAP2 POP POP JUMP JUMPDEST PUSH1 0x0 DUP2 SWAP1 POP SWAP3 SWAP2 POP POP JUMP JUMPDEST PUSH1 0x0 DUP3 DUP3 MSTORE PUSH1 0x20 DUP3 ADD SWAP1 POP SWAP3 SWAP2 POP POP JUMP JUMPDEST PUSH1 0x0 DUP3 DUP3 MSTORE PUSH1 0x20 DUP3 ADD SWAP1 POP SWAP3 SWAP2 POP POP JUMP JUMPDEST PUSH1 0x0 PUSH2 0x3404 DUP3 PUSH2 0x3525 JUMP JUMPDEST SWAP2 POP PUSH2 0x340F DUP4 PUSH2 0x3525 JUMP JUMPDEST SWAP3 POP DUP3 PUSH32 0xFFFFFFFFFFFFFFFFFFFFFFFFFFFFFFFFFFFFFFFFFFFFFFFFFFFFFFFFFFFFFFFF SUB DUP3 GT ISZERO PUSH2 0x3444 JUMPI PUSH2 0x3443 PUSH2 0x361D JUMP JUMPDEST JUMPDEST DUP3 DUP3 ADD SWAP1 POP SWAP3 SWAP2 POP POP JUMP JUMPDEST PUSH1 0x0 PUSH2 0x345A DUP3 PUSH2 0x3525 JUMP JUMPDEST SWAP2 POP PUSH2 0x3465 DUP4 PUSH2 0x3525 JUMP JUMPDEST SWAP3 POP DUP2 PUSH32 0xFFFFFFFFFFFFFFFFFFFFFFFFFFFFFFFFFFFFFFFFFFFFFFFFFFFFFFFFFFFFFFFF DIV DUP4 GT DUP3 ISZERO ISZERO AND ISZERO PUSH2 0x349E JUMPI PUSH2 0x349D PUSH2 0x361D JUMP JUMPDEST JUMPDEST DUP3 DUP3 MUL SWAP1 POP SWAP3 SWAP2 POP POP JUMP JUMPDEST PUSH1 0x0 PUSH2 0x34B4 DUP3 PUSH2 0x3525 JUMP JUMPDEST SWAP2 POP PUSH2 0x34BF DUP4 PUSH2 0x3525 JUMP JUMPDEST SWAP3 POP DUP3 DUP3 LT ISZERO PUSH2 0x34D2 JUMPI PUSH2 0x34D1 PUSH2 0x361D JUMP JUMPDEST JUMPDEST DUP3 DUP3 SUB SWAP1 POP SWAP3 SWAP2 POP POP JUMP JUMPDEST PUSH1 0x0 PUSH2 0x34E8 DUP3 PUSH2 0x3505 JUMP JUMPDEST SWAP1 POP SWAP2 SWAP1 POP JUMP JUMPDEST PUSH1 0x0 DUP2 ISZERO ISZERO SWAP1 POP SWAP2 SWAP1 POP JUMP JUMPDEST PUSH1 0x0 DUP2 SWAP1 POP SWAP2 SWAP1 POP JUMP JUMPDEST PUSH1 0x0 PUSH20 0xFFFFFFFFFFFFFFFFFFFFFFFFFFFFFFFFFFFFFFFF DUP3 AND SWAP1 POP SWAP2 SWAP1 POP JUMP JUMPDEST PUSH1 0x0 DUP2 SWAP1 POP SWAP2 SWAP1 POP JUMP JUMPDEST DUP3 DUP2 DUP4 CALLDATACOPY PUSH1 0x0 DUP4 DUP4 ADD MSTORE POP POP POP JUMP JUMPDEST PUSH1 0x0 JUMPDEST DUP4 DUP2 LT ISZERO PUSH2 0x355C JUMPI DUP1 DUP3 ADD MLOAD DUP2 DUP5 ADD MSTORE PUSH1 0x20 DUP2 ADD SWAP1 POP PUSH2 0x3541 JUMP JUMPDEST DUP4 DUP2 GT ISZERO PUSH2 0x356B JUMPI PUSH1 0x0 DUP5 DUP5 ADD MSTORE JUMPDEST POP POP POP POP JUMP JUMPDEST PUSH1 0x0 PUSH1 0x2 DUP3 DIV SWAP1 POP PUSH1 0x1 DUP3 AND DUP1 PUSH2 0x3589 JUMPI PUSH1 0x7F DUP3 AND SWAP2 POP JUMPDEST PUSH1 0x20 DUP3 LT DUP2 EQ ISZERO PUSH2 0x359D JUMPI PUSH2 0x359C PUSH2 0x364C JUMP JUMPDEST JUMPDEST POP SWAP2 SWAP1 POP JUMP JUMPDEST PUSH2 0x35AC DUP3 PUSH2 0x36F2 JUMP JUMPDEST DUP2 ADD DUP2 DUP2 LT PUSH8 0xFFFFFFFFFFFFFFFF DUP3 GT OR ISZERO PUSH2 0x35CB JUMPI PUSH2 0x35CA PUSH2 0x36AA JUMP JUMPDEST JUMPDEST DUP1 PUSH1 0x40 MSTORE POP POP POP JUMP JUMPDEST PUSH1 0x0 PUSH2 0x35DF DUP3 PUSH2 0x3525 JUMP JUMPDEST SWAP2 POP PUSH32 0xFFFFFFFFFFFFFFFFFFFFFFFFFFFFFFFFFFFFFFFFFFFFFFFFFFFFFFFFFFFFFFFF DUP3 EQ ISZERO PUSH2 0x3612 JUMPI PUSH2 0x3611 PUSH2 0x361D JUMP JUMPDEST JUMPDEST PUSH1 0x1 DUP3 ADD SWAP1 POP SWAP2 SWAP1 POP JUMP JUMPDEST PUSH32 0x4E487B7100000000000000000000000000000000000000000000000000000000 PUSH1 0x0 MSTORE PUSH1 0x11 PUSH1 0x4 MSTORE PUSH1 0x24 PUSH1 0x0 REVERT JUMPDEST PUSH32 0x4E487B7100000000000000000000000000000000000000000000000000000000 PUSH1 0x0 MSTORE PUSH1 0x22 PUSH1 0x4 MSTORE PUSH1 0x24 PUSH1 0x0 REVERT JUMPDEST PUSH32 0x4E487B7100000000000000000000000000000000000000000000000000000000 PUSH1 0x0 MSTORE PUSH1 0x32 PUSH1 0x4 MSTORE PUSH1 0x24 PUSH1 0x0 REVERT JUMPDEST PUSH32 0x4E487B7100000000000000000000000000000000000000000000000000000000 PUSH1 0x0 MSTORE PUSH1 0x41 PUSH1 0x4 MSTORE PUSH1 0x24 PUSH1 0x0 REVERT JUMPDEST PUSH1 0x0 DUP1 REVERT JUMPDEST PUSH1 0x0 DUP1 REVERT JUMPDEST PUSH1 0x0 DUP1 REVERT JUMPDEST PUSH1 0x0 DUP1 REVERT JUMPDEST PUSH1 0x0 DUP1 REVERT JUMPDEST PUSH1 0x0 PUSH1 0x1F NOT PUSH1 0x1F DUP4 ADD AND SWAP1 POP SWAP2 SWAP1 POP JUMP JUMPDEST PUSH2 0x370C DUP2 PUSH2 0x34DD JUMP JUMPDEST DUP2 EQ PUSH2 0x3717 JUMPI PUSH1 0x0 DUP1 REVERT JUMPDEST POP JUMP JUMPDEST PUSH2 0x3723 DUP2 PUSH2 0x34FB JUMP JUMPDEST DUP2 EQ PUSH2 0x372E JUMPI PUSH1 0x0 DUP1 REVERT JUMPDEST POP JUMP JUMPDEST PUSH2 0x373A DUP2 PUSH2 0x3525 JUMP JUMPDEST DUP2 EQ PUSH2 0x3745 JUMPI PUSH1 0x0 DUP1 REVERT JUMPDEST POP JUMP INVALID LOG2 PUSH5 0x6970667358 0x22 SLT KECCAK256 0xE8 RETURNDATACOPY 0x27 AND PUSH29 0xF21B9DE5DB2998ED913DC679CB1D348909DAE0D89D358E926298976473 PUSH16 0x6C634300080700330000000000000000 "
				},
				"gasEstimates": {
					"creation": {
						"codeDepositCost": "2841200",
						"executionCost": "3100",
						"totalCost": "2844300"
					},
					"external": {
						"balances(address)": "2881",
						"buy_product(uint256,uint256)": "infinite",
						"create_prod(string,uint256,uint256,string,string,int256,string[],string[],string[],string,string[])": "infinite",
						"create_user(string,string,string,string,uint256,uint256[12],string)": "infinite",
						"getBalance()": "362",
						"getBalance(address)": "2929",
						"getBalance2(address)": "3258",
						"getProd(uint256)": "infinite",
						"products(uint256)": "infinite",
						"setBalance(address[])": "infinite",
						"transferFund(address,uint256)": "infinite",
						"users(uint256)": "infinite"
					}
				},
				"methodIdentifiers": {
					"balances(address)": "27e235e3",
					"buy_product(uint256,uint256)": "1d9faa11",
					"create_prod(string,uint256,uint256,string,string,int256,string[],string[],string[],string,string[])": "a14595ca",
					"create_user(string,string,string,string,uint256,uint256[12],string)": "2f4e1704",
					"getBalance()": "12065fe0",
					"getBalance(address)": "f8b2cb4f",
					"getBalance2(address)": "0a46516b",
					"getProd(uint256)": "fc99cc3b",
					"products(uint256)": "7acc0b20",
					"setBalance(address[])": "362d07dc",
					"transferFund(address,uint256)": "e2dc35e0",
					"users(uint256)": "365b98b2"
				}
			},
			"userdoc": {
				"kind": "user",
				"methods": {},
				"version": 1
			}
		}
	}
}