{
	"contracts/pscmbc.sol": {
		"PSCMBC": {
			"abi": [
				{
					"anonymous": false,
					"inputs": [
						{
							"indexed": false,
							"internalType": "address",
							"name": "buyer",
							"type": "address"
						},
						{
							"indexed": false,
							"internalType": "address",
							"name": "seller",
							"type": "address"
						},
						{
							"indexed": false,
							"internalType": "uint256",
							"name": "prodId",
							"type": "uint256"
						},
						{
							"indexed": false,
							"internalType": "uint256",
							"name": "txnAmount",
							"type": "uint256"
						},
						{
							"indexed": false,
							"internalType": "uint256",
							"name": "quantity",
							"type": "uint256"
						},
						{
							"indexed": false,
							"internalType": "uint256",
							"name": "date",
							"type": "uint256"
						}
					],
					"name": "PaymentDone",
					"type": "event"
				},
				{
					"anonymous": false,
					"inputs": [
						{
							"indexed": false,
							"internalType": "uint256",
							"name": "prod_id",
							"type": "uint256"
						},
						{
							"indexed": false,
							"internalType": "address",
							"name": "owner_id",
							"type": "address"
						},
						{
							"indexed": false,
							"internalType": "string",
							"name": "prod_name",
							"type": "string"
						},
						{
							"indexed": false,
							"internalType": "uint256",
							"name": "price",
							"type": "uint256"
						},
						{
							"indexed": false,
							"internalType": "uint256",
							"name": "avaiableUnits",
							"type": "uint256"
						},
						{
							"components": [
								{
									"internalType": "string",
									"name": "drug_name",
									"type": "string"
								},
								{
									"internalType": "string",
									"name": "drug_class",
									"type": "string"
								},
								{
									"internalType": "int256",
									"name": "storage_temp",
									"type": "int256"
								},
								{
									"internalType": "string[]",
									"name": "ingredients",
									"type": "string[]"
								},
								{
									"internalType": "string[]",
									"name": "mfg_date",
									"type": "string[]"
								},
								{
									"internalType": "string[]",
									"name": "exp_date",
									"type": "string[]"
								},
								{
									"internalType": "string",
									"name": "batch_no",
									"type": "string"
								},
								{
									"internalType": "string[]",
									"name": "sideEffects",
									"type": "string[]"
								}
							],
							"indexed": false,
							"internalType": "struct PSCMBC.Description",
							"name": "prod_desc",
							"type": "tuple"
						}
					],
					"name": "ProductCreated",
					"type": "event"
				},
				{
					"anonymous": false,
					"inputs": [
						{
							"indexed": false,
							"internalType": "address",
							"name": "user_id",
							"type": "address"
						},
						{
							"indexed": false,
							"internalType": "string",
							"name": "org_name",
							"type": "string"
						},
						{
							"indexed": false,
							"internalType": "string",
							"name": "user_type",
							"type": "string"
						},
						{
							"indexed": false,
							"internalType": "string",
							"name": "email",
							"type": "string"
						},
						{
							"indexed": false,
							"internalType": "string",
							"name": "password",
							"type": "string"
						},
						{
							"indexed": false,
							"internalType": "uint256",
							"name": "balance",
							"type": "uint256"
						},
						{
							"indexed": false,
							"internalType": "uint256[12]",
							"name": "TIN",
							"type": "uint256[12]"
						},
						{
							"indexed": false,
							"internalType": "string",
							"name": "location",
							"type": "string"
						}
					],
					"name": "UserCreated",
					"type": "event"
				},
				{
					"inputs": [
						{
							"internalType": "address",
							"name": "",
							"type": "address"
						}
					],
					"name": "balances",
					"outputs": [
						{
							"internalType": "uint256",
							"name": "",
							"type": "uint256"
						}
					],
					"stateMutability": "view",
					"type": "function"
				},
				{
					"inputs": [
						{
							"internalType": "uint256",
							"name": "prodId",
							"type": "uint256"
						},
						{
							"internalType": "uint256",
							"name": "amount",
							"type": "uint256"
						}
					],
					"name": "buy_product",
					"outputs": [
						{
							"internalType": "bool",
							"name": "bought",
							"type": "bool"
						}
					],
					"stateMutability": "nonpayable",
					"type": "function"
				},
				{
					"inputs": [
						{
							"internalType": "string",
							"name": "pn",
							"type": "string"
						},
						{
							"internalType": "uint256",
							"name": "pr",
							"type": "uint256"
						},
						{
							"internalType": "uint256",
							"name": "au",
							"type": "uint256"
						},
						{
							"internalType": "string",
							"name": "dn",
							"type": "string"
						},
						{
							"internalType": "string",
							"name": "dc",
							"type": "string"
						},
						{
							"internalType": "int256",
							"name": "st",
							"type": "int256"
						},
						{
							"internalType": "string[]",
							"name": "i",
							"type": "string[]"
						},
						{
							"internalType": "string[]",
							"name": "md",
							"type": "string[]"
						},
						{
							"internalType": "string[]",
							"name": "ed",
							"type": "string[]"
						},
						{
							"internalType": "string",
							"name": "bn",
							"type": "string"
						},
						{
							"internalType": "string[]",
							"name": "se",
							"type": "string[]"
						}
					],
					"name": "create_prod",
					"outputs": [],
					"stateMutability": "nonpayable",
					"type": "function"
				},
				{
					"inputs": [
						{
							"internalType": "string",
							"name": "ut",
							"type": "string"
						},
						{
							"internalType": "string",
							"name": "on",
							"type": "string"
						},
						{
							"internalType": "string",
							"name": "email",
							"type": "string"
						},
						{
							"internalType": "string",
							"name": "pass",
							"type": "string"
						},
						{
							"internalType": "uint256",
							"name": "bal",
							"type": "uint256"
						},
						{
							"internalType": "uint256[12]",
							"name": "TIN",
							"type": "uint256[12]"
						},
						{
							"internalType": "string",
							"name": "loc",
							"type": "string"
						}
					],
					"name": "create_user",
					"outputs": [],
					"stateMutability": "nonpayable",
					"type": "function"
				},
				{
					"inputs": [],
					"name": "getBalance",
					"outputs": [
						{
							"internalType": "uint256",
							"name": "",
							"type": "uint256"
						}
					],
					"stateMutability": "view",
					"type": "function"
				},
				{
					"inputs": [
						{
							"internalType": "address",
							"name": "add",
							"type": "address"
						}
					],
					"name": "getBalance",
					"outputs": [
						{
							"internalType": "uint256",
							"name": "",
							"type": "uint256"
						}
					],
					"stateMutability": "view",
					"type": "function"
				},
				{
					"inputs": [
						{
							"internalType": "address",
							"name": "addr",
							"type": "address"
						}
					],
					"name": "getBalance2",
					"outputs": [
						{
							"internalType": "uint256",
							"name": "",
							"type": "uint256"
						}
					],
					"stateMutability": "view",
					"type": "function"
				},
				{
					"inputs": [
						{
							"internalType": "uint256",
							"name": "x",
							"type": "uint256"
						}
					],
					"name": "getProd",
					"outputs": [
						{
							"components": [
								{
									"internalType": "uint256",
									"name": "prod_id",
									"type": "uint256"
								},
								{
									"internalType": "address",
									"name": "owner_id",
									"type": "address"
								},
								{
									"internalType": "string",
									"name": "prod_name",
									"type": "string"
								},
								{
									"internalType": "uint256",
									"name": "price",
									"type": "uint256"
								},
								{
									"internalType": "uint256",
									"name": "avaiableUnits",
									"type": "uint256"
								},
								{
									"components": [
										{
											"internalType": "string",
											"name": "drug_name",
											"type": "string"
										},
										{
											"internalType": "string",
											"name": "drug_class",
											"type": "string"
										},
										{
											"internalType": "int256",
											"name": "storage_temp",
											"type": "int256"
										},
										{
											"internalType": "string[]",
											"name": "ingredients",
											"type": "string[]"
										},
										{
											"internalType": "string[]",
											"name": "mfg_date",
											"type": "string[]"
										},
										{
											"internalType": "string[]",
											"name": "exp_date",
											"type": "string[]"
										},
										{
											"internalType": "string",
											"name": "batch_no",
											"type": "string"
										},
										{
											"internalType": "string[]",
											"name": "sideEffects",
											"type": "string[]"
										}
									],
									"internalType": "struct PSCMBC.Description",
									"name": "prod_desc",
									"type": "tuple"
								}
							],
							"internalType": "struct PSCMBC.Product",
							"name": "p",
							"type": "tuple"
						}
					],
					"stateMutability": "view",
					"type": "function"
				},
				{
					"inputs": [
						{
							"internalType": "uint256",
							"name": "",
							"type": "uint256"
						}
					],
					"name": "products",
					"outputs": [
						{
							"internalType": "uint256",
							"name": "prod_id",
							"type": "uint256"
						},
						{
							"internalType": "address",
							"name": "owner_id",
							"type": "address"
						},
						{
							"internalType": "string",
							"name": "prod_name",
							"type": "string"
						},
						{
							"internalType": "uint256",
							"name": "price",
							"type": "uint256"
						},
						{
							"internalType": "uint256",
							"name": "avaiableUnits",
							"type": "uint256"
						},
						{
							"components": [
								{
									"internalType": "string",
									"name": "drug_name",
									"type": "string"
								},
								{
									"internalType": "string",
									"name": "drug_class",
									"type": "string"
								},
								{
									"internalType": "int256",
									"name": "storage_temp",
									"type": "int256"
								},
								{
									"internalType": "string[]",
									"name": "ingredients",
									"type": "string[]"
								},
								{
									"internalType": "string[]",
									"name": "mfg_date",
									"type": "string[]"
								},
								{
									"internalType": "string[]",
									"name": "exp_date",
									"type": "string[]"
								},
								{
									"internalType": "string",
									"name": "batch_no",
									"type": "string"
								},
								{
									"internalType": "string[]",
									"name": "sideEffects",
									"type": "string[]"
								}
							],
							"internalType": "struct PSCMBC.Description",
							"name": "prod_desc",
							"type": "tuple"
						}
					],
					"stateMutability": "view",
					"type": "function"
				},
				{
					"inputs": [
						{
							"internalType": "address",
							"name": "_to",
							"type": "address"
						},
						{
							"internalType": "uint256",
							"name": "_value",
							"type": "uint256"
						}
					],
					"name": "transferFund",
					"outputs": [
						{
							"internalType": "bool",
							"name": "sufficient",
							"type": "bool"
						}
					],
					"stateMutability": "nonpayable",
					"type": "function"
				},
				{
					"inputs": [
						{
							"internalType": "uint256",
							"name": "",
							"type": "uint256"
						}
					],
					"name": "users",
					"outputs": [
						{
							"internalType": "address",
							"name": "user_id",
							"type": "address"
						},
						{
							"internalType": "string",
							"name": "org_name",
							"type": "string"
						},
						{
							"internalType": "string",
							"name": "user_type",
							"type": "string"
						},
						{
							"internalType": "string",
							"name": "email",
							"type": "string"
						},
						{
							"internalType": "string",
							"name": "password",
							"type": "string"
						},
						{
							"internalType": "uint256",
							"name": "balance",
							"type": "uint256"
						},
						{
							"internalType": "string",
							"name": "location",
							"type": "string"
						}
					],
					"stateMutability": "view",
					"type": "function"
				}
			],
			"devdoc": {
				"kind": "dev",
				"methods": {},
				"version": 1
			},
			"evm": {
				"assembly": "    /* \"contracts/pscmbc.sol\":68:4784  contract PSCMBC{\r... */\n  mstore(0x40, 0x80)\n  callvalue\n  dup1\n  iszero\n  tag_1\n  jumpi\n  0x00\n  dup1\n  revert\ntag_1:\n  pop\n  dataSize(sub_0)\n  dup1\n  dataOffset(sub_0)\n  0x00\n  codecopy\n  0x00\n  return\nstop\n\nsub_0: assembly {\n        /* \"contracts/pscmbc.sol\":68:4784  contract PSCMBC{\r... */\n      mstore(0x40, 0x80)\n      callvalue\n      dup1\n      iszero\n      tag_1\n      jumpi\n      0x00\n      dup1\n      revert\n    tag_1:\n      pop\n      jumpi(tag_2, lt(calldatasize, 0x04))\n      shr(0xe0, calldataload(0x00))\n      dup1\n      0x365b98b2\n      gt\n      tag_14\n      jumpi\n      dup1\n      0x365b98b2\n      eq\n      tag_8\n      jumpi\n      dup1\n      0x7acc0b20\n      eq\n      tag_9\n      jumpi\n      dup1\n      0xa14595ca\n      eq\n      tag_10\n      jumpi\n      dup1\n      0xe2dc35e0\n      eq\n      tag_11\n      jumpi\n      dup1\n      0xf8b2cb4f\n      eq\n      tag_12\n      jumpi\n      dup1\n      0xfc99cc3b\n      eq\n      tag_13\n      jumpi\n      jump(tag_2)\n    tag_14:\n      dup1\n      0x0a46516b\n      eq\n      tag_3\n      jumpi\n      dup1\n      0x12065fe0\n      eq\n      tag_4\n      jumpi\n      dup1\n      0x1d9faa11\n      eq\n      tag_5\n      jumpi\n      dup1\n      0x27e235e3\n      eq\n      tag_6\n      jumpi\n      dup1\n      0x2f4e1704\n      eq\n      tag_7\n      jumpi\n    tag_2:\n      0x00\n      dup1\n      revert\n        /* \"contracts/pscmbc.sol\":3827:3927  function getBalance2(address addr) external view returns(uint){\r... */\n    tag_3:\n      tag_15\n      0x04\n      dup1\n      calldatasize\n      sub\n      dup2\n      add\n      swap1\n      tag_16\n      swap2\n      swap1\n      tag_17\n      jump\t// in\n    tag_16:\n      tag_18\n      jump\t// in\n    tag_15:\n      mload(0x40)\n      tag_19\n      swap2\n      swap1\n      tag_20\n      jump\t// in\n    tag_19:\n      mload(0x40)\n      dup1\n      swap2\n      sub\n      swap1\n      return\n        /* \"contracts/pscmbc.sol\":1632:1728  function getBalance()  public view returns (uint){\r... */\n    tag_4:\n      tag_21\n      tag_22\n      jump\t// in\n    tag_21:\n      mload(0x40)\n      tag_23\n      swap2\n      swap1\n      tag_20\n      jump\t// in\n    tag_23:\n      mload(0x40)\n      dup1\n      swap2\n      sub\n      swap1\n      return\n        /* \"contracts/pscmbc.sol\":2344:3319  function buy_product(uint prodId, uint amount) public returns (bool bought){\r... */\n    tag_5:\n      tag_24\n      0x04\n      dup1\n      calldatasize\n      sub\n      dup2\n      add\n      swap1\n      tag_25\n      swap2\n      swap1\n      tag_26\n      jump\t// in\n    tag_25:\n      tag_27\n      jump\t// in\n    tag_24:\n      mload(0x40)\n      tag_28\n      swap2\n      swap1\n      tag_29\n      jump\t// in\n    tag_28:\n      mload(0x40)\n      dup1\n      swap2\n      sub\n      swap1\n      return\n        /* \"contracts/pscmbc.sol\":832:873  mapping (address => uint) public balances */\n    tag_6:\n      tag_30\n      0x04\n      dup1\n      calldatasize\n      sub\n      dup2\n      add\n      swap1\n      tag_31\n      swap2\n      swap1\n      tag_17\n      jump\t// in\n    tag_31:\n      tag_32\n      jump\t// in\n    tag_30:\n      mload(0x40)\n      tag_33\n      swap2\n      swap1\n      tag_20\n      jump\t// in\n    tag_33:\n      mload(0x40)\n      dup1\n      swap2\n      sub\n      swap1\n      return\n        /* \"contracts/pscmbc.sol\":1738:2336  function create_user(string memory ut, string memory on, string memory email, string memory pass, uint bal, uint[12] memory TIN, string memory loc) public {\r... */\n    tag_7:\n      tag_34\n      0x04\n      dup1\n      calldatasize\n      sub\n      dup2\n      add\n      swap1\n      tag_35\n      swap2\n      swap1\n      tag_36\n      jump\t// in\n    tag_35:\n      tag_37\n      jump\t// in\n    tag_34:\n      stop\n        /* \"contracts/pscmbc.sol\":806:825  User[] public users */\n    tag_8:\n      tag_38\n      0x04\n      dup1\n      calldatasize\n      sub\n      dup2\n      add\n      swap1\n      tag_39\n      swap2\n      swap1\n      tag_40\n      jump\t// in\n    tag_39:\n      tag_41\n      jump\t// in\n    tag_38:\n      mload(0x40)\n      tag_42\n      swap8\n      swap7\n      swap6\n      swap5\n      swap4\n      swap3\n      swap2\n      swap1\n      tag_43\n      jump\t// in\n    tag_42:\n      mload(0x40)\n      dup1\n      swap2\n      sub\n      swap1\n      return\n        /* \"contracts/pscmbc.sol\":543:568  Product[] public products */\n    tag_9:\n      tag_44\n      0x04\n      dup1\n      calldatasize\n      sub\n      dup2\n      add\n      swap1\n      tag_45\n      swap2\n      swap1\n      tag_40\n      jump\t// in\n    tag_45:\n      tag_46\n      jump\t// in\n    tag_44:\n      mload(0x40)\n      tag_47\n      swap7\n      swap6\n      swap5\n      swap4\n      swap3\n      swap2\n      swap1\n      tag_48\n      jump\t// in\n    tag_47:\n      mload(0x40)\n      dup1\n      swap2\n      sub\n      swap1\n      return\n        /* \"contracts/pscmbc.sol\":3935:4773  function create_prod (string memory pn, uint pr, uint au, string memory dn, string memory dc, \r... */\n    tag_10:\n      tag_49\n      0x04\n      dup1\n      calldatasize\n      sub\n      dup2\n      add\n      swap1\n      tag_50\n      swap2\n      swap1\n      tag_51\n      jump\t// in\n    tag_50:\n      tag_52\n      jump\t// in\n    tag_49:\n      stop\n        /* \"contracts/pscmbc.sol\":3328:3607  function transferFund(address _to, uint256 _value) public returns (bool sufficient) {\r... */\n    tag_11:\n      tag_53\n      0x04\n      dup1\n      calldatasize\n      sub\n      dup2\n      add\n      swap1\n      tag_54\n      swap2\n      swap1\n      tag_55\n      jump\t// in\n    tag_54:\n      tag_56\n      jump\t// in\n    tag_53:\n      mload(0x40)\n      tag_57\n      swap2\n      swap1\n      tag_29\n      jump\t// in\n    tag_57:\n      mload(0x40)\n      dup1\n      swap2\n      sub\n      swap1\n      return\n        /* \"contracts/pscmbc.sol\":3615:3712  function getBalance(address add) public view returns(uint){\r... */\n    tag_12:\n      tag_58\n      0x04\n      dup1\n      calldatasize\n      sub\n      dup2\n      add\n      swap1\n      tag_59\n      swap2\n      swap1\n      tag_17\n      jump\t// in\n    tag_59:\n      tag_60\n      jump\t// in\n    tag_58:\n      mload(0x40)\n      tag_61\n      swap2\n      swap1\n      tag_20\n      jump\t// in\n    tag_61:\n      mload(0x40)\n      dup1\n      swap2\n      sub\n      swap1\n      return\n        /* \"contracts/pscmbc.sol\":3720:3819  function getProd(uint x) public view returns(Product memory p){\r... */\n    tag_13:\n      tag_62\n      0x04\n      dup1\n      calldatasize\n      sub\n      dup2\n      add\n      swap1\n      tag_63\n      swap2\n      swap1\n      tag_40\n      jump\t// in\n    tag_63:\n      tag_64\n      jump\t// in\n    tag_62:\n      mload(0x40)\n      tag_65\n      swap2\n      swap1\n      tag_66\n      jump\t// in\n    tag_65:\n      mload(0x40)\n      dup1\n      swap2\n      sub\n      swap1\n      return\n        /* \"contracts/pscmbc.sol\":3827:3927  function getBalance2(address addr) external view returns(uint){\r... */\n    tag_18:\n        /* \"contracts/pscmbc.sol\":3884:3888  uint */\n      0x00\n        /* \"contracts/pscmbc.sol\":3907:3911  addr */\n      dup2\n        /* \"contracts/pscmbc.sol\":3907:3919  addr.balance */\n      0xffffffffffffffffffffffffffffffffffffffff\n      and\n      balance\n        /* \"contracts/pscmbc.sol\":3900:3919  return addr.balance */\n      swap1\n      pop\n        /* \"contracts/pscmbc.sol\":3827:3927  function getBalance2(address addr) external view returns(uint){\r... */\n      swap2\n      swap1\n      pop\n      jump\t// out\n        /* \"contracts/pscmbc.sol\":1632:1728  function getBalance()  public view returns (uint){\r... */\n    tag_22:\n        /* \"contracts/pscmbc.sol\":1676:1680  uint */\n      0x00\n        /* \"contracts/pscmbc.sol\":1699:1720  address(this).balance */\n      selfbalance\n        /* \"contracts/pscmbc.sol\":1692:1720  return address(this).balance */\n      swap1\n      pop\n        /* \"contracts/pscmbc.sol\":1632:1728  function getBalance()  public view returns (uint){\r... */\n      swap1\n      jump\t// out\n        /* \"contracts/pscmbc.sol\":2344:3319  function buy_product(uint prodId, uint amount) public returns (bool bought){\r... */\n    tag_27:\n        /* \"contracts/pscmbc.sol\":2407:2418  bool bought */\n      0x00\n        /* \"contracts/pscmbc.sol\":2443:2444  0 */\n      dup1\n        /* \"contracts/pscmbc.sol\":2433:2439  prodId */\n      dup4\n        /* \"contracts/pscmbc.sol\":2433:2444  prodId != 0 */\n      eq\n      iszero\n        /* \"contracts/pscmbc.sol\":2433:2488  prodId != 0 && products[prodId].avaiableUnits >= amount */\n      dup1\n      iszero\n      tag_70\n      jumpi\n      pop\n        /* \"contracts/pscmbc.sol\":2482:2488  amount */\n      dup2\n        /* \"contracts/pscmbc.sol\":2448:2456  products */\n      0x00\n        /* \"contracts/pscmbc.sol\":2457:2463  prodId */\n      dup5\n        /* \"contracts/pscmbc.sol\":2448:2464  products[prodId] */\n      dup2\n      sload\n      dup2\n      lt\n      tag_71\n      jumpi\n      tag_72\n      tag_73\n      jump\t// in\n    tag_72:\n    tag_71:\n      swap1\n      0x00\n      mstore\n      keccak256(0x00, 0x20)\n      swap1\n      0x0d\n      mul\n      add\n        /* \"contracts/pscmbc.sol\":2448:2478  products[prodId].avaiableUnits */\n      0x04\n      add\n      sload\n        /* \"contracts/pscmbc.sol\":2448:2488  products[prodId].avaiableUnits >= amount */\n      lt\n      iszero\n        /* \"contracts/pscmbc.sol\":2433:2488  prodId != 0 && products[prodId].avaiableUnits >= amount */\n    tag_70:\n        /* \"contracts/pscmbc.sol\":2430:3287  if(prodId != 0 && products[prodId].avaiableUnits >= amount){\r... */\n      iszero\n      tag_75\n      jumpi\n        /* \"contracts/pscmbc.sol\":2504:2512  uint val */\n      0x00\n        /* \"contracts/pscmbc.sol\":2540:2546  amount */\n      dup3\n        /* \"contracts/pscmbc.sol\":2515:2523  products */\n      0x00\n        /* \"contracts/pscmbc.sol\":2524:2530  prodId */\n      dup6\n        /* \"contracts/pscmbc.sol\":2515:2531  products[prodId] */\n      dup2\n      sload\n      dup2\n      lt\n      tag_76\n      jumpi\n      tag_77\n      tag_73\n      jump\t// in\n    tag_77:\n    tag_76:\n      swap1\n      0x00\n      mstore\n      keccak256(0x00, 0x20)\n      swap1\n      0x0d\n      mul\n      add\n        /* \"contracts/pscmbc.sol\":2515:2537  products[prodId].price */\n      0x03\n      add\n      sload\n        /* \"contracts/pscmbc.sol\":2515:2546  products[prodId].price * amount */\n      tag_79\n      swap2\n      swap1\n      tag_80\n      jump\t// in\n    tag_79:\n        /* \"contracts/pscmbc.sol\":2504:2546  uint val = products[prodId].price * amount */\n      swap1\n      pop\n        /* \"contracts/pscmbc.sol\":2565:2609  transferFund(products[prodId].owner_id, val) */\n      tag_81\n        /* \"contracts/pscmbc.sol\":2578:2586  products */\n      0x00\n        /* \"contracts/pscmbc.sol\":2587:2593  prodId */\n      dup6\n        /* \"contracts/pscmbc.sol\":2578:2594  products[prodId] */\n      dup2\n      sload\n      dup2\n      lt\n      tag_82\n      jumpi\n      tag_83\n      tag_73\n      jump\t// in\n    tag_83:\n    tag_82:\n      swap1\n      0x00\n      mstore\n      keccak256(0x00, 0x20)\n      swap1\n      0x0d\n      mul\n      add\n        /* \"contracts/pscmbc.sol\":2578:2603  products[prodId].owner_id */\n      0x01\n      add\n      0x00\n      swap1\n      sload\n      swap1\n      0x0100\n      exp\n      swap1\n      div\n      0xffffffffffffffffffffffffffffffffffffffff\n      and\n        /* \"contracts/pscmbc.sol\":2605:2608  val */\n      dup3\n        /* \"contracts/pscmbc.sol\":2565:2577  transferFund */\n      tag_56\n        /* \"contracts/pscmbc.sol\":2565:2609  transferFund(products[prodId].owner_id, val) */\n      jump\t// in\n    tag_81:\n        /* \"contracts/pscmbc.sol\":2561:2640  if(!transferFund(products[prodId].owner_id, val))\r... */\n      tag_85\n      jumpi\n        /* \"contracts/pscmbc.sol\":2635:2640  false */\n      0x00\n        /* \"contracts/pscmbc.sol\":2628:2640  return false */\n      swap2\n      pop\n      pop\n      jump(tag_69)\n        /* \"contracts/pscmbc.sol\":2561:2640  if(!transferFund(products[prodId].owner_id, val))\r... */\n    tag_85:\n        /* \"contracts/pscmbc.sol\":2689:2695  amount */\n      dup3\n        /* \"contracts/pscmbc.sol\":2655:2663  products */\n      0x00\n        /* \"contracts/pscmbc.sol\":2664:2670  prodId */\n      dup6\n        /* \"contracts/pscmbc.sol\":2655:2671  products[prodId] */\n      dup2\n      sload\n      dup2\n      lt\n      tag_86\n      jumpi\n      tag_87\n      tag_73\n      jump\t// in\n    tag_87:\n    tag_86:\n      swap1\n      0x00\n      mstore\n      keccak256(0x00, 0x20)\n      swap1\n      0x0d\n      mul\n      add\n        /* \"contracts/pscmbc.sol\":2655:2685  products[prodId].avaiableUnits */\n      0x04\n      add\n      0x00\n        /* \"contracts/pscmbc.sol\":2655:2695  products[prodId].avaiableUnits -= amount */\n      dup3\n      dup3\n      sload\n      tag_89\n      swap2\n      swap1\n      tag_90\n      jump\t// in\n    tag_89:\n      swap3\n      pop\n      pop\n      dup2\n      swap1\n      sstore\n      pop\n        /* \"contracts/pscmbc.sol\":2710:3129  create_prod(products[prodId].prod_name, products[prodId].price, amount, products[prodId].prod_desc.drug_name,\r... */\n      tag_91\n        /* \"contracts/pscmbc.sol\":2722:2730  products */\n      0x00\n        /* \"contracts/pscmbc.sol\":2731:2737  prodId */\n      dup6\n        /* \"contracts/pscmbc.sol\":2722:2738  products[prodId] */\n      dup2\n      sload\n      dup2\n      lt\n      tag_92\n      jumpi\n      tag_93\n      tag_73\n      jump\t// in\n    tag_93:\n    tag_92:\n      swap1\n      0x00\n      mstore\n      keccak256(0x00, 0x20)\n      swap1\n      0x0d\n      mul\n      add\n        /* \"contracts/pscmbc.sol\":2722:2748  products[prodId].prod_name */\n      0x02\n      add\n        /* \"contracts/pscmbc.sol\":2710:3129  create_prod(products[prodId].prod_name, products[prodId].price, amount, products[prodId].prod_desc.drug_name,\r... */\n      dup1\n      sload\n      tag_95\n      swap1\n      tag_96\n      jump\t// in\n    tag_95:\n      dup1\n      0x1f\n      add\n      0x20\n      dup1\n      swap2\n      div\n      mul\n      0x20\n      add\n      mload(0x40)\n      swap1\n      dup2\n      add\n      0x40\n      mstore\n      dup1\n      swap3\n      swap2\n      swap1\n      dup2\n      dup2\n      mstore\n      0x20\n      add\n      dup3\n      dup1\n      sload\n      tag_97\n      swap1\n      tag_96\n      jump\t// in\n    tag_97:\n      dup1\n      iszero\n      tag_98\n      jumpi\n      dup1\n      0x1f\n      lt\n      tag_99\n      jumpi\n      0x0100\n      dup1\n      dup4\n      sload\n      div\n      mul\n      dup4\n      mstore\n      swap2\n      0x20\n      add\n      swap2\n      jump(tag_98)\n    tag_99:\n      dup3\n      add\n      swap2\n      swap1\n      0x00\n      mstore\n      keccak256(0x00, 0x20)\n      swap1\n    tag_100:\n      dup2\n      sload\n      dup2\n      mstore\n      swap1\n      0x01\n      add\n      swap1\n      0x20\n      add\n      dup1\n      dup4\n      gt\n      tag_100\n      jumpi\n      dup3\n      swap1\n      sub\n      0x1f\n      and\n      dup3\n      add\n      swap2\n    tag_98:\n      pop\n      pop\n      pop\n      pop\n      pop\n        /* \"contracts/pscmbc.sol\":2750:2758  products */\n      0x00\n        /* \"contracts/pscmbc.sol\":2759:2765  prodId */\n      dup7\n        /* \"contracts/pscmbc.sol\":2750:2766  products[prodId] */\n      dup2\n      sload\n      dup2\n      lt\n      tag_101\n      jumpi\n      tag_102\n      tag_73\n      jump\t// in\n    tag_102:\n    tag_101:\n      swap1\n      0x00\n      mstore\n      keccak256(0x00, 0x20)\n      swap1\n      0x0d\n      mul\n      add\n        /* \"contracts/pscmbc.sol\":2750:2772  products[prodId].price */\n      0x03\n      add\n      sload\n        /* \"contracts/pscmbc.sol\":2774:2780  amount */\n      dup6\n        /* \"contracts/pscmbc.sol\":2782:2790  products */\n      0x00\n        /* \"contracts/pscmbc.sol\":2791:2797  prodId */\n      dup9\n        /* \"contracts/pscmbc.sol\":2782:2798  products[prodId] */\n      dup2\n      sload\n      dup2\n      lt\n      tag_104\n      jumpi\n      tag_105\n      tag_73\n      jump\t// in\n    tag_105:\n    tag_104:\n      swap1\n      0x00\n      mstore\n      keccak256(0x00, 0x20)\n      swap1\n      0x0d\n      mul\n      add\n        /* \"contracts/pscmbc.sol\":2782:2808  products[prodId].prod_desc */\n      0x05\n      add\n        /* \"contracts/pscmbc.sol\":2782:2818  products[prodId].prod_desc.drug_name */\n      0x00\n      add\n        /* \"contracts/pscmbc.sol\":2710:3129  create_prod(products[prodId].prod_name, products[prodId].price, amount, products[prodId].prod_desc.drug_name,\r... */\n      dup1\n      sload\n      tag_107\n      swap1\n      tag_96\n      jump\t// in\n    tag_107:\n      dup1\n      0x1f\n      add\n      0x20\n      dup1\n      swap2\n      div\n      mul\n      0x20\n      add\n      mload(0x40)\n      swap1\n      dup2\n      add\n      0x40\n      mstore\n      dup1\n      swap3\n      swap2\n      swap1\n      dup2\n      dup2\n      mstore\n      0x20\n      add\n      dup3\n      dup1\n      sload\n      tag_108\n      swap1\n      tag_96\n      jump\t// in\n    tag_108:\n      dup1\n      iszero\n      tag_109\n      jumpi\n      dup1\n      0x1f\n      lt\n      tag_110\n      jumpi\n      0x0100\n      dup1\n      dup4\n      sload\n      div\n      mul\n      dup4\n      mstore\n      swap2\n      0x20\n      add\n      swap2\n      jump(tag_109)\n    tag_110:\n      dup3\n      add\n      swap2\n      swap1\n      0x00\n      mstore\n      keccak256(0x00, 0x20)\n      swap1\n    tag_111:\n      dup2\n      sload\n      dup2\n      mstore\n      swap1\n      0x01\n      add\n      swap1\n      0x20\n      add\n      dup1\n      dup4\n      gt\n      tag_111\n      jumpi\n      dup3\n      swap1\n      sub\n      0x1f\n      and\n      dup3\n      add\n      swap2\n    tag_109:\n      pop\n      pop\n      pop\n      pop\n      pop\n        /* \"contracts/pscmbc.sol\":2833:2841  products */\n      0x00\n        /* \"contracts/pscmbc.sol\":2842:2848  prodId */\n      dup10\n        /* \"contracts/pscmbc.sol\":2833:2849  products[prodId] */\n      dup2\n      sload\n      dup2\n      lt\n      tag_112\n      jumpi\n      tag_113\n      tag_73\n      jump\t// in\n    tag_113:\n    tag_112:\n      swap1\n      0x00\n      mstore\n      keccak256(0x00, 0x20)\n      swap1\n      0x0d\n      mul\n      add\n        /* \"contracts/pscmbc.sol\":2833:2859  products[prodId].prod_desc */\n      0x05\n      add\n        /* \"contracts/pscmbc.sol\":2833:2870  products[prodId].prod_desc.drug_class */\n      0x01\n      add\n        /* \"contracts/pscmbc.sol\":2710:3129  create_prod(products[prodId].prod_name, products[prodId].price, amount, products[prodId].prod_desc.drug_name,\r... */\n      dup1\n      sload\n      tag_115\n      swap1\n      tag_96\n      jump\t// in\n    tag_115:\n      dup1\n      0x1f\n      add\n      0x20\n      dup1\n      swap2\n      div\n      mul\n      0x20\n      add\n      mload(0x40)\n      swap1\n      dup2\n      add\n      0x40\n      mstore\n      dup1\n      swap3\n      swap2\n      swap1\n      dup2\n      dup2\n      mstore\n      0x20\n      add\n      dup3\n      dup1\n      sload\n      tag_116\n      swap1\n      tag_96\n      jump\t// in\n    tag_116:\n      dup1\n      iszero\n      tag_117\n      jumpi\n      dup1\n      0x1f\n      lt\n      tag_118\n      jumpi\n      0x0100\n      dup1\n      dup4\n      sload\n      div\n      mul\n      dup4\n      mstore\n      swap2\n      0x20\n      add\n      swap2\n      jump(tag_117)\n    tag_118:\n      dup3\n      add\n      swap2\n      swap1\n      0x00\n      mstore\n      keccak256(0x00, 0x20)\n      swap1\n    tag_119:\n      dup2\n      sload\n      dup2\n      mstore\n      swap1\n      0x01\n      add\n      swap1\n      0x20\n      add\n      dup1\n      dup4\n      gt\n      tag_119\n      jumpi\n      dup3\n      swap1\n      sub\n      0x1f\n      and\n      dup3\n      add\n      swap2\n    tag_117:\n      pop\n      pop\n      pop\n      pop\n      pop\n        /* \"contracts/pscmbc.sol\":2872:2880  products */\n      0x00\n        /* \"contracts/pscmbc.sol\":2881:2887  prodId */\n      dup11\n        /* \"contracts/pscmbc.sol\":2872:2888  products[prodId] */\n      dup2\n      sload\n      dup2\n      lt\n      tag_120\n      jumpi\n      tag_121\n      tag_73\n      jump\t// in\n    tag_121:\n    tag_120:\n      swap1\n      0x00\n      mstore\n      keccak256(0x00, 0x20)\n      swap1\n      0x0d\n      mul\n      add\n        /* \"contracts/pscmbc.sol\":2872:2898  products[prodId].prod_desc */\n      0x05\n      add\n        /* \"contracts/pscmbc.sol\":2872:2911  products[prodId].prod_desc.storage_temp */\n      0x02\n      add\n      sload\n        /* \"contracts/pscmbc.sol\":2913:2921  products */\n      0x00\n        /* \"contracts/pscmbc.sol\":2922:2928  prodId */\n      dup12\n        /* \"contracts/pscmbc.sol\":2913:2929  products[prodId] */\n      dup2\n      sload\n      dup2\n      lt\n      tag_123\n      jumpi\n      tag_124\n      tag_73\n      jump\t// in\n    tag_124:\n    tag_123:\n      swap1\n      0x00\n      mstore\n      keccak256(0x00, 0x20)\n      swap1\n      0x0d\n      mul\n      add\n        /* \"contracts/pscmbc.sol\":2913:2939  products[prodId].prod_desc */\n      0x05\n      add\n        /* \"contracts/pscmbc.sol\":2913:2951  products[prodId].prod_desc.ingredients */\n      0x03\n      add\n        /* \"contracts/pscmbc.sol\":2710:3129  create_prod(products[prodId].prod_name, products[prodId].price, amount, products[prodId].prod_desc.drug_name,\r... */\n      dup1\n      sload\n      dup1\n      0x20\n      mul\n      0x20\n      add\n      mload(0x40)\n      swap1\n      dup2\n      add\n      0x40\n      mstore\n      dup1\n      swap3\n      swap2\n      swap1\n      dup2\n      dup2\n      mstore\n      0x20\n      add\n      0x00\n      swap1\n    tag_126:\n      dup3\n      dup3\n      lt\n      iszero\n      tag_127\n      jumpi\n      dup4\n      dup3\n      swap1\n      0x00\n      mstore\n      keccak256(0x00, 0x20)\n      add\n      dup1\n      sload\n      tag_129\n      swap1\n      tag_96\n      jump\t// in\n    tag_129:\n      dup1\n      0x1f\n      add\n      0x20\n      dup1\n      swap2\n      div\n      mul\n      0x20\n      add\n      mload(0x40)\n      swap1\n      dup2\n      add\n      0x40\n      mstore\n      dup1\n      swap3\n      swap2\n      swap1\n      dup2\n      dup2\n      mstore\n      0x20\n      add\n      dup3\n      dup1\n      sload\n      tag_130\n      swap1\n      tag_96\n      jump\t// in\n    tag_130:\n      dup1\n      iszero\n      tag_131\n      jumpi\n      dup1\n      0x1f\n      lt\n      tag_132\n      jumpi\n      0x0100\n      dup1\n      dup4\n      sload\n      div\n      mul\n      dup4\n      mstore\n      swap2\n      0x20\n      add\n      swap2\n      jump(tag_131)\n    tag_132:\n      dup3\n      add\n      swap2\n      swap1\n      0x00\n      mstore\n      keccak256(0x00, 0x20)\n      swap1\n    tag_133:\n      dup2\n      sload\n      dup2\n      mstore\n      swap1\n      0x01\n      add\n      swap1\n      0x20\n      add\n      dup1\n      dup4\n      gt\n      tag_133\n      jumpi\n      dup3\n      swap1\n      sub\n      0x1f\n      and\n      dup3\n      add\n      swap2\n    tag_131:\n      pop\n      pop\n      pop\n      pop\n      pop\n      dup2\n      mstore\n      0x20\n      add\n      swap1\n      0x01\n      add\n      swap1\n      jump(tag_126)\n    tag_127:\n      pop\n      pop\n      pop\n      pop\n        /* \"contracts/pscmbc.sol\":2966:2974  products */\n      0x00\n        /* \"contracts/pscmbc.sol\":2975:2981  prodId */\n      dup13\n        /* \"contracts/pscmbc.sol\":2966:2982  products[prodId] */\n      dup2\n      sload\n      dup2\n      lt\n      tag_134\n      jumpi\n      tag_135\n      tag_73\n      jump\t// in\n    tag_135:\n    tag_134:\n      swap1\n      0x00\n      mstore\n      keccak256(0x00, 0x20)\n      swap1\n      0x0d\n      mul\n      add\n        /* \"contracts/pscmbc.sol\":2966:2992  products[prodId].prod_desc */\n      0x05\n      add\n        /* \"contracts/pscmbc.sol\":2966:3001  products[prodId].prod_desc.mfg_date */\n      0x04\n      add\n        /* \"contracts/pscmbc.sol\":2710:3129  create_prod(products[prodId].prod_name, products[prodId].price, amount, products[prodId].prod_desc.drug_name,\r... */\n      dup1\n      sload\n      dup1\n      0x20\n      mul\n      0x20\n      add\n      mload(0x40)\n      swap1\n      dup2\n      add\n      0x40\n      mstore\n      dup1\n      swap3\n      swap2\n      swap1\n      dup2\n      dup2\n      mstore\n      0x20\n      add\n      0x00\n      swap1\n    tag_137:\n      dup3\n      dup3\n      lt\n      iszero\n      tag_138\n      jumpi\n      dup4\n      dup3\n      swap1\n      0x00\n      mstore\n      keccak256(0x00, 0x20)\n      add\n      dup1\n      sload\n      tag_140\n      swap1\n      tag_96\n      jump\t// in\n    tag_140:\n      dup1\n      0x1f\n      add\n      0x20\n      dup1\n      swap2\n      div\n      mul\n      0x20\n      add\n      mload(0x40)\n      swap1\n      dup2\n      add\n      0x40\n      mstore\n      dup1\n      swap3\n      swap2\n      swap1\n      dup2\n      dup2\n      mstore\n      0x20\n      add\n      dup3\n      dup1\n      sload\n      tag_141\n      swap1\n      tag_96\n      jump\t// in\n    tag_141:\n      dup1\n      iszero\n      tag_142\n      jumpi\n      dup1\n      0x1f\n      lt\n      tag_143\n      jumpi\n      0x0100\n      dup1\n      dup4\n      sload\n      div\n      mul\n      dup4\n      mstore\n      swap2\n      0x20\n      add\n      swap2\n      jump(tag_142)\n    tag_143:\n      dup3\n      add\n      swap2\n      swap1\n      0x00\n      mstore\n      keccak256(0x00, 0x20)\n      swap1\n    tag_144:\n      dup2\n      sload\n      dup2\n      mstore\n      swap1\n      0x01\n      add\n      swap1\n      0x20\n      add\n      dup1\n      dup4\n      gt\n      tag_144\n      jumpi\n      dup3\n      swap1\n      sub\n      0x1f\n      and\n      dup3\n      add\n      swap2\n    tag_142:\n      pop\n      pop\n      pop\n      pop\n      pop\n      dup2\n      mstore\n      0x20\n      add\n      swap1\n      0x01\n      add\n      swap1\n      jump(tag_137)\n    tag_138:\n      pop\n      pop\n      pop\n      pop\n        /* \"contracts/pscmbc.sol\":3003:3011  products */\n      0x00\n        /* \"contracts/pscmbc.sol\":3012:3018  prodId */\n      dup14\n        /* \"contracts/pscmbc.sol\":3003:3019  products[prodId] */\n      dup2\n      sload\n      dup2\n      lt\n      tag_145\n      jumpi\n      tag_146\n      tag_73\n      jump\t// in\n    tag_146:\n    tag_145:\n      swap1\n      0x00\n      mstore\n      keccak256(0x00, 0x20)\n      swap1\n      0x0d\n      mul\n      add\n        /* \"contracts/pscmbc.sol\":3003:3029  products[prodId].prod_desc */\n      0x05\n      add\n        /* \"contracts/pscmbc.sol\":3003:3038  products[prodId].prod_desc.exp_date */\n      0x05\n      add\n        /* \"contracts/pscmbc.sol\":2710:3129  create_prod(products[prodId].prod_name, products[prodId].price, amount, products[prodId].prod_desc.drug_name,\r... */\n      dup1\n      sload\n      dup1\n      0x20\n      mul\n      0x20\n      add\n      mload(0x40)\n      swap1\n      dup2\n      add\n      0x40\n      mstore\n      dup1\n      swap3\n      swap2\n      swap1\n      dup2\n      dup2\n      mstore\n      0x20\n      add\n      0x00\n      swap1\n    tag_148:\n      dup3\n      dup3\n      lt\n      iszero\n      tag_149\n      jumpi\n      dup4\n      dup3\n      swap1\n      0x00\n      mstore\n      keccak256(0x00, 0x20)\n      add\n      dup1\n      sload\n      tag_151\n      swap1\n      tag_96\n      jump\t// in\n    tag_151:\n      dup1\n      0x1f\n      add\n      0x20\n      dup1\n      swap2\n      div\n      mul\n      0x20\n      add\n      mload(0x40)\n      swap1\n      dup2\n      add\n      0x40\n      mstore\n      dup1\n      swap3\n      swap2\n      swap1\n      dup2\n      dup2\n      mstore\n      0x20\n      add\n      dup3\n      dup1\n      sload\n      tag_152\n      swap1\n      tag_96\n      jump\t// in\n    tag_152:\n      dup1\n      iszero\n      tag_153\n      jumpi\n      dup1\n      0x1f\n      lt\n      tag_154\n      jumpi\n      0x0100\n      dup1\n      dup4\n      sload\n      div\n      mul\n      dup4\n      mstore\n      swap2\n      0x20\n      add\n      swap2\n      jump(tag_153)\n    tag_154:\n      dup3\n      add\n      swap2\n      swap1\n      0x00\n      mstore\n      keccak256(0x00, 0x20)\n      swap1\n    tag_155:\n      dup2\n      sload\n      dup2\n      mstore\n      swap1\n      0x01\n      add\n      swap1\n      0x20\n      add\n      dup1\n      dup4\n      gt\n      tag_155\n      jumpi\n      dup3\n      swap1\n      sub\n      0x1f\n      and\n      dup3\n      add\n      swap2\n    tag_153:\n      pop\n      pop\n      pop\n      pop\n      pop\n      dup2\n      mstore\n      0x20\n      add\n      swap1\n      0x01\n      add\n      swap1\n      jump(tag_148)\n    tag_149:\n      pop\n      pop\n      pop\n      pop\n        /* \"contracts/pscmbc.sol\":3040:3048  products */\n      0x00\n        /* \"contracts/pscmbc.sol\":3049:3055  prodId */\n      dup15\n        /* \"contracts/pscmbc.sol\":3040:3056  products[prodId] */\n      dup2\n      sload\n      dup2\n      lt\n      tag_156\n      jumpi\n      tag_157\n      tag_73\n      jump\t// in\n    tag_157:\n    tag_156:\n      swap1\n      0x00\n      mstore\n      keccak256(0x00, 0x20)\n      swap1\n      0x0d\n      mul\n      add\n        /* \"contracts/pscmbc.sol\":3040:3066  products[prodId].prod_desc */\n      0x05\n      add\n        /* \"contracts/pscmbc.sol\":3040:3075  products[prodId].prod_desc.batch_no */\n      0x06\n      add\n        /* \"contracts/pscmbc.sol\":2710:3129  create_prod(products[prodId].prod_name, products[prodId].price, amount, products[prodId].prod_desc.drug_name,\r... */\n      dup1\n      sload\n      tag_159\n      swap1\n      tag_96\n      jump\t// in\n    tag_159:\n      dup1\n      0x1f\n      add\n      0x20\n      dup1\n      swap2\n      div\n      mul\n      0x20\n      add\n      mload(0x40)\n      swap1\n      dup2\n      add\n      0x40\n      mstore\n      dup1\n      swap3\n      swap2\n      swap1\n      dup2\n      dup2\n      mstore\n      0x20\n      add\n      dup3\n      dup1\n      sload\n      tag_160\n      swap1\n      tag_96\n      jump\t// in\n    tag_160:\n      dup1\n      iszero\n      tag_161\n      jumpi\n      dup1\n      0x1f\n      lt\n      tag_162\n      jumpi\n      0x0100\n      dup1\n      dup4\n      sload\n      div\n      mul\n      dup4\n      mstore\n      swap2\n      0x20\n      add\n      swap2\n      jump(tag_161)\n    tag_162:\n      dup3\n      add\n      swap2\n      swap1\n      0x00\n      mstore\n      keccak256(0x00, 0x20)\n      swap1\n    tag_163:\n      dup2\n      sload\n      dup2\n      mstore\n      swap1\n      0x01\n      add\n      swap1\n      0x20\n      add\n      dup1\n      dup4\n      gt\n      tag_163\n      jumpi\n      dup3\n      swap1\n      sub\n      0x1f\n      and\n      dup3\n      add\n      swap2\n    tag_161:\n      pop\n      pop\n      pop\n      pop\n      pop\n        /* \"contracts/pscmbc.sol\":3090:3098  products */\n      0x00\n        /* \"contracts/pscmbc.sol\":3099:3105  prodId */\n      dup16\n        /* \"contracts/pscmbc.sol\":3090:3106  products[prodId] */\n      dup2\n      sload\n      dup2\n      lt\n      tag_164\n      jumpi\n      tag_165\n      tag_73\n      jump\t// in\n    tag_165:\n    tag_164:\n      swap1\n      0x00\n      mstore\n      keccak256(0x00, 0x20)\n      swap1\n      0x0d\n      mul\n      add\n        /* \"contracts/pscmbc.sol\":3090:3116  products[prodId].prod_desc */\n      0x05\n      add\n        /* \"contracts/pscmbc.sol\":3090:3128  products[prodId].prod_desc.sideEffects */\n      0x07\n      add\n        /* \"contracts/pscmbc.sol\":2710:3129  create_prod(products[prodId].prod_name, products[prodId].price, amount, products[prodId].prod_desc.drug_name,\r... */\n      dup1\n      sload\n      dup1\n      0x20\n      mul\n      0x20\n      add\n      mload(0x40)\n      swap1\n      dup2\n      add\n      0x40\n      mstore\n      dup1\n      swap3\n      swap2\n      swap1\n      dup2\n      dup2\n      mstore\n      0x20\n      add\n      0x00\n      swap1\n    tag_167:\n      dup3\n      dup3\n      lt\n      iszero\n      tag_168\n      jumpi\n      dup4\n      dup3\n      swap1\n      0x00\n      mstore\n      keccak256(0x00, 0x20)\n      add\n      dup1\n      sload\n      tag_170\n      swap1\n      tag_96\n      jump\t// in\n    tag_170:\n      dup1\n      0x1f\n      add\n      0x20\n      dup1\n      swap2\n      div\n      mul\n      0x20\n      add\n      mload(0x40)\n      swap1\n      dup2\n      add\n      0x40\n      mstore\n      dup1\n      swap3\n      swap2\n      swap1\n      dup2\n      dup2\n      mstore\n      0x20\n      add\n      dup3\n      dup1\n      sload\n      tag_171\n      swap1\n      tag_96\n      jump\t// in\n    tag_171:\n      dup1\n      iszero\n      tag_172\n      jumpi\n      dup1\n      0x1f\n      lt\n      tag_173\n      jumpi\n      0x0100\n      dup1\n      dup4\n      sload\n      div\n      mul\n      dup4\n      mstore\n      swap2\n      0x20\n      add\n      swap2\n      jump(tag_172)\n    tag_173:\n      dup3\n      add\n      swap2\n      swap1\n      0x00\n      mstore\n      keccak256(0x00, 0x20)\n      swap1\n    tag_174:\n      dup2\n      sload\n      dup2\n      mstore\n      swap1\n      0x01\n      add\n      swap1\n      0x20\n      add\n      dup1\n      dup4\n      gt\n      tag_174\n      jumpi\n      dup3\n      swap1\n      sub\n      0x1f\n      and\n      dup3\n      add\n      swap2\n    tag_172:\n      pop\n      pop\n      pop\n      pop\n      pop\n      dup2\n      mstore\n      0x20\n      add\n      swap1\n      0x01\n      add\n      swap1\n      jump(tag_167)\n    tag_168:\n      pop\n      pop\n      pop\n      pop\n        /* \"contracts/pscmbc.sol\":2710:2721  create_prod */\n      tag_52\n        /* \"contracts/pscmbc.sol\":2710:3129  create_prod(products[prodId].prod_name, products[prodId].price, amount, products[prodId].prod_desc.drug_name,\r... */\n      jump\t// in\n    tag_91:\n        /* \"contracts/pscmbc.sol\":3161:3249  PaymentDone(msg.sender, products[prodId].owner_id, prodId, val, amount, block.timestamp) */\n      0x75f416a1740de68a6376bad70148558f2da14b6cf24e78547c6a73c9d68c0bd7\n        /* \"contracts/pscmbc.sol\":3173:3183  msg.sender */\n      caller\n        /* \"contracts/pscmbc.sol\":3185:3193  products */\n      0x00\n        /* \"contracts/pscmbc.sol\":3194:3200  prodId */\n      dup7\n        /* \"contracts/pscmbc.sol\":3185:3201  products[prodId] */\n      dup2\n      sload\n      dup2\n      lt\n      tag_175\n      jumpi\n      tag_176\n      tag_73\n      jump\t// in\n    tag_176:\n    tag_175:\n      swap1\n      0x00\n      mstore\n      keccak256(0x00, 0x20)\n      swap1\n      0x0d\n      mul\n      add\n        /* \"contracts/pscmbc.sol\":3185:3210  products[prodId].owner_id */\n      0x01\n      add\n      0x00\n      swap1\n      sload\n      swap1\n      0x0100\n      exp\n      swap1\n      div\n      0xffffffffffffffffffffffffffffffffffffffff\n      and\n        /* \"contracts/pscmbc.sol\":3212:3218  prodId */\n      dup7\n        /* \"contracts/pscmbc.sol\":3220:3223  val */\n      dup5\n        /* \"contracts/pscmbc.sol\":3225:3231  amount */\n      dup8\n        /* \"contracts/pscmbc.sol\":3233:3248  block.timestamp */\n      timestamp\n        /* \"contracts/pscmbc.sol\":3161:3249  PaymentDone(msg.sender, products[prodId].owner_id, prodId, val, amount, block.timestamp) */\n      mload(0x40)\n      tag_178\n      swap7\n      swap6\n      swap5\n      swap4\n      swap3\n      swap2\n      swap1\n      tag_179\n      jump\t// in\n    tag_178:\n      mload(0x40)\n      dup1\n      swap2\n      sub\n      swap1\n      log1\n        /* \"contracts/pscmbc.sol\":3271:3275  true */\n      0x01\n        /* \"contracts/pscmbc.sol\":3264:3275  return true */\n      swap2\n      pop\n      pop\n      jump(tag_69)\n        /* \"contracts/pscmbc.sol\":2430:3287  if(prodId != 0 && products[prodId].avaiableUnits >= amount){\r... */\n    tag_75:\n        /* \"contracts/pscmbc.sol\":3306:3311  false */\n      0x00\n        /* \"contracts/pscmbc.sol\":3299:3311  return false */\n      swap1\n      pop\n        /* \"contracts/pscmbc.sol\":2344:3319  function buy_product(uint prodId, uint amount) public returns (bool bought){\r... */\n    tag_69:\n      swap3\n      swap2\n      pop\n      pop\n      jump\t// out\n        /* \"contracts/pscmbc.sol\":832:873  mapping (address => uint) public balances */\n    tag_32:\n      mstore(0x20, 0x02)\n      dup1\n      0x00\n      mstore\n      keccak256(0x00, 0x40)\n      0x00\n      swap2\n      pop\n      swap1\n      pop\n      sload\n      dup2\n      jump\t// out\n        /* \"contracts/pscmbc.sol\":1738:2336  function create_user(string memory ut, string memory on, string memory email, string memory pass, uint bal, uint[12] memory TIN, string memory loc) public {\r... */\n    tag_37:\n        /* \"contracts/pscmbc.sol\":1904:1917  User memory u */\n      tag_181\n      tag_182\n      jump\t// in\n    tag_181:\n        /* \"contracts/pscmbc.sol\":1940:1950  msg.sender */\n      caller\n        /* \"contracts/pscmbc.sol\":1928:1929  u */\n      dup2\n        /* \"contracts/pscmbc.sol\":1928:1937  u.user_id */\n      0x00\n      add\n        /* \"contracts/pscmbc.sol\":1928:1950  u.user_id = msg.sender */\n      swap1\n      0xffffffffffffffffffffffffffffffffffffffff\n      and\n      swap1\n      dup2\n      0xffffffffffffffffffffffffffffffffffffffff\n      and\n      dup2\n      mstore\n      pop\n      pop\n        /* \"contracts/pscmbc.sol\":1974:1976  on */\n      dup7\n        /* \"contracts/pscmbc.sol\":1961:1962  u */\n      dup2\n        /* \"contracts/pscmbc.sol\":1961:1971  u.org_name */\n      0x20\n      add\n        /* \"contracts/pscmbc.sol\":1961:1976  u.org_name = on */\n      dup2\n      swap1\n      mstore\n      pop\n        /* \"contracts/pscmbc.sol\":1997:2002  email */\n      dup6\n        /* \"contracts/pscmbc.sol\":1987:1988  u */\n      dup2\n        /* \"contracts/pscmbc.sol\":1987:1994  u.email */\n      0x60\n      add\n        /* \"contracts/pscmbc.sol\":1987:2002  u.email = email */\n      dup2\n      swap1\n      mstore\n      pop\n        /* \"contracts/pscmbc.sol\":2026:2030  pass */\n      dup5\n        /* \"contracts/pscmbc.sol\":2013:2014  u */\n      dup2\n        /* \"contracts/pscmbc.sol\":2013:2023  u.password */\n      0x80\n      add\n        /* \"contracts/pscmbc.sol\":2013:2030  u.password = pass */\n      dup2\n      swap1\n      mstore\n      pop\n        /* \"contracts/pscmbc.sol\":2053:2056  bal */\n      dup4\n        /* \"contracts/pscmbc.sol\":2041:2042  u */\n      dup2\n        /* \"contracts/pscmbc.sol\":2041:2050  u.balance */\n      0xa0\n      add\n        /* \"contracts/pscmbc.sol\":2041:2056  u.balance = bal */\n      dup2\n      dup2\n      mstore\n      pop\n      pop\n        /* \"contracts/pscmbc.sol\":2071:2077  uint i */\n      0x00\n        /* \"contracts/pscmbc.sol\":2067:2135  for(uint i=0; i<12; i++){\r... */\n    tag_183:\n        /* \"contracts/pscmbc.sol\":2083:2085  12 */\n      0x0c\n        /* \"contracts/pscmbc.sol\":2081:2082  i */\n      dup2\n        /* \"contracts/pscmbc.sol\":2081:2085  i<12 */\n      lt\n        /* \"contracts/pscmbc.sol\":2067:2135  for(uint i=0; i<12; i++){\r... */\n      iszero\n      tag_184\n      jumpi\n        /* \"contracts/pscmbc.sol\":2117:2120  TIN */\n      dup4\n        /* \"contracts/pscmbc.sol\":2121:2122  i */\n      dup2\n        /* \"contracts/pscmbc.sol\":2117:2123  TIN[i] */\n      0x0c\n      dup2\n      lt\n      tag_186\n      jumpi\n      tag_187\n      tag_73\n      jump\t// in\n    tag_187:\n    tag_186:\n      0x20\n      mul\n      add\n      mload\n        /* \"contracts/pscmbc.sol\":2106:2107  u */\n      dup3\n        /* \"contracts/pscmbc.sol\":2106:2111  u.TIN */\n      0xc0\n      add\n      mload\n        /* \"contracts/pscmbc.sol\":2112:2113  i */\n      dup3\n        /* \"contracts/pscmbc.sol\":2106:2114  u.TIN[i] */\n      0x0c\n      dup2\n      lt\n      tag_188\n      jumpi\n      tag_189\n      tag_73\n      jump\t// in\n    tag_189:\n    tag_188:\n      0x20\n      mul\n      add\n        /* \"contracts/pscmbc.sol\":2106:2123  u.TIN[i] = TIN[i] */\n      dup2\n      dup2\n      mstore\n      pop\n      pop\n        /* \"contracts/pscmbc.sol\":2087:2090  i++ */\n      dup1\n      dup1\n      tag_190\n      swap1\n      tag_191\n      jump\t// in\n    tag_190:\n      swap2\n      pop\n      pop\n        /* \"contracts/pscmbc.sol\":2067:2135  for(uint i=0; i<12; i++){\r... */\n      jump(tag_183)\n    tag_184:\n      pop\n        /* \"contracts/pscmbc.sol\":2158:2161  loc */\n      dup2\n        /* \"contracts/pscmbc.sol\":2145:2146  u */\n      dup2\n        /* \"contracts/pscmbc.sol\":2145:2155  u.location */\n      0xe0\n      add\n        /* \"contracts/pscmbc.sol\":2145:2161  u.location = loc */\n      dup2\n      swap1\n      mstore\n      pop\n        /* \"contracts/pscmbc.sol\":2186:2188  ut */\n      dup8\n        /* \"contracts/pscmbc.sol\":2172:2173  u */\n      dup2\n        /* \"contracts/pscmbc.sol\":2172:2183  u.user_type */\n      0x40\n      add\n        /* \"contracts/pscmbc.sol\":2172:2188  u.user_type = ut */\n      dup2\n      swap1\n      mstore\n      pop\n        /* \"contracts/pscmbc.sol\":2201:2206  users */\n      0x01\n        /* \"contracts/pscmbc.sol\":2212:2213  u */\n      dup2\n        /* \"contracts/pscmbc.sol\":2201:2214  users.push(u) */\n      swap1\n      dup1\n      0x01\n      dup2\n      sload\n      add\n      dup1\n      dup3\n      sstore\n      dup1\n      swap2\n      pop\n      pop\n      0x01\n      swap1\n      sub\n      swap1\n      0x00\n      mstore\n      keccak256(0x00, 0x20)\n      swap1\n      0x13\n      mul\n      add\n      0x00\n      swap1\n      swap2\n      swap1\n      swap2\n      swap1\n      swap2\n      pop\n      0x00\n      dup3\n      add\n      mload\n      dup2\n      0x00\n      add\n      exp(0x0100, 0x00)\n      dup2\n      sload\n      dup2\n      0xffffffffffffffffffffffffffffffffffffffff\n      mul\n      not\n      and\n      swap1\n      dup4\n      0xffffffffffffffffffffffffffffffffffffffff\n      and\n      mul\n      or\n      swap1\n      sstore\n      pop\n      0x20\n      dup3\n      add\n      mload\n      dup2\n      0x01\n      add\n      swap1\n      dup1\n      mload\n      swap1\n      0x20\n      add\n      swap1\n      tag_193\n      swap3\n      swap2\n      swap1\n      tag_194\n      jump\t// in\n    tag_193:\n      pop\n      0x40\n      dup3\n      add\n      mload\n      dup2\n      0x02\n      add\n      swap1\n      dup1\n      mload\n      swap1\n      0x20\n      add\n      swap1\n      tag_195\n      swap3\n      swap2\n      swap1\n      tag_194\n      jump\t// in\n    tag_195:\n      pop\n      0x60\n      dup3\n      add\n      mload\n      dup2\n      0x03\n      add\n      swap1\n      dup1\n      mload\n      swap1\n      0x20\n      add\n      swap1\n      tag_196\n      swap3\n      swap2\n      swap1\n      tag_194\n      jump\t// in\n    tag_196:\n      pop\n      0x80\n      dup3\n      add\n      mload\n      dup2\n      0x04\n      add\n      swap1\n      dup1\n      mload\n      swap1\n      0x20\n      add\n      swap1\n      tag_197\n      swap3\n      swap2\n      swap1\n      tag_194\n      jump\t// in\n    tag_197:\n      pop\n      0xa0\n      dup3\n      add\n      mload\n      dup2\n      0x05\n      add\n      sstore\n      0xc0\n      dup3\n      add\n      mload\n      dup2\n      0x06\n      add\n      swap1\n      0x0c\n      tag_198\n      swap3\n      swap2\n      swap1\n      tag_199\n      jump\t// in\n    tag_198:\n      pop\n      0xe0\n      dup3\n      add\n      mload\n      dup2\n      0x12\n      add\n      swap1\n      dup1\n      mload\n      swap1\n      0x20\n      add\n      swap1\n      tag_200\n      swap3\n      swap2\n      swap1\n      tag_194\n      jump\t// in\n    tag_200:\n      pop\n      pop\n      pop\n        /* \"contracts/pscmbc.sol\":2230:2328  UserCreated(u.user_id, u.org_name, u.user_type, u.email, u.password, u.balance, u.TIN, u.location) */\n      0xc4aa35700f4a2a5a56437570881086dfe5553f60cd3c6b59a61c4b9036e34f1b\n        /* \"contracts/pscmbc.sol\":2242:2243  u */\n      dup2\n        /* \"contracts/pscmbc.sol\":2242:2251  u.user_id */\n      0x00\n      add\n      mload\n        /* \"contracts/pscmbc.sol\":2253:2254  u */\n      dup3\n        /* \"contracts/pscmbc.sol\":2253:2263  u.org_name */\n      0x20\n      add\n      mload\n        /* \"contracts/pscmbc.sol\":2265:2266  u */\n      dup4\n        /* \"contracts/pscmbc.sol\":2265:2276  u.user_type */\n      0x40\n      add\n      mload\n        /* \"contracts/pscmbc.sol\":2278:2279  u */\n      dup5\n        /* \"contracts/pscmbc.sol\":2278:2285  u.email */\n      0x60\n      add\n      mload\n        /* \"contracts/pscmbc.sol\":2287:2288  u */\n      dup6\n        /* \"contracts/pscmbc.sol\":2287:2297  u.password */\n      0x80\n      add\n      mload\n        /* \"contracts/pscmbc.sol\":2299:2300  u */\n      dup7\n        /* \"contracts/pscmbc.sol\":2299:2308  u.balance */\n      0xa0\n      add\n      mload\n        /* \"contracts/pscmbc.sol\":2310:2311  u */\n      dup8\n        /* \"contracts/pscmbc.sol\":2310:2315  u.TIN */\n      0xc0\n      add\n      mload\n        /* \"contracts/pscmbc.sol\":2317:2318  u */\n      dup9\n        /* \"contracts/pscmbc.sol\":2317:2327  u.location */\n      0xe0\n      add\n      mload\n        /* \"contracts/pscmbc.sol\":2230:2328  UserCreated(u.user_id, u.org_name, u.user_type, u.email, u.password, u.balance, u.TIN, u.location) */\n      mload(0x40)\n      tag_201\n      swap9\n      swap8\n      swap7\n      swap6\n      swap5\n      swap4\n      swap3\n      swap2\n      swap1\n      tag_202\n      jump\t// in\n    tag_201:\n      mload(0x40)\n      dup1\n      swap2\n      sub\n      swap1\n      log1\n        /* \"contracts/pscmbc.sol\":1893:2336  {\r... */\n      pop\n        /* \"contracts/pscmbc.sol\":1738:2336  function create_user(string memory ut, string memory on, string memory email, string memory pass, uint bal, uint[12] memory TIN, string memory loc) public {\r... */\n      pop\n      pop\n      pop\n      pop\n      pop\n      pop\n      pop\n      jump\t// out\n        /* \"contracts/pscmbc.sol\":806:825  User[] public users */\n    tag_41:\n      0x01\n      dup2\n      dup2\n      sload\n      dup2\n      lt\n      tag_203\n      jumpi\n      0x00\n      dup1\n      revert\n    tag_203:\n      swap1\n      0x00\n      mstore\n      keccak256(0x00, 0x20)\n      swap1\n      0x13\n      mul\n      add\n      0x00\n      swap2\n      pop\n      swap1\n      pop\n      dup1\n      0x00\n      add\n      0x00\n      swap1\n      sload\n      swap1\n      0x0100\n      exp\n      swap1\n      div\n      0xffffffffffffffffffffffffffffffffffffffff\n      and\n      swap1\n      dup1\n      0x01\n      add\n      dup1\n      sload\n      tag_205\n      swap1\n      tag_96\n      jump\t// in\n    tag_205:\n      dup1\n      0x1f\n      add\n      0x20\n      dup1\n      swap2\n      div\n      mul\n      0x20\n      add\n      mload(0x40)\n      swap1\n      dup2\n      add\n      0x40\n      mstore\n      dup1\n      swap3\n      swap2\n      swap1\n      dup2\n      dup2\n      mstore\n      0x20\n      add\n      dup3\n      dup1\n      sload\n      tag_206\n      swap1\n      tag_96\n      jump\t// in\n    tag_206:\n      dup1\n      iszero\n      tag_207\n      jumpi\n      dup1\n      0x1f\n      lt\n      tag_208\n      jumpi\n      0x0100\n      dup1\n      dup4\n      sload\n      div\n      mul\n      dup4\n      mstore\n      swap2\n      0x20\n      add\n      swap2\n      jump(tag_207)\n    tag_208:\n      dup3\n      add\n      swap2\n      swap1\n      0x00\n      mstore\n      keccak256(0x00, 0x20)\n      swap1\n    tag_209:\n      dup2\n      sload\n      dup2\n      mstore\n      swap1\n      0x01\n      add\n      swap1\n      0x20\n      add\n      dup1\n      dup4\n      gt\n      tag_209\n      jumpi\n      dup3\n      swap1\n      sub\n      0x1f\n      and\n      dup3\n      add\n      swap2\n    tag_207:\n      pop\n      pop\n      pop\n      pop\n      pop\n      swap1\n      dup1\n      0x02\n      add\n      dup1\n      sload\n      tag_210\n      swap1\n      tag_96\n      jump\t// in\n    tag_210:\n      dup1\n      0x1f\n      add\n      0x20\n      dup1\n      swap2\n      div\n      mul\n      0x20\n      add\n      mload(0x40)\n      swap1\n      dup2\n      add\n      0x40\n      mstore\n      dup1\n      swap3\n      swap2\n      swap1\n      dup2\n      dup2\n      mstore\n      0x20\n      add\n      dup3\n      dup1\n      sload\n      tag_211\n      swap1\n      tag_96\n      jump\t// in\n    tag_211:\n      dup1\n      iszero\n      tag_212\n      jumpi\n      dup1\n      0x1f\n      lt\n      tag_213\n      jumpi\n      0x0100\n      dup1\n      dup4\n      sload\n      div\n      mul\n      dup4\n      mstore\n      swap2\n      0x20\n      add\n      swap2\n      jump(tag_212)\n    tag_213:\n      dup3\n      add\n      swap2\n      swap1\n      0x00\n      mstore\n      keccak256(0x00, 0x20)\n      swap1\n    tag_214:\n      dup2\n      sload\n      dup2\n      mstore\n      swap1\n      0x01\n      add\n      swap1\n      0x20\n      add\n      dup1\n      dup4\n      gt\n      tag_214\n      jumpi\n      dup3\n      swap1\n      sub\n      0x1f\n      and\n      dup3\n      add\n      swap2\n    tag_212:\n      pop\n      pop\n      pop\n      pop\n      pop\n      swap1\n      dup1\n      0x03\n      add\n      dup1\n      sload\n      tag_215\n      swap1\n      tag_96\n      jump\t// in\n    tag_215:\n      dup1\n      0x1f\n      add\n      0x20\n      dup1\n      swap2\n      div\n      mul\n      0x20\n      add\n      mload(0x40)\n      swap1\n      dup2\n      add\n      0x40\n      mstore\n      dup1\n      swap3\n      swap2\n      swap1\n      dup2\n      dup2\n      mstore\n      0x20\n      add\n      dup3\n      dup1\n      sload\n      tag_216\n      swap1\n      tag_96\n      jump\t// in\n    tag_216:\n      dup1\n      iszero\n      tag_217\n      jumpi\n      dup1\n      0x1f\n      lt\n      tag_218\n      jumpi\n      0x0100\n      dup1\n      dup4\n      sload\n      div\n      mul\n      dup4\n      mstore\n      swap2\n      0x20\n      add\n      swap2\n      jump(tag_217)\n    tag_218:\n      dup3\n      add\n      swap2\n      swap1\n      0x00\n      mstore\n      keccak256(0x00, 0x20)\n      swap1\n    tag_219:\n      dup2\n      sload\n      dup2\n      mstore\n      swap1\n      0x01\n      add\n      swap1\n      0x20\n      add\n      dup1\n      dup4\n      gt\n      tag_219\n      jumpi\n      dup3\n      swap1\n      sub\n      0x1f\n      and\n      dup3\n      add\n      swap2\n    tag_217:\n      pop\n      pop\n      pop\n      pop\n      pop\n      swap1\n      dup1\n      0x04\n      add\n      dup1\n      sload\n      tag_220\n      swap1\n      tag_96\n      jump\t// in\n    tag_220:\n      dup1\n      0x1f\n      add\n      0x20\n      dup1\n      swap2\n      div\n      mul\n      0x20\n      add\n      mload(0x40)\n      swap1\n      dup2\n      add\n      0x40\n      mstore\n      dup1\n      swap3\n      swap2\n      swap1\n      dup2\n      dup2\n      mstore\n      0x20\n      add\n      dup3\n      dup1\n      sload\n      tag_221\n      swap1\n      tag_96\n      jump\t// in\n    tag_221:\n      dup1\n      iszero\n      tag_222\n      jumpi\n      dup1\n      0x1f\n      lt\n      tag_223\n      jumpi\n      0x0100\n      dup1\n      dup4\n      sload\n      div\n      mul\n      dup4\n      mstore\n      swap2\n      0x20\n      add\n      swap2\n      jump(tag_222)\n    tag_223:\n      dup3\n      add\n      swap2\n      swap1\n      0x00\n      mstore\n      keccak256(0x00, 0x20)\n      swap1\n    tag_224:\n      dup2\n      sload\n      dup2\n      mstore\n      swap1\n      0x01\n      add\n      swap1\n      0x20\n      add\n      dup1\n      dup4\n      gt\n      tag_224\n      jumpi\n      dup3\n      swap1\n      sub\n      0x1f\n      and\n      dup3\n      add\n      swap2\n    tag_222:\n      pop\n      pop\n      pop\n      pop\n      pop\n      swap1\n      dup1\n      0x05\n      add\n      sload\n      swap1\n      dup1\n      0x12\n      add\n      dup1\n      sload\n      tag_225\n      swap1\n      tag_96\n      jump\t// in\n    tag_225:\n      dup1\n      0x1f\n      add\n      0x20\n      dup1\n      swap2\n      div\n      mul\n      0x20\n      add\n      mload(0x40)\n      swap1\n      dup2\n      add\n      0x40\n      mstore\n      dup1\n      swap3\n      swap2\n      swap1\n      dup2\n      dup2\n      mstore\n      0x20\n      add\n      dup3\n      dup1\n      sload\n      tag_226\n      swap1\n      tag_96\n      jump\t// in\n    tag_226:\n      dup1\n      iszero\n      tag_227\n      jumpi\n      dup1\n      0x1f\n      lt\n      tag_228\n      jumpi\n      0x0100\n      dup1\n      dup4\n      sload\n      div\n      mul\n      dup4\n      mstore\n      swap2\n      0x20\n      add\n      swap2\n      jump(tag_227)\n    tag_228:\n      dup3\n      add\n      swap2\n      swap1\n      0x00\n      mstore\n      keccak256(0x00, 0x20)\n      swap1\n    tag_229:\n      dup2\n      sload\n      dup2\n      mstore\n      swap1\n      0x01\n      add\n      swap1\n      0x20\n      add\n      dup1\n      dup4\n      gt\n      tag_229\n      jumpi\n      dup3\n      swap1\n      sub\n      0x1f\n      and\n      dup3\n      add\n      swap2\n    tag_227:\n      pop\n      pop\n      pop\n      pop\n      pop\n      swap1\n      pop\n      dup8\n      jump\t// out\n        /* \"contracts/pscmbc.sol\":543:568  Product[] public products */\n    tag_46:\n      0x00\n      dup2\n      dup2\n      sload\n      dup2\n      lt\n      tag_230\n      jumpi\n      0x00\n      dup1\n      revert\n    tag_230:\n      swap1\n      0x00\n      mstore\n      keccak256(0x00, 0x20)\n      swap1\n      0x0d\n      mul\n      add\n      0x00\n      swap2\n      pop\n      swap1\n      pop\n      dup1\n      0x00\n      add\n      sload\n      swap1\n      dup1\n      0x01\n      add\n      0x00\n      swap1\n      sload\n      swap1\n      0x0100\n      exp\n      swap1\n      div\n      0xffffffffffffffffffffffffffffffffffffffff\n      and\n      swap1\n      dup1\n      0x02\n      add\n      dup1\n      sload\n      tag_232\n      swap1\n      tag_96\n      jump\t// in\n    tag_232:\n      dup1\n      0x1f\n      add\n      0x20\n      dup1\n      swap2\n      div\n      mul\n      0x20\n      add\n      mload(0x40)\n      swap1\n      dup2\n      add\n      0x40\n      mstore\n      dup1\n      swap3\n      swap2\n      swap1\n      dup2\n      dup2\n      mstore\n      0x20\n      add\n      dup3\n      dup1\n      sload\n      tag_233\n      swap1\n      tag_96\n      jump\t// in\n    tag_233:\n      dup1\n      iszero\n      tag_234\n      jumpi\n      dup1\n      0x1f\n      lt\n      tag_235\n      jumpi\n      0x0100\n      dup1\n      dup4\n      sload\n      div\n      mul\n      dup4\n      mstore\n      swap2\n      0x20\n      add\n      swap2\n      jump(tag_234)\n    tag_235:\n      dup3\n      add\n      swap2\n      swap1\n      0x00\n      mstore\n      keccak256(0x00, 0x20)\n      swap1\n    tag_236:\n      dup2\n      sload\n      dup2\n      mstore\n      swap1\n      0x01\n      add\n      swap1\n      0x20\n      add\n      dup1\n      dup4\n      gt\n      tag_236\n      jumpi\n      dup3\n      swap1\n      sub\n      0x1f\n      and\n      dup3\n      add\n      swap2\n    tag_234:\n      pop\n      pop\n      pop\n      pop\n      pop\n      swap1\n      dup1\n      0x03\n      add\n      sload\n      swap1\n      dup1\n      0x04\n      add\n      sload\n      swap1\n      dup1\n      0x05\n      add\n      mload(0x40)\n      dup1\n      0x0100\n      add\n      0x40\n      mstore\n      swap1\n      dup2\n      0x00\n      dup3\n      add\n      dup1\n      sload\n      tag_237\n      swap1\n      tag_96\n      jump\t// in\n    tag_237:\n      dup1\n      0x1f\n      add\n      0x20\n      dup1\n      swap2\n      div\n      mul\n      0x20\n      add\n      mload(0x40)\n      swap1\n      dup2\n      add\n      0x40\n      mstore\n      dup1\n      swap3\n      swap2\n      swap1\n      dup2\n      dup2\n      mstore\n      0x20\n      add\n      dup3\n      dup1\n      sload\n      tag_238\n      swap1\n      tag_96\n      jump\t// in\n    tag_238:\n      dup1\n      iszero\n      tag_239\n      jumpi\n      dup1\n      0x1f\n      lt\n      tag_240\n      jumpi\n      0x0100\n      dup1\n      dup4\n      sload\n      div\n      mul\n      dup4\n      mstore\n      swap2\n      0x20\n      add\n      swap2\n      jump(tag_239)\n    tag_240:\n      dup3\n      add\n      swap2\n      swap1\n      0x00\n      mstore\n      keccak256(0x00, 0x20)\n      swap1\n    tag_241:\n      dup2\n      sload\n      dup2\n      mstore\n      swap1\n      0x01\n      add\n      swap1\n      0x20\n      add\n      dup1\n      dup4\n      gt\n      tag_241\n      jumpi\n      dup3\n      swap1\n      sub\n      0x1f\n      and\n      dup3\n      add\n      swap2\n    tag_239:\n      pop\n      pop\n      pop\n      pop\n      pop\n      dup2\n      mstore\n      0x20\n      add\n      0x01\n      dup3\n      add\n      dup1\n      sload\n      tag_242\n      swap1\n      tag_96\n      jump\t// in\n    tag_242:\n      dup1\n      0x1f\n      add\n      0x20\n      dup1\n      swap2\n      div\n      mul\n      0x20\n      add\n      mload(0x40)\n      swap1\n      dup2\n      add\n      0x40\n      mstore\n      dup1\n      swap3\n      swap2\n      swap1\n      dup2\n      dup2\n      mstore\n      0x20\n      add\n      dup3\n      dup1\n      sload\n      tag_243\n      swap1\n      tag_96\n      jump\t// in\n    tag_243:\n      dup1\n      iszero\n      tag_244\n      jumpi\n      dup1\n      0x1f\n      lt\n      tag_245\n      jumpi\n      0x0100\n      dup1\n      dup4\n      sload\n      div\n      mul\n      dup4\n      mstore\n      swap2\n      0x20\n      add\n      swap2\n      jump(tag_244)\n    tag_245:\n      dup3\n      add\n      swap2\n      swap1\n      0x00\n      mstore\n      keccak256(0x00, 0x20)\n      swap1\n    tag_246:\n      dup2\n      sload\n      dup2\n      mstore\n      swap1\n      0x01\n      add\n      swap1\n      0x20\n      add\n      dup1\n      dup4\n      gt\n      tag_246\n      jumpi\n      dup3\n      swap1\n      sub\n      0x1f\n      and\n      dup3\n      add\n      swap2\n    tag_244:\n      pop\n      pop\n      pop\n      pop\n      pop\n      dup2\n      mstore\n      0x20\n      add\n      0x02\n      dup3\n      add\n      sload\n      dup2\n      mstore\n      0x20\n      add\n      0x03\n      dup3\n      add\n      dup1\n      sload\n      dup1\n      0x20\n      mul\n      0x20\n      add\n      mload(0x40)\n      swap1\n      dup2\n      add\n      0x40\n      mstore\n      dup1\n      swap3\n      swap2\n      swap1\n      dup2\n      dup2\n      mstore\n      0x20\n      add\n      0x00\n      swap1\n    tag_247:\n      dup3\n      dup3\n      lt\n      iszero\n      tag_248\n      jumpi\n      dup4\n      dup3\n      swap1\n      0x00\n      mstore\n      keccak256(0x00, 0x20)\n      add\n      dup1\n      sload\n      tag_250\n      swap1\n      tag_96\n      jump\t// in\n    tag_250:\n      dup1\n      0x1f\n      add\n      0x20\n      dup1\n      swap2\n      div\n      mul\n      0x20\n      add\n      mload(0x40)\n      swap1\n      dup2\n      add\n      0x40\n      mstore\n      dup1\n      swap3\n      swap2\n      swap1\n      dup2\n      dup2\n      mstore\n      0x20\n      add\n      dup3\n      dup1\n      sload\n      tag_251\n      swap1\n      tag_96\n      jump\t// in\n    tag_251:\n      dup1\n      iszero\n      tag_252\n      jumpi\n      dup1\n      0x1f\n      lt\n      tag_253\n      jumpi\n      0x0100\n      dup1\n      dup4\n      sload\n      div\n      mul\n      dup4\n      mstore\n      swap2\n      0x20\n      add\n      swap2\n      jump(tag_252)\n    tag_253:\n      dup3\n      add\n      swap2\n      swap1\n      0x00\n      mstore\n      keccak256(0x00, 0x20)\n      swap1\n    tag_254:\n      dup2\n      sload\n      dup2\n      mstore\n      swap1\n      0x01\n      add\n      swap1\n      0x20\n      add\n      dup1\n      dup4\n      gt\n      tag_254\n      jumpi\n      dup3\n      swap1\n      sub\n      0x1f\n      and\n      dup3\n      add\n      swap2\n    tag_252:\n      pop\n      pop\n      pop\n      pop\n      pop\n      dup2\n      mstore\n      0x20\n      add\n      swap1\n      0x01\n      add\n      swap1\n      jump(tag_247)\n    tag_248:\n      pop\n      pop\n      pop\n      pop\n      dup2\n      mstore\n      0x20\n      add\n      0x04\n      dup3\n      add\n      dup1\n      sload\n      dup1\n      0x20\n      mul\n      0x20\n      add\n      mload(0x40)\n      swap1\n      dup2\n      add\n      0x40\n      mstore\n      dup1\n      swap3\n      swap2\n      swap1\n      dup2\n      dup2\n      mstore\n      0x20\n      add\n      0x00\n      swap1\n    tag_255:\n      dup3\n      dup3\n      lt\n      iszero\n      tag_256\n      jumpi\n      dup4\n      dup3\n      swap1\n      0x00\n      mstore\n      keccak256(0x00, 0x20)\n      add\n      dup1\n      sload\n      tag_258\n      swap1\n      tag_96\n      jump\t// in\n    tag_258:\n      dup1\n      0x1f\n      add\n      0x20\n      dup1\n      swap2\n      div\n      mul\n      0x20\n      add\n      mload(0x40)\n      swap1\n      dup2\n      add\n      0x40\n      mstore\n      dup1\n      swap3\n      swap2\n      swap1\n      dup2\n      dup2\n      mstore\n      0x20\n      add\n      dup3\n      dup1\n      sload\n      tag_259\n      swap1\n      tag_96\n      jump\t// in\n    tag_259:\n      dup1\n      iszero\n      tag_260\n      jumpi\n      dup1\n      0x1f\n      lt\n      tag_261\n      jumpi\n      0x0100\n      dup1\n      dup4\n      sload\n      div\n      mul\n      dup4\n      mstore\n      swap2\n      0x20\n      add\n      swap2\n      jump(tag_260)\n    tag_261:\n      dup3\n      add\n      swap2\n      swap1\n      0x00\n      mstore\n      keccak256(0x00, 0x20)\n      swap1\n    tag_262:\n      dup2\n      sload\n      dup2\n      mstore\n      swap1\n      0x01\n      add\n      swap1\n      0x20\n      add\n      dup1\n      dup4\n      gt\n      tag_262\n      jumpi\n      dup3\n      swap1\n      sub\n      0x1f\n      and\n      dup3\n      add\n      swap2\n    tag_260:\n      pop\n      pop\n      pop\n      pop\n      pop\n      dup2\n      mstore\n      0x20\n      add\n      swap1\n      0x01\n      add\n      swap1\n      jump(tag_255)\n    tag_256:\n      pop\n      pop\n      pop\n      pop\n      dup2\n      mstore\n      0x20\n      add\n      0x05\n      dup3\n      add\n      dup1\n      sload\n      dup1\n      0x20\n      mul\n      0x20\n      add\n      mload(0x40)\n      swap1\n      dup2\n      add\n      0x40\n      mstore\n      dup1\n      swap3\n      swap2\n      swap1\n      dup2\n      dup2\n      mstore\n      0x20\n      add\n      0x00\n      swap1\n    tag_263:\n      dup3\n      dup3\n      lt\n      iszero\n      tag_264\n      jumpi\n      dup4\n      dup3\n      swap1\n      0x00\n      mstore\n      keccak256(0x00, 0x20)\n      add\n      dup1\n      sload\n      tag_266\n      swap1\n      tag_96\n      jump\t// in\n    tag_266:\n      dup1\n      0x1f\n      add\n      0x20\n      dup1\n      swap2\n      div\n      mul\n      0x20\n      add\n      mload(0x40)\n      swap1\n      dup2\n      add\n      0x40\n      mstore\n      dup1\n      swap3\n      swap2\n      swap1\n      dup2\n      dup2\n      mstore\n      0x20\n      add\n      dup3\n      dup1\n      sload\n      tag_267\n      swap1\n      tag_96\n      jump\t// in\n    tag_267:\n      dup1\n      iszero\n      tag_268\n      jumpi\n      dup1\n      0x1f\n      lt\n      tag_269\n      jumpi\n      0x0100\n      dup1\n      dup4\n      sload\n      div\n      mul\n      dup4\n      mstore\n      swap2\n      0x20\n      add\n      swap2\n      jump(tag_268)\n    tag_269:\n      dup3\n      add\n      swap2\n      swap1\n      0x00\n      mstore\n      keccak256(0x00, 0x20)\n      swap1\n    tag_270:\n      dup2\n      sload\n      dup2\n      mstore\n      swap1\n      0x01\n      add\n      swap1\n      0x20\n      add\n      dup1\n      dup4\n      gt\n      tag_270\n      jumpi\n      dup3\n      swap1\n      sub\n      0x1f\n      and\n      dup3\n      add\n      swap2\n    tag_268:\n      pop\n      pop\n      pop\n      pop\n      pop\n      dup2\n      mstore\n      0x20\n      add\n      swap1\n      0x01\n      add\n      swap1\n      jump(tag_263)\n    tag_264:\n      pop\n      pop\n      pop\n      pop\n      dup2\n      mstore\n      0x20\n      add\n      0x06\n      dup3\n      add\n      dup1\n      sload\n      tag_271\n      swap1\n      tag_96\n      jump\t// in\n    tag_271:\n      dup1\n      0x1f\n      add\n      0x20\n      dup1\n      swap2\n      div\n      mul\n      0x20\n      add\n      mload(0x40)\n      swap1\n      dup2\n      add\n      0x40\n      mstore\n      dup1\n      swap3\n      swap2\n      swap1\n      dup2\n      dup2\n      mstore\n      0x20\n      add\n      dup3\n      dup1\n      sload\n      tag_272\n      swap1\n      tag_96\n      jump\t// in\n    tag_272:\n      dup1\n      iszero\n      tag_273\n      jumpi\n      dup1\n      0x1f\n      lt\n      tag_274\n      jumpi\n      0x0100\n      dup1\n      dup4\n      sload\n      div\n      mul\n      dup4\n      mstore\n      swap2\n      0x20\n      add\n      swap2\n      jump(tag_273)\n    tag_274:\n      dup3\n      add\n      swap2\n      swap1\n      0x00\n      mstore\n      keccak256(0x00, 0x20)\n      swap1\n    tag_275:\n      dup2\n      sload\n      dup2\n      mstore\n      swap1\n      0x01\n      add\n      swap1\n      0x20\n      add\n      dup1\n      dup4\n      gt\n      tag_275\n      jumpi\n      dup3\n      swap1\n      sub\n      0x1f\n      and\n      dup3\n      add\n      swap2\n    tag_273:\n      pop\n      pop\n      pop\n      pop\n      pop\n      dup2\n      mstore\n      0x20\n      add\n      0x07\n      dup3\n      add\n      dup1\n      sload\n      dup1\n      0x20\n      mul\n      0x20\n      add\n      mload(0x40)\n      swap1\n      dup2\n      add\n      0x40\n      mstore\n      dup1\n      swap3\n      swap2\n      swap1\n      dup2\n      dup2\n      mstore\n      0x20\n      add\n      0x00\n      swap1\n    tag_276:\n      dup3\n      dup3\n      lt\n      iszero\n      tag_277\n      jumpi\n      dup4\n      dup3\n      swap1\n      0x00\n      mstore\n      keccak256(0x00, 0x20)\n      add\n      dup1\n      sload\n      tag_279\n      swap1\n      tag_96\n      jump\t// in\n    tag_279:\n      dup1\n      0x1f\n      add\n      0x20\n      dup1\n      swap2\n      div\n      mul\n      0x20\n      add\n      mload(0x40)\n      swap1\n      dup2\n      add\n      0x40\n      mstore\n      dup1\n      swap3\n      swap2\n      swap1\n      dup2\n      dup2\n      mstore\n      0x20\n      add\n      dup3\n      dup1\n      sload\n      tag_280\n      swap1\n      tag_96\n      jump\t// in\n    tag_280:\n      dup1\n      iszero\n      tag_281\n      jumpi\n      dup1\n      0x1f\n      lt\n      tag_282\n      jumpi\n      0x0100\n      dup1\n      dup4\n      sload\n      div\n      mul\n      dup4\n      mstore\n      swap2\n      0x20\n      add\n      swap2\n      jump(tag_281)\n    tag_282:\n      dup3\n      add\n      swap2\n      swap1\n      0x00\n      mstore\n      keccak256(0x00, 0x20)\n      swap1\n    tag_283:\n      dup2\n      sload\n      dup2\n      mstore\n      swap1\n      0x01\n      add\n      swap1\n      0x20\n      add\n      dup1\n      dup4\n      gt\n      tag_283\n      jumpi\n      dup3\n      swap1\n      sub\n      0x1f\n      and\n      dup3\n      add\n      swap2\n    tag_281:\n      pop\n      pop\n      pop\n      pop\n      pop\n      dup2\n      mstore\n      0x20\n      add\n      swap1\n      0x01\n      add\n      swap1\n      jump(tag_276)\n    tag_277:\n      pop\n      pop\n      pop\n      pop\n      dup2\n      mstore\n      pop\n      pop\n      swap1\n      pop\n      dup7\n      jump\t// out\n        /* \"contracts/pscmbc.sol\":3935:4773  function create_prod (string memory pn, uint pr, uint au, string memory dn, string memory dc, \r... */\n    tag_52:\n        /* \"contracts/pscmbc.sol\":4158:4174  Product memory p */\n      tag_285\n      tag_286\n      jump\t// in\n    tag_285:\n        /* \"contracts/pscmbc.sol\":4215:4216  1 */\n      0x01\n        /* \"contracts/pscmbc.sol\":4197:4205  products */\n      0x00\n        /* \"contracts/pscmbc.sol\":4197:4212  products.length */\n      dup1\n      sload\n      swap1\n      pop\n        /* \"contracts/pscmbc.sol\":4197:4216  products.length + 1 */\n      tag_287\n      swap2\n      swap1\n      tag_288\n      jump\t// in\n    tag_287:\n        /* \"contracts/pscmbc.sol\":4185:4186  p */\n      dup2\n        /* \"contracts/pscmbc.sol\":4185:4194  p.prod_id */\n      0x00\n      add\n        /* \"contracts/pscmbc.sol\":4185:4216  p.prod_id = products.length + 1 */\n      dup2\n      dup2\n      mstore\n      pop\n      pop\n        /* \"contracts/pscmbc.sol\":4240:4250  msg.sender */\n      caller\n        /* \"contracts/pscmbc.sol\":4227:4228  p */\n      dup2\n        /* \"contracts/pscmbc.sol\":4227:4237  p.owner_id */\n      0x20\n      add\n        /* \"contracts/pscmbc.sol\":4227:4250  p.owner_id = msg.sender */\n      swap1\n      0xffffffffffffffffffffffffffffffffffffffff\n      and\n      swap1\n      dup2\n      0xffffffffffffffffffffffffffffffffffffffff\n      and\n      dup2\n      mstore\n      pop\n      pop\n        /* \"contracts/pscmbc.sol\":4275:4277  pn */\n      dup12\n        /* \"contracts/pscmbc.sol\":4261:4262  p */\n      dup2\n        /* \"contracts/pscmbc.sol\":4261:4272  p.prod_name */\n      0x40\n      add\n        /* \"contracts/pscmbc.sol\":4261:4277  p.prod_name = pn */\n      dup2\n      swap1\n      mstore\n      pop\n        /* \"contracts/pscmbc.sol\":4298:4300  pr */\n      dup11\n        /* \"contracts/pscmbc.sol\":4288:4289  p */\n      dup2\n        /* \"contracts/pscmbc.sol\":4288:4295  p.price */\n      0x60\n      add\n        /* \"contracts/pscmbc.sol\":4288:4300  p.price = pr */\n      dup2\n      dup2\n      mstore\n      pop\n      pop\n        /* \"contracts/pscmbc.sol\":4329:4331  au */\n      dup10\n        /* \"contracts/pscmbc.sol\":4311:4312  p */\n      dup2\n        /* \"contracts/pscmbc.sol\":4311:4326  p.avaiableUnits */\n      0x80\n      add\n        /* \"contracts/pscmbc.sol\":4311:4331  p.avaiableUnits = au */\n      dup2\n      dup2\n      mstore\n      pop\n      pop\n        /* \"contracts/pscmbc.sol\":4366:4368  dn */\n      dup9\n        /* \"contracts/pscmbc.sol\":4342:4343  p */\n      dup2\n        /* \"contracts/pscmbc.sol\":4342:4353  p.prod_desc */\n      0xa0\n      add\n      mload\n        /* \"contracts/pscmbc.sol\":4342:4363  p.prod_desc.drug_name */\n      0x00\n      add\n        /* \"contracts/pscmbc.sol\":4342:4368  p.prod_desc.drug_name = dn */\n      dup2\n      swap1\n      mstore\n      pop\n        /* \"contracts/pscmbc.sol\":4404:4406  dc */\n      dup8\n        /* \"contracts/pscmbc.sol\":4379:4380  p */\n      dup2\n        /* \"contracts/pscmbc.sol\":4379:4390  p.prod_desc */\n      0xa0\n      add\n      mload\n        /* \"contracts/pscmbc.sol\":4379:4401  p.prod_desc.drug_class */\n      0x20\n      add\n        /* \"contracts/pscmbc.sol\":4379:4406  p.prod_desc.drug_class = dc */\n      dup2\n      swap1\n      mstore\n      pop\n        /* \"contracts/pscmbc.sol\":4444:4446  st */\n      dup7\n        /* \"contracts/pscmbc.sol\":4417:4418  p */\n      dup2\n        /* \"contracts/pscmbc.sol\":4417:4428  p.prod_desc */\n      0xa0\n      add\n      mload\n        /* \"contracts/pscmbc.sol\":4417:4441  p.prod_desc.storage_temp */\n      0x40\n      add\n        /* \"contracts/pscmbc.sol\":4417:4446  p.prod_desc.storage_temp = st */\n      dup2\n      dup2\n      mstore\n      pop\n      pop\n        /* \"contracts/pscmbc.sol\":4483:4484  i */\n      dup6\n        /* \"contracts/pscmbc.sol\":4457:4458  p */\n      dup2\n        /* \"contracts/pscmbc.sol\":4457:4468  p.prod_desc */\n      0xa0\n      add\n      mload\n        /* \"contracts/pscmbc.sol\":4457:4480  p.prod_desc.ingredients */\n      0x60\n      add\n        /* \"contracts/pscmbc.sol\":4457:4484  p.prod_desc.ingredients = i */\n      dup2\n      swap1\n      mstore\n      pop\n        /* \"contracts/pscmbc.sol\":4518:4520  md */\n      dup5\n        /* \"contracts/pscmbc.sol\":4495:4496  p */\n      dup2\n        /* \"contracts/pscmbc.sol\":4495:4506  p.prod_desc */\n      0xa0\n      add\n      mload\n        /* \"contracts/pscmbc.sol\":4495:4515  p.prod_desc.mfg_date */\n      0x80\n      add\n        /* \"contracts/pscmbc.sol\":4495:4520  p.prod_desc.mfg_date = md */\n      dup2\n      swap1\n      mstore\n      pop\n        /* \"contracts/pscmbc.sol\":4554:4556  ed */\n      dup4\n        /* \"contracts/pscmbc.sol\":4531:4532  p */\n      dup2\n        /* \"contracts/pscmbc.sol\":4531:4542  p.prod_desc */\n      0xa0\n      add\n      mload\n        /* \"contracts/pscmbc.sol\":4531:4551  p.prod_desc.exp_date */\n      0xa0\n      add\n        /* \"contracts/pscmbc.sol\":4531:4556  p.prod_desc.exp_date = ed */\n      dup2\n      swap1\n      mstore\n      pop\n        /* \"contracts/pscmbc.sol\":4590:4592  bn */\n      dup3\n        /* \"contracts/pscmbc.sol\":4567:4568  p */\n      dup2\n        /* \"contracts/pscmbc.sol\":4567:4578  p.prod_desc */\n      0xa0\n      add\n      mload\n        /* \"contracts/pscmbc.sol\":4567:4587  p.prod_desc.batch_no */\n      0xc0\n      add\n        /* \"contracts/pscmbc.sol\":4567:4592  p.prod_desc.batch_no = bn */\n      dup2\n      swap1\n      mstore\n      pop\n        /* \"contracts/pscmbc.sol\":4629:4631  se */\n      dup2\n        /* \"contracts/pscmbc.sol\":4603:4604  p */\n      dup2\n        /* \"contracts/pscmbc.sol\":4603:4614  p.prod_desc */\n      0xa0\n      add\n      mload\n        /* \"contracts/pscmbc.sol\":4603:4626  p.prod_desc.sideEffects */\n      0xe0\n      add\n        /* \"contracts/pscmbc.sol\":4603:4631  p.prod_desc.sideEffects = se */\n      dup2\n      swap1\n      mstore\n      pop\n        /* \"contracts/pscmbc.sol\":4644:4652  products */\n      0x00\n        /* \"contracts/pscmbc.sol\":4658:4659  p */\n      dup2\n        /* \"contracts/pscmbc.sol\":4644:4660  products.push(p) */\n      swap1\n      dup1\n      0x01\n      dup2\n      sload\n      add\n      dup1\n      dup3\n      sstore\n      dup1\n      swap2\n      pop\n      pop\n      0x01\n      swap1\n      sub\n      swap1\n      0x00\n      mstore\n      keccak256(0x00, 0x20)\n      swap1\n      0x0d\n      mul\n      add\n      0x00\n      swap1\n      swap2\n      swap1\n      swap2\n      swap1\n      swap2\n      pop\n      0x00\n      dup3\n      add\n      mload\n      dup2\n      0x00\n      add\n      sstore\n      0x20\n      dup3\n      add\n      mload\n      dup2\n      0x01\n      add\n      exp(0x0100, 0x00)\n      dup2\n      sload\n      dup2\n      0xffffffffffffffffffffffffffffffffffffffff\n      mul\n      not\n      and\n      swap1\n      dup4\n      0xffffffffffffffffffffffffffffffffffffffff\n      and\n      mul\n      or\n      swap1\n      sstore\n      pop\n      0x40\n      dup3\n      add\n      mload\n      dup2\n      0x02\n      add\n      swap1\n      dup1\n      mload\n      swap1\n      0x20\n      add\n      swap1\n      tag_290\n      swap3\n      swap2\n      swap1\n      tag_194\n      jump\t// in\n    tag_290:\n      pop\n      0x60\n      dup3\n      add\n      mload\n      dup2\n      0x03\n      add\n      sstore\n      0x80\n      dup3\n      add\n      mload\n      dup2\n      0x04\n      add\n      sstore\n      0xa0\n      dup3\n      add\n      mload\n      dup2\n      0x05\n      add\n      0x00\n      dup3\n      add\n      mload\n      dup2\n      0x00\n      add\n      swap1\n      dup1\n      mload\n      swap1\n      0x20\n      add\n      swap1\n      tag_291\n      swap3\n      swap2\n      swap1\n      tag_194\n      jump\t// in\n    tag_291:\n      pop\n      0x20\n      dup3\n      add\n      mload\n      dup2\n      0x01\n      add\n      swap1\n      dup1\n      mload\n      swap1\n      0x20\n      add\n      swap1\n      tag_292\n      swap3\n      swap2\n      swap1\n      tag_194\n      jump\t// in\n    tag_292:\n      pop\n      0x40\n      dup3\n      add\n      mload\n      dup2\n      0x02\n      add\n      sstore\n      0x60\n      dup3\n      add\n      mload\n      dup2\n      0x03\n      add\n      swap1\n      dup1\n      mload\n      swap1\n      0x20\n      add\n      swap1\n      tag_293\n      swap3\n      swap2\n      swap1\n      tag_294\n      jump\t// in\n    tag_293:\n      pop\n      0x80\n      dup3\n      add\n      mload\n      dup2\n      0x04\n      add\n      swap1\n      dup1\n      mload\n      swap1\n      0x20\n      add\n      swap1\n      tag_295\n      swap3\n      swap2\n      swap1\n      tag_294\n      jump\t// in\n    tag_295:\n      pop\n      0xa0\n      dup3\n      add\n      mload\n      dup2\n      0x05\n      add\n      swap1\n      dup1\n      mload\n      swap1\n      0x20\n      add\n      swap1\n      tag_296\n      swap3\n      swap2\n      swap1\n      tag_294\n      jump\t// in\n    tag_296:\n      pop\n      0xc0\n      dup3\n      add\n      mload\n      dup2\n      0x06\n      add\n      swap1\n      dup1\n      mload\n      swap1\n      0x20\n      add\n      swap1\n      tag_297\n      swap3\n      swap2\n      swap1\n      tag_194\n      jump\t// in\n    tag_297:\n      pop\n      0xe0\n      dup3\n      add\n      mload\n      dup2\n      0x07\n      add\n      swap1\n      dup1\n      mload\n      swap1\n      0x20\n      add\n      swap1\n      tag_298\n      swap3\n      swap2\n      swap1\n      tag_294\n      jump\t// in\n    tag_298:\n      pop\n      pop\n      pop\n      pop\n      pop\n        /* \"contracts/pscmbc.sol\":4676:4765  ProductCreated(p.prod_id, p.owner_id, p.prod_name, p.price, p.avaiableUnits, p.prod_desc) */\n      0xb7638ec6afb0cbba7f8b3557736034abdc74dad72cab8df4feb527ef815c4b1b\n        /* \"contracts/pscmbc.sol\":4691:4692  p */\n      dup2\n        /* \"contracts/pscmbc.sol\":4691:4700  p.prod_id */\n      0x00\n      add\n      mload\n        /* \"contracts/pscmbc.sol\":4702:4703  p */\n      dup3\n        /* \"contracts/pscmbc.sol\":4702:4712  p.owner_id */\n      0x20\n      add\n      mload\n        /* \"contracts/pscmbc.sol\":4714:4715  p */\n      dup4\n        /* \"contracts/pscmbc.sol\":4714:4725  p.prod_name */\n      0x40\n      add\n      mload\n        /* \"contracts/pscmbc.sol\":4727:4728  p */\n      dup5\n        /* \"contracts/pscmbc.sol\":4727:4734  p.price */\n      0x60\n      add\n      mload\n        /* \"contracts/pscmbc.sol\":4736:4737  p */\n      dup6\n        /* \"contracts/pscmbc.sol\":4736:4751  p.avaiableUnits */\n      0x80\n      add\n      mload\n        /* \"contracts/pscmbc.sol\":4753:4754  p */\n      dup7\n        /* \"contracts/pscmbc.sol\":4753:4764  p.prod_desc */\n      0xa0\n      add\n      mload\n        /* \"contracts/pscmbc.sol\":4676:4765  ProductCreated(p.prod_id, p.owner_id, p.prod_name, p.price, p.avaiableUnits, p.prod_desc) */\n      mload(0x40)\n      tag_299\n      swap7\n      swap6\n      swap5\n      swap4\n      swap3\n      swap2\n      swap1\n      tag_48\n      jump\t// in\n    tag_299:\n      mload(0x40)\n      dup1\n      swap2\n      sub\n      swap1\n      log1\n        /* \"contracts/pscmbc.sol\":4147:4773  {\r... */\n      pop\n        /* \"contracts/pscmbc.sol\":3935:4773  function create_prod (string memory pn, uint pr, uint au, string memory dn, string memory dc, \r... */\n      pop\n      pop\n      pop\n      pop\n      pop\n      pop\n      pop\n      pop\n      pop\n      pop\n      pop\n      jump\t// out\n        /* \"contracts/pscmbc.sol\":3328:3607  function transferFund(address _to, uint256 _value) public returns (bool sufficient) {\r... */\n    tag_56:\n        /* \"contracts/pscmbc.sol\":3395:3410  bool sufficient */\n      0x00\n        /* \"contracts/pscmbc.sol\":3452:3458  _value */\n      dup2\n        /* \"contracts/pscmbc.sol\":3426:3448  getBalance(msg.sender) */\n      tag_301\n        /* \"contracts/pscmbc.sol\":3437:3447  msg.sender */\n      caller\n        /* \"contracts/pscmbc.sol\":3426:3436  getBalance */\n      tag_60\n        /* \"contracts/pscmbc.sol\":3426:3448  getBalance(msg.sender) */\n      jump\t// in\n    tag_301:\n        /* \"contracts/pscmbc.sol\":3426:3458  getBalance(msg.sender) >= _value */\n      lt\n        /* \"contracts/pscmbc.sol\":3423:3577  if(getBalance(msg.sender) >= _value){\r... */\n      tag_302\n      jumpi\n        /* \"contracts/pscmbc.sol\":3497:3503  _value */\n      dup2\n        /* \"contracts/pscmbc.sol\":3474:3482  balances */\n      0x02\n        /* \"contracts/pscmbc.sol\":3474:3494  balances[msg.sender] */\n      0x00\n        /* \"contracts/pscmbc.sol\":3483:3493  msg.sender */\n      caller\n        /* \"contracts/pscmbc.sol\":3474:3494  balances[msg.sender] */\n      0xffffffffffffffffffffffffffffffffffffffff\n      and\n      0xffffffffffffffffffffffffffffffffffffffff\n      and\n      dup2\n      mstore\n      0x20\n      add\n      swap1\n      dup2\n      mstore\n      0x20\n      add\n      0x00\n      keccak256\n      0x00\n        /* \"contracts/pscmbc.sol\":3474:3503  balances[msg.sender]-= _value */\n      dup3\n      dup3\n      sload\n      tag_303\n      swap2\n      swap1\n      tag_90\n      jump\t// in\n    tag_303:\n      swap3\n      pop\n      pop\n      dup2\n      swap1\n      sstore\n      pop\n        /* \"contracts/pscmbc.sol\":3533:3539  _value */\n      dup2\n        /* \"contracts/pscmbc.sol\":3518:3526  balances */\n      0x02\n        /* \"contracts/pscmbc.sol\":3518:3531  balances[_to] */\n      0x00\n        /* \"contracts/pscmbc.sol\":3527:3530  _to */\n      dup6\n        /* \"contracts/pscmbc.sol\":3518:3531  balances[_to] */\n      0xffffffffffffffffffffffffffffffffffffffff\n      and\n      0xffffffffffffffffffffffffffffffffffffffff\n      and\n      dup2\n      mstore\n      0x20\n      add\n      swap1\n      dup2\n      mstore\n      0x20\n      add\n      0x00\n      keccak256\n      0x00\n        /* \"contracts/pscmbc.sol\":3518:3539  balances[_to]+=_value */\n      dup3\n      dup3\n      sload\n      tag_304\n      swap2\n      swap1\n      tag_288\n      jump\t// in\n    tag_304:\n      swap3\n      pop\n      pop\n      dup2\n      swap1\n      sstore\n      pop\n        /* \"contracts/pscmbc.sol\":3561:3565  true */\n      0x01\n        /* \"contracts/pscmbc.sol\":3554:3565  return true */\n      swap1\n      pop\n      jump(tag_300)\n        /* \"contracts/pscmbc.sol\":3423:3577  if(getBalance(msg.sender) >= _value){\r... */\n    tag_302:\n        /* \"contracts/pscmbc.sol\":3594:3599  false */\n      0x00\n        /* \"contracts/pscmbc.sol\":3587:3599  return false */\n      swap1\n      pop\n        /* \"contracts/pscmbc.sol\":3328:3607  function transferFund(address _to, uint256 _value) public returns (bool sufficient) {\r... */\n    tag_300:\n      swap3\n      swap2\n      pop\n      pop\n      jump\t// out\n        /* \"contracts/pscmbc.sol\":3615:3712  function getBalance(address add) public view returns(uint){\r... */\n    tag_60:\n        /* \"contracts/pscmbc.sol\":3668:3672  uint */\n      0x00\n        /* \"contracts/pscmbc.sol\":3691:3699  balances */\n      0x02\n        /* \"contracts/pscmbc.sol\":3691:3704  balances[add] */\n      0x00\n        /* \"contracts/pscmbc.sol\":3700:3703  add */\n      dup4\n        /* \"contracts/pscmbc.sol\":3691:3704  balances[add] */\n      0xffffffffffffffffffffffffffffffffffffffff\n      and\n      0xffffffffffffffffffffffffffffffffffffffff\n      and\n      dup2\n      mstore\n      0x20\n      add\n      swap1\n      dup2\n      mstore\n      0x20\n      add\n      0x00\n      keccak256\n      sload\n        /* \"contracts/pscmbc.sol\":3684:3704  return balances[add] */\n      swap1\n      pop\n        /* \"contracts/pscmbc.sol\":3615:3712  function getBalance(address add) public view returns(uint){\r... */\n      swap2\n      swap1\n      pop\n      jump\t// out\n        /* \"contracts/pscmbc.sol\":3720:3819  function getProd(uint x) public view returns(Product memory p){\r... */\n    tag_64:\n        /* \"contracts/pscmbc.sol\":3765:3781  Product memory p */\n      tag_306\n      tag_286\n      jump\t// in\n    tag_306:\n        /* \"contracts/pscmbc.sol\":3800:3808  products */\n      0x00\n        /* \"contracts/pscmbc.sol\":3809:3810  x */\n      dup3\n        /* \"contracts/pscmbc.sol\":3800:3811  products[x] */\n      dup2\n      sload\n      dup2\n      lt\n      tag_308\n      jumpi\n      tag_309\n      tag_73\n      jump\t// in\n    tag_309:\n    tag_308:\n      swap1\n      0x00\n      mstore\n      keccak256(0x00, 0x20)\n      swap1\n      0x0d\n      mul\n      add\n        /* \"contracts/pscmbc.sol\":3793:3811  return products[x] */\n      mload(0x40)\n      dup1\n      0xc0\n      add\n      0x40\n      mstore\n      swap1\n      dup2\n      0x00\n      dup3\n      add\n      sload\n      dup2\n      mstore\n      0x20\n      add\n      0x01\n      dup3\n      add\n      0x00\n      swap1\n      sload\n      swap1\n      0x0100\n      exp\n      swap1\n      div\n      0xffffffffffffffffffffffffffffffffffffffff\n      and\n      0xffffffffffffffffffffffffffffffffffffffff\n      and\n      0xffffffffffffffffffffffffffffffffffffffff\n      and\n      dup2\n      mstore\n      0x20\n      add\n      0x02\n      dup3\n      add\n      dup1\n      sload\n      tag_311\n      swap1\n      tag_96\n      jump\t// in\n    tag_311:\n      dup1\n      0x1f\n      add\n      0x20\n      dup1\n      swap2\n      div\n      mul\n      0x20\n      add\n      mload(0x40)\n      swap1\n      dup2\n      add\n      0x40\n      mstore\n      dup1\n      swap3\n      swap2\n      swap1\n      dup2\n      dup2\n      mstore\n      0x20\n      add\n      dup3\n      dup1\n      sload\n      tag_312\n      swap1\n      tag_96\n      jump\t// in\n    tag_312:\n      dup1\n      iszero\n      tag_313\n      jumpi\n      dup1\n      0x1f\n      lt\n      tag_314\n      jumpi\n      0x0100\n      dup1\n      dup4\n      sload\n      div\n      mul\n      dup4\n      mstore\n      swap2\n      0x20\n      add\n      swap2\n      jump(tag_313)\n    tag_314:\n      dup3\n      add\n      swap2\n      swap1\n      0x00\n      mstore\n      keccak256(0x00, 0x20)\n      swap1\n    tag_315:\n      dup2\n      sload\n      dup2\n      mstore\n      swap1\n      0x01\n      add\n      swap1\n      0x20\n      add\n      dup1\n      dup4\n      gt\n      tag_315\n      jumpi\n      dup3\n      swap1\n      sub\n      0x1f\n      and\n      dup3\n      add\n      swap2\n    tag_313:\n      pop\n      pop\n      pop\n      pop\n      pop\n      dup2\n      mstore\n      0x20\n      add\n      0x03\n      dup3\n      add\n      sload\n      dup2\n      mstore\n      0x20\n      add\n      0x04\n      dup3\n      add\n      sload\n      dup2\n      mstore\n      0x20\n      add\n      0x05\n      dup3\n      add\n      mload(0x40)\n      dup1\n      0x0100\n      add\n      0x40\n      mstore\n      swap1\n      dup2\n      0x00\n      dup3\n      add\n      dup1\n      sload\n      tag_316\n      swap1\n      tag_96\n      jump\t// in\n    tag_316:\n      dup1\n      0x1f\n      add\n      0x20\n      dup1\n      swap2\n      div\n      mul\n      0x20\n      add\n      mload(0x40)\n      swap1\n      dup2\n      add\n      0x40\n      mstore\n      dup1\n      swap3\n      swap2\n      swap1\n      dup2\n      dup2\n      mstore\n      0x20\n      add\n      dup3\n      dup1\n      sload\n      tag_317\n      swap1\n      tag_96\n      jump\t// in\n    tag_317:\n      dup1\n      iszero\n      tag_318\n      jumpi\n      dup1\n      0x1f\n      lt\n      tag_319\n      jumpi\n      0x0100\n      dup1\n      dup4\n      sload\n      div\n      mul\n      dup4\n      mstore\n      swap2\n      0x20\n      add\n      swap2\n      jump(tag_318)\n    tag_319:\n      dup3\n      add\n      swap2\n      swap1\n      0x00\n      mstore\n      keccak256(0x00, 0x20)\n      swap1\n    tag_320:\n      dup2\n      sload\n      dup2\n      mstore\n      swap1\n      0x01\n      add\n      swap1\n      0x20\n      add\n      dup1\n      dup4\n      gt\n      tag_320\n      jumpi\n      dup3\n      swap1\n      sub\n      0x1f\n      and\n      dup3\n      add\n      swap2\n    tag_318:\n      pop\n      pop\n      pop\n      pop\n      pop\n      dup2\n      mstore\n      0x20\n      add\n      0x01\n      dup3\n      add\n      dup1\n      sload\n      tag_321\n      swap1\n      tag_96\n      jump\t// in\n    tag_321:\n      dup1\n      0x1f\n      add\n      0x20\n      dup1\n      swap2\n      div\n      mul\n      0x20\n      add\n      mload(0x40)\n      swap1\n      dup2\n      add\n      0x40\n      mstore\n      dup1\n      swap3\n      swap2\n      swap1\n      dup2\n      dup2\n      mstore\n      0x20\n      add\n      dup3\n      dup1\n      sload\n      tag_322\n      swap1\n      tag_96\n      jump\t// in\n    tag_322:\n      dup1\n      iszero\n      tag_323\n      jumpi\n      dup1\n      0x1f\n      lt\n      tag_324\n      jumpi\n      0x0100\n      dup1\n      dup4\n      sload\n      div\n      mul\n      dup4\n      mstore\n      swap2\n      0x20\n      add\n      swap2\n      jump(tag_323)\n    tag_324:\n      dup3\n      add\n      swap2\n      swap1\n      0x00\n      mstore\n      keccak256(0x00, 0x20)\n      swap1\n    tag_325:\n      dup2\n      sload\n      dup2\n      mstore\n      swap1\n      0x01\n      add\n      swap1\n      0x20\n      add\n      dup1\n      dup4\n      gt\n      tag_325\n      jumpi\n      dup3\n      swap1\n      sub\n      0x1f\n      and\n      dup3\n      add\n      swap2\n    tag_323:\n      pop\n      pop\n      pop\n      pop\n      pop\n      dup2\n      mstore\n      0x20\n      add\n      0x02\n      dup3\n      add\n      sload\n      dup2\n      mstore\n      0x20\n      add\n      0x03\n      dup3\n      add\n      dup1\n      sload\n      dup1\n      0x20\n      mul\n      0x20\n      add\n      mload(0x40)\n      swap1\n      dup2\n      add\n      0x40\n      mstore\n      dup1\n      swap3\n      swap2\n      swap1\n      dup2\n      dup2\n      mstore\n      0x20\n      add\n      0x00\n      swap1\n    tag_326:\n      dup3\n      dup3\n      lt\n      iszero\n      tag_327\n      jumpi\n      dup4\n      dup3\n      swap1\n      0x00\n      mstore\n      keccak256(0x00, 0x20)\n      add\n      dup1\n      sload\n      tag_329\n      swap1\n      tag_96\n      jump\t// in\n    tag_329:\n      dup1\n      0x1f\n      add\n      0x20\n      dup1\n      swap2\n      div\n      mul\n      0x20\n      add\n      mload(0x40)\n      swap1\n      dup2\n      add\n      0x40\n      mstore\n      dup1\n      swap3\n      swap2\n      swap1\n      dup2\n      dup2\n      mstore\n      0x20\n      add\n      dup3\n      dup1\n      sload\n      tag_330\n      swap1\n      tag_96\n      jump\t// in\n    tag_330:\n      dup1\n      iszero\n      tag_331\n      jumpi\n      dup1\n      0x1f\n      lt\n      tag_332\n      jumpi\n      0x0100\n      dup1\n      dup4\n      sload\n      div\n      mul\n      dup4\n      mstore\n      swap2\n      0x20\n      add\n      swap2\n      jump(tag_331)\n    tag_332:\n      dup3\n      add\n      swap2\n      swap1\n      0x00\n      mstore\n      keccak256(0x00, 0x20)\n      swap1\n    tag_333:\n      dup2\n      sload\n      dup2\n      mstore\n      swap1\n      0x01\n      add\n      swap1\n      0x20\n      add\n      dup1\n      dup4\n      gt\n      tag_333\n      jumpi\n      dup3\n      swap1\n      sub\n      0x1f\n      and\n      dup3\n      add\n      swap2\n    tag_331:\n      pop\n      pop\n      pop\n      pop\n      pop\n      dup2\n      mstore\n      0x20\n      add\n      swap1\n      0x01\n      add\n      swap1\n      jump(tag_326)\n    tag_327:\n      pop\n      pop\n      pop\n      pop\n      dup2\n      mstore\n      0x20\n      add\n      0x04\n      dup3\n      add\n      dup1\n      sload\n      dup1\n      0x20\n      mul\n      0x20\n      add\n      mload(0x40)\n      swap1\n      dup2\n      add\n      0x40\n      mstore\n      dup1\n      swap3\n      swap2\n      swap1\n      dup2\n      dup2\n      mstore\n      0x20\n      add\n      0x00\n      swap1\n    tag_334:\n      dup3\n      dup3\n      lt\n      iszero\n      tag_335\n      jumpi\n      dup4\n      dup3\n      swap1\n      0x00\n      mstore\n      keccak256(0x00, 0x20)\n      add\n      dup1\n      sload\n      tag_337\n      swap1\n      tag_96\n      jump\t// in\n    tag_337:\n      dup1\n      0x1f\n      add\n      0x20\n      dup1\n      swap2\n      div\n      mul\n      0x20\n      add\n      mload(0x40)\n      swap1\n      dup2\n      add\n      0x40\n      mstore\n      dup1\n      swap3\n      swap2\n      swap1\n      dup2\n      dup2\n      mstore\n      0x20\n      add\n      dup3\n      dup1\n      sload\n      tag_338\n      swap1\n      tag_96\n      jump\t// in\n    tag_338:\n      dup1\n      iszero\n      tag_339\n      jumpi\n      dup1\n      0x1f\n      lt\n      tag_340\n      jumpi\n      0x0100\n      dup1\n      dup4\n      sload\n      div\n      mul\n      dup4\n      mstore\n      swap2\n      0x20\n      add\n      swap2\n      jump(tag_339)\n    tag_340:\n      dup3\n      add\n      swap2\n      swap1\n      0x00\n      mstore\n      keccak256(0x00, 0x20)\n      swap1\n    tag_341:\n      dup2\n      sload\n      dup2\n      mstore\n      swap1\n      0x01\n      add\n      swap1\n      0x20\n      add\n      dup1\n      dup4\n      gt\n      tag_341\n      jumpi\n      dup3\n      swap1\n      sub\n      0x1f\n      and\n      dup3\n      add\n      swap2\n    tag_339:\n      pop\n      pop\n      pop\n      pop\n      pop\n      dup2\n      mstore\n      0x20\n      add\n      swap1\n      0x01\n      add\n      swap1\n      jump(tag_334)\n    tag_335:\n      pop\n      pop\n      pop\n      pop\n      dup2\n      mstore\n      0x20\n      add\n      0x05\n      dup3\n      add\n      dup1\n      sload\n      dup1\n      0x20\n      mul\n      0x20\n      add\n      mload(0x40)\n      swap1\n      dup2\n      add\n      0x40\n      mstore\n      dup1\n      swap3\n      swap2\n      swap1\n      dup2\n      dup2\n      mstore\n      0x20\n      add\n      0x00\n      swap1\n    tag_342:\n      dup3\n      dup3\n      lt\n      iszero\n      tag_343\n      jumpi\n      dup4\n      dup3\n      swap1\n      0x00\n      mstore\n      keccak256(0x00, 0x20)\n      add\n      dup1\n      sload\n      tag_345\n      swap1\n      tag_96\n      jump\t// in\n    tag_345:\n      dup1\n      0x1f\n      add\n      0x20\n      dup1\n      swap2\n      div\n      mul\n      0x20\n      add\n      mload(0x40)\n      swap1\n      dup2\n      add\n      0x40\n      mstore\n      dup1\n      swap3\n      swap2\n      swap1\n      dup2\n      dup2\n      mstore\n      0x20\n      add\n      dup3\n      dup1\n      sload\n      tag_346\n      swap1\n      tag_96\n      jump\t// in\n    tag_346:\n      dup1\n      iszero\n      tag_347\n      jumpi\n      dup1\n      0x1f\n      lt\n      tag_348\n      jumpi\n      0x0100\n      dup1\n      dup4\n      sload\n      div\n      mul\n      dup4\n      mstore\n      swap2\n      0x20\n      add\n      swap2\n      jump(tag_347)\n    tag_348:\n      dup3\n      add\n      swap2\n      swap1\n      0x00\n      mstore\n      keccak256(0x00, 0x20)\n      swap1\n    tag_349:\n      dup2\n      sload\n      dup2\n      mstore\n      swap1\n      0x01\n      add\n      swap1\n      0x20\n      add\n      dup1\n      dup4\n      gt\n      tag_349\n      jumpi\n      dup3\n      swap1\n      sub\n      0x1f\n      and\n      dup3\n      add\n      swap2\n    tag_347:\n      pop\n      pop\n      pop\n      pop\n      pop\n      dup2\n      mstore\n      0x20\n      add\n      swap1\n      0x01\n      add\n      swap1\n      jump(tag_342)\n    tag_343:\n      pop\n      pop\n      pop\n      pop\n      dup2\n      mstore\n      0x20\n      add\n      0x06\n      dup3\n      add\n      dup1\n      sload\n      tag_350\n      swap1\n      tag_96\n      jump\t// in\n    tag_350:\n      dup1\n      0x1f\n      add\n      0x20\n      dup1\n      swap2\n      div\n      mul\n      0x20\n      add\n      mload(0x40)\n      swap1\n      dup2\n      add\n      0x40\n      mstore\n      dup1\n      swap3\n      swap2\n      swap1\n      dup2\n      dup2\n      mstore\n      0x20\n      add\n      dup3\n      dup1\n      sload\n      tag_351\n      swap1\n      tag_96\n      jump\t// in\n    tag_351:\n      dup1\n      iszero\n      tag_352\n      jumpi\n      dup1\n      0x1f\n      lt\n      tag_353\n      jumpi\n      0x0100\n      dup1\n      dup4\n      sload\n      div\n      mul\n      dup4\n      mstore\n      swap2\n      0x20\n      add\n      swap2\n      jump(tag_352)\n    tag_353:\n      dup3\n      add\n      swap2\n      swap1\n      0x00\n      mstore\n      keccak256(0x00, 0x20)\n      swap1\n    tag_354:\n      dup2\n      sload\n      dup2\n      mstore\n      swap1\n      0x01\n      add\n      swap1\n      0x20\n      add\n      dup1\n      dup4\n      gt\n      tag_354\n      jumpi\n      dup3\n      swap1\n      sub\n      0x1f\n      and\n      dup3\n      add\n      swap2\n    tag_352:\n      pop\n      pop\n      pop\n      pop\n      pop\n      dup2\n      mstore\n      0x20\n      add\n      0x07\n      dup3\n      add\n      dup1\n      sload\n      dup1\n      0x20\n      mul\n      0x20\n      add\n      mload(0x40)\n      swap1\n      dup2\n      add\n      0x40\n      mstore\n      dup1\n      swap3\n      swap2\n      swap1\n      dup2\n      dup2\n      mstore\n      0x20\n      add\n      0x00\n      swap1\n    tag_355:\n      dup3\n      dup3\n      lt\n      iszero\n      tag_356\n      jumpi\n      dup4\n      dup3\n      swap1\n      0x00\n      mstore\n      keccak256(0x00, 0x20)\n      add\n      dup1\n      sload\n      tag_358\n      swap1\n      tag_96\n      jump\t// in\n    tag_358:\n      dup1\n      0x1f\n      add\n      0x20\n      dup1\n      swap2\n      div\n      mul\n      0x20\n      add\n      mload(0x40)\n      swap1\n      dup2\n      add\n      0x40\n      mstore\n      dup1\n      swap3\n      swap2\n      swap1\n      dup2\n      dup2\n      mstore\n      0x20\n      add\n      dup3\n      dup1\n      sload\n      tag_359\n      swap1\n      tag_96\n      jump\t// in\n    tag_359:\n      dup1\n      iszero\n      tag_360\n      jumpi\n      dup1\n      0x1f\n      lt\n      tag_361\n      jumpi\n      0x0100\n      dup1\n      dup4\n      sload\n      div\n      mul\n      dup4\n      mstore\n      swap2\n      0x20\n      add\n      swap2\n      jump(tag_360)\n    tag_361:\n      dup3\n      add\n      swap2\n      swap1\n      0x00\n      mstore\n      keccak256(0x00, 0x20)\n      swap1\n    tag_362:\n      dup2\n      sload\n      dup2\n      mstore\n      swap1\n      0x01\n      add\n      swap1\n      0x20\n      add\n      dup1\n      dup4\n      gt\n      tag_362\n      jumpi\n      dup3\n      swap1\n      sub\n      0x1f\n      and\n      dup3\n      add\n      swap2\n    tag_360:\n      pop\n      pop\n      pop\n      pop\n      pop\n      dup2\n      mstore\n      0x20\n      add\n      swap1\n      0x01\n      add\n      swap1\n      jump(tag_355)\n    tag_356:\n      pop\n      pop\n      pop\n      pop\n      dup2\n      mstore\n      pop\n      pop\n      dup2\n      mstore\n      pop\n      pop\n      swap1\n      pop\n        /* \"contracts/pscmbc.sol\":3720:3819  function getProd(uint x) public view returns(Product memory p){\r... */\n      swap2\n      swap1\n      pop\n      jump\t// out\n    tag_182:\n      mload(0x40)\n      dup1\n      0x0100\n      add\n      0x40\n      mstore\n      dup1\n      and(0xffffffffffffffffffffffffffffffffffffffff, 0x00)\n      dup2\n      mstore\n      0x20\n      add\n      0x60\n      dup2\n      mstore\n      0x20\n      add\n      0x60\n      dup2\n      mstore\n      0x20\n      add\n      0x60\n      dup2\n      mstore\n      0x20\n      add\n      0x60\n      dup2\n      mstore\n      0x20\n      add\n      0x00\n      dup2\n      mstore\n      0x20\n      add\n      tag_363\n      tag_364\n      jump\t// in\n    tag_363:\n      dup2\n      mstore\n      0x20\n      add\n      0x60\n      dup2\n      mstore\n      pop\n      swap1\n      jump\t// out\n    tag_194:\n      dup3\n      dup1\n      sload\n      tag_365\n      swap1\n      tag_96\n      jump\t// in\n    tag_365:\n      swap1\n      0x00\n      mstore\n      keccak256(0x00, 0x20)\n      swap1\n      0x1f\n      add\n      0x20\n      swap1\n      div\n      dup2\n      add\n      swap3\n      dup3\n      tag_367\n      jumpi\n      0x00\n      dup6\n      sstore\n      jump(tag_366)\n    tag_367:\n      dup3\n      0x1f\n      lt\n      tag_368\n      jumpi\n      dup1\n      mload\n      not(0xff)\n      and\n      dup4\n      dup1\n      add\n      or\n      dup6\n      sstore\n      jump(tag_366)\n    tag_368:\n      dup3\n      dup1\n      add\n      0x01\n      add\n      dup6\n      sstore\n      dup3\n      iszero\n      tag_366\n      jumpi\n      swap2\n      dup3\n      add\n    tag_369:\n      dup3\n      dup2\n      gt\n      iszero\n      tag_370\n      jumpi\n      dup3\n      mload\n      dup3\n      sstore\n      swap2\n      0x20\n      add\n      swap2\n      swap1\n      0x01\n      add\n      swap1\n      jump(tag_369)\n    tag_370:\n    tag_366:\n      pop\n      swap1\n      pop\n      tag_371\n      swap2\n      swap1\n      tag_372\n      jump\t// in\n    tag_371:\n      pop\n      swap1\n      jump\t// out\n    tag_199:\n      dup3\n      0x0c\n      dup2\n      add\n      swap3\n      dup3\n      iszero\n      tag_373\n      jumpi\n      swap2\n      0x20\n      mul\n      dup3\n      add\n    tag_374:\n      dup3\n      dup2\n      gt\n      iszero\n      tag_375\n      jumpi\n      dup3\n      mload\n      dup3\n      sstore\n      swap2\n      0x20\n      add\n      swap2\n      swap1\n      0x01\n      add\n      swap1\n      jump(tag_374)\n    tag_375:\n    tag_373:\n      pop\n      swap1\n      pop\n      tag_376\n      swap2\n      swap1\n      tag_372\n      jump\t// in\n    tag_376:\n      pop\n      swap1\n      jump\t// out\n    tag_286:\n      mload(0x40)\n      dup1\n      0xc0\n      add\n      0x40\n      mstore\n      dup1\n      0x00\n      dup2\n      mstore\n      0x20\n      add\n      and(0xffffffffffffffffffffffffffffffffffffffff, 0x00)\n      dup2\n      mstore\n      0x20\n      add\n      0x60\n      dup2\n      mstore\n      0x20\n      add\n      0x00\n      dup2\n      mstore\n      0x20\n      add\n      0x00\n      dup2\n      mstore\n      0x20\n      add\n      tag_377\n      tag_378\n      jump\t// in\n    tag_377:\n      dup2\n      mstore\n      pop\n      swap1\n      jump\t// out\n    tag_294:\n      dup3\n      dup1\n      sload\n      dup3\n      dup3\n      sstore\n      swap1\n      0x00\n      mstore\n      keccak256(0x00, 0x20)\n      swap1\n      dup2\n      add\n      swap3\n      dup3\n      iszero\n      tag_379\n      jumpi\n      swap2\n      0x20\n      mul\n      dup3\n      add\n    tag_380:\n      dup3\n      dup2\n      gt\n      iszero\n      tag_381\n      jumpi\n      dup3\n      mload\n      dup3\n      swap1\n      dup1\n      mload\n      swap1\n      0x20\n      add\n      swap1\n      tag_382\n      swap3\n      swap2\n      swap1\n      tag_194\n      jump\t// in\n    tag_382:\n      pop\n      swap2\n      0x20\n      add\n      swap2\n      swap1\n      0x01\n      add\n      swap1\n      jump(tag_380)\n    tag_381:\n    tag_379:\n      pop\n      swap1\n      pop\n      tag_383\n      swap2\n      swap1\n      tag_384\n      jump\t// in\n    tag_383:\n      pop\n      swap1\n      jump\t// out\n    tag_364:\n      mload(0x40)\n      dup1\n      0x0180\n      add\n      0x40\n      mstore\n      dup1\n      0x0c\n      swap1\n      0x20\n      dup3\n      mul\n      dup1\n      calldatasize\n      dup4\n      calldatacopy\n      dup1\n      dup3\n      add\n      swap2\n      pop\n      pop\n      swap1\n      pop\n      pop\n      swap1\n      jump\t// out\n    tag_372:\n    tag_385:\n      dup1\n      dup3\n      gt\n      iszero\n      tag_386\n      jumpi\n      0x00\n      dup2\n      0x00\n      swap1\n      sstore\n      pop\n      0x01\n      add\n      jump(tag_385)\n    tag_386:\n      pop\n      swap1\n      jump\t// out\n    tag_378:\n      mload(0x40)\n      dup1\n      0x0100\n      add\n      0x40\n      mstore\n      dup1\n      0x60\n      dup2\n      mstore\n      0x20\n      add\n      0x60\n      dup2\n      mstore\n      0x20\n      add\n      0x00\n      dup2\n      mstore\n      0x20\n      add\n      0x60\n      dup2\n      mstore\n      0x20\n      add\n      0x60\n      dup2\n      mstore\n      0x20\n      add\n      0x60\n      dup2\n      mstore\n      0x20\n      add\n      0x60\n      dup2\n      mstore\n      0x20\n      add\n      0x60\n      dup2\n      mstore\n      pop\n      swap1\n      jump\t// out\n    tag_384:\n    tag_387:\n      dup1\n      dup3\n      gt\n      iszero\n      tag_388\n      jumpi\n      0x00\n      dup2\n      dup2\n      tag_389\n      swap2\n      swap1\n      tag_390\n      jump\t// in\n    tag_389:\n      pop\n      0x01\n      add\n      jump(tag_387)\n    tag_388:\n      pop\n      swap1\n      jump\t// out\n    tag_390:\n      pop\n      dup1\n      sload\n      tag_391\n      swap1\n      tag_96\n      jump\t// in\n    tag_391:\n      0x00\n      dup3\n      sstore\n      dup1\n      0x1f\n      lt\n      tag_393\n      jumpi\n      pop\n      jump(tag_392)\n    tag_393:\n      0x1f\n      add\n      0x20\n      swap1\n      div\n      swap1\n      0x00\n      mstore\n      keccak256(0x00, 0x20)\n      swap1\n      dup2\n      add\n      swap1\n      tag_394\n      swap2\n      swap1\n      tag_372\n      jump\t// in\n    tag_394:\n    tag_392:\n      pop\n      jump\t// out\n        /* \"#utility.yul\":23:980   */\n    tag_396:\n        /* \"#utility.yul\":129:134   */\n      0x00\n        /* \"#utility.yul\":154:245   */\n      tag_398\n        /* \"#utility.yul\":170:244   */\n      tag_399\n        /* \"#utility.yul\":237:243   */\n      dup5\n        /* \"#utility.yul\":170:244   */\n      tag_400\n      jump\t// in\n    tag_399:\n        /* \"#utility.yul\":154:245   */\n      tag_401\n      jump\t// in\n    tag_398:\n        /* \"#utility.yul\":145:245   */\n      swap1\n      pop\n        /* \"#utility.yul\":265:270   */\n      dup1\n        /* \"#utility.yul\":294:300   */\n      dup4\n        /* \"#utility.yul\":287:292   */\n      dup3\n        /* \"#utility.yul\":280:301   */\n      mstore\n        /* \"#utility.yul\":328:332   */\n      0x20\n        /* \"#utility.yul\":321:326   */\n      dup3\n        /* \"#utility.yul\":317:333   */\n      add\n        /* \"#utility.yul\":310:333   */\n      swap1\n      pop\n        /* \"#utility.yul\":354:360   */\n      dup3\n        /* \"#utility.yul\":404:407   */\n      dup6\n        /* \"#utility.yul\":396:400   */\n      0x20\n        /* \"#utility.yul\":388:394   */\n      dup7\n        /* \"#utility.yul\":384:401   */\n      mul\n        /* \"#utility.yul\":379:382   */\n      dup3\n        /* \"#utility.yul\":375:402   */\n      add\n        /* \"#utility.yul\":372:408   */\n      gt\n        /* \"#utility.yul\":369:512   */\n      iszero\n      tag_402\n      jumpi\n        /* \"#utility.yul\":423:502   */\n      tag_403\n      tag_404\n      jump\t// in\n    tag_403:\n        /* \"#utility.yul\":369:512   */\n    tag_402:\n        /* \"#utility.yul\":536:537   */\n      0x00\n        /* \"#utility.yul\":521:974   */\n    tag_405:\n        /* \"#utility.yul\":546:552   */\n      dup6\n        /* \"#utility.yul\":543:544   */\n      dup2\n        /* \"#utility.yul\":540:553   */\n      lt\n        /* \"#utility.yul\":521:974   */\n      iszero\n      tag_407\n      jumpi\n        /* \"#utility.yul\":628:631   */\n      dup2\n        /* \"#utility.yul\":615:632   */\n      calldataload\n        /* \"#utility.yul\":664:682   */\n      0xffffffffffffffff\n        /* \"#utility.yul\":651:662   */\n      dup2\n        /* \"#utility.yul\":648:683   */\n      gt\n        /* \"#utility.yul\":645:767   */\n      iszero\n      tag_408\n      jumpi\n        /* \"#utility.yul\":686:765   */\n      tag_409\n      tag_410\n      jump\t// in\n    tag_409:\n        /* \"#utility.yul\":645:767   */\n    tag_408:\n        /* \"#utility.yul\":810:821   */\n      dup1\n        /* \"#utility.yul\":802:808   */\n      dup7\n        /* \"#utility.yul\":798:822   */\n      add\n        /* \"#utility.yul\":848:895   */\n      tag_411\n        /* \"#utility.yul\":891:894   */\n      dup10\n        /* \"#utility.yul\":879:889   */\n      dup3\n        /* \"#utility.yul\":848:895   */\n      tag_412\n      jump\t// in\n    tag_411:\n        /* \"#utility.yul\":843:846   */\n      dup6\n        /* \"#utility.yul\":836:896   */\n      mstore\n        /* \"#utility.yul\":925:929   */\n      0x20\n        /* \"#utility.yul\":920:923   */\n      dup6\n        /* \"#utility.yul\":916:930   */\n      add\n        /* \"#utility.yul\":909:930   */\n      swap5\n      pop\n        /* \"#utility.yul\":959:963   */\n      0x20\n        /* \"#utility.yul\":954:957   */\n      dup5\n        /* \"#utility.yul\":950:964   */\n      add\n        /* \"#utility.yul\":943:964   */\n      swap4\n      pop\n        /* \"#utility.yul\":581:974   */\n      pop\n      pop\n        /* \"#utility.yul\":568:569   */\n      0x01\n        /* \"#utility.yul\":565:566   */\n      dup2\n        /* \"#utility.yul\":561:570   */\n      add\n        /* \"#utility.yul\":556:570   */\n      swap1\n      pop\n        /* \"#utility.yul\":521:974   */\n      jump(tag_405)\n    tag_407:\n        /* \"#utility.yul\":525:539   */\n      pop\n        /* \"#utility.yul\":135:980   */\n      pop\n      pop\n        /* \"#utility.yul\":23:980   */\n      swap4\n      swap3\n      pop\n      pop\n      pop\n      jump\t// out\n        /* \"#utility.yul\":1005:1662   */\n    tag_413:\n        /* \"#utility.yul\":1100:1105   */\n      0x00\n        /* \"#utility.yul\":1125:1205   */\n      tag_415\n        /* \"#utility.yul\":1141:1204   */\n      tag_416\n        /* \"#utility.yul\":1197:1203   */\n      dup5\n        /* \"#utility.yul\":1141:1204   */\n      tag_417\n      jump\t// in\n    tag_416:\n        /* \"#utility.yul\":1125:1205   */\n      tag_401\n      jump\t// in\n    tag_415:\n        /* \"#utility.yul\":1116:1205   */\n      swap1\n      pop\n        /* \"#utility.yul\":1225:1230   */\n      dup1\n        /* \"#utility.yul\":1251:1257   */\n      dup3\n        /* \"#utility.yul\":1301:1304   */\n      dup6\n        /* \"#utility.yul\":1293:1297   */\n      0x20\n        /* \"#utility.yul\":1285:1291   */\n      dup7\n        /* \"#utility.yul\":1281:1298   */\n      mul\n        /* \"#utility.yul\":1276:1279   */\n      dup3\n        /* \"#utility.yul\":1272:1299   */\n      add\n        /* \"#utility.yul\":1269:1305   */\n      gt\n        /* \"#utility.yul\":1266:1409   */\n      iszero\n      tag_418\n      jumpi\n        /* \"#utility.yul\":1320:1399   */\n      tag_419\n      tag_404\n      jump\t// in\n    tag_419:\n        /* \"#utility.yul\":1266:1409   */\n    tag_418:\n        /* \"#utility.yul\":1433:1434   */\n      0x00\n        /* \"#utility.yul\":1418:1656   */\n    tag_420:\n        /* \"#utility.yul\":1443:1449   */\n      dup6\n        /* \"#utility.yul\":1440:1441   */\n      dup2\n        /* \"#utility.yul\":1437:1450   */\n      lt\n        /* \"#utility.yul\":1418:1656   */\n      iszero\n      tag_422\n      jumpi\n        /* \"#utility.yul\":1511:1514   */\n      dup2\n        /* \"#utility.yul\":1540:1577   */\n      tag_423\n        /* \"#utility.yul\":1573:1576   */\n      dup9\n        /* \"#utility.yul\":1561:1571   */\n      dup3\n        /* \"#utility.yul\":1540:1577   */\n      tag_424\n      jump\t// in\n    tag_423:\n        /* \"#utility.yul\":1535:1538   */\n      dup5\n        /* \"#utility.yul\":1528:1578   */\n      mstore\n        /* \"#utility.yul\":1607:1611   */\n      0x20\n        /* \"#utility.yul\":1602:1605   */\n      dup5\n        /* \"#utility.yul\":1598:1612   */\n      add\n        /* \"#utility.yul\":1591:1612   */\n      swap4\n      pop\n        /* \"#utility.yul\":1641:1645   */\n      0x20\n        /* \"#utility.yul\":1636:1639   */\n      dup4\n        /* \"#utility.yul\":1632:1646   */\n      add\n        /* \"#utility.yul\":1625:1646   */\n      swap3\n      pop\n        /* \"#utility.yul\":1478:1656   */\n      pop\n        /* \"#utility.yul\":1465:1466   */\n      0x01\n        /* \"#utility.yul\":1462:1463   */\n      dup2\n        /* \"#utility.yul\":1458:1467   */\n      add\n        /* \"#utility.yul\":1453:1467   */\n      swap1\n      pop\n        /* \"#utility.yul\":1418:1656   */\n      jump(tag_420)\n    tag_422:\n        /* \"#utility.yul\":1422:1436   */\n      pop\n        /* \"#utility.yul\":1106:1662   */\n      pop\n      pop\n        /* \"#utility.yul\":1005:1662   */\n      swap4\n      swap3\n      pop\n      pop\n      pop\n      jump\t// out\n        /* \"#utility.yul\":1668:2080   */\n    tag_425:\n        /* \"#utility.yul\":1746:1751   */\n      0x00\n        /* \"#utility.yul\":1771:1837   */\n      tag_427\n        /* \"#utility.yul\":1787:1836   */\n      tag_428\n        /* \"#utility.yul\":1829:1835   */\n      dup5\n        /* \"#utility.yul\":1787:1836   */\n      tag_429\n      jump\t// in\n    tag_428:\n        /* \"#utility.yul\":1771:1837   */\n      tag_401\n      jump\t// in\n    tag_427:\n        /* \"#utility.yul\":1762:1837   */\n      swap1\n      pop\n        /* \"#utility.yul\":1860:1866   */\n      dup3\n        /* \"#utility.yul\":1853:1858   */\n      dup2\n        /* \"#utility.yul\":1846:1867   */\n      mstore\n        /* \"#utility.yul\":1898:1902   */\n      0x20\n        /* \"#utility.yul\":1891:1896   */\n      dup2\n        /* \"#utility.yul\":1887:1903   */\n      add\n        /* \"#utility.yul\":1936:1939   */\n      dup5\n        /* \"#utility.yul\":1927:1933   */\n      dup5\n        /* \"#utility.yul\":1922:1925   */\n      dup5\n        /* \"#utility.yul\":1918:1934   */\n      add\n        /* \"#utility.yul\":1915:1940   */\n      gt\n        /* \"#utility.yul\":1912:2024   */\n      iszero\n      tag_430\n      jumpi\n        /* \"#utility.yul\":1943:2022   */\n      tag_431\n      tag_432\n      jump\t// in\n    tag_431:\n        /* \"#utility.yul\":1912:2024   */\n    tag_430:\n        /* \"#utility.yul\":2033:2074   */\n      tag_433\n        /* \"#utility.yul\":2067:2073   */\n      dup5\n        /* \"#utility.yul\":2062:2065   */\n      dup3\n        /* \"#utility.yul\":2057:2060   */\n      dup6\n        /* \"#utility.yul\":2033:2074   */\n      tag_434\n      jump\t// in\n    tag_433:\n        /* \"#utility.yul\":1752:2080   */\n      pop\n        /* \"#utility.yul\":1668:2080   */\n      swap4\n      swap3\n      pop\n      pop\n      pop\n      jump\t// out\n        /* \"#utility.yul\":2086:2225   */\n    tag_435:\n        /* \"#utility.yul\":2132:2137   */\n      0x00\n        /* \"#utility.yul\":2170:2176   */\n      dup2\n        /* \"#utility.yul\":2157:2177   */\n      calldataload\n        /* \"#utility.yul\":2148:2177   */\n      swap1\n      pop\n        /* \"#utility.yul\":2186:2219   */\n      tag_437\n        /* \"#utility.yul\":2213:2218   */\n      dup2\n        /* \"#utility.yul\":2186:2219   */\n      tag_438\n      jump\t// in\n    tag_437:\n        /* \"#utility.yul\":2086:2225   */\n      swap3\n      swap2\n      pop\n      pop\n      jump\t// out\n        /* \"#utility.yul\":2247:2637   */\n    tag_439:\n        /* \"#utility.yul\":2328:2333   */\n      0x00\n        /* \"#utility.yul\":2377:2380   */\n      dup3\n        /* \"#utility.yul\":2370:2374   */\n      0x1f\n        /* \"#utility.yul\":2362:2368   */\n      dup4\n        /* \"#utility.yul\":2358:2375   */\n      add\n        /* \"#utility.yul\":2354:2381   */\n      slt\n        /* \"#utility.yul\":2344:2466   */\n      tag_441\n      jumpi\n        /* \"#utility.yul\":2385:2464   */\n      tag_442\n      tag_410\n      jump\t// in\n    tag_442:\n        /* \"#utility.yul\":2344:2466   */\n    tag_441:\n        /* \"#utility.yul\":2502:2508   */\n      dup2\n        /* \"#utility.yul\":2489:2509   */\n      calldataload\n        /* \"#utility.yul\":2527:2631   */\n      tag_443\n        /* \"#utility.yul\":2627:2630   */\n      dup5\n        /* \"#utility.yul\":2619:2625   */\n      dup3\n        /* \"#utility.yul\":2612:2616   */\n      0x20\n        /* \"#utility.yul\":2604:2610   */\n      dup7\n        /* \"#utility.yul\":2600:2617   */\n      add\n        /* \"#utility.yul\":2527:2631   */\n      tag_396\n      jump\t// in\n    tag_443:\n        /* \"#utility.yul\":2518:2631   */\n      swap2\n      pop\n        /* \"#utility.yul\":2334:2637   */\n      pop\n        /* \"#utility.yul\":2247:2637   */\n      swap3\n      swap2\n      pop\n      pop\n      jump\t// out\n        /* \"#utility.yul\":2662:3003   */\n    tag_444:\n        /* \"#utility.yul\":2732:2737   */\n      0x00\n        /* \"#utility.yul\":2781:2784   */\n      dup3\n        /* \"#utility.yul\":2774:2778   */\n      0x1f\n        /* \"#utility.yul\":2766:2772   */\n      dup4\n        /* \"#utility.yul\":2762:2779   */\n      add\n        /* \"#utility.yul\":2758:2785   */\n      slt\n        /* \"#utility.yul\":2748:2870   */\n      tag_446\n      jumpi\n        /* \"#utility.yul\":2789:2868   */\n      tag_447\n      tag_410\n      jump\t// in\n    tag_447:\n        /* \"#utility.yul\":2748:2870   */\n    tag_446:\n        /* \"#utility.yul\":2893:2897   */\n      0x0c\n        /* \"#utility.yul\":2915:2997   */\n      tag_448\n        /* \"#utility.yul\":2993:2996   */\n      dup5\n        /* \"#utility.yul\":2985:2991   */\n      dup3\n        /* \"#utility.yul\":2977:2983   */\n      dup6\n        /* \"#utility.yul\":2915:2997   */\n      tag_413\n      jump\t// in\n    tag_448:\n        /* \"#utility.yul\":2906:2997   */\n      swap2\n      pop\n        /* \"#utility.yul\":2738:3003   */\n      pop\n        /* \"#utility.yul\":2662:3003   */\n      swap3\n      swap2\n      pop\n      pop\n      jump\t// out\n        /* \"#utility.yul\":3009:3146   */\n    tag_449:\n        /* \"#utility.yul\":3054:3059   */\n      0x00\n        /* \"#utility.yul\":3092:3098   */\n      dup2\n        /* \"#utility.yul\":3079:3099   */\n      calldataload\n        /* \"#utility.yul\":3070:3099   */\n      swap1\n      pop\n        /* \"#utility.yul\":3108:3140   */\n      tag_451\n        /* \"#utility.yul\":3134:3139   */\n      dup2\n        /* \"#utility.yul\":3108:3140   */\n      tag_452\n      jump\t// in\n    tag_451:\n        /* \"#utility.yul\":3009:3146   */\n      swap3\n      swap2\n      pop\n      pop\n      jump\t// out\n        /* \"#utility.yul\":3166:3506   */\n    tag_412:\n        /* \"#utility.yul\":3222:3227   */\n      0x00\n        /* \"#utility.yul\":3271:3274   */\n      dup3\n        /* \"#utility.yul\":3264:3268   */\n      0x1f\n        /* \"#utility.yul\":3256:3262   */\n      dup4\n        /* \"#utility.yul\":3252:3269   */\n      add\n        /* \"#utility.yul\":3248:3275   */\n      slt\n        /* \"#utility.yul\":3238:3360   */\n      tag_454\n      jumpi\n        /* \"#utility.yul\":3279:3358   */\n      tag_455\n      tag_410\n      jump\t// in\n    tag_455:\n        /* \"#utility.yul\":3238:3360   */\n    tag_454:\n        /* \"#utility.yul\":3396:3402   */\n      dup2\n        /* \"#utility.yul\":3383:3403   */\n      calldataload\n        /* \"#utility.yul\":3421:3500   */\n      tag_456\n        /* \"#utility.yul\":3496:3499   */\n      dup5\n        /* \"#utility.yul\":3488:3494   */\n      dup3\n        /* \"#utility.yul\":3481:3485   */\n      0x20\n        /* \"#utility.yul\":3473:3479   */\n      dup7\n        /* \"#utility.yul\":3469:3486   */\n      add\n        /* \"#utility.yul\":3421:3500   */\n      tag_425\n      jump\t// in\n    tag_456:\n        /* \"#utility.yul\":3412:3500   */\n      swap2\n      pop\n        /* \"#utility.yul\":3228:3506   */\n      pop\n        /* \"#utility.yul\":3166:3506   */\n      swap3\n      swap2\n      pop\n      pop\n      jump\t// out\n        /* \"#utility.yul\":3512:3651   */\n    tag_424:\n        /* \"#utility.yul\":3558:3563   */\n      0x00\n        /* \"#utility.yul\":3596:3602   */\n      dup2\n        /* \"#utility.yul\":3583:3603   */\n      calldataload\n        /* \"#utility.yul\":3574:3603   */\n      swap1\n      pop\n        /* \"#utility.yul\":3612:3645   */\n      tag_458\n        /* \"#utility.yul\":3639:3644   */\n      dup2\n        /* \"#utility.yul\":3612:3645   */\n      tag_459\n      jump\t// in\n    tag_458:\n        /* \"#utility.yul\":3512:3651   */\n      swap3\n      swap2\n      pop\n      pop\n      jump\t// out\n        /* \"#utility.yul\":3657:3986   */\n    tag_17:\n        /* \"#utility.yul\":3716:3722   */\n      0x00\n        /* \"#utility.yul\":3765:3767   */\n      0x20\n        /* \"#utility.yul\":3753:3762   */\n      dup3\n        /* \"#utility.yul\":3744:3751   */\n      dup5\n        /* \"#utility.yul\":3740:3763   */\n      sub\n        /* \"#utility.yul\":3736:3768   */\n      slt\n        /* \"#utility.yul\":3733:3852   */\n      iszero\n      tag_461\n      jumpi\n        /* \"#utility.yul\":3771:3850   */\n      tag_462\n      tag_463\n      jump\t// in\n    tag_462:\n        /* \"#utility.yul\":3733:3852   */\n    tag_461:\n        /* \"#utility.yul\":3891:3892   */\n      0x00\n        /* \"#utility.yul\":3916:3969   */\n      tag_464\n        /* \"#utility.yul\":3961:3968   */\n      dup5\n        /* \"#utility.yul\":3952:3958   */\n      dup3\n        /* \"#utility.yul\":3941:3950   */\n      dup6\n        /* \"#utility.yul\":3937:3959   */\n      add\n        /* \"#utility.yul\":3916:3969   */\n      tag_435\n      jump\t// in\n    tag_464:\n        /* \"#utility.yul\":3906:3969   */\n      swap2\n      pop\n        /* \"#utility.yul\":3862:3979   */\n      pop\n        /* \"#utility.yul\":3657:3986   */\n      swap3\n      swap2\n      pop\n      pop\n      jump\t// out\n        /* \"#utility.yul\":3992:4466   */\n    tag_55:\n        /* \"#utility.yul\":4060:4066   */\n      0x00\n        /* \"#utility.yul\":4068:4074   */\n      dup1\n        /* \"#utility.yul\":4117:4119   */\n      0x40\n        /* \"#utility.yul\":4105:4114   */\n      dup4\n        /* \"#utility.yul\":4096:4103   */\n      dup6\n        /* \"#utility.yul\":4092:4115   */\n      sub\n        /* \"#utility.yul\":4088:4120   */\n      slt\n        /* \"#utility.yul\":4085:4204   */\n      iszero\n      tag_466\n      jumpi\n        /* \"#utility.yul\":4123:4202   */\n      tag_467\n      tag_463\n      jump\t// in\n    tag_467:\n        /* \"#utility.yul\":4085:4204   */\n    tag_466:\n        /* \"#utility.yul\":4243:4244   */\n      0x00\n        /* \"#utility.yul\":4268:4321   */\n      tag_468\n        /* \"#utility.yul\":4313:4320   */\n      dup6\n        /* \"#utility.yul\":4304:4310   */\n      dup3\n        /* \"#utility.yul\":4293:4302   */\n      dup7\n        /* \"#utility.yul\":4289:4311   */\n      add\n        /* \"#utility.yul\":4268:4321   */\n      tag_435\n      jump\t// in\n    tag_468:\n        /* \"#utility.yul\":4258:4321   */\n      swap3\n      pop\n        /* \"#utility.yul\":4214:4331   */\n      pop\n        /* \"#utility.yul\":4370:4372   */\n      0x20\n        /* \"#utility.yul\":4396:4449   */\n      tag_469\n        /* \"#utility.yul\":4441:4448   */\n      dup6\n        /* \"#utility.yul\":4432:4438   */\n      dup3\n        /* \"#utility.yul\":4421:4430   */\n      dup7\n        /* \"#utility.yul\":4417:4439   */\n      add\n        /* \"#utility.yul\":4396:4449   */\n      tag_424\n      jump\t// in\n    tag_469:\n        /* \"#utility.yul\":4386:4449   */\n      swap2\n      pop\n        /* \"#utility.yul\":4341:4459   */\n      pop\n        /* \"#utility.yul\":3992:4466   */\n      swap3\n      pop\n      swap3\n      swap1\n      pop\n      jump\t// out\n        /* \"#utility.yul\":4472:6623   */\n    tag_36:\n        /* \"#utility.yul\":4659:4665   */\n      0x00\n        /* \"#utility.yul\":4667:4673   */\n      dup1\n        /* \"#utility.yul\":4675:4681   */\n      0x00\n        /* \"#utility.yul\":4683:4689   */\n      dup1\n        /* \"#utility.yul\":4691:4697   */\n      0x00\n        /* \"#utility.yul\":4699:4705   */\n      dup1\n        /* \"#utility.yul\":4707:4713   */\n      0x00\n        /* \"#utility.yul\":4756:4759   */\n      0x0240\n        /* \"#utility.yul\":4744:4753   */\n      dup9\n        /* \"#utility.yul\":4735:4742   */\n      dup11\n        /* \"#utility.yul\":4731:4754   */\n      sub\n        /* \"#utility.yul\":4727:4760   */\n      slt\n        /* \"#utility.yul\":4724:4844   */\n      iszero\n      tag_471\n      jumpi\n        /* \"#utility.yul\":4763:4842   */\n      tag_472\n      tag_463\n      jump\t// in\n    tag_472:\n        /* \"#utility.yul\":4724:4844   */\n    tag_471:\n        /* \"#utility.yul\":4911:4912   */\n      0x00\n        /* \"#utility.yul\":4900:4909   */\n      dup9\n        /* \"#utility.yul\":4896:4913   */\n      add\n        /* \"#utility.yul\":4883:4914   */\n      calldataload\n        /* \"#utility.yul\":4941:4959   */\n      0xffffffffffffffff\n        /* \"#utility.yul\":4933:4939   */\n      dup2\n        /* \"#utility.yul\":4930:4960   */\n      gt\n        /* \"#utility.yul\":4927:5044   */\n      iszero\n      tag_473\n      jumpi\n        /* \"#utility.yul\":4963:5042   */\n      tag_474\n      tag_475\n      jump\t// in\n    tag_474:\n        /* \"#utility.yul\":4927:5044   */\n    tag_473:\n        /* \"#utility.yul\":5068:5131   */\n      tag_476\n        /* \"#utility.yul\":5123:5130   */\n      dup11\n        /* \"#utility.yul\":5114:5120   */\n      dup3\n        /* \"#utility.yul\":5103:5112   */\n      dup12\n        /* \"#utility.yul\":5099:5121   */\n      add\n        /* \"#utility.yul\":5068:5131   */\n      tag_412\n      jump\t// in\n    tag_476:\n        /* \"#utility.yul\":5058:5131   */\n      swap8\n      pop\n        /* \"#utility.yul\":4854:5141   */\n      pop\n        /* \"#utility.yul\":5208:5210   */\n      0x20\n        /* \"#utility.yul\":5197:5206   */\n      dup9\n        /* \"#utility.yul\":5193:5211   */\n      add\n        /* \"#utility.yul\":5180:5212   */\n      calldataload\n        /* \"#utility.yul\":5239:5257   */\n      0xffffffffffffffff\n        /* \"#utility.yul\":5231:5237   */\n      dup2\n        /* \"#utility.yul\":5228:5258   */\n      gt\n        /* \"#utility.yul\":5225:5342   */\n      iszero\n      tag_477\n      jumpi\n        /* \"#utility.yul\":5261:5340   */\n      tag_478\n      tag_475\n      jump\t// in\n    tag_478:\n        /* \"#utility.yul\":5225:5342   */\n    tag_477:\n        /* \"#utility.yul\":5366:5429   */\n      tag_479\n        /* \"#utility.yul\":5421:5428   */\n      dup11\n        /* \"#utility.yul\":5412:5418   */\n      dup3\n        /* \"#utility.yul\":5401:5410   */\n      dup12\n        /* \"#utility.yul\":5397:5419   */\n      add\n        /* \"#utility.yul\":5366:5429   */\n      tag_412\n      jump\t// in\n    tag_479:\n        /* \"#utility.yul\":5356:5429   */\n      swap7\n      pop\n        /* \"#utility.yul\":5151:5439   */\n      pop\n        /* \"#utility.yul\":5506:5508   */\n      0x40\n        /* \"#utility.yul\":5495:5504   */\n      dup9\n        /* \"#utility.yul\":5491:5509   */\n      add\n        /* \"#utility.yul\":5478:5510   */\n      calldataload\n        /* \"#utility.yul\":5537:5555   */\n      0xffffffffffffffff\n        /* \"#utility.yul\":5529:5535   */\n      dup2\n        /* \"#utility.yul\":5526:5556   */\n      gt\n        /* \"#utility.yul\":5523:5640   */\n      iszero\n      tag_480\n      jumpi\n        /* \"#utility.yul\":5559:5638   */\n      tag_481\n      tag_475\n      jump\t// in\n    tag_481:\n        /* \"#utility.yul\":5523:5640   */\n    tag_480:\n        /* \"#utility.yul\":5664:5727   */\n      tag_482\n        /* \"#utility.yul\":5719:5726   */\n      dup11\n        /* \"#utility.yul\":5710:5716   */\n      dup3\n        /* \"#utility.yul\":5699:5708   */\n      dup12\n        /* \"#utility.yul\":5695:5717   */\n      add\n        /* \"#utility.yul\":5664:5727   */\n      tag_412\n      jump\t// in\n    tag_482:\n        /* \"#utility.yul\":5654:5727   */\n      swap6\n      pop\n        /* \"#utility.yul\":5449:5737   */\n      pop\n        /* \"#utility.yul\":5804:5806   */\n      0x60\n        /* \"#utility.yul\":5793:5802   */\n      dup9\n        /* \"#utility.yul\":5789:5807   */\n      add\n        /* \"#utility.yul\":5776:5808   */\n      calldataload\n        /* \"#utility.yul\":5835:5853   */\n      0xffffffffffffffff\n        /* \"#utility.yul\":5827:5833   */\n      dup2\n        /* \"#utility.yul\":5824:5854   */\n      gt\n        /* \"#utility.yul\":5821:5938   */\n      iszero\n      tag_483\n      jumpi\n        /* \"#utility.yul\":5857:5936   */\n      tag_484\n      tag_475\n      jump\t// in\n    tag_484:\n        /* \"#utility.yul\":5821:5938   */\n    tag_483:\n        /* \"#utility.yul\":5962:6025   */\n      tag_485\n        /* \"#utility.yul\":6017:6024   */\n      dup11\n        /* \"#utility.yul\":6008:6014   */\n      dup3\n        /* \"#utility.yul\":5997:6006   */\n      dup12\n        /* \"#utility.yul\":5993:6015   */\n      add\n        /* \"#utility.yul\":5962:6025   */\n      tag_412\n      jump\t// in\n    tag_485:\n        /* \"#utility.yul\":5952:6025   */\n      swap5\n      pop\n        /* \"#utility.yul\":5747:6035   */\n      pop\n        /* \"#utility.yul\":6074:6077   */\n      0x80\n        /* \"#utility.yul\":6101:6154   */\n      tag_486\n        /* \"#utility.yul\":6146:6153   */\n      dup11\n        /* \"#utility.yul\":6137:6143   */\n      dup3\n        /* \"#utility.yul\":6126:6135   */\n      dup12\n        /* \"#utility.yul\":6122:6144   */\n      add\n        /* \"#utility.yul\":6101:6154   */\n      tag_424\n      jump\t// in\n    tag_486:\n        /* \"#utility.yul\":6091:6154   */\n      swap4\n      pop\n        /* \"#utility.yul\":6045:6164   */\n      pop\n        /* \"#utility.yul\":6203:6206   */\n      0xa0\n        /* \"#utility.yul\":6230:6307   */\n      tag_487\n        /* \"#utility.yul\":6299:6306   */\n      dup11\n        /* \"#utility.yul\":6290:6296   */\n      dup3\n        /* \"#utility.yul\":6279:6288   */\n      dup12\n        /* \"#utility.yul\":6275:6297   */\n      add\n        /* \"#utility.yul\":6230:6307   */\n      tag_444\n      jump\t// in\n    tag_487:\n        /* \"#utility.yul\":6220:6307   */\n      swap3\n      pop\n        /* \"#utility.yul\":6174:6317   */\n      pop\n        /* \"#utility.yul\":6384:6387   */\n      0x0220\n        /* \"#utility.yul\":6373:6382   */\n      dup9\n        /* \"#utility.yul\":6369:6388   */\n      add\n        /* \"#utility.yul\":6356:6389   */\n      calldataload\n        /* \"#utility.yul\":6416:6434   */\n      0xffffffffffffffff\n        /* \"#utility.yul\":6408:6414   */\n      dup2\n        /* \"#utility.yul\":6405:6435   */\n      gt\n        /* \"#utility.yul\":6402:6519   */\n      iszero\n      tag_488\n      jumpi\n        /* \"#utility.yul\":6438:6517   */\n      tag_489\n      tag_475\n      jump\t// in\n    tag_489:\n        /* \"#utility.yul\":6402:6519   */\n    tag_488:\n        /* \"#utility.yul\":6543:6606   */\n      tag_490\n        /* \"#utility.yul\":6598:6605   */\n      dup11\n        /* \"#utility.yul\":6589:6595   */\n      dup3\n        /* \"#utility.yul\":6578:6587   */\n      dup12\n        /* \"#utility.yul\":6574:6596   */\n      add\n        /* \"#utility.yul\":6543:6606   */\n      tag_412\n      jump\t// in\n    tag_490:\n        /* \"#utility.yul\":6533:6606   */\n      swap2\n      pop\n        /* \"#utility.yul\":6327:6616   */\n      pop\n        /* \"#utility.yul\":4472:6623   */\n      swap3\n      swap6\n      swap9\n      swap2\n      swap5\n      swap8\n      pop\n      swap3\n      swap6\n      pop\n      jump\t// out\n        /* \"#utility.yul\":6629:10056   */\n    tag_51:\n        /* \"#utility.yul\":6957:6963   */\n      0x00\n        /* \"#utility.yul\":6965:6971   */\n      dup1\n        /* \"#utility.yul\":6973:6979   */\n      0x00\n        /* \"#utility.yul\":6981:6987   */\n      dup1\n        /* \"#utility.yul\":6989:6995   */\n      0x00\n        /* \"#utility.yul\":6997:7003   */\n      dup1\n        /* \"#utility.yul\":7005:7011   */\n      0x00\n        /* \"#utility.yul\":7013:7019   */\n      dup1\n        /* \"#utility.yul\":7021:7027   */\n      0x00\n        /* \"#utility.yul\":7029:7035   */\n      dup1\n        /* \"#utility.yul\":7037:7044   */\n      0x00\n        /* \"#utility.yul\":7087:7090   */\n      0x0160\n        /* \"#utility.yul\":7075:7084   */\n      dup13\n        /* \"#utility.yul\":7066:7073   */\n      dup15\n        /* \"#utility.yul\":7062:7085   */\n      sub\n        /* \"#utility.yul\":7058:7091   */\n      slt\n        /* \"#utility.yul\":7055:7175   */\n      iszero\n      tag_492\n      jumpi\n        /* \"#utility.yul\":7094:7173   */\n      tag_493\n      tag_463\n      jump\t// in\n    tag_493:\n        /* \"#utility.yul\":7055:7175   */\n    tag_492:\n        /* \"#utility.yul\":7242:7243   */\n      0x00\n        /* \"#utility.yul\":7231:7240   */\n      dup13\n        /* \"#utility.yul\":7227:7244   */\n      add\n        /* \"#utility.yul\":7214:7245   */\n      calldataload\n        /* \"#utility.yul\":7272:7290   */\n      0xffffffffffffffff\n        /* \"#utility.yul\":7264:7270   */\n      dup2\n        /* \"#utility.yul\":7261:7291   */\n      gt\n        /* \"#utility.yul\":7258:7375   */\n      iszero\n      tag_494\n      jumpi\n        /* \"#utility.yul\":7294:7373   */\n      tag_495\n      tag_475\n      jump\t// in\n    tag_495:\n        /* \"#utility.yul\":7258:7375   */\n    tag_494:\n        /* \"#utility.yul\":7399:7462   */\n      tag_496\n        /* \"#utility.yul\":7454:7461   */\n      dup15\n        /* \"#utility.yul\":7445:7451   */\n      dup3\n        /* \"#utility.yul\":7434:7443   */\n      dup16\n        /* \"#utility.yul\":7430:7452   */\n      add\n        /* \"#utility.yul\":7399:7462   */\n      tag_412\n      jump\t// in\n    tag_496:\n        /* \"#utility.yul\":7389:7462   */\n      swap12\n      pop\n        /* \"#utility.yul\":7185:7472   */\n      pop\n        /* \"#utility.yul\":7511:7513   */\n      0x20\n        /* \"#utility.yul\":7537:7590   */\n      tag_497\n        /* \"#utility.yul\":7582:7589   */\n      dup15\n        /* \"#utility.yul\":7573:7579   */\n      dup3\n        /* \"#utility.yul\":7562:7571   */\n      dup16\n        /* \"#utility.yul\":7558:7580   */\n      add\n        /* \"#utility.yul\":7537:7590   */\n      tag_424\n      jump\t// in\n    tag_497:\n        /* \"#utility.yul\":7527:7590   */\n      swap11\n      pop\n        /* \"#utility.yul\":7482:7600   */\n      pop\n        /* \"#utility.yul\":7639:7641   */\n      0x40\n        /* \"#utility.yul\":7665:7718   */\n      tag_498\n        /* \"#utility.yul\":7710:7717   */\n      dup15\n        /* \"#utility.yul\":7701:7707   */\n      dup3\n        /* \"#utility.yul\":7690:7699   */\n      dup16\n        /* \"#utility.yul\":7686:7708   */\n      add\n        /* \"#utility.yul\":7665:7718   */\n      tag_424\n      jump\t// in\n    tag_498:\n        /* \"#utility.yul\":7655:7718   */\n      swap10\n      pop\n        /* \"#utility.yul\":7610:7728   */\n      pop\n        /* \"#utility.yul\":7795:7797   */\n      0x60\n        /* \"#utility.yul\":7784:7793   */\n      dup13\n        /* \"#utility.yul\":7780:7798   */\n      add\n        /* \"#utility.yul\":7767:7799   */\n      calldataload\n        /* \"#utility.yul\":7826:7844   */\n      0xffffffffffffffff\n        /* \"#utility.yul\":7818:7824   */\n      dup2\n        /* \"#utility.yul\":7815:7845   */\n      gt\n        /* \"#utility.yul\":7812:7929   */\n      iszero\n      tag_499\n      jumpi\n        /* \"#utility.yul\":7848:7927   */\n      tag_500\n      tag_475\n      jump\t// in\n    tag_500:\n        /* \"#utility.yul\":7812:7929   */\n    tag_499:\n        /* \"#utility.yul\":7953:8016   */\n      tag_501\n        /* \"#utility.yul\":8008:8015   */\n      dup15\n        /* \"#utility.yul\":7999:8005   */\n      dup3\n        /* \"#utility.yul\":7988:7997   */\n      dup16\n        /* \"#utility.yul\":7984:8006   */\n      add\n        /* \"#utility.yul\":7953:8016   */\n      tag_412\n      jump\t// in\n    tag_501:\n        /* \"#utility.yul\":7943:8016   */\n      swap9\n      pop\n        /* \"#utility.yul\":7738:8026   */\n      pop\n        /* \"#utility.yul\":8093:8096   */\n      0x80\n        /* \"#utility.yul\":8082:8091   */\n      dup13\n        /* \"#utility.yul\":8078:8097   */\n      add\n        /* \"#utility.yul\":8065:8098   */\n      calldataload\n        /* \"#utility.yul\":8125:8143   */\n      0xffffffffffffffff\n        /* \"#utility.yul\":8117:8123   */\n      dup2\n        /* \"#utility.yul\":8114:8144   */\n      gt\n        /* \"#utility.yul\":8111:8228   */\n      iszero\n      tag_502\n      jumpi\n        /* \"#utility.yul\":8147:8226   */\n      tag_503\n      tag_475\n      jump\t// in\n    tag_503:\n        /* \"#utility.yul\":8111:8228   */\n    tag_502:\n        /* \"#utility.yul\":8252:8315   */\n      tag_504\n        /* \"#utility.yul\":8307:8314   */\n      dup15\n        /* \"#utility.yul\":8298:8304   */\n      dup3\n        /* \"#utility.yul\":8287:8296   */\n      dup16\n        /* \"#utility.yul\":8283:8305   */\n      add\n        /* \"#utility.yul\":8252:8315   */\n      tag_412\n      jump\t// in\n    tag_504:\n        /* \"#utility.yul\":8242:8315   */\n      swap8\n      pop\n        /* \"#utility.yul\":8036:8325   */\n      pop\n        /* \"#utility.yul\":8364:8367   */\n      0xa0\n        /* \"#utility.yul\":8391:8443   */\n      tag_505\n        /* \"#utility.yul\":8435:8442   */\n      dup15\n        /* \"#utility.yul\":8426:8432   */\n      dup3\n        /* \"#utility.yul\":8415:8424   */\n      dup16\n        /* \"#utility.yul\":8411:8433   */\n      add\n        /* \"#utility.yul\":8391:8443   */\n      tag_449\n      jump\t// in\n    tag_505:\n        /* \"#utility.yul\":8381:8443   */\n      swap7\n      pop\n        /* \"#utility.yul\":8335:8453   */\n      pop\n        /* \"#utility.yul\":8520:8523   */\n      0xc0\n        /* \"#utility.yul\":8509:8518   */\n      dup13\n        /* \"#utility.yul\":8505:8524   */\n      add\n        /* \"#utility.yul\":8492:8525   */\n      calldataload\n        /* \"#utility.yul\":8552:8570   */\n      0xffffffffffffffff\n        /* \"#utility.yul\":8544:8550   */\n      dup2\n        /* \"#utility.yul\":8541:8571   */\n      gt\n        /* \"#utility.yul\":8538:8655   */\n      iszero\n      tag_506\n      jumpi\n        /* \"#utility.yul\":8574:8653   */\n      tag_507\n      tag_475\n      jump\t// in\n    tag_507:\n        /* \"#utility.yul\":8538:8655   */\n    tag_506:\n        /* \"#utility.yul\":8679:8767   */\n      tag_508\n        /* \"#utility.yul\":8759:8766   */\n      dup15\n        /* \"#utility.yul\":8750:8756   */\n      dup3\n        /* \"#utility.yul\":8739:8748   */\n      dup16\n        /* \"#utility.yul\":8735:8757   */\n      add\n        /* \"#utility.yul\":8679:8767   */\n      tag_439\n      jump\t// in\n    tag_508:\n        /* \"#utility.yul\":8669:8767   */\n      swap6\n      pop\n        /* \"#utility.yul\":8463:8777   */\n      pop\n        /* \"#utility.yul\":8844:8847   */\n      0xe0\n        /* \"#utility.yul\":8833:8842   */\n      dup13\n        /* \"#utility.yul\":8829:8848   */\n      add\n        /* \"#utility.yul\":8816:8849   */\n      calldataload\n        /* \"#utility.yul\":8876:8894   */\n      0xffffffffffffffff\n        /* \"#utility.yul\":8868:8874   */\n      dup2\n        /* \"#utility.yul\":8865:8895   */\n      gt\n        /* \"#utility.yul\":8862:8979   */\n      iszero\n      tag_509\n      jumpi\n        /* \"#utility.yul\":8898:8977   */\n      tag_510\n      tag_475\n      jump\t// in\n    tag_510:\n        /* \"#utility.yul\":8862:8979   */\n    tag_509:\n        /* \"#utility.yul\":9003:9091   */\n      tag_511\n        /* \"#utility.yul\":9083:9090   */\n      dup15\n        /* \"#utility.yul\":9074:9080   */\n      dup3\n        /* \"#utility.yul\":9063:9072   */\n      dup16\n        /* \"#utility.yul\":9059:9081   */\n      add\n        /* \"#utility.yul\":9003:9091   */\n      tag_439\n      jump\t// in\n    tag_511:\n        /* \"#utility.yul\":8993:9091   */\n      swap5\n      pop\n        /* \"#utility.yul\":8787:9101   */\n      pop\n        /* \"#utility.yul\":9168:9171   */\n      0x0100\n        /* \"#utility.yul\":9157:9166   */\n      dup13\n        /* \"#utility.yul\":9153:9172   */\n      add\n        /* \"#utility.yul\":9140:9173   */\n      calldataload\n        /* \"#utility.yul\":9200:9218   */\n      0xffffffffffffffff\n        /* \"#utility.yul\":9192:9198   */\n      dup2\n        /* \"#utility.yul\":9189:9219   */\n      gt\n        /* \"#utility.yul\":9186:9303   */\n      iszero\n      tag_512\n      jumpi\n        /* \"#utility.yul\":9222:9301   */\n      tag_513\n      tag_475\n      jump\t// in\n    tag_513:\n        /* \"#utility.yul\":9186:9303   */\n    tag_512:\n        /* \"#utility.yul\":9327:9415   */\n      tag_514\n        /* \"#utility.yul\":9407:9414   */\n      dup15\n        /* \"#utility.yul\":9398:9404   */\n      dup3\n        /* \"#utility.yul\":9387:9396   */\n      dup16\n        /* \"#utility.yul\":9383:9405   */\n      add\n        /* \"#utility.yul\":9327:9415   */\n      tag_439\n      jump\t// in\n    tag_514:\n        /* \"#utility.yul\":9317:9415   */\n      swap4\n      pop\n        /* \"#utility.yul\":9111:9425   */\n      pop\n        /* \"#utility.yul\":9492:9495   */\n      0x0120\n        /* \"#utility.yul\":9481:9490   */\n      dup13\n        /* \"#utility.yul\":9477:9496   */\n      add\n        /* \"#utility.yul\":9464:9497   */\n      calldataload\n        /* \"#utility.yul\":9524:9542   */\n      0xffffffffffffffff\n        /* \"#utility.yul\":9516:9522   */\n      dup2\n        /* \"#utility.yul\":9513:9543   */\n      gt\n        /* \"#utility.yul\":9510:9627   */\n      iszero\n      tag_515\n      jumpi\n        /* \"#utility.yul\":9546:9625   */\n      tag_516\n      tag_475\n      jump\t// in\n    tag_516:\n        /* \"#utility.yul\":9510:9627   */\n    tag_515:\n        /* \"#utility.yul\":9651:9714   */\n      tag_517\n        /* \"#utility.yul\":9706:9713   */\n      dup15\n        /* \"#utility.yul\":9697:9703   */\n      dup3\n        /* \"#utility.yul\":9686:9695   */\n      dup16\n        /* \"#utility.yul\":9682:9704   */\n      add\n        /* \"#utility.yul\":9651:9714   */\n      tag_412\n      jump\t// in\n    tag_517:\n        /* \"#utility.yul\":9641:9714   */\n      swap3\n      pop\n        /* \"#utility.yul\":9435:9724   */\n      pop\n        /* \"#utility.yul\":9791:9794   */\n      0x0140\n        /* \"#utility.yul\":9780:9789   */\n      dup13\n        /* \"#utility.yul\":9776:9795   */\n      add\n        /* \"#utility.yul\":9763:9796   */\n      calldataload\n        /* \"#utility.yul\":9823:9841   */\n      0xffffffffffffffff\n        /* \"#utility.yul\":9815:9821   */\n      dup2\n        /* \"#utility.yul\":9812:9842   */\n      gt\n        /* \"#utility.yul\":9809:9926   */\n      iszero\n      tag_518\n      jumpi\n        /* \"#utility.yul\":9845:9924   */\n      tag_519\n      tag_475\n      jump\t// in\n    tag_519:\n        /* \"#utility.yul\":9809:9926   */\n    tag_518:\n        /* \"#utility.yul\":9951:10039   */\n      tag_520\n        /* \"#utility.yul\":10031:10038   */\n      dup15\n        /* \"#utility.yul\":10022:10028   */\n      dup3\n        /* \"#utility.yul\":10011:10020   */\n      dup16\n        /* \"#utility.yul\":10007:10029   */\n      add\n        /* \"#utility.yul\":9951:10039   */\n      tag_439\n      jump\t// in\n    tag_520:\n        /* \"#utility.yul\":9940:10039   */\n      swap2\n      pop\n        /* \"#utility.yul\":9734:10049   */\n      pop\n        /* \"#utility.yul\":6629:10056   */\n      swap3\n      swap6\n      swap9\n      swap12\n      pop\n      swap3\n      swap6\n      swap9\n      swap12\n      swap1\n      swap4\n      swap7\n      swap10\n      pop\n      jump\t// out\n        /* \"#utility.yul\":10062:10391   */\n    tag_40:\n        /* \"#utility.yul\":10121:10127   */\n      0x00\n        /* \"#utility.yul\":10170:10172   */\n      0x20\n        /* \"#utility.yul\":10158:10167   */\n      dup3\n        /* \"#utility.yul\":10149:10156   */\n      dup5\n        /* \"#utility.yul\":10145:10168   */\n      sub\n        /* \"#utility.yul\":10141:10173   */\n      slt\n        /* \"#utility.yul\":10138:10257   */\n      iszero\n      tag_522\n      jumpi\n        /* \"#utility.yul\":10176:10255   */\n      tag_523\n      tag_463\n      jump\t// in\n    tag_523:\n        /* \"#utility.yul\":10138:10257   */\n    tag_522:\n        /* \"#utility.yul\":10296:10297   */\n      0x00\n        /* \"#utility.yul\":10321:10374   */\n      tag_524\n        /* \"#utility.yul\":10366:10373   */\n      dup5\n        /* \"#utility.yul\":10357:10363   */\n      dup3\n        /* \"#utility.yul\":10346:10355   */\n      dup6\n        /* \"#utility.yul\":10342:10364   */\n      add\n        /* \"#utility.yul\":10321:10374   */\n      tag_424\n      jump\t// in\n    tag_524:\n        /* \"#utility.yul\":10311:10374   */\n      swap2\n      pop\n        /* \"#utility.yul\":10267:10384   */\n      pop\n        /* \"#utility.yul\":10062:10391   */\n      swap3\n      swap2\n      pop\n      pop\n      jump\t// out\n        /* \"#utility.yul\":10397:10871   */\n    tag_26:\n        /* \"#utility.yul\":10465:10471   */\n      0x00\n        /* \"#utility.yul\":10473:10479   */\n      dup1\n        /* \"#utility.yul\":10522:10524   */\n      0x40\n        /* \"#utility.yul\":10510:10519   */\n      dup4\n        /* \"#utility.yul\":10501:10508   */\n      dup6\n        /* \"#utility.yul\":10497:10520   */\n      sub\n        /* \"#utility.yul\":10493:10525   */\n      slt\n        /* \"#utility.yul\":10490:10609   */\n      iszero\n      tag_526\n      jumpi\n        /* \"#utility.yul\":10528:10607   */\n      tag_527\n      tag_463\n      jump\t// in\n    tag_527:\n        /* \"#utility.yul\":10490:10609   */\n    tag_526:\n        /* \"#utility.yul\":10648:10649   */\n      0x00\n        /* \"#utility.yul\":10673:10726   */\n      tag_528\n        /* \"#utility.yul\":10718:10725   */\n      dup6\n        /* \"#utility.yul\":10709:10715   */\n      dup3\n        /* \"#utility.yul\":10698:10707   */\n      dup7\n        /* \"#utility.yul\":10694:10716   */\n      add\n        /* \"#utility.yul\":10673:10726   */\n      tag_424\n      jump\t// in\n    tag_528:\n        /* \"#utility.yul\":10663:10726   */\n      swap3\n      pop\n        /* \"#utility.yul\":10619:10736   */\n      pop\n        /* \"#utility.yul\":10775:10777   */\n      0x20\n        /* \"#utility.yul\":10801:10854   */\n      tag_529\n        /* \"#utility.yul\":10846:10853   */\n      dup6\n        /* \"#utility.yul\":10837:10843   */\n      dup3\n        /* \"#utility.yul\":10826:10835   */\n      dup7\n        /* \"#utility.yul\":10822:10844   */\n      add\n        /* \"#utility.yul\":10801:10854   */\n      tag_424\n      jump\t// in\n    tag_529:\n        /* \"#utility.yul\":10791:10854   */\n      swap2\n      pop\n        /* \"#utility.yul\":10746:10864   */\n      pop\n        /* \"#utility.yul\":10397:10871   */\n      swap3\n      pop\n      swap3\n      swap1\n      pop\n      jump\t// out\n        /* \"#utility.yul\":10877:11073   */\n    tag_530:\n        /* \"#utility.yul\":10966:10976   */\n      0x00\n        /* \"#utility.yul\":11001:11067   */\n      tag_532\n        /* \"#utility.yul\":11063:11066   */\n      dup4\n        /* \"#utility.yul\":11055:11061   */\n      dup4\n        /* \"#utility.yul\":11001:11067   */\n      tag_533\n      jump\t// in\n    tag_532:\n        /* \"#utility.yul\":10987:11067   */\n      swap1\n      pop\n        /* \"#utility.yul\":10877:11073   */\n      swap3\n      swap2\n      pop\n      pop\n      jump\t// out\n        /* \"#utility.yul\":11079:11258   */\n    tag_534:\n        /* \"#utility.yul\":11148:11158   */\n      0x00\n        /* \"#utility.yul\":11169:11215   */\n      tag_536\n        /* \"#utility.yul\":11211:11214   */\n      dup4\n        /* \"#utility.yul\":11203:11209   */\n      dup4\n        /* \"#utility.yul\":11169:11215   */\n      tag_537\n      jump\t// in\n    tag_536:\n        /* \"#utility.yul\":11247:11251   */\n      0x20\n        /* \"#utility.yul\":11242:11245   */\n      dup4\n        /* \"#utility.yul\":11238:11252   */\n      add\n        /* \"#utility.yul\":11224:11252   */\n      swap1\n      pop\n        /* \"#utility.yul\":11079:11258   */\n      swap3\n      swap2\n      pop\n      pop\n      jump\t// out\n        /* \"#utility.yul\":11264:11372   */\n    tag_538:\n        /* \"#utility.yul\":11341:11365   */\n      tag_540\n        /* \"#utility.yul\":11359:11364   */\n      dup2\n        /* \"#utility.yul\":11341:11365   */\n      tag_541\n      jump\t// in\n    tag_540:\n        /* \"#utility.yul\":11336:11339   */\n      dup3\n        /* \"#utility.yul\":11329:11366   */\n      mstore\n        /* \"#utility.yul\":11264:11372   */\n      pop\n      pop\n      jump\t// out\n        /* \"#utility.yul\":11378:11496   */\n    tag_542:\n        /* \"#utility.yul\":11465:11489   */\n      tag_544\n        /* \"#utility.yul\":11483:11488   */\n      dup2\n        /* \"#utility.yul\":11465:11489   */\n      tag_541\n      jump\t// in\n    tag_544:\n        /* \"#utility.yul\":11460:11463   */\n      dup3\n        /* \"#utility.yul\":11453:11490   */\n      mstore\n        /* \"#utility.yul\":11378:11496   */\n      pop\n      pop\n      jump\t// out\n        /* \"#utility.yul\":11530:12501   */\n    tag_545:\n        /* \"#utility.yul\":11659:11662   */\n      0x00\n        /* \"#utility.yul\":11688:11752   */\n      tag_547\n        /* \"#utility.yul\":11746:11751   */\n      dup3\n        /* \"#utility.yul\":11688:11752   */\n      tag_548\n      jump\t// in\n    tag_547:\n        /* \"#utility.yul\":11768:11854   */\n      tag_549\n        /* \"#utility.yul\":11847:11853   */\n      dup2\n        /* \"#utility.yul\":11842:11845   */\n      dup6\n        /* \"#utility.yul\":11768:11854   */\n      tag_550\n      jump\t// in\n    tag_549:\n        /* \"#utility.yul\":11761:11854   */\n      swap4\n      pop\n        /* \"#utility.yul\":11880:11883   */\n      dup4\n        /* \"#utility.yul\":11925:11929   */\n      0x20\n        /* \"#utility.yul\":11917:11923   */\n      dup3\n        /* \"#utility.yul\":11913:11930   */\n      mul\n        /* \"#utility.yul\":11908:11911   */\n      dup6\n        /* \"#utility.yul\":11904:11931   */\n      add\n        /* \"#utility.yul\":11955:12021   */\n      tag_551\n        /* \"#utility.yul\":12015:12020   */\n      dup6\n        /* \"#utility.yul\":11955:12021   */\n      tag_552\n      jump\t// in\n    tag_551:\n        /* \"#utility.yul\":12044:12051   */\n      dup1\n        /* \"#utility.yul\":12075:12076   */\n      0x00\n        /* \"#utility.yul\":12060:12456   */\n    tag_553:\n        /* \"#utility.yul\":12085:12091   */\n      dup6\n        /* \"#utility.yul\":12082:12083   */\n      dup2\n        /* \"#utility.yul\":12079:12092   */\n      lt\n        /* \"#utility.yul\":12060:12456   */\n      iszero\n      tag_555\n      jumpi\n        /* \"#utility.yul\":12156:12165   */\n      dup5\n        /* \"#utility.yul\":12150:12154   */\n      dup5\n        /* \"#utility.yul\":12146:12166   */\n      sub\n        /* \"#utility.yul\":12141:12144   */\n      dup10\n        /* \"#utility.yul\":12134:12167   */\n      mstore\n        /* \"#utility.yul\":12207:12213   */\n      dup2\n        /* \"#utility.yul\":12201:12214   */\n      mload\n        /* \"#utility.yul\":12235:12319   */\n      tag_556\n        /* \"#utility.yul\":12314:12318   */\n      dup6\n        /* \"#utility.yul\":12299:12312   */\n      dup3\n        /* \"#utility.yul\":12235:12319   */\n      tag_530\n      jump\t// in\n    tag_556:\n        /* \"#utility.yul\":12227:12319   */\n      swap5\n      pop\n        /* \"#utility.yul\":12342:12412   */\n      tag_557\n        /* \"#utility.yul\":12405:12411   */\n      dup4\n        /* \"#utility.yul\":12342:12412   */\n      tag_558\n      jump\t// in\n    tag_557:\n        /* \"#utility.yul\":12332:12412   */\n      swap3\n      pop\n        /* \"#utility.yul\":12441:12445   */\n      0x20\n        /* \"#utility.yul\":12436:12439   */\n      dup11\n        /* \"#utility.yul\":12432:12446   */\n      add\n        /* \"#utility.yul\":12425:12446   */\n      swap10\n      pop\n        /* \"#utility.yul\":12120:12456   */\n      pop\n        /* \"#utility.yul\":12107:12108   */\n      0x01\n        /* \"#utility.yul\":12104:12105   */\n      dup2\n        /* \"#utility.yul\":12100:12109   */\n      add\n        /* \"#utility.yul\":12095:12109   */\n      swap1\n      pop\n        /* \"#utility.yul\":12060:12456   */\n      jump(tag_553)\n    tag_555:\n        /* \"#utility.yul\":12064:12078   */\n      pop\n        /* \"#utility.yul\":12472:12476   */\n      dup3\n        /* \"#utility.yul\":12465:12476   */\n      swap8\n      pop\n        /* \"#utility.yul\":12492:12495   */\n      dup8\n        /* \"#utility.yul\":12485:12495   */\n      swap6\n      pop\n        /* \"#utility.yul\":11664:12501   */\n      pop\n      pop\n      pop\n      pop\n      pop\n        /* \"#utility.yul\":11530:12501   */\n      swap3\n      swap2\n      pop\n      pop\n      jump\t// out\n        /* \"#utility.yul\":12541:13241   */\n    tag_559:\n        /* \"#utility.yul\":12679:12732   */\n      tag_561\n        /* \"#utility.yul\":12726:12731   */\n      dup2\n        /* \"#utility.yul\":12679:12732   */\n      tag_562\n      jump\t// in\n    tag_561:\n        /* \"#utility.yul\":12748:12833   */\n      tag_563\n        /* \"#utility.yul\":12826:12832   */\n      dup2\n        /* \"#utility.yul\":12821:12824   */\n      dup5\n        /* \"#utility.yul\":12748:12833   */\n      tag_564\n      jump\t// in\n    tag_563:\n        /* \"#utility.yul\":12741:12833   */\n      swap3\n      pop\n        /* \"#utility.yul\":12857:12912   */\n      tag_565\n        /* \"#utility.yul\":12906:12911   */\n      dup3\n        /* \"#utility.yul\":12857:12912   */\n      tag_566\n      jump\t// in\n    tag_565:\n        /* \"#utility.yul\":12935:12942   */\n      dup1\n        /* \"#utility.yul\":12966:12967   */\n      0x00\n        /* \"#utility.yul\":12951:13234   */\n    tag_567:\n        /* \"#utility.yul\":12976:12982   */\n      dup4\n        /* \"#utility.yul\":12973:12974   */\n      dup2\n        /* \"#utility.yul\":12970:12983   */\n      lt\n        /* \"#utility.yul\":12951:13234   */\n      iszero\n      tag_569\n      jumpi\n        /* \"#utility.yul\":13052:13058   */\n      dup2\n        /* \"#utility.yul\":13046:13059   */\n      mload\n        /* \"#utility.yul\":13079:13142   */\n      tag_570\n        /* \"#utility.yul\":13138:13141   */\n      dup8\n        /* \"#utility.yul\":13123:13136   */\n      dup3\n        /* \"#utility.yul\":13079:13142   */\n      tag_534\n      jump\t// in\n    tag_570:\n        /* \"#utility.yul\":13072:13142   */\n      swap7\n      pop\n        /* \"#utility.yul\":13165:13224   */\n      tag_571\n        /* \"#utility.yul\":13217:13223   */\n      dup4\n        /* \"#utility.yul\":13165:13224   */\n      tag_572\n      jump\t// in\n    tag_571:\n        /* \"#utility.yul\":13155:13224   */\n      swap3\n      pop\n        /* \"#utility.yul\":13011:13234   */\n      pop\n        /* \"#utility.yul\":12998:12999   */\n      0x01\n        /* \"#utility.yul\":12995:12996   */\n      dup2\n        /* \"#utility.yul\":12991:13000   */\n      add\n        /* \"#utility.yul\":12986:13000   */\n      swap1\n      pop\n        /* \"#utility.yul\":12951:13234   */\n      jump(tag_567)\n    tag_569:\n        /* \"#utility.yul\":12955:12969   */\n      pop\n        /* \"#utility.yul\":12655:13241   */\n      pop\n      pop\n      pop\n        /* \"#utility.yul\":12541:13241   */\n      pop\n      pop\n      jump\t// out\n        /* \"#utility.yul\":13247:13356   */\n    tag_573:\n        /* \"#utility.yul\":13328:13349   */\n      tag_575\n        /* \"#utility.yul\":13343:13348   */\n      dup2\n        /* \"#utility.yul\":13328:13349   */\n      tag_576\n      jump\t// in\n    tag_575:\n        /* \"#utility.yul\":13323:13326   */\n      dup3\n        /* \"#utility.yul\":13316:13350   */\n      mstore\n        /* \"#utility.yul\":13247:13356   */\n      pop\n      pop\n      jump\t// out\n        /* \"#utility.yul\":13362:13467   */\n    tag_577:\n        /* \"#utility.yul\":13437:13460   */\n      tag_579\n        /* \"#utility.yul\":13454:13459   */\n      dup2\n        /* \"#utility.yul\":13437:13460   */\n      tag_580\n      jump\t// in\n    tag_579:\n        /* \"#utility.yul\":13432:13435   */\n      dup3\n        /* \"#utility.yul\":13425:13461   */\n      mstore\n        /* \"#utility.yul\":13362:13467   */\n      pop\n      pop\n      jump\t// out\n        /* \"#utility.yul\":13473:13817   */\n    tag_533:\n        /* \"#utility.yul\":13551:13554   */\n      0x00\n        /* \"#utility.yul\":13579:13618   */\n      tag_582\n        /* \"#utility.yul\":13612:13617   */\n      dup3\n        /* \"#utility.yul\":13579:13618   */\n      tag_583\n      jump\t// in\n    tag_582:\n        /* \"#utility.yul\":13634:13695   */\n      tag_584\n        /* \"#utility.yul\":13688:13694   */\n      dup2\n        /* \"#utility.yul\":13683:13686   */\n      dup6\n        /* \"#utility.yul\":13634:13695   */\n      tag_585\n      jump\t// in\n    tag_584:\n        /* \"#utility.yul\":13627:13695   */\n      swap4\n      pop\n        /* \"#utility.yul\":13704:13756   */\n      tag_586\n        /* \"#utility.yul\":13749:13755   */\n      dup2\n        /* \"#utility.yul\":13744:13747   */\n      dup6\n        /* \"#utility.yul\":13737:13741   */\n      0x20\n        /* \"#utility.yul\":13730:13735   */\n      dup7\n        /* \"#utility.yul\":13726:13742   */\n      add\n        /* \"#utility.yul\":13704:13756   */\n      tag_587\n      jump\t// in\n    tag_586:\n        /* \"#utility.yul\":13781:13810   */\n      tag_588\n        /* \"#utility.yul\":13803:13809   */\n      dup2\n        /* \"#utility.yul\":13781:13810   */\n      tag_589\n      jump\t// in\n    tag_588:\n        /* \"#utility.yul\":13776:13779   */\n      dup5\n        /* \"#utility.yul\":13772:13811   */\n      add\n        /* \"#utility.yul\":13765:13811   */\n      swap2\n      pop\n        /* \"#utility.yul\":13555:13817   */\n      pop\n        /* \"#utility.yul\":13473:13817   */\n      swap3\n      swap2\n      pop\n      pop\n      jump\t// out\n        /* \"#utility.yul\":13823:14187   */\n    tag_590:\n        /* \"#utility.yul\":13911:13914   */\n      0x00\n        /* \"#utility.yul\":13939:13978   */\n      tag_592\n        /* \"#utility.yul\":13972:13977   */\n      dup3\n        /* \"#utility.yul\":13939:13978   */\n      tag_583\n      jump\t// in\n    tag_592:\n        /* \"#utility.yul\":13994:14065   */\n      tag_593\n        /* \"#utility.yul\":14058:14064   */\n      dup2\n        /* \"#utility.yul\":14053:14056   */\n      dup6\n        /* \"#utility.yul\":13994:14065   */\n      tag_594\n      jump\t// in\n    tag_593:\n        /* \"#utility.yul\":13987:14065   */\n      swap4\n      pop\n        /* \"#utility.yul\":14074:14126   */\n      tag_595\n        /* \"#utility.yul\":14119:14125   */\n      dup2\n        /* \"#utility.yul\":14114:14117   */\n      dup6\n        /* \"#utility.yul\":14107:14111   */\n      0x20\n        /* \"#utility.yul\":14100:14105   */\n      dup7\n        /* \"#utility.yul\":14096:14112   */\n      add\n        /* \"#utility.yul\":14074:14126   */\n      tag_587\n      jump\t// in\n    tag_595:\n        /* \"#utility.yul\":14151:14180   */\n      tag_596\n        /* \"#utility.yul\":14173:14179   */\n      dup2\n        /* \"#utility.yul\":14151:14180   */\n      tag_589\n      jump\t// in\n    tag_596:\n        /* \"#utility.yul\":14146:14149   */\n      dup5\n        /* \"#utility.yul\":14142:14181   */\n      add\n        /* \"#utility.yul\":14135:14181   */\n      swap2\n      pop\n        /* \"#utility.yul\":13915:14187   */\n      pop\n        /* \"#utility.yul\":13823:14187   */\n      swap3\n      swap2\n      pop\n      pop\n      jump\t// out\n        /* \"#utility.yul\":14255:16570   */\n    tag_597:\n        /* \"#utility.yul\":14368:14371   */\n      0x00\n        /* \"#utility.yul\":14404:14410   */\n      0x0100\n        /* \"#utility.yul\":14399:14402   */\n      dup4\n        /* \"#utility.yul\":14395:14411   */\n      add\n        /* \"#utility.yul\":14498:14502   */\n      0x00\n        /* \"#utility.yul\":14491:14496   */\n      dup4\n        /* \"#utility.yul\":14487:14503   */\n      add\n        /* \"#utility.yul\":14481:14504   */\n      mload\n        /* \"#utility.yul\":14551:14554   */\n      dup5\n        /* \"#utility.yul\":14545:14549   */\n      dup3\n        /* \"#utility.yul\":14541:14555   */\n      sub\n        /* \"#utility.yul\":14534:14538   */\n      0x00\n        /* \"#utility.yul\":14529:14532   */\n      dup7\n        /* \"#utility.yul\":14525:14539   */\n      add\n        /* \"#utility.yul\":14518:14556   */\n      mstore\n        /* \"#utility.yul\":14577:14650   */\n      tag_599\n        /* \"#utility.yul\":14645:14649   */\n      dup3\n        /* \"#utility.yul\":14631:14643   */\n      dup3\n        /* \"#utility.yul\":14577:14650   */\n      tag_533\n      jump\t// in\n    tag_599:\n        /* \"#utility.yul\":14569:14650   */\n      swap2\n      pop\n        /* \"#utility.yul\":14421:14661   */\n      pop\n        /* \"#utility.yul\":14749:14753   */\n      0x20\n        /* \"#utility.yul\":14742:14747   */\n      dup4\n        /* \"#utility.yul\":14738:14754   */\n      add\n        /* \"#utility.yul\":14732:14755   */\n      mload\n        /* \"#utility.yul\":14802:14805   */\n      dup5\n        /* \"#utility.yul\":14796:14800   */\n      dup3\n        /* \"#utility.yul\":14792:14806   */\n      sub\n        /* \"#utility.yul\":14785:14789   */\n      0x20\n        /* \"#utility.yul\":14780:14783   */\n      dup7\n        /* \"#utility.yul\":14776:14790   */\n      add\n        /* \"#utility.yul\":14769:14807   */\n      mstore\n        /* \"#utility.yul\":14828:14901   */\n      tag_600\n        /* \"#utility.yul\":14896:14900   */\n      dup3\n        /* \"#utility.yul\":14882:14894   */\n      dup3\n        /* \"#utility.yul\":14828:14901   */\n      tag_533\n      jump\t// in\n    tag_600:\n        /* \"#utility.yul\":14820:14901   */\n      swap2\n      pop\n        /* \"#utility.yul\":14671:14912   */\n      pop\n        /* \"#utility.yul\":15002:15006   */\n      0x40\n        /* \"#utility.yul\":14995:15000   */\n      dup4\n        /* \"#utility.yul\":14991:15007   */\n      add\n        /* \"#utility.yul\":14985:15008   */\n      mload\n        /* \"#utility.yul\":15021:15082   */\n      tag_601\n        /* \"#utility.yul\":15076:15080   */\n      0x40\n        /* \"#utility.yul\":15071:15074   */\n      dup7\n        /* \"#utility.yul\":15067:15081   */\n      add\n        /* \"#utility.yul\":15053:15065   */\n      dup3\n        /* \"#utility.yul\":15021:15082   */\n      tag_577\n      jump\t// in\n    tag_601:\n        /* \"#utility.yul\":14922:15092   */\n      pop\n        /* \"#utility.yul\":15181:15185   */\n      0x60\n        /* \"#utility.yul\":15174:15179   */\n      dup4\n        /* \"#utility.yul\":15170:15186   */\n      add\n        /* \"#utility.yul\":15164:15187   */\n      mload\n        /* \"#utility.yul\":15234:15237   */\n      dup5\n        /* \"#utility.yul\":15228:15232   */\n      dup3\n        /* \"#utility.yul\":15224:15238   */\n      sub\n        /* \"#utility.yul\":15217:15221   */\n      0x60\n        /* \"#utility.yul\":15212:15215   */\n      dup7\n        /* \"#utility.yul\":15208:15222   */\n      add\n        /* \"#utility.yul\":15201:15239   */\n      mstore\n        /* \"#utility.yul\":15260:15383   */\n      tag_602\n        /* \"#utility.yul\":15378:15382   */\n      dup3\n        /* \"#utility.yul\":15364:15376   */\n      dup3\n        /* \"#utility.yul\":15260:15383   */\n      tag_545\n      jump\t// in\n    tag_602:\n        /* \"#utility.yul\":15252:15383   */\n      swap2\n      pop\n        /* \"#utility.yul\":15102:15394   */\n      pop\n        /* \"#utility.yul\":15480:15484   */\n      0x80\n        /* \"#utility.yul\":15473:15478   */\n      dup4\n        /* \"#utility.yul\":15469:15485   */\n      add\n        /* \"#utility.yul\":15463:15486   */\n      mload\n        /* \"#utility.yul\":15533:15536   */\n      dup5\n        /* \"#utility.yul\":15527:15531   */\n      dup3\n        /* \"#utility.yul\":15523:15537   */\n      sub\n        /* \"#utility.yul\":15516:15520   */\n      0x80\n        /* \"#utility.yul\":15511:15514   */\n      dup7\n        /* \"#utility.yul\":15507:15521   */\n      add\n        /* \"#utility.yul\":15500:15538   */\n      mstore\n        /* \"#utility.yul\":15559:15682   */\n      tag_603\n        /* \"#utility.yul\":15677:15681   */\n      dup3\n        /* \"#utility.yul\":15663:15675   */\n      dup3\n        /* \"#utility.yul\":15559:15682   */\n      tag_545\n      jump\t// in\n    tag_603:\n        /* \"#utility.yul\":15551:15682   */\n      swap2\n      pop\n        /* \"#utility.yul\":15404:15693   */\n      pop\n        /* \"#utility.yul\":15779:15783   */\n      0xa0\n        /* \"#utility.yul\":15772:15777   */\n      dup4\n        /* \"#utility.yul\":15768:15784   */\n      add\n        /* \"#utility.yul\":15762:15785   */\n      mload\n        /* \"#utility.yul\":15832:15835   */\n      dup5\n        /* \"#utility.yul\":15826:15830   */\n      dup3\n        /* \"#utility.yul\":15822:15836   */\n      sub\n        /* \"#utility.yul\":15815:15819   */\n      0xa0\n        /* \"#utility.yul\":15810:15813   */\n      dup7\n        /* \"#utility.yul\":15806:15820   */\n      add\n        /* \"#utility.yul\":15799:15837   */\n      mstore\n        /* \"#utility.yul\":15858:15981   */\n      tag_604\n        /* \"#utility.yul\":15976:15980   */\n      dup3\n        /* \"#utility.yul\":15962:15974   */\n      dup3\n        /* \"#utility.yul\":15858:15981   */\n      tag_545\n      jump\t// in\n    tag_604:\n        /* \"#utility.yul\":15850:15981   */\n      swap2\n      pop\n        /* \"#utility.yul\":15703:15992   */\n      pop\n        /* \"#utility.yul\":16078:16082   */\n      0xc0\n        /* \"#utility.yul\":16071:16076   */\n      dup4\n        /* \"#utility.yul\":16067:16083   */\n      add\n        /* \"#utility.yul\":16061:16084   */\n      mload\n        /* \"#utility.yul\":16131:16134   */\n      dup5\n        /* \"#utility.yul\":16125:16129   */\n      dup3\n        /* \"#utility.yul\":16121:16135   */\n      sub\n        /* \"#utility.yul\":16114:16118   */\n      0xc0\n        /* \"#utility.yul\":16109:16112   */\n      dup7\n        /* \"#utility.yul\":16105:16119   */\n      add\n        /* \"#utility.yul\":16098:16136   */\n      mstore\n        /* \"#utility.yul\":16157:16230   */\n      tag_605\n        /* \"#utility.yul\":16225:16229   */\n      dup3\n        /* \"#utility.yul\":16211:16223   */\n      dup3\n        /* \"#utility.yul\":16157:16230   */\n      tag_533\n      jump\t// in\n    tag_605:\n        /* \"#utility.yul\":16149:16230   */\n      swap2\n      pop\n        /* \"#utility.yul\":16002:16241   */\n      pop\n        /* \"#utility.yul\":16330:16334   */\n      0xe0\n        /* \"#utility.yul\":16323:16328   */\n      dup4\n        /* \"#utility.yul\":16319:16335   */\n      add\n        /* \"#utility.yul\":16313:16336   */\n      mload\n        /* \"#utility.yul\":16383:16386   */\n      dup5\n        /* \"#utility.yul\":16377:16381   */\n      dup3\n        /* \"#utility.yul\":16373:16387   */\n      sub\n        /* \"#utility.yul\":16366:16370   */\n      0xe0\n        /* \"#utility.yul\":16361:16364   */\n      dup7\n        /* \"#utility.yul\":16357:16371   */\n      add\n        /* \"#utility.yul\":16350:16388   */\n      mstore\n        /* \"#utility.yul\":16409:16532   */\n      tag_606\n        /* \"#utility.yul\":16527:16531   */\n      dup3\n        /* \"#utility.yul\":16513:16525   */\n      dup3\n        /* \"#utility.yul\":16409:16532   */\n      tag_545\n      jump\t// in\n    tag_606:\n        /* \"#utility.yul\":16401:16532   */\n      swap2\n      pop\n        /* \"#utility.yul\":16251:16543   */\n      pop\n        /* \"#utility.yul\":16560:16564   */\n      dup1\n        /* \"#utility.yul\":16553:16564   */\n      swap2\n      pop\n        /* \"#utility.yul\":14373:16570   */\n      pop\n        /* \"#utility.yul\":14255:16570   */\n      swap3\n      swap2\n      pop\n      pop\n      jump\t// out\n        /* \"#utility.yul\":16638:18963   */\n    tag_607:\n        /* \"#utility.yul\":16761:16764   */\n      0x00\n        /* \"#utility.yul\":16797:16803   */\n      0x0100\n        /* \"#utility.yul\":16792:16795   */\n      dup4\n        /* \"#utility.yul\":16788:16804   */\n      add\n        /* \"#utility.yul\":16891:16895   */\n      0x00\n        /* \"#utility.yul\":16884:16889   */\n      dup4\n        /* \"#utility.yul\":16880:16896   */\n      add\n        /* \"#utility.yul\":16874:16897   */\n      mload\n        /* \"#utility.yul\":16944:16947   */\n      dup5\n        /* \"#utility.yul\":16938:16942   */\n      dup3\n        /* \"#utility.yul\":16934:16948   */\n      sub\n        /* \"#utility.yul\":16927:16931   */\n      0x00\n        /* \"#utility.yul\":16922:16925   */\n      dup7\n        /* \"#utility.yul\":16918:16932   */\n      add\n        /* \"#utility.yul\":16911:16949   */\n      mstore\n        /* \"#utility.yul\":16970:17043   */\n      tag_609\n        /* \"#utility.yul\":17038:17042   */\n      dup3\n        /* \"#utility.yul\":17024:17036   */\n      dup3\n        /* \"#utility.yul\":16970:17043   */\n      tag_533\n      jump\t// in\n    tag_609:\n        /* \"#utility.yul\":16962:17043   */\n      swap2\n      pop\n        /* \"#utility.yul\":16814:17054   */\n      pop\n        /* \"#utility.yul\":17142:17146   */\n      0x20\n        /* \"#utility.yul\":17135:17140   */\n      dup4\n        /* \"#utility.yul\":17131:17147   */\n      add\n        /* \"#utility.yul\":17125:17148   */\n      mload\n        /* \"#utility.yul\":17195:17198   */\n      dup5\n        /* \"#utility.yul\":17189:17193   */\n      dup3\n        /* \"#utility.yul\":17185:17199   */\n      sub\n        /* \"#utility.yul\":17178:17182   */\n      0x20\n        /* \"#utility.yul\":17173:17176   */\n      dup7\n        /* \"#utility.yul\":17169:17183   */\n      add\n        /* \"#utility.yul\":17162:17200   */\n      mstore\n        /* \"#utility.yul\":17221:17294   */\n      tag_610\n        /* \"#utility.yul\":17289:17293   */\n      dup3\n        /* \"#utility.yul\":17275:17287   */\n      dup3\n        /* \"#utility.yul\":17221:17294   */\n      tag_533\n      jump\t// in\n    tag_610:\n        /* \"#utility.yul\":17213:17294   */\n      swap2\n      pop\n        /* \"#utility.yul\":17064:17305   */\n      pop\n        /* \"#utility.yul\":17395:17399   */\n      0x40\n        /* \"#utility.yul\":17388:17393   */\n      dup4\n        /* \"#utility.yul\":17384:17400   */\n      add\n        /* \"#utility.yul\":17378:17401   */\n      mload\n        /* \"#utility.yul\":17414:17475   */\n      tag_611\n        /* \"#utility.yul\":17469:17473   */\n      0x40\n        /* \"#utility.yul\":17464:17467   */\n      dup7\n        /* \"#utility.yul\":17460:17474   */\n      add\n        /* \"#utility.yul\":17446:17458   */\n      dup3\n        /* \"#utility.yul\":17414:17475   */\n      tag_577\n      jump\t// in\n    tag_611:\n        /* \"#utility.yul\":17315:17485   */\n      pop\n        /* \"#utility.yul\":17574:17578   */\n      0x60\n        /* \"#utility.yul\":17567:17572   */\n      dup4\n        /* \"#utility.yul\":17563:17579   */\n      add\n        /* \"#utility.yul\":17557:17580   */\n      mload\n        /* \"#utility.yul\":17627:17630   */\n      dup5\n        /* \"#utility.yul\":17621:17625   */\n      dup3\n        /* \"#utility.yul\":17617:17631   */\n      sub\n        /* \"#utility.yul\":17610:17614   */\n      0x60\n        /* \"#utility.yul\":17605:17608   */\n      dup7\n        /* \"#utility.yul\":17601:17615   */\n      add\n        /* \"#utility.yul\":17594:17632   */\n      mstore\n        /* \"#utility.yul\":17653:17776   */\n      tag_612\n        /* \"#utility.yul\":17771:17775   */\n      dup3\n        /* \"#utility.yul\":17757:17769   */\n      dup3\n        /* \"#utility.yul\":17653:17776   */\n      tag_545\n      jump\t// in\n    tag_612:\n        /* \"#utility.yul\":17645:17776   */\n      swap2\n      pop\n        /* \"#utility.yul\":17495:17787   */\n      pop\n        /* \"#utility.yul\":17873:17877   */\n      0x80\n        /* \"#utility.yul\":17866:17871   */\n      dup4\n        /* \"#utility.yul\":17862:17878   */\n      add\n        /* \"#utility.yul\":17856:17879   */\n      mload\n        /* \"#utility.yul\":17926:17929   */\n      dup5\n        /* \"#utility.yul\":17920:17924   */\n      dup3\n        /* \"#utility.yul\":17916:17930   */\n      sub\n        /* \"#utility.yul\":17909:17913   */\n      0x80\n        /* \"#utility.yul\":17904:17907   */\n      dup7\n        /* \"#utility.yul\":17900:17914   */\n      add\n        /* \"#utility.yul\":17893:17931   */\n      mstore\n        /* \"#utility.yul\":17952:18075   */\n      tag_613\n        /* \"#utility.yul\":18070:18074   */\n      dup3\n        /* \"#utility.yul\":18056:18068   */\n      dup3\n        /* \"#utility.yul\":17952:18075   */\n      tag_545\n      jump\t// in\n    tag_613:\n        /* \"#utility.yul\":17944:18075   */\n      swap2\n      pop\n        /* \"#utility.yul\":17797:18086   */\n      pop\n        /* \"#utility.yul\":18172:18176   */\n      0xa0\n        /* \"#utility.yul\":18165:18170   */\n      dup4\n        /* \"#utility.yul\":18161:18177   */\n      add\n        /* \"#utility.yul\":18155:18178   */\n      mload\n        /* \"#utility.yul\":18225:18228   */\n      dup5\n        /* \"#utility.yul\":18219:18223   */\n      dup3\n        /* \"#utility.yul\":18215:18229   */\n      sub\n        /* \"#utility.yul\":18208:18212   */\n      0xa0\n        /* \"#utility.yul\":18203:18206   */\n      dup7\n        /* \"#utility.yul\":18199:18213   */\n      add\n        /* \"#utility.yul\":18192:18230   */\n      mstore\n        /* \"#utility.yul\":18251:18374   */\n      tag_614\n        /* \"#utility.yul\":18369:18373   */\n      dup3\n        /* \"#utility.yul\":18355:18367   */\n      dup3\n        /* \"#utility.yul\":18251:18374   */\n      tag_545\n      jump\t// in\n    tag_614:\n        /* \"#utility.yul\":18243:18374   */\n      swap2\n      pop\n        /* \"#utility.yul\":18096:18385   */\n      pop\n        /* \"#utility.yul\":18471:18475   */\n      0xc0\n        /* \"#utility.yul\":18464:18469   */\n      dup4\n        /* \"#utility.yul\":18460:18476   */\n      add\n        /* \"#utility.yul\":18454:18477   */\n      mload\n        /* \"#utility.yul\":18524:18527   */\n      dup5\n        /* \"#utility.yul\":18518:18522   */\n      dup3\n        /* \"#utility.yul\":18514:18528   */\n      sub\n        /* \"#utility.yul\":18507:18511   */\n      0xc0\n        /* \"#utility.yul\":18502:18505   */\n      dup7\n        /* \"#utility.yul\":18498:18512   */\n      add\n        /* \"#utility.yul\":18491:18529   */\n      mstore\n        /* \"#utility.yul\":18550:18623   */\n      tag_615\n        /* \"#utility.yul\":18618:18622   */\n      dup3\n        /* \"#utility.yul\":18604:18616   */\n      dup3\n        /* \"#utility.yul\":18550:18623   */\n      tag_533\n      jump\t// in\n    tag_615:\n        /* \"#utility.yul\":18542:18623   */\n      swap2\n      pop\n        /* \"#utility.yul\":18395:18634   */\n      pop\n        /* \"#utility.yul\":18723:18727   */\n      0xe0\n        /* \"#utility.yul\":18716:18721   */\n      dup4\n        /* \"#utility.yul\":18712:18728   */\n      add\n        /* \"#utility.yul\":18706:18729   */\n      mload\n        /* \"#utility.yul\":18776:18779   */\n      dup5\n        /* \"#utility.yul\":18770:18774   */\n      dup3\n        /* \"#utility.yul\":18766:18780   */\n      sub\n        /* \"#utility.yul\":18759:18763   */\n      0xe0\n        /* \"#utility.yul\":18754:18757   */\n      dup7\n        /* \"#utility.yul\":18750:18764   */\n      add\n        /* \"#utility.yul\":18743:18781   */\n      mstore\n        /* \"#utility.yul\":18802:18925   */\n      tag_616\n        /* \"#utility.yul\":18920:18924   */\n      dup3\n        /* \"#utility.yul\":18906:18918   */\n      dup3\n        /* \"#utility.yul\":18802:18925   */\n      tag_545\n      jump\t// in\n    tag_616:\n        /* \"#utility.yul\":18794:18925   */\n      swap2\n      pop\n        /* \"#utility.yul\":18644:18936   */\n      pop\n        /* \"#utility.yul\":18953:18957   */\n      dup1\n        /* \"#utility.yul\":18946:18957   */\n      swap2\n      pop\n        /* \"#utility.yul\":16766:18963   */\n      pop\n        /* \"#utility.yul\":16638:18963   */\n      swap3\n      swap2\n      pop\n      pop\n      jump\t// out\n        /* \"#utility.yul\":19023:20453   */\n    tag_617:\n        /* \"#utility.yul\":19138:19141   */\n      0x00\n        /* \"#utility.yul\":19174:19178   */\n      0xc0\n        /* \"#utility.yul\":19169:19172   */\n      dup4\n        /* \"#utility.yul\":19165:19179   */\n      add\n        /* \"#utility.yul\":19264:19268   */\n      0x00\n        /* \"#utility.yul\":19257:19262   */\n      dup4\n        /* \"#utility.yul\":19253:19269   */\n      add\n        /* \"#utility.yul\":19247:19270   */\n      mload\n        /* \"#utility.yul\":19283:19346   */\n      tag_619\n        /* \"#utility.yul\":19340:19344   */\n      0x00\n        /* \"#utility.yul\":19335:19338   */\n      dup7\n        /* \"#utility.yul\":19331:19345   */\n      add\n        /* \"#utility.yul\":19317:19329   */\n      dup3\n        /* \"#utility.yul\":19283:19346   */\n      tag_537\n      jump\t// in\n    tag_619:\n        /* \"#utility.yul\":19189:19356   */\n      pop\n        /* \"#utility.yul\":19442:19446   */\n      0x20\n        /* \"#utility.yul\":19435:19440   */\n      dup4\n        /* \"#utility.yul\":19431:19447   */\n      add\n        /* \"#utility.yul\":19425:19448   */\n      mload\n        /* \"#utility.yul\":19461:19524   */\n      tag_620\n        /* \"#utility.yul\":19518:19522   */\n      0x20\n        /* \"#utility.yul\":19513:19516   */\n      dup7\n        /* \"#utility.yul\":19509:19523   */\n      add\n        /* \"#utility.yul\":19495:19507   */\n      dup3\n        /* \"#utility.yul\":19461:19524   */\n      tag_538\n      jump\t// in\n    tag_620:\n        /* \"#utility.yul\":19366:19534   */\n      pop\n        /* \"#utility.yul\":19621:19625   */\n      0x40\n        /* \"#utility.yul\":19614:19619   */\n      dup4\n        /* \"#utility.yul\":19610:19626   */\n      add\n        /* \"#utility.yul\":19604:19627   */\n      mload\n        /* \"#utility.yul\":19674:19677   */\n      dup5\n        /* \"#utility.yul\":19668:19672   */\n      dup3\n        /* \"#utility.yul\":19664:19678   */\n      sub\n        /* \"#utility.yul\":19657:19661   */\n      0x40\n        /* \"#utility.yul\":19652:19655   */\n      dup7\n        /* \"#utility.yul\":19648:19662   */\n      add\n        /* \"#utility.yul\":19641:19679   */\n      mstore\n        /* \"#utility.yul\":19700:19773   */\n      tag_621\n        /* \"#utility.yul\":19768:19772   */\n      dup3\n        /* \"#utility.yul\":19754:19766   */\n      dup3\n        /* \"#utility.yul\":19700:19773   */\n      tag_533\n      jump\t// in\n    tag_621:\n        /* \"#utility.yul\":19692:19773   */\n      swap2\n      pop\n        /* \"#utility.yul\":19544:19784   */\n      pop\n        /* \"#utility.yul\":19867:19871   */\n      0x60\n        /* \"#utility.yul\":19860:19865   */\n      dup4\n        /* \"#utility.yul\":19856:19872   */\n      add\n        /* \"#utility.yul\":19850:19873   */\n      mload\n        /* \"#utility.yul\":19886:19949   */\n      tag_622\n        /* \"#utility.yul\":19943:19947   */\n      0x60\n        /* \"#utility.yul\":19938:19941   */\n      dup7\n        /* \"#utility.yul\":19934:19948   */\n      add\n        /* \"#utility.yul\":19920:19932   */\n      dup3\n        /* \"#utility.yul\":19886:19949   */\n      tag_537\n      jump\t// in\n    tag_622:\n        /* \"#utility.yul\":19794:19959   */\n      pop\n        /* \"#utility.yul\":20050:20054   */\n      0x80\n        /* \"#utility.yul\":20043:20048   */\n      dup4\n        /* \"#utility.yul\":20039:20055   */\n      add\n        /* \"#utility.yul\":20033:20056   */\n      mload\n        /* \"#utility.yul\":20069:20132   */\n      tag_623\n        /* \"#utility.yul\":20126:20130   */\n      0x80\n        /* \"#utility.yul\":20121:20124   */\n      dup7\n        /* \"#utility.yul\":20117:20131   */\n      add\n        /* \"#utility.yul\":20103:20115   */\n      dup3\n        /* \"#utility.yul\":20069:20132   */\n      tag_537\n      jump\t// in\n    tag_623:\n        /* \"#utility.yul\":19969:20142   */\n      pop\n        /* \"#utility.yul\":20229:20233   */\n      0xa0\n        /* \"#utility.yul\":20222:20227   */\n      dup4\n        /* \"#utility.yul\":20218:20234   */\n      add\n        /* \"#utility.yul\":20212:20235   */\n      mload\n        /* \"#utility.yul\":20282:20285   */\n      dup5\n        /* \"#utility.yul\":20276:20280   */\n      dup3\n        /* \"#utility.yul\":20272:20286   */\n      sub\n        /* \"#utility.yul\":20265:20269   */\n      0xa0\n        /* \"#utility.yul\":20260:20263   */\n      dup7\n        /* \"#utility.yul\":20256:20270   */\n      add\n        /* \"#utility.yul\":20249:20287   */\n      mstore\n        /* \"#utility.yul\":20308:20415   */\n      tag_624\n        /* \"#utility.yul\":20410:20414   */\n      dup3\n        /* \"#utility.yul\":20396:20408   */\n      dup3\n        /* \"#utility.yul\":20308:20415   */\n      tag_597\n      jump\t// in\n    tag_624:\n        /* \"#utility.yul\":20300:20415   */\n      swap2\n      pop\n        /* \"#utility.yul\":20152:20426   */\n      pop\n        /* \"#utility.yul\":20443:20447   */\n      dup1\n        /* \"#utility.yul\":20436:20447   */\n      swap2\n      pop\n        /* \"#utility.yul\":19143:20453   */\n      pop\n        /* \"#utility.yul\":19023:20453   */\n      swap3\n      swap2\n      pop\n      pop\n      jump\t// out\n        /* \"#utility.yul\":20459:20567   */\n    tag_537:\n        /* \"#utility.yul\":20536:20560   */\n      tag_626\n        /* \"#utility.yul\":20554:20559   */\n      dup2\n        /* \"#utility.yul\":20536:20560   */\n      tag_627\n      jump\t// in\n    tag_626:\n        /* \"#utility.yul\":20531:20534   */\n      dup3\n        /* \"#utility.yul\":20524:20561   */\n      mstore\n        /* \"#utility.yul\":20459:20567   */\n      pop\n      pop\n      jump\t// out\n        /* \"#utility.yul\":20573:20691   */\n    tag_628:\n        /* \"#utility.yul\":20660:20684   */\n      tag_630\n        /* \"#utility.yul\":20678:20683   */\n      dup2\n        /* \"#utility.yul\":20660:20684   */\n      tag_627\n      jump\t// in\n    tag_630:\n        /* \"#utility.yul\":20655:20658   */\n      dup3\n        /* \"#utility.yul\":20648:20685   */\n      mstore\n        /* \"#utility.yul\":20573:20691   */\n      pop\n      pop\n      jump\t// out\n        /* \"#utility.yul\":20697:21472   */\n    tag_179:\n        /* \"#utility.yul\":20930:20934   */\n      0x00\n        /* \"#utility.yul\":20968:20971   */\n      0xc0\n        /* \"#utility.yul\":20957:20966   */\n      dup3\n        /* \"#utility.yul\":20953:20972   */\n      add\n        /* \"#utility.yul\":20945:20972   */\n      swap1\n      pop\n        /* \"#utility.yul\":20982:21053   */\n      tag_632\n        /* \"#utility.yul\":21050:21051   */\n      0x00\n        /* \"#utility.yul\":21039:21048   */\n      dup4\n        /* \"#utility.yul\":21035:21052   */\n      add\n        /* \"#utility.yul\":21026:21032   */\n      dup10\n        /* \"#utility.yul\":20982:21053   */\n      tag_542\n      jump\t// in\n    tag_632:\n        /* \"#utility.yul\":21063:21135   */\n      tag_633\n        /* \"#utility.yul\":21131:21133   */\n      0x20\n        /* \"#utility.yul\":21120:21129   */\n      dup4\n        /* \"#utility.yul\":21116:21134   */\n      add\n        /* \"#utility.yul\":21107:21113   */\n      dup9\n        /* \"#utility.yul\":21063:21135   */\n      tag_542\n      jump\t// in\n    tag_633:\n        /* \"#utility.yul\":21145:21217   */\n      tag_634\n        /* \"#utility.yul\":21213:21215   */\n      0x40\n        /* \"#utility.yul\":21202:21211   */\n      dup4\n        /* \"#utility.yul\":21198:21216   */\n      add\n        /* \"#utility.yul\":21189:21195   */\n      dup8\n        /* \"#utility.yul\":21145:21217   */\n      tag_628\n      jump\t// in\n    tag_634:\n        /* \"#utility.yul\":21227:21299   */\n      tag_635\n        /* \"#utility.yul\":21295:21297   */\n      0x60\n        /* \"#utility.yul\":21284:21293   */\n      dup4\n        /* \"#utility.yul\":21280:21298   */\n      add\n        /* \"#utility.yul\":21271:21277   */\n      dup7\n        /* \"#utility.yul\":21227:21299   */\n      tag_628\n      jump\t// in\n    tag_635:\n        /* \"#utility.yul\":21309:21382   */\n      tag_636\n        /* \"#utility.yul\":21377:21380   */\n      0x80\n        /* \"#utility.yul\":21366:21375   */\n      dup4\n        /* \"#utility.yul\":21362:21381   */\n      add\n        /* \"#utility.yul\":21353:21359   */\n      dup6\n        /* \"#utility.yul\":21309:21382   */\n      tag_628\n      jump\t// in\n    tag_636:\n        /* \"#utility.yul\":21392:21465   */\n      tag_637\n        /* \"#utility.yul\":21460:21463   */\n      0xa0\n        /* \"#utility.yul\":21449:21458   */\n      dup4\n        /* \"#utility.yul\":21445:21464   */\n      add\n        /* \"#utility.yul\":21436:21442   */\n      dup5\n        /* \"#utility.yul\":21392:21465   */\n      tag_628\n      jump\t// in\n    tag_637:\n        /* \"#utility.yul\":20697:21472   */\n      swap8\n      swap7\n      pop\n      pop\n      pop\n      pop\n      pop\n      pop\n      pop\n      jump\t// out\n        /* \"#utility.yul\":21478:23026   */\n    tag_202:\n        /* \"#utility.yul\":21915:21919   */\n      0x00\n        /* \"#utility.yul\":21953:21956   */\n      0x0260\n        /* \"#utility.yul\":21942:21951   */\n      dup3\n        /* \"#utility.yul\":21938:21957   */\n      add\n        /* \"#utility.yul\":21930:21957   */\n      swap1\n      pop\n        /* \"#utility.yul\":21967:22038   */\n      tag_639\n        /* \"#utility.yul\":22035:22036   */\n      0x00\n        /* \"#utility.yul\":22024:22033   */\n      dup4\n        /* \"#utility.yul\":22020:22037   */\n      add\n        /* \"#utility.yul\":22011:22017   */\n      dup12\n        /* \"#utility.yul\":21967:22038   */\n      tag_542\n      jump\t// in\n    tag_639:\n        /* \"#utility.yul\":22085:22094   */\n      dup2\n        /* \"#utility.yul\":22079:22083   */\n      dup2\n        /* \"#utility.yul\":22075:22095   */\n      sub\n        /* \"#utility.yul\":22070:22072   */\n      0x20\n        /* \"#utility.yul\":22059:22068   */\n      dup4\n        /* \"#utility.yul\":22055:22073   */\n      add\n        /* \"#utility.yul\":22048:22096   */\n      mstore\n        /* \"#utility.yul\":22113:22191   */\n      tag_640\n        /* \"#utility.yul\":22186:22190   */\n      dup2\n        /* \"#utility.yul\":22177:22183   */\n      dup11\n        /* \"#utility.yul\":22113:22191   */\n      tag_590\n      jump\t// in\n    tag_640:\n        /* \"#utility.yul\":22105:22191   */\n      swap1\n      pop\n        /* \"#utility.yul\":22238:22247   */\n      dup2\n        /* \"#utility.yul\":22232:22236   */\n      dup2\n        /* \"#utility.yul\":22228:22248   */\n      sub\n        /* \"#utility.yul\":22223:22225   */\n      0x40\n        /* \"#utility.yul\":22212:22221   */\n      dup4\n        /* \"#utility.yul\":22208:22226   */\n      add\n        /* \"#utility.yul\":22201:22249   */\n      mstore\n        /* \"#utility.yul\":22266:22344   */\n      tag_641\n        /* \"#utility.yul\":22339:22343   */\n      dup2\n        /* \"#utility.yul\":22330:22336   */\n      dup10\n        /* \"#utility.yul\":22266:22344   */\n      tag_590\n      jump\t// in\n    tag_641:\n        /* \"#utility.yul\":22258:22344   */\n      swap1\n      pop\n        /* \"#utility.yul\":22391:22400   */\n      dup2\n        /* \"#utility.yul\":22385:22389   */\n      dup2\n        /* \"#utility.yul\":22381:22401   */\n      sub\n        /* \"#utility.yul\":22376:22378   */\n      0x60\n        /* \"#utility.yul\":22365:22374   */\n      dup4\n        /* \"#utility.yul\":22361:22379   */\n      add\n        /* \"#utility.yul\":22354:22402   */\n      mstore\n        /* \"#utility.yul\":22419:22497   */\n      tag_642\n        /* \"#utility.yul\":22492:22496   */\n      dup2\n        /* \"#utility.yul\":22483:22489   */\n      dup9\n        /* \"#utility.yul\":22419:22497   */\n      tag_590\n      jump\t// in\n    tag_642:\n        /* \"#utility.yul\":22411:22497   */\n      swap1\n      pop\n        /* \"#utility.yul\":22545:22554   */\n      dup2\n        /* \"#utility.yul\":22539:22543   */\n      dup2\n        /* \"#utility.yul\":22535:22555   */\n      sub\n        /* \"#utility.yul\":22529:22532   */\n      0x80\n        /* \"#utility.yul\":22518:22527   */\n      dup4\n        /* \"#utility.yul\":22514:22533   */\n      add\n        /* \"#utility.yul\":22507:22556   */\n      mstore\n        /* \"#utility.yul\":22573:22651   */\n      tag_643\n        /* \"#utility.yul\":22646:22650   */\n      dup2\n        /* \"#utility.yul\":22637:22643   */\n      dup8\n        /* \"#utility.yul\":22573:22651   */\n      tag_590\n      jump\t// in\n    tag_643:\n        /* \"#utility.yul\":22565:22651   */\n      swap1\n      pop\n        /* \"#utility.yul\":22661:22734   */\n      tag_644\n        /* \"#utility.yul\":22729:22732   */\n      0xa0\n        /* \"#utility.yul\":22718:22727   */\n      dup4\n        /* \"#utility.yul\":22714:22733   */\n      add\n        /* \"#utility.yul\":22705:22711   */\n      dup7\n        /* \"#utility.yul\":22661:22734   */\n      tag_628\n      jump\t// in\n    tag_644:\n        /* \"#utility.yul\":22744:22865   */\n      tag_645\n        /* \"#utility.yul\":22860:22863   */\n      0xc0\n        /* \"#utility.yul\":22849:22858   */\n      dup4\n        /* \"#utility.yul\":22845:22864   */\n      add\n        /* \"#utility.yul\":22836:22842   */\n      dup6\n        /* \"#utility.yul\":22744:22865   */\n      tag_559\n      jump\t// in\n    tag_645:\n        /* \"#utility.yul\":22913:22922   */\n      dup2\n        /* \"#utility.yul\":22907:22911   */\n      dup2\n        /* \"#utility.yul\":22903:22923   */\n      sub\n        /* \"#utility.yul\":22897:22900   */\n      0x0240\n        /* \"#utility.yul\":22886:22895   */\n      dup4\n        /* \"#utility.yul\":22882:22901   */\n      add\n        /* \"#utility.yul\":22875:22924   */\n      mstore\n        /* \"#utility.yul\":22941:23019   */\n      tag_646\n        /* \"#utility.yul\":23014:23018   */\n      dup2\n        /* \"#utility.yul\":23005:23011   */\n      dup5\n        /* \"#utility.yul\":22941:23019   */\n      tag_590\n      jump\t// in\n    tag_646:\n        /* \"#utility.yul\":22933:23019   */\n      swap1\n      pop\n        /* \"#utility.yul\":21478:23026   */\n      swap10\n      swap9\n      pop\n      pop\n      pop\n      pop\n      pop\n      pop\n      pop\n      pop\n      pop\n      jump\t// out\n        /* \"#utility.yul\":23032:24373   */\n    tag_43:\n        /* \"#utility.yul\":23393:23397   */\n      0x00\n        /* \"#utility.yul\":23431:23434   */\n      0xe0\n        /* \"#utility.yul\":23420:23429   */\n      dup3\n        /* \"#utility.yul\":23416:23435   */\n      add\n        /* \"#utility.yul\":23408:23435   */\n      swap1\n      pop\n        /* \"#utility.yul\":23445:23516   */\n      tag_648\n        /* \"#utility.yul\":23513:23514   */\n      0x00\n        /* \"#utility.yul\":23502:23511   */\n      dup4\n        /* \"#utility.yul\":23498:23515   */\n      add\n        /* \"#utility.yul\":23489:23495   */\n      dup11\n        /* \"#utility.yul\":23445:23516   */\n      tag_542\n      jump\t// in\n    tag_648:\n        /* \"#utility.yul\":23563:23572   */\n      dup2\n        /* \"#utility.yul\":23557:23561   */\n      dup2\n        /* \"#utility.yul\":23553:23573   */\n      sub\n        /* \"#utility.yul\":23548:23550   */\n      0x20\n        /* \"#utility.yul\":23537:23546   */\n      dup4\n        /* \"#utility.yul\":23533:23551   */\n      add\n        /* \"#utility.yul\":23526:23574   */\n      mstore\n        /* \"#utility.yul\":23591:23669   */\n      tag_649\n        /* \"#utility.yul\":23664:23668   */\n      dup2\n        /* \"#utility.yul\":23655:23661   */\n      dup10\n        /* \"#utility.yul\":23591:23669   */\n      tag_590\n      jump\t// in\n    tag_649:\n        /* \"#utility.yul\":23583:23669   */\n      swap1\n      pop\n        /* \"#utility.yul\":23716:23725   */\n      dup2\n        /* \"#utility.yul\":23710:23714   */\n      dup2\n        /* \"#utility.yul\":23706:23726   */\n      sub\n        /* \"#utility.yul\":23701:23703   */\n      0x40\n        /* \"#utility.yul\":23690:23699   */\n      dup4\n        /* \"#utility.yul\":23686:23704   */\n      add\n        /* \"#utility.yul\":23679:23727   */\n      mstore\n        /* \"#utility.yul\":23744:23822   */\n      tag_650\n        /* \"#utility.yul\":23817:23821   */\n      dup2\n        /* \"#utility.yul\":23808:23814   */\n      dup9\n        /* \"#utility.yul\":23744:23822   */\n      tag_590\n      jump\t// in\n    tag_650:\n        /* \"#utility.yul\":23736:23822   */\n      swap1\n      pop\n        /* \"#utility.yul\":23869:23878   */\n      dup2\n        /* \"#utility.yul\":23863:23867   */\n      dup2\n        /* \"#utility.yul\":23859:23879   */\n      sub\n        /* \"#utility.yul\":23854:23856   */\n      0x60\n        /* \"#utility.yul\":23843:23852   */\n      dup4\n        /* \"#utility.yul\":23839:23857   */\n      add\n        /* \"#utility.yul\":23832:23880   */\n      mstore\n        /* \"#utility.yul\":23897:23975   */\n      tag_651\n        /* \"#utility.yul\":23970:23974   */\n      dup2\n        /* \"#utility.yul\":23961:23967   */\n      dup8\n        /* \"#utility.yul\":23897:23975   */\n      tag_590\n      jump\t// in\n    tag_651:\n        /* \"#utility.yul\":23889:23975   */\n      swap1\n      pop\n        /* \"#utility.yul\":24023:24032   */\n      dup2\n        /* \"#utility.yul\":24017:24021   */\n      dup2\n        /* \"#utility.yul\":24013:24033   */\n      sub\n        /* \"#utility.yul\":24007:24010   */\n      0x80\n        /* \"#utility.yul\":23996:24005   */\n      dup4\n        /* \"#utility.yul\":23992:24011   */\n      add\n        /* \"#utility.yul\":23985:24034   */\n      mstore\n        /* \"#utility.yul\":24051:24129   */\n      tag_652\n        /* \"#utility.yul\":24124:24128   */\n      dup2\n        /* \"#utility.yul\":24115:24121   */\n      dup7\n        /* \"#utility.yul\":24051:24129   */\n      tag_590\n      jump\t// in\n    tag_652:\n        /* \"#utility.yul\":24043:24129   */\n      swap1\n      pop\n        /* \"#utility.yul\":24139:24212   */\n      tag_653\n        /* \"#utility.yul\":24207:24210   */\n      0xa0\n        /* \"#utility.yul\":24196:24205   */\n      dup4\n        /* \"#utility.yul\":24192:24211   */\n      add\n        /* \"#utility.yul\":24183:24189   */\n      dup6\n        /* \"#utility.yul\":24139:24212   */\n      tag_628\n      jump\t// in\n    tag_653:\n        /* \"#utility.yul\":24260:24269   */\n      dup2\n        /* \"#utility.yul\":24254:24258   */\n      dup2\n        /* \"#utility.yul\":24250:24270   */\n      sub\n        /* \"#utility.yul\":24244:24247   */\n      0xc0\n        /* \"#utility.yul\":24233:24242   */\n      dup4\n        /* \"#utility.yul\":24229:24248   */\n      add\n        /* \"#utility.yul\":24222:24271   */\n      mstore\n        /* \"#utility.yul\":24288:24366   */\n      tag_654\n        /* \"#utility.yul\":24361:24365   */\n      dup2\n        /* \"#utility.yul\":24352:24358   */\n      dup5\n        /* \"#utility.yul\":24288:24366   */\n      tag_590\n      jump\t// in\n    tag_654:\n        /* \"#utility.yul\":24280:24366   */\n      swap1\n      pop\n        /* \"#utility.yul\":23032:24373   */\n      swap9\n      swap8\n      pop\n      pop\n      pop\n      pop\n      pop\n      pop\n      pop\n      pop\n      jump\t// out\n        /* \"#utility.yul\":24379:24589   */\n    tag_29:\n        /* \"#utility.yul\":24466:24470   */\n      0x00\n        /* \"#utility.yul\":24504:24506   */\n      0x20\n        /* \"#utility.yul\":24493:24502   */\n      dup3\n        /* \"#utility.yul\":24489:24507   */\n      add\n        /* \"#utility.yul\":24481:24507   */\n      swap1\n      pop\n        /* \"#utility.yul\":24517:24582   */\n      tag_656\n        /* \"#utility.yul\":24579:24580   */\n      0x00\n        /* \"#utility.yul\":24568:24577   */\n      dup4\n        /* \"#utility.yul\":24564:24581   */\n      add\n        /* \"#utility.yul\":24555:24561   */\n      dup5\n        /* \"#utility.yul\":24517:24582   */\n      tag_573\n      jump\t// in\n    tag_656:\n        /* \"#utility.yul\":24379:24589   */\n      swap3\n      swap2\n      pop\n      pop\n      jump\t// out\n        /* \"#utility.yul\":24595:24960   */\n    tag_66:\n        /* \"#utility.yul\":24734:24738   */\n      0x00\n        /* \"#utility.yul\":24772:24774   */\n      0x20\n        /* \"#utility.yul\":24761:24770   */\n      dup3\n        /* \"#utility.yul\":24757:24775   */\n      add\n        /* \"#utility.yul\":24749:24775   */\n      swap1\n      pop\n        /* \"#utility.yul\":24821:24830   */\n      dup2\n        /* \"#utility.yul\":24815:24819   */\n      dup2\n        /* \"#utility.yul\":24811:24831   */\n      sub\n        /* \"#utility.yul\":24807:24808   */\n      0x00\n        /* \"#utility.yul\":24796:24805   */\n      dup4\n        /* \"#utility.yul\":24792:24809   */\n      add\n        /* \"#utility.yul\":24785:24832   */\n      mstore\n        /* \"#utility.yul\":24849:24953   */\n      tag_658\n        /* \"#utility.yul\":24948:24952   */\n      dup2\n        /* \"#utility.yul\":24939:24945   */\n      dup5\n        /* \"#utility.yul\":24849:24953   */\n      tag_617\n      jump\t// in\n    tag_658:\n        /* \"#utility.yul\":24841:24953   */\n      swap1\n      pop\n        /* \"#utility.yul\":24595:24960   */\n      swap3\n      swap2\n      pop\n      pop\n      jump\t// out\n        /* \"#utility.yul\":24966:25188   */\n    tag_20:\n        /* \"#utility.yul\":25059:25063   */\n      0x00\n        /* \"#utility.yul\":25097:25099   */\n      0x20\n        /* \"#utility.yul\":25086:25095   */\n      dup3\n        /* \"#utility.yul\":25082:25100   */\n      add\n        /* \"#utility.yul\":25074:25100   */\n      swap1\n      pop\n        /* \"#utility.yul\":25110:25181   */\n      tag_660\n        /* \"#utility.yul\":25178:25179   */\n      0x00\n        /* \"#utility.yul\":25167:25176   */\n      dup4\n        /* \"#utility.yul\":25163:25180   */\n      add\n        /* \"#utility.yul\":25154:25160   */\n      dup5\n        /* \"#utility.yul\":25110:25181   */\n      tag_628\n      jump\t// in\n    tag_660:\n        /* \"#utility.yul\":24966:25188   */\n      swap3\n      swap2\n      pop\n      pop\n      jump\t// out\n        /* \"#utility.yul\":25194:26219   */\n    tag_48:\n        /* \"#utility.yul\":25501:25505   */\n      0x00\n        /* \"#utility.yul\":25539:25542   */\n      0xc0\n        /* \"#utility.yul\":25528:25537   */\n      dup3\n        /* \"#utility.yul\":25524:25543   */\n      add\n        /* \"#utility.yul\":25516:25543   */\n      swap1\n      pop\n        /* \"#utility.yul\":25553:25624   */\n      tag_662\n        /* \"#utility.yul\":25621:25622   */\n      0x00\n        /* \"#utility.yul\":25610:25619   */\n      dup4\n        /* \"#utility.yul\":25606:25623   */\n      add\n        /* \"#utility.yul\":25597:25603   */\n      dup10\n        /* \"#utility.yul\":25553:25624   */\n      tag_628\n      jump\t// in\n    tag_662:\n        /* \"#utility.yul\":25634:25706   */\n      tag_663\n        /* \"#utility.yul\":25702:25704   */\n      0x20\n        /* \"#utility.yul\":25691:25700   */\n      dup4\n        /* \"#utility.yul\":25687:25705   */\n      add\n        /* \"#utility.yul\":25678:25684   */\n      dup9\n        /* \"#utility.yul\":25634:25706   */\n      tag_542\n      jump\t// in\n    tag_663:\n        /* \"#utility.yul\":25753:25762   */\n      dup2\n        /* \"#utility.yul\":25747:25751   */\n      dup2\n        /* \"#utility.yul\":25743:25763   */\n      sub\n        /* \"#utility.yul\":25738:25740   */\n      0x40\n        /* \"#utility.yul\":25727:25736   */\n      dup4\n        /* \"#utility.yul\":25723:25741   */\n      add\n        /* \"#utility.yul\":25716:25764   */\n      mstore\n        /* \"#utility.yul\":25781:25859   */\n      tag_664\n        /* \"#utility.yul\":25854:25858   */\n      dup2\n        /* \"#utility.yul\":25845:25851   */\n      dup8\n        /* \"#utility.yul\":25781:25859   */\n      tag_590\n      jump\t// in\n    tag_664:\n        /* \"#utility.yul\":25773:25859   */\n      swap1\n      pop\n        /* \"#utility.yul\":25869:25941   */\n      tag_665\n        /* \"#utility.yul\":25937:25939   */\n      0x60\n        /* \"#utility.yul\":25926:25935   */\n      dup4\n        /* \"#utility.yul\":25922:25940   */\n      add\n        /* \"#utility.yul\":25913:25919   */\n      dup7\n        /* \"#utility.yul\":25869:25941   */\n      tag_628\n      jump\t// in\n    tag_665:\n        /* \"#utility.yul\":25951:26024   */\n      tag_666\n        /* \"#utility.yul\":26019:26022   */\n      0x80\n        /* \"#utility.yul\":26008:26017   */\n      dup4\n        /* \"#utility.yul\":26004:26023   */\n      add\n        /* \"#utility.yul\":25995:26001   */\n      dup6\n        /* \"#utility.yul\":25951:26024   */\n      tag_628\n      jump\t// in\n    tag_666:\n        /* \"#utility.yul\":26072:26081   */\n      dup2\n        /* \"#utility.yul\":26066:26070   */\n      dup2\n        /* \"#utility.yul\":26062:26082   */\n      sub\n        /* \"#utility.yul\":26056:26059   */\n      0xa0\n        /* \"#utility.yul\":26045:26054   */\n      dup4\n        /* \"#utility.yul\":26041:26060   */\n      add\n        /* \"#utility.yul\":26034:26083   */\n      mstore\n        /* \"#utility.yul\":26100:26212   */\n      tag_667\n        /* \"#utility.yul\":26207:26211   */\n      dup2\n        /* \"#utility.yul\":26198:26204   */\n      dup5\n        /* \"#utility.yul\":26100:26212   */\n      tag_607\n      jump\t// in\n    tag_667:\n        /* \"#utility.yul\":26092:26212   */\n      swap1\n      pop\n        /* \"#utility.yul\":25194:26219   */\n      swap8\n      swap7\n      pop\n      pop\n      pop\n      pop\n      pop\n      pop\n      pop\n      jump\t// out\n        /* \"#utility.yul\":26225:26354   */\n    tag_401:\n        /* \"#utility.yul\":26259:26265   */\n      0x00\n        /* \"#utility.yul\":26286:26306   */\n      tag_669\n      tag_670\n      jump\t// in\n    tag_669:\n        /* \"#utility.yul\":26276:26306   */\n      swap1\n      pop\n        /* \"#utility.yul\":26315:26348   */\n      tag_671\n        /* \"#utility.yul\":26343:26347   */\n      dup3\n        /* \"#utility.yul\":26335:26341   */\n      dup3\n        /* \"#utility.yul\":26315:26348   */\n      tag_672\n      jump\t// in\n    tag_671:\n        /* \"#utility.yul\":26225:26354   */\n      swap2\n      swap1\n      pop\n      jump\t// out\n        /* \"#utility.yul\":26360:26435   */\n    tag_670:\n        /* \"#utility.yul\":26393:26399   */\n      0x00\n        /* \"#utility.yul\":26426:26428   */\n      0x40\n        /* \"#utility.yul\":26420:26429   */\n      mload\n        /* \"#utility.yul\":26410:26429   */\n      swap1\n      pop\n        /* \"#utility.yul\":26360:26435   */\n      swap1\n      jump\t// out\n        /* \"#utility.yul\":26441:26762   */\n    tag_400:\n        /* \"#utility.yul\":26528:26532   */\n      0x00\n        /* \"#utility.yul\":26618:26636   */\n      0xffffffffffffffff\n        /* \"#utility.yul\":26610:26616   */\n      dup3\n        /* \"#utility.yul\":26607:26637   */\n      gt\n        /* \"#utility.yul\":26604:26660   */\n      iszero\n      tag_675\n      jumpi\n        /* \"#utility.yul\":26640:26658   */\n      tag_676\n      tag_677\n      jump\t// in\n    tag_676:\n        /* \"#utility.yul\":26604:26660   */\n    tag_675:\n        /* \"#utility.yul\":26690:26694   */\n      0x20\n        /* \"#utility.yul\":26682:26688   */\n      dup3\n        /* \"#utility.yul\":26678:26695   */\n      mul\n        /* \"#utility.yul\":26670:26695   */\n      swap1\n      pop\n        /* \"#utility.yul\":26750:26754   */\n      0x20\n        /* \"#utility.yul\":26744:26748   */\n      dup2\n        /* \"#utility.yul\":26740:26755   */\n      add\n        /* \"#utility.yul\":26732:26755   */\n      swap1\n      pop\n        /* \"#utility.yul\":26441:26762   */\n      swap2\n      swap1\n      pop\n      jump\t// out\n        /* \"#utility.yul\":26768:27018   */\n    tag_417:\n        /* \"#utility.yul\":26844:26848   */\n      0x00\n        /* \"#utility.yul\":26934:26952   */\n      0xffffffffffffffff\n        /* \"#utility.yul\":26926:26932   */\n      dup3\n        /* \"#utility.yul\":26923:26953   */\n      gt\n        /* \"#utility.yul\":26920:26976   */\n      iszero\n      tag_679\n      jumpi\n        /* \"#utility.yul\":26956:26974   */\n      tag_680\n      tag_677\n      jump\t// in\n    tag_680:\n        /* \"#utility.yul\":26920:26976   */\n    tag_679:\n        /* \"#utility.yul\":27006:27010   */\n      0x20\n        /* \"#utility.yul\":26998:27004   */\n      dup3\n        /* \"#utility.yul\":26994:27011   */\n      mul\n        /* \"#utility.yul\":26986:27011   */\n      swap1\n      pop\n        /* \"#utility.yul\":26768:27018   */\n      swap2\n      swap1\n      pop\n      jump\t// out\n        /* \"#utility.yul\":27024:27332   */\n    tag_429:\n        /* \"#utility.yul\":27086:27090   */\n      0x00\n        /* \"#utility.yul\":27176:27194   */\n      0xffffffffffffffff\n        /* \"#utility.yul\":27168:27174   */\n      dup3\n        /* \"#utility.yul\":27165:27195   */\n      gt\n        /* \"#utility.yul\":27162:27218   */\n      iszero\n      tag_682\n      jumpi\n        /* \"#utility.yul\":27198:27216   */\n      tag_683\n      tag_677\n      jump\t// in\n    tag_683:\n        /* \"#utility.yul\":27162:27218   */\n    tag_682:\n        /* \"#utility.yul\":27236:27265   */\n      tag_684\n        /* \"#utility.yul\":27258:27264   */\n      dup3\n        /* \"#utility.yul\":27236:27265   */\n      tag_589\n      jump\t// in\n    tag_684:\n        /* \"#utility.yul\":27228:27265   */\n      swap1\n      pop\n        /* \"#utility.yul\":27320:27324   */\n      0x20\n        /* \"#utility.yul\":27314:27318   */\n      dup2\n        /* \"#utility.yul\":27310:27325   */\n      add\n        /* \"#utility.yul\":27302:27325   */\n      swap1\n      pop\n        /* \"#utility.yul\":27024:27332   */\n      swap2\n      swap1\n      pop\n      jump\t// out\n        /* \"#utility.yul\":27338:27480   */\n    tag_552:\n        /* \"#utility.yul\":27415:27419   */\n      0x00\n        /* \"#utility.yul\":27438:27441   */\n      dup2\n        /* \"#utility.yul\":27430:27441   */\n      swap1\n      pop\n        /* \"#utility.yul\":27468:27472   */\n      0x20\n        /* \"#utility.yul\":27463:27466   */\n      dup3\n        /* \"#utility.yul\":27459:27473   */\n      add\n        /* \"#utility.yul\":27451:27473   */\n      swap1\n      pop\n        /* \"#utility.yul\":27338:27480   */\n      swap2\n      swap1\n      pop\n      jump\t// out\n        /* \"#utility.yul\":27486:27585   */\n    tag_566:\n        /* \"#utility.yul\":27552:27556   */\n      0x00\n        /* \"#utility.yul\":27575:27578   */\n      dup2\n        /* \"#utility.yul\":27567:27578   */\n      swap1\n      pop\n        /* \"#utility.yul\":27486:27585   */\n      swap2\n      swap1\n      pop\n      jump\t// out\n        /* \"#utility.yul\":27591:27715   */\n    tag_548:\n        /* \"#utility.yul\":27668:27674   */\n      0x00\n        /* \"#utility.yul\":27702:27707   */\n      dup2\n        /* \"#utility.yul\":27696:27708   */\n      mload\n        /* \"#utility.yul\":27686:27708   */\n      swap1\n      pop\n        /* \"#utility.yul\":27591:27715   */\n      swap2\n      swap1\n      pop\n      jump\t// out\n        /* \"#utility.yul\":27721:27826   */\n    tag_562:\n        /* \"#utility.yul\":27787:27793   */\n      0x00\n        /* \"#utility.yul\":27815:27819   */\n      0x0c\n        /* \"#utility.yul\":27805:27819   */\n      swap1\n      pop\n        /* \"#utility.yul\":27721:27826   */\n      swap2\n      swap1\n      pop\n      jump\t// out\n        /* \"#utility.yul\":27832:27931   */\n    tag_583:\n        /* \"#utility.yul\":27884:27890   */\n      0x00\n        /* \"#utility.yul\":27918:27923   */\n      dup2\n        /* \"#utility.yul\":27912:27924   */\n      mload\n        /* \"#utility.yul\":27902:27924   */\n      swap1\n      pop\n        /* \"#utility.yul\":27832:27931   */\n      swap2\n      swap1\n      pop\n      jump\t// out\n        /* \"#utility.yul\":27937:28060   */\n    tag_558:\n        /* \"#utility.yul\":28017:28021   */\n      0x00\n        /* \"#utility.yul\":28049:28053   */\n      0x20\n        /* \"#utility.yul\":28044:28047   */\n      dup3\n        /* \"#utility.yul\":28040:28054   */\n      add\n        /* \"#utility.yul\":28032:28054   */\n      swap1\n      pop\n        /* \"#utility.yul\":27937:28060   */\n      swap2\n      swap1\n      pop\n      jump\t// out\n        /* \"#utility.yul\":28066:28178   */\n    tag_572:\n        /* \"#utility.yul\":28135:28139   */\n      0x00\n        /* \"#utility.yul\":28167:28171   */\n      0x20\n        /* \"#utility.yul\":28162:28165   */\n      dup3\n        /* \"#utility.yul\":28158:28172   */\n      add\n        /* \"#utility.yul\":28150:28172   */\n      swap1\n      pop\n        /* \"#utility.yul\":28066:28178   */\n      swap2\n      swap1\n      pop\n      jump\t// out\n        /* \"#utility.yul\":28184:28368   */\n    tag_550:\n        /* \"#utility.yul\":28283:28294   */\n      0x00\n        /* \"#utility.yul\":28317:28323   */\n      dup3\n        /* \"#utility.yul\":28312:28315   */\n      dup3\n        /* \"#utility.yul\":28305:28324   */\n      mstore\n        /* \"#utility.yul\":28357:28361   */\n      0x20\n        /* \"#utility.yul\":28352:28355   */\n      dup3\n        /* \"#utility.yul\":28348:28362   */\n      add\n        /* \"#utility.yul\":28333:28362   */\n      swap1\n      pop\n        /* \"#utility.yul\":28184:28368   */\n      swap3\n      swap2\n      pop\n      pop\n      jump\t// out\n        /* \"#utility.yul\":28374:28518   */\n    tag_564:\n        /* \"#utility.yul\":28472:28483   */\n      0x00\n        /* \"#utility.yul\":28509:28512   */\n      dup2\n        /* \"#utility.yul\":28494:28512   */\n      swap1\n      pop\n        /* \"#utility.yul\":28374:28518   */\n      swap3\n      swap2\n      pop\n      pop\n      jump\t// out\n        /* \"#utility.yul\":28524:28683   */\n    tag_585:\n        /* \"#utility.yul\":28598:28609   */\n      0x00\n        /* \"#utility.yul\":28632:28638   */\n      dup3\n        /* \"#utility.yul\":28627:28630   */\n      dup3\n        /* \"#utility.yul\":28620:28639   */\n      mstore\n        /* \"#utility.yul\":28672:28676   */\n      0x20\n        /* \"#utility.yul\":28667:28670   */\n      dup3\n        /* \"#utility.yul\":28663:28677   */\n      add\n        /* \"#utility.yul\":28648:28677   */\n      swap1\n      pop\n        /* \"#utility.yul\":28524:28683   */\n      swap3\n      swap2\n      pop\n      pop\n      jump\t// out\n        /* \"#utility.yul\":28689:28858   */\n    tag_594:\n        /* \"#utility.yul\":28773:28784   */\n      0x00\n        /* \"#utility.yul\":28807:28813   */\n      dup3\n        /* \"#utility.yul\":28802:28805   */\n      dup3\n        /* \"#utility.yul\":28795:28814   */\n      mstore\n        /* \"#utility.yul\":28847:28851   */\n      0x20\n        /* \"#utility.yul\":28842:28845   */\n      dup3\n        /* \"#utility.yul\":28838:28852   */\n      add\n        /* \"#utility.yul\":28823:28852   */\n      swap1\n      pop\n        /* \"#utility.yul\":28689:28858   */\n      swap3\n      swap2\n      pop\n      pop\n      jump\t// out\n        /* \"#utility.yul\":28864:29169   */\n    tag_288:\n        /* \"#utility.yul\":28904:28907   */\n      0x00\n        /* \"#utility.yul\":28923:28943   */\n      tag_697\n        /* \"#utility.yul\":28941:28942   */\n      dup3\n        /* \"#utility.yul\":28923:28943   */\n      tag_627\n      jump\t// in\n    tag_697:\n        /* \"#utility.yul\":28918:28943   */\n      swap2\n      pop\n        /* \"#utility.yul\":28957:28977   */\n      tag_698\n        /* \"#utility.yul\":28975:28976   */\n      dup4\n        /* \"#utility.yul\":28957:28977   */\n      tag_627\n      jump\t// in\n    tag_698:\n        /* \"#utility.yul\":28952:28977   */\n      swap3\n      pop\n        /* \"#utility.yul\":29111:29112   */\n      dup3\n        /* \"#utility.yul\":29043:29109   */\n      0xffffffffffffffffffffffffffffffffffffffffffffffffffffffffffffffff\n        /* \"#utility.yul\":29039:29113   */\n      sub\n        /* \"#utility.yul\":29036:29037   */\n      dup3\n        /* \"#utility.yul\":29033:29114   */\n      gt\n        /* \"#utility.yul\":29030:29137   */\n      iszero\n      tag_699\n      jumpi\n        /* \"#utility.yul\":29117:29135   */\n      tag_700\n      tag_701\n      jump\t// in\n    tag_700:\n        /* \"#utility.yul\":29030:29137   */\n    tag_699:\n        /* \"#utility.yul\":29161:29162   */\n      dup3\n        /* \"#utility.yul\":29158:29159   */\n      dup3\n        /* \"#utility.yul\":29154:29163   */\n      add\n        /* \"#utility.yul\":29147:29163   */\n      swap1\n      pop\n        /* \"#utility.yul\":28864:29169   */\n      swap3\n      swap2\n      pop\n      pop\n      jump\t// out\n        /* \"#utility.yul\":29175:29523   */\n    tag_80:\n        /* \"#utility.yul\":29215:29222   */\n      0x00\n        /* \"#utility.yul\":29238:29258   */\n      tag_703\n        /* \"#utility.yul\":29256:29257   */\n      dup3\n        /* \"#utility.yul\":29238:29258   */\n      tag_627\n      jump\t// in\n    tag_703:\n        /* \"#utility.yul\":29233:29258   */\n      swap2\n      pop\n        /* \"#utility.yul\":29272:29292   */\n      tag_704\n        /* \"#utility.yul\":29290:29291   */\n      dup4\n        /* \"#utility.yul\":29272:29292   */\n      tag_627\n      jump\t// in\n    tag_704:\n        /* \"#utility.yul\":29267:29292   */\n      swap3\n      pop\n        /* \"#utility.yul\":29460:29461   */\n      dup2\n        /* \"#utility.yul\":29392:29458   */\n      0xffffffffffffffffffffffffffffffffffffffffffffffffffffffffffffffff\n        /* \"#utility.yul\":29388:29462   */\n      div\n        /* \"#utility.yul\":29385:29386   */\n      dup4\n        /* \"#utility.yul\":29382:29463   */\n      gt\n        /* \"#utility.yul\":29377:29378   */\n      dup3\n        /* \"#utility.yul\":29370:29379   */\n      iszero\n        /* \"#utility.yul\":29363:29380   */\n      iszero\n        /* \"#utility.yul\":29359:29464   */\n      and\n        /* \"#utility.yul\":29356:29487   */\n      iszero\n      tag_705\n      jumpi\n        /* \"#utility.yul\":29467:29485   */\n      tag_706\n      tag_701\n      jump\t// in\n    tag_706:\n        /* \"#utility.yul\":29356:29487   */\n    tag_705:\n        /* \"#utility.yul\":29515:29516   */\n      dup3\n        /* \"#utility.yul\":29512:29513   */\n      dup3\n        /* \"#utility.yul\":29508:29517   */\n      mul\n        /* \"#utility.yul\":29497:29517   */\n      swap1\n      pop\n        /* \"#utility.yul\":29175:29523   */\n      swap3\n      swap2\n      pop\n      pop\n      jump\t// out\n        /* \"#utility.yul\":29529:29720   */\n    tag_90:\n        /* \"#utility.yul\":29569:29573   */\n      0x00\n        /* \"#utility.yul\":29589:29609   */\n      tag_708\n        /* \"#utility.yul\":29607:29608   */\n      dup3\n        /* \"#utility.yul\":29589:29609   */\n      tag_627\n      jump\t// in\n    tag_708:\n        /* \"#utility.yul\":29584:29609   */\n      swap2\n      pop\n        /* \"#utility.yul\":29623:29643   */\n      tag_709\n        /* \"#utility.yul\":29641:29642   */\n      dup4\n        /* \"#utility.yul\":29623:29643   */\n      tag_627\n      jump\t// in\n    tag_709:\n        /* \"#utility.yul\":29618:29643   */\n      swap3\n      pop\n        /* \"#utility.yul\":29662:29663   */\n      dup3\n        /* \"#utility.yul\":29659:29660   */\n      dup3\n        /* \"#utility.yul\":29656:29664   */\n      lt\n        /* \"#utility.yul\":29653:29687   */\n      iszero\n      tag_710\n      jumpi\n        /* \"#utility.yul\":29667:29685   */\n      tag_711\n      tag_701\n      jump\t// in\n    tag_711:\n        /* \"#utility.yul\":29653:29687   */\n    tag_710:\n        /* \"#utility.yul\":29712:29713   */\n      dup3\n        /* \"#utility.yul\":29709:29710   */\n      dup3\n        /* \"#utility.yul\":29705:29714   */\n      sub\n        /* \"#utility.yul\":29697:29714   */\n      swap1\n      pop\n        /* \"#utility.yul\":29529:29720   */\n      swap3\n      swap2\n      pop\n      pop\n      jump\t// out\n        /* \"#utility.yul\":29726:29822   */\n    tag_541:\n        /* \"#utility.yul\":29763:29770   */\n      0x00\n        /* \"#utility.yul\":29792:29816   */\n      tag_713\n        /* \"#utility.yul\":29810:29815   */\n      dup3\n        /* \"#utility.yul\":29792:29816   */\n      tag_714\n      jump\t// in\n    tag_713:\n        /* \"#utility.yul\":29781:29816   */\n      swap1\n      pop\n        /* \"#utility.yul\":29726:29822   */\n      swap2\n      swap1\n      pop\n      jump\t// out\n        /* \"#utility.yul\":29828:29918   */\n    tag_576:\n        /* \"#utility.yul\":29862:29869   */\n      0x00\n        /* \"#utility.yul\":29905:29910   */\n      dup2\n        /* \"#utility.yul\":29898:29911   */\n      iszero\n        /* \"#utility.yul\":29891:29912   */\n      iszero\n        /* \"#utility.yul\":29880:29912   */\n      swap1\n      pop\n        /* \"#utility.yul\":29828:29918   */\n      swap2\n      swap1\n      pop\n      jump\t// out\n        /* \"#utility.yul\":29924:30000   */\n    tag_580:\n        /* \"#utility.yul\":29960:29967   */\n      0x00\n        /* \"#utility.yul\":29989:29994   */\n      dup2\n        /* \"#utility.yul\":29978:29994   */\n      swap1\n      pop\n        /* \"#utility.yul\":29924:30000   */\n      swap2\n      swap1\n      pop\n      jump\t// out\n        /* \"#utility.yul\":30006:30132   */\n    tag_714:\n        /* \"#utility.yul\":30043:30050   */\n      0x00\n        /* \"#utility.yul\":30083:30125   */\n      0xffffffffffffffffffffffffffffffffffffffff\n        /* \"#utility.yul\":30076:30081   */\n      dup3\n        /* \"#utility.yul\":30072:30126   */\n      and\n        /* \"#utility.yul\":30061:30126   */\n      swap1\n      pop\n        /* \"#utility.yul\":30006:30132   */\n      swap2\n      swap1\n      pop\n      jump\t// out\n        /* \"#utility.yul\":30138:30215   */\n    tag_627:\n        /* \"#utility.yul\":30175:30182   */\n      0x00\n        /* \"#utility.yul\":30204:30209   */\n      dup2\n        /* \"#utility.yul\":30193:30209   */\n      swap1\n      pop\n        /* \"#utility.yul\":30138:30215   */\n      swap2\n      swap1\n      pop\n      jump\t// out\n        /* \"#utility.yul\":30221:30375   */\n    tag_434:\n        /* \"#utility.yul\":30305:30311   */\n      dup3\n        /* \"#utility.yul\":30300:30303   */\n      dup2\n        /* \"#utility.yul\":30295:30298   */\n      dup4\n        /* \"#utility.yul\":30282:30312   */\n      calldatacopy\n        /* \"#utility.yul\":30367:30368   */\n      0x00\n        /* \"#utility.yul\":30358:30364   */\n      dup4\n        /* \"#utility.yul\":30353:30356   */\n      dup4\n        /* \"#utility.yul\":30349:30365   */\n      add\n        /* \"#utility.yul\":30342:30369   */\n      mstore\n        /* \"#utility.yul\":30221:30375   */\n      pop\n      pop\n      pop\n      jump\t// out\n        /* \"#utility.yul\":30381:30688   */\n    tag_587:\n        /* \"#utility.yul\":30449:30450   */\n      0x00\n        /* \"#utility.yul\":30459:30572   */\n    tag_721:\n        /* \"#utility.yul\":30473:30479   */\n      dup4\n        /* \"#utility.yul\":30470:30471   */\n      dup2\n        /* \"#utility.yul\":30467:30480   */\n      lt\n        /* \"#utility.yul\":30459:30572   */\n      iszero\n      tag_723\n      jumpi\n        /* \"#utility.yul\":30558:30559   */\n      dup1\n        /* \"#utility.yul\":30553:30556   */\n      dup3\n        /* \"#utility.yul\":30549:30560   */\n      add\n        /* \"#utility.yul\":30543:30561   */\n      mload\n        /* \"#utility.yul\":30539:30540   */\n      dup2\n        /* \"#utility.yul\":30534:30537   */\n      dup5\n        /* \"#utility.yul\":30530:30541   */\n      add\n        /* \"#utility.yul\":30523:30562   */\n      mstore\n        /* \"#utility.yul\":30495:30497   */\n      0x20\n        /* \"#utility.yul\":30492:30493   */\n      dup2\n        /* \"#utility.yul\":30488:30498   */\n      add\n        /* \"#utility.yul\":30483:30498   */\n      swap1\n      pop\n        /* \"#utility.yul\":30459:30572   */\n      jump(tag_721)\n    tag_723:\n        /* \"#utility.yul\":30590:30596   */\n      dup4\n        /* \"#utility.yul\":30587:30588   */\n      dup2\n        /* \"#utility.yul\":30584:30597   */\n      gt\n        /* \"#utility.yul\":30581:30682   */\n      iszero\n      tag_724\n      jumpi\n        /* \"#utility.yul\":30670:30671   */\n      0x00\n        /* \"#utility.yul\":30661:30667   */\n      dup5\n        /* \"#utility.yul\":30656:30659   */\n      dup5\n        /* \"#utility.yul\":30652:30668   */\n      add\n        /* \"#utility.yul\":30645:30672   */\n      mstore\n        /* \"#utility.yul\":30581:30682   */\n    tag_724:\n        /* \"#utility.yul\":30430:30688   */\n      pop\n        /* \"#utility.yul\":30381:30688   */\n      pop\n      pop\n      pop\n      jump\t// out\n        /* \"#utility.yul\":30694:31014   */\n    tag_96:\n        /* \"#utility.yul\":30738:30744   */\n      0x00\n        /* \"#utility.yul\":30775:30776   */\n      0x02\n        /* \"#utility.yul\":30769:30773   */\n      dup3\n        /* \"#utility.yul\":30765:30777   */\n      div\n        /* \"#utility.yul\":30755:30777   */\n      swap1\n      pop\n        /* \"#utility.yul\":30822:30823   */\n      0x01\n        /* \"#utility.yul\":30816:30820   */\n      dup3\n        /* \"#utility.yul\":30812:30824   */\n      and\n        /* \"#utility.yul\":30843:30861   */\n      dup1\n        /* \"#utility.yul\":30833:30914   */\n      tag_726\n      jumpi\n        /* \"#utility.yul\":30899:30903   */\n      0x7f\n        /* \"#utility.yul\":30891:30897   */\n      dup3\n        /* \"#utility.yul\":30887:30904   */\n      and\n        /* \"#utility.yul\":30877:30904   */\n      swap2\n      pop\n        /* \"#utility.yul\":30833:30914   */\n    tag_726:\n        /* \"#utility.yul\":30961:30963   */\n      0x20\n        /* \"#utility.yul\":30953:30959   */\n      dup3\n        /* \"#utility.yul\":30950:30964   */\n      lt\n        /* \"#utility.yul\":30930:30948   */\n      dup2\n        /* \"#utility.yul\":30927:30965   */\n      eq\n        /* \"#utility.yul\":30924:31008   */\n      iszero\n      tag_727\n      jumpi\n        /* \"#utility.yul\":30980:30998   */\n      tag_728\n      tag_729\n      jump\t// in\n    tag_728:\n        /* \"#utility.yul\":30924:31008   */\n    tag_727:\n        /* \"#utility.yul\":30745:31014   */\n      pop\n        /* \"#utility.yul\":30694:31014   */\n      swap2\n      swap1\n      pop\n      jump\t// out\n        /* \"#utility.yul\":31020:31301   */\n    tag_672:\n        /* \"#utility.yul\":31103:31130   */\n      tag_731\n        /* \"#utility.yul\":31125:31129   */\n      dup3\n        /* \"#utility.yul\":31103:31130   */\n      tag_589\n      jump\t// in\n    tag_731:\n        /* \"#utility.yul\":31095:31101   */\n      dup2\n        /* \"#utility.yul\":31091:31131   */\n      add\n        /* \"#utility.yul\":31233:31239   */\n      dup2\n        /* \"#utility.yul\":31221:31231   */\n      dup2\n        /* \"#utility.yul\":31218:31240   */\n      lt\n        /* \"#utility.yul\":31197:31215   */\n      0xffffffffffffffff\n        /* \"#utility.yul\":31185:31195   */\n      dup3\n        /* \"#utility.yul\":31182:31216   */\n      gt\n        /* \"#utility.yul\":31179:31241   */\n      or\n        /* \"#utility.yul\":31176:31264   */\n      iszero\n      tag_732\n      jumpi\n        /* \"#utility.yul\":31244:31262   */\n      tag_733\n      tag_677\n      jump\t// in\n    tag_733:\n        /* \"#utility.yul\":31176:31264   */\n    tag_732:\n        /* \"#utility.yul\":31284:31294   */\n      dup1\n        /* \"#utility.yul\":31280:31282   */\n      0x40\n        /* \"#utility.yul\":31273:31295   */\n      mstore\n        /* \"#utility.yul\":31063:31301   */\n      pop\n        /* \"#utility.yul\":31020:31301   */\n      pop\n      pop\n      jump\t// out\n        /* \"#utility.yul\":31307:31540   */\n    tag_191:\n        /* \"#utility.yul\":31346:31349   */\n      0x00\n        /* \"#utility.yul\":31369:31393   */\n      tag_735\n        /* \"#utility.yul\":31387:31392   */\n      dup3\n        /* \"#utility.yul\":31369:31393   */\n      tag_627\n      jump\t// in\n    tag_735:\n        /* \"#utility.yul\":31360:31393   */\n      swap2\n      pop\n        /* \"#utility.yul\":31415:31481   */\n      0xffffffffffffffffffffffffffffffffffffffffffffffffffffffffffffffff\n        /* \"#utility.yul\":31408:31413   */\n      dup3\n        /* \"#utility.yul\":31405:31482   */\n      eq\n        /* \"#utility.yul\":31402:31505   */\n      iszero\n      tag_736\n      jumpi\n        /* \"#utility.yul\":31485:31503   */\n      tag_737\n      tag_701\n      jump\t// in\n    tag_737:\n        /* \"#utility.yul\":31402:31505   */\n    tag_736:\n        /* \"#utility.yul\":31532:31533   */\n      0x01\n        /* \"#utility.yul\":31525:31530   */\n      dup3\n        /* \"#utility.yul\":31521:31534   */\n      add\n        /* \"#utility.yul\":31514:31534   */\n      swap1\n      pop\n        /* \"#utility.yul\":31307:31540   */\n      swap2\n      swap1\n      pop\n      jump\t// out\n        /* \"#utility.yul\":31546:31726   */\n    tag_701:\n        /* \"#utility.yul\":31594:31671   */\n      0x4e487b7100000000000000000000000000000000000000000000000000000000\n        /* \"#utility.yul\":31591:31592   */\n      0x00\n        /* \"#utility.yul\":31584:31672   */\n      mstore\n        /* \"#utility.yul\":31691:31695   */\n      0x11\n        /* \"#utility.yul\":31688:31689   */\n      0x04\n        /* \"#utility.yul\":31681:31696   */\n      mstore\n        /* \"#utility.yul\":31715:31719   */\n      0x24\n        /* \"#utility.yul\":31712:31713   */\n      0x00\n        /* \"#utility.yul\":31705:31720   */\n      revert\n        /* \"#utility.yul\":31732:31912   */\n    tag_729:\n        /* \"#utility.yul\":31780:31857   */\n      0x4e487b7100000000000000000000000000000000000000000000000000000000\n        /* \"#utility.yul\":31777:31778   */\n      0x00\n        /* \"#utility.yul\":31770:31858   */\n      mstore\n        /* \"#utility.yul\":31877:31881   */\n      0x22\n        /* \"#utility.yul\":31874:31875   */\n      0x04\n        /* \"#utility.yul\":31867:31882   */\n      mstore\n        /* \"#utility.yul\":31901:31905   */\n      0x24\n        /* \"#utility.yul\":31898:31899   */\n      0x00\n        /* \"#utility.yul\":31891:31906   */\n      revert\n        /* \"#utility.yul\":31918:32098   */\n    tag_73:\n        /* \"#utility.yul\":31966:32043   */\n      0x4e487b7100000000000000000000000000000000000000000000000000000000\n        /* \"#utility.yul\":31963:31964   */\n      0x00\n        /* \"#utility.yul\":31956:32044   */\n      mstore\n        /* \"#utility.yul\":32063:32067   */\n      0x32\n        /* \"#utility.yul\":32060:32061   */\n      0x04\n        /* \"#utility.yul\":32053:32068   */\n      mstore\n        /* \"#utility.yul\":32087:32091   */\n      0x24\n        /* \"#utility.yul\":32084:32085   */\n      0x00\n        /* \"#utility.yul\":32077:32092   */\n      revert\n        /* \"#utility.yul\":32104:32284   */\n    tag_677:\n        /* \"#utility.yul\":32152:32229   */\n      0x4e487b7100000000000000000000000000000000000000000000000000000000\n        /* \"#utility.yul\":32149:32150   */\n      0x00\n        /* \"#utility.yul\":32142:32230   */\n      mstore\n        /* \"#utility.yul\":32249:32253   */\n      0x41\n        /* \"#utility.yul\":32246:32247   */\n      0x04\n        /* \"#utility.yul\":32239:32254   */\n      mstore\n        /* \"#utility.yul\":32273:32277   */\n      0x24\n        /* \"#utility.yul\":32270:32271   */\n      0x00\n        /* \"#utility.yul\":32263:32278   */\n      revert\n        /* \"#utility.yul\":32290:32407   */\n    tag_410:\n        /* \"#utility.yul\":32399:32400   */\n      0x00\n        /* \"#utility.yul\":32396:32397   */\n      dup1\n        /* \"#utility.yul\":32389:32401   */\n      revert\n        /* \"#utility.yul\":32413:32530   */\n    tag_404:\n        /* \"#utility.yul\":32522:32523   */\n      0x00\n        /* \"#utility.yul\":32519:32520   */\n      dup1\n        /* \"#utility.yul\":32512:32524   */\n      revert\n        /* \"#utility.yul\":32536:32653   */\n    tag_432:\n        /* \"#utility.yul\":32645:32646   */\n      0x00\n        /* \"#utility.yul\":32642:32643   */\n      dup1\n        /* \"#utility.yul\":32635:32647   */\n      revert\n        /* \"#utility.yul\":32659:32776   */\n    tag_475:\n        /* \"#utility.yul\":32768:32769   */\n      0x00\n        /* \"#utility.yul\":32765:32766   */\n      dup1\n        /* \"#utility.yul\":32758:32770   */\n      revert\n        /* \"#utility.yul\":32782:32899   */\n    tag_463:\n        /* \"#utility.yul\":32891:32892   */\n      0x00\n        /* \"#utility.yul\":32888:32889   */\n      dup1\n        /* \"#utility.yul\":32881:32893   */\n      revert\n        /* \"#utility.yul\":32905:33007   */\n    tag_589:\n        /* \"#utility.yul\":32946:32952   */\n      0x00\n        /* \"#utility.yul\":32997:32999   */\n      0x1f\n        /* \"#utility.yul\":32993:33000   */\n      not\n        /* \"#utility.yul\":32988:32990   */\n      0x1f\n        /* \"#utility.yul\":32981:32986   */\n      dup4\n        /* \"#utility.yul\":32977:32991   */\n      add\n        /* \"#utility.yul\":32973:33001   */\n      and\n        /* \"#utility.yul\":32963:33001   */\n      swap1\n      pop\n        /* \"#utility.yul\":32905:33007   */\n      swap2\n      swap1\n      pop\n      jump\t// out\n        /* \"#utility.yul\":33013:33135   */\n    tag_438:\n        /* \"#utility.yul\":33086:33110   */\n      tag_749\n        /* \"#utility.yul\":33104:33109   */\n      dup2\n        /* \"#utility.yul\":33086:33110   */\n      tag_541\n      jump\t// in\n    tag_749:\n        /* \"#utility.yul\":33079:33084   */\n      dup2\n        /* \"#utility.yul\":33076:33111   */\n      eq\n        /* \"#utility.yul\":33066:33129   */\n      tag_750\n      jumpi\n        /* \"#utility.yul\":33125:33126   */\n      0x00\n        /* \"#utility.yul\":33122:33123   */\n      dup1\n        /* \"#utility.yul\":33115:33127   */\n      revert\n        /* \"#utility.yul\":33066:33129   */\n    tag_750:\n        /* \"#utility.yul\":33013:33135   */\n      pop\n      jump\t// out\n        /* \"#utility.yul\":33141:33261   */\n    tag_452:\n        /* \"#utility.yul\":33213:33236   */\n      tag_752\n        /* \"#utility.yul\":33230:33235   */\n      dup2\n        /* \"#utility.yul\":33213:33236   */\n      tag_580\n      jump\t// in\n    tag_752:\n        /* \"#utility.yul\":33206:33211   */\n      dup2\n        /* \"#utility.yul\":33203:33237   */\n      eq\n        /* \"#utility.yul\":33193:33255   */\n      tag_753\n      jumpi\n        /* \"#utility.yul\":33251:33252   */\n      0x00\n        /* \"#utility.yul\":33248:33249   */\n      dup1\n        /* \"#utility.yul\":33241:33253   */\n      revert\n        /* \"#utility.yul\":33193:33255   */\n    tag_753:\n        /* \"#utility.yul\":33141:33261   */\n      pop\n      jump\t// out\n        /* \"#utility.yul\":33267:33389   */\n    tag_459:\n        /* \"#utility.yul\":33340:33364   */\n      tag_755\n        /* \"#utility.yul\":33358:33363   */\n      dup2\n        /* \"#utility.yul\":33340:33364   */\n      tag_627\n      jump\t// in\n    tag_755:\n        /* \"#utility.yul\":33333:33338   */\n      dup2\n        /* \"#utility.yul\":33330:33365   */\n      eq\n        /* \"#utility.yul\":33320:33383   */\n      tag_756\n      jumpi\n        /* \"#utility.yul\":33379:33380   */\n      0x00\n        /* \"#utility.yul\":33376:33377   */\n      dup1\n        /* \"#utility.yul\":33369:33381   */\n      revert\n        /* \"#utility.yul\":33320:33383   */\n    tag_756:\n        /* \"#utility.yul\":33267:33389   */\n      pop\n      jump\t// out\n\n    auxdata: 0xa26469706673582212201eec5563a138f74acd6f18e07cd9a9b62a0aaea01d79788cb1ad676c1114c90e64736f6c63430008070033\n}\n",
				"bytecode": {
					"linkReferences": {},
					"object": "608060405234801561001057600080fd5b5061353f806100206000396000f3fe608060405234801561001057600080fd5b50600436106100a95760003560e01c8063365b98b211610071578063365b98b2146101785780637acc0b20146101ae578063a14595ca146101e3578063e2dc35e0146101ff578063f8b2cb4f1461022f578063fc99cc3b1461025f576100a9565b80630a46516b146100ae57806312065fe0146100de5780631d9faa11146100fc57806327e235e31461012c5780632f4e17041461015c575b600080fd5b6100c860048036038101906100c3919061263d565b61028f565b6040516100d59190612ff5565b60405180910390f35b6100e66102b0565b6040516100f39190612ff5565b60405180910390f35b610116600480360381019061011191906129db565b6102b8565b6040516101239190612fb8565b60405180910390f35b6101466004803603810190610141919061263d565b610b56565b6040516101539190612ff5565b60405180910390f35b610176600480360381019061017191906126aa565b610b6e565b005b610192600480360381019061018d91906129ae565b610dd4565b6040516101a59796959493929190612f26565b60405180910390f35b6101c860048036038101906101c391906129ae565b6110ee565b6040516101da96959493929190613010565b60405180910390f35b6101fd60048036038101906101f891906127da565b611711565b005b6102196004803603810190610214919061266a565b6119e9565b6040516102269190612fb8565b60405180910390f35b6102496004803603810190610244919061263d565b611aba565b6040516102569190612ff5565b60405180910390f35b610279600480360381019061027491906129ae565b611b03565b6040516102869190612fd3565b60405180910390f35b60008173ffffffffffffffffffffffffffffffffffffffff16319050919050565b600047905090565b60008083141580156102ef575081600084815481106102da576102d961343c565b5b90600052602060002090600d02016004015410155b15610b4b576000826000858154811061030b5761030a61343c565b5b90600052602060002090600d0201600301546103279190613210565b9050610378600085815481106103405761033f61343c565b5b90600052602060002090600d020160010160009054906101000a900473ffffffffffffffffffffffffffffffffffffffff16826119e9565b610386576000915050610b50565b826000858154811061039b5761039a61343c565b5b90600052602060002090600d020160040160008282546103bb919061326a565b92505081905550610abb600085815481106103d9576103d861343c565b5b90600052602060002090600d020160020180546103f590613332565b80601f016020809104026020016040519081016040528092919081815260200182805461042190613332565b801561046e5780601f106104435761010080835404028352916020019161046e565b820191906000526020600020905b81548152906001019060200180831161045157829003601f168201915b5050505050600086815481106104875761048661343c565b5b90600052602060002090600d02016003015485600088815481106104ae576104ad61343c565b5b90600052602060002090600d020160050160000180546104cd90613332565b80601f01602080910402602001604051908101604052809291908181526020018280546104f990613332565b80156105465780601f1061051b57610100808354040283529160200191610546565b820191906000526020600020905b81548152906001019060200180831161052957829003601f168201915b50505050506000898154811061055f5761055e61343c565b5b90600052602060002090600d0201600501600101805461057e90613332565b80601f01602080910402602001604051908101604052809291908181526020018280546105aa90613332565b80156105f75780601f106105cc576101008083540402835291602001916105f7565b820191906000526020600020905b8154815290600101906020018083116105da57829003601f168201915b505050505060008a815481106106105761060f61343c565b5b90600052602060002090600d02016005016002015460008b815481106106395761063861343c565b5b90600052602060002090600d0201600501600301805480602002602001604051908101604052809291908181526020016000905b8282101561071957838290600052602060002001805461068c90613332565b80601f01602080910402602001604051908101604052809291908181526020018280546106b890613332565b80156107055780601f106106da57610100808354040283529160200191610705565b820191906000526020600020905b8154815290600101906020018083116106e857829003601f168201915b50505050508152602001906001019061066d565b5050505060008c815481106107315761073061343c565b5b90600052602060002090600d0201600501600401805480602002602001604051908101604052809291908181526020016000905b8282101561081157838290600052602060002001805461078490613332565b80601f01602080910402602001604051908101604052809291908181526020018280546107b090613332565b80156107fd5780601f106107d2576101008083540402835291602001916107fd565b820191906000526020600020905b8154815290600101906020018083116107e057829003601f168201915b505050505081526020019060010190610765565b5050505060008d815481106108295761082861343c565b5b90600052602060002090600d0201600501600501805480602002602001604051908101604052809291908181526020016000905b8282101561090957838290600052602060002001805461087c90613332565b80601f01602080910402602001604051908101604052809291908181526020018280546108a890613332565b80156108f55780601f106108ca576101008083540402835291602001916108f5565b820191906000526020600020905b8154815290600101906020018083116108d857829003601f168201915b50505050508152602001906001019061085d565b5050505060008e815481106109215761092061343c565b5b90600052602060002090600d0201600501600601805461094090613332565b80601f016020809104026020016040519081016040528092919081815260200182805461096c90613332565b80156109b95780601f1061098e576101008083540402835291602001916109b9565b820191906000526020600020905b81548152906001019060200180831161099c57829003601f168201915b505050505060008f815481106109d2576109d161343c565b5b90600052602060002090600d0201600501600701805480602002602001604051908101604052809291908181526020016000905b82821015610ab2578382906000526020600020018054610a2590613332565b80601f0160208091040260200160405190810160405280929190818152602001828054610a5190613332565b8015610a9e5780601f10610a7357610100808354040283529160200191610a9e565b820191906000526020600020905b815481529060010190602001808311610a8157829003601f168201915b505050505081526020019060010190610a06565b50505050611711565b7f75f416a1740de68a6376bad70148558f2da14b6cf24e78547c6a73c9d68c0bd73360008681548110610af157610af061343c565b5b90600052602060002090600d020160010160009054906101000a900473ffffffffffffffffffffffffffffffffffffffff1686848742604051610b3996959493929190612e23565b60405180910390a16001915050610b50565b600090505b92915050565b60026020528060005260406000206000915090505481565b610b7661217e565b33816000019073ffffffffffffffffffffffffffffffffffffffff16908173ffffffffffffffffffffffffffffffffffffffff1681525050868160200181905250858160600181905250848160800181905250838160a001818152505060005b600c811015610c2a578381600c8110610bf257610bf161343c565b5b60200201518260c0015182600c8110610c0e57610c0d61343c565b5b6020020181815250508080610c2290613395565b915050610bd6565b50818160e00181905250878160400181905250600181908060018154018082558091505060019003906000526020600020906013020160009091909190915060008201518160000160006101000a81548173ffffffffffffffffffffffffffffffffffffffff021916908373ffffffffffffffffffffffffffffffffffffffff1602179055506020820151816001019080519060200190610ccc9291906121df565b506040820151816002019080519060200190610ce99291906121df565b506060820151816003019080519060200190610d069291906121df565b506080820151816004019080519060200190610d239291906121df565b5060a0820151816005015560c08201518160060190600c610d45929190612265565b5060e0820151816012019080519060200190610d629291906121df565b5050507fc4aa35700f4a2a5a56437570881086dfe5553f60cd3c6b59a61c4b9036e34f1b816000015182602001518360400151846060015185608001518660a001518760c001518860e00151604051610dc2989796959493929190612e84565b60405180910390a15050505050505050565b60018181548110610de457600080fd5b90600052602060002090601302016000915090508060000160009054906101000a900473ffffffffffffffffffffffffffffffffffffffff1690806001018054610e2d90613332565b80601f0160208091040260200160405190810160405280929190818152602001828054610e5990613332565b8015610ea65780601f10610e7b57610100808354040283529160200191610ea6565b820191906000526020600020905b815481529060010190602001808311610e8957829003601f168201915b505050505090806002018054610ebb90613332565b80601f0160208091040260200160405190810160405280929190818152602001828054610ee790613332565b8015610f345780601f10610f0957610100808354040283529160200191610f34565b820191906000526020600020905b815481529060010190602001808311610f1757829003601f168201915b505050505090806003018054610f4990613332565b80601f0160208091040260200160405190810160405280929190818152602001828054610f7590613332565b8015610fc25780601f10610f9757610100808354040283529160200191610fc2565b820191906000526020600020905b815481529060010190602001808311610fa557829003601f168201915b505050505090806004018054610fd790613332565b80601f016020809104026020016040519081016040528092919081815260200182805461100390613332565b80156110505780601f1061102557610100808354040283529160200191611050565b820191906000526020600020905b81548152906001019060200180831161103357829003601f168201915b50505050509080600501549080601201805461106b90613332565b80601f016020809104026020016040519081016040528092919081815260200182805461109790613332565b80156110e45780601f106110b9576101008083540402835291602001916110e4565b820191906000526020600020905b8154815290600101906020018083116110c757829003601f168201915b5050505050905087565b600081815481106110fe57600080fd5b90600052602060002090600d02016000915090508060000154908060010160009054906101000a900473ffffffffffffffffffffffffffffffffffffffff169080600201805461114d90613332565b80601f016020809104026020016040519081016040528092919081815260200182805461117990613332565b80156111c65780601f1061119b576101008083540402835291602001916111c6565b820191906000526020600020905b8154815290600101906020018083116111a957829003601f168201915b50505050509080600301549080600401549080600501604051806101000160405290816000820180546111f890613332565b80601f016020809104026020016040519081016040528092919081815260200182805461122490613332565b80156112715780601f1061124657610100808354040283529160200191611271565b820191906000526020600020905b81548152906001019060200180831161125457829003601f168201915b5050505050815260200160018201805461128a90613332565b80601f01602080910402602001604051908101604052809291908181526020018280546112b690613332565b80156113035780601f106112d857610100808354040283529160200191611303565b820191906000526020600020905b8154815290600101906020018083116112e657829003601f168201915b505050505081526020016002820154815260200160038201805480602002602001604051908101604052809291908181526020016000905b828210156113e757838290600052602060002001805461135a90613332565b80601f016020809104026020016040519081016040528092919081815260200182805461138690613332565b80156113d35780601f106113a8576101008083540402835291602001916113d3565b820191906000526020600020905b8154815290600101906020018083116113b657829003601f168201915b50505050508152602001906001019061133b565b50505050815260200160048201805480602002602001604051908101604052809291908181526020016000905b828210156114c057838290600052602060002001805461143390613332565b80601f016020809104026020016040519081016040528092919081815260200182805461145f90613332565b80156114ac5780601f10611481576101008083540402835291602001916114ac565b820191906000526020600020905b81548152906001019060200180831161148f57829003601f168201915b505050505081526020019060010190611414565b50505050815260200160058201805480602002602001604051908101604052809291908181526020016000905b8282101561159957838290600052602060002001805461150c90613332565b80601f016020809104026020016040519081016040528092919081815260200182805461153890613332565b80156115855780601f1061155a57610100808354040283529160200191611585565b820191906000526020600020905b81548152906001019060200180831161156857829003601f168201915b5050505050815260200190600101906114ed565b5050505081526020016006820180546115b190613332565b80601f01602080910402602001604051908101604052809291908181526020018280546115dd90613332565b801561162a5780601f106115ff5761010080835404028352916020019161162a565b820191906000526020600020905b81548152906001019060200180831161160d57829003601f168201915b5050505050815260200160078201805480602002602001604051908101604052809291908181526020016000905b8282101561170457838290600052602060002001805461167790613332565b80601f01602080910402602001604051908101604052809291908181526020018280546116a390613332565b80156116f05780601f106116c5576101008083540402835291602001916116f0565b820191906000526020600020905b8154815290600101906020018083116116d357829003601f168201915b505050505081526020019060010190611658565b5050505081525050905086565b6117196122a5565b600160008054905061172b91906131ba565b81600001818152505033816020019073ffffffffffffffffffffffffffffffffffffffff16908173ffffffffffffffffffffffffffffffffffffffff16815250508b81604001819052508a81606001818152505089816080018181525050888160a0015160000181905250878160a0015160200181905250868160a001516040018181525050858160a0015160600181905250848160a0015160800181905250838160a0015160a00181905250828160a0015160c00181905250818160a0015160e0018190525060008190806001815401808255809150506001900390600052602060002090600d02016000909190919091506000820151816000015560208201518160010160006101000a81548173ffffffffffffffffffffffffffffffffffffffff021916908373ffffffffffffffffffffffffffffffffffffffff160217905550604082015181600201908051906020019061188b9291906121df565b50606082015181600301556080820151816004015560a08201518160050160008201518160000190805190602001906118c59291906121df565b5060208201518160010190805190602001906118e29291906121df565b506040820151816002015560608201518160030190805190602001906119099291906122f7565b5060808201518160040190805190602001906119269291906122f7565b5060a08201518160050190805190602001906119439291906122f7565b5060c08201518160060190805190602001906119609291906121df565b5060e082015181600701908051906020019061197d9291906122f7565b50505050507fb7638ec6afb0cbba7f8b3557736034abdc74dad72cab8df4feb527ef815c4b1b816000015182602001518360400151846060015185608001518660a001516040516119d396959493929190613010565b60405180910390a1505050505050505050505050565b6000816119f533611aba565b10611aaf5781600260003373ffffffffffffffffffffffffffffffffffffffff1673ffffffffffffffffffffffffffffffffffffffff1681526020019081526020016000206000828254611a49919061326a565b9250508190555081600260008573ffffffffffffffffffffffffffffffffffffffff1673ffffffffffffffffffffffffffffffffffffffff1681526020019081526020016000206000828254611a9f91906131ba565b9250508190555060019050611ab4565b600090505b92915050565b6000600260008373ffffffffffffffffffffffffffffffffffffffff1673ffffffffffffffffffffffffffffffffffffffff168152602001908152602001600020549050919050565b611b0b6122a5565b60008281548110611b1f57611b1e61343c565b5b90600052602060002090600d02016040518060c0016040529081600082015481526020016001820160009054906101000a900473ffffffffffffffffffffffffffffffffffffffff1673ffffffffffffffffffffffffffffffffffffffff1673ffffffffffffffffffffffffffffffffffffffff168152602001600282018054611ba890613332565b80601f0160208091040260200160405190810160405280929190818152602001828054611bd490613332565b8015611c215780601f10611bf657610100808354040283529160200191611c21565b820191906000526020600020905b815481529060010190602001808311611c0457829003601f168201915b5050505050815260200160038201548152602001600482015481526020016005820160405180610100016040529081600082018054611c5f90613332565b80601f0160208091040260200160405190810160405280929190818152602001828054611c8b90613332565b8015611cd85780601f10611cad57610100808354040283529160200191611cd8565b820191906000526020600020905b815481529060010190602001808311611cbb57829003601f168201915b50505050508152602001600182018054611cf190613332565b80601f0160208091040260200160405190810160405280929190818152602001828054611d1d90613332565b8015611d6a5780601f10611d3f57610100808354040283529160200191611d6a565b820191906000526020600020905b815481529060010190602001808311611d4d57829003601f168201915b505050505081526020016002820154815260200160038201805480602002602001604051908101604052809291908181526020016000905b82821015611e4e578382906000526020600020018054611dc190613332565b80601f0160208091040260200160405190810160405280929190818152602001828054611ded90613332565b8015611e3a5780601f10611e0f57610100808354040283529160200191611e3a565b820191906000526020600020905b815481529060010190602001808311611e1d57829003601f168201915b505050505081526020019060010190611da2565b50505050815260200160048201805480602002602001604051908101604052809291908181526020016000905b82821015611f27578382906000526020600020018054611e9a90613332565b80601f0160208091040260200160405190810160405280929190818152602001828054611ec690613332565b8015611f135780601f10611ee857610100808354040283529160200191611f13565b820191906000526020600020905b815481529060010190602001808311611ef657829003601f168201915b505050505081526020019060010190611e7b565b50505050815260200160058201805480602002602001604051908101604052809291908181526020016000905b82821015612000578382906000526020600020018054611f7390613332565b80601f0160208091040260200160405190810160405280929190818152602001828054611f9f90613332565b8015611fec5780601f10611fc157610100808354040283529160200191611fec565b820191906000526020600020905b815481529060010190602001808311611fcf57829003601f168201915b505050505081526020019060010190611f54565b50505050815260200160068201805461201890613332565b80601f016020809104026020016040519081016040528092919081815260200182805461204490613332565b80156120915780601f1061206657610100808354040283529160200191612091565b820191906000526020600020905b81548152906001019060200180831161207457829003601f168201915b5050505050815260200160078201805480602002602001604051908101604052809291908181526020016000905b8282101561216b5783829060005260206000200180546120de90613332565b80601f016020809104026020016040519081016040528092919081815260200182805461210a90613332565b80156121575780601f1061212c57610100808354040283529160200191612157565b820191906000526020600020905b81548152906001019060200180831161213a57829003601f168201915b5050505050815260200190600101906120bf565b5050505081525050815250509050919050565b604051806101000160405280600073ffffffffffffffffffffffffffffffffffffffff16815260200160608152602001606081526020016060815260200160608152602001600081526020016121d2612357565b8152602001606081525090565b8280546121eb90613332565b90600052602060002090601f01602090048101928261220d5760008555612254565b82601f1061222657805160ff1916838001178555612254565b82800160010185558215612254579182015b82811115612253578251825591602001919060010190612238565b5b509050612261919061237a565b5090565b82600c8101928215612294579160200282015b82811115612293578251825591602001919060010190612278565b5b5090506122a1919061237a565b5090565b6040518060c0016040528060008152602001600073ffffffffffffffffffffffffffffffffffffffff1681526020016060815260200160008152602001600081526020016122f1612397565b81525090565b828054828255906000526020600020908101928215612346579160200282015b828111156123455782518290805190602001906123359291906121df565b5091602001919060010190612317565b5b50905061235391906123dc565b5090565b604051806101800160405280600c90602082028036833780820191505090505090565b5b8082111561239357600081600090555060010161237b565b5090565b60405180610100016040528060608152602001606081526020016000815260200160608152602001606081526020016060815260200160608152602001606081525090565b5b808211156123fc57600081816123f39190612400565b506001016123dd565b5090565b50805461240c90613332565b6000825580601f1061241e575061243d565b601f01602090049060005260206000209081019061243c919061237a565b5b50565b600061245361244e846130a4565b61307f565b905080838252602082019050828560208602820111156124765761247561349f565b5b60005b858110156124c457813567ffffffffffffffff81111561249c5761249b61349a565b5b8086016124a989826125fa565b85526020850194506020840193505050600181019050612479565b5050509392505050565b60006124e16124dc846130d0565b61307f565b905080828560208602820111156124fb576124fa61349f565b5b60005b8581101561252b57816125118882612628565b8452602084019350602083019250506001810190506124fe565b5050509392505050565b6000612548612543846130f6565b61307f565b905082815260208101848484011115612564576125636134a4565b5b61256f8482856132f0565b509392505050565b600081359050612586816134c4565b92915050565b600082601f8301126125a1576125a061349a565b5b81356125b1848260208601612440565b91505092915050565b600082601f8301126125cf576125ce61349a565b5b600c6125dc8482856124ce565b91505092915050565b6000813590506125f4816134db565b92915050565b600082601f83011261260f5761260e61349a565b5b813561261f848260208601612535565b91505092915050565b600081359050612637816134f2565b92915050565b600060208284031215612653576126526134ae565b5b600061266184828501612577565b91505092915050565b60008060408385031215612681576126806134ae565b5b600061268f85828601612577565b92505060206126a085828601612628565b9150509250929050565b6000806000806000806000610240888a0312156126ca576126c96134ae565b5b600088013567ffffffffffffffff8111156126e8576126e76134a9565b5b6126f48a828b016125fa565b975050602088013567ffffffffffffffff811115612715576127146134a9565b5b6127218a828b016125fa565b965050604088013567ffffffffffffffff811115612742576127416134a9565b5b61274e8a828b016125fa565b955050606088013567ffffffffffffffff81111561276f5761276e6134a9565b5b61277b8a828b016125fa565b945050608061278c8a828b01612628565b93505060a061279d8a828b016125ba565b92505061022088013567ffffffffffffffff8111156127bf576127be6134a9565b5b6127cb8a828b016125fa565b91505092959891949750929550565b60008060008060008060008060008060006101608c8e031215612800576127ff6134ae565b5b60008c013567ffffffffffffffff81111561281e5761281d6134a9565b5b61282a8e828f016125fa565b9b5050602061283b8e828f01612628565b9a5050604061284c8e828f01612628565b99505060608c013567ffffffffffffffff81111561286d5761286c6134a9565b5b6128798e828f016125fa565b98505060808c013567ffffffffffffffff81111561289a576128996134a9565b5b6128a68e828f016125fa565b97505060a06128b78e828f016125e5565b96505060c08c013567ffffffffffffffff8111156128d8576128d76134a9565b5b6128e48e828f0161258c565b95505060e08c013567ffffffffffffffff811115612905576129046134a9565b5b6129118e828f0161258c565b9450506101008c013567ffffffffffffffff811115612933576129326134a9565b5b61293f8e828f0161258c565b9350506101208c013567ffffffffffffffff811115612961576129606134a9565b5b61296d8e828f016125fa565b9250506101408c013567ffffffffffffffff81111561298f5761298e6134a9565b5b61299b8e828f0161258c565b9150509295989b509295989b9093969950565b6000602082840312156129c4576129c36134ae565b5b60006129d284828501612628565b91505092915050565b600080604083850312156129f2576129f16134ae565b5b6000612a0085828601612628565b9250506020612a1185828601612628565b9150509250929050565b6000612a278383612b4f565b905092915050565b6000612a3b8383612e05565b60208301905092915050565b612a508161329e565b82525050565b612a5f8161329e565b82525050565b6000612a7082613141565b612a7a818561317c565b935083602082028501612a8c85613127565b8060005b85811015612ac85784840389528151612aa98582612a1b565b9450612ab483613162565b925060208a01995050600181019050612a90565b50829750879550505050505092915050565b612ae38161314c565b612aed818461318d565b9250612af882613137565b8060005b83811015612b29578151612b108782612a2f565b9650612b1b8361316f565b925050600181019050612afc565b505050505050565b612b3a816132b0565b82525050565b612b49816132bc565b82525050565b6000612b5a82613157565b612b648185613198565b9350612b748185602086016132ff565b612b7d816134b3565b840191505092915050565b6000612b9382613157565b612b9d81856131a9565b9350612bad8185602086016132ff565b612bb6816134b3565b840191505092915050565b6000610100830160008301518482036000860152612bdf8282612b4f565b91505060208301518482036020860152612bf98282612b4f565b9150506040830151612c0e6040860182612b40565b5060608301518482036060860152612c268282612a65565b91505060808301518482036080860152612c408282612a65565b91505060a083015184820360a0860152612c5a8282612a65565b91505060c083015184820360c0860152612c748282612b4f565b91505060e083015184820360e0860152612c8e8282612a65565b9150508091505092915050565b6000610100830160008301518482036000860152612cb98282612b4f565b91505060208301518482036020860152612cd38282612b4f565b9150506040830151612ce86040860182612b40565b5060608301518482036060860152612d008282612a65565b91505060808301518482036080860152612d1a8282612a65565b91505060a083015184820360a0860152612d348282612a65565b91505060c083015184820360c0860152612d4e8282612b4f565b91505060e083015184820360e0860152612d688282612a65565b9150508091505092915050565b600060c083016000830151612d8d6000860182612e05565b506020830151612da06020860182612a47565b5060408301518482036040860152612db88282612b4f565b9150506060830151612dcd6060860182612e05565b506080830151612de06080860182612e05565b5060a083015184820360a0860152612df88282612bc1565b9150508091505092915050565b612e0e816132e6565b82525050565b612e1d816132e6565b82525050565b600060c082019050612e386000830189612a56565b612e456020830188612a56565b612e526040830187612e14565b612e5f6060830186612e14565b612e6c6080830185612e14565b612e7960a0830184612e14565b979650505050505050565b600061026082019050612e9a600083018b612a56565b8181036020830152612eac818a612b88565b90508181036040830152612ec08189612b88565b90508181036060830152612ed48188612b88565b90508181036080830152612ee88187612b88565b9050612ef760a0830186612e14565b612f0460c0830185612ada565b818103610240830152612f178184612b88565b90509998505050505050505050565b600060e082019050612f3b600083018a612a56565b8181036020830152612f4d8189612b88565b90508181036040830152612f618188612b88565b90508181036060830152612f758187612b88565b90508181036080830152612f898186612b88565b9050612f9860a0830185612e14565b81810360c0830152612faa8184612b88565b905098975050505050505050565b6000602082019050612fcd6000830184612b31565b92915050565b60006020820190508181036000830152612fed8184612d75565b905092915050565b600060208201905061300a6000830184612e14565b92915050565b600060c0820190506130256000830189612e14565b6130326020830188612a56565b81810360408301526130448187612b88565b90506130536060830186612e14565b6130606080830185612e14565b81810360a08301526130728184612c9b565b9050979650505050505050565b600061308961309a565b90506130958282613364565b919050565b6000604051905090565b600067ffffffffffffffff8211156130bf576130be61346b565b5b602082029050602081019050919050565b600067ffffffffffffffff8211156130eb576130ea61346b565b5b602082029050919050565b600067ffffffffffffffff8211156131115761311061346b565b5b61311a826134b3565b9050602081019050919050565b6000819050602082019050919050565b6000819050919050565b600081519050919050565b6000600c9050919050565b600081519050919050565b6000602082019050919050565b6000602082019050919050565b600082825260208201905092915050565b600081905092915050565b600082825260208201905092915050565b600082825260208201905092915050565b60006131c5826132e6565b91506131d0836132e6565b9250827fffffffffffffffffffffffffffffffffffffffffffffffffffffffffffffffff03821115613205576132046133de565b5b828201905092915050565b600061321b826132e6565b9150613226836132e6565b9250817fffffffffffffffffffffffffffffffffffffffffffffffffffffffffffffffff048311821515161561325f5761325e6133de565b5b828202905092915050565b6000613275826132e6565b9150613280836132e6565b925082821015613293576132926133de565b5b828203905092915050565b60006132a9826132c6565b9050919050565b60008115159050919050565b6000819050919050565b600073ffffffffffffffffffffffffffffffffffffffff82169050919050565b6000819050919050565b82818337600083830152505050565b60005b8381101561331d578082015181840152602081019050613302565b8381111561332c576000848401525b50505050565b6000600282049050600182168061334a57607f821691505b6020821081141561335e5761335d61340d565b5b50919050565b61336d826134b3565b810181811067ffffffffffffffff8211171561338c5761338b61346b565b5b80604052505050565b60006133a0826132e6565b91507fffffffffffffffffffffffffffffffffffffffffffffffffffffffffffffffff8214156133d3576133d26133de565b5b600182019050919050565b7f4e487b7100000000000000000000000000000000000000000000000000000000600052601160045260246000fd5b7f4e487b7100000000000000000000000000000000000000000000000000000000600052602260045260246000fd5b7f4e487b7100000000000000000000000000000000000000000000000000000000600052603260045260246000fd5b7f4e487b7100000000000000000000000000000000000000000000000000000000600052604160045260246000fd5b600080fd5b600080fd5b600080fd5b600080fd5b600080fd5b6000601f19601f8301169050919050565b6134cd8161329e565b81146134d857600080fd5b50565b6134e4816132bc565b81146134ef57600080fd5b50565b6134fb816132e6565b811461350657600080fd5b5056fea26469706673582212201eec5563a138f74acd6f18e07cd9a9b62a0aaea01d79788cb1ad676c1114c90e64736f6c63430008070033",
					"opcodes": "PUSH1 0x80 PUSH1 0x40 MSTORE CALLVALUE DUP1 ISZERO PUSH2 0x10 JUMPI PUSH1 0x0 DUP1 REVERT JUMPDEST POP PUSH2 0x353F DUP1 PUSH2 0x20 PUSH1 0x0 CODECOPY PUSH1 0x0 RETURN INVALID PUSH1 0x80 PUSH1 0x40 MSTORE CALLVALUE DUP1 ISZERO PUSH2 0x10 JUMPI PUSH1 0x0 DUP1 REVERT JUMPDEST POP PUSH1 0x4 CALLDATASIZE LT PUSH2 0xA9 JUMPI PUSH1 0x0 CALLDATALOAD PUSH1 0xE0 SHR DUP1 PUSH4 0x365B98B2 GT PUSH2 0x71 JUMPI DUP1 PUSH4 0x365B98B2 EQ PUSH2 0x178 JUMPI DUP1 PUSH4 0x7ACC0B20 EQ PUSH2 0x1AE JUMPI DUP1 PUSH4 0xA14595CA EQ PUSH2 0x1E3 JUMPI DUP1 PUSH4 0xE2DC35E0 EQ PUSH2 0x1FF JUMPI DUP1 PUSH4 0xF8B2CB4F EQ PUSH2 0x22F JUMPI DUP1 PUSH4 0xFC99CC3B EQ PUSH2 0x25F JUMPI PUSH2 0xA9 JUMP JUMPDEST DUP1 PUSH4 0xA46516B EQ PUSH2 0xAE JUMPI DUP1 PUSH4 0x12065FE0 EQ PUSH2 0xDE JUMPI DUP1 PUSH4 0x1D9FAA11 EQ PUSH2 0xFC JUMPI DUP1 PUSH4 0x27E235E3 EQ PUSH2 0x12C JUMPI DUP1 PUSH4 0x2F4E1704 EQ PUSH2 0x15C JUMPI JUMPDEST PUSH1 0x0 DUP1 REVERT JUMPDEST PUSH2 0xC8 PUSH1 0x4 DUP1 CALLDATASIZE SUB DUP2 ADD SWAP1 PUSH2 0xC3 SWAP2 SWAP1 PUSH2 0x263D JUMP JUMPDEST PUSH2 0x28F JUMP JUMPDEST PUSH1 0x40 MLOAD PUSH2 0xD5 SWAP2 SWAP1 PUSH2 0x2FF5 JUMP JUMPDEST PUSH1 0x40 MLOAD DUP1 SWAP2 SUB SWAP1 RETURN JUMPDEST PUSH2 0xE6 PUSH2 0x2B0 JUMP JUMPDEST PUSH1 0x40 MLOAD PUSH2 0xF3 SWAP2 SWAP1 PUSH2 0x2FF5 JUMP JUMPDEST PUSH1 0x40 MLOAD DUP1 SWAP2 SUB SWAP1 RETURN JUMPDEST PUSH2 0x116 PUSH1 0x4 DUP1 CALLDATASIZE SUB DUP2 ADD SWAP1 PUSH2 0x111 SWAP2 SWAP1 PUSH2 0x29DB JUMP JUMPDEST PUSH2 0x2B8 JUMP JUMPDEST PUSH1 0x40 MLOAD PUSH2 0x123 SWAP2 SWAP1 PUSH2 0x2FB8 JUMP JUMPDEST PUSH1 0x40 MLOAD DUP1 SWAP2 SUB SWAP1 RETURN JUMPDEST PUSH2 0x146 PUSH1 0x4 DUP1 CALLDATASIZE SUB DUP2 ADD SWAP1 PUSH2 0x141 SWAP2 SWAP1 PUSH2 0x263D JUMP JUMPDEST PUSH2 0xB56 JUMP JUMPDEST PUSH1 0x40 MLOAD PUSH2 0x153 SWAP2 SWAP1 PUSH2 0x2FF5 JUMP JUMPDEST PUSH1 0x40 MLOAD DUP1 SWAP2 SUB SWAP1 RETURN JUMPDEST PUSH2 0x176 PUSH1 0x4 DUP1 CALLDATASIZE SUB DUP2 ADD SWAP1 PUSH2 0x171 SWAP2 SWAP1 PUSH2 0x26AA JUMP JUMPDEST PUSH2 0xB6E JUMP JUMPDEST STOP JUMPDEST PUSH2 0x192 PUSH1 0x4 DUP1 CALLDATASIZE SUB DUP2 ADD SWAP1 PUSH2 0x18D SWAP2 SWAP1 PUSH2 0x29AE JUMP JUMPDEST PUSH2 0xDD4 JUMP JUMPDEST PUSH1 0x40 MLOAD PUSH2 0x1A5 SWAP8 SWAP7 SWAP6 SWAP5 SWAP4 SWAP3 SWAP2 SWAP1 PUSH2 0x2F26 JUMP JUMPDEST PUSH1 0x40 MLOAD DUP1 SWAP2 SUB SWAP1 RETURN JUMPDEST PUSH2 0x1C8 PUSH1 0x4 DUP1 CALLDATASIZE SUB DUP2 ADD SWAP1 PUSH2 0x1C3 SWAP2 SWAP1 PUSH2 0x29AE JUMP JUMPDEST PUSH2 0x10EE JUMP JUMPDEST PUSH1 0x40 MLOAD PUSH2 0x1DA SWAP7 SWAP6 SWAP5 SWAP4 SWAP3 SWAP2 SWAP1 PUSH2 0x3010 JUMP JUMPDEST PUSH1 0x40 MLOAD DUP1 SWAP2 SUB SWAP1 RETURN JUMPDEST PUSH2 0x1FD PUSH1 0x4 DUP1 CALLDATASIZE SUB DUP2 ADD SWAP1 PUSH2 0x1F8 SWAP2 SWAP1 PUSH2 0x27DA JUMP JUMPDEST PUSH2 0x1711 JUMP JUMPDEST STOP JUMPDEST PUSH2 0x219 PUSH1 0x4 DUP1 CALLDATASIZE SUB DUP2 ADD SWAP1 PUSH2 0x214 SWAP2 SWAP1 PUSH2 0x266A JUMP JUMPDEST PUSH2 0x19E9 JUMP JUMPDEST PUSH1 0x40 MLOAD PUSH2 0x226 SWAP2 SWAP1 PUSH2 0x2FB8 JUMP JUMPDEST PUSH1 0x40 MLOAD DUP1 SWAP2 SUB SWAP1 RETURN JUMPDEST PUSH2 0x249 PUSH1 0x4 DUP1 CALLDATASIZE SUB DUP2 ADD SWAP1 PUSH2 0x244 SWAP2 SWAP1 PUSH2 0x263D JUMP JUMPDEST PUSH2 0x1ABA JUMP JUMPDEST PUSH1 0x40 MLOAD PUSH2 0x256 SWAP2 SWAP1 PUSH2 0x2FF5 JUMP JUMPDEST PUSH1 0x40 MLOAD DUP1 SWAP2 SUB SWAP1 RETURN JUMPDEST PUSH2 0x279 PUSH1 0x4 DUP1 CALLDATASIZE SUB DUP2 ADD SWAP1 PUSH2 0x274 SWAP2 SWAP1 PUSH2 0x29AE JUMP JUMPDEST PUSH2 0x1B03 JUMP JUMPDEST PUSH1 0x40 MLOAD PUSH2 0x286 SWAP2 SWAP1 PUSH2 0x2FD3 JUMP JUMPDEST PUSH1 0x40 MLOAD DUP1 SWAP2 SUB SWAP1 RETURN JUMPDEST PUSH1 0x0 DUP2 PUSH20 0xFFFFFFFFFFFFFFFFFFFFFFFFFFFFFFFFFFFFFFFF AND BALANCE SWAP1 POP SWAP2 SWAP1 POP JUMP JUMPDEST PUSH1 0x0 SELFBALANCE SWAP1 POP SWAP1 JUMP JUMPDEST PUSH1 0x0 DUP1 DUP4 EQ ISZERO DUP1 ISZERO PUSH2 0x2EF JUMPI POP DUP2 PUSH1 0x0 DUP5 DUP2 SLOAD DUP2 LT PUSH2 0x2DA JUMPI PUSH2 0x2D9 PUSH2 0x343C JUMP JUMPDEST JUMPDEST SWAP1 PUSH1 0x0 MSTORE PUSH1 0x20 PUSH1 0x0 KECCAK256 SWAP1 PUSH1 0xD MUL ADD PUSH1 0x4 ADD SLOAD LT ISZERO JUMPDEST ISZERO PUSH2 0xB4B JUMPI PUSH1 0x0 DUP3 PUSH1 0x0 DUP6 DUP2 SLOAD DUP2 LT PUSH2 0x30B JUMPI PUSH2 0x30A PUSH2 0x343C JUMP JUMPDEST JUMPDEST SWAP1 PUSH1 0x0 MSTORE PUSH1 0x20 PUSH1 0x0 KECCAK256 SWAP1 PUSH1 0xD MUL ADD PUSH1 0x3 ADD SLOAD PUSH2 0x327 SWAP2 SWAP1 PUSH2 0x3210 JUMP JUMPDEST SWAP1 POP PUSH2 0x378 PUSH1 0x0 DUP6 DUP2 SLOAD DUP2 LT PUSH2 0x340 JUMPI PUSH2 0x33F PUSH2 0x343C JUMP JUMPDEST JUMPDEST SWAP1 PUSH1 0x0 MSTORE PUSH1 0x20 PUSH1 0x0 KECCAK256 SWAP1 PUSH1 0xD MUL ADD PUSH1 0x1 ADD PUSH1 0x0 SWAP1 SLOAD SWAP1 PUSH2 0x100 EXP SWAP1 DIV PUSH20 0xFFFFFFFFFFFFFFFFFFFFFFFFFFFFFFFFFFFFFFFF AND DUP3 PUSH2 0x19E9 JUMP JUMPDEST PUSH2 0x386 JUMPI PUSH1 0x0 SWAP2 POP POP PUSH2 0xB50 JUMP JUMPDEST DUP3 PUSH1 0x0 DUP6 DUP2 SLOAD DUP2 LT PUSH2 0x39B JUMPI PUSH2 0x39A PUSH2 0x343C JUMP JUMPDEST JUMPDEST SWAP1 PUSH1 0x0 MSTORE PUSH1 0x20 PUSH1 0x0 KECCAK256 SWAP1 PUSH1 0xD MUL ADD PUSH1 0x4 ADD PUSH1 0x0 DUP3 DUP3 SLOAD PUSH2 0x3BB SWAP2 SWAP1 PUSH2 0x326A JUMP JUMPDEST SWAP3 POP POP DUP2 SWAP1 SSTORE POP PUSH2 0xABB PUSH1 0x0 DUP6 DUP2 SLOAD DUP2 LT PUSH2 0x3D9 JUMPI PUSH2 0x3D8 PUSH2 0x343C JUMP JUMPDEST JUMPDEST SWAP1 PUSH1 0x0 MSTORE PUSH1 0x20 PUSH1 0x0 KECCAK256 SWAP1 PUSH1 0xD MUL ADD PUSH1 0x2 ADD DUP1 SLOAD PUSH2 0x3F5 SWAP1 PUSH2 0x3332 JUMP JUMPDEST DUP1 PUSH1 0x1F ADD PUSH1 0x20 DUP1 SWAP2 DIV MUL PUSH1 0x20 ADD PUSH1 0x40 MLOAD SWAP1 DUP2 ADD PUSH1 0x40 MSTORE DUP1 SWAP3 SWAP2 SWAP1 DUP2 DUP2 MSTORE PUSH1 0x20 ADD DUP3 DUP1 SLOAD PUSH2 0x421 SWAP1 PUSH2 0x3332 JUMP JUMPDEST DUP1 ISZERO PUSH2 0x46E JUMPI DUP1 PUSH1 0x1F LT PUSH2 0x443 JUMPI PUSH2 0x100 DUP1 DUP4 SLOAD DIV MUL DUP4 MSTORE SWAP2 PUSH1 0x20 ADD SWAP2 PUSH2 0x46E JUMP JUMPDEST DUP3 ADD SWAP2 SWAP1 PUSH1 0x0 MSTORE PUSH1 0x20 PUSH1 0x0 KECCAK256 SWAP1 JUMPDEST DUP2 SLOAD DUP2 MSTORE SWAP1 PUSH1 0x1 ADD SWAP1 PUSH1 0x20 ADD DUP1 DUP4 GT PUSH2 0x451 JUMPI DUP3 SWAP1 SUB PUSH1 0x1F AND DUP3 ADD SWAP2 JUMPDEST POP POP POP POP POP PUSH1 0x0 DUP7 DUP2 SLOAD DUP2 LT PUSH2 0x487 JUMPI PUSH2 0x486 PUSH2 0x343C JUMP JUMPDEST JUMPDEST SWAP1 PUSH1 0x0 MSTORE PUSH1 0x20 PUSH1 0x0 KECCAK256 SWAP1 PUSH1 0xD MUL ADD PUSH1 0x3 ADD SLOAD DUP6 PUSH1 0x0 DUP9 DUP2 SLOAD DUP2 LT PUSH2 0x4AE JUMPI PUSH2 0x4AD PUSH2 0x343C JUMP JUMPDEST JUMPDEST SWAP1 PUSH1 0x0 MSTORE PUSH1 0x20 PUSH1 0x0 KECCAK256 SWAP1 PUSH1 0xD MUL ADD PUSH1 0x5 ADD PUSH1 0x0 ADD DUP1 SLOAD PUSH2 0x4CD SWAP1 PUSH2 0x3332 JUMP JUMPDEST DUP1 PUSH1 0x1F ADD PUSH1 0x20 DUP1 SWAP2 DIV MUL PUSH1 0x20 ADD PUSH1 0x40 MLOAD SWAP1 DUP2 ADD PUSH1 0x40 MSTORE DUP1 SWAP3 SWAP2 SWAP1 DUP2 DUP2 MSTORE PUSH1 0x20 ADD DUP3 DUP1 SLOAD PUSH2 0x4F9 SWAP1 PUSH2 0x3332 JUMP JUMPDEST DUP1 ISZERO PUSH2 0x546 JUMPI DUP1 PUSH1 0x1F LT PUSH2 0x51B JUMPI PUSH2 0x100 DUP1 DUP4 SLOAD DIV MUL DUP4 MSTORE SWAP2 PUSH1 0x20 ADD SWAP2 PUSH2 0x546 JUMP JUMPDEST DUP3 ADD SWAP2 SWAP1 PUSH1 0x0 MSTORE PUSH1 0x20 PUSH1 0x0 KECCAK256 SWAP1 JUMPDEST DUP2 SLOAD DUP2 MSTORE SWAP1 PUSH1 0x1 ADD SWAP1 PUSH1 0x20 ADD DUP1 DUP4 GT PUSH2 0x529 JUMPI DUP3 SWAP1 SUB PUSH1 0x1F AND DUP3 ADD SWAP2 JUMPDEST POP POP POP POP POP PUSH1 0x0 DUP10 DUP2 SLOAD DUP2 LT PUSH2 0x55F JUMPI PUSH2 0x55E PUSH2 0x343C JUMP JUMPDEST JUMPDEST SWAP1 PUSH1 0x0 MSTORE PUSH1 0x20 PUSH1 0x0 KECCAK256 SWAP1 PUSH1 0xD MUL ADD PUSH1 0x5 ADD PUSH1 0x1 ADD DUP1 SLOAD PUSH2 0x57E SWAP1 PUSH2 0x3332 JUMP JUMPDEST DUP1 PUSH1 0x1F ADD PUSH1 0x20 DUP1 SWAP2 DIV MUL PUSH1 0x20 ADD PUSH1 0x40 MLOAD SWAP1 DUP2 ADD PUSH1 0x40 MSTORE DUP1 SWAP3 SWAP2 SWAP1 DUP2 DUP2 MSTORE PUSH1 0x20 ADD DUP3 DUP1 SLOAD PUSH2 0x5AA SWAP1 PUSH2 0x3332 JUMP JUMPDEST DUP1 ISZERO PUSH2 0x5F7 JUMPI DUP1 PUSH1 0x1F LT PUSH2 0x5CC JUMPI PUSH2 0x100 DUP1 DUP4 SLOAD DIV MUL DUP4 MSTORE SWAP2 PUSH1 0x20 ADD SWAP2 PUSH2 0x5F7 JUMP JUMPDEST DUP3 ADD SWAP2 SWAP1 PUSH1 0x0 MSTORE PUSH1 0x20 PUSH1 0x0 KECCAK256 SWAP1 JUMPDEST DUP2 SLOAD DUP2 MSTORE SWAP1 PUSH1 0x1 ADD SWAP1 PUSH1 0x20 ADD DUP1 DUP4 GT PUSH2 0x5DA JUMPI DUP3 SWAP1 SUB PUSH1 0x1F AND DUP3 ADD SWAP2 JUMPDEST POP POP POP POP POP PUSH1 0x0 DUP11 DUP2 SLOAD DUP2 LT PUSH2 0x610 JUMPI PUSH2 0x60F PUSH2 0x343C JUMP JUMPDEST JUMPDEST SWAP1 PUSH1 0x0 MSTORE PUSH1 0x20 PUSH1 0x0 KECCAK256 SWAP1 PUSH1 0xD MUL ADD PUSH1 0x5 ADD PUSH1 0x2 ADD SLOAD PUSH1 0x0 DUP12 DUP2 SLOAD DUP2 LT PUSH2 0x639 JUMPI PUSH2 0x638 PUSH2 0x343C JUMP JUMPDEST JUMPDEST SWAP1 PUSH1 0x0 MSTORE PUSH1 0x20 PUSH1 0x0 KECCAK256 SWAP1 PUSH1 0xD MUL ADD PUSH1 0x5 ADD PUSH1 0x3 ADD DUP1 SLOAD DUP1 PUSH1 0x20 MUL PUSH1 0x20 ADD PUSH1 0x40 MLOAD SWAP1 DUP2 ADD PUSH1 0x40 MSTORE DUP1 SWAP3 SWAP2 SWAP1 DUP2 DUP2 MSTORE PUSH1 0x20 ADD PUSH1 0x0 SWAP1 JUMPDEST DUP3 DUP3 LT ISZERO PUSH2 0x719 JUMPI DUP4 DUP3 SWAP1 PUSH1 0x0 MSTORE PUSH1 0x20 PUSH1 0x0 KECCAK256 ADD DUP1 SLOAD PUSH2 0x68C SWAP1 PUSH2 0x3332 JUMP JUMPDEST DUP1 PUSH1 0x1F ADD PUSH1 0x20 DUP1 SWAP2 DIV MUL PUSH1 0x20 ADD PUSH1 0x40 MLOAD SWAP1 DUP2 ADD PUSH1 0x40 MSTORE DUP1 SWAP3 SWAP2 SWAP1 DUP2 DUP2 MSTORE PUSH1 0x20 ADD DUP3 DUP1 SLOAD PUSH2 0x6B8 SWAP1 PUSH2 0x3332 JUMP JUMPDEST DUP1 ISZERO PUSH2 0x705 JUMPI DUP1 PUSH1 0x1F LT PUSH2 0x6DA JUMPI PUSH2 0x100 DUP1 DUP4 SLOAD DIV MUL DUP4 MSTORE SWAP2 PUSH1 0x20 ADD SWAP2 PUSH2 0x705 JUMP JUMPDEST DUP3 ADD SWAP2 SWAP1 PUSH1 0x0 MSTORE PUSH1 0x20 PUSH1 0x0 KECCAK256 SWAP1 JUMPDEST DUP2 SLOAD DUP2 MSTORE SWAP1 PUSH1 0x1 ADD SWAP1 PUSH1 0x20 ADD DUP1 DUP4 GT PUSH2 0x6E8 JUMPI DUP3 SWAP1 SUB PUSH1 0x1F AND DUP3 ADD SWAP2 JUMPDEST POP POP POP POP POP DUP2 MSTORE PUSH1 0x20 ADD SWAP1 PUSH1 0x1 ADD SWAP1 PUSH2 0x66D JUMP JUMPDEST POP POP POP POP PUSH1 0x0 DUP13 DUP2 SLOAD DUP2 LT PUSH2 0x731 JUMPI PUSH2 0x730 PUSH2 0x343C JUMP JUMPDEST JUMPDEST SWAP1 PUSH1 0x0 MSTORE PUSH1 0x20 PUSH1 0x0 KECCAK256 SWAP1 PUSH1 0xD MUL ADD PUSH1 0x5 ADD PUSH1 0x4 ADD DUP1 SLOAD DUP1 PUSH1 0x20 MUL PUSH1 0x20 ADD PUSH1 0x40 MLOAD SWAP1 DUP2 ADD PUSH1 0x40 MSTORE DUP1 SWAP3 SWAP2 SWAP1 DUP2 DUP2 MSTORE PUSH1 0x20 ADD PUSH1 0x0 SWAP1 JUMPDEST DUP3 DUP3 LT ISZERO PUSH2 0x811 JUMPI DUP4 DUP3 SWAP1 PUSH1 0x0 MSTORE PUSH1 0x20 PUSH1 0x0 KECCAK256 ADD DUP1 SLOAD PUSH2 0x784 SWAP1 PUSH2 0x3332 JUMP JUMPDEST DUP1 PUSH1 0x1F ADD PUSH1 0x20 DUP1 SWAP2 DIV MUL PUSH1 0x20 ADD PUSH1 0x40 MLOAD SWAP1 DUP2 ADD PUSH1 0x40 MSTORE DUP1 SWAP3 SWAP2 SWAP1 DUP2 DUP2 MSTORE PUSH1 0x20 ADD DUP3 DUP1 SLOAD PUSH2 0x7B0 SWAP1 PUSH2 0x3332 JUMP JUMPDEST DUP1 ISZERO PUSH2 0x7FD JUMPI DUP1 PUSH1 0x1F LT PUSH2 0x7D2 JUMPI PUSH2 0x100 DUP1 DUP4 SLOAD DIV MUL DUP4 MSTORE SWAP2 PUSH1 0x20 ADD SWAP2 PUSH2 0x7FD JUMP JUMPDEST DUP3 ADD SWAP2 SWAP1 PUSH1 0x0 MSTORE PUSH1 0x20 PUSH1 0x0 KECCAK256 SWAP1 JUMPDEST DUP2 SLOAD DUP2 MSTORE SWAP1 PUSH1 0x1 ADD SWAP1 PUSH1 0x20 ADD DUP1 DUP4 GT PUSH2 0x7E0 JUMPI DUP3 SWAP1 SUB PUSH1 0x1F AND DUP3 ADD SWAP2 JUMPDEST POP POP POP POP POP DUP2 MSTORE PUSH1 0x20 ADD SWAP1 PUSH1 0x1 ADD SWAP1 PUSH2 0x765 JUMP JUMPDEST POP POP POP POP PUSH1 0x0 DUP14 DUP2 SLOAD DUP2 LT PUSH2 0x829 JUMPI PUSH2 0x828 PUSH2 0x343C JUMP JUMPDEST JUMPDEST SWAP1 PUSH1 0x0 MSTORE PUSH1 0x20 PUSH1 0x0 KECCAK256 SWAP1 PUSH1 0xD MUL ADD PUSH1 0x5 ADD PUSH1 0x5 ADD DUP1 SLOAD DUP1 PUSH1 0x20 MUL PUSH1 0x20 ADD PUSH1 0x40 MLOAD SWAP1 DUP2 ADD PUSH1 0x40 MSTORE DUP1 SWAP3 SWAP2 SWAP1 DUP2 DUP2 MSTORE PUSH1 0x20 ADD PUSH1 0x0 SWAP1 JUMPDEST DUP3 DUP3 LT ISZERO PUSH2 0x909 JUMPI DUP4 DUP3 SWAP1 PUSH1 0x0 MSTORE PUSH1 0x20 PUSH1 0x0 KECCAK256 ADD DUP1 SLOAD PUSH2 0x87C SWAP1 PUSH2 0x3332 JUMP JUMPDEST DUP1 PUSH1 0x1F ADD PUSH1 0x20 DUP1 SWAP2 DIV MUL PUSH1 0x20 ADD PUSH1 0x40 MLOAD SWAP1 DUP2 ADD PUSH1 0x40 MSTORE DUP1 SWAP3 SWAP2 SWAP1 DUP2 DUP2 MSTORE PUSH1 0x20 ADD DUP3 DUP1 SLOAD PUSH2 0x8A8 SWAP1 PUSH2 0x3332 JUMP JUMPDEST DUP1 ISZERO PUSH2 0x8F5 JUMPI DUP1 PUSH1 0x1F LT PUSH2 0x8CA JUMPI PUSH2 0x100 DUP1 DUP4 SLOAD DIV MUL DUP4 MSTORE SWAP2 PUSH1 0x20 ADD SWAP2 PUSH2 0x8F5 JUMP JUMPDEST DUP3 ADD SWAP2 SWAP1 PUSH1 0x0 MSTORE PUSH1 0x20 PUSH1 0x0 KECCAK256 SWAP1 JUMPDEST DUP2 SLOAD DUP2 MSTORE SWAP1 PUSH1 0x1 ADD SWAP1 PUSH1 0x20 ADD DUP1 DUP4 GT PUSH2 0x8D8 JUMPI DUP3 SWAP1 SUB PUSH1 0x1F AND DUP3 ADD SWAP2 JUMPDEST POP POP POP POP POP DUP2 MSTORE PUSH1 0x20 ADD SWAP1 PUSH1 0x1 ADD SWAP1 PUSH2 0x85D JUMP JUMPDEST POP POP POP POP PUSH1 0x0 DUP15 DUP2 SLOAD DUP2 LT PUSH2 0x921 JUMPI PUSH2 0x920 PUSH2 0x343C JUMP JUMPDEST JUMPDEST SWAP1 PUSH1 0x0 MSTORE PUSH1 0x20 PUSH1 0x0 KECCAK256 SWAP1 PUSH1 0xD MUL ADD PUSH1 0x5 ADD PUSH1 0x6 ADD DUP1 SLOAD PUSH2 0x940 SWAP1 PUSH2 0x3332 JUMP JUMPDEST DUP1 PUSH1 0x1F ADD PUSH1 0x20 DUP1 SWAP2 DIV MUL PUSH1 0x20 ADD PUSH1 0x40 MLOAD SWAP1 DUP2 ADD PUSH1 0x40 MSTORE DUP1 SWAP3 SWAP2 SWAP1 DUP2 DUP2 MSTORE PUSH1 0x20 ADD DUP3 DUP1 SLOAD PUSH2 0x96C SWAP1 PUSH2 0x3332 JUMP JUMPDEST DUP1 ISZERO PUSH2 0x9B9 JUMPI DUP1 PUSH1 0x1F LT PUSH2 0x98E JUMPI PUSH2 0x100 DUP1 DUP4 SLOAD DIV MUL DUP4 MSTORE SWAP2 PUSH1 0x20 ADD SWAP2 PUSH2 0x9B9 JUMP JUMPDEST DUP3 ADD SWAP2 SWAP1 PUSH1 0x0 MSTORE PUSH1 0x20 PUSH1 0x0 KECCAK256 SWAP1 JUMPDEST DUP2 SLOAD DUP2 MSTORE SWAP1 PUSH1 0x1 ADD SWAP1 PUSH1 0x20 ADD DUP1 DUP4 GT PUSH2 0x99C JUMPI DUP3 SWAP1 SUB PUSH1 0x1F AND DUP3 ADD SWAP2 JUMPDEST POP POP POP POP POP PUSH1 0x0 DUP16 DUP2 SLOAD DUP2 LT PUSH2 0x9D2 JUMPI PUSH2 0x9D1 PUSH2 0x343C JUMP JUMPDEST JUMPDEST SWAP1 PUSH1 0x0 MSTORE PUSH1 0x20 PUSH1 0x0 KECCAK256 SWAP1 PUSH1 0xD MUL ADD PUSH1 0x5 ADD PUSH1 0x7 ADD DUP1 SLOAD DUP1 PUSH1 0x20 MUL PUSH1 0x20 ADD PUSH1 0x40 MLOAD SWAP1 DUP2 ADD PUSH1 0x40 MSTORE DUP1 SWAP3 SWAP2 SWAP1 DUP2 DUP2 MSTORE PUSH1 0x20 ADD PUSH1 0x0 SWAP1 JUMPDEST DUP3 DUP3 LT ISZERO PUSH2 0xAB2 JUMPI DUP4 DUP3 SWAP1 PUSH1 0x0 MSTORE PUSH1 0x20 PUSH1 0x0 KECCAK256 ADD DUP1 SLOAD PUSH2 0xA25 SWAP1 PUSH2 0x3332 JUMP JUMPDEST DUP1 PUSH1 0x1F ADD PUSH1 0x20 DUP1 SWAP2 DIV MUL PUSH1 0x20 ADD PUSH1 0x40 MLOAD SWAP1 DUP2 ADD PUSH1 0x40 MSTORE DUP1 SWAP3 SWAP2 SWAP1 DUP2 DUP2 MSTORE PUSH1 0x20 ADD DUP3 DUP1 SLOAD PUSH2 0xA51 SWAP1 PUSH2 0x3332 JUMP JUMPDEST DUP1 ISZERO PUSH2 0xA9E JUMPI DUP1 PUSH1 0x1F LT PUSH2 0xA73 JUMPI PUSH2 0x100 DUP1 DUP4 SLOAD DIV MUL DUP4 MSTORE SWAP2 PUSH1 0x20 ADD SWAP2 PUSH2 0xA9E JUMP JUMPDEST DUP3 ADD SWAP2 SWAP1 PUSH1 0x0 MSTORE PUSH1 0x20 PUSH1 0x0 KECCAK256 SWAP1 JUMPDEST DUP2 SLOAD DUP2 MSTORE SWAP1 PUSH1 0x1 ADD SWAP1 PUSH1 0x20 ADD DUP1 DUP4 GT PUSH2 0xA81 JUMPI DUP3 SWAP1 SUB PUSH1 0x1F AND DUP3 ADD SWAP2 JUMPDEST POP POP POP POP POP DUP2 MSTORE PUSH1 0x20 ADD SWAP1 PUSH1 0x1 ADD SWAP1 PUSH2 0xA06 JUMP JUMPDEST POP POP POP POP PUSH2 0x1711 JUMP JUMPDEST PUSH32 0x75F416A1740DE68A6376BAD70148558F2DA14B6CF24E78547C6A73C9D68C0BD7 CALLER PUSH1 0x0 DUP7 DUP2 SLOAD DUP2 LT PUSH2 0xAF1 JUMPI PUSH2 0xAF0 PUSH2 0x343C JUMP JUMPDEST JUMPDEST SWAP1 PUSH1 0x0 MSTORE PUSH1 0x20 PUSH1 0x0 KECCAK256 SWAP1 PUSH1 0xD MUL ADD PUSH1 0x1 ADD PUSH1 0x0 SWAP1 SLOAD SWAP1 PUSH2 0x100 EXP SWAP1 DIV PUSH20 0xFFFFFFFFFFFFFFFFFFFFFFFFFFFFFFFFFFFFFFFF AND DUP7 DUP5 DUP8 TIMESTAMP PUSH1 0x40 MLOAD PUSH2 0xB39 SWAP7 SWAP6 SWAP5 SWAP4 SWAP3 SWAP2 SWAP1 PUSH2 0x2E23 JUMP JUMPDEST PUSH1 0x40 MLOAD DUP1 SWAP2 SUB SWAP1 LOG1 PUSH1 0x1 SWAP2 POP POP PUSH2 0xB50 JUMP JUMPDEST PUSH1 0x0 SWAP1 POP JUMPDEST SWAP3 SWAP2 POP POP JUMP JUMPDEST PUSH1 0x2 PUSH1 0x20 MSTORE DUP1 PUSH1 0x0 MSTORE PUSH1 0x40 PUSH1 0x0 KECCAK256 PUSH1 0x0 SWAP2 POP SWAP1 POP SLOAD DUP2 JUMP JUMPDEST PUSH2 0xB76 PUSH2 0x217E JUMP JUMPDEST CALLER DUP2 PUSH1 0x0 ADD SWAP1 PUSH20 0xFFFFFFFFFFFFFFFFFFFFFFFFFFFFFFFFFFFFFFFF AND SWAP1 DUP2 PUSH20 0xFFFFFFFFFFFFFFFFFFFFFFFFFFFFFFFFFFFFFFFF AND DUP2 MSTORE POP POP DUP7 DUP2 PUSH1 0x20 ADD DUP2 SWAP1 MSTORE POP DUP6 DUP2 PUSH1 0x60 ADD DUP2 SWAP1 MSTORE POP DUP5 DUP2 PUSH1 0x80 ADD DUP2 SWAP1 MSTORE POP DUP4 DUP2 PUSH1 0xA0 ADD DUP2 DUP2 MSTORE POP POP PUSH1 0x0 JUMPDEST PUSH1 0xC DUP2 LT ISZERO PUSH2 0xC2A JUMPI DUP4 DUP2 PUSH1 0xC DUP2 LT PUSH2 0xBF2 JUMPI PUSH2 0xBF1 PUSH2 0x343C JUMP JUMPDEST JUMPDEST PUSH1 0x20 MUL ADD MLOAD DUP3 PUSH1 0xC0 ADD MLOAD DUP3 PUSH1 0xC DUP2 LT PUSH2 0xC0E JUMPI PUSH2 0xC0D PUSH2 0x343C JUMP JUMPDEST JUMPDEST PUSH1 0x20 MUL ADD DUP2 DUP2 MSTORE POP POP DUP1 DUP1 PUSH2 0xC22 SWAP1 PUSH2 0x3395 JUMP JUMPDEST SWAP2 POP POP PUSH2 0xBD6 JUMP JUMPDEST POP DUP2 DUP2 PUSH1 0xE0 ADD DUP2 SWAP1 MSTORE POP DUP8 DUP2 PUSH1 0x40 ADD DUP2 SWAP1 MSTORE POP PUSH1 0x1 DUP2 SWAP1 DUP1 PUSH1 0x1 DUP2 SLOAD ADD DUP1 DUP3 SSTORE DUP1 SWAP2 POP POP PUSH1 0x1 SWAP1 SUB SWAP1 PUSH1 0x0 MSTORE PUSH1 0x20 PUSH1 0x0 KECCAK256 SWAP1 PUSH1 0x13 MUL ADD PUSH1 0x0 SWAP1 SWAP2 SWAP1 SWAP2 SWAP1 SWAP2 POP PUSH1 0x0 DUP3 ADD MLOAD DUP2 PUSH1 0x0 ADD PUSH1 0x0 PUSH2 0x100 EXP DUP2 SLOAD DUP2 PUSH20 0xFFFFFFFFFFFFFFFFFFFFFFFFFFFFFFFFFFFFFFFF MUL NOT AND SWAP1 DUP4 PUSH20 0xFFFFFFFFFFFFFFFFFFFFFFFFFFFFFFFFFFFFFFFF AND MUL OR SWAP1 SSTORE POP PUSH1 0x20 DUP3 ADD MLOAD DUP2 PUSH1 0x1 ADD SWAP1 DUP1 MLOAD SWAP1 PUSH1 0x20 ADD SWAP1 PUSH2 0xCCC SWAP3 SWAP2 SWAP1 PUSH2 0x21DF JUMP JUMPDEST POP PUSH1 0x40 DUP3 ADD MLOAD DUP2 PUSH1 0x2 ADD SWAP1 DUP1 MLOAD SWAP1 PUSH1 0x20 ADD SWAP1 PUSH2 0xCE9 SWAP3 SWAP2 SWAP1 PUSH2 0x21DF JUMP JUMPDEST POP PUSH1 0x60 DUP3 ADD MLOAD DUP2 PUSH1 0x3 ADD SWAP1 DUP1 MLOAD SWAP1 PUSH1 0x20 ADD SWAP1 PUSH2 0xD06 SWAP3 SWAP2 SWAP1 PUSH2 0x21DF JUMP JUMPDEST POP PUSH1 0x80 DUP3 ADD MLOAD DUP2 PUSH1 0x4 ADD SWAP1 DUP1 MLOAD SWAP1 PUSH1 0x20 ADD SWAP1 PUSH2 0xD23 SWAP3 SWAP2 SWAP1 PUSH2 0x21DF JUMP JUMPDEST POP PUSH1 0xA0 DUP3 ADD MLOAD DUP2 PUSH1 0x5 ADD SSTORE PUSH1 0xC0 DUP3 ADD MLOAD DUP2 PUSH1 0x6 ADD SWAP1 PUSH1 0xC PUSH2 0xD45 SWAP3 SWAP2 SWAP1 PUSH2 0x2265 JUMP JUMPDEST POP PUSH1 0xE0 DUP3 ADD MLOAD DUP2 PUSH1 0x12 ADD SWAP1 DUP1 MLOAD SWAP1 PUSH1 0x20 ADD SWAP1 PUSH2 0xD62 SWAP3 SWAP2 SWAP1 PUSH2 0x21DF JUMP JUMPDEST POP POP POP PUSH32 0xC4AA35700F4A2A5A56437570881086DFE5553F60CD3C6B59A61C4B9036E34F1B DUP2 PUSH1 0x0 ADD MLOAD DUP3 PUSH1 0x20 ADD MLOAD DUP4 PUSH1 0x40 ADD MLOAD DUP5 PUSH1 0x60 ADD MLOAD DUP6 PUSH1 0x80 ADD MLOAD DUP7 PUSH1 0xA0 ADD MLOAD DUP8 PUSH1 0xC0 ADD MLOAD DUP9 PUSH1 0xE0 ADD MLOAD PUSH1 0x40 MLOAD PUSH2 0xDC2 SWAP9 SWAP8 SWAP7 SWAP6 SWAP5 SWAP4 SWAP3 SWAP2 SWAP1 PUSH2 0x2E84 JUMP JUMPDEST PUSH1 0x40 MLOAD DUP1 SWAP2 SUB SWAP1 LOG1 POP POP POP POP POP POP POP POP JUMP JUMPDEST PUSH1 0x1 DUP2 DUP2 SLOAD DUP2 LT PUSH2 0xDE4 JUMPI PUSH1 0x0 DUP1 REVERT JUMPDEST SWAP1 PUSH1 0x0 MSTORE PUSH1 0x20 PUSH1 0x0 KECCAK256 SWAP1 PUSH1 0x13 MUL ADD PUSH1 0x0 SWAP2 POP SWAP1 POP DUP1 PUSH1 0x0 ADD PUSH1 0x0 SWAP1 SLOAD SWAP1 PUSH2 0x100 EXP SWAP1 DIV PUSH20 0xFFFFFFFFFFFFFFFFFFFFFFFFFFFFFFFFFFFFFFFF AND SWAP1 DUP1 PUSH1 0x1 ADD DUP1 SLOAD PUSH2 0xE2D SWAP1 PUSH2 0x3332 JUMP JUMPDEST DUP1 PUSH1 0x1F ADD PUSH1 0x20 DUP1 SWAP2 DIV MUL PUSH1 0x20 ADD PUSH1 0x40 MLOAD SWAP1 DUP2 ADD PUSH1 0x40 MSTORE DUP1 SWAP3 SWAP2 SWAP1 DUP2 DUP2 MSTORE PUSH1 0x20 ADD DUP3 DUP1 SLOAD PUSH2 0xE59 SWAP1 PUSH2 0x3332 JUMP JUMPDEST DUP1 ISZERO PUSH2 0xEA6 JUMPI DUP1 PUSH1 0x1F LT PUSH2 0xE7B JUMPI PUSH2 0x100 DUP1 DUP4 SLOAD DIV MUL DUP4 MSTORE SWAP2 PUSH1 0x20 ADD SWAP2 PUSH2 0xEA6 JUMP JUMPDEST DUP3 ADD SWAP2 SWAP1 PUSH1 0x0 MSTORE PUSH1 0x20 PUSH1 0x0 KECCAK256 SWAP1 JUMPDEST DUP2 SLOAD DUP2 MSTORE SWAP1 PUSH1 0x1 ADD SWAP1 PUSH1 0x20 ADD DUP1 DUP4 GT PUSH2 0xE89 JUMPI DUP3 SWAP1 SUB PUSH1 0x1F AND DUP3 ADD SWAP2 JUMPDEST POP POP POP POP POP SWAP1 DUP1 PUSH1 0x2 ADD DUP1 SLOAD PUSH2 0xEBB SWAP1 PUSH2 0x3332 JUMP JUMPDEST DUP1 PUSH1 0x1F ADD PUSH1 0x20 DUP1 SWAP2 DIV MUL PUSH1 0x20 ADD PUSH1 0x40 MLOAD SWAP1 DUP2 ADD PUSH1 0x40 MSTORE DUP1 SWAP3 SWAP2 SWAP1 DUP2 DUP2 MSTORE PUSH1 0x20 ADD DUP3 DUP1 SLOAD PUSH2 0xEE7 SWAP1 PUSH2 0x3332 JUMP JUMPDEST DUP1 ISZERO PUSH2 0xF34 JUMPI DUP1 PUSH1 0x1F LT PUSH2 0xF09 JUMPI PUSH2 0x100 DUP1 DUP4 SLOAD DIV MUL DUP4 MSTORE SWAP2 PUSH1 0x20 ADD SWAP2 PUSH2 0xF34 JUMP JUMPDEST DUP3 ADD SWAP2 SWAP1 PUSH1 0x0 MSTORE PUSH1 0x20 PUSH1 0x0 KECCAK256 SWAP1 JUMPDEST DUP2 SLOAD DUP2 MSTORE SWAP1 PUSH1 0x1 ADD SWAP1 PUSH1 0x20 ADD DUP1 DUP4 GT PUSH2 0xF17 JUMPI DUP3 SWAP1 SUB PUSH1 0x1F AND DUP3 ADD SWAP2 JUMPDEST POP POP POP POP POP SWAP1 DUP1 PUSH1 0x3 ADD DUP1 SLOAD PUSH2 0xF49 SWAP1 PUSH2 0x3332 JUMP JUMPDEST DUP1 PUSH1 0x1F ADD PUSH1 0x20 DUP1 SWAP2 DIV MUL PUSH1 0x20 ADD PUSH1 0x40 MLOAD SWAP1 DUP2 ADD PUSH1 0x40 MSTORE DUP1 SWAP3 SWAP2 SWAP1 DUP2 DUP2 MSTORE PUSH1 0x20 ADD DUP3 DUP1 SLOAD PUSH2 0xF75 SWAP1 PUSH2 0x3332 JUMP JUMPDEST DUP1 ISZERO PUSH2 0xFC2 JUMPI DUP1 PUSH1 0x1F LT PUSH2 0xF97 JUMPI PUSH2 0x100 DUP1 DUP4 SLOAD DIV MUL DUP4 MSTORE SWAP2 PUSH1 0x20 ADD SWAP2 PUSH2 0xFC2 JUMP JUMPDEST DUP3 ADD SWAP2 SWAP1 PUSH1 0x0 MSTORE PUSH1 0x20 PUSH1 0x0 KECCAK256 SWAP1 JUMPDEST DUP2 SLOAD DUP2 MSTORE SWAP1 PUSH1 0x1 ADD SWAP1 PUSH1 0x20 ADD DUP1 DUP4 GT PUSH2 0xFA5 JUMPI DUP3 SWAP1 SUB PUSH1 0x1F AND DUP3 ADD SWAP2 JUMPDEST POP POP POP POP POP SWAP1 DUP1 PUSH1 0x4 ADD DUP1 SLOAD PUSH2 0xFD7 SWAP1 PUSH2 0x3332 JUMP JUMPDEST DUP1 PUSH1 0x1F ADD PUSH1 0x20 DUP1 SWAP2 DIV MUL PUSH1 0x20 ADD PUSH1 0x40 MLOAD SWAP1 DUP2 ADD PUSH1 0x40 MSTORE DUP1 SWAP3 SWAP2 SWAP1 DUP2 DUP2 MSTORE PUSH1 0x20 ADD DUP3 DUP1 SLOAD PUSH2 0x1003 SWAP1 PUSH2 0x3332 JUMP JUMPDEST DUP1 ISZERO PUSH2 0x1050 JUMPI DUP1 PUSH1 0x1F LT PUSH2 0x1025 JUMPI PUSH2 0x100 DUP1 DUP4 SLOAD DIV MUL DUP4 MSTORE SWAP2 PUSH1 0x20 ADD SWAP2 PUSH2 0x1050 JUMP JUMPDEST DUP3 ADD SWAP2 SWAP1 PUSH1 0x0 MSTORE PUSH1 0x20 PUSH1 0x0 KECCAK256 SWAP1 JUMPDEST DUP2 SLOAD DUP2 MSTORE SWAP1 PUSH1 0x1 ADD SWAP1 PUSH1 0x20 ADD DUP1 DUP4 GT PUSH2 0x1033 JUMPI DUP3 SWAP1 SUB PUSH1 0x1F AND DUP3 ADD SWAP2 JUMPDEST POP POP POP POP POP SWAP1 DUP1 PUSH1 0x5 ADD SLOAD SWAP1 DUP1 PUSH1 0x12 ADD DUP1 SLOAD PUSH2 0x106B SWAP1 PUSH2 0x3332 JUMP JUMPDEST DUP1 PUSH1 0x1F ADD PUSH1 0x20 DUP1 SWAP2 DIV MUL PUSH1 0x20 ADD PUSH1 0x40 MLOAD SWAP1 DUP2 ADD PUSH1 0x40 MSTORE DUP1 SWAP3 SWAP2 SWAP1 DUP2 DUP2 MSTORE PUSH1 0x20 ADD DUP3 DUP1 SLOAD PUSH2 0x1097 SWAP1 PUSH2 0x3332 JUMP JUMPDEST DUP1 ISZERO PUSH2 0x10E4 JUMPI DUP1 PUSH1 0x1F LT PUSH2 0x10B9 JUMPI PUSH2 0x100 DUP1 DUP4 SLOAD DIV MUL DUP4 MSTORE SWAP2 PUSH1 0x20 ADD SWAP2 PUSH2 0x10E4 JUMP JUMPDEST DUP3 ADD SWAP2 SWAP1 PUSH1 0x0 MSTORE PUSH1 0x20 PUSH1 0x0 KECCAK256 SWAP1 JUMPDEST DUP2 SLOAD DUP2 MSTORE SWAP1 PUSH1 0x1 ADD SWAP1 PUSH1 0x20 ADD DUP1 DUP4 GT PUSH2 0x10C7 JUMPI DUP3 SWAP1 SUB PUSH1 0x1F AND DUP3 ADD SWAP2 JUMPDEST POP POP POP POP POP SWAP1 POP DUP8 JUMP JUMPDEST PUSH1 0x0 DUP2 DUP2 SLOAD DUP2 LT PUSH2 0x10FE JUMPI PUSH1 0x0 DUP1 REVERT JUMPDEST SWAP1 PUSH1 0x0 MSTORE PUSH1 0x20 PUSH1 0x0 KECCAK256 SWAP1 PUSH1 0xD MUL ADD PUSH1 0x0 SWAP2 POP SWAP1 POP DUP1 PUSH1 0x0 ADD SLOAD SWAP1 DUP1 PUSH1 0x1 ADD PUSH1 0x0 SWAP1 SLOAD SWAP1 PUSH2 0x100 EXP SWAP1 DIV PUSH20 0xFFFFFFFFFFFFFFFFFFFFFFFFFFFFFFFFFFFFFFFF AND SWAP1 DUP1 PUSH1 0x2 ADD DUP1 SLOAD PUSH2 0x114D SWAP1 PUSH2 0x3332 JUMP JUMPDEST DUP1 PUSH1 0x1F ADD PUSH1 0x20 DUP1 SWAP2 DIV MUL PUSH1 0x20 ADD PUSH1 0x40 MLOAD SWAP1 DUP2 ADD PUSH1 0x40 MSTORE DUP1 SWAP3 SWAP2 SWAP1 DUP2 DUP2 MSTORE PUSH1 0x20 ADD DUP3 DUP1 SLOAD PUSH2 0x1179 SWAP1 PUSH2 0x3332 JUMP JUMPDEST DUP1 ISZERO PUSH2 0x11C6 JUMPI DUP1 PUSH1 0x1F LT PUSH2 0x119B JUMPI PUSH2 0x100 DUP1 DUP4 SLOAD DIV MUL DUP4 MSTORE SWAP2 PUSH1 0x20 ADD SWAP2 PUSH2 0x11C6 JUMP JUMPDEST DUP3 ADD SWAP2 SWAP1 PUSH1 0x0 MSTORE PUSH1 0x20 PUSH1 0x0 KECCAK256 SWAP1 JUMPDEST DUP2 SLOAD DUP2 MSTORE SWAP1 PUSH1 0x1 ADD SWAP1 PUSH1 0x20 ADD DUP1 DUP4 GT PUSH2 0x11A9 JUMPI DUP3 SWAP1 SUB PUSH1 0x1F AND DUP3 ADD SWAP2 JUMPDEST POP POP POP POP POP SWAP1 DUP1 PUSH1 0x3 ADD SLOAD SWAP1 DUP1 PUSH1 0x4 ADD SLOAD SWAP1 DUP1 PUSH1 0x5 ADD PUSH1 0x40 MLOAD DUP1 PUSH2 0x100 ADD PUSH1 0x40 MSTORE SWAP1 DUP2 PUSH1 0x0 DUP3 ADD DUP1 SLOAD PUSH2 0x11F8 SWAP1 PUSH2 0x3332 JUMP JUMPDEST DUP1 PUSH1 0x1F ADD PUSH1 0x20 DUP1 SWAP2 DIV MUL PUSH1 0x20 ADD PUSH1 0x40 MLOAD SWAP1 DUP2 ADD PUSH1 0x40 MSTORE DUP1 SWAP3 SWAP2 SWAP1 DUP2 DUP2 MSTORE PUSH1 0x20 ADD DUP3 DUP1 SLOAD PUSH2 0x1224 SWAP1 PUSH2 0x3332 JUMP JUMPDEST DUP1 ISZERO PUSH2 0x1271 JUMPI DUP1 PUSH1 0x1F LT PUSH2 0x1246 JUMPI PUSH2 0x100 DUP1 DUP4 SLOAD DIV MUL DUP4 MSTORE SWAP2 PUSH1 0x20 ADD SWAP2 PUSH2 0x1271 JUMP JUMPDEST DUP3 ADD SWAP2 SWAP1 PUSH1 0x0 MSTORE PUSH1 0x20 PUSH1 0x0 KECCAK256 SWAP1 JUMPDEST DUP2 SLOAD DUP2 MSTORE SWAP1 PUSH1 0x1 ADD SWAP1 PUSH1 0x20 ADD DUP1 DUP4 GT PUSH2 0x1254 JUMPI DUP3 SWAP1 SUB PUSH1 0x1F AND DUP3 ADD SWAP2 JUMPDEST POP POP POP POP POP DUP2 MSTORE PUSH1 0x20 ADD PUSH1 0x1 DUP3 ADD DUP1 SLOAD PUSH2 0x128A SWAP1 PUSH2 0x3332 JUMP JUMPDEST DUP1 PUSH1 0x1F ADD PUSH1 0x20 DUP1 SWAP2 DIV MUL PUSH1 0x20 ADD PUSH1 0x40 MLOAD SWAP1 DUP2 ADD PUSH1 0x40 MSTORE DUP1 SWAP3 SWAP2 SWAP1 DUP2 DUP2 MSTORE PUSH1 0x20 ADD DUP3 DUP1 SLOAD PUSH2 0x12B6 SWAP1 PUSH2 0x3332 JUMP JUMPDEST DUP1 ISZERO PUSH2 0x1303 JUMPI DUP1 PUSH1 0x1F LT PUSH2 0x12D8 JUMPI PUSH2 0x100 DUP1 DUP4 SLOAD DIV MUL DUP4 MSTORE SWAP2 PUSH1 0x20 ADD SWAP2 PUSH2 0x1303 JUMP JUMPDEST DUP3 ADD SWAP2 SWAP1 PUSH1 0x0 MSTORE PUSH1 0x20 PUSH1 0x0 KECCAK256 SWAP1 JUMPDEST DUP2 SLOAD DUP2 MSTORE SWAP1 PUSH1 0x1 ADD SWAP1 PUSH1 0x20 ADD DUP1 DUP4 GT PUSH2 0x12E6 JUMPI DUP3 SWAP1 SUB PUSH1 0x1F AND DUP3 ADD SWAP2 JUMPDEST POP POP POP POP POP DUP2 MSTORE PUSH1 0x20 ADD PUSH1 0x2 DUP3 ADD SLOAD DUP2 MSTORE PUSH1 0x20 ADD PUSH1 0x3 DUP3 ADD DUP1 SLOAD DUP1 PUSH1 0x20 MUL PUSH1 0x20 ADD PUSH1 0x40 MLOAD SWAP1 DUP2 ADD PUSH1 0x40 MSTORE DUP1 SWAP3 SWAP2 SWAP1 DUP2 DUP2 MSTORE PUSH1 0x20 ADD PUSH1 0x0 SWAP1 JUMPDEST DUP3 DUP3 LT ISZERO PUSH2 0x13E7 JUMPI DUP4 DUP3 SWAP1 PUSH1 0x0 MSTORE PUSH1 0x20 PUSH1 0x0 KECCAK256 ADD DUP1 SLOAD PUSH2 0x135A SWAP1 PUSH2 0x3332 JUMP JUMPDEST DUP1 PUSH1 0x1F ADD PUSH1 0x20 DUP1 SWAP2 DIV MUL PUSH1 0x20 ADD PUSH1 0x40 MLOAD SWAP1 DUP2 ADD PUSH1 0x40 MSTORE DUP1 SWAP3 SWAP2 SWAP1 DUP2 DUP2 MSTORE PUSH1 0x20 ADD DUP3 DUP1 SLOAD PUSH2 0x1386 SWAP1 PUSH2 0x3332 JUMP JUMPDEST DUP1 ISZERO PUSH2 0x13D3 JUMPI DUP1 PUSH1 0x1F LT PUSH2 0x13A8 JUMPI PUSH2 0x100 DUP1 DUP4 SLOAD DIV MUL DUP4 MSTORE SWAP2 PUSH1 0x20 ADD SWAP2 PUSH2 0x13D3 JUMP JUMPDEST DUP3 ADD SWAP2 SWAP1 PUSH1 0x0 MSTORE PUSH1 0x20 PUSH1 0x0 KECCAK256 SWAP1 JUMPDEST DUP2 SLOAD DUP2 MSTORE SWAP1 PUSH1 0x1 ADD SWAP1 PUSH1 0x20 ADD DUP1 DUP4 GT PUSH2 0x13B6 JUMPI DUP3 SWAP1 SUB PUSH1 0x1F AND DUP3 ADD SWAP2 JUMPDEST POP POP POP POP POP DUP2 MSTORE PUSH1 0x20 ADD SWAP1 PUSH1 0x1 ADD SWAP1 PUSH2 0x133B JUMP JUMPDEST POP POP POP POP DUP2 MSTORE PUSH1 0x20 ADD PUSH1 0x4 DUP3 ADD DUP1 SLOAD DUP1 PUSH1 0x20 MUL PUSH1 0x20 ADD PUSH1 0x40 MLOAD SWAP1 DUP2 ADD PUSH1 0x40 MSTORE DUP1 SWAP3 SWAP2 SWAP1 DUP2 DUP2 MSTORE PUSH1 0x20 ADD PUSH1 0x0 SWAP1 JUMPDEST DUP3 DUP3 LT ISZERO PUSH2 0x14C0 JUMPI DUP4 DUP3 SWAP1 PUSH1 0x0 MSTORE PUSH1 0x20 PUSH1 0x0 KECCAK256 ADD DUP1 SLOAD PUSH2 0x1433 SWAP1 PUSH2 0x3332 JUMP JUMPDEST DUP1 PUSH1 0x1F ADD PUSH1 0x20 DUP1 SWAP2 DIV MUL PUSH1 0x20 ADD PUSH1 0x40 MLOAD SWAP1 DUP2 ADD PUSH1 0x40 MSTORE DUP1 SWAP3 SWAP2 SWAP1 DUP2 DUP2 MSTORE PUSH1 0x20 ADD DUP3 DUP1 SLOAD PUSH2 0x145F SWAP1 PUSH2 0x3332 JUMP JUMPDEST DUP1 ISZERO PUSH2 0x14AC JUMPI DUP1 PUSH1 0x1F LT PUSH2 0x1481 JUMPI PUSH2 0x100 DUP1 DUP4 SLOAD DIV MUL DUP4 MSTORE SWAP2 PUSH1 0x20 ADD SWAP2 PUSH2 0x14AC JUMP JUMPDEST DUP3 ADD SWAP2 SWAP1 PUSH1 0x0 MSTORE PUSH1 0x20 PUSH1 0x0 KECCAK256 SWAP1 JUMPDEST DUP2 SLOAD DUP2 MSTORE SWAP1 PUSH1 0x1 ADD SWAP1 PUSH1 0x20 ADD DUP1 DUP4 GT PUSH2 0x148F JUMPI DUP3 SWAP1 SUB PUSH1 0x1F AND DUP3 ADD SWAP2 JUMPDEST POP POP POP POP POP DUP2 MSTORE PUSH1 0x20 ADD SWAP1 PUSH1 0x1 ADD SWAP1 PUSH2 0x1414 JUMP JUMPDEST POP POP POP POP DUP2 MSTORE PUSH1 0x20 ADD PUSH1 0x5 DUP3 ADD DUP1 SLOAD DUP1 PUSH1 0x20 MUL PUSH1 0x20 ADD PUSH1 0x40 MLOAD SWAP1 DUP2 ADD PUSH1 0x40 MSTORE DUP1 SWAP3 SWAP2 SWAP1 DUP2 DUP2 MSTORE PUSH1 0x20 ADD PUSH1 0x0 SWAP1 JUMPDEST DUP3 DUP3 LT ISZERO PUSH2 0x1599 JUMPI DUP4 DUP3 SWAP1 PUSH1 0x0 MSTORE PUSH1 0x20 PUSH1 0x0 KECCAK256 ADD DUP1 SLOAD PUSH2 0x150C SWAP1 PUSH2 0x3332 JUMP JUMPDEST DUP1 PUSH1 0x1F ADD PUSH1 0x20 DUP1 SWAP2 DIV MUL PUSH1 0x20 ADD PUSH1 0x40 MLOAD SWAP1 DUP2 ADD PUSH1 0x40 MSTORE DUP1 SWAP3 SWAP2 SWAP1 DUP2 DUP2 MSTORE PUSH1 0x20 ADD DUP3 DUP1 SLOAD PUSH2 0x1538 SWAP1 PUSH2 0x3332 JUMP JUMPDEST DUP1 ISZERO PUSH2 0x1585 JUMPI DUP1 PUSH1 0x1F LT PUSH2 0x155A JUMPI PUSH2 0x100 DUP1 DUP4 SLOAD DIV MUL DUP4 MSTORE SWAP2 PUSH1 0x20 ADD SWAP2 PUSH2 0x1585 JUMP JUMPDEST DUP3 ADD SWAP2 SWAP1 PUSH1 0x0 MSTORE PUSH1 0x20 PUSH1 0x0 KECCAK256 SWAP1 JUMPDEST DUP2 SLOAD DUP2 MSTORE SWAP1 PUSH1 0x1 ADD SWAP1 PUSH1 0x20 ADD DUP1 DUP4 GT PUSH2 0x1568 JUMPI DUP3 SWAP1 SUB PUSH1 0x1F AND DUP3 ADD SWAP2 JUMPDEST POP POP POP POP POP DUP2 MSTORE PUSH1 0x20 ADD SWAP1 PUSH1 0x1 ADD SWAP1 PUSH2 0x14ED JUMP JUMPDEST POP POP POP POP DUP2 MSTORE PUSH1 0x20 ADD PUSH1 0x6 DUP3 ADD DUP1 SLOAD PUSH2 0x15B1 SWAP1 PUSH2 0x3332 JUMP JUMPDEST DUP1 PUSH1 0x1F ADD PUSH1 0x20 DUP1 SWAP2 DIV MUL PUSH1 0x20 ADD PUSH1 0x40 MLOAD SWAP1 DUP2 ADD PUSH1 0x40 MSTORE DUP1 SWAP3 SWAP2 SWAP1 DUP2 DUP2 MSTORE PUSH1 0x20 ADD DUP3 DUP1 SLOAD PUSH2 0x15DD SWAP1 PUSH2 0x3332 JUMP JUMPDEST DUP1 ISZERO PUSH2 0x162A JUMPI DUP1 PUSH1 0x1F LT PUSH2 0x15FF JUMPI PUSH2 0x100 DUP1 DUP4 SLOAD DIV MUL DUP4 MSTORE SWAP2 PUSH1 0x20 ADD SWAP2 PUSH2 0x162A JUMP JUMPDEST DUP3 ADD SWAP2 SWAP1 PUSH1 0x0 MSTORE PUSH1 0x20 PUSH1 0x0 KECCAK256 SWAP1 JUMPDEST DUP2 SLOAD DUP2 MSTORE SWAP1 PUSH1 0x1 ADD SWAP1 PUSH1 0x20 ADD DUP1 DUP4 GT PUSH2 0x160D JUMPI DUP3 SWAP1 SUB PUSH1 0x1F AND DUP3 ADD SWAP2 JUMPDEST POP POP POP POP POP DUP2 MSTORE PUSH1 0x20 ADD PUSH1 0x7 DUP3 ADD DUP1 SLOAD DUP1 PUSH1 0x20 MUL PUSH1 0x20 ADD PUSH1 0x40 MLOAD SWAP1 DUP2 ADD PUSH1 0x40 MSTORE DUP1 SWAP3 SWAP2 SWAP1 DUP2 DUP2 MSTORE PUSH1 0x20 ADD PUSH1 0x0 SWAP1 JUMPDEST DUP3 DUP3 LT ISZERO PUSH2 0x1704 JUMPI DUP4 DUP3 SWAP1 PUSH1 0x0 MSTORE PUSH1 0x20 PUSH1 0x0 KECCAK256 ADD DUP1 SLOAD PUSH2 0x1677 SWAP1 PUSH2 0x3332 JUMP JUMPDEST DUP1 PUSH1 0x1F ADD PUSH1 0x20 DUP1 SWAP2 DIV MUL PUSH1 0x20 ADD PUSH1 0x40 MLOAD SWAP1 DUP2 ADD PUSH1 0x40 MSTORE DUP1 SWAP3 SWAP2 SWAP1 DUP2 DUP2 MSTORE PUSH1 0x20 ADD DUP3 DUP1 SLOAD PUSH2 0x16A3 SWAP1 PUSH2 0x3332 JUMP JUMPDEST DUP1 ISZERO PUSH2 0x16F0 JUMPI DUP1 PUSH1 0x1F LT PUSH2 0x16C5 JUMPI PUSH2 0x100 DUP1 DUP4 SLOAD DIV MUL DUP4 MSTORE SWAP2 PUSH1 0x20 ADD SWAP2 PUSH2 0x16F0 JUMP JUMPDEST DUP3 ADD SWAP2 SWAP1 PUSH1 0x0 MSTORE PUSH1 0x20 PUSH1 0x0 KECCAK256 SWAP1 JUMPDEST DUP2 SLOAD DUP2 MSTORE SWAP1 PUSH1 0x1 ADD SWAP1 PUSH1 0x20 ADD DUP1 DUP4 GT PUSH2 0x16D3 JUMPI DUP3 SWAP1 SUB PUSH1 0x1F AND DUP3 ADD SWAP2 JUMPDEST POP POP POP POP POP DUP2 MSTORE PUSH1 0x20 ADD SWAP1 PUSH1 0x1 ADD SWAP1 PUSH2 0x1658 JUMP JUMPDEST POP POP POP POP DUP2 MSTORE POP POP SWAP1 POP DUP7 JUMP JUMPDEST PUSH2 0x1719 PUSH2 0x22A5 JUMP JUMPDEST PUSH1 0x1 PUSH1 0x0 DUP1 SLOAD SWAP1 POP PUSH2 0x172B SWAP2 SWAP1 PUSH2 0x31BA JUMP JUMPDEST DUP2 PUSH1 0x0 ADD DUP2 DUP2 MSTORE POP POP CALLER DUP2 PUSH1 0x20 ADD SWAP1 PUSH20 0xFFFFFFFFFFFFFFFFFFFFFFFFFFFFFFFFFFFFFFFF AND SWAP1 DUP2 PUSH20 0xFFFFFFFFFFFFFFFFFFFFFFFFFFFFFFFFFFFFFFFF AND DUP2 MSTORE POP POP DUP12 DUP2 PUSH1 0x40 ADD DUP2 SWAP1 MSTORE POP DUP11 DUP2 PUSH1 0x60 ADD DUP2 DUP2 MSTORE POP POP DUP10 DUP2 PUSH1 0x80 ADD DUP2 DUP2 MSTORE POP POP DUP9 DUP2 PUSH1 0xA0 ADD MLOAD PUSH1 0x0 ADD DUP2 SWAP1 MSTORE POP DUP8 DUP2 PUSH1 0xA0 ADD MLOAD PUSH1 0x20 ADD DUP2 SWAP1 MSTORE POP DUP7 DUP2 PUSH1 0xA0 ADD MLOAD PUSH1 0x40 ADD DUP2 DUP2 MSTORE POP POP DUP6 DUP2 PUSH1 0xA0 ADD MLOAD PUSH1 0x60 ADD DUP2 SWAP1 MSTORE POP DUP5 DUP2 PUSH1 0xA0 ADD MLOAD PUSH1 0x80 ADD DUP2 SWAP1 MSTORE POP DUP4 DUP2 PUSH1 0xA0 ADD MLOAD PUSH1 0xA0 ADD DUP2 SWAP1 MSTORE POP DUP3 DUP2 PUSH1 0xA0 ADD MLOAD PUSH1 0xC0 ADD DUP2 SWAP1 MSTORE POP DUP2 DUP2 PUSH1 0xA0 ADD MLOAD PUSH1 0xE0 ADD DUP2 SWAP1 MSTORE POP PUSH1 0x0 DUP2 SWAP1 DUP1 PUSH1 0x1 DUP2 SLOAD ADD DUP1 DUP3 SSTORE DUP1 SWAP2 POP POP PUSH1 0x1 SWAP1 SUB SWAP1 PUSH1 0x0 MSTORE PUSH1 0x20 PUSH1 0x0 KECCAK256 SWAP1 PUSH1 0xD MUL ADD PUSH1 0x0 SWAP1 SWAP2 SWAP1 SWAP2 SWAP1 SWAP2 POP PUSH1 0x0 DUP3 ADD MLOAD DUP2 PUSH1 0x0 ADD SSTORE PUSH1 0x20 DUP3 ADD MLOAD DUP2 PUSH1 0x1 ADD PUSH1 0x0 PUSH2 0x100 EXP DUP2 SLOAD DUP2 PUSH20 0xFFFFFFFFFFFFFFFFFFFFFFFFFFFFFFFFFFFFFFFF MUL NOT AND SWAP1 DUP4 PUSH20 0xFFFFFFFFFFFFFFFFFFFFFFFFFFFFFFFFFFFFFFFF AND MUL OR SWAP1 SSTORE POP PUSH1 0x40 DUP3 ADD MLOAD DUP2 PUSH1 0x2 ADD SWAP1 DUP1 MLOAD SWAP1 PUSH1 0x20 ADD SWAP1 PUSH2 0x188B SWAP3 SWAP2 SWAP1 PUSH2 0x21DF JUMP JUMPDEST POP PUSH1 0x60 DUP3 ADD MLOAD DUP2 PUSH1 0x3 ADD SSTORE PUSH1 0x80 DUP3 ADD MLOAD DUP2 PUSH1 0x4 ADD SSTORE PUSH1 0xA0 DUP3 ADD MLOAD DUP2 PUSH1 0x5 ADD PUSH1 0x0 DUP3 ADD MLOAD DUP2 PUSH1 0x0 ADD SWAP1 DUP1 MLOAD SWAP1 PUSH1 0x20 ADD SWAP1 PUSH2 0x18C5 SWAP3 SWAP2 SWAP1 PUSH2 0x21DF JUMP JUMPDEST POP PUSH1 0x20 DUP3 ADD MLOAD DUP2 PUSH1 0x1 ADD SWAP1 DUP1 MLOAD SWAP1 PUSH1 0x20 ADD SWAP1 PUSH2 0x18E2 SWAP3 SWAP2 SWAP1 PUSH2 0x21DF JUMP JUMPDEST POP PUSH1 0x40 DUP3 ADD MLOAD DUP2 PUSH1 0x2 ADD SSTORE PUSH1 0x60 DUP3 ADD MLOAD DUP2 PUSH1 0x3 ADD SWAP1 DUP1 MLOAD SWAP1 PUSH1 0x20 ADD SWAP1 PUSH2 0x1909 SWAP3 SWAP2 SWAP1 PUSH2 0x22F7 JUMP JUMPDEST POP PUSH1 0x80 DUP3 ADD MLOAD DUP2 PUSH1 0x4 ADD SWAP1 DUP1 MLOAD SWAP1 PUSH1 0x20 ADD SWAP1 PUSH2 0x1926 SWAP3 SWAP2 SWAP1 PUSH2 0x22F7 JUMP JUMPDEST POP PUSH1 0xA0 DUP3 ADD MLOAD DUP2 PUSH1 0x5 ADD SWAP1 DUP1 MLOAD SWAP1 PUSH1 0x20 ADD SWAP1 PUSH2 0x1943 SWAP3 SWAP2 SWAP1 PUSH2 0x22F7 JUMP JUMPDEST POP PUSH1 0xC0 DUP3 ADD MLOAD DUP2 PUSH1 0x6 ADD SWAP1 DUP1 MLOAD SWAP1 PUSH1 0x20 ADD SWAP1 PUSH2 0x1960 SWAP3 SWAP2 SWAP1 PUSH2 0x21DF JUMP JUMPDEST POP PUSH1 0xE0 DUP3 ADD MLOAD DUP2 PUSH1 0x7 ADD SWAP1 DUP1 MLOAD SWAP1 PUSH1 0x20 ADD SWAP1 PUSH2 0x197D SWAP3 SWAP2 SWAP1 PUSH2 0x22F7 JUMP JUMPDEST POP POP POP POP POP PUSH32 0xB7638EC6AFB0CBBA7F8B3557736034ABDC74DAD72CAB8DF4FEB527EF815C4B1B DUP2 PUSH1 0x0 ADD MLOAD DUP3 PUSH1 0x20 ADD MLOAD DUP4 PUSH1 0x40 ADD MLOAD DUP5 PUSH1 0x60 ADD MLOAD DUP6 PUSH1 0x80 ADD MLOAD DUP7 PUSH1 0xA0 ADD MLOAD PUSH1 0x40 MLOAD PUSH2 0x19D3 SWAP7 SWAP6 SWAP5 SWAP4 SWAP3 SWAP2 SWAP1 PUSH2 0x3010 JUMP JUMPDEST PUSH1 0x40 MLOAD DUP1 SWAP2 SUB SWAP1 LOG1 POP POP POP POP POP POP POP POP POP POP POP POP JUMP JUMPDEST PUSH1 0x0 DUP2 PUSH2 0x19F5 CALLER PUSH2 0x1ABA JUMP JUMPDEST LT PUSH2 0x1AAF JUMPI DUP2 PUSH1 0x2 PUSH1 0x0 CALLER PUSH20 0xFFFFFFFFFFFFFFFFFFFFFFFFFFFFFFFFFFFFFFFF AND PUSH20 0xFFFFFFFFFFFFFFFFFFFFFFFFFFFFFFFFFFFFFFFF AND DUP2 MSTORE PUSH1 0x20 ADD SWAP1 DUP2 MSTORE PUSH1 0x20 ADD PUSH1 0x0 KECCAK256 PUSH1 0x0 DUP3 DUP3 SLOAD PUSH2 0x1A49 SWAP2 SWAP1 PUSH2 0x326A JUMP JUMPDEST SWAP3 POP POP DUP2 SWAP1 SSTORE POP DUP2 PUSH1 0x2 PUSH1 0x0 DUP6 PUSH20 0xFFFFFFFFFFFFFFFFFFFFFFFFFFFFFFFFFFFFFFFF AND PUSH20 0xFFFFFFFFFFFFFFFFFFFFFFFFFFFFFFFFFFFFFFFF AND DUP2 MSTORE PUSH1 0x20 ADD SWAP1 DUP2 MSTORE PUSH1 0x20 ADD PUSH1 0x0 KECCAK256 PUSH1 0x0 DUP3 DUP3 SLOAD PUSH2 0x1A9F SWAP2 SWAP1 PUSH2 0x31BA JUMP JUMPDEST SWAP3 POP POP DUP2 SWAP1 SSTORE POP PUSH1 0x1 SWAP1 POP PUSH2 0x1AB4 JUMP JUMPDEST PUSH1 0x0 SWAP1 POP JUMPDEST SWAP3 SWAP2 POP POP JUMP JUMPDEST PUSH1 0x0 PUSH1 0x2 PUSH1 0x0 DUP4 PUSH20 0xFFFFFFFFFFFFFFFFFFFFFFFFFFFFFFFFFFFFFFFF AND PUSH20 0xFFFFFFFFFFFFFFFFFFFFFFFFFFFFFFFFFFFFFFFF AND DUP2 MSTORE PUSH1 0x20 ADD SWAP1 DUP2 MSTORE PUSH1 0x20 ADD PUSH1 0x0 KECCAK256 SLOAD SWAP1 POP SWAP2 SWAP1 POP JUMP JUMPDEST PUSH2 0x1B0B PUSH2 0x22A5 JUMP JUMPDEST PUSH1 0x0 DUP3 DUP2 SLOAD DUP2 LT PUSH2 0x1B1F JUMPI PUSH2 0x1B1E PUSH2 0x343C JUMP JUMPDEST JUMPDEST SWAP1 PUSH1 0x0 MSTORE PUSH1 0x20 PUSH1 0x0 KECCAK256 SWAP1 PUSH1 0xD MUL ADD PUSH1 0x40 MLOAD DUP1 PUSH1 0xC0 ADD PUSH1 0x40 MSTORE SWAP1 DUP2 PUSH1 0x0 DUP3 ADD SLOAD DUP2 MSTORE PUSH1 0x20 ADD PUSH1 0x1 DUP3 ADD PUSH1 0x0 SWAP1 SLOAD SWAP1 PUSH2 0x100 EXP SWAP1 DIV PUSH20 0xFFFFFFFFFFFFFFFFFFFFFFFFFFFFFFFFFFFFFFFF AND PUSH20 0xFFFFFFFFFFFFFFFFFFFFFFFFFFFFFFFFFFFFFFFF AND PUSH20 0xFFFFFFFFFFFFFFFFFFFFFFFFFFFFFFFFFFFFFFFF AND DUP2 MSTORE PUSH1 0x20 ADD PUSH1 0x2 DUP3 ADD DUP1 SLOAD PUSH2 0x1BA8 SWAP1 PUSH2 0x3332 JUMP JUMPDEST DUP1 PUSH1 0x1F ADD PUSH1 0x20 DUP1 SWAP2 DIV MUL PUSH1 0x20 ADD PUSH1 0x40 MLOAD SWAP1 DUP2 ADD PUSH1 0x40 MSTORE DUP1 SWAP3 SWAP2 SWAP1 DUP2 DUP2 MSTORE PUSH1 0x20 ADD DUP3 DUP1 SLOAD PUSH2 0x1BD4 SWAP1 PUSH2 0x3332 JUMP JUMPDEST DUP1 ISZERO PUSH2 0x1C21 JUMPI DUP1 PUSH1 0x1F LT PUSH2 0x1BF6 JUMPI PUSH2 0x100 DUP1 DUP4 SLOAD DIV MUL DUP4 MSTORE SWAP2 PUSH1 0x20 ADD SWAP2 PUSH2 0x1C21 JUMP JUMPDEST DUP3 ADD SWAP2 SWAP1 PUSH1 0x0 MSTORE PUSH1 0x20 PUSH1 0x0 KECCAK256 SWAP1 JUMPDEST DUP2 SLOAD DUP2 MSTORE SWAP1 PUSH1 0x1 ADD SWAP1 PUSH1 0x20 ADD DUP1 DUP4 GT PUSH2 0x1C04 JUMPI DUP3 SWAP1 SUB PUSH1 0x1F AND DUP3 ADD SWAP2 JUMPDEST POP POP POP POP POP DUP2 MSTORE PUSH1 0x20 ADD PUSH1 0x3 DUP3 ADD SLOAD DUP2 MSTORE PUSH1 0x20 ADD PUSH1 0x4 DUP3 ADD SLOAD DUP2 MSTORE PUSH1 0x20 ADD PUSH1 0x5 DUP3 ADD PUSH1 0x40 MLOAD DUP1 PUSH2 0x100 ADD PUSH1 0x40 MSTORE SWAP1 DUP2 PUSH1 0x0 DUP3 ADD DUP1 SLOAD PUSH2 0x1C5F SWAP1 PUSH2 0x3332 JUMP JUMPDEST DUP1 PUSH1 0x1F ADD PUSH1 0x20 DUP1 SWAP2 DIV MUL PUSH1 0x20 ADD PUSH1 0x40 MLOAD SWAP1 DUP2 ADD PUSH1 0x40 MSTORE DUP1 SWAP3 SWAP2 SWAP1 DUP2 DUP2 MSTORE PUSH1 0x20 ADD DUP3 DUP1 SLOAD PUSH2 0x1C8B SWAP1 PUSH2 0x3332 JUMP JUMPDEST DUP1 ISZERO PUSH2 0x1CD8 JUMPI DUP1 PUSH1 0x1F LT PUSH2 0x1CAD JUMPI PUSH2 0x100 DUP1 DUP4 SLOAD DIV MUL DUP4 MSTORE SWAP2 PUSH1 0x20 ADD SWAP2 PUSH2 0x1CD8 JUMP JUMPDEST DUP3 ADD SWAP2 SWAP1 PUSH1 0x0 MSTORE PUSH1 0x20 PUSH1 0x0 KECCAK256 SWAP1 JUMPDEST DUP2 SLOAD DUP2 MSTORE SWAP1 PUSH1 0x1 ADD SWAP1 PUSH1 0x20 ADD DUP1 DUP4 GT PUSH2 0x1CBB JUMPI DUP3 SWAP1 SUB PUSH1 0x1F AND DUP3 ADD SWAP2 JUMPDEST POP POP POP POP POP DUP2 MSTORE PUSH1 0x20 ADD PUSH1 0x1 DUP3 ADD DUP1 SLOAD PUSH2 0x1CF1 SWAP1 PUSH2 0x3332 JUMP JUMPDEST DUP1 PUSH1 0x1F ADD PUSH1 0x20 DUP1 SWAP2 DIV MUL PUSH1 0x20 ADD PUSH1 0x40 MLOAD SWAP1 DUP2 ADD PUSH1 0x40 MSTORE DUP1 SWAP3 SWAP2 SWAP1 DUP2 DUP2 MSTORE PUSH1 0x20 ADD DUP3 DUP1 SLOAD PUSH2 0x1D1D SWAP1 PUSH2 0x3332 JUMP JUMPDEST DUP1 ISZERO PUSH2 0x1D6A JUMPI DUP1 PUSH1 0x1F LT PUSH2 0x1D3F JUMPI PUSH2 0x100 DUP1 DUP4 SLOAD DIV MUL DUP4 MSTORE SWAP2 PUSH1 0x20 ADD SWAP2 PUSH2 0x1D6A JUMP JUMPDEST DUP3 ADD SWAP2 SWAP1 PUSH1 0x0 MSTORE PUSH1 0x20 PUSH1 0x0 KECCAK256 SWAP1 JUMPDEST DUP2 SLOAD DUP2 MSTORE SWAP1 PUSH1 0x1 ADD SWAP1 PUSH1 0x20 ADD DUP1 DUP4 GT PUSH2 0x1D4D JUMPI DUP3 SWAP1 SUB PUSH1 0x1F AND DUP3 ADD SWAP2 JUMPDEST POP POP POP POP POP DUP2 MSTORE PUSH1 0x20 ADD PUSH1 0x2 DUP3 ADD SLOAD DUP2 MSTORE PUSH1 0x20 ADD PUSH1 0x3 DUP3 ADD DUP1 SLOAD DUP1 PUSH1 0x20 MUL PUSH1 0x20 ADD PUSH1 0x40 MLOAD SWAP1 DUP2 ADD PUSH1 0x40 MSTORE DUP1 SWAP3 SWAP2 SWAP1 DUP2 DUP2 MSTORE PUSH1 0x20 ADD PUSH1 0x0 SWAP1 JUMPDEST DUP3 DUP3 LT ISZERO PUSH2 0x1E4E JUMPI DUP4 DUP3 SWAP1 PUSH1 0x0 MSTORE PUSH1 0x20 PUSH1 0x0 KECCAK256 ADD DUP1 SLOAD PUSH2 0x1DC1 SWAP1 PUSH2 0x3332 JUMP JUMPDEST DUP1 PUSH1 0x1F ADD PUSH1 0x20 DUP1 SWAP2 DIV MUL PUSH1 0x20 ADD PUSH1 0x40 MLOAD SWAP1 DUP2 ADD PUSH1 0x40 MSTORE DUP1 SWAP3 SWAP2 SWAP1 DUP2 DUP2 MSTORE PUSH1 0x20 ADD DUP3 DUP1 SLOAD PUSH2 0x1DED SWAP1 PUSH2 0x3332 JUMP JUMPDEST DUP1 ISZERO PUSH2 0x1E3A JUMPI DUP1 PUSH1 0x1F LT PUSH2 0x1E0F JUMPI PUSH2 0x100 DUP1 DUP4 SLOAD DIV MUL DUP4 MSTORE SWAP2 PUSH1 0x20 ADD SWAP2 PUSH2 0x1E3A JUMP JUMPDEST DUP3 ADD SWAP2 SWAP1 PUSH1 0x0 MSTORE PUSH1 0x20 PUSH1 0x0 KECCAK256 SWAP1 JUMPDEST DUP2 SLOAD DUP2 MSTORE SWAP1 PUSH1 0x1 ADD SWAP1 PUSH1 0x20 ADD DUP1 DUP4 GT PUSH2 0x1E1D JUMPI DUP3 SWAP1 SUB PUSH1 0x1F AND DUP3 ADD SWAP2 JUMPDEST POP POP POP POP POP DUP2 MSTORE PUSH1 0x20 ADD SWAP1 PUSH1 0x1 ADD SWAP1 PUSH2 0x1DA2 JUMP JUMPDEST POP POP POP POP DUP2 MSTORE PUSH1 0x20 ADD PUSH1 0x4 DUP3 ADD DUP1 SLOAD DUP1 PUSH1 0x20 MUL PUSH1 0x20 ADD PUSH1 0x40 MLOAD SWAP1 DUP2 ADD PUSH1 0x40 MSTORE DUP1 SWAP3 SWAP2 SWAP1 DUP2 DUP2 MSTORE PUSH1 0x20 ADD PUSH1 0x0 SWAP1 JUMPDEST DUP3 DUP3 LT ISZERO PUSH2 0x1F27 JUMPI DUP4 DUP3 SWAP1 PUSH1 0x0 MSTORE PUSH1 0x20 PUSH1 0x0 KECCAK256 ADD DUP1 SLOAD PUSH2 0x1E9A SWAP1 PUSH2 0x3332 JUMP JUMPDEST DUP1 PUSH1 0x1F ADD PUSH1 0x20 DUP1 SWAP2 DIV MUL PUSH1 0x20 ADD PUSH1 0x40 MLOAD SWAP1 DUP2 ADD PUSH1 0x40 MSTORE DUP1 SWAP3 SWAP2 SWAP1 DUP2 DUP2 MSTORE PUSH1 0x20 ADD DUP3 DUP1 SLOAD PUSH2 0x1EC6 SWAP1 PUSH2 0x3332 JUMP JUMPDEST DUP1 ISZERO PUSH2 0x1F13 JUMPI DUP1 PUSH1 0x1F LT PUSH2 0x1EE8 JUMPI PUSH2 0x100 DUP1 DUP4 SLOAD DIV MUL DUP4 MSTORE SWAP2 PUSH1 0x20 ADD SWAP2 PUSH2 0x1F13 JUMP JUMPDEST DUP3 ADD SWAP2 SWAP1 PUSH1 0x0 MSTORE PUSH1 0x20 PUSH1 0x0 KECCAK256 SWAP1 JUMPDEST DUP2 SLOAD DUP2 MSTORE SWAP1 PUSH1 0x1 ADD SWAP1 PUSH1 0x20 ADD DUP1 DUP4 GT PUSH2 0x1EF6 JUMPI DUP3 SWAP1 SUB PUSH1 0x1F AND DUP3 ADD SWAP2 JUMPDEST POP POP POP POP POP DUP2 MSTORE PUSH1 0x20 ADD SWAP1 PUSH1 0x1 ADD SWAP1 PUSH2 0x1E7B JUMP JUMPDEST POP POP POP POP DUP2 MSTORE PUSH1 0x20 ADD PUSH1 0x5 DUP3 ADD DUP1 SLOAD DUP1 PUSH1 0x20 MUL PUSH1 0x20 ADD PUSH1 0x40 MLOAD SWAP1 DUP2 ADD PUSH1 0x40 MSTORE DUP1 SWAP3 SWAP2 SWAP1 DUP2 DUP2 MSTORE PUSH1 0x20 ADD PUSH1 0x0 SWAP1 JUMPDEST DUP3 DUP3 LT ISZERO PUSH2 0x2000 JUMPI DUP4 DUP3 SWAP1 PUSH1 0x0 MSTORE PUSH1 0x20 PUSH1 0x0 KECCAK256 ADD DUP1 SLOAD PUSH2 0x1F73 SWAP1 PUSH2 0x3332 JUMP JUMPDEST DUP1 PUSH1 0x1F ADD PUSH1 0x20 DUP1 SWAP2 DIV MUL PUSH1 0x20 ADD PUSH1 0x40 MLOAD SWAP1 DUP2 ADD PUSH1 0x40 MSTORE DUP1 SWAP3 SWAP2 SWAP1 DUP2 DUP2 MSTORE PUSH1 0x20 ADD DUP3 DUP1 SLOAD PUSH2 0x1F9F SWAP1 PUSH2 0x3332 JUMP JUMPDEST DUP1 ISZERO PUSH2 0x1FEC JUMPI DUP1 PUSH1 0x1F LT PUSH2 0x1FC1 JUMPI PUSH2 0x100 DUP1 DUP4 SLOAD DIV MUL DUP4 MSTORE SWAP2 PUSH1 0x20 ADD SWAP2 PUSH2 0x1FEC JUMP JUMPDEST DUP3 ADD SWAP2 SWAP1 PUSH1 0x0 MSTORE PUSH1 0x20 PUSH1 0x0 KECCAK256 SWAP1 JUMPDEST DUP2 SLOAD DUP2 MSTORE SWAP1 PUSH1 0x1 ADD SWAP1 PUSH1 0x20 ADD DUP1 DUP4 GT PUSH2 0x1FCF JUMPI DUP3 SWAP1 SUB PUSH1 0x1F AND DUP3 ADD SWAP2 JUMPDEST POP POP POP POP POP DUP2 MSTORE PUSH1 0x20 ADD SWAP1 PUSH1 0x1 ADD SWAP1 PUSH2 0x1F54 JUMP JUMPDEST POP POP POP POP DUP2 MSTORE PUSH1 0x20 ADD PUSH1 0x6 DUP3 ADD DUP1 SLOAD PUSH2 0x2018 SWAP1 PUSH2 0x3332 JUMP JUMPDEST DUP1 PUSH1 0x1F ADD PUSH1 0x20 DUP1 SWAP2 DIV MUL PUSH1 0x20 ADD PUSH1 0x40 MLOAD SWAP1 DUP2 ADD PUSH1 0x40 MSTORE DUP1 SWAP3 SWAP2 SWAP1 DUP2 DUP2 MSTORE PUSH1 0x20 ADD DUP3 DUP1 SLOAD PUSH2 0x2044 SWAP1 PUSH2 0x3332 JUMP JUMPDEST DUP1 ISZERO PUSH2 0x2091 JUMPI DUP1 PUSH1 0x1F LT PUSH2 0x2066 JUMPI PUSH2 0x100 DUP1 DUP4 SLOAD DIV MUL DUP4 MSTORE SWAP2 PUSH1 0x20 ADD SWAP2 PUSH2 0x2091 JUMP JUMPDEST DUP3 ADD SWAP2 SWAP1 PUSH1 0x0 MSTORE PUSH1 0x20 PUSH1 0x0 KECCAK256 SWAP1 JUMPDEST DUP2 SLOAD DUP2 MSTORE SWAP1 PUSH1 0x1 ADD SWAP1 PUSH1 0x20 ADD DUP1 DUP4 GT PUSH2 0x2074 JUMPI DUP3 SWAP1 SUB PUSH1 0x1F AND DUP3 ADD SWAP2 JUMPDEST POP POP POP POP POP DUP2 MSTORE PUSH1 0x20 ADD PUSH1 0x7 DUP3 ADD DUP1 SLOAD DUP1 PUSH1 0x20 MUL PUSH1 0x20 ADD PUSH1 0x40 MLOAD SWAP1 DUP2 ADD PUSH1 0x40 MSTORE DUP1 SWAP3 SWAP2 SWAP1 DUP2 DUP2 MSTORE PUSH1 0x20 ADD PUSH1 0x0 SWAP1 JUMPDEST DUP3 DUP3 LT ISZERO PUSH2 0x216B JUMPI DUP4 DUP3 SWAP1 PUSH1 0x0 MSTORE PUSH1 0x20 PUSH1 0x0 KECCAK256 ADD DUP1 SLOAD PUSH2 0x20DE SWAP1 PUSH2 0x3332 JUMP JUMPDEST DUP1 PUSH1 0x1F ADD PUSH1 0x20 DUP1 SWAP2 DIV MUL PUSH1 0x20 ADD PUSH1 0x40 MLOAD SWAP1 DUP2 ADD PUSH1 0x40 MSTORE DUP1 SWAP3 SWAP2 SWAP1 DUP2 DUP2 MSTORE PUSH1 0x20 ADD DUP3 DUP1 SLOAD PUSH2 0x210A SWAP1 PUSH2 0x3332 JUMP JUMPDEST DUP1 ISZERO PUSH2 0x2157 JUMPI DUP1 PUSH1 0x1F LT PUSH2 0x212C JUMPI PUSH2 0x100 DUP1 DUP4 SLOAD DIV MUL DUP4 MSTORE SWAP2 PUSH1 0x20 ADD SWAP2 PUSH2 0x2157 JUMP JUMPDEST DUP3 ADD SWAP2 SWAP1 PUSH1 0x0 MSTORE PUSH1 0x20 PUSH1 0x0 KECCAK256 SWAP1 JUMPDEST DUP2 SLOAD DUP2 MSTORE SWAP1 PUSH1 0x1 ADD SWAP1 PUSH1 0x20 ADD DUP1 DUP4 GT PUSH2 0x213A JUMPI DUP3 SWAP1 SUB PUSH1 0x1F AND DUP3 ADD SWAP2 JUMPDEST POP POP POP POP POP DUP2 MSTORE PUSH1 0x20 ADD SWAP1 PUSH1 0x1 ADD SWAP1 PUSH2 0x20BF JUMP JUMPDEST POP POP POP POP DUP2 MSTORE POP POP DUP2 MSTORE POP POP SWAP1 POP SWAP2 SWAP1 POP JUMP JUMPDEST PUSH1 0x40 MLOAD DUP1 PUSH2 0x100 ADD PUSH1 0x40 MSTORE DUP1 PUSH1 0x0 PUSH20 0xFFFFFFFFFFFFFFFFFFFFFFFFFFFFFFFFFFFFFFFF AND DUP2 MSTORE PUSH1 0x20 ADD PUSH1 0x60 DUP2 MSTORE PUSH1 0x20 ADD PUSH1 0x60 DUP2 MSTORE PUSH1 0x20 ADD PUSH1 0x60 DUP2 MSTORE PUSH1 0x20 ADD PUSH1 0x60 DUP2 MSTORE PUSH1 0x20 ADD PUSH1 0x0 DUP2 MSTORE PUSH1 0x20 ADD PUSH2 0x21D2 PUSH2 0x2357 JUMP JUMPDEST DUP2 MSTORE PUSH1 0x20 ADD PUSH1 0x60 DUP2 MSTORE POP SWAP1 JUMP JUMPDEST DUP3 DUP1 SLOAD PUSH2 0x21EB SWAP1 PUSH2 0x3332 JUMP JUMPDEST SWAP1 PUSH1 0x0 MSTORE PUSH1 0x20 PUSH1 0x0 KECCAK256 SWAP1 PUSH1 0x1F ADD PUSH1 0x20 SWAP1 DIV DUP2 ADD SWAP3 DUP3 PUSH2 0x220D JUMPI PUSH1 0x0 DUP6 SSTORE PUSH2 0x2254 JUMP JUMPDEST DUP3 PUSH1 0x1F LT PUSH2 0x2226 JUMPI DUP1 MLOAD PUSH1 0xFF NOT AND DUP4 DUP1 ADD OR DUP6 SSTORE PUSH2 0x2254 JUMP JUMPDEST DUP3 DUP1 ADD PUSH1 0x1 ADD DUP6 SSTORE DUP3 ISZERO PUSH2 0x2254 JUMPI SWAP2 DUP3 ADD JUMPDEST DUP3 DUP2 GT ISZERO PUSH2 0x2253 JUMPI DUP3 MLOAD DUP3 SSTORE SWAP2 PUSH1 0x20 ADD SWAP2 SWAP1 PUSH1 0x1 ADD SWAP1 PUSH2 0x2238 JUMP JUMPDEST JUMPDEST POP SWAP1 POP PUSH2 0x2261 SWAP2 SWAP1 PUSH2 0x237A JUMP JUMPDEST POP SWAP1 JUMP JUMPDEST DUP3 PUSH1 0xC DUP2 ADD SWAP3 DUP3 ISZERO PUSH2 0x2294 JUMPI SWAP2 PUSH1 0x20 MUL DUP3 ADD JUMPDEST DUP3 DUP2 GT ISZERO PUSH2 0x2293 JUMPI DUP3 MLOAD DUP3 SSTORE SWAP2 PUSH1 0x20 ADD SWAP2 SWAP1 PUSH1 0x1 ADD SWAP1 PUSH2 0x2278 JUMP JUMPDEST JUMPDEST POP SWAP1 POP PUSH2 0x22A1 SWAP2 SWAP1 PUSH2 0x237A JUMP JUMPDEST POP SWAP1 JUMP JUMPDEST PUSH1 0x40 MLOAD DUP1 PUSH1 0xC0 ADD PUSH1 0x40 MSTORE DUP1 PUSH1 0x0 DUP2 MSTORE PUSH1 0x20 ADD PUSH1 0x0 PUSH20 0xFFFFFFFFFFFFFFFFFFFFFFFFFFFFFFFFFFFFFFFF AND DUP2 MSTORE PUSH1 0x20 ADD PUSH1 0x60 DUP2 MSTORE PUSH1 0x20 ADD PUSH1 0x0 DUP2 MSTORE PUSH1 0x20 ADD PUSH1 0x0 DUP2 MSTORE PUSH1 0x20 ADD PUSH2 0x22F1 PUSH2 0x2397 JUMP JUMPDEST DUP2 MSTORE POP SWAP1 JUMP JUMPDEST DUP3 DUP1 SLOAD DUP3 DUP3 SSTORE SWAP1 PUSH1 0x0 MSTORE PUSH1 0x20 PUSH1 0x0 KECCAK256 SWAP1 DUP2 ADD SWAP3 DUP3 ISZERO PUSH2 0x2346 JUMPI SWAP2 PUSH1 0x20 MUL DUP3 ADD JUMPDEST DUP3 DUP2 GT ISZERO PUSH2 0x2345 JUMPI DUP3 MLOAD DUP3 SWAP1 DUP1 MLOAD SWAP1 PUSH1 0x20 ADD SWAP1 PUSH2 0x2335 SWAP3 SWAP2 SWAP1 PUSH2 0x21DF JUMP JUMPDEST POP SWAP2 PUSH1 0x20 ADD SWAP2 SWAP1 PUSH1 0x1 ADD SWAP1 PUSH2 0x2317 JUMP JUMPDEST JUMPDEST POP SWAP1 POP PUSH2 0x2353 SWAP2 SWAP1 PUSH2 0x23DC JUMP JUMPDEST POP SWAP1 JUMP JUMPDEST PUSH1 0x40 MLOAD DUP1 PUSH2 0x180 ADD PUSH1 0x40 MSTORE DUP1 PUSH1 0xC SWAP1 PUSH1 0x20 DUP3 MUL DUP1 CALLDATASIZE DUP4 CALLDATACOPY DUP1 DUP3 ADD SWAP2 POP POP SWAP1 POP POP SWAP1 JUMP JUMPDEST JUMPDEST DUP1 DUP3 GT ISZERO PUSH2 0x2393 JUMPI PUSH1 0x0 DUP2 PUSH1 0x0 SWAP1 SSTORE POP PUSH1 0x1 ADD PUSH2 0x237B JUMP JUMPDEST POP SWAP1 JUMP JUMPDEST PUSH1 0x40 MLOAD DUP1 PUSH2 0x100 ADD PUSH1 0x40 MSTORE DUP1 PUSH1 0x60 DUP2 MSTORE PUSH1 0x20 ADD PUSH1 0x60 DUP2 MSTORE PUSH1 0x20 ADD PUSH1 0x0 DUP2 MSTORE PUSH1 0x20 ADD PUSH1 0x60 DUP2 MSTORE PUSH1 0x20 ADD PUSH1 0x60 DUP2 MSTORE PUSH1 0x20 ADD PUSH1 0x60 DUP2 MSTORE PUSH1 0x20 ADD PUSH1 0x60 DUP2 MSTORE PUSH1 0x20 ADD PUSH1 0x60 DUP2 MSTORE POP SWAP1 JUMP JUMPDEST JUMPDEST DUP1 DUP3 GT ISZERO PUSH2 0x23FC JUMPI PUSH1 0x0 DUP2 DUP2 PUSH2 0x23F3 SWAP2 SWAP1 PUSH2 0x2400 JUMP JUMPDEST POP PUSH1 0x1 ADD PUSH2 0x23DD JUMP JUMPDEST POP SWAP1 JUMP JUMPDEST POP DUP1 SLOAD PUSH2 0x240C SWAP1 PUSH2 0x3332 JUMP JUMPDEST PUSH1 0x0 DUP3 SSTORE DUP1 PUSH1 0x1F LT PUSH2 0x241E JUMPI POP PUSH2 0x243D JUMP JUMPDEST PUSH1 0x1F ADD PUSH1 0x20 SWAP1 DIV SWAP1 PUSH1 0x0 MSTORE PUSH1 0x20 PUSH1 0x0 KECCAK256 SWAP1 DUP2 ADD SWAP1 PUSH2 0x243C SWAP2 SWAP1 PUSH2 0x237A JUMP JUMPDEST JUMPDEST POP JUMP JUMPDEST PUSH1 0x0 PUSH2 0x2453 PUSH2 0x244E DUP5 PUSH2 0x30A4 JUMP JUMPDEST PUSH2 0x307F JUMP JUMPDEST SWAP1 POP DUP1 DUP4 DUP3 MSTORE PUSH1 0x20 DUP3 ADD SWAP1 POP DUP3 DUP6 PUSH1 0x20 DUP7 MUL DUP3 ADD GT ISZERO PUSH2 0x2476 JUMPI PUSH2 0x2475 PUSH2 0x349F JUMP JUMPDEST JUMPDEST PUSH1 0x0 JUMPDEST DUP6 DUP2 LT ISZERO PUSH2 0x24C4 JUMPI DUP2 CALLDATALOAD PUSH8 0xFFFFFFFFFFFFFFFF DUP2 GT ISZERO PUSH2 0x249C JUMPI PUSH2 0x249B PUSH2 0x349A JUMP JUMPDEST JUMPDEST DUP1 DUP7 ADD PUSH2 0x24A9 DUP10 DUP3 PUSH2 0x25FA JUMP JUMPDEST DUP6 MSTORE PUSH1 0x20 DUP6 ADD SWAP5 POP PUSH1 0x20 DUP5 ADD SWAP4 POP POP POP PUSH1 0x1 DUP2 ADD SWAP1 POP PUSH2 0x2479 JUMP JUMPDEST POP POP POP SWAP4 SWAP3 POP POP POP JUMP JUMPDEST PUSH1 0x0 PUSH2 0x24E1 PUSH2 0x24DC DUP5 PUSH2 0x30D0 JUMP JUMPDEST PUSH2 0x307F JUMP JUMPDEST SWAP1 POP DUP1 DUP3 DUP6 PUSH1 0x20 DUP7 MUL DUP3 ADD GT ISZERO PUSH2 0x24FB JUMPI PUSH2 0x24FA PUSH2 0x349F JUMP JUMPDEST JUMPDEST PUSH1 0x0 JUMPDEST DUP6 DUP2 LT ISZERO PUSH2 0x252B JUMPI DUP2 PUSH2 0x2511 DUP9 DUP3 PUSH2 0x2628 JUMP JUMPDEST DUP5 MSTORE PUSH1 0x20 DUP5 ADD SWAP4 POP PUSH1 0x20 DUP4 ADD SWAP3 POP POP PUSH1 0x1 DUP2 ADD SWAP1 POP PUSH2 0x24FE JUMP JUMPDEST POP POP POP SWAP4 SWAP3 POP POP POP JUMP JUMPDEST PUSH1 0x0 PUSH2 0x2548 PUSH2 0x2543 DUP5 PUSH2 0x30F6 JUMP JUMPDEST PUSH2 0x307F JUMP JUMPDEST SWAP1 POP DUP3 DUP2 MSTORE PUSH1 0x20 DUP2 ADD DUP5 DUP5 DUP5 ADD GT ISZERO PUSH2 0x2564 JUMPI PUSH2 0x2563 PUSH2 0x34A4 JUMP JUMPDEST JUMPDEST PUSH2 0x256F DUP5 DUP3 DUP6 PUSH2 0x32F0 JUMP JUMPDEST POP SWAP4 SWAP3 POP POP POP JUMP JUMPDEST PUSH1 0x0 DUP2 CALLDATALOAD SWAP1 POP PUSH2 0x2586 DUP2 PUSH2 0x34C4 JUMP JUMPDEST SWAP3 SWAP2 POP POP JUMP JUMPDEST PUSH1 0x0 DUP3 PUSH1 0x1F DUP4 ADD SLT PUSH2 0x25A1 JUMPI PUSH2 0x25A0 PUSH2 0x349A JUMP JUMPDEST JUMPDEST DUP2 CALLDATALOAD PUSH2 0x25B1 DUP5 DUP3 PUSH1 0x20 DUP7 ADD PUSH2 0x2440 JUMP JUMPDEST SWAP2 POP POP SWAP3 SWAP2 POP POP JUMP JUMPDEST PUSH1 0x0 DUP3 PUSH1 0x1F DUP4 ADD SLT PUSH2 0x25CF JUMPI PUSH2 0x25CE PUSH2 0x349A JUMP JUMPDEST JUMPDEST PUSH1 0xC PUSH2 0x25DC DUP5 DUP3 DUP6 PUSH2 0x24CE JUMP JUMPDEST SWAP2 POP POP SWAP3 SWAP2 POP POP JUMP JUMPDEST PUSH1 0x0 DUP2 CALLDATALOAD SWAP1 POP PUSH2 0x25F4 DUP2 PUSH2 0x34DB JUMP JUMPDEST SWAP3 SWAP2 POP POP JUMP JUMPDEST PUSH1 0x0 DUP3 PUSH1 0x1F DUP4 ADD SLT PUSH2 0x260F JUMPI PUSH2 0x260E PUSH2 0x349A JUMP JUMPDEST JUMPDEST DUP2 CALLDATALOAD PUSH2 0x261F DUP5 DUP3 PUSH1 0x20 DUP7 ADD PUSH2 0x2535 JUMP JUMPDEST SWAP2 POP POP SWAP3 SWAP2 POP POP JUMP JUMPDEST PUSH1 0x0 DUP2 CALLDATALOAD SWAP1 POP PUSH2 0x2637 DUP2 PUSH2 0x34F2 JUMP JUMPDEST SWAP3 SWAP2 POP POP JUMP JUMPDEST PUSH1 0x0 PUSH1 0x20 DUP3 DUP5 SUB SLT ISZERO PUSH2 0x2653 JUMPI PUSH2 0x2652 PUSH2 0x34AE JUMP JUMPDEST JUMPDEST PUSH1 0x0 PUSH2 0x2661 DUP5 DUP3 DUP6 ADD PUSH2 0x2577 JUMP JUMPDEST SWAP2 POP POP SWAP3 SWAP2 POP POP JUMP JUMPDEST PUSH1 0x0 DUP1 PUSH1 0x40 DUP4 DUP6 SUB SLT ISZERO PUSH2 0x2681 JUMPI PUSH2 0x2680 PUSH2 0x34AE JUMP JUMPDEST JUMPDEST PUSH1 0x0 PUSH2 0x268F DUP6 DUP3 DUP7 ADD PUSH2 0x2577 JUMP JUMPDEST SWAP3 POP POP PUSH1 0x20 PUSH2 0x26A0 DUP6 DUP3 DUP7 ADD PUSH2 0x2628 JUMP JUMPDEST SWAP2 POP POP SWAP3 POP SWAP3 SWAP1 POP JUMP JUMPDEST PUSH1 0x0 DUP1 PUSH1 0x0 DUP1 PUSH1 0x0 DUP1 PUSH1 0x0 PUSH2 0x240 DUP9 DUP11 SUB SLT ISZERO PUSH2 0x26CA JUMPI PUSH2 0x26C9 PUSH2 0x34AE JUMP JUMPDEST JUMPDEST PUSH1 0x0 DUP9 ADD CALLDATALOAD PUSH8 0xFFFFFFFFFFFFFFFF DUP2 GT ISZERO PUSH2 0x26E8 JUMPI PUSH2 0x26E7 PUSH2 0x34A9 JUMP JUMPDEST JUMPDEST PUSH2 0x26F4 DUP11 DUP3 DUP12 ADD PUSH2 0x25FA JUMP JUMPDEST SWAP8 POP POP PUSH1 0x20 DUP9 ADD CALLDATALOAD PUSH8 0xFFFFFFFFFFFFFFFF DUP2 GT ISZERO PUSH2 0x2715 JUMPI PUSH2 0x2714 PUSH2 0x34A9 JUMP JUMPDEST JUMPDEST PUSH2 0x2721 DUP11 DUP3 DUP12 ADD PUSH2 0x25FA JUMP JUMPDEST SWAP7 POP POP PUSH1 0x40 DUP9 ADD CALLDATALOAD PUSH8 0xFFFFFFFFFFFFFFFF DUP2 GT ISZERO PUSH2 0x2742 JUMPI PUSH2 0x2741 PUSH2 0x34A9 JUMP JUMPDEST JUMPDEST PUSH2 0x274E DUP11 DUP3 DUP12 ADD PUSH2 0x25FA JUMP JUMPDEST SWAP6 POP POP PUSH1 0x60 DUP9 ADD CALLDATALOAD PUSH8 0xFFFFFFFFFFFFFFFF DUP2 GT ISZERO PUSH2 0x276F JUMPI PUSH2 0x276E PUSH2 0x34A9 JUMP JUMPDEST JUMPDEST PUSH2 0x277B DUP11 DUP3 DUP12 ADD PUSH2 0x25FA JUMP JUMPDEST SWAP5 POP POP PUSH1 0x80 PUSH2 0x278C DUP11 DUP3 DUP12 ADD PUSH2 0x2628 JUMP JUMPDEST SWAP4 POP POP PUSH1 0xA0 PUSH2 0x279D DUP11 DUP3 DUP12 ADD PUSH2 0x25BA JUMP JUMPDEST SWAP3 POP POP PUSH2 0x220 DUP9 ADD CALLDATALOAD PUSH8 0xFFFFFFFFFFFFFFFF DUP2 GT ISZERO PUSH2 0x27BF JUMPI PUSH2 0x27BE PUSH2 0x34A9 JUMP JUMPDEST JUMPDEST PUSH2 0x27CB DUP11 DUP3 DUP12 ADD PUSH2 0x25FA JUMP JUMPDEST SWAP2 POP POP SWAP3 SWAP6 SWAP9 SWAP2 SWAP5 SWAP8 POP SWAP3 SWAP6 POP JUMP JUMPDEST PUSH1 0x0 DUP1 PUSH1 0x0 DUP1 PUSH1 0x0 DUP1 PUSH1 0x0 DUP1 PUSH1 0x0 DUP1 PUSH1 0x0 PUSH2 0x160 DUP13 DUP15 SUB SLT ISZERO PUSH2 0x2800 JUMPI PUSH2 0x27FF PUSH2 0x34AE JUMP JUMPDEST JUMPDEST PUSH1 0x0 DUP13 ADD CALLDATALOAD PUSH8 0xFFFFFFFFFFFFFFFF DUP2 GT ISZERO PUSH2 0x281E JUMPI PUSH2 0x281D PUSH2 0x34A9 JUMP JUMPDEST JUMPDEST PUSH2 0x282A DUP15 DUP3 DUP16 ADD PUSH2 0x25FA JUMP JUMPDEST SWAP12 POP POP PUSH1 0x20 PUSH2 0x283B DUP15 DUP3 DUP16 ADD PUSH2 0x2628 JUMP JUMPDEST SWAP11 POP POP PUSH1 0x40 PUSH2 0x284C DUP15 DUP3 DUP16 ADD PUSH2 0x2628 JUMP JUMPDEST SWAP10 POP POP PUSH1 0x60 DUP13 ADD CALLDATALOAD PUSH8 0xFFFFFFFFFFFFFFFF DUP2 GT ISZERO PUSH2 0x286D JUMPI PUSH2 0x286C PUSH2 0x34A9 JUMP JUMPDEST JUMPDEST PUSH2 0x2879 DUP15 DUP3 DUP16 ADD PUSH2 0x25FA JUMP JUMPDEST SWAP9 POP POP PUSH1 0x80 DUP13 ADD CALLDATALOAD PUSH8 0xFFFFFFFFFFFFFFFF DUP2 GT ISZERO PUSH2 0x289A JUMPI PUSH2 0x2899 PUSH2 0x34A9 JUMP JUMPDEST JUMPDEST PUSH2 0x28A6 DUP15 DUP3 DUP16 ADD PUSH2 0x25FA JUMP JUMPDEST SWAP8 POP POP PUSH1 0xA0 PUSH2 0x28B7 DUP15 DUP3 DUP16 ADD PUSH2 0x25E5 JUMP JUMPDEST SWAP7 POP POP PUSH1 0xC0 DUP13 ADD CALLDATALOAD PUSH8 0xFFFFFFFFFFFFFFFF DUP2 GT ISZERO PUSH2 0x28D8 JUMPI PUSH2 0x28D7 PUSH2 0x34A9 JUMP JUMPDEST JUMPDEST PUSH2 0x28E4 DUP15 DUP3 DUP16 ADD PUSH2 0x258C JUMP JUMPDEST SWAP6 POP POP PUSH1 0xE0 DUP13 ADD CALLDATALOAD PUSH8 0xFFFFFFFFFFFFFFFF DUP2 GT ISZERO PUSH2 0x2905 JUMPI PUSH2 0x2904 PUSH2 0x34A9 JUMP JUMPDEST JUMPDEST PUSH2 0x2911 DUP15 DUP3 DUP16 ADD PUSH2 0x258C JUMP JUMPDEST SWAP5 POP POP PUSH2 0x100 DUP13 ADD CALLDATALOAD PUSH8 0xFFFFFFFFFFFFFFFF DUP2 GT ISZERO PUSH2 0x2933 JUMPI PUSH2 0x2932 PUSH2 0x34A9 JUMP JUMPDEST JUMPDEST PUSH2 0x293F DUP15 DUP3 DUP16 ADD PUSH2 0x258C JUMP JUMPDEST SWAP4 POP POP PUSH2 0x120 DUP13 ADD CALLDATALOAD PUSH8 0xFFFFFFFFFFFFFFFF DUP2 GT ISZERO PUSH2 0x2961 JUMPI PUSH2 0x2960 PUSH2 0x34A9 JUMP JUMPDEST JUMPDEST PUSH2 0x296D DUP15 DUP3 DUP16 ADD PUSH2 0x25FA JUMP JUMPDEST SWAP3 POP POP PUSH2 0x140 DUP13 ADD CALLDATALOAD PUSH8 0xFFFFFFFFFFFFFFFF DUP2 GT ISZERO PUSH2 0x298F JUMPI PUSH2 0x298E PUSH2 0x34A9 JUMP JUMPDEST JUMPDEST PUSH2 0x299B DUP15 DUP3 DUP16 ADD PUSH2 0x258C JUMP JUMPDEST SWAP2 POP POP SWAP3 SWAP6 SWAP9 SWAP12 POP SWAP3 SWAP6 SWAP9 SWAP12 SWAP1 SWAP4 SWAP7 SWAP10 POP JUMP JUMPDEST PUSH1 0x0 PUSH1 0x20 DUP3 DUP5 SUB SLT ISZERO PUSH2 0x29C4 JUMPI PUSH2 0x29C3 PUSH2 0x34AE JUMP JUMPDEST JUMPDEST PUSH1 0x0 PUSH2 0x29D2 DUP5 DUP3 DUP6 ADD PUSH2 0x2628 JUMP JUMPDEST SWAP2 POP POP SWAP3 SWAP2 POP POP JUMP JUMPDEST PUSH1 0x0 DUP1 PUSH1 0x40 DUP4 DUP6 SUB SLT ISZERO PUSH2 0x29F2 JUMPI PUSH2 0x29F1 PUSH2 0x34AE JUMP JUMPDEST JUMPDEST PUSH1 0x0 PUSH2 0x2A00 DUP6 DUP3 DUP7 ADD PUSH2 0x2628 JUMP JUMPDEST SWAP3 POP POP PUSH1 0x20 PUSH2 0x2A11 DUP6 DUP3 DUP7 ADD PUSH2 0x2628 JUMP JUMPDEST SWAP2 POP POP SWAP3 POP SWAP3 SWAP1 POP JUMP JUMPDEST PUSH1 0x0 PUSH2 0x2A27 DUP4 DUP4 PUSH2 0x2B4F JUMP JUMPDEST SWAP1 POP SWAP3 SWAP2 POP POP JUMP JUMPDEST PUSH1 0x0 PUSH2 0x2A3B DUP4 DUP4 PUSH2 0x2E05 JUMP JUMPDEST PUSH1 0x20 DUP4 ADD SWAP1 POP SWAP3 SWAP2 POP POP JUMP JUMPDEST PUSH2 0x2A50 DUP2 PUSH2 0x329E JUMP JUMPDEST DUP3 MSTORE POP POP JUMP JUMPDEST PUSH2 0x2A5F DUP2 PUSH2 0x329E JUMP JUMPDEST DUP3 MSTORE POP POP JUMP JUMPDEST PUSH1 0x0 PUSH2 0x2A70 DUP3 PUSH2 0x3141 JUMP JUMPDEST PUSH2 0x2A7A DUP2 DUP6 PUSH2 0x317C JUMP JUMPDEST SWAP4 POP DUP4 PUSH1 0x20 DUP3 MUL DUP6 ADD PUSH2 0x2A8C DUP6 PUSH2 0x3127 JUMP JUMPDEST DUP1 PUSH1 0x0 JUMPDEST DUP6 DUP2 LT ISZERO PUSH2 0x2AC8 JUMPI DUP5 DUP5 SUB DUP10 MSTORE DUP2 MLOAD PUSH2 0x2AA9 DUP6 DUP3 PUSH2 0x2A1B JUMP JUMPDEST SWAP5 POP PUSH2 0x2AB4 DUP4 PUSH2 0x3162 JUMP JUMPDEST SWAP3 POP PUSH1 0x20 DUP11 ADD SWAP10 POP POP PUSH1 0x1 DUP2 ADD SWAP1 POP PUSH2 0x2A90 JUMP JUMPDEST POP DUP3 SWAP8 POP DUP8 SWAP6 POP POP POP POP POP POP SWAP3 SWAP2 POP POP JUMP JUMPDEST PUSH2 0x2AE3 DUP2 PUSH2 0x314C JUMP JUMPDEST PUSH2 0x2AED DUP2 DUP5 PUSH2 0x318D JUMP JUMPDEST SWAP3 POP PUSH2 0x2AF8 DUP3 PUSH2 0x3137 JUMP JUMPDEST DUP1 PUSH1 0x0 JUMPDEST DUP4 DUP2 LT ISZERO PUSH2 0x2B29 JUMPI DUP2 MLOAD PUSH2 0x2B10 DUP8 DUP3 PUSH2 0x2A2F JUMP JUMPDEST SWAP7 POP PUSH2 0x2B1B DUP4 PUSH2 0x316F JUMP JUMPDEST SWAP3 POP POP PUSH1 0x1 DUP2 ADD SWAP1 POP PUSH2 0x2AFC JUMP JUMPDEST POP POP POP POP POP POP JUMP JUMPDEST PUSH2 0x2B3A DUP2 PUSH2 0x32B0 JUMP JUMPDEST DUP3 MSTORE POP POP JUMP JUMPDEST PUSH2 0x2B49 DUP2 PUSH2 0x32BC JUMP JUMPDEST DUP3 MSTORE POP POP JUMP JUMPDEST PUSH1 0x0 PUSH2 0x2B5A DUP3 PUSH2 0x3157 JUMP JUMPDEST PUSH2 0x2B64 DUP2 DUP6 PUSH2 0x3198 JUMP JUMPDEST SWAP4 POP PUSH2 0x2B74 DUP2 DUP6 PUSH1 0x20 DUP7 ADD PUSH2 0x32FF JUMP JUMPDEST PUSH2 0x2B7D DUP2 PUSH2 0x34B3 JUMP JUMPDEST DUP5 ADD SWAP2 POP POP SWAP3 SWAP2 POP POP JUMP JUMPDEST PUSH1 0x0 PUSH2 0x2B93 DUP3 PUSH2 0x3157 JUMP JUMPDEST PUSH2 0x2B9D DUP2 DUP6 PUSH2 0x31A9 JUMP JUMPDEST SWAP4 POP PUSH2 0x2BAD DUP2 DUP6 PUSH1 0x20 DUP7 ADD PUSH2 0x32FF JUMP JUMPDEST PUSH2 0x2BB6 DUP2 PUSH2 0x34B3 JUMP JUMPDEST DUP5 ADD SWAP2 POP POP SWAP3 SWAP2 POP POP JUMP JUMPDEST PUSH1 0x0 PUSH2 0x100 DUP4 ADD PUSH1 0x0 DUP4 ADD MLOAD DUP5 DUP3 SUB PUSH1 0x0 DUP7 ADD MSTORE PUSH2 0x2BDF DUP3 DUP3 PUSH2 0x2B4F JUMP JUMPDEST SWAP2 POP POP PUSH1 0x20 DUP4 ADD MLOAD DUP5 DUP3 SUB PUSH1 0x20 DUP7 ADD MSTORE PUSH2 0x2BF9 DUP3 DUP3 PUSH2 0x2B4F JUMP JUMPDEST SWAP2 POP POP PUSH1 0x40 DUP4 ADD MLOAD PUSH2 0x2C0E PUSH1 0x40 DUP7 ADD DUP3 PUSH2 0x2B40 JUMP JUMPDEST POP PUSH1 0x60 DUP4 ADD MLOAD DUP5 DUP3 SUB PUSH1 0x60 DUP7 ADD MSTORE PUSH2 0x2C26 DUP3 DUP3 PUSH2 0x2A65 JUMP JUMPDEST SWAP2 POP POP PUSH1 0x80 DUP4 ADD MLOAD DUP5 DUP3 SUB PUSH1 0x80 DUP7 ADD MSTORE PUSH2 0x2C40 DUP3 DUP3 PUSH2 0x2A65 JUMP JUMPDEST SWAP2 POP POP PUSH1 0xA0 DUP4 ADD MLOAD DUP5 DUP3 SUB PUSH1 0xA0 DUP7 ADD MSTORE PUSH2 0x2C5A DUP3 DUP3 PUSH2 0x2A65 JUMP JUMPDEST SWAP2 POP POP PUSH1 0xC0 DUP4 ADD MLOAD DUP5 DUP3 SUB PUSH1 0xC0 DUP7 ADD MSTORE PUSH2 0x2C74 DUP3 DUP3 PUSH2 0x2B4F JUMP JUMPDEST SWAP2 POP POP PUSH1 0xE0 DUP4 ADD MLOAD DUP5 DUP3 SUB PUSH1 0xE0 DUP7 ADD MSTORE PUSH2 0x2C8E DUP3 DUP3 PUSH2 0x2A65 JUMP JUMPDEST SWAP2 POP POP DUP1 SWAP2 POP POP SWAP3 SWAP2 POP POP JUMP JUMPDEST PUSH1 0x0 PUSH2 0x100 DUP4 ADD PUSH1 0x0 DUP4 ADD MLOAD DUP5 DUP3 SUB PUSH1 0x0 DUP7 ADD MSTORE PUSH2 0x2CB9 DUP3 DUP3 PUSH2 0x2B4F JUMP JUMPDEST SWAP2 POP POP PUSH1 0x20 DUP4 ADD MLOAD DUP5 DUP3 SUB PUSH1 0x20 DUP7 ADD MSTORE PUSH2 0x2CD3 DUP3 DUP3 PUSH2 0x2B4F JUMP JUMPDEST SWAP2 POP POP PUSH1 0x40 DUP4 ADD MLOAD PUSH2 0x2CE8 PUSH1 0x40 DUP7 ADD DUP3 PUSH2 0x2B40 JUMP JUMPDEST POP PUSH1 0x60 DUP4 ADD MLOAD DUP5 DUP3 SUB PUSH1 0x60 DUP7 ADD MSTORE PUSH2 0x2D00 DUP3 DUP3 PUSH2 0x2A65 JUMP JUMPDEST SWAP2 POP POP PUSH1 0x80 DUP4 ADD MLOAD DUP5 DUP3 SUB PUSH1 0x80 DUP7 ADD MSTORE PUSH2 0x2D1A DUP3 DUP3 PUSH2 0x2A65 JUMP JUMPDEST SWAP2 POP POP PUSH1 0xA0 DUP4 ADD MLOAD DUP5 DUP3 SUB PUSH1 0xA0 DUP7 ADD MSTORE PUSH2 0x2D34 DUP3 DUP3 PUSH2 0x2A65 JUMP JUMPDEST SWAP2 POP POP PUSH1 0xC0 DUP4 ADD MLOAD DUP5 DUP3 SUB PUSH1 0xC0 DUP7 ADD MSTORE PUSH2 0x2D4E DUP3 DUP3 PUSH2 0x2B4F JUMP JUMPDEST SWAP2 POP POP PUSH1 0xE0 DUP4 ADD MLOAD DUP5 DUP3 SUB PUSH1 0xE0 DUP7 ADD MSTORE PUSH2 0x2D68 DUP3 DUP3 PUSH2 0x2A65 JUMP JUMPDEST SWAP2 POP POP DUP1 SWAP2 POP POP SWAP3 SWAP2 POP POP JUMP JUMPDEST PUSH1 0x0 PUSH1 0xC0 DUP4 ADD PUSH1 0x0 DUP4 ADD MLOAD PUSH2 0x2D8D PUSH1 0x0 DUP7 ADD DUP3 PUSH2 0x2E05 JUMP JUMPDEST POP PUSH1 0x20 DUP4 ADD MLOAD PUSH2 0x2DA0 PUSH1 0x20 DUP7 ADD DUP3 PUSH2 0x2A47 JUMP JUMPDEST POP PUSH1 0x40 DUP4 ADD MLOAD DUP5 DUP3 SUB PUSH1 0x40 DUP7 ADD MSTORE PUSH2 0x2DB8 DUP3 DUP3 PUSH2 0x2B4F JUMP JUMPDEST SWAP2 POP POP PUSH1 0x60 DUP4 ADD MLOAD PUSH2 0x2DCD PUSH1 0x60 DUP7 ADD DUP3 PUSH2 0x2E05 JUMP JUMPDEST POP PUSH1 0x80 DUP4 ADD MLOAD PUSH2 0x2DE0 PUSH1 0x80 DUP7 ADD DUP3 PUSH2 0x2E05 JUMP JUMPDEST POP PUSH1 0xA0 DUP4 ADD MLOAD DUP5 DUP3 SUB PUSH1 0xA0 DUP7 ADD MSTORE PUSH2 0x2DF8 DUP3 DUP3 PUSH2 0x2BC1 JUMP JUMPDEST SWAP2 POP POP DUP1 SWAP2 POP POP SWAP3 SWAP2 POP POP JUMP JUMPDEST PUSH2 0x2E0E DUP2 PUSH2 0x32E6 JUMP JUMPDEST DUP3 MSTORE POP POP JUMP JUMPDEST PUSH2 0x2E1D DUP2 PUSH2 0x32E6 JUMP JUMPDEST DUP3 MSTORE POP POP JUMP JUMPDEST PUSH1 0x0 PUSH1 0xC0 DUP3 ADD SWAP1 POP PUSH2 0x2E38 PUSH1 0x0 DUP4 ADD DUP10 PUSH2 0x2A56 JUMP JUMPDEST PUSH2 0x2E45 PUSH1 0x20 DUP4 ADD DUP9 PUSH2 0x2A56 JUMP JUMPDEST PUSH2 0x2E52 PUSH1 0x40 DUP4 ADD DUP8 PUSH2 0x2E14 JUMP JUMPDEST PUSH2 0x2E5F PUSH1 0x60 DUP4 ADD DUP7 PUSH2 0x2E14 JUMP JUMPDEST PUSH2 0x2E6C PUSH1 0x80 DUP4 ADD DUP6 PUSH2 0x2E14 JUMP JUMPDEST PUSH2 0x2E79 PUSH1 0xA0 DUP4 ADD DUP5 PUSH2 0x2E14 JUMP JUMPDEST SWAP8 SWAP7 POP POP POP POP POP POP POP JUMP JUMPDEST PUSH1 0x0 PUSH2 0x260 DUP3 ADD SWAP1 POP PUSH2 0x2E9A PUSH1 0x0 DUP4 ADD DUP12 PUSH2 0x2A56 JUMP JUMPDEST DUP2 DUP2 SUB PUSH1 0x20 DUP4 ADD MSTORE PUSH2 0x2EAC DUP2 DUP11 PUSH2 0x2B88 JUMP JUMPDEST SWAP1 POP DUP2 DUP2 SUB PUSH1 0x40 DUP4 ADD MSTORE PUSH2 0x2EC0 DUP2 DUP10 PUSH2 0x2B88 JUMP JUMPDEST SWAP1 POP DUP2 DUP2 SUB PUSH1 0x60 DUP4 ADD MSTORE PUSH2 0x2ED4 DUP2 DUP9 PUSH2 0x2B88 JUMP JUMPDEST SWAP1 POP DUP2 DUP2 SUB PUSH1 0x80 DUP4 ADD MSTORE PUSH2 0x2EE8 DUP2 DUP8 PUSH2 0x2B88 JUMP JUMPDEST SWAP1 POP PUSH2 0x2EF7 PUSH1 0xA0 DUP4 ADD DUP7 PUSH2 0x2E14 JUMP JUMPDEST PUSH2 0x2F04 PUSH1 0xC0 DUP4 ADD DUP6 PUSH2 0x2ADA JUMP JUMPDEST DUP2 DUP2 SUB PUSH2 0x240 DUP4 ADD MSTORE PUSH2 0x2F17 DUP2 DUP5 PUSH2 0x2B88 JUMP JUMPDEST SWAP1 POP SWAP10 SWAP9 POP POP POP POP POP POP POP POP POP JUMP JUMPDEST PUSH1 0x0 PUSH1 0xE0 DUP3 ADD SWAP1 POP PUSH2 0x2F3B PUSH1 0x0 DUP4 ADD DUP11 PUSH2 0x2A56 JUMP JUMPDEST DUP2 DUP2 SUB PUSH1 0x20 DUP4 ADD MSTORE PUSH2 0x2F4D DUP2 DUP10 PUSH2 0x2B88 JUMP JUMPDEST SWAP1 POP DUP2 DUP2 SUB PUSH1 0x40 DUP4 ADD MSTORE PUSH2 0x2F61 DUP2 DUP9 PUSH2 0x2B88 JUMP JUMPDEST SWAP1 POP DUP2 DUP2 SUB PUSH1 0x60 DUP4 ADD MSTORE PUSH2 0x2F75 DUP2 DUP8 PUSH2 0x2B88 JUMP JUMPDEST SWAP1 POP DUP2 DUP2 SUB PUSH1 0x80 DUP4 ADD MSTORE PUSH2 0x2F89 DUP2 DUP7 PUSH2 0x2B88 JUMP JUMPDEST SWAP1 POP PUSH2 0x2F98 PUSH1 0xA0 DUP4 ADD DUP6 PUSH2 0x2E14 JUMP JUMPDEST DUP2 DUP2 SUB PUSH1 0xC0 DUP4 ADD MSTORE PUSH2 0x2FAA DUP2 DUP5 PUSH2 0x2B88 JUMP JUMPDEST SWAP1 POP SWAP9 SWAP8 POP POP POP POP POP POP POP POP JUMP JUMPDEST PUSH1 0x0 PUSH1 0x20 DUP3 ADD SWAP1 POP PUSH2 0x2FCD PUSH1 0x0 DUP4 ADD DUP5 PUSH2 0x2B31 JUMP JUMPDEST SWAP3 SWAP2 POP POP JUMP JUMPDEST PUSH1 0x0 PUSH1 0x20 DUP3 ADD SWAP1 POP DUP2 DUP2 SUB PUSH1 0x0 DUP4 ADD MSTORE PUSH2 0x2FED DUP2 DUP5 PUSH2 0x2D75 JUMP JUMPDEST SWAP1 POP SWAP3 SWAP2 POP POP JUMP JUMPDEST PUSH1 0x0 PUSH1 0x20 DUP3 ADD SWAP1 POP PUSH2 0x300A PUSH1 0x0 DUP4 ADD DUP5 PUSH2 0x2E14 JUMP JUMPDEST SWAP3 SWAP2 POP POP JUMP JUMPDEST PUSH1 0x0 PUSH1 0xC0 DUP3 ADD SWAP1 POP PUSH2 0x3025 PUSH1 0x0 DUP4 ADD DUP10 PUSH2 0x2E14 JUMP JUMPDEST PUSH2 0x3032 PUSH1 0x20 DUP4 ADD DUP9 PUSH2 0x2A56 JUMP JUMPDEST DUP2 DUP2 SUB PUSH1 0x40 DUP4 ADD MSTORE PUSH2 0x3044 DUP2 DUP8 PUSH2 0x2B88 JUMP JUMPDEST SWAP1 POP PUSH2 0x3053 PUSH1 0x60 DUP4 ADD DUP7 PUSH2 0x2E14 JUMP JUMPDEST PUSH2 0x3060 PUSH1 0x80 DUP4 ADD DUP6 PUSH2 0x2E14 JUMP JUMPDEST DUP2 DUP2 SUB PUSH1 0xA0 DUP4 ADD MSTORE PUSH2 0x3072 DUP2 DUP5 PUSH2 0x2C9B JUMP JUMPDEST SWAP1 POP SWAP8 SWAP7 POP POP POP POP POP POP POP JUMP JUMPDEST PUSH1 0x0 PUSH2 0x3089 PUSH2 0x309A JUMP JUMPDEST SWAP1 POP PUSH2 0x3095 DUP3 DUP3 PUSH2 0x3364 JUMP JUMPDEST SWAP2 SWAP1 POP JUMP JUMPDEST PUSH1 0x0 PUSH1 0x40 MLOAD SWAP1 POP SWAP1 JUMP JUMPDEST PUSH1 0x0 PUSH8 0xFFFFFFFFFFFFFFFF DUP3 GT ISZERO PUSH2 0x30BF JUMPI PUSH2 0x30BE PUSH2 0x346B JUMP JUMPDEST JUMPDEST PUSH1 0x20 DUP3 MUL SWAP1 POP PUSH1 0x20 DUP2 ADD SWAP1 POP SWAP2 SWAP1 POP JUMP JUMPDEST PUSH1 0x0 PUSH8 0xFFFFFFFFFFFFFFFF DUP3 GT ISZERO PUSH2 0x30EB JUMPI PUSH2 0x30EA PUSH2 0x346B JUMP JUMPDEST JUMPDEST PUSH1 0x20 DUP3 MUL SWAP1 POP SWAP2 SWAP1 POP JUMP JUMPDEST PUSH1 0x0 PUSH8 0xFFFFFFFFFFFFFFFF DUP3 GT ISZERO PUSH2 0x3111 JUMPI PUSH2 0x3110 PUSH2 0x346B JUMP JUMPDEST JUMPDEST PUSH2 0x311A DUP3 PUSH2 0x34B3 JUMP JUMPDEST SWAP1 POP PUSH1 0x20 DUP2 ADD SWAP1 POP SWAP2 SWAP1 POP JUMP JUMPDEST PUSH1 0x0 DUP2 SWAP1 POP PUSH1 0x20 DUP3 ADD SWAP1 POP SWAP2 SWAP1 POP JUMP JUMPDEST PUSH1 0x0 DUP2 SWAP1 POP SWAP2 SWAP1 POP JUMP JUMPDEST PUSH1 0x0 DUP2 MLOAD SWAP1 POP SWAP2 SWAP1 POP JUMP JUMPDEST PUSH1 0x0 PUSH1 0xC SWAP1 POP SWAP2 SWAP1 POP JUMP JUMPDEST PUSH1 0x0 DUP2 MLOAD SWAP1 POP SWAP2 SWAP1 POP JUMP JUMPDEST PUSH1 0x0 PUSH1 0x20 DUP3 ADD SWAP1 POP SWAP2 SWAP1 POP JUMP JUMPDEST PUSH1 0x0 PUSH1 0x20 DUP3 ADD SWAP1 POP SWAP2 SWAP1 POP JUMP JUMPDEST PUSH1 0x0 DUP3 DUP3 MSTORE PUSH1 0x20 DUP3 ADD SWAP1 POP SWAP3 SWAP2 POP POP JUMP JUMPDEST PUSH1 0x0 DUP2 SWAP1 POP SWAP3 SWAP2 POP POP JUMP JUMPDEST PUSH1 0x0 DUP3 DUP3 MSTORE PUSH1 0x20 DUP3 ADD SWAP1 POP SWAP3 SWAP2 POP POP JUMP JUMPDEST PUSH1 0x0 DUP3 DUP3 MSTORE PUSH1 0x20 DUP3 ADD SWAP1 POP SWAP3 SWAP2 POP POP JUMP JUMPDEST PUSH1 0x0 PUSH2 0x31C5 DUP3 PUSH2 0x32E6 JUMP JUMPDEST SWAP2 POP PUSH2 0x31D0 DUP4 PUSH2 0x32E6 JUMP JUMPDEST SWAP3 POP DUP3 PUSH32 0xFFFFFFFFFFFFFFFFFFFFFFFFFFFFFFFFFFFFFFFFFFFFFFFFFFFFFFFFFFFFFFFF SUB DUP3 GT ISZERO PUSH2 0x3205 JUMPI PUSH2 0x3204 PUSH2 0x33DE JUMP JUMPDEST JUMPDEST DUP3 DUP3 ADD SWAP1 POP SWAP3 SWAP2 POP POP JUMP JUMPDEST PUSH1 0x0 PUSH2 0x321B DUP3 PUSH2 0x32E6 JUMP JUMPDEST SWAP2 POP PUSH2 0x3226 DUP4 PUSH2 0x32E6 JUMP JUMPDEST SWAP3 POP DUP2 PUSH32 0xFFFFFFFFFFFFFFFFFFFFFFFFFFFFFFFFFFFFFFFFFFFFFFFFFFFFFFFFFFFFFFFF DIV DUP4 GT DUP3 ISZERO ISZERO AND ISZERO PUSH2 0x325F JUMPI PUSH2 0x325E PUSH2 0x33DE JUMP JUMPDEST JUMPDEST DUP3 DUP3 MUL SWAP1 POP SWAP3 SWAP2 POP POP JUMP JUMPDEST PUSH1 0x0 PUSH2 0x3275 DUP3 PUSH2 0x32E6 JUMP JUMPDEST SWAP2 POP PUSH2 0x3280 DUP4 PUSH2 0x32E6 JUMP JUMPDEST SWAP3 POP DUP3 DUP3 LT ISZERO PUSH2 0x3293 JUMPI PUSH2 0x3292 PUSH2 0x33DE JUMP JUMPDEST JUMPDEST DUP3 DUP3 SUB SWAP1 POP SWAP3 SWAP2 POP POP JUMP JUMPDEST PUSH1 0x0 PUSH2 0x32A9 DUP3 PUSH2 0x32C6 JUMP JUMPDEST SWAP1 POP SWAP2 SWAP1 POP JUMP JUMPDEST PUSH1 0x0 DUP2 ISZERO ISZERO SWAP1 POP SWAP2 SWAP1 POP JUMP JUMPDEST PUSH1 0x0 DUP2 SWAP1 POP SWAP2 SWAP1 POP JUMP JUMPDEST PUSH1 0x0 PUSH20 0xFFFFFFFFFFFFFFFFFFFFFFFFFFFFFFFFFFFFFFFF DUP3 AND SWAP1 POP SWAP2 SWAP1 POP JUMP JUMPDEST PUSH1 0x0 DUP2 SWAP1 POP SWAP2 SWAP1 POP JUMP JUMPDEST DUP3 DUP2 DUP4 CALLDATACOPY PUSH1 0x0 DUP4 DUP4 ADD MSTORE POP POP POP JUMP JUMPDEST PUSH1 0x0 JUMPDEST DUP4 DUP2 LT ISZERO PUSH2 0x331D JUMPI DUP1 DUP3 ADD MLOAD DUP2 DUP5 ADD MSTORE PUSH1 0x20 DUP2 ADD SWAP1 POP PUSH2 0x3302 JUMP JUMPDEST DUP4 DUP2 GT ISZERO PUSH2 0x332C JUMPI PUSH1 0x0 DUP5 DUP5 ADD MSTORE JUMPDEST POP POP POP POP JUMP JUMPDEST PUSH1 0x0 PUSH1 0x2 DUP3 DIV SWAP1 POP PUSH1 0x1 DUP3 AND DUP1 PUSH2 0x334A JUMPI PUSH1 0x7F DUP3 AND SWAP2 POP JUMPDEST PUSH1 0x20 DUP3 LT DUP2 EQ ISZERO PUSH2 0x335E JUMPI PUSH2 0x335D PUSH2 0x340D JUMP JUMPDEST JUMPDEST POP SWAP2 SWAP1 POP JUMP JUMPDEST PUSH2 0x336D DUP3 PUSH2 0x34B3 JUMP JUMPDEST DUP2 ADD DUP2 DUP2 LT PUSH8 0xFFFFFFFFFFFFFFFF DUP3 GT OR ISZERO PUSH2 0x338C JUMPI PUSH2 0x338B PUSH2 0x346B JUMP JUMPDEST JUMPDEST DUP1 PUSH1 0x40 MSTORE POP POP POP JUMP JUMPDEST PUSH1 0x0 PUSH2 0x33A0 DUP3 PUSH2 0x32E6 JUMP JUMPDEST SWAP2 POP PUSH32 0xFFFFFFFFFFFFFFFFFFFFFFFFFFFFFFFFFFFFFFFFFFFFFFFFFFFFFFFFFFFFFFFF DUP3 EQ ISZERO PUSH2 0x33D3 JUMPI PUSH2 0x33D2 PUSH2 0x33DE JUMP JUMPDEST JUMPDEST PUSH1 0x1 DUP3 ADD SWAP1 POP SWAP2 SWAP1 POP JUMP JUMPDEST PUSH32 0x4E487B7100000000000000000000000000000000000000000000000000000000 PUSH1 0x0 MSTORE PUSH1 0x11 PUSH1 0x4 MSTORE PUSH1 0x24 PUSH1 0x0 REVERT JUMPDEST PUSH32 0x4E487B7100000000000000000000000000000000000000000000000000000000 PUSH1 0x0 MSTORE PUSH1 0x22 PUSH1 0x4 MSTORE PUSH1 0x24 PUSH1 0x0 REVERT JUMPDEST PUSH32 0x4E487B7100000000000000000000000000000000000000000000000000000000 PUSH1 0x0 MSTORE PUSH1 0x32 PUSH1 0x4 MSTORE PUSH1 0x24 PUSH1 0x0 REVERT JUMPDEST PUSH32 0x4E487B7100000000000000000000000000000000000000000000000000000000 PUSH1 0x0 MSTORE PUSH1 0x41 PUSH1 0x4 MSTORE PUSH1 0x24 PUSH1 0x0 REVERT JUMPDEST PUSH1 0x0 DUP1 REVERT JUMPDEST PUSH1 0x0 DUP1 REVERT JUMPDEST PUSH1 0x0 DUP1 REVERT JUMPDEST PUSH1 0x0 DUP1 REVERT JUMPDEST PUSH1 0x0 DUP1 REVERT JUMPDEST PUSH1 0x0 PUSH1 0x1F NOT PUSH1 0x1F DUP4 ADD AND SWAP1 POP SWAP2 SWAP1 POP JUMP JUMPDEST PUSH2 0x34CD DUP2 PUSH2 0x329E JUMP JUMPDEST DUP2 EQ PUSH2 0x34D8 JUMPI PUSH1 0x0 DUP1 REVERT JUMPDEST POP JUMP JUMPDEST PUSH2 0x34E4 DUP2 PUSH2 0x32BC JUMP JUMPDEST DUP2 EQ PUSH2 0x34EF JUMPI PUSH1 0x0 DUP1 REVERT JUMPDEST POP JUMP JUMPDEST PUSH2 0x34FB DUP2 PUSH2 0x32E6 JUMP JUMPDEST DUP2 EQ PUSH2 0x3506 JUMPI PUSH1 0x0 DUP1 REVERT JUMPDEST POP JUMP INVALID LOG2 PUSH5 0x6970667358 0x22 SLT KECCAK256 0x1E 0xEC SSTORE PUSH4 0xA138F74A 0xCD PUSH16 0x18E07CD9A9B62A0AAEA01D79788CB1AD PUSH8 0x6C1114C90E64736F PUSH13 0x63430008070033000000000000 "
				},
				"gasEstimates": {
					"creation": {
						"codeDepositCost": "2726200",
						"executionCost": "2961",
						"totalCost": "2729161"
					},
					"external": {
						"balances(address)": "2881",
						"buy_product(uint256,uint256)": "infinite",
						"create_prod(string,uint256,uint256,string,string,int256,string[],string[],string[],string,string[])": "infinite",
						"create_user(string,string,string,string,uint256,uint256[12],string)": "infinite",
						"getBalance()": "362",
						"getBalance(address)": "2929",
						"getBalance2(address)": "3258",
						"getProd(uint256)": "infinite",
						"products(uint256)": "infinite",
						"transferFund(address,uint256)": "infinite",
						"users(uint256)": "infinite"
					}
				},
				"methodIdentifiers": {
					"balances(address)": "27e235e3",
					"buy_product(uint256,uint256)": "1d9faa11",
					"create_prod(string,uint256,uint256,string,string,int256,string[],string[],string[],string,string[])": "a14595ca",
					"create_user(string,string,string,string,uint256,uint256[12],string)": "2f4e1704",
					"getBalance()": "12065fe0",
					"getBalance(address)": "f8b2cb4f",
					"getBalance2(address)": "0a46516b",
					"getProd(uint256)": "fc99cc3b",
					"products(uint256)": "7acc0b20",
					"transferFund(address,uint256)": "e2dc35e0",
					"users(uint256)": "365b98b2"
				}
			},
			"userdoc": {
				"kind": "user",
				"methods": {},
				"version": 1
			}
		}
	}
}