{
  "contractName": "PSCMBC",
  "abi": [
    {
      "inputs": [
        {
          "internalType": "address[]",
          "name": "addr",
          "type": "address[]"
        }
      ],
      "stateMutability": "payable",
      "type": "constructor",
      "payable": true
    },
    {
      "anonymous": false,
      "inputs": [
        {
          "indexed": false,
          "internalType": "address",
          "name": "buyer",
          "type": "address"
        },
        {
          "indexed": false,
          "internalType": "address",
          "name": "seller",
          "type": "address"
        },
        {
          "indexed": false,
          "internalType": "uint256",
          "name": "prodId",
          "type": "uint256"
        },
        {
          "indexed": false,
          "internalType": "uint256",
          "name": "txnAmount",
          "type": "uint256"
        },
        {
          "indexed": false,
          "internalType": "uint256",
          "name": "quantity",
          "type": "uint256"
        },
        {
          "indexed": false,
          "internalType": "uint256",
          "name": "date",
          "type": "uint256"
        }
      ],
      "name": "PaymentDone",
      "type": "event"
    },
    {
      "anonymous": false,
      "inputs": [
        {
          "indexed": false,
          "internalType": "uint256",
          "name": "prod_id",
          "type": "uint256"
        },
        {
          "indexed": false,
          "internalType": "address",
          "name": "owner_id",
          "type": "address"
        },
        {
          "indexed": false,
          "internalType": "string",
          "name": "prod_name",
          "type": "string"
        },
        {
          "indexed": false,
          "internalType": "uint256",
          "name": "price",
          "type": "uint256"
        },
        {
          "indexed": false,
          "internalType": "uint256",
          "name": "avaiableUnits",
          "type": "uint256"
        },
        {
          "components": [
            {
              "internalType": "string",
              "name": "drug_name",
              "type": "string"
            },
            {
              "internalType": "string",
              "name": "drug_class",
              "type": "string"
            },
            {
              "internalType": "int256",
              "name": "storage_temp",
              "type": "int256"
            },
            {
              "internalType": "string[]",
              "name": "ingredients",
              "type": "string[]"
            },
            {
              "internalType": "string[]",
              "name": "mfg_date",
              "type": "string[]"
            },
            {
              "internalType": "string[]",
              "name": "exp_date",
              "type": "string[]"
            },
            {
              "internalType": "string",
              "name": "batch_no",
              "type": "string"
            },
            {
              "internalType": "string[]",
              "name": "sideEffects",
              "type": "string[]"
            }
          ],
          "indexed": false,
          "internalType": "struct PSCMBC.Description",
          "name": "prod_desc",
          "type": "tuple"
        }
      ],
      "name": "ProductCreated",
      "type": "event"
    },
    {
      "anonymous": false,
      "inputs": [
        {
          "indexed": false,
          "internalType": "address",
          "name": "user_id",
          "type": "address"
        },
        {
          "indexed": false,
          "internalType": "string",
          "name": "org_name",
          "type": "string"
        },
        {
          "indexed": false,
          "internalType": "string",
          "name": "user_type",
          "type": "string"
        },
        {
          "indexed": false,
          "internalType": "string",
          "name": "email",
          "type": "string"
        },
        {
          "indexed": false,
          "internalType": "string",
          "name": "password",
          "type": "string"
        },
        {
          "indexed": false,
          "internalType": "uint256",
          "name": "balance",
          "type": "uint256"
        },
        {
          "indexed": false,
          "internalType": "uint256",
          "name": "TIN",
          "type": "uint256"
        },
        {
          "indexed": false,
          "internalType": "string",
          "name": "location",
          "type": "string"
        }
      ],
      "name": "UserCreated",
      "type": "event"
    },
    {
      "inputs": [
        {
          "internalType": "address",
          "name": "",
          "type": "address"
        }
      ],
      "name": "balances",
      "outputs": [
        {
          "internalType": "uint256",
          "name": "",
          "type": "uint256"
        }
      ],
      "stateMutability": "view",
      "type": "function",
      "constant": true
    },
    {
      "inputs": [
        {
          "internalType": "uint256",
          "name": "",
          "type": "uint256"
        }
      ],
      "name": "products",
      "outputs": [
        {
          "internalType": "uint256",
          "name": "prod_id",
          "type": "uint256"
        },
        {
          "internalType": "address",
          "name": "owner_id",
          "type": "address"
        },
        {
          "internalType": "string",
          "name": "prod_name",
          "type": "string"
        },
        {
          "internalType": "uint256",
          "name": "price",
          "type": "uint256"
        },
        {
          "internalType": "uint256",
          "name": "avaiableUnits",
          "type": "uint256"
        },
        {
          "components": [
            {
              "internalType": "string",
              "name": "drug_name",
              "type": "string"
            },
            {
              "internalType": "string",
              "name": "drug_class",
              "type": "string"
            },
            {
              "internalType": "int256",
              "name": "storage_temp",
              "type": "int256"
            },
            {
              "internalType": "string[]",
              "name": "ingredients",
              "type": "string[]"
            },
            {
              "internalType": "string[]",
              "name": "mfg_date",
              "type": "string[]"
            },
            {
              "internalType": "string[]",
              "name": "exp_date",
              "type": "string[]"
            },
            {
              "internalType": "string",
              "name": "batch_no",
              "type": "string"
            },
            {
              "internalType": "string[]",
              "name": "sideEffects",
              "type": "string[]"
            }
          ],
          "internalType": "struct PSCMBC.Description",
          "name": "prod_desc",
          "type": "tuple"
        }
      ],
      "stateMutability": "view",
      "type": "function",
      "constant": true
    },
    {
      "inputs": [
        {
          "internalType": "uint256",
          "name": "",
          "type": "uint256"
        }
      ],
      "name": "users",
      "outputs": [
        {
          "internalType": "address",
          "name": "user_id",
          "type": "address"
        },
        {
          "internalType": "string",
          "name": "org_name",
          "type": "string"
        },
        {
          "internalType": "string",
          "name": "user_type",
          "type": "string"
        },
        {
          "internalType": "string",
          "name": "email",
          "type": "string"
        },
        {
          "internalType": "string",
          "name": "password",
          "type": "string"
        },
        {
          "internalType": "uint256",
          "name": "balance",
          "type": "uint256"
        },
        {
          "internalType": "uint256",
          "name": "TIN",
          "type": "uint256"
        },
        {
          "internalType": "string",
          "name": "location",
          "type": "string"
        }
      ],
      "stateMutability": "view",
      "type": "function",
      "constant": true
    },
    {
      "inputs": [
        {
          "internalType": "string",
          "name": "ut",
          "type": "string"
        },
        {
          "internalType": "string",
          "name": "on",
          "type": "string"
        },
        {
          "internalType": "string",
          "name": "email",
          "type": "string"
        },
        {
          "internalType": "string",
          "name": "pass",
          "type": "string"
        },
        {
          "internalType": "uint256",
          "name": "bal",
          "type": "uint256"
        },
        {
          "internalType": "uint256",
          "name": "TIN",
          "type": "uint256"
        },
        {
          "internalType": "string",
          "name": "loc",
          "type": "string"
        }
      ],
      "name": "create_user",
      "outputs": [],
      "stateMutability": "nonpayable",
      "type": "function"
    },
    {
      "inputs": [
        {
          "internalType": "uint256",
          "name": "prodId",
          "type": "uint256"
        },
        {
          "internalType": "uint256",
          "name": "amount",
          "type": "uint256"
        }
      ],
      "name": "buy_product",
      "outputs": [
        {
          "internalType": "bool",
          "name": "bought",
          "type": "bool"
        }
      ],
      "stateMutability": "nonpayable",
      "type": "function"
    },
    {
      "inputs": [
        {
          "internalType": "address",
          "name": "_to",
          "type": "address"
        },
        {
          "internalType": "uint256",
          "name": "_value",
          "type": "uint256"
        }
      ],
      "name": "transferFund",
      "outputs": [
        {
          "internalType": "bool",
          "name": "sufficient",
          "type": "bool"
        }
      ],
      "stateMutability": "nonpayable",
      "type": "function"
    },
    {
      "inputs": [],
      "name": "getBalance",
      "outputs": [
        {
          "internalType": "uint256",
          "name": "",
          "type": "uint256"
        }
      ],
      "stateMutability": "view",
      "type": "function",
      "constant": true
    },
    {
      "inputs": [
        {
          "internalType": "address",
          "name": "add",
          "type": "address"
        }
      ],
      "name": "getBalance",
      "outputs": [
        {
          "internalType": "uint256",
          "name": "",
          "type": "uint256"
        }
      ],
      "stateMutability": "view",
      "type": "function",
      "constant": true
    },
    {
      "inputs": [
        {
          "internalType": "uint256",
          "name": "x",
          "type": "uint256"
        }
      ],
      "name": "getProd",
      "outputs": [
        {
          "components": [
            {
              "internalType": "uint256",
              "name": "prod_id",
              "type": "uint256"
            },
            {
              "internalType": "address",
              "name": "owner_id",
              "type": "address"
            },
            {
              "internalType": "string",
              "name": "prod_name",
              "type": "string"
            },
            {
              "internalType": "uint256",
              "name": "price",
              "type": "uint256"
            },
            {
              "internalType": "uint256",
              "name": "avaiableUnits",
              "type": "uint256"
            },
            {
              "components": [
                {
                  "internalType": "string",
                  "name": "drug_name",
                  "type": "string"
                },
                {
                  "internalType": "string",
                  "name": "drug_class",
                  "type": "string"
                },
                {
                  "internalType": "int256",
                  "name": "storage_temp",
                  "type": "int256"
                },
                {
                  "internalType": "string[]",
                  "name": "ingredients",
                  "type": "string[]"
                },
                {
                  "internalType": "string[]",
                  "name": "mfg_date",
                  "type": "string[]"
                },
                {
                  "internalType": "string[]",
                  "name": "exp_date",
                  "type": "string[]"
                },
                {
                  "internalType": "string",
                  "name": "batch_no",
                  "type": "string"
                },
                {
                  "internalType": "string[]",
                  "name": "sideEffects",
                  "type": "string[]"
                }
              ],
              "internalType": "struct PSCMBC.Description",
              "name": "prod_desc",
              "type": "tuple"
            }
          ],
          "internalType": "struct PSCMBC.Product",
          "name": "p",
          "type": "tuple"
        }
      ],
      "stateMutability": "view",
      "type": "function",
      "constant": true
    },
    {
      "inputs": [
        {
          "internalType": "address",
          "name": "addr",
          "type": "address"
        }
      ],
      "name": "getBalance2",
      "outputs": [
        {
          "internalType": "uint256",
          "name": "",
          "type": "uint256"
        }
      ],
      "stateMutability": "view",
      "type": "function",
      "constant": true
    },
    {
      "inputs": [
        {
          "internalType": "string",
          "name": "pn",
          "type": "string"
        },
        {
          "internalType": "uint256",
          "name": "pr",
          "type": "uint256"
        },
        {
          "internalType": "uint256",
          "name": "au",
          "type": "uint256"
        },
        {
          "internalType": "string",
          "name": "dn",
          "type": "string"
        },
        {
          "internalType": "string",
          "name": "dc",
          "type": "string"
        },
        {
          "internalType": "int256",
          "name": "st",
          "type": "int256"
        },
        {
          "internalType": "string[]",
          "name": "i",
          "type": "string[]"
        },
        {
          "internalType": "string[]",
          "name": "md",
          "type": "string[]"
        },
        {
          "internalType": "string[]",
          "name": "ed",
          "type": "string[]"
        },
        {
          "internalType": "string",
          "name": "bn",
          "type": "string"
        },
        {
          "internalType": "string[]",
          "name": "se",
          "type": "string[]"
        }
      ],
      "name": "create_prod",
      "outputs": [],
      "stateMutability": "nonpayable",
      "type": "function"
    }
  ],
  "bytecode": "0x608060405260405162002af138038062002af18339810160408190526200002691620000e5565b60005b81518110156200009157612710600260008484815181106200004f576200004f620001b7565b6020026020010151600160a060020a0316600160a060020a031681526020019081526020016000208190555080806200008890620001e6565b91505062000029565b505062000227565b7f4e487b7100000000000000000000000000000000000000000000000000000000600052604160045260246000fd5b8051600160a060020a0381168114620000e057600080fd5b919050565b60006020808385031215620000f957600080fd5b825167ffffffffffffffff808211156200011257600080fd5b818501915085601f8301126200012757600080fd5b8151818111156200013c576200013c62000099565b838102604051601f19603f8301168101818110858211171562000163576200016362000099565b6040529182528482019250838101850191888311156200018257600080fd5b938501935b82851015620001ab576200019b85620000c8565b8452938501939285019262000187565b98975050505050505050565b7f4e487b7100000000000000000000000000000000000000000000000000000000600052603260045260246000fd5b60006001820162000220577f4e487b7100000000000000000000000000000000000000000000000000000000600052601160045260246000fd5b5060010190565b6128ba80620002376000396000f3fe608060405234801561001057600080fd5b50600436106100c6576000357c0100000000000000000000000000000000000000000000000000000000900480637acc0b201161008e5780637acc0b201461016a578063a14595ca1461018f578063e2dc35e0146101a4578063ec78455b146101b7578063f8b2cb4f146101ca578063fc99cc3b146101f357600080fd5b80630a46516b146100cb57806312065fe0146100f95780631d9faa111461010057806327e235e314610123578063365b98b214610143575b600080fd5b6100e66100d93660046120e9565b600160a060020a03163190565b6040519081526020015b60405180910390f35b30316100e6565b61011361010e36600461210b565b610213565b60405190151581526020016100f0565b6100e66101313660046120e9565b60026020526000908152604090205481565b61015661015136600461212d565b610a90565b6040516100f0989796959493929190612193565b61017d61017836600461212d565b610d96565b6040516100f09695949392919061233a565b6101a261019d3660046124e5565b6113a0565b005b6101136101b236600461264e565b61162f565b6101a26101c5366004612678565b6116a0565b6100e66101d83660046120e9565b600160a060020a031660009081526002602052604090205490565b61020661020136600461212d565b6118ad565b6040516100f0919061275d565b6000821580159061024857508160008481548110610233576102336127c7565b90600052602060002090600d02016004015410155b15610a865760008260008581548110610263576102636127c7565b90600052602060002090600d02016003015461027f91906127f9565b90506102ba60008581548110610297576102976127c7565b600091825260209091206001600d909202010154600160a060020a03168261162f565b6102c8576000915050610a8a565b82600085815481106102dc576102dc6127c7565b90600052602060002090600d020160040160008282546102fc9190612818565b925050819055506109f260008581548110610319576103196127c7565b90600052602060002090600d020160020180546103359061282f565b80601f01602080910402602001604051908101604052809291908181526020018280546103619061282f565b80156103ae5780601f10610383576101008083540402835291602001916103ae565b820191906000526020600020905b81548152906001019060200180831161039157829003601f168201915b5050505050600086815481106103c6576103c66127c7565b90600052602060002090600d02016003015485600088815481106103ec576103ec6127c7565b90600052602060002090600d0201600501600001805461040b9061282f565b80601f01602080910402602001604051908101604052809291908181526020018280546104379061282f565b80156104845780601f1061045957610100808354040283529160200191610484565b820191906000526020600020905b81548152906001019060200180831161046757829003601f168201915b50505050506000898154811061049c5761049c6127c7565b90600052602060002090600d020160050160010180546104bb9061282f565b80601f01602080910402602001604051908101604052809291908181526020018280546104e79061282f565b80156105345780601f1061050957610100808354040283529160200191610534565b820191906000526020600020905b81548152906001019060200180831161051757829003601f168201915b505050505060008a8154811061054c5761054c6127c7565b90600052602060002090600d02016005016002015460008b81548110610574576105746127c7565b90600052602060002090600d0201600501600301805480602002602001604051908101604052809291908181526020016000905b828210156106545783829060005260206000200180546105c79061282f565b80601f01602080910402602001604051908101604052809291908181526020018280546105f39061282f565b80156106405780601f1061061557610100808354040283529160200191610640565b820191906000526020600020905b81548152906001019060200180831161062357829003601f168201915b5050505050815260200190600101906105a8565b5050505060008c8154811061066b5761066b6127c7565b90600052602060002090600d0201600501600401805480602002602001604051908101604052809291908181526020016000905b8282101561074b5783829060005260206000200180546106be9061282f565b80601f01602080910402602001604051908101604052809291908181526020018280546106ea9061282f565b80156107375780601f1061070c57610100808354040283529160200191610737565b820191906000526020600020905b81548152906001019060200180831161071a57829003601f168201915b50505050508152602001906001019061069f565b5050505060008d81548110610762576107626127c7565b90600052602060002090600d0201600501600501805480602002602001604051908101604052809291908181526020016000905b828210156108425783829060005260206000200180546107b59061282f565b80601f01602080910402602001604051908101604052809291908181526020018280546107e19061282f565b801561082e5780601f106108035761010080835404028352916020019161082e565b820191906000526020600020905b81548152906001019060200180831161081157829003601f168201915b505050505081526020019060010190610796565b5050505060008e81548110610859576108596127c7565b90600052602060002090600d020160050160060180546108789061282f565b80601f01602080910402602001604051908101604052809291908181526020018280546108a49061282f565b80156108f15780601f106108c6576101008083540402835291602001916108f1565b820191906000526020600020905b8154815290600101906020018083116108d457829003601f168201915b505050505060008f81548110610909576109096127c7565b90600052602060002090600d0201600501600701805480602002602001604051908101604052809291908181526020016000905b828210156109e957838290600052602060002001805461095c9061282f565b80601f01602080910402602001604051908101604052809291908181526020018280546109889061282f565b80156109d55780601f106109aa576101008083540402835291602001916109d5565b820191906000526020600020905b8154815290600101906020018083116109b857829003601f168201915b50505050508152602001906001019061093d565b505050506113a0565b7f75f416a1740de68a6376bad70148558f2da14b6cf24e78547c6a73c9d68c0bd73360008681548110610a2757610a276127c7565b6000918252602091829020600d909102016001015460408051600160a060020a0394851681529390911691830191909152810186905260608101839052608081018590524260a082015260c00160405180910390a16001915050610a8a565b5060005b92915050565b60018181548110610aa057600080fd5b600091825260209091206008909102018054600182018054600160a060020a03909216935090610acf9061282f565b80601f0160208091040260200160405190810160405280929190818152602001828054610afb9061282f565b8015610b485780601f10610b1d57610100808354040283529160200191610b48565b820191906000526020600020905b815481529060010190602001808311610b2b57829003601f168201915b505050505090806002018054610b5d9061282f565b80601f0160208091040260200160405190810160405280929190818152602001828054610b899061282f565b8015610bd65780601f10610bab57610100808354040283529160200191610bd6565b820191906000526020600020905b815481529060010190602001808311610bb957829003601f168201915b505050505090806003018054610beb9061282f565b80601f0160208091040260200160405190810160405280929190818152602001828054610c179061282f565b8015610c645780601f10610c3957610100808354040283529160200191610c64565b820191906000526020600020905b815481529060010190602001808311610c4757829003601f168201915b505050505090806004018054610c799061282f565b80601f0160208091040260200160405190810160405280929190818152602001828054610ca59061282f565b8015610cf25780601f10610cc757610100808354040283529160200191610cf2565b820191906000526020600020905b815481529060010190602001808311610cd557829003601f168201915b505050505090806005015490806006015490806007018054610d139061282f565b80601f0160208091040260200160405190810160405280929190818152602001828054610d3f9061282f565b8015610d8c5780601f10610d6157610100808354040283529160200191610d8c565b820191906000526020600020905b815481529060010190602001808311610d6f57829003601f168201915b5050505050905088565b60008181548110610da657600080fd5b60009182526020909120600d9091020180546001820154600283018054929450600160a060020a039091169291610ddc9061282f565b80601f0160208091040260200160405190810160405280929190818152602001828054610e089061282f565b8015610e555780601f10610e2a57610100808354040283529160200191610e55565b820191906000526020600020905b815481529060010190602001808311610e3857829003601f168201915b5050505050908060030154908060040154908060050160405180610100016040529081600082018054610e879061282f565b80601f0160208091040260200160405190810160405280929190818152602001828054610eb39061282f565b8015610f005780601f10610ed557610100808354040283529160200191610f00565b820191906000526020600020905b815481529060010190602001808311610ee357829003601f168201915b50505050508152602001600182018054610f199061282f565b80601f0160208091040260200160405190810160405280929190818152602001828054610f459061282f565b8015610f925780601f10610f6757610100808354040283529160200191610f92565b820191906000526020600020905b815481529060010190602001808311610f7557829003601f168201915b505050505081526020016002820154815260200160038201805480602002602001604051908101604052809291908181526020016000905b82821015611076578382906000526020600020018054610fe99061282f565b80601f01602080910402602001604051908101604052809291908181526020018280546110159061282f565b80156110625780601f1061103757610100808354040283529160200191611062565b820191906000526020600020905b81548152906001019060200180831161104557829003601f168201915b505050505081526020019060010190610fca565b50505050815260200160048201805480602002602001604051908101604052809291908181526020016000905b8282101561114f5783829060005260206000200180546110c29061282f565b80601f01602080910402602001604051908101604052809291908181526020018280546110ee9061282f565b801561113b5780601f106111105761010080835404028352916020019161113b565b820191906000526020600020905b81548152906001019060200180831161111e57829003601f168201915b5050505050815260200190600101906110a3565b50505050815260200160058201805480602002602001604051908101604052809291908181526020016000905b8282101561122857838290600052602060002001805461119b9061282f565b80601f01602080910402602001604051908101604052809291908181526020018280546111c79061282f565b80156112145780601f106111e957610100808354040283529160200191611214565b820191906000526020600020905b8154815290600101906020018083116111f757829003601f168201915b50505050508152602001906001019061117c565b5050505081526020016006820180546112409061282f565b80601f016020809104026020016040519081016040528092919081815260200182805461126c9061282f565b80156112b95780601f1061128e576101008083540402835291602001916112b9565b820191906000526020600020905b81548152906001019060200180831161129c57829003601f168201915b5050505050815260200160078201805480602002602001604051908101604052809291908181526020016000905b828210156113935783829060005260206000200180546113069061282f565b80601f01602080910402602001604051908101604052809291908181526020018280546113329061282f565b801561137f5780601f106113545761010080835404028352916020019161137f565b820191906000526020600020905b81548152906001019060200180831161136257829003601f168201915b5050505050815260200190600101906112e7565b5050505081525050905086565b6113a8611efd565b6000546113b690600161286c565b816000018181525050338160200190600160a060020a03169081600160a060020a0316815250508b81604001819052508a81606001818152505089816080018181525050888160a0015160000181905250878160a0015160200181905250868160a001516040018181525050858160a0015160600181905250848160a0015160800181905250838160a0015160a00181905250828160a0015160c00181905250818160a0015160e0018190525060008190806001815401808255809150506001900390600052602060002090600d02016000909190919091506000820151816000015560208201518160010160006101000a815481600160a060020a030219169083600160a060020a0316021790555060408201518160020190805190602001906114e2929190611f81565b50606082015160038201556080820151600482015560a082015180518051600584019161151491839160200190611f81565b50602082810151805161152d9260018501920190611f81565b506040820151600282015560608201518051611553916003840191602090910190612005565b506080820151805161156f916004840191602090910190612005565b5060a0820151805161158b916005840191602090910190612005565b5060c082015180516115a7916006840191602090910190611f81565b5060e082015180516115c3916007840191602090910190612005565b50505050507fb7638ec6afb0cbba7f8b3557736034abdc74dad72cab8df4feb527ef815c4b1b816000015182602001518360400151846060015185608001518660a001516040516116199695949392919061233a565b60405180910390a1505050505050505050505050565b336000908152600260205260408120548211610a86573360009081526002602052604081208054849290611664908490612818565b9091555050600160a060020a0383166000908152600260205260408120805484929061169190849061286c565b9091555060019150610a8a9050565b6116f16040518061010001604052806000600160a060020a03168152602001606081526020016060815260200160608152602001606081526020016000815260200160008152602001606081525090565b3381526020808201888152606083018890526080830187905260a0830186905260c0830185905260e08301849052604083018a905260018054808201825560009190915283517fb10e2d527612073b26eecdfd717e6a320cf44b4afac2b0732d9fcbe2b7fa0cf66008909202918201805473ffffffffffffffffffffffffffffffffffffffff1916600160a060020a039092169190911781559151805185946117be937fb10e2d527612073b26eecdfd717e6a320cf44b4afac2b0732d9fcbe2b7fa0cf701920190611f81565b50604082015180516117da916002840191602090910190611f81565b50606082015180516117f6916003840191602090910190611f81565b5060808201518051611812916004840191602090910190611f81565b5060a0820151600582015560c0820151600682015560e08201518051611842916007840191602090910190611f81565b5050815160208301516040808501516060860151608087015160a088015160c089015160e08a015195517f518ea7dd9cb771733cc25367cbaf508d2906dc316cadf6e580c450920005266c995061189b98979690612193565b60405180910390a15050505050505050565b6118b5611efd565b600082815481106118c8576118c86127c7565b90600052602060002090600d02016040518060c0016040529081600082015481526020016001820160009054906101000a9004600160a060020a0316600160a060020a0316600160a060020a0316815260200160028201805461192a9061282f565b80601f01602080910402602001604051908101604052809291908181526020018280546119569061282f565b80156119a35780601f10611978576101008083540402835291602001916119a3565b820191906000526020600020905b81548152906001019060200180831161198657829003601f168201915b50505050508152602001600382015481526020016004820154815260200160058201604051806101000160405290816000820180546119e19061282f565b80601f0160208091040260200160405190810160405280929190818152602001828054611a0d9061282f565b8015611a5a5780601f10611a2f57610100808354040283529160200191611a5a565b820191906000526020600020905b815481529060010190602001808311611a3d57829003601f168201915b50505050508152602001600182018054611a739061282f565b80601f0160208091040260200160405190810160405280929190818152602001828054611a9f9061282f565b8015611aec5780601f10611ac157610100808354040283529160200191611aec565b820191906000526020600020905b815481529060010190602001808311611acf57829003601f168201915b505050505081526020016002820154815260200160038201805480602002602001604051908101604052809291908181526020016000905b82821015611bd0578382906000526020600020018054611b439061282f565b80601f0160208091040260200160405190810160405280929190818152602001828054611b6f9061282f565b8015611bbc5780601f10611b9157610100808354040283529160200191611bbc565b820191906000526020600020905b815481529060010190602001808311611b9f57829003601f168201915b505050505081526020019060010190611b24565b50505050815260200160048201805480602002602001604051908101604052809291908181526020016000905b82821015611ca9578382906000526020600020018054611c1c9061282f565b80601f0160208091040260200160405190810160405280929190818152602001828054611c489061282f565b8015611c955780601f10611c6a57610100808354040283529160200191611c95565b820191906000526020600020905b815481529060010190602001808311611c7857829003601f168201915b505050505081526020019060010190611bfd565b50505050815260200160058201805480602002602001604051908101604052809291908181526020016000905b82821015611d82578382906000526020600020018054611cf59061282f565b80601f0160208091040260200160405190810160405280929190818152602001828054611d219061282f565b8015611d6e5780601f10611d4357610100808354040283529160200191611d6e565b820191906000526020600020905b815481529060010190602001808311611d5157829003601f168201915b505050505081526020019060010190611cd6565b505050508152602001600682018054611d9a9061282f565b80601f0160208091040260200160405190810160405280929190818152602001828054611dc69061282f565b8015611e135780601f10611de857610100808354040283529160200191611e13565b820191906000526020600020905b815481529060010190602001808311611df657829003601f168201915b5050505050815260200160078201805480602002602001604051908101604052809291908181526020016000905b82821015611eed578382906000526020600020018054611e609061282f565b80601f0160208091040260200160405190810160405280929190818152602001828054611e8c9061282f565b8015611ed95780601f10611eae57610100808354040283529160200191611ed9565b820191906000526020600020905b815481529060010190602001808311611ebc57829003601f168201915b505050505081526020019060010190611e41565b5050509152505090525092915050565b6040518060c00160405280600081526020016000600160a060020a03168152602001606081526020016000815260200160008152602001611f7c60405180610100016040528060608152602001606081526020016000815260200160608152602001606081526020016060815260200160608152602001606081525090565b905290565b828054611f8d9061282f565b90600052602060002090601f016020900481019282611faf5760008555611ff5565b82601f10611fc857805160ff1916838001178555611ff5565b82800160010185558215611ff5579182015b82811115611ff5578251825591602001919060010190611fda565b5061200192915061205e565b5090565b828054828255906000526020600020908101928215612052579160200282015b828111156120525782518051612042918491602090910190611f81565b5091602001919060010190612025565b50612001929150612073565b5b80821115612001576000815560010161205f565b808211156120015760006120878282612090565b50600101612073565b50805461209c9061282f565b6000825580601f106120ac575050565b601f0160209004906000526020600020908101906120ca919061205e565b50565b8035600160a060020a03811681146120e457600080fd5b919050565b6000602082840312156120fb57600080fd5b612104826120cd565b9392505050565b6000806040838503121561211e57600080fd5b50508035926020909101359150565b60006020828403121561213f57600080fd5b5035919050565b6000815180845260005b8181101561216c57602081850181015186830182015201612150565b8181111561217e576000602083870101525b50601f01601f19169290920160200192915050565b6000610100600160a060020a038b1683528060208401526121b68184018b612146565b905082810360408401526121ca818a612146565b905082810360608401526121de8189612146565b905082810360808401526121f28188612146565b90508560a08401528460c084015282810360e08401526122128185612146565b9b9a5050505050505050505050565b600081518084526020808501808196508284028101915082860160005b85811015612268578284038952612256848351612146565b9885019893509084019060010161223e565b5091979650505050505050565b6000610100825181855261228b82860182612146565b915050602083015184820360208601526122a58282612146565b91505060408301516040850152606083015184820360608601526122c98282612221565b915050608083015184820360808601526122e38282612221565b91505060a083015184820360a08601526122fd8282612221565b91505060c083015184820360c08601526123178282612146565b91505060e083015184820360e08601526123318282612221565b95945050505050565b868152600160a060020a038616602082015260c06040820152600061236260c0830187612146565b85606084015284608084015282810360a08401526123808185612275565b9998505050505050505050565b60e060020a634e487b7102600052604160045260246000fd5b604051601f8201601f1916810167ffffffffffffffff811182821017156123cf576123cf61238d565b604052919050565b600082601f8301126123e857600080fd5b813567ffffffffffffffff8111156124025761240261238d565b612415601f8201601f19166020016123a6565b81815284602083860101111561242a57600080fd5b816020850160208301376000918101602001919091529392505050565b600082601f83011261245857600080fd5b8135602067ffffffffffffffff808311156124755761247561238d565b8183026124838382016123a6565b938452858101830193838101908886111561249d57600080fd5b84880192505b858310156124d9578235848111156124bb5760008081fd5b6124c98a87838c01016123d7565b83525091840191908401906124a3565b98975050505050505050565b60008060008060008060008060008060006101608c8e03121561250757600080fd5b67ffffffffffffffff808d35111561251e57600080fd5b61252b8e8e358f016123d7565b9b5060208d01359a5060408d013599508060608e0135111561254c57600080fd5b61255c8e60608f01358f016123d7565b98508060808e0135111561256f57600080fd5b61257f8e60808f01358f016123d7565b975060a08d013596508060c08e0135111561259957600080fd5b6125a98e60c08f01358f01612447565b95508060e08e013511156125bc57600080fd5b6125cc8e60e08f01358f01612447565b9450806101008e013511156125e057600080fd5b6125f18e6101008f01358f01612447565b9350806101208e0135111561260557600080fd5b6126168e6101208f01358f016123d7565b9250806101408e0135111561262a57600080fd5b5061263c8d6101408e01358e01612447565b90509295989b509295989b9093969950565b6000806040838503121561266157600080fd5b61266a836120cd565b946020939093013593505050565b600080600080600080600060e0888a03121561269357600080fd5b873567ffffffffffffffff808211156126ab57600080fd5b6126b78b838c016123d7565b985060208a01359150808211156126cd57600080fd5b6126d98b838c016123d7565b975060408a01359150808211156126ef57600080fd5b6126fb8b838c016123d7565b965060608a013591508082111561271157600080fd5b61271d8b838c016123d7565b955060808a0135945060a08a0135935060c08a013591508082111561274157600080fd5b5061274e8a828b016123d7565b91505092959891949750929550565b6020815281516020820152600160a060020a0360208301511660408201526000604083015160c0606084015261279660e0840182612146565b905060608401516080840152608084015160a084015260a0840151601f198483030160c08501526123318282612275565b60e060020a634e487b7102600052603260045260246000fd5b60e060020a634e487b7102600052601160045260246000fd5b6000816000190483118215151615612813576128136127e0565b500290565b60008282101561282a5761282a6127e0565b500390565b60028104600182168061284357607f821691505b6020821081036128665760e060020a634e487b7102600052602260045260246000fd5b50919050565b6000821982111561287f5761287f6127e0565b50019056fea2646970667358221220991d50310391c5c317cbadd46fd22005f6ec8c9f1f636f01a172c7d33996990464736f6c634300080d0033",
  "immutableReferences": {},
  "source": "// SPDX-License-Identifier: MIT\r\npragma solidity >=0.8.0 <0.9.0;\r\n\r\ncontract PSCMBC{\r\n    struct Description{\r\n        string drug_name;\r\n        string drug_class;\r\n        int storage_temp;\r\n        string[] ingredients;\r\n        string[] mfg_date;\r\n        string[] exp_date;\r\n        string batch_no;\r\n        string[] sideEffects;\r\n    }\r\n    \r\n    struct Product{\r\n        uint prod_id;\r\n        address owner_id;\r\n        string prod_name;\r\n        uint price;\r\n        uint avaiableUnits;\r\n        Description prod_desc;\r\n    }\r\n\r\n    Product[] public products;\r\n        struct User{\r\n        address user_id;\r\n        string org_name;\r\n        string user_type;\r\n        string email;\r\n        string password;\r\n        uint balance;\r\n        uint TIN;\r\n        string location;\r\n    }\r\n\r\n    User[] public users;\r\n    mapping (address => uint) public balances;\r\n\r\n    event PaymentDone(\r\n        address buyer,\r\n        address seller,\r\n        uint prodId,\r\n        uint txnAmount,\r\n        uint quantity,\r\n        uint date\r\n    );\r\n\r\n    event UserCreated(\r\n        address user_id,\r\n        string org_name,\r\n        string user_type,\r\n        string email,\r\n        string password,\r\n        uint balance,\r\n        uint TIN,\r\n        string location\r\n    );\r\n\r\n    event ProductCreated(\r\n        uint prod_id,\r\n        address owner_id,\r\n        string prod_name,\r\n        uint price,\r\n        uint avaiableUnits,\r\n        Description prod_desc\r\n    );\r\n\r\n    constructor (address[] memory addr) payable{\r\n        for(uint i = 0; i < addr.length; i++)\r\n            balances[addr[i]] = 10000;\r\n    }\r\n\r\n    function getBalance()  public view returns (uint){\r\n        return address(this).balance;\r\n    }\r\n\r\n\r\n    function create_user(string memory ut, string memory on, string memory email, string memory pass, uint bal, uint TIN, string memory loc) public {\r\n        User memory u;\r\n        u.user_id = msg.sender;\r\n        u.org_name = on;\r\n        u.email = email;\r\n        u.password = pass;\r\n        u.balance = bal;\r\n        u.TIN=TIN;\r\n        u.location = loc;\r\n        u.user_type = ut;\r\n\r\n        users.push(u);\r\n        emit UserCreated(u.user_id, u.org_name, u.user_type, u.email, u.password, u.balance, u.TIN, u.location);\r\n    }\r\n\r\n    function buy_product(uint prodId, uint amount) public returns (bool bought){\r\n        if(prodId != 0 && products[prodId].avaiableUnits >= amount){\r\n            uint val = products[prodId].price * amount;\r\n            if(!transferFund(products[prodId].owner_id, val))\r\n                return false;\r\n            products[prodId].avaiableUnits -= amount;\r\n            create_prod(products[prodId].prod_name, products[prodId].price, amount, products[prodId].prod_desc.drug_name,\r\n            products[prodId].prod_desc.drug_class, products[prodId].prod_desc.storage_temp, products[prodId].prod_desc.ingredients,\r\n            products[prodId].prod_desc.mfg_date, products[prodId].prod_desc.exp_date, products[prodId].prod_desc.batch_no,\r\n            products[prodId].prod_desc.sideEffects);            \r\n            emit PaymentDone(msg.sender, products[prodId].owner_id, prodId, val, amount, block.timestamp);\r\n            return true;\r\n        }\r\n\r\n        return false;\r\n    } \r\n\r\n    function transferFund(address _to, uint256 _value) public returns (bool sufficient) {\r\n        if(getBalance(msg.sender) >= _value){\r\n            balances[msg.sender]-= _value;\r\n            balances[_to]+=_value;\r\n            return true;\r\n        }\r\n        return false;\r\n    }\r\n\r\n    function getBalance(address add) public view returns(uint){\r\n        return balances[add];\r\n    }\r\n\r\n    function getProd(uint x) public view returns(Product memory p){\r\n        return products[x];\r\n    }\r\n\r\n    function getBalance2(address addr) external view returns(uint){\r\n        return addr.balance;\r\n    }\r\n\r\n    function create_prod (string memory pn, uint pr, uint au, string memory dn, string memory dc, \r\n    int st, string[] memory i, string[] memory md, string[] memory ed, string memory bn, string[] memory se) public {\r\n        Product memory p;\r\n        p.prod_id = products.length + 1;\r\n        p.owner_id = msg.sender;\r\n        p.prod_name = pn;\r\n        p.price = pr;\r\n        p.avaiableUnits = au;\r\n        p.prod_desc.drug_name = dn;\r\n        p.prod_desc.drug_class = dc;\r\n        p.prod_desc.storage_temp = st;\r\n        p.prod_desc.ingredients = i;\r\n        p.prod_desc.mfg_date = md;\r\n        p.prod_desc.exp_date = ed;\r\n        p.prod_desc.batch_no = bn;\r\n        p.prod_desc.sideEffects = se;\r\n\r\n        products.push(p);\r\n        emit ProductCreated(p.prod_id, p.owner_id, p.prod_name, p.price, p.avaiableUnits, p.prod_desc);\r\n    }\r\n\r\n    \r\n}",
  "sourcePath": "C:\\MIST\\L-4 T-2\\CSE 400\\PSCMBC_Final\\PSCMBC\\contracts\\pscmbc.sol",
  "compiler": {
    "name": "solc",
    "version": "0.8.13+commit.abaa5c0e.Emscripten.clang"
  },
  "schemaVersion": "3.4.3",
  "updatedAt": "2022-03-26T16:49:06.592Z",
  "networkType": "ethereum",
  "devdoc": {
    "kind": "dev",
    "methods": {},
    "version": 1
  },
  "userdoc": {
    "kind": "user",
    "methods": {},
    "version": 1
  }
}